:020000040800F2
:100000000025002019250008610500086305000887
:10001000670500086B0500086F0500080000000078
:100020000000000000000000000000007305000850
:1000300075050008000000002F2500083125000884
:100040003325000833250008332500083325000830
:100050003325000833250008332500083325000820
:100060003325000833250008332500083325000810
:100070003325000833250008332500083325000800
:1000800033250008332500083325000833250008F0
:1000900033250008332500083325000833250008E0
:1000A00033250008332500083325000833250008D0
:1000B00033250008332500083325000833250008C0
:1000C00033250008332500083325000833250008B0
:1000D00033250008332500083325000833250008A0
:1000E00033250008332500083325000800000000F0
:1000F0000000000000000000000000000000000000
:10010000000000000000000033250008332500082F
:100110003325000833250008DB5D0008332500087F
:10012000332500083325000833250008332500084F
:10013000332500083325000833250008332500083F
:10014000332500083325000833250008770500080B
:1001500000F002F800F03AF80AA090E8000C82449F
:100160008344AAF10107DA4501D100F02FF8AFF27C
:10017000090EBAE80F0013F0010F18BFFB1A43F085
:10018000010318474C9300006C930000103A24BF01
:1001900078C878C1FAD8520724BF30C830C144BFEC
:1001A00004680C607047000000230024002500262E
:1001B000103A28BF78C1FBD8520728BF30C148BFCA
:1001C0000B6070471FB51FBD10B510BD08F063FF71
:1001D0001146FFF7F7FF00F019F808F081FF03B4AC
:1001E000FFF7F2FF03BC08F085FF0000EFF3098082
:1001F000704780F309887047EFF30880704780F3F9
:100200000888704740BA7047C0BA704700F03EF99E
:1002100000F04CF8174800F0D0F845F2AA51884297
:1002200004D1144800F089F800F060F820E012488A
:10023000007818B1114805F006FD20B910490F48A3
:1002400002F0E8FB05E00C480078032801D100F03B
:10025000B8F80A4805F0F7FC50B90A480188008848
:10026000401C084A1080B1F57A7F01DD00F03EF8AD
:10027000DDE700000098000891000020C811002070
:10028000E80800200000002001460846421A10B28B
:10029000421A10B2704710B501217D2001F0C9F952
:1002A00001210D4800F02BFF10BD704708B5FFF786
:1002B000F2FFFFF7FAFF002001F0A1F80121080387
:1002C00001F0AAF90548064B064A012100900648AC
:1002D00002F06EF908BD000000023000940000201A
:1002E00074000020E8080020C811002010B55A480A
:1002F00000685A490840B0F1005F0ED15648406886
:10030000574908600846006856490860524908681D
:10031000FFF775FF53480068804710BD00BF524883
:10032000006800F4E06051490843001D4E49086030
:10033000BFF3408F00BF00BFFEE710B5044600F0DA
:10034000EEFA352000F086FD204600F02DFB00F08F
:10035000F2FA10BD2DE9F04706460F4691461C46BD
:10036000CA46B4F5006F26DC00F0D9FA352000F05B
:1003700071FDF01900F018FB204604EBD071C1F3B9
:100380004F0804EBD0714910A4EB410119B108F1F9
:1003900001001FFA80F8002509E03AF8021BF21963
:1003A000022303FB052000F002FC681C85B24545D2
:1003B000F3DB00F0C0FABDE8F0870146086880B2C0
:1003C0007047F8B500200090012229A12B4807F0C2
:1003D00055F900283FD12948C468C4F3C7261EB385
:1003E00000250FE06B464FF400622549234807F0D3
:1003F000F9F9E9024FF40063214A1748FFF7AAFF11
:10040000681CC5B2B542EDDBC4F30A07C7B16B4641
:100410003A461B49194807F0E5F9BBB2F102184A00
:100420000D48FFF797FF0BE06B462246144913482F
:1004300007F0D8F9A3B2124A00210748FFF78AFF54
:100440000E4807F0FFFB02230E4A00210E48FFF77B
:1004500081FFFFF763FFF8BD00A000080000FE2F3A
:100460000C000020080000200CED00E00000FA0560
:100470004349535634312E62696E0000A81900209A
:10048000E8000020040000200098000810B56FF07C
:10049000040000F006FA2E4800682E49B0FBF1F087
:1004A0002D4908700846007800EB4001C1EBC010F0
:1004B0004FF6FF7101EAC0002849088010BD0146CF
:1004C000254A12784A434FF0E0235A6100229A618C
:1004D0001A46126942F001021A6100BF4FF0E02291
:1004E000106900F001021AB100F48032002AF5D040
:1004F0004FF0E022126922F001024FF0E0231A616E
:1005000000229A6170470146144A12884A434FF00C
:10051000E0235A6100229A611A46126942F00102F0
:100520001A6100BF4FF0E022106900F001021AB119
:1005300000F48032002AF5D04FF0E022126922F058
:1005400001024FF0E0231A6100229A617047000017
:100550001400002000127A00100000201200002079
:10056000704700BFFEE700BFFEE700BFFEE700BF29
:10057000FEE77047704710B5014805F0CCFA10BD92
:10058000C81100200CB5002001900090924800682E
:1005900040F480309049086000BF8F48006800F444
:1005A000003000900198401C0190009820B94FF64F
:1005B000FF7101988842F0D18748006800F400304C
:1005C00010B10120009001E0002000900098012867
:1005D0005BD18248006840F01000804908600846FE
:1005E000006820F0030008600846006840F0020040
:1005F0000860794840687849486008464068486023
:100600000846406840F4806048600846C06A744903
:1006100008407149C8620846C06A40F4D260C862A6
:100620000846006840F08060086000BF6A480068C3
:1006300000F000600028F9D06748406820F47C1082
:10064000654948600846406840F4E810486008463C
:10065000006840F08070086000BF5F48006800F0EC
:1006600000700028F9D05C48406820F003005A4927
:1006700048600846406840F00200486000BF5648A5
:10068000406800F00C000828F9D10CBD10B5FFF748
:1006900079FF10BD10B55048006840F001004E4988
:1006A0000860084640684F4908404B494860084682
:1006B00000684D490840484908600846006820F431
:1006C000802008600846406820F4FE004860084624
:1006D000006820F0A05008604FF47F008860002080
:1006E000C862FFF7D3FF4FF000604049086010BDBB
:1006F000F0B5002100200023002400220025002660
:10070000354F7F6807F00C0121B1042908D0082972
:100710004BD10BE0364FDFF8DCC0CCF800704AE07C
:10072000354FDFF8D0C0CCF8007044E02A4F7F6826
:1007300007F47010284F7F6807F48033800C0D2871
:1007400001D0801C00E0062033B92C4F4743DFF86E
:10075000A4C0CCF8007027E01F4FFF6A07F4803474
:100760001D4FFF6A07F00F077A1C44B9224FB7FBF1
:10077000F2F74743DFF87CC0CCF8007014E0164F66
:10078000FF6AC7F303177D1C134FFF6AC7F30327E4
:10079000BE1C194FB7FBF5F77743B7FBF2F747439A
:1007A000DFF850C0CCF8007005E0114FDFF844C00E
:1007B000CCF8007000BF00BF074F7F68C7F3031776
:1007C000DFF83CC01CF807100A4F3F68CF40DFF845
:1007D00024C0CCF80070F0BD0010024000200240A0
:1007E00000F0FEFF0000FFF0FFFFF6FE08ED00E066
:1007F00000127A001400002080F0FA0200093D0087
:100800001800002031490143314A1160704770B52A
:10081000002100230F22C47804B32D4C246804F473
:10082000E064C4F5E064210AC1F10403CA404478DD
:1008300004FA03F18478144021430901254C067819
:10084000A155047804F01F050124AC4005786D1112
:10085000AD0005F1E025C5F8004109E0047804F099
:100860001F050124AC401C4D0678761145F8264042
:1008700070BD1A4A0A400243154B1B1F1A6070478D
:1008800039B1134A121D12680243114B1B1D1A6025
:1008900006E00F4A121D126882430D4B1B1D1A60A1
:1008A0007047042808D14FF0E021096941F00401A4
:1008B0004FF0E022116107E04FF0E021096921F0DB
:1008C00004014FF0E0221161704700000000FA05BA
:1008D0000CED00E000E400E080E100E080FFFF1F9D
:1008E00001460020FE4A106800F0380008431060FE
:1008F0007047FB49096821F00801F94A1160114667
:100900000968014311607047F549096821F0100139
:10091000F34A116011460968014311607047F148BC
:10092000EF494860F04848607047EE48EC4948603D
:10093000ED4848607047EA48006940F08000E849A7
:1009400008617047E648006940F08000E4490861AA
:1009500070470420E249C96801F0010109B1012092
:100960000EE0DF49C96801F0040109B1022007E087
:10097000DB49C96801F0100109B1032000E004203F
:10098000704700B502460423FFF7E3FF034603E088
:10099000FFF7DFFF0346521E012B01D1002AF7D1DA
:1009A00002B90523184600BD30B5044604254FF4AE
:1009B0003020FFF7E6FF0546042D17D1C84800692F
:1009C00040F00200C649086108464461006940F0F1
:1009D000400008614FF43020FFF7D3FF0546C048C0
:1009E000006941F6FD710840BD490861284630BDE7
:1009F00010B504244FF43020FFF7C3FF0446042C45
:100A000016D1B748006940F00400B54908610846AE
:100A1000006940F0400008614FF43020FFF7B1FF5B
:100A20000446AF48006941F6FB710840AC490861D3
:100A3000204610BD00B502460423FFF78AFF034697
:100A400003E0FFF786FF0346521E012B01D1002A67
:100A5000F7D102B90523184600BD10B504244FF4A0
:100A60003020FFF7E7FF0446042C16D19C480069AC
:100A700040F004009A4908610846006940F04000CF
:100A800008614FF43020FFF7D5FF04469448006911
:100A900041F6FB71084092490861204610BD0020D4
:100AA0008F49C96901F0020109B1012000E000206D
:100AB000704730B5A5250424FFF7F1FF00B10025EC
:100AC0004FF43020FFF75DFF0446042C3AD18548EF
:100AD00083498860844888600846006940F02000A7
:100AE00008610846006940F0400008614FF430207A
:100AF000FFF747FF0446042C1BD17948006941F6F3
:100B0000DF710840764908610846006940F010002E
:100B1000086176480580E002FFF733FF0446052CA4
:100B200010D06F48006941F6EF7108406C490861C8
:100B300008E0052C06D06A48006941F6EF710840CC
:100B400067490861204630BD78B506460C46042545
:100B500000200090E802FFF714FF0546042D24D181
:100B60005F48006940F001005D4908613480E80297
:100B7000FFF707FF0546042D10D1B01C0090200C94
:100B800000990880E802FFF7FCFE0546544800691A
:100B900041F6FE7108405249086106E0504800697C
:100BA00041F6FE7108404E490861284678BD70B58F
:100BB00004460D460426F002FFF7E3FE0646042E27
:100BC00011D14748006940F001004549086125807E
:100BD000F002FFF7D6FE06464148006941F6FE7175
:100BE00008403F490861304670BD70B505460E4665
:100BF0000424E002FFF7C5FE0446042C17D139484F
:100C000037498860384888600846006940F010001D
:100C100008612E80E002FFF7B4FE0446052C06D0E2
:100C20002F48006941F6EF7108402D4908612046C0
:100C300070BD2DE9F04304464FF6FF763746B046C7
:100C4000B1460425E443E6B2C4F30727C4F30748DA
:100C50004FEA1469E802FFF794FE0546042D49D1D6
:100C600020481F498860204888600846006940F095
:100C700010000861FF2E06D01C4808300680E802EC
:100C8000FFF77FFE0546042D08D1FF2F06D0174839
:100C90000A300780E802FFF774FE0546042D0AD1EA
:100CA000B8F1FF0F07D011480C30A0F80080E8021F
:100CB000FFF767FE0546042D0AD1B9F1FF0F07D0F3
:100CC0000A480E30A0F80090E802FFF75AFE0546E9
:100CD000052D0FD00248006941F6EF71084007E08A
:100CE0000020024023016745AB89EFCD00F8FF1FCC
:100CF000664908612846BDE8F08330B505460424FE
:100D00004FF43020FFF73DFE0446042C41D16048EB
:100D10005E4988605F4888600846006940F02000AE
:100D200008610846006940F0400008614FF4302037
:100D3000FFF727FE0446042C22D15448006941F6EF
:100D4000DF710840514908610846006940F0100011
:100D500008611DB100205049088002E0A5204E49DD
:100D600008804FF43020FFF70CFE0446052C10D00D
:100D70004648006941F6EF7108404449086108E0BF
:100D8000052C06D04148006941F6DF7108403F4913
:100D90000861204630BDF0B505460E4617460424CE
:100DA0003B483A4988603B488860E002FFF7E9FD2C
:100DB0000446042C19D13548006940F0100033492D
:100DC000086147F0F800304328433349891C088004
:100DD000E002FFF7D6FD0446052C06D02B4800693B
:100DE00041F6EF710840294908612046F0BD2748C7
:100DF000C069800870472548006A70470020234971
:100E0000096801F0200109B1012000E000207047CD
:100E100029B11E4A126902431C4B1A6104E01B4AA5
:100E200012698243194B1A6170470146002001295B
:100E300008D1164AD26902F001020AB1012008E085
:100E4000002006E0114AD2680A400AB1012000E001
:100E5000002070470D49C860704704200B49C968DD
:100E600001F0010109B101200EE00849C96801F053
:100E7000040109B1022007E00449C96801F010012A
:100E800009B1032000E00420704700000020024068
:100E900023016745AB89EFCD00F8FF1F10B504466D
:100EA000CC48844208D10121042000F0E9FB002154
:100EB000042000F0E5FB46E0C748844208D1012148
:100EC000082000F0DDFB0021082000F0D9FB3AE00B
:100ED000C248844208D10121102000F0D1FB00213A
:100EE000102000F0CDFB2EE0BD48844208D1012146
:100EF000202000F0C5FB0021202000F0C1FB22E0F3
:100F0000B848844208D10121402000F0B9FB0021FB
:100F1000402000F0B5FB16E0B348844208D101211F
:100F2000802000F0ADFB0021802000F0A9FB0AE04A
:100F3000AE48844207D10121801500F0A1FB0021B9
:100F4000A01500F09DFB10BD10B50121084600F072
:100F500097FB0021012000F093FB10BD2DE9F0412B
:100F6000024600250026002000230024002791F8D7
:100F700003C00CF00F0591F803C00CF0100CBCF18D
:100F8000000F03D091F802C04CEA050591F800C0AB
:100F9000BCF1000F31D0146800202BE04FF0010CA1
:100FA0000CFA00F3B1F800C00CEA03069E4220D10F
:100FB00083004FF00F0C0CFA03F7BC4305FA03FC57
:100FC0004CEA040491F803C0BCF1280F06D14FF09D
:100FD000010C0CFA00FCC2F814C00AE091F803C03E
:100FE000BCF1480F05D14FF0010C0CFA00FCC2F81F
:100FF00010C0401C0828D1D31460B1F800C0BCF167
:10100000FF0F34DD546800202EE000F1080C4FF093
:10101000010808FA0CF3B1F800C00CEA03069E427E
:1010200021D183004FF00F0C0CFA03F7BC4305FAF3
:1010300003FC4CEA040491F803C0BCF1280F05D16D
:1010400000F1080C08FA0CF8C2F8148091F803C0FB
:10105000BCF1480F07D100F1080C4FF0010808FA65
:101060000CF8C2F81080401C0828CED35460BDE8AC
:10107000F0814FF6FF710180022181700421C1705F
:1010800070470246002093680B400BB1012000E03E
:10109000002070470146886880B2704702460020F1
:1010A000D3680B400BB1012000E0002070470146DF
:1010B000C86880B2704701617047416170470AB1EA
:1010C000016100E041617047C16070474FF48032B8
:1010D0000A43826181618261826982697047024646
:1010E0000020434B18684FF68073184040EA021006
:1010F00008433F4B186070473E49C8617047F0B5E0
:101100000A46002300240021002500F00046B6F125
:10111000004F02D1364EF16901E0354E7168C0F3DF
:10112000034583B200F44016B6F5401F08D121F004
:1011300070612F4E766826F070662D4F7E6012E04B
:1011400000F48016B6F5801F06D1032606FA05F4D2
:10115000A14341F0706106E0460D360103FA06F640
:10116000B14341F0706122B1460D360103FA06F633
:10117000314300F00046B6F1004F02D11C4EF16140
:1011800001E01B4E7160F0BD30B500228B071C0FD3
:101190000F2303FA04F2164B08338C1053F8243053
:1011A0009343134C08348D1044F8253023468C109B
:1011B00053F824308C07240F00FA04F423430C4C1A
:1011C00008348D1044F8253030BD0A49DC31086000
:1011D0007047000000080140000C01400010014071
:1011E0000014014000180140001C01400020014093
:1011F0000000014000002042FB48006840F0010070
:10120000F949086008464068F8490840F6494860CE
:1012100008460068F6490840F34908600846006837
:1012200020F4802008600846406820F4FE004860F2
:101230000846006820F0A05008604FF47F008860E6
:101240000020C8627047E849096821F48031E64A05
:1012500011601146096821F480211160B0F5803FCA
:1012600003D0B0F5802F0ED106E0DF49096841F4C4
:101270008031DD4A116007E0DB49096841F4A021B3
:10128000D94A116000E000BF00BF704710B50146A9
:101290000022002300204A11012A02D1D24C2368E7
:1012A00006E0022A02D1D04C236A01E0CE4C636AE8
:1012B00001F01F02012494401C400CB1012000E009
:1012C000002010BD38B5002000900024002500BF8C
:1012D0003120FFF7DBFF05460098401C00904FF6D9
:1012E000FF710098884201D0002DF1D03120FFF726
:1012F000CDFF08B1012400E00024204638BD01469E
:101300000020B94A106820F0F80040EAC1001060DF
:101310007047B8490860704702460020B24B5868D1
:1013200020F4741042EA01031843AF4B5860704731
:10133000B0490866704702460020AB4BD86AAE4BF6
:10134000184042EA01031843A74BD8627047014690
:101350000020A54AD06A20F0F0000843D062704710
:1013600001460020A04AD06A20F470600843D06291
:101370007047A04988667047014600209A4AD06AA3
:1013800020F470400843D06270479A49086770475C
:1013900001460020944A506820F003000843506042
:1013A00070479148406800F00C00704701460020EB
:1013B0008D4A506820F0F0000843506070470146A5
:1013C0000020894A506820F4E0600843506070476C
:1013D00001460020844A506820F4605040EAC10071
:1013E0005060704729B1804A527A02437E4B5A724C
:1013F00004E07D4A527A82437B4B5A7270477D49A2
:10140000D8310860704701460020774A506820F4C0
:1014100040400843506070477849086070477749FA
:10142000091D0860704700216F4A203211706E4A12
:1014300082F82010012802D004280AD104E00121FA
:10144000694A2032117005E00521674A2032117087
:1014500000E000BF00BF70476949086070476249FB
:10146000096A0143604A116270476549443908605E
:1014700070472DE9F04100210022002500230026BD
:10148000002400278C46DFF86081D8F8048008F03B
:101490000C0121B1042907D0082959D109E0DFF84E
:1014A0006481C0F8008058E0DFF85C81C0F80080FB
:1014B00053E0DFF83481D8F8048008F47012DFF8C4
:1014C0002881D8F8048008F48035920C0D2A01D0C8
:1014D000921C00E0062235B9DFF8308102FB08F8E3
:1014E000C0F8008033E0DFF80081D8F82C8008F4E1
:1014F0008036DFF8F480D8F82C8008F00F0808F167
:10150000010446B9DFF80081B8FBF4F808FB02F8E3
:10151000C0F800801BE0DFF8D080D8F82C80C8F33A
:10152000031808F10107DFF8C080D8F82C80C8F351
:10153000032808F1020CDFF8D080B8FBF7F808FBAD
:101540000CF8B8FBF4F808FB02F8C0F8008004E0DF
:10155000DFF8B080C0F8008000BF00BFDFF88880EF
:10156000D8F8048008F0F0010909DFF8A48018F821
:101570000130D0F8008028FA03F8C0F80480DFF8C2
:101580006880D8F8048008F4E061090ADFF88080F8
:1015900018F80130D0F8048028FA03F8C0F8088061
:1015A000DFF84480D8F8048008F46051C90ADFF8F5
:1015B000608018F80130D0F8048028FA03F8C0F8E9
:1015C0000C80DFF82480D8F8048008F44041890BAF
:1015D000DFF8408018F80130D0F80C80B8FBF3F841
:1015E000C0F81080BDE8F081001002400000FFF05C
:1015F000FFFFF6FE00004242F0FFFEFFC40542423C
:101600008004424200127A0080F0FA0200093D0094
:10161000280000203800002029B1354A52690243D1
:10162000334B5A6104E0324A52698243304B5A616B
:10163000704729B12E4A926902432D4B9A6104E00A
:101640002B4A926982432A4B9A61704729B1284AF2
:10165000D2690243264BDA6104E0254AD26982430B
:10166000234BDA61704729B1214A926A0243204B29
:101670009A6204E01E4A926A82431D4B9A62704746
:1016800029B11B4AD2680243194BDA6004E0184AB8
:10169000D2688243164BDA60704729B1144A126946
:1016A0000243134B1A6104E0114A12698243104B42
:1016B0001A6170470F49086070470F49C864704746
:1016C0000B49C87170470A48406A40F08070084969
:1016D0004862704701460020054A92680A400AB1F4
:1016E000012000E000207047014988727047000027
:1016F00000100240400442420000424210B504463D
:10170000FE48844208D10121C014FFF7B9FF00212F
:10171000E014FFF7B5FFC4E0B4F1804F08D1012118
:101720000846FFF7BAFF00210120FFF7B6FFB8E037
:10173000F348844208D101210220FFF7AEFF0021C7
:101740000220FFF7AAFFACE0EE48844208D1012155
:101750000420FFF7A2FF00210420FFF79EFFA0E076
:10176000E948844208D101210820FFF796FF0021B3
:101770000820FFF792FF94E0E448844208D1012159
:101780001020FFF78AFF00211020FFF786FF88E076
:10179000DF48844208D101212020FFF77EFF00218D
:1017A0002020FFF77AFF7CE0DA48844208D101214B
:1017B0004014FFF765FF00216014FFF761FF70E040
:1017C000D548844209D10121C804FFF759FF0021FF
:1017D0004FF40020FFF754FF63E0D048844209D162
:1017E00001210805FFF74CFF00214FF48010FFF79F
:1017F00047FF56E0CA48844209D101214805FFF756
:101800003FFF00214FF40010FFF73AFF49E0C548C1
:10181000844208D101214020FFF73FFF00214020F2
:10182000FFF73BFF3DE0C048844208D10121802002
:10183000FFF733FF00218020FFF72FFF31E0BB4887
:10184000844208D101218015FFF727FF0021A01550
:10185000FFF723FF25E0B648844209D1012108049F
:10186000FFF70EFF00214FF48030FFF709FF18E06B
:10187000B048844209D101214804FFF701FF00214B
:101880004FF40030FFF7FCFE0BE0AB48844208D178
:1018900001218804FFF7F4FE00214FF48020FFF7B8
:1018A000EFFE10BD00220288944B98420ED0994B57
:1018B00098420BD0B0F1804F08D0914B984205D0A0
:1018C000904B984202D0904B984204D14FF68F73C0
:1018D0001A404B881A438D4B984207D08C4B984244
:1018E00004D04FF6FF431A40CB881A4302808B88FE
:1018F00083850B880385814B98420BD0854B98429A
:1019000008D08B4B984205D08A4B984202D08A4B24
:10191000984201D10B7A038601238382704770B508
:10192000002400220023058C4FF6FE763540058406
:10193000028C8388048B4FF68F752C40B51E2C408B
:101940000D882C43751E2A400D892A434D882A4351
:101950006A4DA8420BD06F4DA84208D0744DA842E2
:1019600005D0744DA84202D0734DA84213D14FF652
:10197000F7752A404D892A434FF6FB752A408D881A
:101980002A434FF6FF652B404FF6FF552B408D89BC
:101990002B43CD892B4383800483CD8885860284A5
:1019A00070BD70B5002400220023058C4FF6EF7641
:1019B00035400584028C8388048B48F6FF752C40E3
:1019C0004FF6FF452C400D884FF6FF7606EA0525B9
:1019D0002C434FF6DF752A400D8906EA05152A4388
:1019E0004D8806EA05152A43444DA84202D0494DC8
:1019F000A8421DD14FF67F752A404D894FF6FF76DC
:101A000006EA05152A434FF6BF752A408D8806EA77
:101A100005152A434FF6FF352B404FF2FF752B403B
:101A20008D8906EA85052B43CD8906EA85052B437A
:101A300083800483CD880587028470BD70B500243F
:101A400000220023058C4FF6FF6635400584028C8A
:101A50008388848B4FF68F752C404FF6FC752C4095
:101A60000D882C434FF6FF552A400D894FF6FF761F
:101A700006EA05252A434D8806EA05252A431F4D17
:101A8000A84202D0234DA8421DD14FF2FF752A4033
:101A90004D894FF6FF7606EA05252A434FF6FF35B6
:101AA0002A408D8806EA05252A434EF6FF752B400D
:101AB0004DF6FF752B408D8906EA05152B43CD8920
:101AC00006EA05152B4383808483CD8885870284AD
:101AD00070BD70B5002200230024058C4EF6FF7601
:101AE00035400584038C8488828B48F6FF752A4034
:101AF0004FF6FF452A400D8820E00000002C0140F1
:101B00000004004000080040000C004000100040AD
:101B10000014004000340140004C014000500140DE
:101B20000054014000180040001C0040002000400C
:101B30000040014000440140004801404FF6FF765C
:101B400006EA05252A434DF6FF752B400D8906EA66
:101B500005352B434D8806EA05352B43FA4DA8423F
:101B600002D0FA4DA84208D14BF6FF752C408D8962
:101B70004FF6FF7606EA85152C4384808283CD8854
:101B8000A0F84050038470BD828B4FF2FF331A409F
:101B90008283828B4FF6FF7303EA01231A43828309
:101BA0007047F0B50C461546002200210026078C30
:101BB0004EF6FF7C07EA0C070784828B018C4FF6F8
:101BC000FF7707EA043640F6FF473A404FF6FF77C3
:101BD00007EA05273A434FF6FF7707EA03373A4308
:101BE000D94FB8420ED0D94FB8420BD0B0F1804F88
:101BF00008D0D74FB84205D0D64FB84202D0D64F02
:101C0000B84206D14DF6FF77394046F48057394344
:101C100005E047F6FF57394044F480573943828343
:101C20000184F0BD828B4FF6F3731A408283828B5E
:101C30000A4382837047F0B50C4615460022002106
:101C40000026078C4FF6FF6C07EA0C070784828B8F
:101C5000018C4FF6FF7707EA04264FF60C773A40DF
:101C60004FF6FF7707EA03172F433A43B64FB842C0
:101C70000ED0B64FB8420BD0B0F1804F08D0B44F61
:101C8000B84205D0B34FB84202D0B34FB84206D1E4
:101C90004FF6FF57394046F48077394305E04FF25D
:101CA000FF57394044F48077394382830184F0BD83
:101CB000028B4FF2FF331A400283028B4FF6FF7301
:101CC00003EA01231A4302837047F0B50C46154618
:101CD000002200210026078C4FF6EF7C07EA0C0754
:101CE0000784028B018C4FF6FF7707EA041640F653
:101CF000FF473A404FF6FF7707EA03373A434FF67C
:101D0000FF7707EA05273A438F4FB8420ED08F4F2F
:101D1000B8420BD0B0F1804F08D08D4FB84205D0FB
:101D20008C4FB84202D08C4FB84206D14FF6DF77C5
:101D3000394046F01007394305E04FF65F773940E8
:101D400044F01007394302830184F0BD028B4FF643
:101D5000F3731A400283028B0A4302837047F0B583
:101D60000C46154600220021068C4FF6FE773E40B9
:101D70000684028B018C4FF60C7632407E1C06EAFC
:101D800003162E433243704EB0420ED06F4EB04217
:101D90000BD0B0F1804F08D06D4EB04205D06D4EE3
:101DA000B04202D06C4EB04206D14FF6FD763140C3
:101DB00044F00106314305E04FF6F576314044F03A
:101DC0000106314302830184F0BD70B505460C461F
:101DD0005D4885420ED05D4885420BD0B5F1804FFD
:101DE00008D05B48854205D05A48854202D05A48FF
:101DF000854200D100E000BF208850B92389A28825
:101E000061882846FFF7ABFFE1882846FFF79EFF71
:101E100025E0208804280AD12389A28861882846E1
:101E2000FFF753FFE1882846FFF742FF17E02088BD
:101E300008280AD12389A28861882846FFF7FBFE7B
:101E4000E1882846FFF7EEFE09E02389A288618831
:101E50002846FFF7A6FEE1882846FFF795FE70BDED
:101E60002DE9F04105460C4600260127608808B997
:101E7000022600E00026A088012801D1022700E008
:101E800001272088A0B92389A28861882846FFF706
:101E900066FFE1882846FFF759FF23893A46314615
:101EA0002846FFF712FFE1882846FFF701FF13E0FD
:101EB0002389A28861882846FFF707FFE188284622
:101EC000FFF7F6FE23893A4631462846FFF747FFDB
:101ED000E1882846FFF73AFFBDE8F0810A884B8881
:101EE0001A438B881A43CB881A430B891A434B89B0
:101EF0001A438B891A43A0F8442070474FF6FF71AC
:101F0000818000210180C1804180017270470021E1
:101F1000018041808180C180018141818181C181B5
:101F20007047002101804180012181800021C18012
:101F3000018170470021018041808180C180018141
:101F40004181818170470000002C01400034014034
:101F50000004004000080040000C004021B102884D
:101F600042F00102028004E002884FF6FE731A403C
:101F70000280704731B1B0F8442042F40042A0F82A
:101F8000442005E0B0F84420C2F30E02A0F844203B
:101F900070471AB183890B43838102E083898B43A5
:101FA000838170478182704741EA0203A0F848307C
:101FB00070471AB183890B43838102E083898B4385
:101FC0008381704701894FF6F87211400181704793
:101FD0000A46002101894FF68F7319401143018190
:101FE000704730B504460D4629462046FFF7F0FFFE
:101FF000208940F00700208130BD2DE9F0410446E2
:102000000D4616461F46602D06D13B46012231463D
:102010002046FFF75AFE05E03B46012231462046A6
:10202000FFF79DFE29462046FFF7D2FF208940F0AA
:1020300007002081BDE8F08130B50C460021018900
:10204000C9B24FF6FF7505EA032515432543294319
:10205000018130BD2DE9F04105460E4617469846F0
:10206000002443463A4631462846FFF7E5FF2C89CF
:102070004FF6F870044044F007044FF68F700440A8
:1020800044F070042C81BDE8F081F0B504460D46A3
:1020900016461F463B46324629462046FFF7CCFFF0
:1020A000208940F480402081F0BD01858282704704
:1020B0000A46002101884FF68F73194011430180B1
:1020C0007047F0B50C4615461E460021002200233D
:1020D0000189028B038C4FF6F877394021434FF684
:1020E000FC473A4040F201173A434FF6DD773B4058
:1020F0004FF6FF7707EA06172F433B430181028320
:102100000384F0BD0A460021018B4FF68F731940FE
:102110001143018370470A460021018B48F6FF7383
:1021200019404FF6FF7303EA0223194301837047F6
:102130000A460021818B4FF68F731940114381832A
:1021400070470A460021818B48F6FF7319404FF60D
:10215000FF7303EA022319438183704721B1028888
:1021600042F08002028004E002884FF67F731A403A
:102170000280704721B1828842F00402828004E02C
:1021800082884FF6FB731A408280704721B18288A3
:1021900042F00802828004E082884FF6F7731A400A
:1021A0008280704721B1828842F00102828004E07F
:1021B00082884FF6FE731A40828070470A460021DB
:1021C000018B4FF6F77319401143018370470A469C
:1021D0000021018B4FF2FF7319404FF6FF7303EAA2
:1021E00002231943018370470A460021818B4FF671
:1021F000F77319401143818370470A460021818B90
:102200004FF2FF7319404FF6FF7303EA022319439D
:10221000818370470A460021018B4FF6FB731940FA
:102220001143018370470A460021018B4FF6FF33AB
:1022300019404FF6FF7303EA0223194301837047E5
:102240000A460021818B4FF6FB73194011438183AD
:1022500070470A460021818B4FF6FF3319404FF635
:10226000FF7303EA02231943818370470A46002162
:10227000018B4FF67F7319401143018370470A4663
:102280000021018BC1F30E014FF6FF7303EA022315
:102290001943018370470A460021818B4FF67F73F3
:1022A00019401143818370470A460021818BC1F395
:1022B0000E014FF6FF7303EA02231943818370472F
:1022C0000A460021018C4FF6FD7319401143018429
:1022D00070470A460021018C4FF6F77319401143ED
:1022E000018470470A460021018C4FF6DF731940C4
:1022F0004FF6FF7303EA02131943018470470A463D
:102300000021018C4FF67F7319404FF6FF7303EAEB
:1023100002131943018470470A460021018C4FF6CD
:10232000FF5319404FF6FF7303EA02231943018458
:1023300070470A460021018C4FF2FF7319404FF697
:10234000FF7303EA02231943018470470A46002100
:10235000018C4DF6FF7319404FF6FF7303EA023309
:1023600019430184704730B5002301248C40A3B287
:10237000048C9C430484048C02FA01F5ADB22C4316
:10238000048430BD30B5002304248C40A3B2048CF7
:102390009C430484048C02FA01F5ADB22C430484FE
:1023A00030BD70B5034600200024184618300125C2
:1023B0008D40ACB21D8CA5431D8409B1082909D1FB
:1023C00000EB6100056825F07005056005681543A0
:1023D00005600EE00D1FC5F34E052844056825F481
:1023E000E045056005684FF6FF7606EA02263543AC
:1023F000056070BD21B1028842F00202028004E053
:1024000002884FF6FD731A400280704721B102889E
:1024100042F00402028004E002884FF6FB731A4087
:102420000280704721B1828842F08002828004E0FD
:1024300082884FF67F731A408280704702884FF679
:10244000F7731A40028002880A430280704782882C
:102450004FF68F731A40828082880A4382807047C9
:1024600002894FF6F8731A40028102890A430281F9
:10247000704702894FF67F731A40028102890A432E
:1024800002817047818470478185704781867047DB
:102490000187704781877047A0F840107047028815
:1024A0004FF6FF431A40028002880A4302807047B9
:1024B0000146888E70470146088F70470146888F15
:1024C00070470146B1F8400070470146888C70475C
:1024D0000146088D704702460020138A0B400BB15D
:1024E000012000E000207047CA430282704730B5E7
:1024F0000246002000230024158A05EA010395897D
:1025000005EA010413B10CB1012000E0002030BD48
:10251000CA430282704700000948804709480047C3
:10252000FEE7FEE7FEE7FEE7FEE7FEE7FEE7FEE783
:10253000FEE7FEE704480549054A064B70470000E0
:102540009506000851010008001F0020002500200A
:10255000002100200021002001460122C1F81023A3
:102560000020704701460022C1F810230020704768
:1025700001460020704770B505460C4600202070CB
:102580006070A0700120E070012121774021A171CD
:10259000002084F8200001212120015521792846BE
:1025A00000F080FD6179284600F07CFD002070BDC0
:1025B0002DE9F04106460F4614461D46DDF8188009
:1025C000304603F09DFB21463046FFF7D4FFE56718
:1025D000C4F880803946304603F0F4FAD4F880100D
:1025E00008688047304603F090FBBDE8F0812DE994
:1025F000F04106460C464FF0000800250021A1746A
:10260000207F0C2876D2DFE800F0FD060F3D4665FE
:1026100076919AC0D7ED627904F11401304600F04A
:1026200005FB02212177EEE06179304603F014FBCF
:102630000546012D1FD1207D00F08007608B58B129
:1026400041F28830FD490880802F02D10321217793
:102650000CE00521217709E03220F8490880802F1D
:1026600002D10921217701E007212177304603F0CB
:10267000EEFA208205E0032D03D10B2121770521FD
:10268000A174C0E02379A2893046A16800F026FB3E
:1026900004212177B7E02179304603F0DDFA0546C1
:1026A000012D01D109212177042D02D160782070FC
:1026B0000FE0032D02D10B2121770AE0304603F011
:1026C000C6FA218A401ADD490988884201D90B21BE
:1026D000217798E00121627906F56B7000EB4210DA
:1026E00041766379A2893046A16800F0C0FA0621DC
:1026F000217788E086E06179304603F0ADFA05463F
:10270000012D02D1072121770FE0042D04D160783B
:1027100020700C21217708E0022D02D105212177BC
:1027200003E0032D01D10B2121776CE023790022F6
:102730001146304600F0D2FA0821217763E0217972
:10274000304603F089FA0546012D04D160782070E7
:102750000D21217718E0032D02D10B21217713E001
:10276000304603F074FA218A401AB4490988884235
:1027700002D90B21217707E0042D05D16078207064
:102780000421A1744FF003083DE0617906F56B70F8
:1027900000EB4110407E80F00101627906F56B701C
:1027A00000EB42104176637900221146304600F07A
:1027B0005EFA0A21217726E06179304603F04CFA6F
:1027C0000546012D04D1607820700D21217708E0A5
:1027D000022D02D10921217703E0032D01D10B2124
:1027E000217710E0A07B401CC1B2A173022902DC5A
:1027F0000121217705E00821A174607820704FF055
:10280000020800E000BF00BF4046BDE8F08170B59F
:1028100004460D46052D01D0042D06D1D4F88010B4
:10282000486C80470A20207007E0062D05D10A2059
:102830002070D4F880100868804770BD70B592B0E1
:1028400005460C460126A0780A287AD2DFE800F077
:102850000528375D667A97B4D1DB082221462846E1
:1028600000F08CFCD8B994F82910A171284603F027
:10287000E3F90120A070A0790021CDE90010617971
:1028800000231A46284600F0B4FBA0790021CDE9C8
:102890000010217900231A46284600F0AAFBB5E073
:1028A00012222146284600F069FC38B9D4F880008D
:1028B000C16904F1220088470220A070A6E001222D
:1028C0002146284600F090FDF0B9022003F077FA87
:1028D0000120A41CA077D4F87E10086A804703204A
:1028E0002070002000900190A27FA1780346284626
:1028F00000F07FFB002000900190A27FA41E617970
:102900000346284600F075FB80E009222146284650
:1029100000F005FD08B90420A07077E0E28E2146A2
:10292000284600F0FCFC58B9D4F8800004F15002AD
:1029300004F13E01436A04F1340098470520A07079
:1029400064E062E094F8300088B1FF20009094F8D1
:10295000302002AB2146284600F028FD70B9D4F89B
:102960008000816A02A888470620A07006E0D4F89B
:102970008000816A32A088470620A07046E094F863
:10298000310088B1FF20009094F8312002AB21463D
:10299000284600F00BFD70B9D4F88000C16A02A887
:1029A00088470720A07006E0D4F88000C16A24A000
:1029B00088470720A07029E094F8320088B1FF20F2
:1029C000009094F8322002AB2146284600F0EEFC3D
:1029D00070B9D4F88000016B02A888470820A07065
:1029E00006E0D4F88000016B15A088470820A0708D
:1029F0000CE094F839202146284600F008FD08B97B
:102A00000920A07002E0002600E000BF00BF3046B1
:102A100012B070BD3EB505460C4602200290284615
:102A200003F011F930B9207820B12078022801D0C4
:102A30000220207020780B287AD203E04C0000207E
:102A40004E2F4100DFE800F006109CB14D687B87F7
:102A5000598C8D00284603F0F6F820B10120207033
:102A6000642003F0ACF9A1E0D4F8801088688047B6
:102A70000021284600F003FB60718021284600F009
:102A8000FEFA2071284603F0D7F848BBD4F880102E
:102A9000C8688047284603F0C5F8C1B22120015517
:102AA000042020702122105DD4F88020916988478D
:102AB000A0790021CDE900102120035D94F82020A9
:102AC0002179284600F048FAA0790021CDE90010CC
:102AD0002120035D94F820206179284600F03CFA1B
:102AE00064E021462846FFF7A9FE28B9D4F88010F3
:102AF000486B80470820207058E0D4F88010886B1D
:102B00008047012807D1E06F214602682846904798
:102B100008B90520207049E0E06F21468268284608
:102B2000904702909DF8080018B90620207005E033
:102B30003BE09DF808102046FFF769FE36E0E06FA5
:102B40002146C2682846904702909DF8081020460A
:102B5000FFF75DFE2AE021462846FFF748FD25E005
:102B600024E021462846FFF706FDE06F04F120012E
:102B7000426828469047D4F880104868804715E09E
:102B8000D4F880100869804721462846FFF7F3FCF7
:102B9000D4F8801048688047E06F04F12001426853
:102BA000284690470020207000E000BF00BF3EBDD7
:102BB00010B50346187858700720187099609A81EC
:102BC00001241C77002010BD2DE9F04180460C4601
:102BD00015461E460127E078012802D0022820D1A0
:102BE00008E0324629462046FFF7E2FF0220E07067
:102BF000012717E0207F0D2805D10120E07000217A
:102C0000217700270CE0207F0B2803D10120E07002
:102C1000022705E0207F0C2802D10120E070032765
:102C200000E000BF00BF3846BDE8F08170B5054642
:102C30000E461446002105F56B7000EB44108170C0
:102C4000032105F56B7000EB4410017205F56B7004
:102C500000EB4410C660082105F56B7000EB4410D2
:102C600001612146284603F00FF8C0B270BD2DE97E
:102C7000F04105460F4616461C46002105F56B70CF
:102C800000EB4410817005F56B7000EB4410C760D9
:102C900005F56B7000EB441006612EB9012105F5B6
:102CA0006B7000EB4410417605F56B7000EB44103F
:102CB000407E30B9002105F56B7000EB44100172C5
:102CC00005E0022105F56B7000EB4410017221460E
:102CD000284602F0D9FF0020BDE8F0812DE9F0413F
:102CE00005460E4617461C46012105F56B7000EBA4
:102CF00044108170022105F56B7000EB44100172E5
:102D000005F56B7000EB4410C66005F56B7000EBC9
:102D1000441007612146284602F0B6FF0020BDE8B6
:102D2000F0812DE9F04105460E4617461C4600216C
:102D300005F56B7000EB4410817005F56B7000EBCE
:102D40004410C66005F56B7000EB4410076105F593
:102D50006B7000EB4410407E28B905F56B7000EBFA
:102D60004410017205E0022105F56B7000EB441080
:102D700001722146284602F087FF0020BDE8F0815D
:102D80002DE9F04105460E4617461C46012105F582
:102D90006B7000EB4410817005F56B7000EB441014
:102DA000C66005F56B7000EB4410076105F56B70AC
:102DB00000EB4410007E30B9002105F56B7000EB8C
:102DC0004410017205E0022105F56B7000EB441020
:102DD00001722146284602F057FF0020BDE8F0812D
:102DE0002DE9F04105460E4617461C46012105F522
:102DF0006B7000EB4410817005F56B7000EB4410B4
:102E0000C66005F56B7000EB4410076105F56B704B
:102E100000EB4410007E30B9002105F56B7000EB2B
:102E20004410017205E0022105F56B7000EB4410BF
:102E3000017205F56B7000EB4410007E80F001011B
:102E400005F56B7000EB441001762146284602F030
:102E50001BFF0020BDE8F0812DE9F04105460E463C
:102E600017461C46002105F56B7000EB441081707D
:102E700005F56B7000EB4410C66005F56B7000EB58
:102E80004410076105F56B7000EB4410007E28B913
:102E900005F56B7000EB4410017205E0022105F5A9
:102EA0006B7000EB4410017205F56B7000EB441081
:102EB000007E80F0010105F56B7000EB4410017697
:102EC0002146284602F0E0FE0020BDE8F0812DE911
:102ED000F04105460E4617461C46012105F56B706C
:102EE00000EB4410817005F56B7000EB4410C66078
:102EF00005F56B7000EB44100761002105F56B7060
:102F000000EB441001722146284602F0BDFE00206D
:102F1000BDE8F0812DE9F04105460E4617461C46F6
:102F2000002105F56B7000EB4410817005F56B70A6
:102F300000EB4410C66005F56B7000EB44100761B0
:102F400005F56B7000EB441001722146284602F033
:102F50009BFE0020BDE8F0812DE9F04704460D46B8
:102F600017461E46DDE9088904F28C5010F815005A
:102F700000F07F0104F56B7000EB4510417004F226
:102F80008C5010F81500C0F3C01104F56B7000EB05
:102F90004510817004F56B7000EB4510077004F567
:102FA0006B7000EB451080F8058004F56B7000EB4A
:102FB0004510A0F8069004F56B7000EB4510C67044
:102FC000002104F56B7000EB4510017604F56B7081
:102FD00000EB451041762EB9012104F56B7000EB32
:102FE000451001712946204601F0FCFB0020BDE898
:102FF000F0872DE9F04704460D4617461E46DDE9E9
:10300000089827B104F56B7000EB4510077004F5C4
:103010006B7000EB4510C088404508D0B8F1000F38
:1030200005D004F56B7000EB4510A0F8068004F5A0
:103030006B7000EB4510C078B04205D026B104F5A6
:103040006B7000EB4510C6702946204601F0CAFBA4
:103050000020BDE8F0870246002100BF0AE002F22E
:103060008C5030F8110000F4004008B90846704751
:10307000481CC1B20829F2DB4FF6FF70F7E770B5C4
:1030800005460E462846FFF7E6FF04464FF6FF705A
:10309000844205D046F4004105F28C5020F814100B
:1030A000E0B270BD0246082909DA02F28C5030F80D
:1030B0001100C0F30E0302F28C5020F811300020F2
:1030C00070470246022106E0002302F28C5020F8ED
:1030D0001130481CC1B20829F6DB002070470000FF
:1030E00010B50B7803704B7843708C78CB7804EB79
:1030F000032343800B7903714B7943718B7983717F
:10310000CB79C371082A16DD0C7A4B7A04EB0323C2
:1031100003818C7ACB7A04EB032343810C7B4B7BBA
:1031200004EB032383818B7B8373CB7BC3730B7C87
:1031300003744B7C437410BD2DE9F04780460C4668
:1031400016461D46DDE9089746F0800121750621E7
:103150006175E58205F47F40B0F5407F03D140F210
:103160000941218301E00021218367833B464A46D0
:1031700021464046FFF728FDBDE8F0872DE9FC41D8
:1031800004460D46164604F588704FF480730022FD
:103190002946CDE900062046FFF7CEFF070006D1FD
:1031A000324604F5887105F12200FFF799FF384691
:1031B000BDE8FC810A7802704A7842708A78827091
:1031C000CA78C2700B794A7903EB022282808A792D
:1031D000827170470A7802704A7842708A788270E9
:1031E000CA78C2700A7902714A7942718A79827109
:1031F000CA79C2710A7A0272704710B502460B880A
:10320000147823440B801378981810BD2DE9F04FE3
:1032100085B00646894692461D462C460027B8468C
:1032200000BF2878307068787070A978E87801EB72
:10323000002070802879307168797071A879B07138
:10324000E879F071287A30720E98092864DD092037
:103250000090307902285ADCBB4653E0694620468C
:10326000FFF7CBFF0446607804284BD1A07847B223
:1032700007EBC70000EB090BE078032842DA214690
:1032800002A8FFF7A7FF4FF000089DF80C000228E6
:1032900038DC32E069462046FFF7AFFF044660782D
:1032A00005282AD10AEB071000EBC80001907F48DF
:1032B0000078B84206D07D490F7002A95846FFF742
:1032C00089FF0CE02179607901EB002078490988B9
:1032D000884200DA15E002A95846FFF77BFF214635
:1032E0000198FFF767FF2179607901EB00207049B1
:1032F000088008F101004FFA80F89DF80C00404565
:10330000C8DC00BF7088BDF800108842A6DC002031
:10331000674908806549087005B0BDE8F08F2DE960
:10332000FC4104460D461646002704F588704FF40C
:10333000007300222946CDE900062046FFF7FCFE77
:103340005FEA000814D106E004F58870C05D5949B1
:10335000C855781C87B2B742F6DB04F5887305F1CF
:10336000500205F13E0105F134000096FFF74EFFD3
:103370004046BDE8FC8130B513464578032D14D195
:103380000578AD1E9D4202DC0578AD1E00E01D46AD
:10339000ACB2801C002204E0855C0D70491C951CB9
:1033A000AAB2A242F8DB00250D7030BD2DE9FC4722
:1033B0000446884615461E460A9F04F5887045F463
:1033C000407300224146CDE900072046FFF7B4FED6
:1033D0005FEA000905D13A46314604F58870FFF7E7
:1033E000CAFF4846BDE8FC8770B506460C46154640
:1033F0000021217505216175E5820021218361830A
:1034000000231A4621463046FFF7DEFB70BD70B53B
:1034100006460C4615460021217509216175E58295
:1034200000212183618300231A4621463046FFF79D
:10343000CBFB70BD2DE9F04107460C4615461E46F4
:10344000012121750B216175E682258300216183AD
:1034500000231A4621463846FFF7B6FBBDE8F08147
:103460002DE9F04105460C4616461F4602212175FE
:10347000012161750021E1822683618306F08000CD
:10348000802805D105F56B7000EB4710017605E04B
:10349000002105F56B7000EB4710417600231A46BA
:1034A00021462846FFF790FBBDE8F0815000002040
:1034B0004E0000206C09002010B50446204602F0A2
:1034C000C2FB48B1F848F9490860F9484860002053
:1034D00048730120F749C8700020F7490860F74990
:1034E000087010BD2DE9F04105460E46144601272F
:1034F00014B1012C12D108E0F1480378C2783146AA
:103500002846FFF7ADFF074609E0ED48437882788B
:1035100031462846FFF7A4FF074600E000BF00BF82
:10352000E5480068401CE449086008460068042833
:1035300000D904273846BDE8F0812DE9F041054661
:103540000F4600260124284602F07DFB20B3DC480C
:103550000178284602F085FB06460D2E01D0022494
:103560001CE0D8480068D849884216D1D548406840
:10357000CE494968884211D1D248007B08B900245D
:103580000CE0D048007B012801D1012406E0CD48A1
:10359000007B022802D1022400E00224C548C47343
:1035A0002046BDE8F0812DE9F04780468946002499
:1035B000404602F048FB00287ED0BE48007909282A
:1035C0007BD2DFE800F07A051251A3FEFDFCFB0080
:1035D000BB4843781F22B5494046FFF7A2FB0120B4
:1035E000B4494871022008718BE1B54841784046E2
:1035F00002F032FB0446012C26D10020AE490860BF
:103600000220AC494871A948007B00F08007A74818
:103610008068A8B1A5488068AC490860A548806862
:10362000AB49086008460068AA490860802F03D1AA
:103630000320A049087116E004209E49087112E099
:1036400005209C4908710EE0022C04D1994840796C
:103650009849087107E0042C05D101209E490870A3
:103660000820944908714CE195480178404602F0E1
:10367000F3FA0446012C03D08E48407903283AD04F
:1036800000208D49086003208A4948718C48808851
:103690008E490968884219D28948037882888C4803
:1036A00001684046FFF76CFB8548808887490968B8
:1036B000081A8649086001E024E121E180488088F9
:1036C000834909680844824908601EE07F48006811
:1036D00018B905207749087117E0794803787B48C5
:1036E000008882B27A4801684046FFF749FB002013
:1036F0007649086009E0042C07D10020764908705B
:1037000007206C49087105204871FAE06C4841783F
:10371000404602F0A1FA0446012C3BD10020664944
:1037200008600420634948716548C0886749096892
:1037300088421AD262484378C28865480168404688
:10374000FFF7EFFA62480068624908605C48C08889
:103750005F49096808445E4908605948C0885B4968
:103760000968081A5949086042E05848006818B9C1
:103770000520504908713BE0514843785348008880
:1037800082B2534801684046FFF7CBFA00204F4908
:1037900008602DE0022C21D14D4800684D49096890
:1037A000884212D046484378C288C088DFF820C1DA
:1037B000DCF800C0ACEB0001404603E08EE058E0CE
:1037C00036E016E0FFF7ADFA12E03D484378C288D4
:1037D0003F4801684046FFF7A4FA09E0042C07D1EE
:1037E00001203D49087008203249087105204871C0
:1037F00087E005202F494871324888603F20888142
:103800000D2604E000202F498855701EC6B2002EF8
:10381000F8D100202B4908702948037825483F2219
:1038200081684046FFF7ACFA06202249087168E03B
:1038300023480178404602F00FFA0446012C0FD1CC
:1038400000201D49086005201A4948710846807803
:10385000087049464046FFF770FE1649C87307E0F6
:10386000042C05D100201C4908700720114908715B
:1038700047E0002249464046FFF734FE054665B959
:1038800015480078022803D108200A49087109E088
:10389000084840790749087104E0042D02D102204C
:1038A0000449C8732DE00000555342436C0B0020BF
:1038B000504030209C0B002054000020700000205D
:1038C000AC0B00208C0B00205553425358000020B5
:1038D0005C000020600000206400002001224946B6
:1038E0004046FFF7FFFD054625B9074840790649E0
:1038F000087104E0042D02D102200349C87300E0DE
:1039000000BF00BFBDE8F0879C0B00207CB50646D9
:103910000D462C4694F84300082856D194F84500EB
:10392000502852D194F8520000F0800038B194F839
:103930005200BB49C870B4F85400888006E094F87F
:103940005200B7498870B4F85400C88094F85A00FF
:1039500000F0800038B194F85A00B149C870B4F84A
:103960005C00888006E094F85A00AD498870B4F88D
:103970005C00C880AA4881783046FFF780FBA849E0
:1039800048700846C1783046FFF779FBA4490870B3
:103990000846C0880221CDE900102120035D94F87B
:1039A00020209F4841783046FFF7D6FA9C4880880F
:1039B0000221CDE900102120035D94F820209848D1
:1039C00001783046FFF7C8FA03E0D4F88010086C9D
:1039D000804700207CBD70B504460D469048407875
:1039E00038B18F484178204601F013F900208C4906
:1039F00048708B48007860B189480178204601F012
:103A000008F9874801782046FFF74CFB00208449DD
:103A1000087070BD10B5024600200023814C237051
:103A200010BD012812D180490978491C7E4A1170C5
:103A3000114609780A2905DA06217A4A117001210E
:103A4000D1700AE00A21774A117006E0022803D1FA
:103A50000A21744A117000E000BF70470246A1239A
:103A60000B75FE234B750023CB820B8301234B8305
:103A700000207047024621230B75FF234B7500235E
:103A8000CB820B834B83002070472DE9F0478146A2
:103A90000F463E46012403254FF00008484602F039
:103AA000D2F8002878D05F4800780B2875D2DFE87C
:103AB00000F0060D1E5566798A999E44B00048466E
:103AC000FFF7FAFC012057490870A5E0394648463F
:103AD000FFF7D0FF044614B9022052490870032CA6
:103AE00004D102204F4948700920087094E03946FB
:103AF0004846FFF7B3FF0446BCB94948007A484935
:103B000081F80802084690F8080200280ADD4748B4
:103B1000007838B9012045490870D6F88010086C43
:103B2000804779E003203F490870032C04D103202B
:103B30003C494870092008706EE0737900223946CC
:103B40004846FFF78DFC04463CB90020344981F813
:103B5000080234484078334908705DE0484600F078
:103B600067F805463DB904202E49087000202E490B
:103B70000870002402E02846FFF753FF4CE0484657
:103B800000F0A7F805464DB9052026490870002029
:103B900025490870002404E03FE03CE02846FFF798
:103BA00040FF39E0484600F0F9F805463DB90820E5
:103BB0001C49087000201C490870002402E02846B7
:103BC000FFF72FFF28E0484600F048F905462DB9D9
:103BD0001448407813490870002402E02846FFF793
:103BE00020FF19E039464846FFF7DDFC14E0D6F81F
:103BF0008010C86B804700F0FF08B8F1000F03D1B8
:103C000008200849087003E0B8F1010F00D106242C
:103C100002E0042400E000BF00BF2046BDE8F087BA
:103C2000AC0B00209C0B00207000002084000020C2
:103C300070B505460326284602F005F8002846D050
:103C4000FB48C078012802D002283ED124E00020A1
:103C5000F8498860087306208873F748F44988603B
:103C60003F20888103208870102405E00021F1485E
:103C70000F300155601EC4B2002CF7D10020ED4971
:103C8000C8730120EA490871072008700320C8732F
:103C90000220C870032619E0E548C07B20B9012046
:103CA000E349C87000260FE0E148C07B012803D13A
:103CB000DF49C870012607E0DD48C07B022803D138
:103CC0000120DB49C870022600E000BF00BF30467B
:103CD00070BD70B505460326284601F0B4FF0028E4
:103CE0005AD0D348C078012802D0022852D123E00C
:103CF0000820D0498860802008730A208873CF4844
:103D0000CB49886004208870102405E00021C94850
:103D10000F300155601EC4B2002CF7D12520C549D3
:103D2000C8730120C2490871072008700320C873B6
:103D30000220C87003262EE0BD48C07BC8B9BF482A
:103D40000078BF49C870BD4840788870BB4880780B
:103D50004870BA48C0780870B8488179B84841724C
:103D6000B648C079B64908720120B149C87000262A
:103D70000FE0AF48C07B012803D1AD49C8700126D0
:103D800007E0AB48C07B022803D10120A849C870D6
:103D9000022600E000BF00BF304670BD70B505468A
:103DA0000326284601F04FFF002855D0A048C078D0
:103DB000012802D002284DD127E03F209D4988608C
:103DC000802008730A2088739C48994988600520E0
:103DD0008870102405E0002196480F300155601EC0
:103DE000C4B2002CF7D11A209249C8733F219148E0
:103DF0004174C17401208E490871072008700320A6
:103E0000C8730220C870032625E08948C07B80B9AA
:103E10008A48807800F0800018B101208849087332
:103E200002E000208649087301208149C8700026FD
:103E30000FE07F48C07B012803D17D49C87001266F
:103E400007E07B48C07B022803D101207849C87075
:103E5000022600E000BF00BF304670BD70B50546C9
:103E60000326284601F0EFFE00285DD07048C07898
:103E7000012802D0022855D12BE03F206D498860EF
:103E8000802008730A2088736C4869498860084656
:103E90008078487006208870102405E0002165486D
:103EA0000F300155601EC4B2002CF7D103206149C8
:103EB000C87300215F4801743F21C17401205C492F
:103EC0000871072008700320C8730220C8700326F9
:103ED00029E05748C07BA0B9584801785848C171BB
:103EE0005648417856488171544881785448417108
:103EF0005248C0785249087101204D49C8700026C7
:103F00000FE04B48C07B012803D14949C870012606
:103F100007E04748C07B022803D101204449C8700C
:103F2000022600E000BF00BF304670BD2DE9FF4112
:103F300082B007460E461D464FF00308384601F092
:103F400082FE00285BD03A48C078012802D00228BF
:103F500053D138E0374885600020364908730A207D
:103F6000887333488660102405E0002131480F3003
:103F70000155601EC4B2002CF7D12A202D49C87308
:103F80009DF813102B4841749DF8121081749DF810
:103F90001110C1749DF810100175C5F34F200190E8
:103FA0009DF80510234881759DF80410C175012006
:103FB0001F490871072008700320C8730220C870C9
:103FC0004FF003081AE01A48C07B28B901201849AD
:103FD000C8704FF000080FE01548C07B012802D1DF
:103FE0001349C87008E01248C07B022804D10120A0
:103FF0000F49C8704FF0020800E000BF00BF404604
:1040000006B0BDE8F081FFB581B007460E461D46FB
:1040100003200C490870384601F015FE002876D0C0
:104020000348C07801280FD002286ED146E0000076
:104030009C0B00206C0B00208C0B0020C80D002076
:10404000B80D00208500002033488560802032496B
:1040500008730A20887331488660102405E0002127
:104060002D480F300155601EC4B2002CF7D1282016
:104070002949C8739DF80F10274841749DF80E1008
:1040800081749DF80D10C1749DF80C100175C5F375
:104090004F2000909DF801101F4881759DF8001079
:1040A000C17501201D490871072008700320C873DD
:1040B0000220C87003201A49087027E01748C07B07
:1040C00050B9384601F0BFFD30B101201349C87026
:1040D00000201349087015E01048C07B012807D163
:1040E000384601F0B0FD18B101200C49C87009E054
:1040F0000A48C07B022805D101200849C870022067
:104100000749087002E002E0FFE700BF00BF044873
:10411000007805B0F0BD00006C0B00209C0B002067
:104120008500002008B500210091491EC268516039
:104130006FF08041C2685161009921F0004101F1A6
:1041400000410091009921F4006101F500610091A6
:104150000099C268916108BDF8B5044600260025A3
:104160000020009000BF032001F030FEE0680069ED
:104170000090681C0546F749884201D90020F8BD27
:104180000098C00F0028EED00025009820F0010014
:10419000401C00900098E168086100BFE068006979
:1041A0000090681C0546EB49884200D904E000985D
:1041B00000F001000028F1D100BF032001F006FE4D
:1041C0003046DCE72DE9F04104460026E078B0B93E
:1041D00000270020DD1C4FEAE57805EB98784FEAD0
:1041E000A80704F1D00555F822C000BF04E00D680F
:1041F000CCF80050401C091DB842F8D300BF30462F
:10420000BDE8F081F0B503460024D01CC71700EBD1
:104210009777BD10D3F8D06000BF03E03068086026
:10422000641C091DAC42F9D30846F0BD70B50246C6
:104230000C46002300200025D570012595704025EF
:104240009580012C0CD14FF0A0430125D572082593
:104250001570042555709D15D580022515720AE04C
:104260004CB9BD4B0025D5720C251570062555702F
:104270004FF4A065D580D36003F50065156100217A
:1042800010E003F5106505EB411602F1180545F83D
:10429000216003F5306505EB411602F1540545F840
:1042A0002160491C55788D42EBD803F58065556136
:1042B0004035C2F8CC50002108E003F5A06505EBBD
:1042C000411602F1900545F82160491C15788D4290
:1042D000F3D8002108E003F5805505EB013602F123
:1042E000D00545F82160491C15788D42F3D803F5B7
:1042F0006065C2F80C5170BD3EB504460025002033
:10430000029001900090207A01283DD1E068806BF6
:104310000190019820F480300190607A28B10198D2
:1043200020F4801000F5801001900198E168886306
:1043300000200290E068C0680290029820F04000DF
:104340000290029820F480000290029820F400303D
:104350000290029820F4002002900298E168C86060
:104360002046FFF7F9FEE078012843D1009820F0BD
:104370001E000A300090009820F0200020300090AD
:104380000098E168886035E0E068C06802900298B3
:1043900020F04000403002900298E168C86020465A
:1043A000FFF7DAFE00200190019820F4803000F53C
:1043B00080300190019820F4802000F58020019049
:1043C000019820F4002000F500200190019820F4CD
:1043D000001000F500100190607A28B1019820F4D7
:1043E000801000F5801001900198E1688863142026
:1043F00001F0E5FCE07801280FD1E06880680090CA
:10440000009820F01E000A300090009820F0200054
:10441000203000900098E168886028463EBD08B5CD
:104420000146002000220092009A22F00102521C54
:104430000092CA689268009B1A43CB689A6008BDD4
:1044400008B50146002000220092009A22F00102E5
:10445000521C0092CA689268009B9A43CB689A608B
:1044600008BDF8B504460D46002600270020009040
:10447000009820F0200020300090009865F38A100A
:1044800000900098E168086100BFE0680069009052
:10449000781C07462F49884200D904E00098C0F3F1
:1044A00040100028F1D100BF032001F08FFC3046FE
:1044B000F8BDF8B5044600250026002000900098BD
:1044C00020F01000103000900098E168086100BFF3
:1044D000E06800690090701C06461E49884200D9B9
:1044E00004E00098C0F300100028F1D100BF0320C1
:1044F00001F06CFC2846F8BDF8B504460D460026D0
:10450000E068C0680090009820F00050009000988B
:1045100020F080400090012D06D1009820F000503E
:1045200000F10050009006E02DB9009820F0804086
:1045300000F1804000900098E168C860322001F0EE
:104540003EFC3046F8BD0146C868406900F00100F5
:1045500070470000400D03000000044000B5024613
:104560001046FFF7F0FF012801D0012000BD002018
:10457000FCE700B502461046FFF7E5FF012800D131
:1045800000BD0020FCE701460020CA685069CA68E7
:104590009269104070470146C8684068704738B556
:1045A0000446002500200090E1688861401EE16813
:1045B00048612046FFF7B6FDE07820B9009820F06A
:1045C000100010300090009820F0807000F1807092
:1045D0000090009820F0007000F1007000900098AA
:1045E00020F0005000F100500090009820F00800EA
:1045F00008300090009820F4001000F500100090A2
:10460000E0688069009988430843E168886128462A
:1046100038BD08B50146D1F8CC000068009000987C
:1046200020F004000090009820F002000090009814
:1046300020F008000090009820F0200000900098E2
:1046400008BD38B505460C46002000902146284696
:1046500001F06CFB2846FFF7DCFF00900098C0F3E8
:10466000003058B9012C09D1009820F4805000F591
:10467000805000900099D5F8CC0001600098C0F3FC
:10468000003040B13CB9009820F48050009000996F
:10469000D5F8CC000160C82001F091FB38BD38B5D9
:1046A00004462046FFF7B5FF0090009820F4807084
:1046B00000F5807000900099D4F8CC0001600A20C9
:1046C00001F07DFB009820F4807000900099D4F8F0
:1046D000CC000160142001F072FB012038BD08B548
:1046E000426912680092009A61F301020092009BF5
:1046F0004269136008BDFEB504460026002500206F
:10470000029001900090204601F011FB0021D4F8A6
:104710000C010160207A012803D12046FFF7DFFF5A
:1047200003E001212046FFF7DAFF2046FFF7B7FF3D
:10473000606900680090009820F0040000900099E3
:1047400060690160E07A01281DD18020E16848623B
:1047500002986FF30F0080300290029880B200F54B
:10476000C00002900298E168886201986FF30F0020
:10477000E0300190019880B200F5C00001900198EE
:10478000E168C1F8000110212046FFF76AFE2046CB
:10479000FFF78FFE00250DE04FF0FF3104F1900090
:1047A00050F825008160002104F1900050F82500A8
:1047B000C1606D1C2078A842EED801212046FFF789
:1047C00040FF2046FFF7EBFE3046FEBD014648693C
:1047D000806800F0010080F00100704701464869E0
:1047E000406970473FB50246002000230024029430
:1047F00003940194441E009402F1900454F8214063
:10480000009DA56000240394D478012C04D1039C5E
:1048100024F00404241D039402F56B7404EB41148A
:10482000647934B1012C6AD0022C03D0032C38D126
:1048300038E000BF039C24F00104641C0394039C33
:1048400024F0080408340394039C24F0800480348A
:104850000394039C24F4806404F580640394039C13
:1048600024F010041034039402F56B7404EB41142B
:10487000A47834B1039C24F4807404F58074039408
:104880000FE0039C24F040044034039402F56B7461
:1048900004EB4114247924B1039C24F02004203437
:1048A00003944EE0039C24F00104641C0394039CD5
:1048B00024F0100410340394039C24F008040834FA
:1048C0000394039C24F0800480340394039C24F418
:1048D000806404F580640394039C24F4007404F55C
:1048E0000074039402F56B7404EB4114A4782CB1AA
:1048F000039C24F4807404F58074039421E0039CE9
:1049000024F00104641C0394039C24F4007404F553
:1049100000740394039C24F020042034039402F5D3
:104920006B7404EB4114A47854B1039C24F080040C
:1049300080340394039C24F4807404F580740394FD
:1049400000BF00BF02F1900454F82140039DE560D0
:10495000012404FA01F35469A4691C435569AC614C
:10496000029C24F0007404F100740294D468A469D9
:10497000029D2C43D568AC610024019402F56B7450
:1049800004EB41142578019C65F39C54019402F5D5
:104990006B7404EB41146578019C65F3CE2401949B
:1049A00002F56B7404EB4114A578019C65F3CF34D8
:1049B000019402F56B7404EB4114E478022C01D1EC
:1049C000012500E00025019C65F35144019402F5A6
:1049D0006B7404EB41146579019C65F39344019475
:1049E00002F56B7404EB4114E588019C65F30A043D
:1049F000019402F56B7404EB41146479032C05D126
:104A0000019C24F0005404F10054019402F190043C
:104A100054F82140019D256004B030BD2DE9F043DC
:104A200088B004460D464FF00009C8464FF4807721
:104A3000002006900790009004F56B7000EB451085
:104A4000006910B304F56B7000EB4510016904F5C3
:104A50006B7000EB4510C0880144491E04F56B7073
:104A600000EB4510C088B1FBF0F086B2BE420DDD10
:104A70003E4604F56B7000EB4510C188714304F5A8
:104A80006B7000EB4510016100E0012604F56B70CE
:104A900000EB4510807850B104F56B7000EB4510C9
:104AA000C188714304F56B7000EB4510016104F59A
:104AB0006B7000EB45100169069861F312000690D7
:104AC000069866F3DC40069004F56B7000EB451029
:104AD000017A069861F35E70069004F1900050F838
:104AE000250006990161E078012809D104F56B7071
:104AF00000EB4510C16804F1900050F825004161B9
:104B000004F1900050F82500006807902046FFF758
:104B10005DFE079960F35D710791079820F00040F2
:104B200000F100400790079820F08040079004F1C2
:104B3000900050F8250007990160E078002864D1C2
:104B400004F56B7000EB4510807800285DD104F50A
:104B50006B7000EB45100069002856D004F56B70AF
:104B600000EB4510407930B1012821D0022803D054
:104B7000032839D11BE000BFE068C06A039004F548
:104B80006B7000EB45100069C01CC0F38F080398E0
:104B900080B240450ADA009820F0200020300090D2
:104BA000E068806900990843E16888611DE000BF02
:104BB00060690069019004F56B7000EB45100069B5
:104BC000C01CC0F38F08019880B240450BDA0098F2
:104BD00020F0806000F180600090E06880690099BA
:104BE0000843E168886100E000BF00BF04F56B7016
:104BF00000EB4510008A83B204F56B7000EB4510A2
:104C00002A46C1682046FFF7DDFA484608B0BDE8ED
:104C1000F08310B586B00246002000230393019371
:104C200002F1900353F821301B680093009B23F09E
:104C3000004303F100430093009B23F0804303F102
:104C400080430093009BC3F3814323B1009BC3F3D4
:104C50008143022B0BD1D368DB6A0393039BC3F31D
:104C600007437BB9009B23F0004300930AE053699C
:104C70001B690193019BC3F307431BB9009B23F0FE
:104C80000043009302F1900353F82130009C1C6014
:104C900006B010BD1CB50246002000230093009B07
:104CA00023F0004303F1004300930124009B64F3CD
:104CB000DC43009302F1900353F82130009C1C6107
:104CC00002F1900353F821301B680193019B23F0FC
:104CD000004303F100430193019B23F080430193C0
:104CE00002F1900353F82130019C1C601CBD38B5C3
:104CF0000446002160698161491E606941610025A7
:104D00001AE004F1900050F8250000680090009827
:104D100020F000400090009820F0804000F180409A
:104D20000090009820F40040009004F1900050F8AA
:104D30002500009901606D1C2078A842E1D820462A
:104D4000FFF7B7FB10212046FFF78BFB38BD0000B3
:104D50000CB50146D1F8900000680090009820F052
:104D6000004000F100400090009820F0804000F1E9
:104D700080400090009AD1F89000026000200190DD
:104D8000019820F4001000F5001001900198CA6805
:104D9000506101200CBD38B5044600200090FE484B
:104DA0000068816820468847009820F0005000F194
:104DB000005000900098E1684861012038BDFEB5C0
:104DC0000446002600250020009002900190D4F8AF
:104DD000CC0000680290D4F8CC00006801900198E3
:104DE00020F004000190019820F002000190019849
:104DF00020F008000190019820F020000190029816
:104E0000C0F3400058B1019820F00200801C0190CE
:104E1000E148006841682046884745F0010502984E
:104E2000C0F3C000002842D0019820F008000830EC
:104E300001900298C0F38000002838D0D64800685E
:104E40004168204688470298C0F34140022804D0B8
:104E50000298C0F34140012828D1606900680090A1
:104E60000298C0F34140022811D141F2707160698B
:104E70004160009800F00300022818D0207A022830
:104E800003D102212046FFF72AFC01260FE04BF652
:104E9000803160694160009800F00300012806D06D
:104EA00001212046FFF71BFC012600E001260298A5
:104EB000C0F3401030B1019820F020002030019064
:104EC00045F0010516B12046FFF7E9FB0199D4F83A
:104ED000CC0001602846FEBD7FB505460C4605F1B5
:104EE000900050F82460B0680390F0680290DDE90B
:104EF00002100840039005F1900050F8240000686B
:104F000001900398C0F38000D0B100200090009879
:104F100020F00400001D00900098B06005F19000A2
:104F200050F82400C0680090009820F00200801C17
:104F3000009005F1900050F824000099C160B4E1A0
:104F40000398C0F3401048B100200090009820F072
:104F50002000203000900098B060A6E10398C0F3D4
:104F60004020F8B105F1900050F82400C06800908E
:104F7000009820F00200801C009005F1900050F88D
:104F800024000099C160E1B22846FFF742FE0020EC
:104F90000090009820F4007000F5007000900098D8
:104FA000B06082E1039800F0010038B3002105F5FC
:104FB000457040F8241005F1900050F82400C068B6
:104FC0000090009820F00200801C009005F19000F5
:104FD00050F824000099C160E1B22846FFF719FE9D
:104FE00000200090009820F00100401C00900098E4
:104FF000B060012105F56370015556E10398C0F3D7
:10500000C00010B300200090009820F00800083085
:1050100000900098B06005F1900050F82400C0683E
:105020000090009820F00200801C009005F1900094
:1050300050F824000099C160E1B22846FFF7E9FD6D
:10504000052105F5637001552FE10398C0F30010A9
:1050500038B3002105F5457040F8241005F19000A3
:1050600050F82400C0680090009820F00200801CD6
:10507000009005F1900050F824000099C160E1B261
:105080002846FFF7C6FD00200090009820F0100091
:10509000103000900098B060032105F56370015551
:1050A00003E10398C0F3C01040B305F1900050F83D
:1050B0002400C0680090009820F00200801C00903E
:1050C00005F1900050F824000099C160E1B2284633
:1050D000FFF79FFD05F5457050F82410491C40F876
:1050E000241006217830015500200090009820F00F
:1050F0008000803000900098B060D6E00398C0F344
:10510000801038B3002105F5457040F8241005F1F2
:10511000900050F82400C0680090009820F0020031
:10512000801C009005F1900050F824000099C160A7
:10513000E1B22846FFF76DFD00200090009820F0B6
:105140004000403000900098B060042105F5637085
:105150000155AAE00398C0F3802078B305F19000D0
:1051600050F82400C0680090009820F00200801CD5
:10517000009005F1900050F824000099C160E1B260
:105180002846FFF746FD00200090009820F0100010
:1051900010300090009801E048000020B060082125
:1051A00005F56370015500200090009820F48060A0
:1051B00000F5806000900098B06076E0FFE703980B
:1051C000C0F34000002870D005F1900050F8240092
:1051D000C0680090009820F00200009005F1900057
:1051E00050F824000099C16005F56370005D012846
:1051F00015D1012105F29B3001550198C0F3814082
:10520000022848D105F56B7000EB4410407E80F019
:10521000010105F56B7000EB441041763BE005F5AC
:105220006370005D032804D1022105F29B30015513
:1052300031E005F56370005D04280FD105F56B7052
:1052400000EB44100079012803D1E1B22846FFF7B2
:1052500021FD022105F29B3001551CE005F563702C
:10526000005D052804D1042105F29B30015512E0B0
:1052700005F56370005D06280DD105F5457050F801
:105280002400032807D1032105F29B30015500219A
:10529000873840F8241000200090009820F0020089
:1052A000801C00900098B06000BF012004B070BD69
:1052B00070B586B005460C4605F1900050F82460A4
:1052C000B0680590F0680490DDE90410084005908E
:1052D00005F1900050F8240000680390002004902D
:1052E0000598C0F38000D0B100200190019820F013
:1052F0000400001D01900198B06005F1900050F885
:105300002400C0680190019820F00200801C0190E8
:1053100005F1900050F824000199C16073E00598F0
:10532000C0F3401048B100200190019820F0200007
:10533000203001900198B06065E00598C0F3C0008E
:1053400078B305F1900050F82400C06801900198EE
:1053500020F00200801C019005F1900050F824001C
:105360000199C160052105F5637001550020019088
:10537000019820F01000103001900198B0600020DA
:105380000190019820F00800083001900198B06069
:10539000059820F010000590E1B22846FFF739FC8F
:1053A00031E0FFE70598C0F3802060B305F190007D
:1053B00050F82400C0680190019820F00200801C81
:1053C000019005F1900050F824000199C160E1B20C
:1053D0002846FFF71EFC00200190019820F01000E5
:1053E000103001900198B060082105F563700155F7
:1053F00000200190019820F4806000F58060019009
:105400000198B06000BF0598C0F34020F8B105F1E5
:10541000900050F82400C0680190019820F002002C
:10542000801C019005F1900050F824000199C160A2
:10543000E1B22846FFF7EDFB00200190019820F42F
:10544000007000F5007001900198B06042E105988D
:1054500000F00100002871D0E878012812D105F190
:10546000900050F824000069029005F56B7000EB85
:10547000441000690299C1F31201411A05F55470F4
:1054800040F82410012105F563700155002178389A
:1054900040F8241000200190019820F00100401CE9
:1054A00001900198B0600398C0F3814020B1039847
:1054B000C0F3814002282AD105F1900050F8240061
:1054C000C0680190019820F00200801C019005F155
:1054D000900050F824000199C160E1B22846FFF71E
:1054E00098FB00200190019820F0100010300190EE
:1054F0000198B06005F56B7000EB4410007E80F001
:10550000010105F56B7000EB44100176E2E00398B1
:10551000C0F38140032899D1039820F0005000F196
:105520000050039005F1900050F8240003990160A9
:10553000012105F29B300155CCE0FFE70598C0F34F
:105540004000002851D005F1900050F82400C068B8
:105550000190019820F00200019005F1900050F8B0
:1055600024000199C16005F56370005D012804D134
:10557000012105F29B3001552DE005F56370005DBA
:10558000052804D1042105F29B30015523E005F5DF
:105590006370005D062804D005F56370005D08287F
:1055A00008D1002105F5457040F82410032187300B
:1055B000015510E00398C0F3814003280BD105F595
:1055C0006B7000EB4410007E80F0010105F56B70FC
:1055D00000EB4410017600200190019820F00200B9
:1055E000801C01900198B06074E00598C0F3C01071
:1055F00040B305F1900050F82400C0680190019874
:1056000020F00200801C019005F1900050F8240069
:105610000199C16005F5457050F82410491C40F807
:105620002410062178300155E1B22846FFF7F1FA3F
:1056300000200190019820F08000803001900198B6
:10564000B06047E00598C0F30010E8B30398C0F3DA
:105650008140032815D105F1900050F82400C0685E
:105660000190019820F00200801C019005F190004B
:1056700050F824000199C160E1B22846FFF7C9FA49
:1056800018E00398C0F3814020B10398C0F3814033
:1056900002280FD1039820F0004000F10040039051
:1056A000039820F08040039005F1900050F824000A
:1056B00003990160032105F56370015500200190F5
:1056C000019820F0100000E004E0103001900198F3
:1056D000B06000BF012006B070BD7CB50546002457
:1056E00000262846FFF77AF8019000BF1BE00198DA
:1056F00080B20121A1400840A0B105F1900050F80E
:105700002400006800900098C0F3C03028B1214602
:105710002846FFF7CDFD064304E021462846FFF763
:10572000DBFB0643641C2878A042E0D830467CBDF1
:10573000FEB504466069006900900198C0F3C3019A
:1057400004F56B7000EB41100069C01CC0F38F06BC
:1057500074E04FF6FF71009801EA80050198C0F3EC
:10576000C30104F56B7000EB41100069A84216D22A
:105770000198C0F3C30104F56B7000EB4110008A7F
:1057800085B200200290029820F0806000F18060D5
:105790000290E068806902998843E1688861019815
:1057A000C0F3C30104F56B7000EB41100069C01C2D
:1057B000C0F38F060198C0F3C302C0F3C30304F51E
:1057C0006B7000EB43102B46C1682046FEF7FAFCD5
:1057D0000198C0F3C30104F56B7000EB4110C06881
:1057E00041190198C0F3C30204F56B7000EB42103D
:1057F000C1600198C0F3C30104F56B7000EB411068
:105800000069411B0198C0F3C30204F56B7000EB03
:10581000421001610198C0F3C30104F56B7000EB05
:105820004110406941190198C0F3C30204F56B703F
:1058300000EB42104161606900690090009880B2FD
:10584000B0420ADD0198C0F3C30104F56B7000EBB0
:105850004110006900287FF47CAF0120FEBD7FB5B8
:105860000446E068C06A00900198C0F3C30104F5E3
:105870006B7000EB41100069C01CC0F38F0673E031
:105880004FF6FF71009801EA80050198C0F3C3014B
:1058900004F56B7000EB41100069A84215D2019825
:1058A000C0F3C30104F56B7000EB4110008A85B2B0
:1058B00000200390039820F0200020300390E0683F
:1058C000806903998843E16888610198C0F3C30146
:1058D00004F56B7000EB41100069C01CC0F38F062B
:1058E0000198C0F3C302C0F3C30304F56B7000EB6F
:1058F00043102B46C1682046FEF764FC0198C0F3B4
:10590000C30104F56B7000EB4110C06841190198A8
:10591000C0F3C30204F56B7000EB4210C160019844
:10592000C0F3C30104F56B7000EB41100069411B2B
:105930000198C0F3C30204F56B7000EB42100161E3
:105940000198C0F3C30104F56B7000EB411040698E
:1059500041190198C0F3C30204F56B7000EB4210CB
:105960004161E068C06A0090009880B2B0420ADDF0
:105970000198C0F3C30104F56B7000EB411000699E
:1059800000287FF47DAF012004B070BD30B585B034
:105990000446002000900390039820F0100010307F
:1059A0000390E068806903998843E1688861E06852
:1059B000006A0490049800F00F00009004F1900039
:1059C0009DF8001050F82100006801900498C0F381
:1059D0004340022806D0032878D0052877D007282E
:1059E00073D175E00498C0F30A10002869DD04F54E
:1059F0006B709DF8001000EB4110C068002860D06B
:105A00000498C0F30A1204F56B709DF8003000EBA7
:105A10004310C1682046FEF7F5FB049800F00F0123
:105A200004F56B7000EB4110C0680499C1F30A11D2
:105A30000144049800F00F0204F56B7000EB421073
:105A4000C160049800F00F0104F56B7000EB411089
:105A500040690499C1F30A110144049800F00F024F
:105A600004F56B7000EB4210416104F56B709DF81A
:105A7000001000EB4110456904F554709DF80010CA
:105A800040F8215004F190009DF8001050F82100DA
:105A9000006902900298C0F3C940002811DD019806
:105AA00020F0004000F100400190019820F080407B
:105AB000019004F190009DF80020019950F8220017
:105AC000016006E002E002E0FFE700BF00BF00BFA8
:105AD00000BF00BF039820F0100010300390E06872
