:020000040801F1
:1000000080BE0020B5890108793B01087B3B0108CF
:100010007F3B0108833B0108873B0108000000008B
:100020000000000000000000000000008B3B010801
:100030008D3B0108000000008F3B0108913B010847
:10004000CF890108CF890108CF890108CF8901082C
:10005000CF890108CF890108CF890108CF8901081C
:10006000CF890108CF890108CF890108BF45010860
:10007000CF890108CF890108CF890108CF890108FC
:10008000CF890108CF890108714B0108CF89010888
:10009000CF890108CF890108CF8901087D4901086E
:1000A000CF890108CF890108CF890108CF890108CC
:1000B00081480108CF890108F93D0108CF8901086D
:1000C000CF890108CF890108CF890108CF890108AC
:1000D000CF890108553D0108CF890108A73D0108D6
:1000E000CF890108CF890108CF89010800000000ED
:1000F0000000000000000000000000000000000000
:100100000000000000000000CF890108CF8901082D
:10011000CF890108CF8901084F5E0108CF89010806
:10012000CF890108CF890108CF890108CF8901084B
:10013000CF890108CF890108CF890108CF8901083B
:10014000CF890108CF890108CF890108CF8901082B
:1001500000F002F800F062F80AA090E8000C824477
:100160008344AAF10107DA4501D100F057F8AFF254
:10017000090EBAE80F0013F0010F18BFFB1A43F085
:1001800001031847D0CD0200F0CD02000A444FF021
:10019000000C10F8013B13F0070408BF10F8014BE6
:1001A0001D1108BF10F8015B641E05D010F8016B2B
:1001B000641E01F8016BF9D113F0080F1EBF10F88F
:1001C000014BAD1C0C1B09D16D1E58BF01F801CBB2
:1001D000FAD505E014F8016B01F8016B6D1EF9D535
:1001E0009142D6D37047000000230024002500264A
:1001F000103A28BF78C1FBD8520728BF30C148BF8A
:100200000B607047642908F06784732908F0EB8558
:10021000002070471FB51FBD10B510BD08F022FEAD
:100220001146FFF7F7FF03F0BDF808F040FE03B4F6
:10023000FFF7F2FF03BC08F041FE0000EFF3098076
:10024000704780F309887047EFF30880704780F3A8
:100250000888704740BA7047C0BA704730B51E4929
:10026000B1F1807F00D31DE021F07F40401E4FF0B0
:10027000E022506150170F22002807DA13071D0EE5
:10028000164B00F00F04241F1D5503E013071C0E2E
:10029000134B1C5400BF00204FF0E0229061072058
:1002A000106100BF30BD014642F2887201FB02F0CE
:1002B00000E0401E0028FCD1704700EB400202EB3A
:1002C000C00100E0491E0029FCD17047014600E052
:1002D000491E0029FCD170474019010018ED00E0CB
:1002E00000E400E040F2E730FE490880084600885C
:1002F000FD4908800020FD490880704740F2E73042
:10030000FB49088008460088FA49088070470920A0
:10031000F949088008460088F84908800020F84913
:100320000880704740F2E730F649088008460088A8
:10033000F54908800020F5490880704740F2E73011
:10034000F349088008460088F2490880704700B5E4
:1003500000222FE0F04850F82200F04901EB021192
:100360000860EF4830F81200EC4901EB0211888078
:10037000EA4800EB02108088401EE84901EB0211B8
:10038000C880E64800EB02108088401EE34901EB7C
:10039000021108810020E14901EB02114881DF4888
:1003A00000EB02108088401EDC4901EB02118881BD
:1003B000501CC2B20A2ACDDBFFF7C0FFFFF7B2FF25
:1003C000FFF7A5FFFFF79AFFFFF78CFF00BD30B5E1
:1003D000D24B03EB00135B89D04C04EB0014A488D0
:1003E000A34223DACD4B03EB00131B895B1CCB4CE0
:1003F00004EB0014A48893FBF4F504FB1533C74CFD
:1004000004EB00142381C54B03EB00131B68C34CA2
:1004100004EB001424891A191170C04B03EB00136C
:100420005B895B1CBD4C04EB0014638130BD10B5CF
:100430000146BA4800EB01104089002824DDB74886
:1004400000EB0110C088401CB44B03EB01139B88E8
:1004500090FBF3F403FB1400B04B03EB0113D880C3
:10046000AE4800EB01104089401EAC4B03EB01137A
:100470005881AA4800EB01100068A84B03EB011358
:10048000DB88C218107810BD0020FCE710B50146CB
:10049000A24800EB0110408900281BDD9F4800EBBB
:1004A00001108089401C9D4B03EB01139B8890FB3E
:1004B000F3F403FB1400994B03EB01139881974865
:1004C00000EB01100068954B03EB01139B89C218E8
:1004D000107810BD0020FCE7904901EB00118988DD
:1004E000491E8E4A02EB0012D1808C4901EB0011AB
:1004F0008988491E894A02EB001211810021874A2E
:1005000002EB0012518170470146844800EB011054
:10051000408970470146814800EB011080887F4A7E
:1005200002EB01125289801A80B270477948028822
:10053000774801888A4202DB501A80B2704702F580
:100540007A70401A80B2F9E700B50346FFF7EEFF74
:10055000B0F57A7F0DDA6F480088401C4FF47A714D
:1005600090FBF1F201FB12006A4908806D4809888E
:10057000435400BD674800886549098888420ED009
:1005800063480088401C4FF47A7190FBF1F201FB44
:1005900012005F49088063480988405C7047FF206B
:1005A000FCE700B5FFF7C2FFC0F57A7080B200BD6E
:1005B00056490988B1F57A7F13DA53490988491CED
:1005C0004FF47A7291FBF2F302FB13114E4A118041
:1005D0004E490988491C4D4A118053494A4A12889C
:1005E0008854704749480088002814DD4548008831
:1005F000401C4FF47A7190FBF1F201FB120041496B
:10060000088042480088401E4049088046483D49CD
:100610000988405C70470020FCE73C480088C0F532
:100620007A7080B2704741480288414801888A4206
:1006300002DB501A80B2704702F10A00401A80B201
:10064000F9E709203A4908800846008837490880B8
:10065000704700B50346FFF7E6FF0A280DDA334876
:100660000088401C0A2190FBF1F201FB12002F4987
:1006700008803048098820F8113000BD2B480088D8
:100680002B49098888420ED029480088401C0A213D
:1006900090FBF1F201FB12002549088025480988EA
:1006A00030F8110070474FF6FF70FBE700B5FFF719
:1006B000BAFFC0F10A0080B200BD114909880A29B9
:1006C00040DA0E490988491C0A2291FBF2F302FB29
:1006D00013110A4A11800A490988491C084A1180E5
:1006E00015492BE01A0000201C00002018000020F3
:1006F000140000201600002010000020120000202E
:100700000E00002006000020080000200400002049
:10071000000000200200002018A30108F8110020AA
:1007200004A30108CC010020B40500200C00002027
:100730000A0000209C090020B00900204D4A1288C0
:1007400021F8120070474C480088002814DD4B48FF
:100750000088401C0A2190FBF1F201FB120047497E
:10076000088045480088401E434908804448434962
:10077000098830F8110070470020FCE73E480088E7
:10078000C0F10A0080B270473E4802883E480188A6
:100790008A4202DB501A80B2704702F57A70401A22
:1007A00080B2F9E737490988491C4FF47A7291FB06
:1007B000F2F302FB1311334A118034491288885432
:1007C0007047304800883049098888420ED02E484A
:1007D0000088401C4FF47A7190FBF1F201FB12008B
:1007E0002949088029480988405C7047FF20FCE7B8
:1007F00000B5FFF7C9FFC0F57A7080B200BD24498B
:100800000988B1F57A7F13DA22490988491C4FF427
:100810007A7291FBF2F302FB13111E4A11801C49FC
:100820000988491C1A4A11801B491A4A128888549F
:10083000704717480088002814DD18480088401CBD
:100840004FF47A7190FBF1F201FB1200134908801A
:100850000F480088401E0E4908800F480F4909883C
:10086000405C70470020FCE709480088C0F57A70BA
:1008700080B27047120000200E00002010000020FF
:10088000B00900201600002014000020C409002038
:10089000180000201C000020AC0D00201A000020D1
:1008A0007047374A3748002105E013680360121D7E
:1008B000001D4B1C99B25929F7D370472DE9F0411F
:1008C00005F03BFF352006F0D3F9052726E02C483C
:1008D00005F078FF2A4D2B4E002407E028463168AA
:1008E00006F040F82D1D361D601C84B2592CF5D33E
:1008F0004FF00108224D234E002409E0286831689A
:10090000884201D04FF000082D1D361D601C84B2B6
:10091000592CF3D3B8F1000F00D004E03800A7F150
:100920000101CFB2D3D100BFBDE8F08108B51649AF
:100930006A4608681060009808BDF1B505F0FDFE34
:10094000352006F095F9052612E00F4805F03AFF2C
:100950000D4C6D462046296806F004F8012700BFBB
:1009600000BF20682968884200D0002707B104E052
:100970003000A6F10101CEB2E7D100BFF8BD000002
:1009800000FE05089812002000F8000870B588B035
:100990002021684608F06AF9C6208DF800000E2074
:1009A0008DF8010055208DF810000026F7480088CA
:1009B000864201DAF5480688F5480088864201DA61
:1009C000F348068800253FE0F0480088854211DAA8
:1009D00000240CE004EB4400C0EBC410ED4901EB33
:1009E0000010415DA01C0DF80010601CC4B2022C68
:1009F000F0DB04E00020CDF80200ADF80600E4488A
:100A00000088854211DA00240CE0C4EB041000EBEE
:100A10008000E14901EB8000415D201D0DF80010D0
:100A2000601CC4B20C2CF0DB03E0002101910291A8
:100A300003911121684604F0CFFB00BFD74800881E
:100A40000028FBDC681C85B2B542BDDBD4480088B9
:100A500000128DF80200D24800788DF80300CC48CF
:100A6000008800128DF80400C94800788DF8050050
:100A700000208DF806008DF807008DF808008DF82D
:100A800009008DF80A001121684604F0A5FB00203A
:100A90008DF802008DF803008DF804008DF8050034
:100AA0008DF806008DF807008DF808008DF8090014
:100AB0008DF80A001121684604F08EFB00208DF8A5
:100AC00002008DF803008DF804008DF805008DF804
:100AD00006008DF807008DF808008DF809008DF8E4
:100AE0000A001121684604F077FB00208DF802000F
:100AF0008DF803008DF804008DF805008DF80600D0
:100B00008DF807008DF808008DF809008DF80A00AF
:100B10001121684604F060FB00208DF802008DF87A
:100B200003008DF804008DF805008DF806008DF89F
:100B300007008DF808008DF809008DF80A001121D2
:100B4000684604F049FB002514E0002405E0FF217D
:100B5000A01C0DF80010601CC4B20E2CF7DB112194
:100B6000684604F039FB00BF8C4800880028FBDC95
:100B7000681C85B2062DE8DB08B070BD30B589B0C1
:100B8000C6208DF8040019208DF8050055208DF839
:100B90001F000025F2E0EDB98148008800128DF8B1
:100BA00006007F48008800128DF80700002408E046
:100BB0007C480088C0F30721201D01AA1154601C45
:100BC000C4B2162CF4DB784800880112201D01AA5B
:100BD0001154C8E0012D19D1714800788DF8060034
:100BE0006F4800788DF80700002406E06D48017812
:100BF000201D01AA1154601CC4B2162CF6DB6A48F1
:100C000000880112201D01AA1154ACE0644800883C
:100C1000801C854211DA00240CE040F2A9106043E8
:100C2000624901EB4001A81E095CA01C01AA1154F5
:100C3000601CC4B2022CF0DB09E0002405E00021B6
:100C4000A01C01AA1154601CC4B2022CF7DB564848
:100C50000088801C854205DAA81E5549085C8DF87D
:100C60001E0002E000208DF81E00B5F5167F22DC84
:100C70004C480068801C854212D200240DE0C4EB71
:100C80004410C0EB04204B4901EB8001A81E095C15
:100C9000201D01AA1154601CC4B2162CEFDB62E0C7
:100CA000002405E00021201D01AA1154601CC4B2DB
:100CB000162CF7DB57E040F25920854213D100246F
:100CC0000EE00C2C06DA324800880112201D01AA21
:100CD000115403E00021201D01AA1154601CC4B26C
:100CE000162CEEDB3FE040F25A20854212D1002460
:100CF0000DE00C2C05DA26480178201D01AA1154BC
:100D000003E00021201D01AA1154601CC4B2162C5E
:100D1000EFDB28E000241AE0A5F516701C490988CD
:100D2000891C88420DDAC4EB041000EB80001A49DC
:100D300001EB8001A5F25A20095C201D01AA115483
:100D400003E00021201D01AA1154601CC4B20C2C28
:100D5000E2DB0C2405E00021201D01AA1154601CD7
:100D6000C4B2162CF7DB1C2101A804F035FA00BF31
:100D70000A4800880028FBDC681C85B2B5F5617F55
:100D8000FFF609AF00252AE000241BE09A000020AE
:100D90009C0000203C360020E99D0020040000203B
:100DA000960000208800002094000020C1930020BD
:100DB000659A002054460020FF21A01C01AA11546E
:100DC000601CC4B2192CF7DB1C2101A804F004FA42
:100DD00000BFFE4800880028FBDC681C85B2062D99
:100DE000D2DB09B030BD00B585B030208DF80000F1
:100DF00004208DF80100F64800788DF80200F448D0
:100E000040788DF80300F24880788DF80400F048AF
:100E1000C0788DF8050055208DF80600072168463A
:100E200004F0DAF905B000BD10B54021E94806F03C
:100E300036F808B9202010BD8021E64806F02FF8CA
:100E400008B92120F7E74FF48071E24806F027F84F
:100E500008B92220EFE7FF20EDE730B50346302543
:100E6000541E0D5500248C5410460EE00A24B3FB8A
:100E7000F4F504FB15343034451E4C55441EE0B2E5
:100E800000B904E00A24B3FBF4F3002BEED100BF59
:100E9000904201D1441EE0B203E02025441E0D55CE
:100EA000E0B20028F9DC30BD70B5102004F010FE6F
:100EB000002004F010FE4FF6FF7004F00FFE002437
:100EC00026E0C54931F814000422C449FFF7C5FFE4
:100ED00004EB8400800000F126023B21BF4804F0AF
:100EE00000FEBD4830F81400BD49095D00FB01F566
:100EF0000522BA492846FFF7B0FF04EB84008000C2
:100F000000F126026521B54804F0EBFD601CC4B277
:100F1000072CD6DB0422B149B2480068FFF79DFFD9
:100F200004EB8400800000F126023B21AB4804F072
:100F3000D8FD0522A949AC480068FFF78EFF04EBF5
:100F40008400800000F126026521A44804F0C9FD58
:100F500070BD30B503463025541E0D5500248C5409
:100F600010460FE00A2493FBF4F504FB15343034EB
:100F7000E5B2441E0D55E0B200B905E00A2493FB2A
:100F8000F4F4A3B2002BEDDC00BF904201D1441E6B
:100F9000E0B203E02025441E0D55E0B20028F9DC44
:100FA00030BD10B5182004F093FD002004F093FD2F
:100FB0004FF6FF7004F092FD052288498B480088A7
:100FC000FFF7C7FF2420854908703C22F42183489D
:100FD00004F087FD10BD10B5182004F079FD002045
:100FE00004F079FD4FF6FF7004F078FD07227B498D
:100FF0007D480068FFF731FF8C22DC21774804F040
:1010000070FD10BD10B5182004F062FD002004F042
:1010100062FD4FF6FF7004F061FD04226F497148D4
:101020000068FFF71AFF64224FF480716B4804F0E8
:1010300058FD10BD10B56E48007850B96D48007865
:1010400038B9FFF7DFFFFFF7C6FFFFF7AAFFFFF78B
:101050002BFF10BD2DE9F04F87B00746884692461A
:101060003E46707830383178303901EB810100EB41
:101070004100C0B20690069828B900208AF8000006
:1010800007B0BDE8F08F0698804501DB4FF00008FF
:101090000024A346A14602252BE0705D7C281FD1C9
:1010A000BBF1000F07D100244FF0010B142101A860
:1010B00007F0DCFD1BE0C84506D1621C01A95046C3
:1010C00007F065FD0120DBE709F1010000F0FF09F1
:1010D00000244FF0010B142101A807F0C7FD06E022
:1010E000112C04DA705D01A90855601CC4B2681C9B
:1010F00085B2304607F02CFDA842CEDCBBF1010FD3
:1011000008D1C84506D1621C01A9504607F03FFD31
:101110000120B5E700BFB3E738B547F6FF7004F02C
:10112000DDFC47F6FF701C233222022100900420D0
:1011300004F061FD002004F0CEFC182004F0C8FC8F
:10114000264A01212C480068FFF784FF0446042248
:101150000B21224804F0C5FC38BD38B504460D46C5
:1011600025B1012D0BD0022D1BD111E020234FF40E
:10117000A07200210846009404F03DFD12E0B02367
:101180004FF4A07220210020009404F034FD09E007
:1011900020234FF4A072D0210020009404F02BFDF6
:1011A00000E000BF00BF38BD3EB5002147F6FF702C
:1011B000FFF7D3FF01214FF6FF70FFF7CEFF0221AB
:1011C00047F6FF70FFF7C9FF18E000000400002099
:1011D000461400200010014040460020DC4500205D
:1011E00076A30108C8000020CC000020D000002019
:1011F0001E000020C400002080A3010844F2080063
:1012000002234FF4A07220210090002004F0F3FC90
:1012100044F2080002234FF4A072CE210090002077
:1012200004F0E9FC002008210322A823CDE90021D5
:1012300002907E222421102004F0B1FC102004F042
:1012400047FC002004F047FC4FF6FF7004F046FC1A
:10125000002410E0FE49085D0422FE49FFF7FDFD71
:1012600004EB8400800000F126021121F94804F00B
:1012700038FC601CC4B2072CECDB04EB840080005B
:1012800000F126021121F4A004F02BFC182004F038
:101290001FFC002004F01FFC4FF6FF7004F01EFC42
:1012A0008C22A021EEA004F01CFC6422A021EEA060
:1012B00004F017FC3C22A021EDA004F012FC3EBD7E
:1012C00010B5FFF771FFFFF727FFFFF7B3FE10BD63
:1012D00010B50020E8490860E8490880E84908603E
:1012E0001821E84807F0A0FC10BDE74908707047D6
:1012F00010B50446E5480078012809D1222C05D113
:101300000020E2490870FFF7DBFF00E000BF17E0B4
:10131000DE480078A0B9222C02D0422C0FD100E088
:1013200000BF0020FFF7E1FF0120D949087000202D
:10133000D8490880FFF7CCFFFFF7C2FF00BF00BF0E
:1013400010BD10B50020FFF7DFF800280BDD0020EE
:10135000FFF76DF80446CC48007818B92046FFF72F
:10136000C7FF00BF00BF10BD7CB506460C46CA488B
:10137000007800B17CBD304607F0EAFB85B2294613
:10138000304603F029FF002C09DD0D208DF8000008
:101390000A208DF801000221684603F01DFF00BFFE
:1013A000E8E730B504460D46032229462046FFF7FC
:1013B000D0FD30BDB94908701421B94A1170704789
:1013C00010B50246C31700EB13731B11B54CE35C59
:1013D0000B70C31700EB13731B11A0EB0313E35C3B
:1013E0004B7000228A7010BD70B5002499482044CB
:1013F000ADA10A68026009790171641D002510E041
:10140000AB48465D934801193046FFF7D9FFA01C51
:10141000C4B220222046611CCCB28E490A54681CFA
:10142000C5B2162DECDB00222046611CCCB28949E6
:101430000A5401218748FFF797FF0024854820447C
:101440009CA10A68026089888180A41D9B48067857
:10145000804801193046FFF7A4FFE41C20222146F2
:10146000641C7C48425400222146641C42540021E2
:10147000FFF77AFF00247748204491A10A680260B0
:1014800089888180A41D8D484678724801193046AC
:10149000FFF787FFE41C20222146641C6D4842545C
:1014A00000222146641C42540021FFF75DFF002406
:1014B0006848204484A10A68026089888180A41D4C
:1014C00083480678634801193046FFF76AFFE41C39
:1014D00020222146641C5F4842547D4846785D487E
:1014E00001193046FFF75DFFE41C20222146641CF1
:1014F0005848425476488678564801193046FFF7D6
:1015000050FFE01CC4B220222046611CCCB25149DD
:101510000A5400222046611CCCB24E490A540021D4
:101520004C48FFF721FF00244A48204469A10A687B
:10153000026089888180A41D6548C67845480119E4
:101540003046FFF72EFFE41C20222146641C414850
:1015500042545F4806793F4801193046FFF721FFA2
:10156000E41C20222146641C3A48425458484679DB
:10157000384801193046FFF714FFE01CC4B220229E
:101580002046611CCCB233490A5400222046611C1B
:10159000CCB230490A5400212E48FFF7E5FE002462
:1015A0002C4820444DA10A68026089888180A41DCE
:1015B00047488679274801193046FFF7F2FEE41CB8
:1015C00020222146641C234842544148C6792148C0
:1015D00001193046FFF7E5FEE41C20222146641C79
:1015E0001C4842543A48067A1A4801193046FFF717
:1015F000D8FEE01CC4B220222046611CCCB21549A2
:101600000A5400222046611CCCB212490A5400211F
:101610001048FFF7A9FE00240E48204431A10A68B3
:10162000026089888180A41D2948467A09480119E9
:101630003046FFF7B6FEE01CC4B220222046611CF3
:10164000CCB204490A542248867A084601194DE072
:1016500076A30108DC4500202053554D20000000F2
:101660002053554D3A000000205043533A000000EB
:1016700044454E4F3A000000C8000020D000002032
:10168000CC000020404600201E000020C4000020A6
:101690006B000020AA000020460000207E000020F1
:1016A0007F0000208CA30108B2E2B3A43A0000003E
:1016B00046140020B4C5D0D4313A000028000020E0
:1016C000B4C5D0D4323A0000D1D5C9AB313A2000EC
:1016D0005B140020D1D5C9AB323A2000D1D5C9ABBB
:1016E000333A2000D1D5C9AB343A20003046FFF759
:1016F00058FEE01CC4B220222046611CCCB2F34943
:101700000A54F348C67A084601193046FFF749FEE5
:10171000E01CC4B220222046611CCCB2EB490A5422
:1017200000222046611CCCB2E8490A540121E74856
:10173000FFF71AFE0024E5482044E6A10A6802608B
:101740004A684260098901810A34E5480678DF4821
:1017500001193046FFF725FEE41C20222146641CB7
:10176000DA48425400222146641C42540021FFF70B
:10177000FBFD0024D5482044DAA10A6802600979FB
:101780000171641DD9480678D04801193046FFF729
:1017900008FEE41C20222146641CCC48425400224E
:1017A0002146641C42540021FFF7DEFD0024C74897
:1017B0002044CFA10A68026009790171641DCE48F6
:1017C0000678C24801193046FFF7EBFDE41C2022E1
:1017D0002146641CBD48425400222146641C4254E8
:1017E0000121FFF7C1FD0024B8482044C3A10A88A5
:1017F000028089788170E41CC1480678B3480119D9
:101800003046FFF7CEFDE41C20222146641CAF4881
:10181000425400222146641C42540121FFF7A4FDDA
:101820000024AA482044B7A10A88028089788170E0
:10183000E41CA64A1119B44A1078FFF7B2FDE41C63
:1018400020222146641CA148425400222146641CE7
:1018500042540021FFF788FD00249C4A1119AA4A2E
:101860005078FFF79EFDE41C20222146641C974817
:10187000425400222146641C42540121FFF774FDAA
:10188000002492482044A1A109680160241D402140
:10189000A04805F004FB06468C4801193046FFF7C6
:1018A00080FDE41C20222146641C8848425400220A
:1018B0002146641C42540021FFF756FD80219548C3
:1018C00005F0EDFA0646814801193046FFF769FD3B
:1018D000E41C20222046611CCCB27C490A54002220
:1018E0002046611CCCB279490A5400217748FFF7A1
:1018F0003BFD4FF48071874805F0D1FA06467348E6
:1019000001193046FFF74DFDE01CC4B220222046ED
:10191000611CCCB26D490A5400222046611CCCB235
:101920006A490A5401216948FFF71EFD01217A48DE
:10193000FFF71AFD70BD70B578480078012805D111
:10194000FEF722FF18B900207449087019E2FEF76B
:1019500038FF0546724800780028F7D1A52D79D0C8
:101960001ADC682D40D00EDC622D27D006DC422D1B
:1019700020D0482D37D0612D6DD123E0652D24D0A6
:10198000672DF9D131E0A5F1A000052863D2DFE889
:1019900000F02F32636C7500A5F1A6000F28F5D278
:1019A000DFE800F0797E8790FAFEF7F6595959F58D
:1019B000F4F3F20000205B490870E1E1012059498D
:1019C0000870DDE1FFF7DAF8DAE100205649087027
:1019D0005649088056490880564908604FF47A7085
:1019E00055490880CCE1CBE1CAE1FEF7CFFFC7E162
:1019F000FFF7FAFCC4E151480078D8B90320FFF79B
:101A000074FC03F028F94FF400714D4805F061FAB9
:101A100001203349087020214A4805F05AFA012074
:101A200049490870002049490870012148A0FFF782
:101A30009BFC0EE00020FFF758FC01204349087092
:101A4000002048490870FFF73BFC012146A0FFF742
:101A50008BFC95E11AE092E14FF40071384805F0F3
:101A600038FA01201E4908708AE14FF400713448A9
:101A700005F031FA00201A49087081E10120FFF7D2
:101A800099FC01213CA0FFF76FFC79E140212D4832
:101A900005F01FFA74E140212A4805F01CFA6FE1B5
:101AA0003748007810B103F0D6F801E003F04CF9A4
:101AB00066E13348007810B103F0CDF801E003F09F
:101AC0004FF95DE101202F49087059E1DC45002004
:101AD0005B140020BAECCDE2B7A2C9E4203A0000C2
:101AE00020000020C2EBC5CC3A0000005C000020C2
:101AF000BDF8B3AE3A0000002B00002055563A0066
:101B00002A00002050533A002C0000204B45593A3F
:101B1000000000000010014060CD030830010020EB
:101B200046000020820000206A000020960000206D
:101B30009400002088000020680000201E00002083
:101B4000000C014000080140220000206B00002032
:101B500053454E534F525F564945575F5354415476
:101B600045000000C40000204E4F524D414C5F53D1
:101B7000544154450000000062656570000000009B
:101B800008010020B0000020DDE0C0E0ABE095E0FF
:101B90006DE058E004E0FFE70020FE490870EFE048
:101BA0004FF40071FC4805F094F90120FB490870DE
:101BB0000020FFF79AFB0120F94908706420FEF726
:101BC00072FB1522F749F84806F0E1FF0121F7A062
:101BD000FFF7CAFB00240EE02020F7490870F24905
:101BE000085DF549491CFFF7DCFB0021F248FFF7CF
:101BF000BBFB601CC4B2152CEEDB0121AFF2A4507C
:101C0000FFF7B2FB1522E849EC4806F0C0FF0220BE
:101C1000EB4908700020EB4908705421EA4807F0AE
:101C200025F81521E94806F0FFFF2A21E84806F0CB
:101C3000FBFFFF222A21E74806F0EEFF0121E6A084
:101C4000FFF792FB9CE0EC480078012807D10020C8
:101C5000E94908700121E9A0FFF786FB06E00120B1
:101C6000E54908700121EAA0FFF77EFB88E0ED4816
:101C70000078012807D10020EA4908700121EAA074
:101C8000FFF772FB19E00120E64908700121E9A085
:101C9000FFF76AFB4FF47A70FEF705FB4FF48051B3
:101CA000BD4805F018F94FF40051BB4805F013F991
:101CB0004FF48041B84805F00EF961E00020D949A1
:101CC0000870FFF712FB0120B54908706420FEF789
:101CD000EAFA0120BA490870D94908700121D9A04F
:101CE000FFF742FB4CE0D6480078012807D10020DE
:101CF000D34908700121D9A0FFF736FB06E0012087
:101D0000CF4908700121DAA0FFF72EFB38E0DD484B
:101D1000007801280BD110219F4805F0DCF8002045
:101D2000D84908700121D8A0FFF71EFB0AE0102156
:101D3000994805F0CEF80120D24908700121D5A0BC
:101D4000FFF712FB1CE0D648007801280BD12021B8
:101D5000D44805F0C0F80020D14908700121D2A074
:101D6000FFF702FB0AE02021CE4805F0B2F801207F
:101D7000CB4908700121D0A0FFF7F6FA00E000BFC0
:101D800000BF70BDD0480068401CCF490860CF48F4
:101D9000CF490978405CCF490880CF48006809885E
:101DA0000844CD490860CD48C949097830F8110088
:101DB000401CCA49C64A127821F812007047C84828
:101DC0000078132833D2DFE800F00A0B0C10111250
:101DD0001617181C1D1E22232428292A2E0000BF96
:101DE00000BF0020BA49087025E000BF00BF0120F5
:101DF000B74908701FE000BF00BF0220B449087057
:101E000019E000BF00BF0320B149087013E000BF14
:101E100000BF0420AE4908700DE000BF00BF0520E0
:101E2000AB49087007E00620A949087003E00720C5
:101E3000A749087000BF00BF70472DE9FE4F4FF063
:101E400078094FF0320A002447E05749183131F839
:101E5000140008F07FF88346A24907F04DFF0546BD
:101E60005149443131F8140008F074F883469D4913
:101E700007F042FF07463946284607F0FFFF15D016
:101E80003946284608F050F90290504608F062F8AA
:101E90000190484608F05EF80090019908F044F976
:101EA0008346029907F028FF804601E04FF00008C2
:101EB0002946404608F062F88346484608F04AF84A
:101EC0005946029008F030F90646874840F82480C9
:101ED000864941F82460601CC4B2152CB5DBBDE80E
:101EE000FE8F70B5002500241EE0202032490870C6
:101EF000C4F11401354A505C05222F49491CFFF7F3
:101F000028F800212C48FFF72FFA012C01DB132CB5
:101F100002DD681CC5B205E02C48005D052801DB28
:101F2000681CC5B2601CC4B2152CDEDB0121AFF603
:101F3000D400FFF719FA002412E020201E4908708F
:101F4000C4F114016A4A32F8110005221A49491CE9
:101F5000FEF7FFFF00211848FFF706FA601CC4B225
:101F6000152CEADB0121AFF60C10FFF7FDF9002478
:101F7000C4E0202010490870C4F11401124A32F85C
:101F8000211088B205220C49491CFEF7E2FF00210E
:101F90000948AFE0B0000020000C01402000002004
:101FA0006B00002046140020C8120020BFD5D4D8F2
:101FB000BAECCDE2D6B50000DC450020AC930020A1
:101FC0001A0100201B010020FCAB002050AC0020B7
:101FD00090AC0020BAAC0020BFAACABCBAF1B0D7FE
:101FE000D6BDD0A3D5FD2CB7C5C8EB383067BAF144
:101FF000B0D7D6BD0000000083000020B2E2B3A439
:10200000CAE4B3F6D0A3D5FDCAFDBEDD00000000D2
:10201000B2E2B3A4CAE4B3F6D4ADCABCCAFDBEDD15
:102020000000000025000020D1D5C9ABB5C6B4F230
:10203000BFAA0000D1D5C9ABB5C6B9D8B1D500008B
:1020400084000020BFAACABCD1D5C9ABD0A3D5FD9E
:102050002CB7C5C8EB4134D6BD000000D1D5C9AB03
:10206000CAE4B3F6D0A3D5FDCAFDBEDD0000000072
:10207000D1D5C9ABCAE4B3F6D4ADCABCCAFDBEDD86
:1020800000000000210000205556B5C6B9D8B1D5D2
:10209000000000005556B5C6B4F2BFAA000000000B
:1020A0002200002000080140BDF8B3AEBAECCDE23A
:1020B000B9D8B1D500000000BDF8B3AEBAECCDE29E
:1020C000B4F2BFAA00000000C800002076A30108F7
:1020D00019010020D0000020CC0000204046002044
:1020E00033010020000020413035002084350020DD
:1020F00066AC0020FFF738F9601CC4B2152CFFF65F
:1021000038AF0121AFF6AC20FFF72EF9002412E022
:102110002020FC490870C4F11401FB4A32F8110078
:102120000522F849491CFEF714FF0021F548FFF786
:102130001BF9601CC4B2152CEADB0121AFF6E420C8
:10214000FFF712F9002412E02020EE490870C4F1D4
:102150001401EE4A32F811000522EA49491CFEF743
:10216000F8FE0021E748FFF7FFF8601CC4B2152C09
:10217000EADB0121AFF61C30FFF7F6F80121AFF6DC
:102180002430FFF7F1F8152D76D1E14800780228C8
:1021900078D10121AFF63C30FFF7E6F800242FE0BC
:1021A000DC48005D022824DDDA48005D801ED94944
:1021B0000855D94850F82400D34931F81410401A72
:1021C000D54941F82400084650F82400CF4931F899
:1021D0001410401AD04941F82400084650F8240051
:1021E000CC49095DB0FBF1F081B2CC4820F8141065
:1021F00004E04FF4FA71C94820F81410601CC4B20E
:10220000152CCDDB002412E02020BE490870C4F15B
:102210001402C24931F812000522BA49491CFEF7DE
:1022200098FE0021B748FFF79FF8601CC4B2152C38
:10223000EADB0121AFF6DC30FFF796F80121AFF6BB
:10224000E430FFF791F80320B14908700020B44949
:1022500008705421B04806F009FD1521AD4806F07C
:10226000E3FC2A21A84806F0DFFCFF222A21A74828
:1022700006F0D2FC012101E070E003E0A9A0FFF725
:1022800073F86BE0A2480078032867D10121AFF60C
:102290003440FFF769F8002431E09E48005D0228D1
:1022A00025DD9C48005D801E9A4908559A4850F8E3
:1022B0002400954931F81410401A974941F8240038
:1022C000084650F82400914931F81410401A9249F8
:1022D00041F82400084650F824008E49095DB0FBFF
:1022E000F1F081B28D482C3820F8141005E04FF43D
:1022F00096618A482C3820F81410601CC4B2152C42
:10230000CBDB002413E020207E490870C4F11402C6
:1023100082492C3931F8120005227A49491CFEF70E
:1023200018FE00217748FFF71FF8601CC4B2152C77
:10233000E9DB0121AFF6DC40FFF716F80121AFF62B
:10234000E440FFF711F800207149087001217DA0D9
:10235000FFF70AF8FEF7B2FAFFF76FFD70BD70B530
:102360008CB07B4800887B490880002404E0002072
:102370004DF82400601CC4B20C2CF8DB0026142598
:1023800016E0701CC6B200240EE05DF82400C4EB19
:10239000041101EB8101704A02EB8101495D08449F
:1023A0004DF82400601CC4B20C2CEEDB681CC5B2D6
:1023B000684800881438A842E3DC00241EE0002EA0
:1023C00008DD5DF82400B0FBF6F0C1B253482D30B3
:1023D000015503E0002151482D3001552020494985
:1023E00008704E492D31085D4649491CFEF7D9FF5A
:1023F00000214448FEF7B8FF601CC4B20C2CDEDBA1
:1024000000204349087001214EA0FEF7ADFFFEF702
:1024100055FA0CB070BD10B55048007801286ED147
:1024200000204E4908704E4800780028F7D102F08D
:1024300012FC37480078012802D1FFF790FF4BE0EB
:1024400033480078012804DD02F0B6FCFFF749FDAF
:1024500042E0444803F08DF9102003F039FB0322D9
:10246000284941480078FEF7F8FCBE22DC212548C7
:1024700003F037FB032223493C480078FEF7EDFCCC
:10248000BE22FA211F4803F02CFBFFF798FC3848C6
:102490000078072807DAFFF775FC0120FEF78AFFAE
:1024A000FEF7C8FD12E00320FEF784FF182003F0BA
:1024B0000FFB4FF4784003F00EFB4FF6FF7003F074
:1024C0000DFB3C22F4212BA003F00BFB2B480078E2
:1024D000012801D1FEF752FB2948008820F00400B2
:1024E000274908802748007850B90846008840F0FE
:1024F0000800088002F028FC96202349087050E06C
:1025000044E00000DC45002090AC0020BAAC002084
:102510001A01002050AC0020FCAB00200C1300205E
:102520001B010020BFAACABCB1A1B0D7D6BDD0A3A1
:10253000D5FD2CB7C5C8EB343067B1A1B0D7D6BD37
:1025400000000000D0A3D5FDCDEAB3C90000000013
:102550009C00002016010020E99D00204C00002076
:102560001E0000202F150020330100203401002020
:102570001901002020535553500000008200002014
:10258000AA000020B0000020AE000020FA48008819
:1025900040F04000F849088002F0E2FB7820F7495B
:1025A000087010BD10B50446082C75D2DFE804F0A1
:1025B0000412202E3C4A58664FF48051F04804F033
:1025C0008AFC0421EF4804F086FC0821EE4804F060
:1025D00082FC61E04FF48051E94804F07CFC042166
:1025E000E84804F078FC0821E74804F072FC53E066
:1025F0004FF48051E24804F06EFC0421E14804F0FD
:1026000068FC0821E04804F066FC45E04FF4805186
:10261000DB4804F060FC0421DA4804F05AFC08218D
:10262000D94804F056FC37E04FF48051D44804F008
:1026300050FC0421D34804F04EFC0821D24804F099
:102640004AFC29E04FF48051CD4804F042FC0421BB
:10265000CC4804F040FC0821CB4804F03AFC1BE0D5
:102660004FF48051C64804F034FC0421C54804F0FE
:1026700030FC0821C44804F02EFC0DE04FF48051DA
:10268000BF4804F026FC0421BE4804F022FC0821C7
:10269000BD4804F01EFC00BF00BF10BD10B50121F5
:1026A000BA4803F0DEFC10BD10B5FFF7F7FF00BF1E
:1026B000022003F053FF0028FAD0022003F062FF4B
:1026C00010BD70B500220221B14803F038FF03208D
:1026D000FDF7E9FD0020AF49087008460078FFF7D4
:1026E00061FF002502E1FFF7DFFF002412E0AA48A6
:1026F00050F82400C0F30720A84901F81400A648A8
:1027000050F82400000E012101EB4401A34A50546B
:10271000601CC4B2052CEADBA048407AA0490870CE
:102720009E48C0789F4908709C48407848709B48F4
:1027300000789D490870994800799C49087097482D
:10274000007A48709348007807280FD2DFE800F03D
:10275000040F1A3E6286AA00904840799449087096
:102760008E488079C8718D48C0798873A5E08B4800
:1027700040798F4948708948807908728748C079C4
:10278000C8739AE085484079894988708348807980
:1027900048728248C07908748648007820B97F481A
:1027A00080788549087010E082480078012804D1BB
:1027B0007A4880788049487007E07E48007802288F
:1027C00003D1764880787C49887076E073484079F8
:1027D0007749C8707148807988727048C0794874A8
:1027E0007448007820B96D4880787349C87010E04B
:1027F00070480078012804D1684881786E480171DA
:1028000007E06C480078022803D1644881786A4860
:10281000417152E061484079654908715F488079AB
:10282000C8725E48C07988746248007820B95B48F5
:1028300080786149887110E05E480078012804D1F1
:10284000564881785C48C17107E05A4800780228F0
:1028500003D152488178584801722EE04F484079A0
:10286000534948714D48807908734C48C079C87401
:102870005048007820B9494880784F49487210E0A4
:102880004C480078012804D1444881784A48817234
:1028900007E048480078022803D14048817846483C
:1028A000C1720AE03D484079414988713B488079CE
:1028B00048733A48C079087500BF00BF35480078B2
:1028C000401C3449087008460078072190FBF1F25B
:1028D00001FB12002F49087008460078FFF762FEDE
:1028E0004FF4FA70FDF7E9FC681CC5B2072DFFF63E
:1028F000FAAE01220221264803F021FE70BD10B578
:1029000000242E480078012877D100202B49087038
:102910002B48007820B1032803D005286CD16AE049
:102920006AE024480078022811D1C102164804F058
:10293000D0FA00201F4908704FF40051124804F0EB
:10294000CAFA4FF48041104804F0C5FA4DE0194826
:102950000078B8BB4FF480510B4804F0BCFA4FF438
:102960000051094804F0B5FA0120124908708103AA
:10297000054804F0B0FA38E0AA000020AF000020BB
:102980000010014000140140000C014000240140EF
:102990000800024024000020281400203C140020DD
:1029A0002B0000202C0000202A00002028000020FE
:1029B00046140020230000205B1400207300002038
:1029C0001E000020FFE74FF48051FE4804F083FA18
:1029D0004FF40051FB4804F07EFA4FF48041F9486F
:1029E00004F077FA0220F8490870FFF76AFEFEF754
:1029F000FBFC01E001E000BF00BF10BD10B5F348D3
:102A00000078012830D10020F0490870FEF70CFA58
:102A1000EF490870EF4800784006000EED49087055
:102A2000EB480078FF2803D008460078401C087067
:102A3000E9480078002849D1E5480078FF2814D1FA
:102A4000E648007850B9E648007838B1E4480178A3
:102A50000020FDF7BCFC0120FEF7ACFC1420E1498E
:102A600008700220DD4908705EE0DC48007800282C
:102A70000BDDDA480078401ED84908700846007817
:102A800018B9D3480078D6490870D648007800288D
:102A90004ADDD4480078401ED249087008460078C4
:102AA000002841D1D04908700120CB490870C8489E
:102AB0000078CE490870084600782030C1B2002066
:102AC000FDF785FC0120FEF775FC2DE0C04800787D
:102AD000C6490978884216D1C3480078002823DD0A
:102AE000C1480078401EC049087008460078D8B92F
:102AF000BE4800782030C1B20020FDF768FC0120FC
:102B0000FEF758FC10E00020B3490870FF20B749D9
:102B10000870B34908700220B04908701420B14908
:102B200008700020B049087010BD10B5B04800789A
:102B3000002878D1AF480078012819D1AE48008824
:102B400010BBAE480078F8B902F0FEF8AA48008839
:102B500040F00100A8490880F420A949087001202C
:102B6000A8490870A84908700020A84908800BE00F
:102B7000A148007800F02000002805DD9E4800886C
:102B800020F020009C490880A148007801280DD140
:102B90009C480078012816D100209A49087002202C
:102BA0009C49087001209C4908700CE09A48007804
:102BB000012808D100209349087005209749087022
:102BC00000209549087096480078012810D18A485D
:102BD000007800F00200002825DD8B4800780128ED
:102BE00021D100208849087001208E4908701AE020
:102BF0008148007800F00200002814DD8948007840
:102C0000012810D1002087490870012086490870EA
:102C10007948008840F00400774908800846008819
:102C200020F00200088010BD10B54FF40071654817
:102C300004F04FF901207D49087002F085F8642006
:102C4000FDF731FB00207A4908807A4908604FF48B
:102C50007A70FDF728FB02F083F84FF47A70FDF7E5
:102C600022FB01F0F8FF4FF40071564804F033F9ED
:102C700000206E49087010BD704710B56E4803F013
:102C800085FB6E486E4908606E4848600020886089
:102C90000520C860002008618020486180008861AC
:102CA0008000C8612020086200024862002088621B
:102CB000614803F00DFC10BD00B587B0012148024A
:102CC00004F0C3FB0121880204F0BFFB0121084688
:102CD00004F0AEFB1720ADF8000000208DF80300D3
:102CE0006946594804F048F83F20ADF8000000203C
:102CF0008DF803006946554804F03EF8FFF7BDFF24
:102D0000012202214C4803F01AFC0B208DF8180018
:102D100001208DF819008DF81A008DF81B0006A807
:102D200003F0A3F845484C3803F008F94FF4C020ED
:102D3000019001208DF8080000208DF809004FF463
:102D4000602003904FF40060049005208DF814007B
:102D500001A93A484C3803F018F901231A4600211A
:102D600036484C3803F0A9F90123022204213348E4
:102D70004C3803F0A2F9012303220A212F484C38D2
:102D800003F09BF9012304220C212C484C3803F05A
:102D900094F9012305220E2128484C3803F08DF9BF
:102DA0002B4803F0CBF84FF4C020019001208DF8A0
:102DB000080000208DF809004FF4602003904FF4C4
:102DC000006047E0000C014023000020BE0000200E
:102DD000C1000020C3000020BD000020B80000207A
:102DE000BB000020B9000020BA000020BC00002079
:102DF0001E0000203C000020AA0000200801002046
:102E0000AC000020410000208E0000209A0000202D
:102E10003E0000204300002042000020440000202B
:102E2000400000208F0000204C00002020000020E7
:102E30009600002088000020080002404C24014039
:102E4000FC1300202814002000080140001001405D
:102E500000280140049005208DF8140001A9F948CC
:102E600003F093F801231A461946F64803F025F9B2
:102E7000012302221146F34803F01FF90123032224
:102E80000B21F04803F019F9012304220D21ED482C
:102E900003F013F9012305220F21EA4803F00DF98D
:102EA0000121E84803F065F90121E74803F099F8AA
:102EB000E54803F0B8F800BFE34803F0B9F800288C
:102EC000FAD1E14803F0BEF800BFDF4803F0BFF8D5
:102ED0000028FAD10121DB4803F083F8D94803F038
:102EE000A2F800BFD74803F0A3F80028FAD1D548CC
:102EF00003F0A8F800BFD34803F0A9F80028FAD1DE
:102F00000121D14803F078F80121D04803F00BFBF0
:102F1000022003F037FB07B000BD1FB501210846B2
:102F200004F0A0FAB320ADF8000040F2CF70ADF885
:102F300004000020ADF80600ADF8020069464FF02D
:102F4000804004F0BBFB01221146900704F02DFFE6
:102F50001C208DF80C0000208DF80D0001208DF84C
:102F60000E008DF80F0003A802F07FFF01218807F3
:102F700004F000FF1FBD08B501208DF802004002DB
:102F8000ADF8000010208DF803006946B04803F04A
:102F9000F3FE1020ADF800008DF803006946AC4840
:102FA00003F0EAFE1021AA4803F095FF0020A9498A
:102FB00008702020ADF8000010208DF8030069464D
:102FC000A54803F0D9FE2021A34803F084FF002088
:102FD000A24908704020ADF8000010208DF80300D1
:102FE00069469D4803F0C8FE4FF48050ADF80000DC
:102FF00010208DF803006946954803F0BDFE4FF49C
:103000008051934803F067FF4FF40050ADF8000083
:1030100010208DF8030069468D4803F0ADFE4FF493
:1030200000518B4803F057FF4FF48040ADF800008B
:1030300010208DF803006946854803F09DFE4FF48B
:103040008041834803F047FF0121854803F065FF75
:103050000820ADF8000010208DF8030069467C4878
:1030600003F08AFE0420ADF8000010208DF8030064
:1030700069467C4803F080FE4FF48050ADF80000B4
:1030800010208DF803006946774803F075FE002094
:10309000FFF788FA4020ADF8000048208DF80300C3
:1030A0006946714803F068FE8020ADF800004820B2
:1030B0008DF8030069466C4803F05EFE4FF48070A3
:1030C000ADF8000048208DF803006946664803F01B
:1030D00053FE4FF48070ADF8000004208DF803001B
:1030E00069465B4803F048FE08BDC8205F4981F887
:1030F000E00000215D4880F8E11080F8E91080F8D8
:10310000EF1080F8EA10012180F8E210002180F829
:10311000E310012180F8E410002180F8E51080F828
:10312000E61080F8E710012180F8EB1080F8EC1031
:10313000322180F8ED10642180F8EE1070470320F2
:103140004A4981F8B0004621484880F8B110412131
:1031500080F8B2103C2180F8B310372180F8B41009
:103160000A2180F8B510962180F8B6100A2180F85F
:10317000B710962180F8B810642180F8B910372173
:1031800080F8BA10412180F8BB105A2180F8BC1099
:10319000732180F8BD103C2180F8BE10462180F8D4
:1031A000BF103C2180F8C010502180F8C1100C21C4
:1031B00080F8C210172180F8C3101D2180F8C410B8
:1031C0002E2180F8C510162180F8C610242180F821
:1031D000C710272180F8C810342180F8C9102B218E
:1031E00080F8CA103C2180F8CB10912180F8CC10D7
:1031F000822180F8CD10782180F8CE107047002011
:1032000006E01B49095C194A42F82010411CC8B26B
:103210000328F6DB704700B500230EE01548C15CBB
:103220001248103040F833101248C15C0F4810307B
:1032300000EBC3004160581CC3B2032BEEDBFFF769
:10324000DEFF00BD002801400024014008000240CC
:10325000000C014021000020000801402200002055
:1032600000023000001401400010014098120020BC
:1032700049A3010845A3010810B5FFF7CCFF0A20B8
:10328000F74981F8A0002A21F548483005F0CCFC28
:103290002A21F348743005F0C7FCFF221521F048BD
:1032A000303005F0B9FC10BD10B5FFF7E5FFFFF7B2
:1032B00046FFFFF71AFF10BD0EB505F0C4FA4FF434
:1032C0008031C80202F003FE4FF4806003F084FFF7
:1032D000002003F08AFF4FF4004003F0A1FF01211A
:1032E0003D2004F0B2F80121480204F0AEF80121BB
:1032F000880204F0AAF80121880304F0A6F801F07E
:1033000075FEFDF724F8FCF7A9FFFDF7C9FAFDF7F4
:10331000C8FAD348D0F86001D249884217D0D048C3
:10332000D0F8600100F07040B0F1004F05D0FFF719
:10333000BBFF0020FDF701FB03E0FFF700FFFFF7F5
:10334000D4FEC848C649C1F86001FDF7B7FAFFF7D7
:1033500012FEFFF7E2FD01F089FC0821012003F0D5
:1033600021FE4FF48070009000208DF804000C20A6
:103370008DF8050001208DF80600684603F03EF93F
:1033800017208DF8080003208DF8090000208DF823
:103390000A0001208DF80B0002A802F066FDFFF77D
:1033A0008BFC0EBD4FF47A70FCF77DFFFFF784FFB6
:1033B0000A20FCF778FF4FF6FF7002F079FB4FF41C
:1033C000784002F088FB4FF6FF7002F087FB182070
:1033D00002F07EFB6C227C21A3A002F082FB4FF462
:1033E000FA70FCF760FFFFF747FCFFF71DFC0020B9
:1033F0009F4908709F490870FEF71FFD15229849E4
:1034000030319D4805F0C3FB4FF400719B4803F039
:1034100060FD01209A4908700020FDF766FF012039
:1034200098490870002098490870FDF751FFFDF792
:1034300047FF0120FDF7BEFF73E0944800780128A4
:1034400002D100209149087091480078012806D1E6
:1034500000208F4908708F4800888F4908808F4866
:10346000007801280AD100208C4908704FF40071BF
:10347000824803F030FD00208149087088480078B8
:10348000012839D17B48007890BB8648007878BB0A
:1034900085480078401C84490870084600780A284E
:1034A00022DD4FF40071754803F013FD01207449CB
:1034B000087001F055FC4FF4FA70FCF7F4FE01F0CF
:1034C000CAFB0020FDF711FF01206E4908700020A3
:1034D00076490880FDF7FCFEFDF7F2FE0120FDF7BE
:1034E00069FF0020704908700A20FCF7DCFE03E049
:1034F000FFE700206C4908706D480078012804D16E
:1035000000206B49087001F0A6FBFFF70EFBFFF7E8
:1035100075FAFFF7F4F9FEF77EFFFEF70CFAFDF7F8
:1035200010FF8AE72DE9F04705460C465248005D3A
:103530000A38A84202DC2846BDE8F087284606F093
:1035400009FD82465B4951F82400514606F016FDFC
:103550000746594850F82410384606F05FFB0646E7
:10356000304606F02FFB07460022134606F0C4F84B
:1035700001D8002609E0304606F024FB0746002269
:103580004E4B06F0F3F900D24D4E304606F0AAFC41
:1035900000F0FF094846CFE730B503463025541EFA
:1035A0000D5500248C5410460FE00A2493FBF4F5CB
:1035B00004FB15343034E5B2441E0D55E0B200B9B9
:1035C00005E00A2493FBF4F4A3B2002BEDDC00BF6A
:1035D000904201D1441EE0B203E03025441E0D5557
:1035E000E0B20028F9DC30BD10B5024610460A28CA
:1035F00007DA30230B704B708B7000F13003CB7007
:1036000084E064280FDA30230B704B700A2390FBA0
:10361000F3F330338B700A2390FBF3F403FB1403B2
:103620003033CB7072E0B0F57A7F4BDA30230B7019
:10363000642390FBF3F330334B70642390FBF3F47B
:1036400003FB140398B20A2390FBF3F330338B701F
:103650000A2390FBF3F403FB14033033CB7055E0E3
:10366000981200205311068757454C434F4D450093
:10367000380000203C000020AC930020000C0140EA
:10368000200000206B000020C400002072000020F9
:103690006A0000209600002012010020780000201F
:1036A0001E0000203100002032000020AA0000206F
:1036B000B1000020303500208435002000E06F404C
:1036C00000007F434FF47A7390FBF3F330330B70B9
:1036D0004FF47A7390FBF3F403FB140398B2642362
:1036E00090FBF3F330334B70642390FBF3F403FB54
:1036F000140398B20A2390FBF3F330338B700A2340
:1037000090FBF3F403FB14033033CB7000230B71F5
:1037100010BD10B50024FE480119FE480078FFF7DF
:1037200063FF241D2020FA490855641CFA480078DC
:10373000072817D108462044F849F74A127851F86B
:1037400022100A6802604968416004F10800C4B2AE
:10375000EF4801190222F2480078FFF71DFFA01C74
:10376000C4B20FE0EA480119EC48EB4A127850F86D
:10377000220002680A6042684A608068886004F13A
:103780000C00C4B20020E2490855601CC4B20121FB
:10379000DF48FDF7E9FD10BD10B5FDF74BFC01203A
:1037A000FDF708FE01F0E8FA0C20FDF79EFD10BDC4
:1037B00010B50120FDF7FEFD01F0DEFA0E20FDF749
:1037C00094FD10BD10B5FFF71AFD01F044FA00207A
:1037D00001F01CFA01F0B8FA40F6B830FCF763FDCE
:1037E000D0480178D048D14A127840F8321001F020
:1037F00032FA01F0B5FA40F6B830FCF754FDCC4887
:103800000178C948C94A127800EBC200416001F052
:1038100022FA012001F0FAF901F096FA40F6B830E8
:10382000FCF741FDBF480178BF48C04A127840F814
:10383000321001F010FA01F093FA40F6B830FCF7BC
:1038400032FDBB480178B848B84A127800EBC20094
:10385000416001F000FA022001F0D8F901F074FA99
:1038600040F6B830FCF71FFDAE480178AE48AF4ACD
:10387000127840F8321001F0EEF901F071FA40F6DA
:10388000B830FCF710FDAA480178A748A74A12787B
:1038900000EBC200416001F0DEF9FDF70FF8A2492C
:1038A000103991F8E10001F0B1F910BD10B50446EE
:1038B000202097490870452048700222891C204624
:1038C000FFF76AFE10BD64281FDB0022CA700A22BF
:1038D00090FBF2F302FB130230328A700A2290FB53
:1038E000F2F2D0B20A2290FBF2F302FB1302303262
:1038F0004A700A2290FBF2F2D0B20A2290FBF2F355
:1039000002FB130230320A701FE00A2814DB002287
:103910008A700A2290FBF2F302FB130230324A70E3
:103920000A2290FBF2F2D0B20A2290FBF2F302FBE1
:10393000130230320A7008E000224A700A2290FB1B
:10394000F2F302FB130230320A70704710B5794867
:10395000007809280FD06E4877A10988018077493F
:103960000978133188B202226949891CFDF7F1FAFE
:103970000120FDF7BAFC4FF40071714803F0A9FA79
:1039800001207049087001F066F90320FDF712FD6F
:1039900010BDF0B501460A2901DA4C20F0BD4C27D4
:1039A0006948008801FB01054C2301F14C042BE020
:1039B00004EB030C1FFA8CF000EBD07C4FEA6C0296
:1039C000FF2A06DDFF22FF24E01800EBD07CCCF3B9
:1039D0004F0202FB02F086B2A5F11400B04204D8F7
:1039E0002830864201D81046D8E7D81C844206DC2D
:1039F000E0181FFA80FC0CEBDC704010CEE7AE4202
:103A000001D2134600E01446D2E770B505460E46D3
:103A10004C246C433046FFF7BCFFB4FBF0F4A0B27B
:103A200070BD7FB505460021484804F0A3F9012187
:103A3000042003F017FD25B1012D05D0022D09D179
:103A400005E04FF4E17406E04FF4C87403E04FF46E
:103A5000B47400E000BF00BFB320ADF80000C72081
:103A6000ADF804000020ADF80600ADF8020069468C
:103A7000364803F023FE01221146344804F095F93C
:103A80001E208DF80C0000208DF80D0001208DF80F
:103A90000E008DF80F0003A802F0E7F901212B4872
:103AA00004F068F97FBD10B529480078401C28490A
:103AB0000870084600780521B0FBF1F201FB120006
:103AC0002349087023480978405C38B920212248EE
:103AD00003F001FA00202149087006E020211E4869
:103AE00003F0F7F901201D49087010BD10B5044618
:103AF00020681B490840B0F1005F3CD1606819495B
:103B00000860084600681849086020682EE0000038
:103B1000DC4500204D00002019010020D8000020C5
:103B2000180100200E010020A81200200901002029
:103B30000F0100201E00002020450000A0000020F2
:103B4000000C014020000020F80000200008004088
:103B5000FA0000209CA30108000801402200002078
:103B60000000FE2F00010020FC000020FCF76FFB8E
:103B7000F9480068804710BD704700BFFEE700BFEE
:103B8000FEE700BFFEE700BFFEE7704770477047E3
:103B900010B5F2480088002804DDF0480088401E77
:103BA000EE490880EE480088401CED490880084630
:103BB0000088B0F57A7F07DB0120EA490870EA49FE
:103BC00008700020E6490880E848007800280DDDEC
:103BD000E6480078401EE54908700846007828B994
:103BE0000120E34908701420E0490870E14800888A
:103BF00000280ADDDF480088401EDE4908800846AC
:103C0000008810B90120DC490870DC4800780128E0
:103C10007CD1DB480078032878D0DA480078002887
:103C20003DD0D9480078D9490880D748007878280D
:103C300005DDD7480078401CD549087008E0D44815
:103C40000078002804DDD2480078401ED049087072
:103C5000D0484078B42805DACF480078401CCE49D7
:103C6000087008E0CC480078002804DDCA480078D5
:103C7000401EC9490870C7480078B42805DAC7480B
:103C80000078401CC549087020E0C448007800282E
:103C90001CDDC2480078401EC049087016E0BA48D2
:103CA0000078BF490880B8480078782805DAB84815
:103CB0000078401CB649087008E0B5480078002834
:103CC00004DDB3480078401EB1490870B54800785B
:103CD000401CB449087008460078052839DB0020EC
:103CE0000870FFF7E0FEB0480078401CAE4908704D
:103CF000084600780A282CDB00200870A4480078C9
:103D00001E2804DB0120A949087003E021E00020FF
:103D1000A649087000209E4908709F4800781E2818
:103D200003DB0120A249087002E00020A0490870CE
:103D3000002099490870994800781E2803DB01206B
:103D40009C49087002E000209A49087000209349BD
:103D5000087010BD10B52021974804F093FC50B1B5
:103D6000954804F025FCC4B22046FCF7EDFB012089
:103D70009249087016E080218F4804F083FC88B1D6
:103D80008F480088002807DDFCF72CFC04462146FC
:103D9000894804F009FC05E0002240F227718648BA
:103DA00004F0A1FB10BD10B52021864804F06AFC88
:103DB00050B1844804F0FCFBC4B22046FCF7F2FC8E
:103DC00001208149087016E080217E4804F05AFCE9
:103DD00088B17E480088002807DDFCF72AFD0446EC
:103DE0002146784804F0E0FB05E0002240F227710C
:103DF000744804F078FB10BD10B50121744804F03C
:103E000076FA90B10121724804F07AFA5B480078A2
:103E1000012803D06F480088002806DDFEF73EFC2D
:103E20006D480068401C6C49086010BD10B5002347
:103E30006A48007808B9002010BD00230021002244
:103E40000FE06748845C6748805C0A38844202DA85
:103E5000481CC1B203E0994200DD0B460021501C12
:103E6000C2B2162AEDDB994200DD0B46032B01DBC3
:103E70000120E1E70020DFE710B55848007800B9DD
:103E800010BD594800784006000E57490870FFF7EA
:103E9000CDFF012808D154480078401C52490870D1
:103EA00001205249087002E0002050490870504833
:103EB000007800283AD14C48007800F0030003282D
:103EC00014D101204A4908704A48007803280ED1CD
:103ED0000020494908704948008820F040004749BF
:103EE00008800846008840F010000880A5E041489E
:103EF0000078022819D10020414908703F48008805
:103F000040F002003D4908800846008820F001008A
:103F1000088004203B49087000203B4908603B4969
:103F200008803B4908803B49088086E02E4800789D
:103F300000F00F0070B906203749087000202C49A6
:103F400008702C48007802286AD12F48008833492D
:103F5000088072E071E063E0FC000020D2000020E5
:103F6000040100207200002073000020C000002027
:103F7000BE00002076000020780000206B000020AA
:103F80001E000020220000202B0000203600002010
:103F9000380000202C000020390000203A000020CA
:103FA00034000020060100203B0000203C000020DF
:103FB0003E00002040000020003801402E0100207B
:103FC00004000020004800403001002018000020BC
:103FD0000008004068000020600000202000002051
:103FE00046140020AC9300202F0000203100002058
:103FF0003000002008010020AF000020AA000020AF
:10400000AC00002091000020880000208C000020DF
:104010005E00002096000020920000201001002089
:10402000FE480078032808D14620FD490870FD4865
:10403000008820F01000FB490880FB480078012828
:104040003DD1F6480078022839D1F8480068B0F52B
:10405000617F34D2002425E0F5480078012803D0A0
:10406000F448007800280CDDF348005DC4EB4411EF
:10407000C1EB0421F14A02EB8101EC4A1268885439
:104080000EE0ED49085D2146FFF74CFAC4EB441100
:10409000C1EB0421E94A02EB8101E44A1268885429
:1040A000601CC4B2152CD7DBE5480078E549DF4A2F
:1040B00012688854DD480068401CDC49086000BF75
:1040C000DEE6D648007802284CD1DF480088B0F5FB
:1040D000FA6F10DADD480078DD49DB4A128888542F
:1040E000DA484178DB48D84A12888154D64800889B
:1040F000401CD5490880D8480078012817D1D748F6
:10410000008840F2523188422CDAD0480078D449F5
:10411000D24A12888854CD484178D248CF4A128872
:104120008154CE480088401CCC4908801AE0C7481A
:104130000078CD49CD4A12788854C4484178CA489D
:104140003230CA4A12788154C8480078401CC749A6
:10415000087008460078322190FBF1F201FB120052
:10416000C24908707047AD480078022813D1BA4898
:10417000007801280FD1BE480088B0F5617F0ADAC7
:10418000BC480078BC49BA4A12888854B8480088AC
:10419000401CB74908807047A048007802282DD1FC
:1041A000B64800780128FAD1B5480088B0F5967F66
:1041B00024DAB4480078012856D1B34800780228A0
:1041C0001DD1B2488178B248AD4A12888154AF48B7
:1041D0004179B048AA4A12888154AC48017AAE4865
:1041E000A74A12888154A948C17AAC48A44A1288C7
:1041F0008154A3480088401CA1490880DEE1A24800
:104200000078C0B9A1480078A5499D4A1288885411
:104210009E48C178A3489A4A128881549B48817964
:10422000A148974A128881549848417A9F48944AF5
:1042300012888154C2E1954841789D48904A12887D
:104240008154924801799B488D4A128881548F4845
:10425000C17999488A4A128881548C48817A974852
:10426000874A12888154A9E187480078022872D1D0
:1042700086488078B4214843914991F8A31090FB77
:10428000F1F0FF2809DA81488078B42148438C494D
:1042900091F8A31090FBF1F000E0FF20C1B27C4840
:1042A000774A1288815479484079B4214843844937
:1042B00091F8A61090FBF1F0FF2809DA73484079D5
:1042C000B42148437E4991F8A61090FBF1F000E03C
:1042D000FF20C1B26F486A4A128881546B48007A45
:1042E000B4214843764991F8A91090FBF1F0FF28DA
:1042F00009DA6648007AB4214843714991F8A91057
:1043000090FBF1F000E0FF20C1B263485C4A1288E4
:1043100081545E48C07AB4214843694991F8AC1091
:1043200090FBF1F0FF2809DA5848C07AB4214843DD
:10433000634991F8AC1090FBF1F000E0FF20C1B2AE
:1043400056484F4A128881544D480088401C4C49B9
:10435000088033E1FFE74C48007800285CD14B48E7
:104360000078B4214843564991F8A11090FBF1F030
:10437000FF2809DA45480078B4214843504991F8AC
:10438000A11090FBF1F000E0FF2045493C4A128863
:1043900088543E48C078B4214843494991F8A41054
:1043A00090FBF1F0FF2809DA3848C078B42148437F
:1043B000434991F8A41090FBF1F000E0FF20C1B256
:1043C00038482F4A1288815430488079B4214843B4
:1043D0003B4991F8A71090FBF1F0FF2809DA2B4830
:1043E0008079B4214843364991F8A71090FBF1F049
:1043F00000E0FF20C1B22C48214A12888154234892
:10440000407AB42148432E4991F8AA1090FBF1F06C
:10441000FF2860DA1D4855E064E000000801002034
:10442000AD000020AA0000203000002088000020FD
:10443000830000201A01002046140020544600206A
:104440005E000020289000209A0000202800002014
:104450003C3600200C3E00209000002096000020FA
:10446000C193002013970020D83500209900002028
:10447000940000202A000020659A002045000020BA
:104480009C00002084000020230000205B140020FA
:1044900041A00020C5A3002049A70020CDAA0020EC
:1044A000E99D00206DA10020F1A4002075A8002046
:1044B000159F002099A200201DA60020A1A9002080
:1044C00098120020407AB4214843FE4991F8AA107E
:1044D00090FBF1F000E0FF20C1B2FB48FB4A1288DC
:1044E00081546BE0FA484078B4214843F54991F88B
:1044F000A21090FBF1F0FF2809DAF5484078B421CA
:104500004843F04991F8A21090FBF1F000E0FF2041
:10451000C1B2F048ED4A12888154ED480079B421C7
:104520004843E84991F8A51090FBF1F0FF2809DA1B
:10453000E7480079B4214843E24991F8A51090FB7F
:10454000F1F000E0FF20C1B2E348E04A1288815454
:10455000DF48C079B4214843DA4991F8A81090FBAC
:10456000F1F0FF2809DADA48C079B4214843D54987
:1045700091F8A81090FBF1F000E0FF20C1B2D748FD
:10458000D24A12888154D248807AB4214843CD4916
:1045900091F8AB1090FBF1F0FF2809DACC48807A53
:1045A000B4214843C74991F8AB1090FBF1F000E00B
:1045B000FF20C1B2CA48C54A12888154704710B55D
:1045C000022001F0CBFF00286FD0022001F0DAFFBB
:1045D000C4480068401CC3490860002412E0C24877
:1045E00050F82400C0F30720C04901F81400BE4869
:1045F00050F82400000E012101EB4401BB4A505445
:10460000601CC4B2052CEADBB848407AB84908708F
:10461000B648C078B7490870B44840784870B34885
:104620000078B5490870B1480079B4490870AF48BE
:10463000007A4870B248007807280FD2DFE800F00F
:10464000040F1A3F6387AB00A8484079AD49087052
:10465000A6488079C871A548C0798873A6E0A348A8
:104660004079A8494870A148807908729F48C0796C
:10467000C8739BE09D484079A24988709B48807927
:1046800048729A48C07908749F48007820B99748C2
:1046900080788F49087011E09B480078012805D187
:1046A000924880788A49487008E0D5E096480078BA
:1046B000022803D18D4880788549887076E08B4840
:1046C00040799049C8708948807988728748C07954
:1046D00048748D48007820B9844880787C49C87037
:1046E00010E089480078012804D180488178784812
:1046F000017107E084480078022803D17B48817863
:104700007348417152E0794840797E490871774891
:104710008079C8727548C07988747B48007820B960
:10472000724880786A49887110E0774800780128DB
:1047300004D16E4881786648C17107E072480078FC
:10474000022803D169488178614801722EE06748E8
:1047500040796C4948716548807908736348C0792D
:10476000C8746948007820B9604880785849487210
:1047700010E065480078012804D15C4881785448ED
:10478000817207E060480078022803D15748817899
:104790004F48C1720AE0554840795A4988715348D8
:1047A000807948735148C079087500BF00BF5448EC
:1047B0000078401C5249087008460078FDF7F2FE68
:1047C0004F480078072807D1FFF756FBFFF779FC21
:1047D000FFF7E2FCFFF7C7FC49480078072803DA37
:1047E00001214A4801F03DFC45480078072846D1A0
:1047F00000204349087008460078FDF7D3FE44487E
:10480000007848BB40480078022811D1C1024148D5
:1048100002F05FFB00203C4908704FF400513D4816
:1048200002F059FB4FF480413A4802F054FB26E075
:104830003548007888B94FF48051364802F04BFB78
:104840004FF40051334802F044FB01202E49087018
:104850008103304802F03FFB11E04FF480512D48B6
:1048600002F039FB4FF400512A4802F034FB4FF4B8
:104870008041284802F02DFB02202349087010BD1A
:1048800010B50121880703F032FD002874D0012102
:10489000880703F035FD2048007800280ADD1E480F
:1048A0000078401E1C4908700846007810B90120A5
:1048B0001A4908701A48007800285DDD1948007808
:1048C000401C31E09812002075A800209C000020B8
:1048D0005B140020159F002099A200201DA6002037
:1048E000A1A9002064000020281400203C1400200E
:1048F0002B0000202C0000202A000020280000208F
:104900002400002046140020230000200024014041
:1049100025000020000C01402F0100202E01002066
:104920007E0000208000002097490870084600782B
:1049300096490978884204DA4021954802F0C9FA7C
:104940001AE091480178914800780C30814204DAED
:1049500040218F4802F0BFFA0EE000208A4908701B
:104960008C480078401E8B4908700846007818B9BA
:104970004021874802F0AFFA10BD704710B54FF4E0
:10498000807001F092FE00287ED04FF4807001F01C
:1049900097FE81480088401C7F4908807F48008836
:1049A000401C7E49088014207D4908707D480078AD
:1049B000012804D17C480078401C7B4908707B4862
:1049C0000078012808D17A480078022804D1794873
:1049D0000088401C774908807748007800280DDD62
:1049E00075480078401E744908700846007828B958
:1049F00001207249087000207149088071480078D0
:104A000000280ADD6F480078401E6E49087008468D
:104A1000007810B90020694908706B4800880028A8
:104A200004DD69480088401E674908805F480078B7
:104A3000012808D15E480078022804D16348008824
:104A4000401C624908806248007800280DDD6048FB
:104A50000078401E5E4908700846007828B900209A
:104A60005C49088001205C4908705C480078002897
:104A70000CDD5A480078401E5849087008460078F6
:104A800020B90020544900E070E0087054480078D4
:104A9000002812DD52480078401E5149087008462F
:104AA000007850B94F48008820F001004D49088037
:104AB00003204D490870FEF749FF4C480078002854
:104AC00014DD4A480078401E4849087008460078BE
:104AD00060B947480078012805D14248008840F075
:104AE000200040490880012042490870424800786F
:104AF000002810DD40480078401E3F4908700846F5
:104B0000007840B93748008820F00800354908800F
:104B100001203849087039480078002810DD3748EE
:104B20000078401E354908700846007840B92D4885
:104B3000008820F040002B49088001202D49087092
:104B40002F4890F8B00000F0020000280EDD264843
:104B5000007858B92B480088C82807DD0220224970
:104B60000870FEF7F3FE00202649088010BD70474C
:104B700010B50221244801F0E5FB18B102212248BA
:104B800001F0E9FB10BD0000800000207F00002044
:104B9000000801407E0000205C0000209E000020F4
:104BA000A5000020580000205900002030000020FF
:104BB000080100205E000020430000204500002086
:104BC0009C000020440000207A0000208C0000207F
:104BD000910000209400002090000020920000200E
:104BE000AC000020AA000020A0000020AD000020A2
:104BF0003C000020B1000020AE000020AF000020EB
:104C000098120020480000200024014010B50446FE
:104C10006248047024B1012C03D0022C09D101E0B8
:104C200000BF00BFFF205E490870F0205D4908709A
:104C30000BE00020594908705B48007C5849087017
:104C40005948007D5749087000BF00BF534800789D
:104C5000FEF7E7FE10BD5548007830B100205349FB
:104C6000087053490880091D0880704700B589B055
:104C700003208DF822000120ADF8200018208DF8C7
:104C8000230008A94B4802F077F80220ADF8200075
:104C900018208DF8230008A9464802F06DF801217C
:104CA000022002F0DFFB1720ADF81400FE20ADF863
:104CB00018000020ADF81A00ADF8160005A93C4810
:104CC0003C3802F0FBFC6020ADF804000120ADF898
:104CD00006000020ADF80800ADF80A00ADF80C00A1
:104CE00001A933483C3802F0B5FD082130483C3872
:104CF00003F086F96020ADF804000120ADF806004D
:104D00000020ADF80800ADF80A00ADF80C0001A9CC
:104D100027483C3802F0E9FD082125483C3803F0DB
:104D200078F9012122483C3803F024F8FFF793FF7B
:104D300001211F483C3803F029F81B4991F8E10094
:104D4000FFF764FF09B000BD022018490870002079
:104D50001749091D088012480078091F088070470C
:104D60000320124908700F4800781149091D088076
:104D70000020091F0880704710B5FFF76CFF012065
:104D8000FBF791FA10BD0648007809490880704782
:104D9000044800780649091D088070470901002071
:104DA0000E0100200F0100209812002008010020B1
:104DB0003C040040000C01402DE9F84F2A218348B3
:104DC00003F032FF0024F7E081480088401E1FFAFC
:104DD00080F84FF0000B00252CE0C4EB4410C0EB32
:104DE00004207C4901EB8000415D7B48005D0A386E
:104DF00081421DDAC4EB4410C0EB0420754901EB7D
:104E00008001681C095C7448005D0A3881420FDA31
:104E1000C4EB4410C0EB04206E4901EB8001A81CD8
:104E2000095C6D48005D0A38814201DAA84608E055
:104E3000681C85B26649088800EBD071B5EB610F3C
:104E4000CBDB00BF62480088401E85B22CE0C4EB7B
:104E50004410C0EB04205F4901EB8000415D5E48D7
:104E6000005D0A3881421DDAC4EB4410C0EB042017
:104E7000584901EB8001681E095C5748005D0A38FB
:104E800081420FDAC4EB4410C0EB0420514901EB1E
:104E90008001A81E095C5048005D0A38814201DA91
:104EA000AB4608E0681E85B24949088800EBD0711E
:104EB000B5EB610FCBDC00BF4549088800EBD07132
:104EC00008EB6101594575DC002600200090ABEB32
:104ED000080087B2B1464FF0FF0A3846F91707EBD2
:104EE000917108EBA1018DB230E0C4EB4410C0EB2E
:104EF0000420384901EB8000405D06440098401CC6
:104F00000090C4EB4410C0EB042001EB8000405D36
:104F1000484507DDC4EB4410C0EB042001EB8000E2
:104F200010F80590C4EB4410C0EB0420294901EBB4
:104F30008000405D504507DAC4EB4410C0EB04200C
:104F400001EB800010F805A0681C85B207EB470054
:104F5000C11700EB917108EBA101A942C5DAD14557
:104F600028DDA9EB0A00142824DA06EB86004600A7
:104F70000098B6FBF0F6194830F81400B04202D899
:104F8000164921F81460164830F81400B04202D3D4
:104F9000134921F81460134850F824003044114993
:104FA00041F824001048005D401C0F49085507498E
:104FB00021F81460601C84B2152CFFF605AFBDE823
:104FC000F88F7047014600207047704766AC00209C
:104FD0001001002054460020AC93002090AC00202B
:104FE000BAAC0020FCAB002050AC002000B587B06C
:104FF0004FF48060ADF8180004208DF81B000120EC
:105000008DF81A0006A9864801F0B6FE4FF400702C
:10501000ADF8180018208DF81B0006A9804801F093
:10502000ABFE4FF4E13002900020ADF80C00ADF87B
:105030000E00ADF81000ADF814000C20ADF8120011
:1050400002A9784803F0B7F94FF4A06000F008FF18
:1050500025208DF8040001208DF8050002208DF830
:10506000060001208DF8070001A800F0FEFE0122D5
:1050700040F225516B4803F036FA002240F22771C6
:10508000684803F030FA0121664803F020FA002056
:1050900065490870654908700121880402F0E2F949
:1050A0004FF40060ADF8180004208DF81B000120BB
:1050B0008DF81A0006A95E4801F05EFE4FF480608C
:1050C000ADF8180018208DF81B0006A9584801F00B
:1050D00053FE4FF4E13002900020ADF80C00ADF823
:1050E0000E00ADF81000ADF814000C20ADF8120061
:1050F00002A9504803F05FF94FF4A06000F0B0FE41
:1051000027208DF8040001208DF8050002208DF87D
:10511000060001208DF8070001A800F0A6FE01227C
:1051200040F22551434803F0DEF9002240F2277196
:10513000404803F0D8F901213E4803F0C8F90020A7
:105140003D49087007B000BD70B504460D4606E045
:10515000FBF763FA691D884200DD01E00026F7E7EE
:1051600000BF002240F227712E4803F0BCF903E093
:105170002078FBF71DFA641C2800A5F101018DB20F
:10518000F6D1012240F22771264803F0ACF970BD38
:1051900070B504460D4606E0FBF7F0FA691D88423B
:1051A00000DD01E00026F7E700BF002240F2277192
:1051B000224803F098F903E02088FBF77EFAA41C4C
:1051C0002800A5F101018DB2F6D1012240F227712C
:1051D0001A4803F088F970BD70B504460D4606E024
:1051E000FBF742FB691D884200DD01E00026F7E77E
:1051F00000BF002240F227710E4803F074F903E06B
:105200002078FBF7FCFA641C2800A5F101018DB29F
:10521000F6D1012240F22771064803F064F970BD0F
:1052200000080140003801402E0100202F0100201D
:10523000000C0140004800403001002000440040C4
:105240002DE9F04704460F46944600212DE04FEA31
:10525000812808FB07F898FBF3F5A812A5EB80223C
:1052600000F1010814F8088014F80090A8EB090870
:1052700008FB02F84FEAA82814F800A000F1010981
:1052800014F80990AAEB090909FB02F908EB29585F
:1052900014F8009008EB0906FF2E00DDFF26002E13
:1052A00000DC00260CF80160491C9942CFDBBDE808
:1052B000F0872DE9F04F91B0FE480088322803DBDB
:1052C000FC480088B42808DDFF20FB490870FB4932
:1052D0000870002011B0BDE8F08F4FF44071F8481D
:1052E00003F0A2FC002414E0F64B03EB8412F14B14
:1052F0001B88A3F10C01C4EB041303EB8303DFF859
:10530000C8C30CEB8303181D3023FFF799FF601C03
:1053100004B20C2CE8DB00244CE04FF0000944E020
:1053200004EB4400E74901EB801010F809000F90EE
:1053300004EB4400401C01EB801010F809000E90B3
:1053400004EB4400801C01EB801010F809000D9064
:105350004FF4FA710F9841430E98401C91FBF0F006
:105360000C900C9801B24FEA490204EB440002EBA6
:105370004010D34A22F810104FF4FA710D984143AF
:105380000E98401C91FBF0F00C900C9801B24FEA83
:10539000490204EB440002EB4010401CC84A22F8CA
:1053A000101009F101000FFA80F9B9F1300FB7DBE5
:1053B000601C04B2042CB0DBC4480590C0480690C1
:1053C000C34807904FF0450B0027B846002464E01F
:1053D00000200490814613E0069830F919000B90E4
:1053E00009FB0B41079830F911100A91049ADDE985
:1053F0000A1000FB0120049009F101000FFA80F966
:10540000B9F5C07FE8DB049804F05FF90022B14BE6
:10541000CDE9020103F0D2FF05460E4609FB0B421F
:10542000079931F91210C82201FB02F004F04DF97E
:105430000022A84BCDE9000103F0C0FF2A46334605
:10544000CDE9020103F0FEFE05460E4686F000415E
:105450002846CDE9025103F0B3FDCDE90801002053
:105460009D49DDE9082303F0EDFE02460B46CDE938
:1054700002010020984903F0A1FF05460E462A4686
:1054800033463846414604F037F904D22F46B04639
:10549000059810F804A0601C04B25C4598DB5046E7
:1054A0004FEAEA710AEB9171C1F38701824A1170E8
:1054B0004FEAEA710AEB91718910AAEB81017F4AE8
:1054C0001170002006E72DE9F04F89B006460D4621
:1054D00017469846022F03DA002009B0BDE8F08F86
:1054E000002006900590002409E055F82410069845
:1054F000814203DD55F8240006900594641CBC42EB
:10550000F3DB4FF00009CDF81C90CA46CDF820908F
:10551000CB46002431E00598844200D12CE00BF109
:10552000010B56F8240004F0FDFC4946049004F0F9
:1055300075FB814655F8240004F0F4FC51460490B4
:1055400004F06CFB824656F8241001FB01F004F0D5
:10555000E9FC0490089904F061FB089056F82410C7
:1055600055F8242001FB02F004F0DCFC04900799BC
:1055700004F054FB079000BF641CBC42CBDB5846D0
:1055800004F0D0FC0190089904F0F8FC494603901F
:10559000484604F0F3FC0290039904F0C5FD002195
:1055A000049004F06BFC01D1002096E7584604F00B
:1055B000B9FC0090089904F0E1FC49460290484685
:1055C00004F0DCFC0190029904F0AEFD0490584612
:1055D00004F0A8FC0090079904F0D0FC4946029022
:1055E000504604F0CBFC0190029904F09DFD03901D
:1055F000049904F081FBC8F80000584604F092FCBE
:1056000004904846D8F8001004F0B8FC51460290C7
:1056100004F080FD0390049904F06EFB1299086079
:1056200001205AE72DE9FF4F009A019B002499E0E1
:10563000002591E04FEA842ADDF80890A9F10109DC
:105640000AFB09FADDF83890A9F101099AFBF9F78C
:105650004FEA852ADDF80490A9F101090AFB09FA4D
:10566000DDF83490A9F101099AFBF9F6B012B912EC
:10567000A6EB802CA7EB812801F1010909FB0309A6
:1056800012F8099001FB030A12F80AA0A9EB0A0913
:1056900009FB08F901FB030A0AF1010A12F80AA042
:1056A00001FB030B12F80BB0AAEB0B0A0AFB0C99D7
:1056B00014E00000160100203A0100203B01002008
:1056C000C8B20020C8AF0020E99D00203E010020A4
:1056D0002CFD0208006AF8400000F03F4FEAA929BB
:1056E00001F1010A0AFB030A0AF1010A12F80AA0F1
:1056F00001FB030B12F80BB0DA4401FB030B0BF1B7
:10570000010B12F80BB0AAEB0B0B01F1010A0AFB1B
:10571000030A12F80AA0ABEB0A0A0AFB0CFA0AFB0E
:1057200008FA09EB2A5901FB030A12F80AA009EB4F
:105730000A0EBEF1FF0F01DB4FF0FF0EBEF1000FAE
:1057400001DC4FF0000EDDF8349004FB095BDDF85E
:105750000C9009F80BE06D1CDDF834904D45FFF618
:1057600069AF641CDDF838904C45FFF661AFBDE8C9
:10577000FF8F2DE9F14F94B0B6480C900020B64948
:105780000870B6480088642803DBB5480078FF2815
:1057900006D10120B0490870002015B0BDE8F08F97
:1057A00000200E9015200D90002424E04FF0000AF8
:1057B0004FF008090EE0C4EB4410C0EB0420A549EB
:1057C00001EB800010F80900F02801DD0AF1010A60
:1057D00009F10109A148008808384845EBDC9F48D9
:1057E0000088032190FBF1F0504503DD601C00B2FE
:1057F0000E9002E0641C152CD8DB00BF142424E0BA
:105800004FF0000A4FF008090EE0C4EB4410C0EB63
:105810000420904901EB800010F80900F02801DD18
:105820000AF1010A09F101098C4800880838484545
:10583000EBDC8A480088032190FBF1F0504503DD42
:10584000601E00B20D9002E0641E002CD8DC00BF88
:10585000DDE90D01401A00B20F90002012900E9C5D
:1058600040E04FF0080937E0C4EB4411C1EB0421DC
:10587000784A02EB810111F80920C4EB4411C1EB15
:105880000421744B03EB810309F10101595C0A44C3
:10589000C4EB4411C1EB04216E4B03EB810309F10E
:1058A0000201595C0A44C4EB4411C1EB0421694B69
:1058B00003EB810309F10301595C5018C11700EB98
:1058C0009171891011911199CAB21298411C1291CB
:1058D00014990A5409F104096048008808384845B9
:1058E000C2DC641C0D988442BBDB0F99129890FBBC
:1058F000F1F000B210904FF420715A4803F094F97F
:1059000010202821574BCDE90010DDE90F21149814
:10591000FFF788FE54480890524807905348099072
:105920004FF0450B0027B84600245DE000200590AD
:1059300081460DE0079810F8091009FB0B42099801
:1059400030F91220059801FB0200059009F10109C8
:10595000B9F5207FEEDB059803F0B7FE0022444B3B
:10596000CDE9020103F02AFD05460E4609FB0B4274
:10597000099931F91210C82201FB02F003F0A5FECB
:1059800000223B4BCDE9000103F018FD2A463346C7
:10599000CDE9020103F056FC05460E4686F00041B3
:1059A0002846CDE9025103F00BFBCDE90A010020A6
:1059B0003049DDE90A2303F045FC02460B46CDE9F8
:1059C000020100202B4903F0F9FC05460E462A4649
:1059D00033463846414603F08FFE04D22F46B04688
:1059E0000898005D0690641C5C459FDB2249069880
:1059F00008700878C11700EB91718910184A11706E
:105A00001D490878C11700EB91718910A0EB810145
:105A10001A4A11700020C0E630B503461C681460B5
:105A200001200FE0441E53F8244053F82050254431
:105A3000441C53F824402C44032594FBF5F442F80D
:105A40002040401C4C1E8442ECDC53F8204042F8BD
:105A5000204030BD544600203701002010010020B6
:105A600033010020E4AC00203E010020A2A3010885
:105A7000006AF8400000F03F3C01002034010020A3
:105A800010B501460B46012000220CE00A24B3FBAE
:105A9000F4F42CB10A24B3FBF4F3441CE0B200E0AC
:105AA00003E0541CE2B20A2AF0DB00BF10BD7047CD
:105AB00070B50446224668A16D4802F09BFF6C4811
:105AC00003F046F885B229466948FFF73DFB70BDF3
:105AD00068490870704768490880704767490880BE
