:020000040801F1
:10000000A8BF002049900108753D0108773D01080F
:100010007B3D01087F3D0108833D01080000000091
:10002000000000000000000000000000873D010803
:10003000893D0108000000008B3D01088D3D01084D
:1000400063900108639001086390010863900108C0
:1000500063900108639001086390010863900108B0
:10006000639001086390010863900108D347010879
:100070006390010863900108639001086390010890
:100080006390010863900108294F010863900108FB
:10009000639001086390010863900108294C0108EE
:1000A0006390010863900108639001086390010860
:1000B0000D4B010863900108074001086390010897
:1000C0006390010863900108639001086390010840
:1000D00063900108D33E010863900108B53F010811
:1000E000639001086390010863900108000000001C
:1000F0000000000000000000000000000000000000
:1001000000000000000000006390010863900108F7
:100110006390010863900108E3640108639001089B
:1001200063900108639001086390010863900108DF
:1001300063900108639001086390010863900108CF
:1001400063900108639001086390010863900108BF
:1001500000F002F800F062F80AA090E8000C824477
:100160008344AAF10107DA4501D100F057F8AFF254
:10017000090EBAE80F0013F0010F18BFFB1A43F085
:1001800001031847D0B00300F0B003000A444FF059
:10019000000C10F8013B13F0070408BF10F8014BE6
:1001A0001D1108BF10F8015B641E05D010F8016B2B
:1001B000641E01F8016BF9D113F0080F1EBF10F88F
:1001C000014BAD1C0C1B09D16D1E58BF01F801CBB2
:1001D000FAD505E014F8016B01F8016B6D1EF9D535
:1001E0009142D6D37047000000230024002500264A
:1001F000103A28BF78C1FBD8520728BF30C148BF8A
:100200000B607047642908F0B187732909F03581C4
:10021000002070471FB51FBD10B510BD09F06CF967
:100220001146FFF7F7FF03F0A3F909F08AF903B4C9
:10023000FFF7F2FF03BC09F08BF90000EFF3098030
:10024000704780F309887047EFF30880704780F3A8
:100250000888704740BA7047C0BA704730B51E4929
:10026000B1F1807F00D31DE021F07F40401E4FF0B0
:10027000E022506150170F22002807DA13071D0EE5
:10028000164B00F00F04241F1D5503E013071C0E2E
:10029000134B1C5400BF00204FF0E0229061072058
:1002A000106100BF30BD014642F2887201FB02F0CE
:1002B00000E0401E0028FCD1704700EB400202EB3A
:1002C000C00100E0491E0029FCD17047014600E052
:1002D000491E0029FCD170474019010018ED00E0CB
:1002E00000E400E040F2E730FE490880084600885C
:1002F000FD4908800020FD490880704740F2E73042
:10030000FB49088008460088FA49088070470920A0
:10031000F949088008460088F84908800020F84913
:100320000880704740F2E730F649088008460088A8
:10033000F54908800020F5490880704740F2E73011
:10034000F349088008460088F2490880704700B5E4
:1003500000222FE0F04850F82200F04901EB021192
:100360000860EF4830F81200EC4901EB0211888078
:10037000EA4800EB02108088401EE84901EB0211B8
:10038000C880E64800EB02108088401EE34901EB7C
:10039000021108810020E14901EB02114881DF4888
:1003A00000EB02108088401EDC4901EB02118881BD
:1003B000501CC2B20A2ACDDBFFF7C0FFFFF7B2FF25
:1003C000FFF7A5FFFFF79AFFFFF78CFF00BD30B5E1
:1003D000D24B03EB00135B89D04C04EB0014A488D0
:1003E000A34223DACD4B03EB00131B895B1CCB4CE0
:1003F00004EB0014A48893FBF4F504FB1533C74CFD
:1004000004EB00142381C54B03EB00131B68C34CA2
:1004100004EB001424891A191170C04B03EB00136C
:100420005B895B1CBD4C04EB0014638130BD10B5CF
:100430000146BA4800EB01104089002824DDB74886
:1004400000EB0110C088401CB44B03EB01139B88E8
:1004500090FBF3F403FB1400B04B03EB0113D880C3
:10046000AE4800EB01104089401EAC4B03EB01137A
:100470005881AA4800EB01100068A84B03EB011358
:10048000DB88C218107810BD0020FCE710B50146CB
:10049000A24800EB0110408900281BDD9F4800EBBB
:1004A00001108089401C9D4B03EB01139B8890FB3E
:1004B000F3F403FB1400994B03EB01139881974865
:1004C00000EB01100068954B03EB01139B89C218E8
:1004D000107810BD0020FCE7904901EB00118988DD
:1004E000491E8E4A02EB0012D1808C4901EB0011AB
:1004F0008988491E894A02EB001211810021874A2E
:1005000002EB0012518170470146844800EB011054
:10051000408970470146814800EB011080887F4A7E
:1005200002EB01125289801A80B270477948028822
:10053000774801888A4202DB501A80B2704702F580
:100540007A70401A80B2F9E700B50346FFF7EEFF74
:10055000B0F57A7F0DDA6F480088401C4FF47A714D
:1005600090FBF1F201FB12006A4908806D4809888E
:10057000435400BD674800886549098888420ED009
:1005800063480088401C4FF47A7190FBF1F201FB44
:1005900012005F49088063480988405C7047FF206B
:1005A000FCE700B5FFF7C2FFC0F57A7080B200BD6E
:1005B00056490988B1F57A7F13DA53490988491CED
:1005C0004FF47A7291FBF2F302FB13114E4A118041
:1005D0004E490988491C4D4A118053494A4A12889C
:1005E0008854704749480088002814DD4548008831
:1005F000401C4FF47A7190FBF1F201FB120041496B
:10060000088042480088401E4049088046483D49CD
:100610000988405C70470020FCE73C480088C0F532
:100620007A7080B2704741480288414801888A4206
:1006300002DB501A80B2704702F10A00401A80B201
:10064000F9E709203A4908800846008837490880B8
:10065000704700B50346FFF7E6FF0A280DDA334876
:100660000088401C0A2190FBF1F201FB12002F4987
:1006700008803048098820F8113000BD2B480088D8
:100680002B49098888420ED029480088401C0A213D
:1006900090FBF1F201FB12002549088025480988EA
:1006A00030F8110070474FF6FF70FBE700B5FFF719
:1006B000BAFFC0F10A0080B200BD114909880A29B9
:1006C00040DA0E490988491C0A2291FBF2F302FB29
:1006D00013110A4A11800A490988491C084A1180E5
:1006E00015492BE01A0000201C00002018000020F3
:1006F000140000201600002010000020120000202E
:100700000E00002006000020080000200400002049
:100710000000002002000020ACA9010834120020D3
:1007200098A9010808020020F00500200C00002014
:100730000A000020D8090020EC0900204D4A128848
:1007400021F8120070474C480088002814DD4B48FF
:100750000088401C0A2190FBF1F201FB120047497E
:10076000088045480088401E434908804448434962
:10077000098830F8110070470020FCE73E480088E7
:10078000C0F10A0080B270473E4802883E480188A6
:100790008A4202DB501A80B2704702F57A70401A22
:1007A00080B2F9E737490988491C4FF47A7291FB06
:1007B000F2F302FB1311334A118034491288885432
:1007C0007047304800883049098888420ED02E484A
:1007D0000088401C4FF47A7190FBF1F201FB12008B
:1007E0002949088029480988405C7047FF20FCE7B8
:1007F00000B5FFF7C9FFC0F57A7080B200BD24498B
:100800000988B1F57A7F13DA22490988491C4FF427
:100810007A7291FBF2F302FB13111E4A11801C49FC
:100820000988491C1A4A11801B491A4A128888549F
:10083000704717480088002814DD18480088401CBD
:100840004FF47A7190FBF1F201FB1200134908801A
:100850000F480088401E0E4908800F480F4909883C
:10086000405C70470020FCE709480088C0F57A70BA
:1008700080B27047120000200E00002010000020FF
:10088000EC0900201600002014000020000A0020BF
:10089000180000201C000020E80D00201A00002095
:1008A0007047374A3748002105E013680360121D7E
:1008B000001D4B1C99B25929F7D370472DE9F0411F
:1008C00006F085FA352006F01DFD052726E02C48A8
:1008D00006F0C2FA2A4D2B4E002407E02846316864
:1008E00006F08AFB2D1D361D601C84B2592CF5D3F1
:1008F0004FF00108224D234E002409E0286831689A
:10090000884201D04FF000082D1D361D601C84B2B6
:10091000592CF3D3B8F1000F00D004E03800A7F150
:100920000101CFB2D3D100BFBDE8F08108B51649AF
:100930006A4608681060009808BDF1B506F047FAED
:10094000352006F0DFFC052612E00F4806F084FA99
:100950000D4C6D462046296806F04EFB012700BF6E
:1009600000BF20682968884200D0002707B104E052
:100970003000A6F10101CEB2E7D100BFF8BD000002
:1009800000FE0508D412002000F8000870B588B0F9
:100990002021684608F0B4FCC6208DF800000E2027
:1009A0008DF8010055208DF810000026F7480088CA
:1009B000864201DAF5480688F5480088864201DA61
:1009C000F348068800253FE0F0480088854211DAA8
:1009D00000240CE004EB4400C0EBC410ED4901EB33
:1009E0000010415DA01C0DF80010601CC4B2022C68
:1009F000F0DB04E00020CDF80200ADF80600E4488A
:100A00000088854211DA00240CE0C4EB041000EBEE
:100A10008000E14901EB8000415D201D0DF80010D0
:100A2000601CC4B20C2CF0DB03E0002101910291A8
:100A300003911121684604F0A5FD00BFD748008846
:100A40000028FBDC681C85B2B542BDDBD4480088B9
:100A500000128DF80200D24800788DF80300CC48CF
:100A6000008800128DF80400C94800788DF8050050
:100A700000208DF806008DF807008DF808008DF82D
:100A800009008DF80A001121684604F07BFD002062
:100A90008DF802008DF803008DF804008DF8050034
:100AA0008DF806008DF807008DF808008DF8090014
:100AB0008DF80A001121684604F064FD00208DF8CD
:100AC00002008DF803008DF804008DF805008DF804
:100AD00006008DF807008DF808008DF809008DF8E4
:100AE0000A001121684604F04DFD00208DF8020037
:100AF0008DF803008DF804008DF805008DF80600D0
:100B00008DF807008DF808008DF809008DF80A00AF
:100B10001121684604F036FD00208DF802008DF8A2
:100B200003008DF804008DF805008DF806008DF89F
:100B300007008DF808008DF809008DF80A001121D2
:100B4000684604F01FFD002514E0002405E0FF21A5
:100B5000A01C0DF80010601CC4B20E2CF7DB112194
:100B6000684604F00FFD00BF8C4800880028FBDCBD
:100B7000681C85B2062DE8DB08B070BD30B589B0C1
:100B8000C6208DF8040019208DF8050055208DF839
:100B90001F000025F2E0EDB98148008800128DF8B1
:100BA00006007F48008800128DF80700002408E046
:100BB0007C480088C0F30721201D01AA1154601C45
:100BC000C4B2162CF4DB784800880112201D01AA5B
:100BD0001154C8E0012D19D1714800788DF8060034
:100BE0006F4800788DF80700002406E06D48017812
:100BF000201D01AA1154601CC4B2162CF6DB6A48F1
:100C000000880112201D01AA1154ACE0644800883C
:100C1000801C854211DA00240CE040F2A9106043E8
:100C2000624901EB4001A81E095CA01C01AA1154F5
:100C3000601CC4B2022CF0DB09E0002405E00021B6
:100C4000A01C01AA1154601CC4B2022CF7DB564848
:100C50000088801C854205DAA81E5549085C8DF87D
:100C60001E0002E000208DF81E00B5F5167F22DC84
:100C70004C480068801C854212D200240DE0C4EB71
:100C80004410C0EB04204B4901EB8001A81E095C15
:100C9000201D01AA1154601CC4B2162CEFDB62E0C7
:100CA000002405E00021201D01AA1154601CC4B2DB
:100CB000162CF7DB57E040F25920854213D100246F
:100CC0000EE00C2C06DA324800880112201D01AA21
:100CD000115403E00021201D01AA1154601CC4B26C
:100CE000162CEEDB3FE040F25A20854212D1002460
:100CF0000DE00C2C05DA26480178201D01AA1154BC
:100D000003E00021201D01AA1154601CC4B2162C5E
:100D1000EFDB28E000241AE0A5F516701C490988CD
:100D2000891C88420DDAC4EB041000EB80001A49DC
:100D300001EB8001A5F25A20095C201D01AA115483
:100D400003E00021201D01AA1154601CC4B20C2C28
:100D5000E2DB0C2405E00021201D01AA1154601CD7
:100D6000C4B2162CF7DB1C2101A804F00BFC00BF59
:100D70000A4800880028FBDC681C85B2B5F5617F55
:100D8000FFF609AF00252AE000241BE0A4000020A4
:100D9000A6000020783600200D9F002004000020CF
:100DA000A0000020900000209E000020E59400207C
:100DB000899B002078470020FF21A01C01AA115424
:100DC000601CC4B2192CF7DB1C2101A804F0DAFB6B
:100DD00000BFFC4800880028FBDC681C85B2062D9B
:100DE000D2DB09B030BD00B585B030208DF80000F1
:100DF00004208DF80100F44800788DF80200F248D4
:100E000040788DF80300F04880788DF80400EE48B3
:100E1000C0788DF8050055208DF80600072168463A
:100E200004F0B0FB05B000BD10B54021E74806F066
:100E300080FB08B9202010BD8021E44806F079FB32
:100E400008B92120F7E74FF48071E04806F071FB04
:100E500008B92220EFE7FF20EDE730B50346302543
:100E6000541E0D5500248C5410460FE00A2493FBA9
:100E7000F4F504FB15343034E5B2441E0D55E0B2F0
:100E800000B905E00A2493FBF4F4A3B2002BEDDCD7
:100E900000BF904201D1441EE0B203E02025441E71
:100EA0000D55E0B20028F9DC30BD30B504460D46E2
:100EB000032229462046FFF7D0FF30BD10B5C448B5
:100EC0000078002819DD182005F04CF947F6FF706E
:100ED00005F04EF94FF4784005F047F9BD48BEA142
:100EE00009680160011DBA480078FFF7DEFFD422CF
:100EF0000021B84805F03FF913E0182005F032F959
:100F000047F6FF7005F034F947F6FF7005F02DF94C
:100F1000B048B3A206CA06C0D4220021083805F0A2
:100F20002AF910BD30B503463025541E0D55002456
:100F30008C5410460EE00A24B3FBF4F504FB153480
:100F40003034451E4C55441EE0B200B904E00A247A
:100F5000B3FBF4F3002BEED100BF904201D1441E4D
:100F6000E0B203E02025441E0D55E0B20028F9DC74
:100F700030BD70B5102005F0F5F8002005F0F5F84B
:100F80004FF6FF7005F0F4F8002433E0964931F88D
:100F9000140004228F49FFF7C5FF04EB8400800092
:100FA00000F126023B218B4805F0E5F88F480078D8
:100FB000012807D18C4830F814008D49095D00FBE9
:100FC00001F507E0884830F814008A4931F8141018
:100FD00000FB01F505227F492846FFF7A3FF04EB3C
:100FE0008400800000F1260265217A4805F0C3F8EC
:100FF000601CC4B2072CC9DB042276497E48006815
:10100000FFF790FF04EB8400800000F126023B21F3
:10101000704805F0B0F805226E4978480068FFF77F
:1010200081FF04EB8400800000F1260265216948FD
:1010300005F0A1F870BD10B5182005F093F8002058
:1010400005F093F84FF6FF7005F092F8052261491C
:101050006B480088FFF701FF64480078012808D139
:1010600024205C4908703C22F4215A4805F083F89A
:1010700007E02020574908703C22F421554805F02C
:101080007AF810BD10B5182005F06CF8002005F0B6
:101090006CF84FF6FF7005F06BF807224D49574882
:1010A0000068FFF73FFF8C22DC214A4805F063F817
:1010B00010BD10B5182005F055F8002005F055F8C2
:1010C0004FF6FF7005F054F8042242494A48006880
:1010D000FFF728FF64224FF480713E4805F04BF87B
:1010E00010BD10B54748007850B94748007838B966
:1010F000FFF7DFFFFFF7C6FFFFF79DFFFFF739FFA1
:1011000010BD2DE9F04F87B00746884692463E460F
:10111000707830383178303901EB810100EB4100D3
:10112000C0B20690069828B900208AF8000007B0DF
:10113000BDE8F08F0698804501DB4FF000080024E1
:10114000A346A14602252BE0705D7C281FD1BBF190
:10115000000F07D100244FF0010B142101A808F063
:10116000CFF81BE0C84506D1621C01A9504608F023
:1011700058F80120DBE709F1010000F0FF09002425
:101180004FF0010B142101A808F0BAF806E0112C69
:1011900004DA705D01A90855601CC4B2681C85B2F0
:1011A000304608F01FF8A842CEDCBBF1010F2DD16C
:1011B000C8452BD1621C01A9504608F032F8012025
:1011C000B5E7000004000020821400200010014058
:1011D000AB000020E04600204A414D3A00000000EC
:1011E0004A414D3A3838380044470020D2000020A8
:1011F0000AAA010814AA0108D4000020D80000207F
:10120000DC0000201E000020D300002000BF8EE77D
:1012100038B547F6FF7004F0ABFF47F6FF701C23AC
:10122000322202210090042005F02FF8002004F063
:101230009CFF182004F096FFFD4AFE480178FE4806
:101240000068FFF75EFF044604220B21F84804F013
:1012500092FF38BD38B504460D4625B1012D0BD09F
:10126000022D1BD111E020234FF4A072002108466B
:10127000009405F00AF812E0B0234FF4A072202188
:101280000020009405F001F809E020234FF4A0723B
:10129000D0210020009404F0F8FF00E000BF00BF60
:1012A00038BD3EB5002147F6FF70FFF7D3FF01219F
:1012B0004FF6FF70FFF7CEFF022147F6FF70FFF7F2
:1012C000C9FF44F2080002234FF4A07220210090CD
:1012D000002004F0DAFF44F2080002234FF4A07269
:1012E000CE210090002004F0D0FF0020082103222E
:1012F000A823CDE9002102907E222421102004F0B1
:1013000098FF102004F02EFF002004F02EFF4FF66F
:10131000FF7004F02DFFC7480078012815D1002484
:1013200010E0C649085D0422C149FFF7FBFD04EB4C
:101330008400800000F126021121BD4804F01BFF4B
:10134000601CC4B2072CECDB15E0002411E0BC49A2
:1013500031F814000422B649FFF7E4FD04EB8400E1
:10136000800000F126021121B14804F004FF601C46
:10137000C4B2072CEBDB04EB8400800000F12602F2
:101380001121B0A004F0F7FE182004F0EBFE0020BD
:1013900004F0EBFE4FF6FF7004F0EAFE8C22A02171
:1013A000AAA004F0E8FE6422A021AAA004F0E3FEB3
:1013B0003C22A021A9A004F0DEFE3EBD10B5FFF73F
:1013C00070FFFFF725FFFFF78CFEFFF777FD10BDDD
:1013D00010B50020A3490860A3490880A34908600C
:1013E0001821A34807F06AFF10BDA2490870704792
:1013F00010B50446A0480078012809D1222C05D157
:1014000000209D490870FFF7D9FF00E000BF50E0C1
:101410009948007800284CD1402C1CD004DC202CAA
:1014200018D0222C44D104E0412C28D0422C3FD1AA
:1014300000E000BF0020FFF7D8FF01208F490870AF
:1014400000208F4908808F490870FFF7C1FFFFF720
:10145000B5FF2DE000BF77480078012803D10220B6
:101460007449087006E073480078022802D1012010
:1014700070490870FFF7ACFFFFF7A0FF18E00020ED
:101480008149087041F22710FFF757FA6420FEF7F0
:101490000AFF00BF7D48006800F4E0607C49084313
:1014A000001D7A490860BFF3408F00BF00BFFEE710
:1014B00000BF10BD10B50020FFF726F800280BDD97
:1014C0000020FEF7B4FF04466A48007818B92046A9
:1014D000FFF78EFF00BF00BF10BD7CB506460C466F
:1014E0006C48007800B17CBD304607F07BFE85B2C9
:1014F0002946304604F046F8002C09DD0D208DF811
:1015000000000A208DF801000221684604F03AF834
:1015100000BFE8E7604908701421604A1170704705
:1015200010B50246C31700EB13731B115C4CE35C50
:101530000B70C31700EB13731B11A0EB0313E35CD9
:101540004B7000228A7010BD70B5002438482044CA
:1015500054A10A68026009790171641D002510E038
:101560005248465D324801193046FFF7D9FFA01CAA
:10157000C4B220222046611CCCB22D490A54681CFA
:10158000C5B2162DECDB00222046611CCCB22849E6
:101590000A5401212648FFF7A0FF002424482044D4
:1015A00043A10A68026089888180A41D42480678A8
:1015B0001F4801193046FFF778FCE41C2022214621
:1015C000641C1B48425400222146641C42540021E2
:1015D000FFF783FF00241648204438A10A68026000
:1015E00089888180A41D3448467811480119304605
:1015F000FFF75BFCE41C20222146641C0C4842548B
:1016000000222146641C42540021FFF766FF00249B
:10161000074820442BA10A68026089888180A41DA4
:101620002A480678024801193046FFF73EFC4FE091
:10163000E0460020D200002028AA01080AAA0108DA
:1016400014AA01082053554D200000002053554D89
:101650003A000000205043533A00000044454E4FEA
:101660003A000000D4000020DC000020D800002058
:10167000444700201E000020D300002073000020FB
:10168000B6000020AB000020C00000200CED00E000
:101690000000FA054C000020860000208700002092
:1016A00034AA0108B2E2B3A43A0000008214002078
:1016B000B4C5D0D4313A000028000020B4C5D0D43D
:1016C000323A0000D1D5C9AB313A2000971400203E
:1016D000E41C20222146641CF6484254F648467811
:1016E000F44801193046FFF7E0FBE41C20222146B4
:1016F000641CF0484254F0488678EE4801193046A0
:10170000FFF7D3FBE01CC4B220222046611CCCB200
:10171000E8490A5400222046611CCCB2E5490A542B
:101720000021E448FFF7D9FE0024E2482044E3A169
:101730000A68026089888180A41DDF48C678DD4878
:1017400001193046FFF7B1FBE41C20222146641C3E
:10175000D8484254D8480679D64801193046FFF790
:10176000A4FBE41C20222146641CD2484254D248E7
:101770004679D04801193046FFF797FBE01CC4B208
:1017800020222046611CCCB2CA490A5400222046BD
:10179000611CCCB2C7490A540021C648FFF79DFE20
:1017A0000024C4482044C7A10A6802608988818057
:1017B000A41DC1488679BF4801193046FFF775FB63
:1017C000E41C20222146641CBA484254BA48C67917
:1017D000B84801193046FFF768FBE41C2022214677
:1017E000641CB4484254B448067AB24801193046E1
:1017F000FFF75BFBE01CC4B220222046611CCCB288
:10180000AC490A5400222046611CCCB2A9490A54B2
:101810000021A848FFF761FE0024A6482044ABA1A0
:101820000A68026089888180A41DA348467AA1487D
:1018300001193046FFF739FBE01CC4B220222046D4
:10184000611CCCB29B490A549B48867A0846011910
:101850003046FFF72AFBE01CC4B220222046611C60
:10186000CCB294490A549448C67A084601193046C5
:10187000FFF71BFBE01CC4B220222046611CCCB247
:101880008C490A5400222046611CCCB289490A5472
:1018900001218848FFF721FE0024864820448DA1BD
:1018A0000A6802604A684260098901810A348C48EA
:1018B0000678804801193046FFF7F7FAE41C202229
:1018C0002146641C7B48425400222146641C425439
:1018D0000021FFF702FE00247648204481A10A6817
:1018E000026009790171641D804806787148011908
:1018F0003046FFF7DAFAE41C20222146641C6D48CA
:10190000425400222146641C42540021FFF7E5FDA9
:1019100000246848204476A10A68026009790171B0
:10192000641D75480678634801193046FFF7BDFA13
:10193000E41C20222146641C5E48425400222146B9
:10194000641C42540121FFF7C8FD0024594820447B
:101950006AA10A88028089788170E41C6848067848
:10196000544801193046FFF7A0FAE41C2022214612
:10197000641C5048425400222146641C42540121F8
:10198000FFF7ABFD00244B4820445EA10A8802808B
:1019900089788170E41C474A11195B4A1078FFF777
:1019A00084FAE41C20222146641C4248425400224E
:1019B0002146641C42540021FFF78FFD00243D4A5C
:1019C0001119514A5078FFF770FAE41C2022214681
:1019D000641C3848425400222146641C42540121B0
:1019E000FFF77BFD00243348204448A109680160CB
:1019F000241D4021474805F09CFD06462D4801194D
:101A00003046FFF752FAE41C20222146641C294884
:101A1000425400222146641C42540021FFF75DFD20
:101A200080213C4805F085FD0646224801193046D4
:101A3000FFF73BFAE41C20222046611CCCB21D4972
:101A40000A5400222046611CCCB21A490A540021D3
:101A50001848FFF742FD4FF480712E4805F069FDEC
:101A60000646144801193046FFF71FFAE01CC4B2BD
:101A700020222046611CCCB20E490A540022204686
:101A8000611CCCB20B490A5401210A48FFF725FD1D
:101A900001212148FFF721FD70BD70B51F48007876
:101AA000012805D1FEF770FE18B900201B49087007
:101AB00017E335E0E046002097140020D1D5C9ABEC
:101AC000323A2000D1D5C9AB333A2000D1D5C9ABC9
:101AD000343A2000BAECCDE2B7A2C9E4203A0000C3
:101AE00020000020C2EBC5CC3A00000062000020BC
:101AF000BDF8B3AE3A0000002B00002055563A0066
:101B00002A00002050533A002C0000204B45593A3F
:101B1000000000000010014060B0040840010020F7
:101B2000FEF74FFE0546F84800780028C0D1A62DE4
:101B300078D01ADC682D57D00EDC622D27D006DC59
:101B4000422D20D0482D4ED0612D6CD123E0652D43
:101B500024D0672DF9D148E0A5F1A000062862D273
:101B6000DFE800F04649727B848CA5F1A7000F28BE
:101B7000F5D2DFE800F08D969FA3A7FEFDFC585834
:101B8000FBFAF9F8F7000020E0490870A8E201200C
:101B9000DE490870A4E2FEF7F1FFA1E20020DC4973
:101BA00008704FF40071DB4805F0DDFC0120DA49D4
:101BB00008706420FEF777FB0020D8490870D849E8
:101BC0000880D8490880D8490860D8490880012091
:101BD000D7490870D7490870D74908704FF4167074
:101BE000D64908807CE27BE27AE2FEF7CFFE77E21C
:101BF000FFF7AAFC74E2D2480078A8B90320FFF7E7
:101C0000F4FB03F0FCF92021CE4805F0ACFC0120E8
:101C1000CD4908700020BE4908700121CBA0FFF714
:101C20005CFC10E02FE05AE20020FFF7DEFB012011
:101C3000B74908700020CA490870FFF7BFFB0121AF
:101C4000C8A0FFF74AFC4BE24FF40071B14805F021
:101C50008AFC0120B049087042E24FF40071AD489F
:101C600005F083FC0020AC49087039E20120FFF741
:101C700051FC0121BFA0FFF730FC31E24021B14807
:101C800005F071FC2CE24021AE4805F06EFC27E225
:101C9000BA48007810B103F0B2F901E003F029FA74
:101CA0001EE2B648007810B103F0A9F901E003F094
:101CB0002CFA15E20120B249087011E20020B04967
:101CC00008700DE24FF40071924805F04CFC0120C1
:101CD000914908700020FFF788FB01208C490870AB
:101CE0006420FEF7E0FA1522A649A74807F099FA02
:101CF0000121A6A0FFF7F1FB00240EE02020A64959
:101D00000870A149085DA449491CFFF7CEF80021DD
:101D1000A148FFF7E2FB601CC4B2152CEEDB0121E9
:101D2000AFF2DC60FFF7D9FB152297499B4807F01B
:101D300078FA02209A49087000209A4908705421C4
:101D4000994807F0DDFA1521984807F0B7FA2A21DB
:101D5000974807F0B3FAFF222A21964807F0A6FA1F
:101D6000012107E09EE1B2E095E080E06AE040E01A
:101D700018E003E090A0FFF7B0FBB1E196480078CF
:101D8000012807D1002094490870012193A0FFF792
:101D9000A4FB06E0012090490870012194A0FFF700
:101DA0009CFB9DE197480078012807D100209549C8
:101DB0000870012194A0FFF790FB19E001209149E0
:101DC0000870012193A0FFF788FB4FF47A70FEF7AB
:101DD0006AFA4FF480514F4805F0C7FB4FF40051A9
:101DE0004C4805F0C2FB4FF480414A4805F0BDFB6A
:101DF00076E18B480078022811D1C102454805F0F0
:101E0000B4FB4FF40051434805F0AFFB4FF4804161
:101E1000404805F0AAFB03208149087011E0804882
:101E2000007818B901207E4908700AE07C480078E3
:101E3000012803D102207A49087002E00020784985
:101E400008704DE100206F490870FFF7CEFA0120BD
:101E50002F4908706420FEF726FA012050490870C7
:101E600070490870012170A0FFF737FB38E16D4819
:101E70000078012807D100206A490870012170A06C
:101E8000FFF72BFB06E0012066490870012171A0D5
:101E9000FFF723FB24E17448007801280BD11021BF
:101EA0001C4805F062FB00206F49087001216FA0FB
:101EB000FFF713FB0AE01021164805F054FB012040
:101EC0006949087001216CA0FFF707FB08E11E4873
:101ED000007801280BD120211A4805F046FB00208C
:101EE00019490870012167A0FFF7F7FA0AE02021DD
:101EF000144805F038FB012013490870012165A042
:101F0000FFF7EBFAECE000004C0000208A00002014
:101F100073000020000C014020000020720000200F
:101F2000A00000209E00002090000020A6000020BD
:101F3000460000209B000020980000207000002038
:101F40001E000020000801402200002053454E538F
:101F50004F525F564945575F535441544500000066
:101F6000D30000204E4F524D414C5F5354415445D5
:101F7000000000006265657000000000160100208E
:101F8000BD0000208214002004130020BFD5D4D847
:101F9000BAECCDE2D6B50000E0460020D094002097
:101FA0002A0100202B01002020AD002074AD00206C
:101FB000B4AD0020DEAD0020BFAACABCBAF1B0D7D4
:101FC000D6BDD0A3D5FD2CB7C5C8EB383067BAF164
:101FD000B0D7D6BD000000008B000020B2E2B3A451
:101FE000CAE4B3F6D0A3D5FDCAFDBEDD00000000F3
:101FF000B2E2B3A4CAE4B3F6D4ADCABCCAFDBEDD36
:102000000000000025000020D1D5C9ABB5C6B4F250
:10201000BFAA0000D1D5C9ABB5C6B9D8B1D50000AB
:10202000230000208C000020BFAACABCD1D5C9ABB8
:10203000D0A3D5FD2CB7C5C8EB4134D6BD000000F8
:10204000D1D5C9ABCAE4B3F6D0A3D5FDCAFDBEDD78
:1020500000000000D1D5C9ABCAE4B3F6D4ADCABC08
:10206000CAFDBEDD00000000210000205556B5C6A7
:10207000B9D8B1D5000000005556B5C6B4F2BFAA14
:1020800000000000BDF8B3AEBAECCDE2B9D8B1D5CE
:1020900000000000BDF8B3AEBAECCDE2B4F2BFAAC6
:1020A00000000000FB48007801280BD14102FA48EB
:1020B00005F05BFA0020F74908700121F7A0FFF74F
:1020C0000CFA0BE04FF40071F34805F04CFA0120D4
:1020D000F04908700121F5A0FFF7FFF900E000BF0B
:1020E00000BF70BDF5480068401CF4490860F44822
:1020F0000078012806D1F348F3490978405CF34998
:10210000088006E0F248F049097830F81100EF49FC
:102110000880F0480068ED4909880844ED490860E6
:10212000ED48E949097830F81100401CEA49E64ACF
:10213000127821F812007047E148007801283CD15C
:10214000E6480078132833D2DFE800F00A0B0C10C1
:1021500011121617181C1D1E22232428292A2E00AE
:1021600000BF00BF0020D849087025E000BF00BFB5
:102170000120D54908701FE000BF00BF0220D249EE
:10218000087019E000BF00BF0320CF49087013E0BA
:1021900000BF00BF0420CC4908700DE000BF00BFA5
:1021A0000520C949087007E00620C749087003E008
:1021B0000720C549087000BF34E0C84800780E28E1
:1021C0002BD2DFE800F007080C0D111216171B1CAC
:1021D0002021252600BF0020BB49087021E000BF58
:1021E0000120B94908701CE000BF0220B649087000
:1021F00017E000BF0320B449087012E000BF0420BC
:10220000B14908700DE000BF0520AF49087008E033
:1022100000BF0620AC49087003E00720AA490870F7
:1022200000BF00BF70472DE9FE4F4FF078094FF017
:10223000320A002446E0AA4931F8140008F0D4F923
:102240008346A84908F0A2F80546A5492C3131F883
:10225000140008F0C9F98346A24908F097F8074628
:102260003946284608F054F915D03946284608F072
:10227000A5FA0290504608F0B7F90190484608F0D8
:10228000B3F90090019908F099FA8346029908F091
:102290007DF8804601E04FF000082946404608F0EE
:1022A000B7F98346484608F09FF95946029008F06E
:1022B00085FA06468C4840F824808C4941F8246011
:1022C000601CC4B2152CB6DBBDE8FE8F70B50025CE
:1022D00000241EE0202086490870C4F11401854ABC
:1022E000505C05228249491CFEF7B7FD0021804859
:1022F000FFF7F3F8012C01DB132C02DD681CC5B2DB
:1023000005E07C48005D052801DB681CC5B2601C47
:10231000C4B2152CDEDB0121AFF6D440FFF7DDF8A7
:10232000002412E0202072490870C4F11401724A9E
:1023300032F8110005226E49491CFEF78EFD00217E
:102340006B48FFF7CAF8601CC4B2152CEADB012108
:10235000AFF60C50FFF7C1F8002413E020206449C9
:102360000870C4F11401654A32F8211088B20522C0
:102370005F49491CFEF771FD00215D48FFF7ADF88C
:10238000601CC4B2152CE9DB0121AFF64450FFF705
:10239000A4F8002412E0202055490870C4F114016B
:1023A000574A32F8110005225149491CFEF755FDE4
:1023B00000214F48FFF791F8601CC4B2152CEADBEE
:1023C0000121AFF67C50FFF788F8002412E02020AE
:1023D00047490870C4F114014A4A32F81100052235
:1023E0004349491CFEF739FD00214148FFF775F8C4
:1023F000601CC4B2152CEADB0121AFF6B450FFF724
:102400006CF80121AFF6C050FFF767F8152D40D1E9
:102410003D480078022879D10121AFF6D450FFF76A
:102420005CF8002431E03348005D022825DD3148A6
:10243000005D801E2F490855304850F8240030496F
:1024400031F81410401A2D4941F82400084650F87C
:1024500024002C4931F81410401A284941F824006E
:10246000084650F824002349095DB0FBF1F081B221
:102470001B482C3020F8141005E04FF4FA7118486E
:102480002C3020F81410601CC4B2152CCBDB0024B7
:1024900050E0E3E020000020000C0140B2E2B3A4D1
:1024A000BAECCDE2B9D8B1D500000000B2E2B3A4D5
:1024B000BAECCDE2B4F2BFAA00000000D4000020C4
:1024C000D20000200AAA010829010020DC00002017
:1024D00014AA0108D800002044470020430100202E
:1024E0001C130020000020416C350020C035002066
:1024F000E046002074AD00208AAD002020AD002011
:10250000B4AD0020DEAD00202A0100203AE02020FA
:10251000F9490870C4F11402F84931F81200052293
:10252000F549491CFEF799FC0021F348FEF7D5FF59
:10253000601CC4B2152CEADB0121AFF6F460FEF793
:10254000CCFF0121AFF60070FEF7C7FF0320EC4976
:1025500008700020EB4908705421EB4806F0D0FECB
:102560001521EA4806F0AAFE2A21E94806F0A6FE4F
:10257000FF222A21E74806F099FE0121E6A0FEF796
:10258000ACFF6BE0DE480078032867D10121AFF68D
:102590004870FEF7A2FF002431E0DC48005D02280D
:1025A00025DDDA48005D801ED8490855D64850F828
:1025B0002400D74931F81410401AD34941F82400B7
:1025C000084650F82400D34931F81410401ACE4977
:1025D00041F82400084650F82400CC49095DB0FBBE
:1025E000F1F081B2C5482C3820F8141005E04FF402
:1025F0009661C2482C3820F81410601CC4B2152C07
:10260000CBDB002413E02020BB490870C4F1140286
:10261000BA492C3931F812000522B749491CFEF796
:102620001CFC0021B448FEF758FF601CC4B2152CF6
:10263000E9DB0121AFF6F070FEF74FFF0121AFF6A5
:10264000F870FEF74AFF0020AD4908700121BAA0DA
:10265000FEF743FFFEF732F9FFF7E5FD70BD70B5F9
:102660008CB0B8480088B8490880002404E00020F5
:102670004DF82400601CC4B20C2CF8DB0026142595
:1026800016E0701CC6B200240EE05DF82400C4EB16
:10269000041101EB8101AD4A02EB8101495D08445F
:1026A0004DF82400601CC4B20C2CEEDB681CC5B2D3
:1026B000A54800881438A842E3DC00241EE0002E60
:1026C00008DD5DF82400B0FBF6F0C1B28B482D3078
:1026D000015503E0002189482D300155202086490D
:1026E000087086492D31085D8349491CFEF7DDFBE2
:1026F00000218148FEF7F1FE601CC4B20C2CDEDB29
:1027000000207F49087001218BA0FEF7E6FEFEF74E
:10271000D5F80CB070BD10B58D48007801287DD17A
:1027200000208B4908708B4800780028F7D102F010
:1027300066FC73480078012802D1FFF790FF5AE049
:102740006F480078012804DD02F00CFDFFF7BEFDA4
:1027500051E081480078012803D1804803F0DFF977
:1027600002E07E4803F02EFB102003F0FBFC00206B
:1027700003F0FBFC4FF6FF7003F0FAFC03225E4906
:1027800077480078FEF7CEFBBE22DC215A4803F0E2
:10279000F2FC0322584973480078FEF7C3FBBE22BF
:1027A000FA21554803F0E7FCFFF7C6FC6E480078B5
:1027B000072807DAFFF796FC0120FEF7ABFEFEF7CD
:1027C00090FC12E00320FEF7A5FE182003F0CAFCDF
:1027D0004FF4784003F0C9FC4FF6FF7003F0C8FCDB
:1027E0003C22F42161A003F0C6FC62480078012875
:1027F00001D1FEF7C3F96048008820F004005E496B
:1028000008805E48007860B90846008840F00800FB
:10281000088002F06EFC9620594900E00CE0087038
:102820000AE05548008840F040005349088002F013
:102830006CFCFA205349087010BD10B50446082CF2
:1028400012D2DFE804F00412202E3C4AA7B54FF460
:1028500080514D4804F089FE04214C4804F085FE67
:1028600008214B4804F081FEB0E04FF48051464807
:1028700004F07BFE0421454804F077FE082144481B
:1028800004F071FEA2E04FF480513F4804F06DFE69
:1028900004213E4804F067FE08213D4804F065FE2F
:1028A00094E04FF48051384804F05FFE042137482B
:1028B00004F059FE0821364804F055FE86E04FF436
:1028C0008051314804F04FFE0421304804F04DFEA1
:1028D00008212F4804F049FE78E04FF480512A483F
:1028E00004F041FE0421294804F03FFE0821284855
:1028F00004F039FE6AE00000E046002048130020A2
:102900002A0100202B01002020AD002074AD002002
:10291000B4AD0020DEAD0020BFAACABCB1A1B0D7C3
:10292000D6BDD0A3D5FD2CB7C5C8EB343067B1A157
:10293000B0D7D6BD00000000D0A3D5FDCDEAB3C905
:1029400000000000A6000020260100200D9F0020AE
:10295000520000201E000020D20000206B15002035
:102960004301002044010020290100202053555339
:10297000500000008A000020B6000020BD000020AA
:10298000BB000020BC0000200010014000140140EA
:10299000000C01404FF48051FE4804F0E4FD042196
:1029A000FD4804F0E0FD0821FC4804F0DEFD0DE0E8
:1029B0004FF48051F74804F0D6FD0421F64804F0A6
:1029C000D2FD0821F54804F0CEFD00BF00BF10BDC8
:1029D00010B50121F24803F08EFE10BD10B5FFF7CF
:1029E000F7FF00BF022004F003F90028FAD002200C
:1029F00004F012F910BD70B500220221E94804F07C
:102A0000E8F80320FDF74FFC0020E749087008466E
:102A10000078FFF712FF002502E1FFF7DFFF002437
:102A200012E0E24850F82400C0F30720E04901F822
:102A30001400DE4850F82400000E012101EB44018F
:102A4000DB4A5054601CC4B2052CEADBD848407AFB
:102A5000D8490870D648C078D7490870D44840781B
:102A60004870D3480078D5490870D1480079D449D6
:102A70000870CF48007A4870CB48007807280FD2FA
:102A8000DFE800F0040F1A3E6286AA00C8484079C9
:102A9000CC490870C6488079C871C548C079887328
:102AA000A5E0C3484079C7494870C1488079087299
:102AB000BF48C079C8739AE0BD484079C149887061
:102AC000BB4880794872BA48C0790874BE4800781B
:102AD00020B9B7488078BD49087010E0BA4800783E
:102AE000012804D1B2488078B849487007E0B64858
:102AF0000078022803D1AE488078B449887076E027
:102B0000AB484079AF49C870A94880798872A84815
:102B1000C0794874AC48007820B9A5488078AB49A2
:102B2000C87010E0A8480078012804D1A048817836
:102B3000A648017107E0A4480078022803D19C4808
:102B40008178A248417152E0994840799D490871C5
:102B500097488079C8729648C07988749A480078F6
:102B600020B9934880789949887110E09648007898
:102B7000012804D18E4881789448C17107E09248B9
:102B80000078022803D18A488178904801722EE0AB
:102B9000874840798B494871854880790873844813
:102BA000C079C8748848007820B9814880788749FE
:102BB000487210E084480078012804D17C4881786C
:102BC0008248817207E080480078022803D1784863
:102BD00081787E48C1720AE07548407979498871E8
:102BE0007348807948737248C079087500BF00BF88
:102BF0006D480078401C6C49087008460078072131
:102C000090FBF1F201FB120067490870084600785A
:102C1000FFF713FE4FF4FA70FDF74FFB681CC5B2C7
:102C2000072DFFF6FAAE012202215E4803F0D1FF24
:102C300070BD10B5002466480078012812D100202C
:102C4000634908706348007820B1032803D0052841
:102C500007D105E005E0FFF7CEFEFEF775FC00E0CA
:102C600000BF00BF10BD10B55B480078012830D10F
:102C7000002059490870FEF7D7F85849087058489D
:102C800000784006000E5649087054480078FF2826
:102C900003D008460078401C08705248007800288D
:102CA00049D14E480078FF2814D14F48007850B9D8
:102CB0004E48007838B14D4801780020FDF787FB79
:102CC0000120FEF727FC14204949087002204649DC
:102CD000087095E04448007800280BDD42480078F1
:102CE000401E414908700846007818B93B480078F2
:102CF0003E4908703E48007800281BDD3C480078BB
:102D0000401E3B49087008460078002878D13949B0
:102D1000087001203349087030480078364908703F
:102D2000084600782030C1B20020FDF750FB01209A
:102D3000FEF7F0FB64E0294800782F4909788842C3
:102D400016D12C48007800285ADD2A480078401E09
:102D50002849087008460078D0B927480078203004
:102D6000C1B20020FDF733FB0120FEF7D3FB47E0A3
:102D700000201C490870FF201F4908701B4908707B
:102D8000022019490870142019490870002035E004
:102D900036E000000010014000140140000C01402A
:102DA0000024014008000240240000206414002098
:102DB000781400202B0000202C0000202A00002086
:102DC00028000020821400202300002097140020F7
:102DD0007B0000201E000020CC000020CF0000203F
:102DE000D1000020CB000020C6000020C900002038
:102DF000C7000020C8000020CA000020FE4908705B
:102E000010BD10B5FD48007820BBFD4800780128B2
:102E100014D1FC480088E8B9FB480078D0B902F02A
:102E200068F9F848008840F00100F6490880F4206D
:102E3000F64908700020F64908800BE0F148007858
:102E400000F02000002805DDEE48008820F020007A
:102E5000EC49088010BD10B54FF40071ED4804F046
:102E600082FB0120EC49087002F043F96420FDF771
:102E70001AFA0020E9490880E94908604FF47A709D
:102E8000FDF711FA02F041F94FF47A70FDF70BFAF1
:102E900002F0B5F84FF40071DE4804F066FB002044
:102EA000DD49087010BD704710B5DE4803F0B8FD6D
:102EB000DD48DE490860DE48486000208860052063
:102EC000C86000200861802048618000886180001F
:102ED000C861202008620002486200208862D14850
:102EE00003F040FE10BD00B587B00121480204F098
:102EF000F6FD0121880204F0F2FD0121084604F0EC
:102F0000E1FD1720ADF8000000208DF803006946B0
:102F1000C84804F07BFA3F20ADF8000000208DF88F
:102F200003006946C44804F071FAFFF7BDFF0122AF
:102F30000221BC4803F04DFE0B208DF81800012043
:102F40008DF819008DF81A008DF81B0006A803F003
:102F5000D6FAB5484C3803F03BFB4FF4C020019043
:102F600001208DF8080000208DF809004FF4602042
:102F700003904FF40060049005208DF8140001A91F
:102F8000A9484C3803F04BFB01231A460021A64800
:102F90004C3803F0DCFB012302220421A2484C3808
:102FA00003F0D5FB012303220A219F484C3803F08C
:102FB000CEFB012304220C219B484C3803F0C7FBB5
:102FC000012305220E2198484C3803F0C0FB9B4892
:102FD00003F0FEFA4FF4C020019001208DF80800A4
:102FE00000208DF809004FF4602003904FF400603A
:102FF000049005208DF8140001A9904803F00FFB00
:1030000001231A4619468D4803F0A1FB0123022231
:1030100011468A4803F09BFB012303220B218748BA
:1030200003F095FB012304220D21844803F08FFB5C
:10303000012305220F21814803F089FB01217F48EC
:1030400003F0E1FB012178484C3803F014FB76488B
:103050004C3803F032FB00BF73484C3803F032FBAE
:103060000028F9D170484C3803F036FB00BF6E4899
:103070004C3803F036FB0028F9D101216F4803F0EA
:10308000FAFA6E4803F019FB00BF6C4803F01AFB14
:103090000028FAD1694803F01FFB00BF674803F01E
:1030A00020FB0028FAD101215F484C3803F0EEFAEA
:1030B00001215C4803F081FD022003F0ADFD07B063
:1030C00000BD1FB50121084604F016FDB320ADF880
:1030D000000040F2CF70ADF804000020ADF806000B
:1030E000ADF8020069464FF0804004F031FE012245
:1030F0001146900705F0A3F91C208DF80C00002064
:103100008DF80D0001208DF80E008DF80F0003A83A
:1031100003F0F5F90121880705F076F91FBD08B520
:1031200001208DF802004002ADF8000010208DF85B
:1031300003006946374804F069F91020ADF8000033
:103140008DF803006946334804F060F910213148D6
:1031500004F00BFA00203A4908702020ADF8000076
:1031600010208DF803006946324804F04FF9202101
:10317000304804F0FAF90020324908704020ADF8D8
:10318000000010208DF8030069462A4804F03EF93B
:103190004FF48050ADF8000010208DF80300694610
:1031A0001C4804F033F94FF480511A4804F0DDF95B
:1031B0004FF40050ADF8000010208DF80300694670
:1031C000144804F023F94FF40051124804F0CDF9EB
:1031D0004FF48040ADF8000010208DF803006946E0
:1031E0000C4804F013F94FF480410A4804F0BDF98B
:1031F000012115482AE00000C80000201E00002020
:103200003C000020B600002016010020B90000207C
:10321000A4000020000C014020000020A00000209D
:1032200090000020080002404C2401403814002087
:1032300064140020000801400010014000280140F3
:1032400021000020220000200002300004F0AFF92D
:103250000820ADF8000010208DF803006946FE48F4
:1032600004F0D4F80420ADF8000010208DF803001D
:103270006946FA4804F0CAF84FF48050ADF80000EF
:1032800010208DF803006946F54804F0BFF80020CF
:10329000FFF7D3FA4020ADF8000048208DF8030076
:1032A0006946EF4804F0B2F88020ADF800004820ED
:1032B0008DF803006946EA4804F0A8F84FF48070DE
:1032C000ADF8000048208DF803006946E44804F09A
:1032D0009DF84FF48070ADF8000004208DF80300D5
:1032E0006946DD4804F092F808BDC820DD4981F840
:1032F000E0000021DB4880F8E11080F8E91080F858
:10330000EF1080F8EA10012180F8E210002180F827
:10331000E310012180F8E410002180F8E51080F826
:10332000E61080F8E710012180F8EB1080F8EC102F
:10333000322180F8ED10642180F8EE1070470320F0
:10334000C84981F8B0004621C64880F8B110412133
:1033500080F8B2103C2180F8B310372180F8B41007
:103360000A2180F8B510962180F8B6100A2180F85D
:10337000B710962180F8B810642180F8B910372171
:1033800080F8BA10412180F8BB105A2180F8BC1097
:10339000732180F8BD103C2180F8BE10462180F8D2
:1033A000BF103C2180F8C010502180F8C1100C21C2
:1033B00080F8C210172180F8C3101D2180F8C410B6
:1033C0002E2180F8C510162180F8C610242180F81F
:1033D000C710272180F8C810342180F8C9102B218C
:1033E00080F8CA103C2180F8CB10912180F8CC10D5
:1033F000822180F8CD10782180F8CE10704700200F
:1034000006E09949095C974A42F82010411CC8B26D
:103410000328F6DB704700B500230EE09348C15C3B
:103420009048103040F833109048C15C8D481030FF
:1034300000EBC3004160581CC3B2032BEEDBFFF767
:10344000DEFF00BD10B5FFF7E6FF0A20854981F8D1
:10345000A0002A218348483005F030FF2A21814806
:10346000743005F02BFFFF2215217E48303005F027
:103470001DFF10BD10B5FFF7E5FFFFF760FFFFF779
:1034800034FF10BD0EB505F028FD4FF48031C802A1
:1034900003F067F84FF4806004F0E8F9002004F0CE
:1034A000EEF94FF4004004F005FA01213D2004F04C
:1034B00016FB0121480204F012FB0121880204F0EE
:1034C0000EFB0121880304F00AFB01F065FFFCF705
:1034D0003EFFFCF7C3FEFDF7E3F9FDF7E2F96148B3
:1034E000D0F860016249884217D05E48D0F8600188
:1034F00000F07040B0F1004F05D0FFF7BBFF002097
:10350000FDF71BFA03E0FFF71AFFFFF7EEFE58483E
:103510005449C1F86001FDF7D1F9FFF700FEFFF74C
:10352000D0FD01F077FD0821012004F085F84FF46B
:103530008070009000208DF804000C208DF80500AC
:1035400001208DF80600684603F0A2FB17208DF8D5
:10355000080003208DF8090000208DF80A000120E2
:103560008DF80B0002A802F0CAFFFFF7BCFC0EBDED
:103570004FF47A70FCF797FEFFF784FF0A20FCF700
:1035800092FE4FF6FF7002F0DDFD4FF4784002F03E
:10359000ECFD4FF6FF7002F0EBFD182002F0E2FDAB
:1035A0006C227C2133A002F0E6FD4FF4FA70FCF7A8
:1035B0007AFEFFF778FCFFF74EFC00202F490870D9
:1035C0002F490870FEF72FFE1522264930312D486D
:1035D00005F027FE4FF400711F4803F0C4FF0120DF
:1035E000294908700020FDF700FF012027490870D5
:1035F000002027490870FDF7EBFEFDF7DFFE0120F4
:10360000FDF788FF4FF48051134803F0AEFF4FF4ED
:103610000051114803F0A9FF4FF480410E4803F018
:10362000A4FFA7E01B480078012802D10020194917
:10363000087019480078012806D100201649087042
:1036400016480088164908801648007801282DD1B0
:1036500000201449087027E0000C014000140140CC
:1036600000100140D4120020DDA90108D9A90108E9
:103670005311068757454C434F4D450038000020F5
:103680003C000020D0940020200000207300002087
:10369000D30000207A00002072000020A00000204B
:1036A00022010020AC000020FDF708FCFB48007858
:1036B00001280AD10020F94908704FF40071F84838
:1036C00003F053FF0020F7490870F74800780128FD
:1036D0003BD1F6480078A0BBF548007888BBF54898
:1036E0000078401CF3490870084600780A2824DD59
:1036F0004FF40071EA4803F036FF0120E9490870F1
:1037000001F003FD4FF4FA70FCF7CDFD01F077FCFA
:103710000020E9490870FDF768FE0120E7490870BC
:103720000020E7490880FDF753FEFDF747FE012022
:10373000FDF7F0FE0020DF4908700A20FCF7B3FD1A
:1037400003E0FFE70020DB490870DE48007801282D
:1037500004D10020DB49087001F051FCFFF751FB58
:10376000FFF781FAFFF765FAFEF7D5FFFEF795F947
:10377000FDF7A0FE56E72DE9F04705460C46D24876
:10378000005D0A38A84202DC2846BDE8F0872846DA
:1037900006F02AFF8246CD4951F82400514606F032
:1037A00037FF0746CA4850F82410384606F080FD17
:1037B0000646304606F050FD07460022134606F046
:1037C000E5FA01D8002609E0304606F045FD074637
:1037D0000022C04B06F014FC00D2BF4E304606F06B
:1037E000CBFE00F0FF094846CFE730B50346302551
:1037F000541E0D5500248C5410460FE00A2493FBF0
:10380000F4F504FB15343034E5B2441E0D55E0B236
:1038100000B905E00A2493FBF4F4A3B2002BEDDC1D
:1038200000BF904201D1441EE0B203E03025441EA7
:103830000D55E0B20028F9DC30BD10B50246104647
:103840000A2807DA30230B704B708B7000F13003BD
:10385000CB7052E064280FDA30230B704B700A23D0
:1038600090FBF3F330338B700A2390FBF3F403FBEC
:1038700014033033CB7040E0B0F57A7F19DA30238F
:103880000B70642390FBF3F330334B70642390FB95
:10389000F3F403FB140398B20A2390FBF3F33033E1
:1038A0008B700A2390FBF3F403FB14033033CB70CB
:1038B00023E04FF47A7390FBF3F330330B704FF443
:1038C0007A7390FBF3F403FB140398B2642390FB28
:1038D000F3F330334B70642390FBF3F403FB1403D6
:1038E00098B20A2390FBF3F330338B700A2390FBDA
:1038F000F3F403FB14033033CB7000230B7110BDC2
:1039000010B500247548011975480078FFF795FF38
:10391000241D202071490855641C7248007807282E
:1039200017D10846204470496E4A127851F8221087
:103930000A6802604968416004F10800C4B267483F
:103940000119022269480078FFF74FFFA01CC4B29A
:103950000FE0624801196448624A127850F8220068
:1039600002680A6042684A608068886004F10C005E
:10397000C4B2002059490855601CC4B201215748FF
:10398000FDF7ABFD10BD10B5FDF7ABFB0120FDF75A
:10399000C1FD01F0C6FB0C20FDF727FD10BD10B5E1
:1039A0000120FDF7B7FD01F0BCFB0E20FDF71DFD6A
:1039B00010BD10B5FFF723FD01F021FB002001F041
:1039C000F9FA01F096FB40F6B830FCF76CFC484879
:1039D00001784848484A127840F8321001F00FFB4D
:1039E00001F093FB40F6B830FCF75DFC43480178EA
:1039F0004048414A127800EBC200416001F0FFFAF2
:103A0000012001F0D7FA01F074FB40F6B830FCF762
:103A10004AFC374801783748374A127840F8321064
:103A200001F0EDFA01F071FB40F6B830FCF73BFC19
:103A3000324801782F48304A127800EBC2004160CA
:103A400001F0DDFA022001F0B5FA01F052FB40F678
:103A5000B830FCF728FC264801782648264A127818
:103A600040F8321001F0CBFA01F04FFB40F6B830CD
:103A7000FCF719FC214801781E481F4A127800EB18
:103A8000C200416001F0BBFAFCF718FF1949103978
:103A900091F8E10001F08EFA10BD000080000020D6
:103AA000000C0140200000201E0000203C000020EF
:103AB0003100002032000020AB0000207300002005
:103AC000B6000020BE000020D09400206C350020FD
:103AD000C035002000E06F4000007F43E04600203A
:103AE0005300002029010020E400002028010020CC
:103AF0001C010020E4120020170100201D010020FD
:103B000010B504462020FC49087045204870022268
:103B1000891C2046FFF769FE10BD64281FDB0022C8
:103B2000CA700A2290FBF2F302FB130230328A7051
:103B30000A2290FBF2F2D0B20A2290FBF2F302FBCF
:103B4000130230324A700A2290FBF2F2D0B20A22FB
:103B500090FBF2F302FB130230320A701FE00A28D6
:103B600014DB00228A700A2290FBF2F302FB13029C
:103B700030324A700A2290FBF2F2D0B20A2290FB55
:103B8000F2F302FB130230320A7008E000224A709E
:103B90000A2290FBF2F302FB130230320A707047E4
:103BA00010B5D648007809280FD0D348D4A1098889
:103BB0000180D4490978133188B20222CE49891C88
:103BC000FDF74BF90120FDF710FC4FF40071CE48D2
:103BD00003F0C9FC0120CD49087001F010FA032060
:103BE000FDF798FC0120CA49087010BDF0B50146E8
:103BF0000A2901DA4C20F0BD4C27C648008801FB99
:103C000001054C2301F14C042BE004EB030C1FFADB
:103C10008CF000EBD07C4FEA6C02FF2A06DDFF221D
:103C2000FF24E01800EBD07CCCF34F0202FB02F043
:103C300086B2A5F11400B04204D82830864201D8DB
:103C40001046D8E7D81C844206DCE0181FFA80FC36
:103C50000CEBDC704010CEE7AE4201D2134600E020
:103C60001446D2E770B505460E464C246C433046E8
:103C7000FFF7BCFFB4FBF0F4A0B270BD7FB5054602
:103C80000021A54804F0C0FB0121042003F034FF0B
:103C900025B1012D05D0022D09D105E04FF4E174C5
:103CA00006E04FF4C87403E04FF4B47400E000BFC2
:103CB00000BFB320ADF8000040F22B10ADF80400B7
:103CC0000020ADF80600ADF802006946924804F005
:103CD0003FF801221146904804F0B1FB1E208DF8F8
:103CE0000C0000208DF80D0001208DF80E008DF8DD
:103CF0000F0003A802F003FC0121874804F084FBB5
:103D00007FBD10B585480078401C8449087008467E
:103D100000780521B0FBF1F201FB12007F49087029
:103D20007F480978405C38B920217E4803F01DFCAB
:103D300000207D49087006E020217A4803F013FC3A
:103D400001207949087010BD10B5044620687749F4
:103D50000840B0F1005F0CD1606875490860084602
:103D60000068744908602068FCF771FA71480068BF
:103D7000804710BD704700BFFEE700BFFEE700BFF1
:103D8000FEE700BFFEE770477047704710B56A480E
:103D90000088002804DD68480088401E66490880C5
:103DA00066480068401C6549086065480088401CFA
:103DB0006349088008460088B0F57A7F07DB012058
:103DC000604908706049087000205D4908805F48BC
:103DD000007800280DDD5D480078401E5B490870C2
:103DE0000846007828B9012059490870142057491D
:103DF00008705848008800280ADD56480088401E90
:103E0000544908800846008810B9012052490870BA
:103E10005248007801285BD138480078032857D0F1
:103E200041480078B8B14E4800784E4908804C4867
:103E300000783C2805DD4C480078401C4A49087051
:103E400020E04948007800281CDD47480078401EE3
:103E50004549087016E042480078444908804048C7
:103E600000783C2805DA40480078401C3E4908703C
:103E700008E03D480078002804DD3B480078401EFB
:103E8000394908703A480078401C3949087008469A
:103E9000007805281CDB00200870FFF732FF35484A
:103EA0000078401C33490870084600780A280FDB68
:103EB000002008702C4800781E2803DB01202E49C2
:103EC000087002E000202C49087000202649087084
:103ED00010BD10B52021294804F01EFF50B127481D
:103EE00004F0B0FEC4B22046FCF72EFB01202449AA
:103EF00008705EE046E00000E04600201E00002062
:103F000020450000AB000020000C014020000020F4
:103F1000AC00002004010020000800400601002041
:103F200044AA010800080140220000200000FE2FE2
:103F30000C01002008010020DE00002048000020C5
:103F4000100100207A0000207B000020CE0000201D
:103F5000CC0000207E0000208000002073000020A4
:103F60002B00002036000020380000203400002004
:103F7000140100203B0000203C00002000380140DC
:103F80003E0100208021FA4804F0C6FE88B1F948BD
:103F90000088002807DDFCF725FB04462146F4488D
:103FA00004F04CFE05E0002240F22771F04804F0D6
:103FB000E4FD10BD10B52021EF4804F0ADFE50B176
:103FC000ED4804F03FFEC4B22046FCF7EBFB0120B5
:103FD000EA49087016E08021E74804F09DFE88B1A8
:103FE000E7480088002807DDFCF723FC044621464B
:103FF000E14804F023FE05E0002240F22771DE488C
:1040000004F0BBFD10BD10B50121DE4804F0B9FC81
:1040100060B30121DB4804F0BDFCDB4800780128D7
:1040200003D0DA480088002820DDD848008800281E
:1040300015DDD6480088401ED4490880084600880F
:1040400068B900F0DCFF0020D1490870D149087040
:10405000D1480088D14908800020D1490870FEF776
:10406000B7FCD0480068401CCE49086010BD10B5B0
:104070000023CD48007808B9002010BD002300219E
:1040800000220FE0C948845CC948805C0A38844239
:1040900002DA481CC1B203E0994200DD0B46002160
:1040A000501CC2B2162AEDDB994200DD0B46032BF1
:1040B00001DB0120E1E70020DFE7BE4800780128AE
:1040C00071D1BD4800784006000EBB490870BB485E
:1040D0004078B42803DA08460078401C0870B848D5
:1040E0000078002845D1B448007800F00F000F2870
:1040F0006DD10120B2490870B248007803280ED172
:104100000020B1490870B148008820F04000AF4954
:1041100008800846008840F01000088057E0A94851
:104120000078022853D10020A9490870F420A94939
:104130000870A648008840F00200A449088008469C
:10414000008820F0010008803720A349087019205A
:10415000A249087001208E4908700020A0490880FB
:104160008D4908609F4908809F4908809F490880C1
:104170002DE093480078012829D18F48007800F07D
:104180000F0020BB00208E4908708E48007802285E
:104190000AD13720964908701E20964908701220CF
:1041A0009549087013E00DE08648007803280ED189
:1041B0002820924908708548008820F01000834923
:1041C000088004E000207C4908707D490870704731
:1041D00078480078012836D1894800784006000EDA
:1041E0008749087075480078B42803DA08460078D3
:1041F000401C087083480078A0B98148007800F01E
:104200000F000F2824D101207E4908706D480078E6
:1042100003281DD06B480078022819D100206D4971
:10422000087015E077480078012811D174480078AB
:1042300000F00F0060B900207249087061480078F2
:10424000022805D004E000206D4908706D4908700F
:10425000704710B54F480078012839D14E480068A2
:10426000B0F5617F34D2002425E06748007801284A
:1042700003D06648007800280CDD4C48005DC4EB94
:104280004411C1EB0421624A02EB8101424A1268E7
:1042900088540EE04549085D2146FFF76CFAC4EBEF
:1042A0004411C1EB04215A4A02EB81013A4A1268D7
:1042B0008854601CC4B2152CD7DB4B480078554994
:1042C000354A1268885434480068401C32490860F6
:1042D00010BD51480088B0F5FA6F10DA4F480078E9
:1042E0004F494D4A128888544C4841784D484A4AB3
:1042F0001288815448480088401C47490880284853
:104300000078012817D13948008840F2523188429C
:104310002CDA424801784448344A128881543F4894
:1043200041784248314A1288815430480088401C04
:104330002E4908801AE0394800783D493D4A1278F4
:104340008854364841783A4832303A4A1278815493
:1043500038480078401C37490870084600783221F8
:1043600090FBF1F201FB1200324908707047000027
:1043700000380140040000200048004040010020B7
:10438000180000200008004073000020700000208A
:10439000460000209B00002090000020200100200B
:1043A00098000020680000202000002082140020D7
:1043B000D0940020220000203D0000202C0000208E
:1043C0003F00002016010020BC000020B6000020A5
:1043D000B9000020B8000020990000209C000020B7
:1043E000A60000209400002064000020A00000200F
:1043F0009A0000209D00002045000020BA00002007
:104400003E000020410000208B0000202A010020F7
:10441000784700204C910020A400002028000020B4
:1044200078360020483E0020E59400203798002090
:1044300014360020A3000020FE48007801280FD188
:10444000FD480088B0F5617F0ADAFC480078FC4935
:10445000F94A12888854F8480088401CF6490880B8
:104460007047F8480078012829D1F7480088B0F54E
:10447000967F24DAF5480078012856D1F448007870
:1044800002281DD1F3488178F348EF4A12888154FD
:10449000F0484179F148EC4A12888154ED48017A9C
:1044A000EF48E94A12888154EA48C17AED48E64A61
:1044B00012888154E4480088401CE349088087E161
:1044C000E3480078C0B9E3480078E749DE4A12883B
:1044D0008854E048C178E548DB4A12888154DD48B9
:1044E0008179E348D84A12888154DA48417AE14810
:1044F000D54A128881546BE1D6484178DE48D24AC9
:1045000012888154D3480179DC48CF4A12888154FB
:10451000D048C179DA48CC4A12888154CD48817A92
:10452000D848C94A1288815452E1C9480078022803
:1045300072D1C8488078B4214843D34991F8A31078
:1045400090FBF1F0FF2809DAC2488078B421484393
:10455000CD4991F8A31090FBF1F000E0FF20C1B22B
:10456000BD48B94A12888154BA484079B4214843B9
:10457000C54991F8A61090FBF1F0FF2809DAB5487B
:104580004079B4214843C04991F8A61090FBF1F05E
:1045900000E0FF20C1B2B148AB4A12888154AD4857
:1045A000007AB4214843B84991F8A91090FBF1F082
:1045B000FF2809DAA748007AB4214843B24991F8A4
:1045C000A91090FBF1F000E0FF20C1B2A4489E4A80
:1045D000128881549F48C07AB4214843AA4991F86F
:1045E000AC1090FBF1F0FF2809DA9A48C07AB421A8
:1045F0004843A54991F8AC1090FBF1F000E0FF2092
:10460000C1B29848904A128881548F480088401C53
:104610008D490880DCE0FFE78D48007800286BD1E9
:104620008C480078B4214843974991F8A11090FB39
:10463000F1F0FF2809DA87480078B421484392490D
:1046400091F8A11090FBF1F000E0FF2086497E4A2E
:10465000128888547F48C078B42148438A4991F829
:10466000A41090FBF1F0FF2809DA7A48C078B42151
:104670004843854991F8A41090FBF1F000E0FF2039
:10468000C1B27A48704A1288815472488079B42144
:1046900048437D4991F8A71090FBF1F0FF2809DA13
:1046A0006C488079B4214843774991F8A71090FB72
:1046B000F1F000E0FF20C1B26D48634A12888154D6
:1046C0006448407AB42148436F4991F8AA1090FB9E
:1046D000F1F0FF2809DA5F48407AB42148436A497B
:1046E00091F8AA1090FBF1F000E0FF20C1B2614800
:1046F000554A128881546BE056484078B4214843AB
:10470000614991F8A21090FBF1F0FF2809DA5148B5
:104710004078B42148435C4991F8A21090FBF1F035
:1047200000E0FF20C1B25448474A128881544948EA
:104730000079B4214843544991F8A51090FBF1F059
:10474000FF2809DA43480079B42148434E4991F8DB
:10475000A51090FBF1F000E0FF20C1B247483A4AB3
:10476000128881543B48C079B4214843464991F8A6
:10477000A81090FBF1F0FF2809DA3648C079B4217F
:104780004843414991F8A81090FBF1F000E0FF2068
:10479000C1B23B482C4A128881542E48807AB421F9
:1047A0004843394991F8AB1090FBF1F0FF2809DA42
:1047B0002848807AB4214843334991F8AB1090FBE4
:1047C000F1F000E0FF20C1B22E481F4A1288815448
:1047D000704710B5022002F00BFA00287ED00220AC
:1047E00002F01AFA29480068401C28490860002491
:1047F00012E0274850F82400C0F30720254901F8AB
:104800001400234850F82400000E012101EB44015C
:10481000204A5054601CC4B2052CEADB1D48407A83
:104820001D4908701B48C0781C4908701948407819
:10483000487035E0980000209E0000202A000020EB
:10484000899B002046000020A60000208C0000204C
:10485000230000209714002065A10020E9A4002077
:104860006DA80020F1AB00200D9F002091A2002038
:1048700015A6002099A9002039A00020BDA3002082
:1048800041A70020C5AA0020D41200206C000020FF
:1048900064140020781400202B0000202C0000203D
:1048A000FE480078FE490870FC480079FD49087010
:1048B000FA48007A4870FC480078072811D2DFE8EF
:1048C00000F004111C406488AC00F4484079F749BA
:1048D0000870F2488079C871F04800E002E1C079C0
:1048E0008873A5E0ED484079F0494870EB4880793D
:1048F0000872EA48C079C8739AE0E8484079EB4901
:104900008870E64880794872E448C0790874E848BD
:10491000007820B9E1488078E649087010E0E44862
:104920000078012804D1DD488078E249487007E02A
:10493000DF480078022803D1D8488078DD498870A4
:1049400076E0D6484079D949C870D44880798872D1
:10495000D248C0794874D648007820B9CF488078CA
:10496000D449C87010E0D2480078012804D1CB485F
:104970008178D048017107E0CD480078022803D142
:10498000C6488178CB48417152E0C4484079C74954
:104990000871C2488079C872C048C0798874C44818
:1049A000007820B9BD488078C249887110E0C048BD
:1049B0000078012804D1B9488178BE48C17107E068
:1049C000BB480078022803D1B4488178B948017205
:1049D0002EE0B2484079B5494871B04880790873F3
:1049E000AE48C079C874B248007820B9AB48807826
:1049F000B049487210E0AE480078012804D1A748B9
:104A00008178AC48817207E0A9480078022803D178
:104A1000A2488178A748C1720AE0A0484079A3491A
:104A200088719E48807948739C48C079087500BF9A
:104A300000BF9D480078401C9B49087008460078DC
:104A4000FDF7FBFE9848007807280BD1FFF735FBF0
:104A5000FFF7BEFBFFF7FDFBFFF73BFCFFF701FD98
:104A6000FFF7EAFC90480078072803DA0121924812
:104A700001F041FE8C480078072846D100208A4981
:104A8000087008460078FDF7D8FE8C48007848BBCF
:104A900087480078022811D1C102894802F063FDDD
:104AA0000020834908704FF40051854802F05DFDF5
:104AB0004FF48041824802F058FD26E07C4800789F
:104AC00088B94FF480517E4802F04FFD4FF40051F9
:104AD0007B4802F048FD0120754908708103784841
:104AE00002F043FD11E04FF48051754802F03DFDA6
:104AF0004FF40051724802F038FD4FF48041704885
:104B000002F031FD02206A49087010BD10B5012184
:104B1000880703F036FF002868D00121880703F0DA
:104B200039FF6848007800280ADD66480078401E92
:104B3000644908700846007810B90120624908707D
:104B400062480078401C61490870084600780A28CD
:104B500039DB002008705E480078022803D05C48EA
:104B60000078032829D15B48007864280BDA5A487A
:104B700000885A49574A127821F81200554800789F
:104B8000401C5449087056480078C8B952480088FB
:104B90000F280EDA53480088401C52490880084606
:104BA00000880A280CDB01204D490870FEF7F8FF49
:104BB00006E000204B49088002E0002049490880B7
:104BC0000020454908804848007800282ADD4748E9
:104BD0000078401C45490870084600784449097827
:104BE000884204DA4021434802F0BDFC1AE03F4805
:104BF00001783F4800780C30814204DA40213D487A
:104C000002F0B3FC0EE00020384908703648007806
:104C1000401E354908700846007818B940213548CB
:104C200002F0A3FC10BD704710B54FF4807002F085
:104C300086F800286ED04FF4807002F08BF82E4872
:104C40000088401C2C49088023480088401C2249C9
:104C5000088014202949087029480078012804D1C7
:104C600028480078401C2749087027480078012808
:104C700008D117480078022804D124480088401C35
:104C8000224908802248007800284BDD204800781F
:104C9000401E1F490870084600783CE07814002048
:104CA0002A00002028000020240000208214002078
:104CB000230000209714002000240140250000203C
:104CC000000C01403F0100203E0100204000002078
:104CD00016010020AA000020A8000020184600208D
:104CE000AB000020AE0000208600002088000020DD
:104CF000870000200008014062000020B100002071
:104D00005E0000205F0000209B0000206400002067
:104D10004400002006E128B90120894908700020DC
:104D2000884908808848007800280ADD864800788D
:104D3000401E854908700846007810B90020804957
:104D4000087082480088002804DD80480088401EE2
:104D50007E4908807E480078012808D17D48007887
:104D6000022804D17C480088401C7B4908807B488D
:104D7000007800280DDD79480078401E77490870DA
:104D80000846007828B90020754908800120754937
:104D9000087075480078002818DD73480078401EB8
:104DA000714908700846007880B900206D49087084
:104DB00001206E4908706E48008840F004006C497C
:104DC00008800846008820F00200088069480078C2
:104DD00000280DDD67480078401E664908700846C7
:104DE000007828B9002064490860012063490870F0
:104DF0006348007800280EDD61480078401E604955
:104E000008700846007830B95B4800885D49088022
:104E100000205A4908705C480078002812DD5A4882
:104E20000078401E584908700846007850B950482C
:104E3000008820F002004E49088003205349087082
:104E4000FEF7AEFE52480078002812DD5048007888
:104E5000401E4F4908700846007850B94448008801
:104E600020F0010042490880032048490870FEF7FD
:104E700097FE48480078002814DD46480078401E18
:104E8000444908700846007860B943480078012812
:104E900005D13748008840F02000354908800120BE
:104EA0003E4908703E480078002810DD3C480078F4
:104EB000401E3B4908700846007840B92C480088DD
:104EC00020F008002A49088001203449087035483C
:104ED0000078002810DD33480078401E3149087002
:104EE0000846007840B92248008820F04000204958
:104EF00008800120294908702B4890F8B00000F084
:104F0000020000280EDD2148007858B927480088A3
:104F1000C82807DD02201D490870FEF741FE002069
:104F20002249088010BD704710B50221204801F0C9
:104F300053FD18B102211E4801F057FD10BD0000BD
:104F400046000020A600002045000020820000202E
:104F5000300000201601002094000020990000205D
:104F60009E000020980000209A000020520000209F
:104F7000B60000209C000020900000209B00002034
:104F80009D00002020010020B8000020AB00002080
:104F9000B9000020BA0000203C000020BE00002024
:104FA000BB000020BC000020D41200204E000020D6
:104FB0000024014010B504466348047024B1012C5C
:104FC00003D0022C09D101E000BF00BFFF205F49E0
:104FD0000870F0205E4908700BE000205A49087004
:104FE0005C48007C594908705A48007D584908704F
:104FF00000BF00BF54480078FEF740FE10BD564881
:10500000007830B100205449087054490880091DC7
:105010000880704700B589B003208DF82200012078
:10502000ADF8200018208DF8230008A94C4802F0A4
:10503000EDF90220ADF8200018208DF8230008A912
:10504000474802F0E3F90121022002F055FD40F249
:10505000CF20ADF81400FE20ADF818000020ADF808
:105060001A00ADF8160005A93C483C3802F070FE65
:105070006020ADF804000120ADF806000020ADF876
:105080000800ADF80A00ADF80C0001A933483C381F
:1050900002F02AFF082131483C3803F0FBFA602077
:1050A000ADF804000120ADF806000020ADF80800BE
:1050B000ADF80A00ADF80C0001A928483C3802F010
:1050C0005EFF082125483C3803F0EDFA0121234812
:1050D0003C3803F099F9FFF792FF01211F483C3853
:1050E00003F09EF91B4991F8E100FFF763FF09B057
:1050F00000BD02201849087000201849091D0880C9
:1051000012480078091F0880704703201249087070
:105110000F4800781149091D08800020091F0880E8
:10512000704710B5FFF76BFF0120FBF7BCF810BD0F
:105130000648007809490880704705480078074903
:10514000091D088070470000170100201C01002085
:105150001D010020D4120020160100203C04004054
:10516000000C01402DE9F84F2A21834804F0A6F8ED
:105170000024F7E081480088401E1FFA80F84FF0B5
:10518000000B00252CE0C4EB4410C0EB04207C494C
:1051900001EB8000415D7B48005D0A3881421DDAE9
:1051A000C4EB4410C0EB0420754901EB8001681C7E
:1051B000095C7448005D0A3881420FDAC4EB441080
:1051C000C0EB04206E4901EB8001A81C095C6D480E
:1051D000005D0A38814201DAA84608E0681C85B201
:1051E0006649088800EBD071B5EB610FCBDB00BFDF
:1051F00062480088401E85B22CE0C4EB4410C0EB2E
:1052000004205F4901EB8000415D5E48005D0A3883
:1052100081421DDAC4EB4410C0EB0420584901EB75
:105220008001681E095C5748005D0A3881420FDA28
:10523000C4EB4410C0EB0420514901EB8001A81ECF
:10524000095C5048005D0A38814201DAAB4608E04B
:10525000681E85B24949088800EBD071B5EB610F33
:10526000CBDC00BF4549088800EBD07108EB610139
:10527000594575DC002600200090ABEB080087B292
:10528000B1464FF0FF0A3846F91707EB917108EB6A
:10529000A1018DB230E0C4EB4410C0EB04203849CA
:1052A00001EB8000405D06440098401C0090C4EB78
:1052B0004410C0EB042001EB8000405D484507DD51
:1052C000C4EB4410C0EB042001EB800010F8059003
:1052D000C4EB4410C0EB0420294901EB8000405D81
:1052E000504507DAC4EB4410C0EB042001EB80000A
:1052F00010F805A0681C85B207EB4700C11700EB4A
:10530000917108EBA101A942C5DAD14528DDA9EBCD
:105310000A00142824DA06EB860046000098B6FB43
:10532000F0F6194830F81400B04202D8164921F8B6
:105330001460164830F81400B04202D3134921F823
:105340001460134850F824003044114941F82400F7
:105350001048005D401C0F490855074921F81460AA
:10536000601C84B2152CFFF605AFBDE8F88F7047BE
:1053700001460020704770478AAD002020010020C0
:1053800078470020D0940020B4AD0020DEAD00208E
:1053900020AD002074AD002000B587B04FF48060D0
:1053A000ADF8180004208DF81B0001208DF81A00BC
:1053B00006A9864802F02AF84FF40070ADF81800EC
:1053C00018208DF81B0006A9804802F01FF84FF442
:1053D000E13002900020ADF80C00ADF80E00ADF801
:1053E0001000ADF814000C20ADF8120002A97848A6
:1053F00003F02BFB4FF4A06001F07CF825208DF822
:10540000040001208DF8050002208DF8060001201F
:105410008DF8070001A801F072F8012240F2255131
:105420006B4803F0AAFB002240F22771684803F0A2
:10543000A4FB0121664803F094FB00206549087035
:10544000654908700121880402F056FB4FF40060A2
:10545000ADF8180004208DF81B0001208DF81A000B
:1054600006A95E4801F0D2FF4FF48060ADF8180045
:1054700018208DF81B0006A9584801F0C7FF4FF40B
:10548000E13002900020ADF80C00ADF80E00ADF850
:105490001000ADF814000C20ADF8120002A950481D
:1054A00003F0D3FA4FF4A06001F024F827208DF820
:1054B000040001208DF8050002208DF8060001206F
:1054C0008DF8070001A801F01AF8012240F22551D9
:1054D000434803F052FB002240F22771404803F09A
:1054E0004CFB01213E4803F03CFB00203D49087085
:1054F00007B000BD70B504460D4606E0FBF78DF819
:10550000691D884200DD01E00026F7E700BF0022A8
:1055100040F227712E4803F030FB03E02078FBF7C0
:1055200047F8641C2800A5F101018DB2F6D10122D3
:1055300040F22771264803F020FB70BD70B5044689
:105540000D4606E0FBF71AF9691D884200DD01E00F
:105550000026F7E700BF002240F22771224803F03F
:105560000CFB03E02088FBF7A8F8A41C2800A5F199
:1055700001018DB2F6D1012240F227711A4803F0E1
:10558000FCFA70BD70B504460D4606E0FBF76CF9F9
:10559000691D884200DD01E00026F7E700BF002218
:1055A00040F227710E4803F0E8FA03E02078FBF799
:1055B00026F9641C2800A5F101018DB2F6D1012263
:1055C00040F22771064803F0D8FA70BD0008014088
:1055D000003801403E0100203F010020000C014046
:1055E0000048004040010020004400402DE9F04701
:1055F00004460F46944600212DE04FEA812808FB1F
:1056000007F898FBF3F5A812A5EB802200F101083A
:1056100014F8088014F80090A8EB090808FB02F8B9
:105620004FEAA82814F800A000F1010914F8099025
:10563000AAEB090909FB02F908EB295814F80090B4
:1056400008EB0906FF2E00DDFF26002E00DC0026F9
:105650000CF80160491C9942CFDBBDE8F0872DE9C9
:10566000F04F91B0FE480088322803DBFC480088E8
:10567000B42808DDFF20FB490870FB4908700020B2
:1056800011B0BDE8F08F4FF44071F84803F016FEFA
:10569000002414E0F64B03EB8412F14B1B88A3F1BA
:1056A0000C01C4EB041303EB8303DFF8C8C30CEB5A
:1056B0008303181D3023FFF799FF601C04B20C2CE4
:1056C000E8DB00244CE04FF0000944E004EB440028
:1056D000E74901EB801010F809000F9004EB44003B
:1056E000401C01EB801010F809000E9004EB440000
:1056F000801C01EB801010F809000D904FF4FA7136
:105700000F9841430E98401C91FBF0F00C900C98C0
:1057100001B24FEA490204EB440002EB4010D34AC5
:1057200022F810104FF4FA710D9841430E98401C66
:1057300091FBF0F00C900C9801B24FEA490204EB97
:10574000440002EB4010401CC84A22F8101009F136
:1057500001000FFA80F9B9F1300FB7DB601C04B219
:10576000042CB0DBC4480590C0480690C34807909D
:105770004FF0450B0027B846002464E00020049059
:10578000814613E0069830F919000B9009FB0B4194
:10579000079830F911100A91049ADDE90A1000FB0C
:1057A0000120049009F101000FFA80F9B9F5C07FDA
:1057B000E8DB049804F0D3FA0022B14BCDE90201F2
:1057C00004F046F905460E4609FB0B42079931F9EC
:1057D0001210C82201FB02F004F0C1FA0022A84B0B
:1057E000CDE9000104F034F92A463346CDE902013F
:1057F00004F072F805460E4686F000412846CDE9D1
:10580000025103F027FFCDE9080100209D49DDE9A1
:10581000082304F061F802460B46CDE9020100209E
:10582000984904F015F905460E462A46334638468F
:10583000414604F0ABFA04D22F46B046059810F862
:1058400004A0601C04B25C4598DB50464FEAEA7144
:105850000AEB9171C1F38701824A11704FEAEA7134
:105860000AEB91718910AAEB81017F4A1170002027
:1058700006E72DE9F04F89B006460D4617469846D3
:10588000022F03DA002009B0BDE8F08F0020069057
:105890000590002409E055F824100698814203DDA4
:1058A00055F8240006900594641CBC42F3DB4FF0CD
:1058B0000009CDF81C90CA46CDF82090CB460024B4
:1058C00031E00598844200D12CE00BF1010B56F831
:1058D000240004F071FE4946049004F0E9FC81467E
:1058E00055F8240004F068FE5146049004F0E0FCF2
:1058F000824656F8241001FB01F004F05DFE04908E
:10590000089904F0D5FC089056F8241055F8242086
:1059100001FB02F004F050FE0490079904F0C8FC6B
:10592000079000BF641CBC42CBDB584604F044FE29
:105930000190089904F06CFE49460390484604F033
:1059400067FE0290039904F039FF0021049004F0EF
:10595000DFFD01D1002096E7584604F02DFE0090AF
:10596000089904F055FE49460290484604F050FE5E
:105970000190029904F022FF0490584604F01CFEA6
:105980000090079904F044FE49460290504604F006
:105990003FFE0190029904F011FF0390049904F076
:1059A000F5FCC8F80000584604F006FE049048468E
:1059B000D8F8001004F02CFE5146029004F0F4FEDA
:1059C0000390049904F0E2FC1299086001205AE760
:1059D0002DE9FF4F009A019B002499E0002591E0FA
:1059E0004FEA842ADDF80890A9F101090AFB09FAB7
:1059F000DDF83890A9F101099AFBF9F74FEA852AF9
:105A0000DDF80490A9F101090AFB09FADDF83490E8
:105A1000A9F101099AFBF9F6B012B912A6EB802C94
:105A2000A7EB812801F1010909FB030912F809908C
:105A300001FB030A12F80AA0A9EB0A0909FB08F9FD
:105A400001FB030A0AF1010A12F80AA001FB030B89
:105A500012F80BB0AAEB0B0A0AFB0C9914E0000039
:105A6000260100204A0100204B010020ECB3002059
:105A7000ECB000200D9F00204E0100202CE0030818
:105A8000006AF8400000F03F4FEAA92901F1010A3D
:105A90000AFB030A0AF1010A12F80AA001FB030B30
:105AA00012F80BB0DA4401FB030B0BF1010B12F8F7
:105AB0000BB0AAEB0B0B01F1010A0AFB030A12F867
:105AC0000AA0ABEB0A0A0AFB0CFA0AFB08FA09EB7C
:105AD0002A5901FB030A12F80AA009EB0A0EBEF1CB
