:020000040801F1
:1000000080BE0020258A0108E93B0108EB3B01087E
:10001000EF3B0108F33B0108F73B0108000000003B
:10002000000000000000000000000000FB3B010891
:10003000FD3B010800000000FF3B0108013C0108F6
:100040003F8A01083F8A01083F8A01083F8A010868
:100050003F8A01083F8A01083F8A01083F8A010858
:100060003F8A01083F8A01083F8A01082F4601089C
:100070003F8A01083F8A01083F8A01083F8A010838
:100080003F8A01083F8A0108E14B01083F8A0108C5
:100090003F8A01083F8A01083F8A0108ED490108AB
:1000A0003F8A01083F8A01083F8A01083F8A010808
:1000B000F14801083F8A0108693E01083F8A0108AA
:1000C0003F8A01083F8A01083F8A01083F8A0108E8
:1000D0003F8A0108C53D01083F8A0108173E010813
:1000E0003F8A01083F8A01083F8A0108000000009A
:1000F0000000000000000000000000000000000000
:1001000000000000000000003F8A01083F8A01084B
:100110003F8A01083F8A0108BF5E01083F8A010843
:100120003F8A01083F8A01083F8A01083F8A010887
:100130003F8A01083F8A01083F8A01083F8A010877
:100140003F8A01083F8A01083F8A01083F8A010867
:1001500000F002F800F062F80AA090E8000C824477
:100160008344AAF10107DA4501D100F057F8AFF254
:10017000090EBAE80F0013F0010F18BFFB1A43F085
:100180000103184740CE020060CE02000A444FF03F
:10019000000C10F8013B13F0070408BF10F8014BE6
:1001A0001D1108BF10F8015B641E05D010F8016B2B
:1001B000641E01F8016BF9D113F0080F1EBF10F88F
:1001C000014BAD1C0C1B09D16D1E58BF01F801CBB2
:1001D000FAD505E014F8016B01F8016B6D1EF9D535
:1001E0009142D6D37047000000230024002500264A
:1001F000103A28BF78C1FBD8520728BF30C148BF8A
:100200000B607047642908F09F84732908F02386E7
:10021000002070471FB51FBD10B510BD08F05AFE75
:100220001146FFF7F7FF03F0F0F808F078FE03B48B
:10023000FFF7F2FF03BC08F079FE0000EFF309803E
:10024000704780F309887047EFF30880704780F3A8
:100250000888704740BA7047C0BA704730B51E4929
:10026000B1F1807F00D31DE021F07F40401E4FF0B0
:10027000E022506150170F22002807DA13071D0EE5
:10028000164B00F00F04241F1D5503E013071C0E2E
:10029000134B1C5400BF00204FF0E0229061072058
:1002A000106100BF30BD014642F2887201FB02F0CE
:1002B00000E0401E0028FCD1704700EB400202EB3A
:1002C000C00100E0491E0029FCD17047014600E052
:1002D000491E0029FCD170474019010018ED00E0CB
:1002E00000E400E040F2E730FE490880084600885C
:1002F000FD4908800020FD490880704740F2E73042
:10030000FB49088008460088FA49088070470920A0
:10031000F949088008460088F84908800020F84913
:100320000880704740F2E730F649088008460088A8
:10033000F54908800020F5490880704740F2E73011
:10034000F349088008460088F2490880704700B5E4
:1003500000222FE0F04850F82200F04901EB021192
:100360000860EF4830F81200EC4901EB0211888078
:10037000EA4800EB02108088401EE84901EB0211B8
:10038000C880E64800EB02108088401EE34901EB7C
:10039000021108810020E14901EB02114881DF4888
:1003A00000EB02108088401EDC4901EB02118881BD
:1003B000501CC2B20A2ACDDBFFF7C0FFFFF7B2FF25
:1003C000FFF7A5FFFFF79AFFFFF78CFF00BD30B5E1
:1003D000D24B03EB00135B89D04C04EB0014A488D0
:1003E000A34223DACD4B03EB00131B895B1CCB4CE0
:1003F00004EB0014A48893FBF4F504FB1533C74CFD
:1004000004EB00142381C54B03EB00131B68C34CA2
:1004100004EB001424891A191170C04B03EB00136C
:100420005B895B1CBD4C04EB0014638130BD10B5CF
:100430000146BA4800EB01104089002824DDB74886
:1004400000EB0110C088401CB44B03EB01139B88E8
:1004500090FBF3F403FB1400B04B03EB0113D880C3
:10046000AE4800EB01104089401EAC4B03EB01137A
:100470005881AA4800EB01100068A84B03EB011358
:10048000DB88C218107810BD0020FCE710B50146CB
:10049000A24800EB0110408900281BDD9F4800EBBB
:1004A00001108089401C9D4B03EB01139B8890FB3E
:1004B000F3F403FB1400994B03EB01139881974865
:1004C00000EB01100068954B03EB01139B89C218E8
:1004D000107810BD0020FCE7904901EB00118988DD
:1004E000491E8E4A02EB0012D1808C4901EB0011AB
:1004F0008988491E894A02EB001211810021874A2E
:1005000002EB0012518170470146844800EB011054
:10051000408970470146814800EB011080887F4A7E
:1005200002EB01125289801A80B270477948028822
:10053000774801888A4202DB501A80B2704702F580
:100540007A70401A80B2F9E700B50346FFF7EEFF74
:10055000B0F57A7F0DDA6F480088401C4FF47A714D
:1005600090FBF1F201FB12006A4908806D4809888E
:10057000435400BD674800886549098888420ED009
:1005800063480088401C4FF47A7190FBF1F201FB44
:1005900012005F49088063480988405C7047FF206B
:1005A000FCE700B5FFF7C2FFC0F57A7080B200BD6E
:1005B00056490988B1F57A7F13DA53490988491CED
:1005C0004FF47A7291FBF2F302FB13114E4A118041
:1005D0004E490988491C4D4A118053494A4A12889C
:1005E0008854704749480088002814DD4548008831
:1005F000401C4FF47A7190FBF1F201FB120041496B
:10060000088042480088401E4049088046483D49CD
:100610000988405C70470020FCE73C480088C0F532
:100620007A7080B2704741480288414801888A4206
:1006300002DB501A80B2704702F10A00401A80B201
:10064000F9E709203A4908800846008837490880B8
:10065000704700B50346FFF7E6FF0A280DDA334876
:100660000088401C0A2190FBF1F201FB12002F4987
:1006700008803048098820F8113000BD2B480088D8
:100680002B49098888420ED029480088401C0A213D
:1006900090FBF1F201FB12002549088025480988EA
:1006A00030F8110070474FF6FF70FBE700B5FFF719
:1006B000BAFFC0F10A0080B200BD114909880A29B9
:1006C00040DA0E490988491C0A2291FBF2F302FB29
:1006D00013110A4A11800A490988491C084A1180E5
:1006E00015492BE01A0000201C00002018000020F3
:1006F000140000201600002010000020120000202E
:100700000E00002006000020080000200400002049
:10071000000000200200002088A30108F81100203A
:1007200074A30108CC010020B40500200C000020B7
:100730000A0000209C090020B00900204D4A1288C0
:1007400021F8120070474C480088002814DD4B48FF
:100750000088401C0A2190FBF1F201FB120047497E
:10076000088045480088401E434908804448434962
:10077000098830F8110070470020FCE73E480088E7
:10078000C0F10A0080B270473E4802883E480188A6
:100790008A4202DB501A80B2704702F57A70401A22
:1007A00080B2F9E737490988491C4FF47A7291FB06
:1007B000F2F302FB1311334A118034491288885432
:1007C0007047304800883049098888420ED02E484A
:1007D0000088401C4FF47A7190FBF1F201FB12008B
:1007E0002949088029480988405C7047FF20FCE7B8
:1007F00000B5FFF7C9FFC0F57A7080B200BD24498B
:100800000988B1F57A7F13DA22490988491C4FF427
:100810007A7291FBF2F302FB13111E4A11801C49FC
:100820000988491C1A4A11801B491A4A128888549F
:10083000704717480088002814DD18480088401CBD
:100840004FF47A7190FBF1F201FB1200134908801A
:100850000F480088401E0E4908800F480F4909883C
:10086000405C70470020FCE709480088C0F57A70BA
:1008700080B27047120000200E00002010000020FF
:10088000B00900201600002014000020C409002038
:10089000180000201C000020AC0D00201A000020D1
:1008A0007047374A3748002105E013680360121D7E
:1008B000001D4B1C99B25929F7D370472DE9F0411F
:1008C00005F073FF352006F00BFA052726E02C48CB
:1008D00005F0B0FF2A4D2B4E002407E02846316872
:1008E00006F078F82D1D361D601C84B2592CF5D306
:1008F0004FF00108224D234E002409E0286831689A
:10090000884201D04FF000082D1D361D601C84B2B6
:10091000592CF3D3B8F1000F00D004E03800A7F150
:100920000101CFB2D3D100BFBDE8F08108B51649AF
:100930006A4608681060009808BDF1B505F035FFFB
:10094000352006F0CDF9052612E00F4805F072FFBC
:100950000D4C6D462046296806F03CF8012700BF83
:1009600000BF20682968884200D0002707B104E052
:100970003000A6F10101CEB2E7D100BFF8BD000002
:1009800000FE05089812002000F8000870B588B035
:100990002021684608F0A2F9C6208DF800000E203C
:1009A0008DF8010055208DF810000026F7480088CA
:1009B000864201DAF5480688F5480088864201DA61
:1009C000F348068800253FE0F0480088854211DAA8
:1009D00000240CE004EB4400C0EBC410ED4901EB33
:1009E0000010415DA01C0DF80010601CC4B2022C68
:1009F000F0DB04E00020CDF80200ADF80600E4488A
:100A00000088854211DA00240CE0C4EB041000EBEE
:100A10008000E14901EB8000415D201D0DF80010D0
:100A2000601CC4B20C2CF0DB03E0002101910291A8
:100A300003911121684604F007FC00BFD7480088E5
:100A40000028FBDC681C85B2B542BDDBD4480088B9
:100A500000128DF80200D24800788DF80300CC48CF
:100A6000008800128DF80400C94800788DF8050050
:100A700000208DF806008DF807008DF808008DF82D
:100A800009008DF80A001121684604F0DDFB002002
:100A90008DF802008DF803008DF804008DF8050034
:100AA0008DF806008DF807008DF808008DF8090014
:100AB0008DF80A001121684604F0C6FB00208DF86D
:100AC00002008DF803008DF804008DF805008DF804
:100AD00006008DF807008DF808008DF809008DF8E4
:100AE0000A001121684604F0AFFB00208DF80200D7
:100AF0008DF803008DF804008DF805008DF80600D0
:100B00008DF807008DF808008DF809008DF80A00AF
:100B10001121684604F098FB00208DF802008DF842
:100B200003008DF804008DF805008DF806008DF89F
:100B300007008DF808008DF809008DF80A001121D2
:100B4000684604F081FB002514E0002405E0FF2145
:100B5000A01C0DF80010601CC4B20E2CF7DB112194
:100B6000684604F071FB00BF8C4800880028FBDC5D
:100B7000681C85B2062DE8DB08B070BD30B589B0C1
:100B8000C6208DF8040019208DF8050055208DF839
:100B90001F000025F2E0EDB98148008800128DF8B1
:100BA00006007F48008800128DF80700002408E046
:100BB0007C480088C0F30721201D01AA1154601C45
:100BC000C4B2162CF4DB784800880112201D01AA5B
:100BD0001154C8E0012D19D1714800788DF8060034
:100BE0006F4800788DF80700002406E06D48017812
:100BF000201D01AA1154601CC4B2162CF6DB6A48F1
:100C000000880112201D01AA1154ACE0644800883C
:100C1000801C854211DA00240CE040F2A9106043E8
:100C2000624901EB4001A81E095CA01C01AA1154F5
:100C3000601CC4B2022CF0DB09E0002405E00021B6
:100C4000A01C01AA1154601CC4B2022CF7DB564848
:100C50000088801C854205DAA81E5549085C8DF87D
:100C60001E0002E000208DF81E00B5F5167F22DC84
:100C70004C480068801C854212D200240DE0C4EB71
:100C80004410C0EB04204B4901EB8001A81E095C15
:100C9000201D01AA1154601CC4B2162CEFDB62E0C7
:100CA000002405E00021201D01AA1154601CC4B2DB
:100CB000162CF7DB57E040F25920854213D100246F
:100CC0000EE00C2C06DA324800880112201D01AA21
:100CD000115403E00021201D01AA1154601CC4B26C
:100CE000162CEEDB3FE040F25A20854212D1002460
:100CF0000DE00C2C05DA26480178201D01AA1154BC
:100D000003E00021201D01AA1154601CC4B2162C5E
:100D1000EFDB28E000241AE0A5F516701C490988CD
:100D2000891C88420DDAC4EB041000EB80001A49DC
:100D300001EB8001A5F25A20095C201D01AA115483
:100D400003E00021201D01AA1154601CC4B20C2C28
:100D5000E2DB0C2405E00021201D01AA1154601CD7
:100D6000C4B2162CF7DB1C2101A804F06DFA00BFF9
:100D70000A4800880028FBDC681C85B2B5F5617F55
:100D8000FFF609AF00252AE000241BE09A000020AE
:100D90009C0000203C360020E99D0020040000203B
:100DA000960000208800002094000020C1930020BD
:100DB000659A002054460020FF21A01C01AA11546E
:100DC000601CC4B2192CF7DB1C2101A804F03CFA0A
:100DD00000BFFE4800880028FBDC681C85B2062D99
:100DE000D2DB09B030BD00B585B030208DF80000F1
:100DF00004208DF80100F64800788DF80200F448D0
:100E000040788DF80300F24880788DF80400F048AF
:100E1000C0788DF8050055208DF80600072168463A
:100E200004F012FA05B000BD10B54021E94806F003
:100E30006EF808B9202010BD8021E64806F067F85A
:100E400008B92120F7E74FF48071E24806F05FF817
:100E500008B92220EFE7FF20EDE730B50346302543
:100E6000541E0D5500248C5410460EE00A24B3FB8A
:100E7000F4F504FB15343034451E4C55441EE0B2E5
:100E800000B904E00A24B3FBF4F3002BEED100BF59
:100E9000904201D1441EE0B203E02025441E0D55CE
:100EA000E0B20028F9DC30BD70B5102004F048FE37
:100EB000002004F048FE4FF6FF7004F047FE0024C7
:100EC00026E0C54931F814000422C449FFF7C5FFE4
:100ED00004EB8400800000F126023B21BF4804F0AF
:100EE00038FEBD4830F81400BD49095D00FB01F52E
:100EF0000522BA492846FFF7B0FF04EB84008000C2
:100F000000F126026521B54804F023FE601CC4B23E
:100F1000072CD6DB0422B149B2480068FFF79DFFD9
:100F200004EB8400800000F126023B21AB4804F072
:100F300010FE0522A949AC480068FFF78EFF04EBBC
:100F40008400800000F126026521A44804F001FE1F
:100F500070BD30B503463025541E0D5500248C5409
:100F600010460FE00A2493FBF4F504FB15343034EB
:100F7000E5B2441E0D55E0B200B905E00A2493FB2A
:100F8000F4F4A3B2002BEDDC00BF904201D1441E6B
:100F9000E0B203E02025441E0D55E0B20028F9DC44
:100FA00030BD10B5182004F0CBFD002004F0CBFDBF
:100FB0004FF6FF7004F0CAFD052288498B4800886F
:100FC000FFF7C7FF2420854908703C22F42183489D
:100FD00004F0BFFD10BD10B5182004F0B1FD0020D5
:100FE00004F0B1FD4FF6FF7004F0B0FD07227B491D
:100FF0007D480068FFF731FF8C22DC21774804F040
:10100000A8FD10BD10B5182004F09AFD002004F0D2
:101010009AFD4FF6FF7004F099FD04226F49714864
:101020000068FFF71AFF64224FF480716B4804F0E8
:1010300090FD10BD10B56E48007850B96D4800782D
:1010400038B9FFF7DFFFFFF7C6FFFFF7AAFFFFF78B
:101050002BFF10BD2DE9F04F87B00746884692461A
:101060003E46707830383178303901EB810100EB41
:101070004100C0B20690069828B900208AF8000006
:1010800007B0BDE8F08F0698804501DB4FF00008FF
:101090000024A346A14602252BE0705D7C281FD1C9
:1010A000BBF1000F07D100244FF0010B142101A860
:1010B00007F014FE1BE0C84506D1621C01A950468A
:1010C00007F09DFD0120DBE709F1010000F0FF09B9
:1010D00000244FF0010B142101A807F0FFFD06E0EA
:1010E000112C04DA705D01A90855601CC4B2681C9B
:1010F00085B2304607F064FDA842CEDCBBF1010F9B
:1011000008D1C84506D1621C01A9504607F077FDF9
:101110000120B5E700BFB3E738B547F6FF7004F02C
:1011200015FD47F6FF701C23322202210090042097
:1011300004F099FD002004F006FD182004F000FDE5
:10114000264A01212C480068FFF784FF0446042248
:101150000B21224804F0FDFC38BD38B504460D468D
:1011600025B1012D0BD0022D1BD111E020234FF40E
:10117000A07200210846009404F075FD12E0B0232F
:101180004FF4A07220210020009404F06CFD09E0CF
:1011900020234FF4A072D0210020009404F063FDBE
:1011A00000E000BF00BF38BD3EB5002147F6FF702C
:1011B000FFF7D3FF01214FF6FF70FFF7CEFF0221AB
:1011C00047F6FF70FFF7C9FF18E000000400002099
:1011D000461400200010014040460020DC4500205D
:1011E000E6A30108C8000020CC000020D0000020A9
:1011F0001E000020C4000020F0A3010844F20800F3
:1012000002234FF4A07220210090002004F02BFD57
:1012100044F2080002234FF4A072CE210090002077
:1012200004F021FD002008210322A823CDE900219C
:1012300002907E222421102004F0E9FC102004F00A
:101240007FFC002004F07FFC4FF6FF7004F07EFC72
:10125000002410E0FE49085D0422FE49FFF7FDFD71
:1012600004EB8400800000F126021121F94804F00B
:1012700070FC601CC4B2072CECDB04EB8400800023
:1012800000F126021121F4A004F063FC182004F000
:1012900057FC002004F057FC4FF6FF7004F056FC9A
:1012A0008C22A021EEA004F054FC6422A021EEA028
:1012B00004F04FFC3C22A021EDA004F04AFC3EBD0E
:1012C00010B5FFF771FFFFF727FFFFF7B3FE10BD63
:1012D00010B50020E8490860E8490880E84908603E
:1012E0001821E84807F0D8FC10BDE749087070479E
:1012F00010B50446E5480078012809D1222C05D113
:101300000020E2490870FFF7DBFF00E000BF2FE09C
:10131000DE48007860BB222C04D0412C11D0422C36
:1013200025D100E000BF0020FFF7DFFF0120D849F2
:1013300008700020D7490880FFF7CAFFFFF7C0FFF9
:1013400015E041F22710FFF7F8FA6420FEF7ABFF33
:1013500000BFD148006800F4E060D0490843001D98
:10136000CD490860BFF3408F00BF00BFFEE700BF5C
:1013700010BD10B50020FFF7C7F800280BDD0020D6
:10138000FFF755F80446C048007818B92046FFF723
:10139000AFFF00BF00BF10BD7CB506460C46C0487D
:1013A000007800B17CBD304607F00AFC85B22946C2
:1013B000304603F049FF002C09DD0D208DF80000B8
:1013C0000A208DF801000221684603F03DFF00BFAE
:1013D000E8E730B504460D46032229462046FFF7CC
:1013E000B8FD30BDAF4908701421AF4A1170704785
:1013F00010B50246C31700EB13731B11AB4CE35C33
:101400000B70C31700EB13731B11A0EB0313E35C0A
:101410004B7000228A7010BD70B500248D482044A6
:10142000A3A10A68026009790171641D002510E01A
:10143000A148465D874801193046FFF7D9FFA01C37
:10144000C4B220222046611CCCB282490A54681CD6
:10145000C5B2162DECDB00222046611CCCB27D49C2
:101460000A5401217B48FFF797FF00247948204464
:1014700092A10A68026089888180A41D914806783B
:10148000744801193046FFF7A4FFE41C20222146CE
:10149000641C7048425400222146641C42540021BE
:1014A000FFF77AFF00246B48204487A10A68026096
:1014B00089888180A41D8348467866480119304692
:1014C000FFF787FFE41C20222146641C6148425438
:1014D00000222146641C42540021FFF75DFF0024D6
:1014E0005C4820447AA10A68026089888180A41D32
:1014F00079480678574801193046FFF76AFFE41C1F
:1015000020222146641C534842547348467851486F
:1015100001193046FFF75DFFE41C20222146641CC0
:101520004C4842546C4886784A4801193046FFF7C7
:1015300050FFE01CC4B220222046611CCCB24549B9
:101540000A5400222046611CCCB242490A540021B0
:101550004048FFF721FF00243E4820445FA10A686D
:10156000026089888180A41D5B48C67839480119CA
:101570003046FFF72EFFE41C20222146641C35482C
:10158000425455480679334801193046FFF721FF88
:10159000E41C20222146641C2E4842544E484679C1
:1015A0002C4801193046FFF714FFE01CC4B220227A
:1015B0002046611CCCB227490A5400222046611CF7
:1015C000CCB224490A5400212248FFF7E5FE00244A
:1015D0002048204443A10A68026089888180A41DB4
:1015E0003D4886791B4801193046FFF7F2FEE41C9E
:1015F00020222146641C174842543748C6791548B2
:1016000001193046FFF7E5FEE41C20222146641C48
:10161000104842543048067A0E4801193046FFF708
:10162000D8FEE01CC4B220222046611CCCB209497D
:101630000A5400222046611CCCB206490A540021FB
:101640000448FFF7A9FE0024024820444EE00000B1
:10165000E6A30108DC4500202053554D2000000082
:101660002053554D3A000000205043533A000000EB
:1016700044454E4F3A000000C8000020D000002032
:10168000CC000020404600201E000020C4000020A6
:101690006B000020AA0000200CED00E00000FA051D
:1016A000460000207E0000207F000020FCA30108EF
:1016B000B2E2B3A43A00000046140020B4C5D0D46E
:1016C000313A000028000020B4C5D0D4323A0000DE
:1016D000D1D5C9AB313A20005B140020D1D5C9ABBC
:1016E000323A2000D1D5C9AB333A2000F8A10A68BC
:1016F000026089888180A41DF748467AF74801195D
:101700003046FFF766FEE01CC4B220222046611C72
:10171000CCB2F2490A54F048867A0846011930469C
:10172000FFF757FEE01CC4B220222046611CCCB259
:10173000EA490A54E848C67A084601193046FFF7D4
:1017400048FEE01CC4B220222046611CCCB2E34912
:101750000A5400222046611CCCB2E0490A540121FF
:10176000DE48FFF719FE0024DC482044DCA10A68AB
:1017700002604A684260098901810A34DB480678C0
:10178000D64801193046FFF724FEE41C20222146EA
:10179000641CD248425400222146641C4254002159
:1017A000FFF7FAFD0024CD482044D1A10A68026069
:1017B00009790171641DD0480678C848011930467E
:1017C000FFF707FEE41C20222146641CC348425454
:1017D00000222146641C42540021FFF7DDFD002455
:1017E000BE482044C5A10A68026009790171641DE0
:1017F000C4480678B94801193046FFF7EAFDE41CF1
:1018000020222146641CB548425400222146641C13
:1018100042540121FFF7C0FD0024B0482044BAA182
:101820000A88028089788170E41CB8480678AB4841
:1018300001193046FFF7CDFDE41C20222146641C2F
:10184000A648425400222146641C42540121FFF75D
:10185000A3FD0024A1482044ADA10A880280897814
:101860008170E41C9D4A1119AA4A1078FFF7B1FD56
:10187000E41C20222146641C984842540022214640
:10188000641C42540021FFF787FD0024934A11197C
:10189000A04A5078FFF79DFDE41C20222146641CDD
:1018A0008E48425400222146641C42540121FFF715
:1018B00073FD00248948204497A109680160241D14
:1018C0004021974805F023FB06468448011930461D
:1018D000FFF77FFDE41C20222146641C7F48425410
:1018E00000222146641C42540021FFF755FD80214F
:1018F0008B4805F00CFB0646784801193046FFF787
:1019000068FDE41C20222046611CCCB273490A54B5
:1019100000222046611CCCB270490A5400216F4855
:10192000FFF73AFD4FF480717D4805F0F0FA064666
:101930006A4801193046FFF74CFDE01CC4B2202272
:101940002046611CCCB265490A5400222046611C25
:10195000CCB262490A5401216048FFF71DFD012104
:101960007048FFF719FD70BD70B56F480078012809
:1019700005D1FEF709FF18B900206B4908706FE226
:10198000FEF71FFF0546694800780028F7D1A62D0D
:1019900078D01ADC682D3FD00EDC622D26D006DC14
:1019A000422D1FD0482D36D0612D6CD122E0652DFF
:1019B00023D0672DF9D130E0A5F1A000062862D22E
:1019C000DFE800F02E31626B747CA5F1A7000E28D1
:1019D000F5D2DFE800F0DBEFF8FCEBEAE9E8585875
:1019E000E7E6E5E400205249087038E2012050495A
:1019F000087034E2FFF7C2F831E200204D49087068
:101A00004D4908804D4908804D4908604FF47A706F
:101A10004C49088023E222E221E2FEF7B7FF1EE2F2
:101A2000FFF7FAFC1BE248480078D8B90320FFF71B
:101A30005CFC03F048F94FF40071444805F081FA6A
:101A400001202A4908702021414805F07AFA012036
:101A50004049087000204049087001213FA0FFF76D
:101A60009BFC0EE00020FFF740FC01203A49087083
:101A700000203F490870FFF723FC01213DA0FFF73C
:101A80008BFCECE11FE0E9E14FF400712F4805F019
:101A900058FA012015490870E1E14FF400712B4814
:101AA00005F051FA002011490870D8E10120FFF734
:101AB00099FC012133A0FFF76FFCD0E140212448BD
:101AC00005F03FFACBE14021214805F03CFAC6E1A0
:101AD000D1D5C9AB343A20005B140020DC4500208E
:101AE000BAECCDE2B7A2C9E4203A00002000002001
:101AF000C2EBC5CC3A0000005C000020BDF8B3AEDC
:101B00003A0000002B00002055563A002A00002021
:101B100050533A002C0000204B45593A0000000079
:101B200000100140D0CD0308300100204600002005
:101B3000820000206A00002096000020940000200F
:101B400088000020680000201E000020000C0140DA
:101B500000080140220000206B00002053454E5336
:101B60004F525F564945575F53544154450000005A
:101B7000C40000204E4F524D414C5F5354415445D8
:101B8000000000006265657000000000FE480078FB
:101B900010B103F098F801E003F00EF95FE141E1C4
:101BA00024E10FE1F9E0A4E07CE067E013E00EE05F
:101BB00009E0FFE7F448007810B103F084F801E091
:101BC00003F006F94BE10120F049087047E10020DD
:101BD000EE49087043E14FF40071ED4805F0B1F9AA
:101BE0000120EC4908700020FFF77FFB0120EA4943
:101BF00008706420FEF757FB1522E849E84806F014
:101C0000FEFF0121E7A0FFF7C7FB00240EE0202024
:101C1000E7490870E249085DE549491CFFF7D9FB2F
:101C20000021E348FFF7B8FB601CC4B2152CEEDBC3
:101C30000121AFF2D850FFF7AFFB1522D849DD489C
:101C400006F0DDFF0220DC4908700020DB49087047
:101C50005421DB4807F042F81521DA4807F01CF858
:101C60002A21D94807F018F8FF222A21D74807F07F
:101C70000BF80121D6A0FFF78FFBF0E0DC480078DD
:101C8000012807D10020DA4908700121D9A0FFF707
:101C900083FB06E00120D64908700121DAA0FFF796
:101CA0007BFBDCE0DD480078012807D10020DB4920
:101CB00008700121DAA0FFF76FFB19E00120D74976
:101CC00008700121D9A0FFF767FB4FF47A70FEF787
:101CD000EAFA4FF48051AE4805F035F94FF400515F
:101CE000AB4805F030F94FF48041A94805F02BF9D5
:101CF000B5E0D1480078022811D1C102A44805F00E
:101D000022F94FF40051A24805F01DF94FF480412B
:101D10009F4805F018F90320C74908703CE0C64801
:101D2000007888B94FF48051994805F00CF94FF4C8
:101D30000051974805F005F90120BF49087081035B
:101D4000934805F000F927E0BB480078012811D13D
:101D500001038F4805F0F7F84FF400518C4805F067
:101D6000F2F84FF480418A4805F0EBF80220B249BE
:101D7000087011E04FF48051854805F0E2F800202A
:101D8000AD4908704FF40051814805F0DCF84FF47C
:101D900080417F4805F0D7F861E000209F49087036
:101DA000FFF7A3FA01207C4908706420FEF77BFA54
:101DB000012081490870A14908700121A0A0FFF706
:101DC000EBFA4CE09D480078012807D100209B49A0
:101DD00008700121A0A0FFF7DFFA06E00120974973
:101DE00008700121A1A0FFF7D7FA38E0A4480078D5
:101DF00001280BD11021664805F0A5F80020A04964
:101E0000087001219FA0FFF7C7FA0AE0102160487F
:101E100005F097F801209A49087001219CA0FFF76E
:101E2000BBFA1CE09D48007801280BD120219C487A
:101E300005F089F8002099490870012199A0FFF761
:101E4000ABFA0AE02021964805F07BF8012093497F
:101E50000870012197A0FFF79FFA00E000BF00BFC4
:101E600070BD98480068401C96490860964897499C
:101E70000978405C964908809648006809880844BB
:101E80009449086094489149097830F81100401C41
:101E900091498E4A127821F8120070478F480078D5
:101EA000132833D2DFE800F00A0B0C1011121617BA
:101EB000181C1D1E22232428292A2E0000BF00BF23
:101EC00000208249087025E000BF00BF01207F4943
:101ED00008701FE000BF00BF02207C49087019E0B5
:101EE00000BF00BF03207949087013E000BF00BFA6
:101EF0000420764908700DE000BF00BF052073493B
:101F0000087007E006207149087003E007206F4958
:101F1000087000BF00BF70472DE9FE4F4FF07809F1
:101F20004FF0320A0024F8E01D49183131F814004E
:101F300008F048F883466A4907F016FF0546184935
:101F4000443131F8140008F03DF88346644907F045
:101F50000BFF07463946284607F0C8FF12D039461E
:101F6000284608F019F90290504608F02BF8019025
:101F7000484608F027F80090019908F00DF98346CB
:101F80000299AFE0B2E0000008010020B00000209C
:101F9000000C0140200000206B00002046140020AF
:101FA000C8120020BFD5D4D8BAECCDE2D6B5000017
:101FB000DC450020AC9300201A0100201B0100200A
:101FC000FCAB002050AC002090AC0020BAAC00204C
:101FD000BFAACABCBAF1B0D7D6BDD0A3D5FD2CB725
:101FE000C5C8EB383067BAF1B0D7D6BD00000000E5
:101FF00083000020B2E2B3A4CAE4B3F6D0A3D5FDB7
:10200000CAFDBEDD00000000B2E2B3A4CAE4B3F62C
:10201000D4ADCABCCAFDBEDD000000002500002012
:10202000D1D5C9ABB5C6B4F2BFAA0000D1D5C9ABF2
:10203000B5C6B9D8B1D50000230000208400002027
:10204000BFAACABCD1D5C9ABD0A3D5FD2CB7C5C8D2
:10205000EB4134D6BD000000D1D5C9ABCAE4B3F61C
:10206000D0A3D5FDCAFDBEDD00000000D1D5C9ABAF
:10207000CAE4B3F6D4ADCABCCAFDBEDD00000000A0
:10208000210000205556B5C6B9D8B1D500000000D2
:102090005556B5C6B4F2BFAA0000000022000020C9
:1020A00000080140BDF8B3AEBAECCDE2B9D8B1D565
:1020B00000000000BDF8B3AEBAECCDE2B4F2BFAAA6
:1020C00000000000C8000020E6A30108190100205C
:1020D000D0000020CC00002040460020330100202A
:1020E0000000204107F040FE804601E04FF000086C
:1020F0002946404607F07AFF8346484607F062FFCC
:102100005946029008F048F80646FA4840F82480FC
:10211000F94941F82460601CC4B2152CFFF604AFE5
:10212000BDE8FE8F70B5002500241EE02020F34995
:102130000870C4F11401F24A505C0522EF49491CB1
:10214000FEF707FF0021ED48FFF726F9012C01DB20
:10215000132C02DD681CC5B205E0E948005D0528C6
:1021600001DB681CC5B2601CC4B2152CDEDB01218A
:10217000AFF61830FFF710F9002412E02020DF49F5
:102180000870C4F11401DF4A32F811000522DB495E
:10219000491CFEF7DEFE0021D848FFF7FDF8601C61
:1021A000C4B2152CEADB0121AFF65030FFF7F4F88A
:1021B000002413E02020D1490870C4F11401D24A50
:1021C00032F8211088B20522CC49491CFEF7C1FE25
:1021D0000021CA48FFF7E0F8601CC4B2152CE9DB07
:1021E0000121AFF68830FFF7D7F8002412E0202055
:1021F000C2490870C4F11401C44A32F81100052222
:10220000BE49491CFEF7A5FE0021BC48FFF7C4F8F3
:10221000601CC4B2152CEADB0121AFF6C030FFF719
:10222000BBF8002412E02020B4490870C4F1140166
:10223000B74A32F811000522B049491CFEF789FE61
:102240000021AE48FFF7A8F8601CC4B2152CEADBE9
:102250000121AFF6F830FFF79FF80121AFF60440F7
:10226000FFF79AF8152D76D1AA480078022878D180
:102270000121AFF61840FFF78FF800242FE0A048A7
:10228000005D022824DD9E48005D801E9C490855A3
:102290009D4850F824009D4931F81410401A9A497D
:1022A00041F82400084650F82400994931F81410E8
:1022B000401A954941F82400084650F824009049F6
:1022C000095DB0FBF1F081B2934820F8141004E0EE
:1022D0004FF4FA71904820F81410601CC4B2152C09
:1022E000CDDB002412E0202084490870C4F11402E0
:1022F000894931F8120005228049491CFEF729FE60
:1023000000217E48FFF748F8601CC4B2152CEADBB8
:102310000121AFF6B840FFF73FF80121AFF6C44006
:10232000FFF73AF803207B49087000207B490870CA
:102330005421754806F0D2FC1521714806F0ACFC1A
:102340002A21724806F0A8FCFF222A21704806F0D4
:102350009BFC012101E070E003E071A0FFF71CF895
:102360006BE06C480078032867D10121AFF6145068
:10237000FFF712F8002431E06148005D022825DDF6
:102380005F48005D801E5E4908555F4850F8240094
:102390005E4931F81410401A5B4941F824000846A0
:1023A00050F824005A4931F81410401A564941F89F
:1023B0002400084650F824005149095DB0FBF1F0B3
:1023C00081B255482C3820F8141005E04FF496617E
:1023D00051482C3820F81410601CC4B2152CCBDBEB
:1023E000002413E0202045490870C4F114024A4932
:1023F0002C3931F8120005224049491CFEF7A9FD8D
:1024000000213E48FEF7C8FF601CC4B2152CE9DB72
:102410000121AFF6B850FEF7BFFF0121AFF6C4505F
:10242000FEF7BAFF00203B490870012144A0FEF7E7
:10243000B3FFFEF743FAFFF76FFD70BD70B58CB0C8
:102440004248008842490880002404E000204DF8FA
:102450002400601CC4B20C2CF8DB0026142516E006
:10246000701CC6B200240EE05DF82400C4EB041119
:1024700001EB8101374A02EB8101495D08444DF8C7
:102480002400601CC4B20C2CEEDB681CC5B23048C2
:1024900000881438A842E3DC00241EE0002E08DD8A
:1024A0005DF82400B0FBF6F0C1B21B482D30015599
:1024B00003E0002118482D30015520200F490870F5
:1024C00015492D31085D0D49491CFEF782FF002199
:1024D0000A48FEF761FF601CC4B20C2CDEDB002052
:1024E0000C490870012116A0FEF756FFFEF7E6F929
:1024F0000CB070BD3035002084350020DC45002054
:1025000050AC002066AC0020FCAB002090AC00205A
:10251000BAAC00201A0100200C1300201B0100207F
:10252000BFAACABCB1A1B0D7D6BDD0A3D5FD2CB728
:10253000C5C8EB343067B1A1B0D7D6BD00000000EC
:10254000D0A3D5FDCDEAB3C9000000009C00002057
:1025500016010020E99D002010B5F74800780128F9
:102560007AD10020F4490870F4480078002873D12B
:1025700002F0A9FBF2480078012802D1FFF75EFFC4
:102580004BE0EF480078012804DD02F04DFCFFF736
:10259000C9FD42E0EB4803F024F9102003F0D0FA23
:1025A0000322E949E9480078FEF757FCBE22DC2106
:1025B000E54803F0CEFA0322E349E5480078FEF748
:1025C0004CFCBE22FA21E04803F0C3FAFFF766FC98
:1025D000E0480078072807DAFFF743FC0120FEF700
:1025E00001FFFEF727FD12E00320FEF7FBFE182097
:1025F00003F0A6FA4FF4784003F0A5FA4FF6FF7007
:1026000003F0A4FA3C22F421D3A003F0A2FAD448A8
:102610000078012801D1FEF7B1FAD248008820F0F5
:102620000400D0490880D048007850B90846008896
:1026300040F00800088002F0BFFB9620CB490870EC
:102640000AE0C848008840F04000C649088002F00F
:10265000BFFB7820C649087010BD10B50446082C91
:1026600075D2DFE804F00412202E3C4A58664FF47D
:102670008051C04804F067FC0421BF4804F063FCAB
:102680000821BE4804F05FFC61E04FF48051B94876
:1026900004F059FC0421B84804F055FC0821B7485F
:1026A00004F04FFC53E04FF48051B24804F04BFC6F
:1026B0000421B14804F045FC0821B04804F043FC73
:1026C00045E04FF48051AB4804F03DFC0421AA489A
:1026D00004F037FC0821A94804F033FC37E04FF43C
:1026E0008051A44804F02DFC0421A34804F02BFCE5
:1026F0000821A24804F027FC29E04FF480519D48AE
:1027000004F01FFC04219C4804F01DFC08219B4898
:1027100004F017FC1BE04FF48051964804F011FCC4
:102720000421954804F00DFC0821944804F00BFCAA
:102730000DE04FF480518F4804F003FC04218E48D3
:1027400004F0FFFB08218D4804F0FBFB00BF00BF35
:1027500010BD10B501218A4803F0BBFC10BD10B5B7
:10276000FFF7F7FF00BF022003F030FF0028FAD088
:10277000022003F03FFF10BD70B500220221814806
:1027800003F015FF0320FDF78EFD00207E49087041
:1027900008460078FFF761FF00253FE1FFF7DFFF04
:1027A000002412E0794850F82400C0F3072078494B
:1027B00001F81400754850F82400000E012101EBC7
:1027C0004401734A5054601CC4B2052CEADB7048C3
:1027D000407A704908706E48C0786F4908706C483C
:1027E000407848706A4800786C49087068480079F9
:1027F0006B4908706648007A48706348007807287B
:102800000FD2DFE800F0040F1A3E6286E70060484E
:102810004079644908705E488079C8715C48C07925
:102820008873E2E05A4840795E4948705848807998
:1028300008725748C079C873D7E05548407959495C
:1028400088705348807948725148C0790874564856
:10285000007820B94E4880785449087010E05248FA
:102860000078012804D14A4880785049487007E030
:102870004D480078022803D1454880784B4988703C
:10288000B3E0434840794749C8704148807988722D
:102890003F48C07948744448007820B93C48807863
:1028A0004249C87010E040480078012804D13848F7
:1028B00081783E48017107E03B480078022803D147
:1028C00033488178394841718FE031484079354942
:1028D00008712F488079C8722D48C07988743248B1
:1028E000007820B92A4880783049887110E02E4855
:1028F0000078012804D1264881782C48C17107E06E
:1029000029480078022803D121488178274801729C
:102910006BE01F484079234948711D48807908734E
:102920001B48C079C8742048007820B918488078BE
:102930001E4948724DE03BE04C0000201E00002084
:102940001A0100202F150020DC4500203301002053
:10295000340100201901002020535553500000007D
:1029600082000020AA000020B0000020AE0000205D
:10297000AF0000200010014000140140000C014095
:1029800000240140080002402400002028140020F8
:102990003C1400202B0000202C0000202A000020E6
:1029A0002800002046140020230000205B14002093
:1029B000FE480078012804D1FD488178FD488172E5
:1029C00007E0FA480078022803D1F9488178F948ED
:1029D000C1720AE0F6484079F7498871F448807975
:1029E0004873F348C079087500BF00BFF34800780A
:1029F000401CF249087008460078072190FBF1F26C
:102A000001FB1200ED49087008460078FFF725FE2B
:102A10004FF4FA70FDF751FC681CC5B2072DFFF6A4
:102A2000BDAE01220221E64803F0C1FD70BD10B524
:102A30000024E4480078012812D10020E149087000
:102A4000E148007820B1032803D0052807D105E02C
:102A500005E0FFF791FEFEF7DFFC00E000BF00BFDE
:102A600010BD10B5D9480078012830D10020D749D1
:102A70000870FEF7D9F9D6490870D64800784006A4
:102A8000000ED4490870D2480078FF2803D00846C9
:102A90000078401C0870D0480078002849D1CC4804
:102AA0000078FF2814D1CD48007850B9CC48007880
:102AB00038B1CB4801780020FDF789FC0120FEF7F2
:102AC00091FC1420C74908700220C44908705EE0D8
:102AD000C248007800280BDDC0480078401EBF497E
:102AE00008700846007818B9B9480078BC490870E1
:102AF000BC48007800284ADDBA480078401EB94931
:102B0000087008460078002841D1B74908700120B4
:102B1000B1490870AE480078B4490870084600789A
:102B20002030C1B20020FDF752FC0120FEF75AFC14
:102B30002DE0A7480078AD490978884216D1AA4807
:102B40000078002823DDA8480078401EA6490870B8
:102B500008460078D8B9A54800782030C1B20020D6
:102B6000FDF735FC0120FEF73DFC10E000209A49FE
:102B70000870FF209D490870994908700220974904
:102B8000087014209749087000209749087010BDFC
:102B900010B58D480078002878D195480078012834
:102BA00019D19448008810BB93480078F8B902F016
:102BB00003F99048008840F001008E490880F42015
:102BC0008E49087001208E4908708E4908700020D7
:102BD0008D4908800BE08748007800F0200000282D
:102BE00005DD8448008820F020008249088087485D
:102BF000007801280DD182480078012816D10020E4
:102C00007F490870022082490870012081490870BC
:102C10000CE080480078012808D10020784908702D
:102C200005207D49087000207A4908707B480078AB
:102C3000012810D16F48007800F00200002825DD3F
:102C400070480078012821D100206E4908700120C9
:102C5000734908701AE06748007800F00200002805
:102C600014DD6F480078012810D100206C490870ED
:102C700001206C4908705F48008840F004005D49FD
:102C800008800846008820F00200088010BD10B5BA
:102C90004FF40071644804F054F90120634908704E
:102CA00002F08AF86420FDF7FEFA002060490880EF
:102CB000604908604FF47A70FDF7F5FA02F088F881
:102CC0004FF47A70FDF7EFFA01F0FDFF4FF4007159
:102CD000554804F038F900205449087010BD704779
:102CE00010B5374803F08AFB5348544908605448EC
:102CF0004860002088600520C860002008618020AE
:102D00004861800088618000C8612020086200025C
:102D10004862002088622A4803F012FC10BD00B50A
:102D200087B00121480204F0C8FB0121880204F0A9
:102D3000C4FB0121084604F0B3FB1720ADF80000E6
:102D400000208DF8030069463E4804F04DF83F200E
:102D5000ADF8000000208DF8030069463A4804F001
:102D600043F8FFF7BDFF01220221154803F01FFCC5
:102D70000B208DF8180001208DF819008DF81A002D
:102D80008DF81B0006A803F0A8F82B484C3803F078
:102D90000DF94FF4C020019001208DF808000020AB
:102DA0008DF809004FF4602003904FE023000020CD
:102DB0003C1400205B140020461400202400002056
:102DC00008000240730000201E000020BE0000200A
:102DD000C1000020C3000020BD000020B80000207A
:102DE000BB000020B9000020BA000020BC00002079
:102DF0003C000020AA00002008010020AC000020B8
:102E0000410000208E0000209A0000203E0000209B
:102E10004300002042000020440000204000002029
:102E20008F0000204C000020000C014020000020FA
:102E300096000020880000204C240140FC13002054
:102E40002814002000080140001001404FF40060E9
:102E5000049005208DF8140001A9FE4803F0CDF878
:102E600001231A460021FB4803F05FF901230222E7
:102E70000421F84803F059F9012303220A21F548F7
:102E800003F053F9012304220C21F24803F04DF919
:102E9000012305220E21EF4803F047F9EE4803F025
:102EA00085F84FF4C020019001208DF80800002023
:102EB0008DF809004FF4602003904FF400600490F7
:102EC00005208DF8140001A9E34803F096F80123CA
:102ED0001A461946E04803F028F901230222114658
:102EE000DD4803F022F9012303220B21DA4803F025
:102EF0001CF9012304220D21D74803F016F9012300
:102F000005220F21D44803F010F90121D24803F023
:102F100068F90121CF4803F09CF8CE4803F0BBF8D4
:102F200000BFCC4803F0BCF80028FAD1C94803F030
:102F3000C1F800BFC74803F0C2F80028FAD1012148
:102F4000C54803F086F8C44803F0A5F800BFC2489E
:102F500003F0A6F80028FAD1BF4803F0ABF800BF91
:102F6000BD4803F0ACF80028FAD10121B94803F0BC
:102F70007BF80121B94803F00EFB022003F03AFB75
:102F800007B000BD1FB50121084604F0A3FAB32025
:102F9000ADF8000040F2CF70ADF804000020ADF8AD
:102FA0000600ADF8020069464FF0804004F0BEFB19
:102FB00001221146900704F030FF1C208DF80C0010
:102FC00000208DF80D0001208DF80E008DF80F0007
:102FD00003A802F082FF0121880704F003FF1FBD50
:102FE00008B501208DF802004002ADF80000102065
:102FF0008DF8030069469A4803F0F6FE1020ADF8FC
:1030000000008DF803006946954803F0EDFE10219D
:10301000934803F098FF0020924908702020ADF8F3
:10302000000010208DF8030069468F4803F0DCFE95
:1030300020218D4803F087FF00208C490870402034
:10304000ADF8000010208DF803006946864803F0B3
:10305000CBFE4FF48050ADF8000010208DF8030037
:1030600069467F4803F0C0FE4FF480517C4803F06E
:103070006AFF4FF40050ADF8000010208DF80300F7
:103080006946774803F0B0FE4FF40051744803F0EE
:103090005AFF4FF48040ADF8000010208DF8030077
:1030A00069466F4803F0A0FE4FF480416C4803F07E
:1030B0004AFF01216E4803F068FF0820ADF80000C8
:1030C00010208DF803006946654803F08DFE04204A
:1030D000ADF8000010208DF803006946654803F044
:1030E00083FE4FF48050ADF8000010208DF80300EF
:1030F0006946614803F078FE0020FFF7AEFA4020F1
:10310000ADF8000048208DF8030069465A4803F0E6
:103110006BFE8020ADF8000048208DF80300694662
:10312000554803F061FE4FF48070ADF80000482070
:103130008DF803006946504803F056FE4FF4807046
:10314000ADF8000004208DF803006946444803F000
:103150004BFE08BDC820494981F8E00000214748DE
:1031600080F8E11080F8E91080F8EF1080F8EA109C
:10317000012180F8E210002180F8E310012180F89D
:10318000E410002180F8E51080F8E61080F8E710E0
:10319000012180F8EB1080F8EC10322180F8ED105E
:1031A000642180F8EE1070470320344981F8B000A4
:1031B0004621324880F8B110412180F8B2103C21FC
:1031C00080F8B310372180F8B4100A2180F8B510C8
:1031D000962180F8B6100A2180F8B710962180F861
:1031E000B810642180F8B910372180F8BA10412155
:1031F00080F8BB105A2180F8BC10732180F8BD10F4
:103200003C2180F8BE10462180F8BF103C2180F898
:10321000C010502180F8C1100C2180F8C210172175
:1032200080F8C3101D2180F8C4102E2180F8C5102D
:10323000162180F8C610242180F8C710272180F8B5
:10324000C810342180F8C9102B2180F8CA103C2105
:1032500016E0000000240140002801400800024060
:10326000000C014021000020000801402200002045
:1032700000023000001401400010014098120020AC
:1032800080F8CB10912180F8CC10822180F8CD10ED
:10329000782180F8CE107047002006E0FB49095CD9
:1032A000FB4A42F82010411CC8B20328F6DB7047E5
:1032B00000B500230EE0F748C15CF548103040F837
:1032C0003310F448C15CF248103000EBC300416099
:1032D000581CC3B2032BEEDBFFF7DEFF00BD10B5B9
:1032E000FFF7E6FF0A20EA4981F8A0002A21E84812
:1032F000483005F0D1FC2A21E548743005F0CCFCBB
:10330000FF221521E248303005F0BEFC10BD10B59B
:10331000FFF7E5FFFFF748FFFFF71CFF10BD0EB5F5
:1033200005F0C9FA4FF48031C80202F008FE4FF4EC
:10333000806003F089FF002003F08FFF4FF400400E
:1033400003F0A6FF01213D2004F0B7F80121480257
:1033500004F0B3F80121880204F0AFF801218803DA
:1033600004F0ABF801F07AFEFCF7F1FFFCF776FF12
:10337000FDF796FAFDF795FAC548D0F86001C64901
:10338000884217D0C248D0F8600100F07040B0F118
:10339000004F05D0FFF7BBFF0020FDF7CEFA03E09A
:1033A000FFF702FFFFF7D6FEBB48B949C1F860013D
:1033B000FDF784FAFFF714FEFFF7E4FD01F08EFC41
:1033C0000821012003F026FE4FF4807000900020B9
:1033D0008DF804000C208DF8050001208DF8060002
:1033E000684603F043F917208DF8080003208DF894
:1033F000090000208DF80A0001208DF80B0002A8BA
:1034000002F06BFDFFF78BFC0EBD4FF47A70FCF7FA
:103410004AFFFFF784FF0A20FCF745FF4FF6FF70D5
:1034200002F07EFB4FF4784002F08DFB4FF6FF7008
:1034300002F08CFB182002F083FB6C227C2197A009
:1034400002F087FB4FF4FA70FCF72DFFFFF747FC03
:10345000FFF71DFC00209349087093490870FEF7A0
:103460005BFD15228A493031904805F0C8FB4FF4C6
:1034700000718F4803F065FD01208E49087000201F
:10348000FDF733FF01208C49087000208B4908703C
:10349000FDF71EFFFDF714FF0120FDF7A3FF73E00A
:1034A00087480078012802D10020854908708548A6
:1034B0000078012806D100208249087082480088DF
:1034C000824908808248007801280AD1002080497A
:1034D00008704FF40071764803F035FD00207549FF
:1034E00008707C480078012839D16F48007890BB7B
:1034F0007948007878BB79480078401C7749087093
:10350000084600780A2822DD4FF40071684803F06D
:1035100018FD01206749087001F05AFC4FF4FA7059
:10352000FCF7C1FE01F0CFFB0020FDF7DEFE01201D
:103530006149087000206A490880FDF7C9FEFDF75F
:10354000BFFE0120FDF74EFF0020644908700A20ED
:10355000FCF7A9FE03E0FFE700206049087061481E
:103560000078012804D100205E49087001F0ABFB0F
:10357000FFF70EFBFFF775FAFFF759FAFEF7ECFFBE
:10358000FEF7F2F9FDF7F5FE8AE72DE9F04705466B
:103590000C464648005D0A38A84202DC2846BDE8D1
:1035A000F087284606F00EFD82464F4951F8240068
:1035B000514606F01BFD07464C4850F8241038468B
:1035C00006F064FB0646304606F034FB0746002250
:1035D000134606F0C9F801D8002609E0304606F087
:1035E00029FB07460022424B06F0F8F900D2414E73
:1035F000304606F0AFFC00F0FF094846CFE730B593
:1036000003463025541E0D5500248C5410460FE0FF
:103610000A2493FBF4F504FB15343034E5B2441E60
:103620000D55E0B200B905E00A2493FBF4F4A3B20F
:10363000002BEDDC00BF904201D1441EE0B203E05C
:103640003025441E0D55E0B20028F9DC30BD10B520
:10365000024610460A2807DA30230B704B708B7035
:1036600000F13003CB7088E0642845DA30230B701A
:103670004B700A2390FBF3F330338B700A2390FBDB
:10368000F3F403FB14033033CB7076E0B9A30108E5
:1036900098120020B5A301085311068757454C43E3
:1036A0004F4D4500380000203C000020AC93002026
:1036B000000C0140200000206B000020C40000200E
:1036C000720000206A0000209600002012010020F5
:1036D000780000201E000020310000203200002071
:1036E000AA000020B10000203035002084350020E1
:1036F00000E06F4000007F43B0F57A7F19DA302395
:103700000B70642390FBF3F330334B70642390FB16
:10371000F3F403FB140398B20A2390FBF3F3303362
:103720008B700A2390FBF3F403FB14033033CB704C
:1037300023E04FF47A7390FBF3F330330B704FF4C4
:103740007A7390FBF3F403FB140398B2642390FBA9
:10375000F3F330334B70642390FBF3F403FB140357
:1037600098B20A2390FBF3F330338B700A2390FB5B
:10377000F3F403FB14033033CB7000230B7110BD43
:1037800010B50024FE480119FE480078FFF75FFFDE
:10379000241D2020FA490855641CFB48007807289E
:1037A00017D108462044F949F74A127851F82210F7
:1037B0000A6802604968416004F10800C4B2F04838
:1037C00001190222F2480078FFF719FFA01CC4B2C9
:1037D0000FE0EB480119ED48EB4A127850F822004F
:1037E00002680A6042684A608068886004F10C00E0
:1037F000C4B20020E2490855601CC4B20121E0486F
:10380000FDF7CAFD10BD10B5FDF714FC0120FDF752
:10381000E9FD01F0E9FA0C20FDF767FD10BD10B5D8
:103820000120FDF7DFFD01F0DFFA0E20FDF75DFD61
:1038300010BD10B5FFF730FD01F045FA002001F092
:103840001DFA01F0B9FA40F6B830FCF72CFDD1486A
:103850000178D148D14A127840F8321001F033FA99
:1038600001F0B6FA40F6B830FCF71DFDCC480178FF
:10387000C948CA4A127800EBC200416001F023FA3D
:10388000012001F0FBF901F097FA40F6B830FCF79F
:103890000AFDC0480178C048C04A127840F832108A
:1038A00001F011FA01F094FA40F6B830FCF7FBFC95
:1038B000BB480178B848B94A127800EBC2004160B1
:1038C00001F001FA022001F0D9F901F075FA40F691
:1038D000B830FCF7E8FCAF480178AF48AF4A12783F
:1038E00040F8321001F0EFF901F072FA40F6B8300A
:1038F000FCF7D9FCAA480178A748A84A127800EB3F
:10390000C200416001F0DFF9FCF7D8FFA24910398D
:1039100091F8E10001F0B2F910BD10B50446202085
:1039200097490870452048700222891C2046FFF7FD
:1039300066FE10BD64281FDB0022CA700A2290FBBD
:10394000F2F302FB130230328A700A2290FBF2F289
:10395000D0B20A2290FBF2F302FB130230324A701B
:103960000A2290FBF2F2D0B20A2290FBF2F302FBA1
:10397000130230320A701FE00A2814DB00228A701A
:103980000A2290FBF2F302FB130230324A700A2241
:1039900090FBF2F2D0B20A2290FBF2F302FB130288
:1039A00030320A7008E000224A700A2290FBF2F3DB
:1039B00002FB130230320A70704710B57948007864
:1039C00009280FD06E4878A10988018077490978C5
:1039D000133188B202226A49891CFDF7BAFA012024
:1039E000FDF783FC4FF40071714803F0AAFA01203F
:1039F0007049087001F067F90320FDF7F3FC10BD72
:103A0000F0B501460A2901DA4C20F0BD4C276A487E
:103A1000008801FB01054C2301F14C042BE004EB71
:103A2000030C1FFA8CF000EBD07C4FEA6C02FF2AEB
:103A300006DDFF22FF24E01800EBD07CCCF34F0220
:103A400002FB02F086B2A5F11400B04204D828307F
:103A5000864201D81046D8E7D81C844206DCE0181C
:103A60001FFA80FC0CEBDC704010CEE7AE4201D2B6
:103A7000134600E01446D2E770B505460E464C24C6
:103A80006C433046FFF7BCFFB4FBF0F4A0B270BD4E
:103A90007FB505460021494804F0A4F9012104201E
:103AA00003F018FD25B1012D05D0022D09D105E047
:103AB0004FF4E17406E04FF4C87403E04FF4B474BB
:103AC00000E000BF00BFB320ADF8000040F22B10B3
:103AD000ADF804000020ADF80600ADF8020069461C
:103AE000364803F023FE01221146344804F095F9CC
:103AF0001E208DF80C0000208DF80D0001208DF89F
:103B00000E008DF80F0003A802F0E7F901212B4801
:103B100004F068F97FBD10B529480078401C284999
:103B20000870084600780521B0FBF1F201FB120095
:103B30002349087023480978405C38B9202122487D
:103B400003F001FA00202149087006E020211E48F8
:103B500003F0F7F901201D49087010BD10B50446A7
:103B600020681B490840B0F1005F3CD160681949EA
:103B70000860084600681849086020682EE00000C8
:103B8000DC4500204D00002019010020D800002055
:103B9000180100200E010020A812002009010020B9
:103BA0000F0100201E00002020450000A000002082
:103BB000000C014020000020F80000200008004018
:103BC000FA0000200CA40108000801402200002097
:103BD0000000FE2F00010020FC000020FCF737FB56
:103BE000F9480068804710BD704700BFFEE700BF7E
:103BF000FEE700BFFEE700BFFEE770477047704773
:103C000010B5F2480088002804DDF0480088401E06
:103C1000EE490880EE480088401CED4908800846BF
:103C20000088B0F57A7F07DB0120EA490870EA498D
:103C300008700020E6490880E848007800280DDD7B
:103C4000E6480078401EE54908700846007828B923
:103C50000120E34908701420E0490870E148008819
:103C600000280ADDDF480088401EDE49088008463B
:103C7000008810B90120DC490870DC480078012870
:103C80007CD1DB480078032878D0DA480078002817
:103C90003DD0D9480078D9490880D74800783C28D9
:103CA00005DDD7480078401CD549087008E0D448A5
:103CB0000078002804DDD2480078401ED049087002
:103CC000D0484078B42805DACF480078401CCE4967
:103CD000087008E0CC480078002804DDCA48007865
:103CE000401EC9490870C7480078B42805DAC7489B
:103CF0000078401CC549087020E0C44800780028BE
:103D00001CDDC2480078401EC049087016E0BA4861
:103D10000078BF490880B84800783C2805DAB848E0
:103D20000078401CB649087008E0B54800780028C3
:103D300004DDB3480078401EB1490870B5480078EA
:103D4000401CB449087008460078052839DB00207B
:103D50000870FFF7E0FEB0480078401CAE490870DC
:103D6000084600780A282CDB00200870A448007858
:103D70001E2804DB0120A949087003E021E000208F
:103D8000A649087000209E4908709F4800781E28A8
:103D900003DB0120A249087002E00020A04908705E
:103DA000002099490870994800781E2803DB0120FB
:103DB0009C49087002E000209A490870002093494D
:103DC000087010BD10B52021974804F093FC50B145
:103DD000954804F025FCC4B22046FCF7B5FB012051
:103DE0009249087016E080218F4804F083FC88B166
:103DF0008F480088002807DDFCF7F4FB04462146C5
:103E0000894804F009FC05E0002240F22771864849
:103E100004F0A1FB10BD10B52021864804F06AFC17
:103E200050B1844804F0FCFBC4B22046FCF7BAFC55
:103E300001208149087016E080217E4804F05AFC78
:103E400088B17E480088002807DDFCF7F2FC0446B4
:103E50002146784804F0E0FB05E0002240F227719B
:103E6000744804F078FB10BD10B50121744804F0CB
:103E700076FA90B10121724804F07AFA5B48007832
:103E8000012803D06F480088002806DDFEF761FC9A
:103E90006D480068401C6C49086010BD10B50023D7
:103EA0006A48007808B9002010BD002300210022D4
:103EB0000FE06748845C6748805C0A38844202DA15
:103EC000481CC1B203E0994200DD0B460021501CA2
:103ED000C2B2162AEDDB994200DD0B46032B01DB53
:103EE0000120E1E70020DFE710B55848007800B96D
:103EF00010BD594800784006000E57490870FFF77A
:103F0000CDFF012808D154480078401C5249087060
:103F100001205249087002E00020504908705048C2
:103F2000007800283AD14C48007800F003000328BC
:103F300014D101204A4908704A48007803280ED15C
:103F40000020494908704948008820F0400047494E
:103F500008800846008840F010000880A5E041482D
:103F60000078022819D10020414908703F48008894
:103F700040F002003D4908800846008820F001001A
:103F8000088004203B49087000203B4908603B49F9
:103F900008803B4908803B49088086E02E4800782D
:103FA00000F00F0070B906203749087000202C4936
:103FB00008702C48007802286AD12F4800883349BD
:103FC000088072E071E063E0FC000020D200002075
:103FD000040100207200002073000020C0000020B7
:103FE000BE00002076000020780000206B0000203A
:103FF0001E000020220000202B00002036000020A0
:10400000380000202C000020390000203A00002059
:1040100034000020060100203B0000203C0000206E
:104020003E00002040000020003801402E0100200A
:10403000040000200048004030010020180000204B
:1040400000080040680000206000002020000020E0
:1040500046140020AC9300202F00002031000020E7
:104060003000002008010020AF000020AA0000203E
:10407000AC00002091000020880000208C0000206F
:104080005E00002096000020920000201001002019
:10409000FE480078032808D14620FD490870FD48F5
:1040A000008820F01000FB490880FB4800780128B8
:1040B0003DD1F6480078022839D1F8480068B0F5BB
:1040C000617F34D2002425E0F5480078012803D030
:1040D000F448007800280CDDF348005DC4EB44117F
:1040E000C1EB0421F14A02EB8101EC4A12688854C9
:1040F0000EE0ED49085D2146FFF747FAC4EB441195
:10410000C1EB0421E94A02EB8101E44A12688854B8
:10411000601CC4B2152CD7DBE5480078E549DF4ABE
:1041200012688854DD480068401CDC49086000BF04
:10413000DEE6D648007802284CD1DF480088B0F58A
:10414000FA6F10DADD480078DD49DB4A12888854BE
:10415000DA484178DB48D84A12888154D64800882A
:10416000401CD5490880D8480078012817D1D74885
:10417000008840F2523188422CDAD0480078D44985
:10418000D24A12888854CD484178D248CF4A128802
:104190008154CE480088401CCC4908801AE0C748AA
:1041A0000078CD49CD4A12788854C4484178CA482D
:1041B0003230CA4A12788154C8480078401CC74936
:1041C000087008460078322190FBF1F201FB1200E2
:1041D000C24908707047AD480078022813D1BA4828
:1041E000007801280FD1BE480088B0F5617F0ADA57
:1041F000BC480078BC49BA4A12888854B84800883C
:10420000401CB74908807047A048007802282DD18B
:10421000B64800780128FAD1B5480088B0F5967FF5
:1042200024DAB4480078012856D1B348007802282F
:104230001DD1B2488178B248AD4A12888154AF4846
:104240004179B048AA4A12888154AC48017AAE48F4
:10425000A74A12888154A948C17AAC48A44A128856
:104260008154A3480088401CA1490880DEE1A2488F
:104270000078C0B9A1480078A5499D4A12888854A1
:104280009E48C178A3489A4A128881549B488179F4
:10429000A148974A128881549848417A9F48944A85
:1042A00012888154C2E1954841789D48904A12880D
:1042B0008154924801799B488D4A128881548F48D5
:1042C000C17999488A4A128881548C48817A9748E2
:1042D000874A12888154A9E187480078022872D160
:1042E00086488078B4214843914991F8A31090FB07
:1042F000F1F0FF2809DA81488078B42148438C49DD
:1043000091F8A31090FBF1F000E0FF20C1B27C48CF
:10431000774A1288815479484079B42148438449C6
:1043200091F8A61090FBF1F0FF2809DA7348407964
:10433000B42148437E4991F8A61090FBF1F000E0CB
:10434000FF20C1B26F486A4A128881546B48007AD4
:10435000B4214843764991F8A91090FBF1F0FF2869
:1043600009DA6648007AB4214843714991F8A910E6
:1043700090FBF1F000E0FF20C1B263485C4A128874
:1043800081545E48C07AB4214843694991F8AC1021
:1043900090FBF1F0FF2809DA5848C07AB42148436D
:1043A000634991F8AC1090FBF1F000E0FF20C1B23E
:1043B00056484F4A128881544D480088401C4C4949
:1043C000088033E1FFE74C48007800285CD14B4877
:1043D0000078B4214843564991F8A11090FBF1F0C0
:1043E000FF2809DA45480078B4214843504991F83C
:1043F000A11090FBF1F000E0FF2045493C4A1288F3
:1044000088543E48C078B4214843494991F8A410E3
:1044100090FBF1F0FF2809DA3848C078B42148430E
:10442000434991F8A41090FBF1F000E0FF20C1B2E5
:1044300038482F4A1288815430488079B421484343
:104440003B4991F8A71090FBF1F0FF2809DA2B48BF
:104450008079B4214843364991F8A71090FBF1F0D8
:1044600000E0FF20C1B22C48214A12888154234821
:10447000407AB42148432E4991F8AA1090FBF1F0FC
:10448000FF2860DA1D4855E064E0000008010020C4
:10449000AD000020AA00002030000020880000208D
:1044A000830000201A0100204614002054460020FA
:1044B0005E000020289000209A00002028000020A4
:1044C0003C3600200C3E002090000020960000208A
:1044D000C193002013970020D835002099000020B8
:1044E000940000202A000020659A0020450000204A
:1044F0009C00002084000020230000205B1400208A
:1045000041A00020C5A3002049A70020CDAA00207B
:10451000E99D00206DA10020F1A4002075A80020D5
:10452000159F002099A200201DA60020A1A900200F
:1045300098120020407AB4214843FE4991F8AA100D
:1045400090FBF1F000E0FF20C1B2FB48FB4A12886B
:1045500081546BE0FA484078B4214843F54991F81A
:10456000A21090FBF1F0FF2809DAF5484078B42159
:104570004843F04991F8A21090FBF1F000E0FF20D1
:10458000C1B2F048ED4A12888154ED480079B42157
:104590004843E84991F8A51090FBF1F0FF2809DAAB
:1045A000E7480079B4214843E24991F8A51090FB0F
:1045B000F1F000E0FF20C1B2E348E04A12888154E4
:1045C000DF48C079B4214843DA4991F8A81090FB3C
:1045D000F1F0FF2809DADA48C079B4214843D54917
:1045E00091F8A81090FBF1F000E0FF20C1B2D7488D
:1045F000D24A12888154D248807AB4214843CD49A6
:1046000091F8AB1090FBF1F0FF2809DACC48807AE2
:10461000B4214843C74991F8AB1090FBF1F000E09A
:10462000FF20C1B2CA48C54A12888154704710B5EC
:10463000022001F0CBFF00286FD0022001F0DAFF4A
:10464000C4480068401CC3490860002412E0C24806
:1046500050F82400C0F30720C04901F81400BE48F8
:1046600050F82400000E012101EB4401BB4A5054D4
:10467000601CC4B2052CEADBB848407AB84908701F
:10468000B648C078B7490870B44840784870B34815
:104690000078B5490870B1480079B4490870AF484E
:1046A000007A4870B248007807280FD2DFE800F09F
:1046B000040F1A3F6387AB00A8484079AD490870E2
:1046C000A6488079C871A548C0798873A6E0A34838
:1046D0004079A8494870A148807908729F48C079FC
:1046E000C8739BE09D484079A24988709B488079B7
:1046F00048729A48C07908749F48007820B9974852
:1047000080788F49087011E09B480078012805D116
:10471000924880788A49487008E0D5E09648007849
:10472000022803D18D4880788549887076E08B48CF
:1047300040799049C8708948807988728748C079E3
:1047400048748D48007820B9844880787C49C870C6
:1047500010E089480078012804D1804881787848A1
:10476000017107E084480078022803D17B488178F2
:104770007348417152E0794840797E490871774821
:104780008079C8727548C07988747B48007820B9F0
:10479000724880786A49887110E07748007801286B
:1047A00004D16E4881786648C17107E0724800788C
:1047B000022803D169488178614801722EE0674878
:1047C00040796C4948716548807908736348C079BD
:1047D000C8746948007820B96048807858494872A0
:1047E00010E065480078012804D15C48817854487D
:1047F000817207E060480078022803D15748817829
:104800004F48C1720AE0554840795A498871534867
:10481000807948735148C079087500BF00BF54487B
:104820000078401C5249087008460078FDF715FFD3
:104830004F480078072807D1FFF756FBFFF779FCB0
:10484000FFF7E2FCFFF7C7FC49480078072803DAC6
:1048500001214A4801F03DFC45480078072846D12F
:1048600000204349087008460078FDF7F6FE4448EA
:10487000007848BB40480078022811D1C102414865
:1048800002F05FFB00203C4908704FF400513D48A6
:1048900002F059FB4FF480413A4802F054FB26E005
:1048A0003548007888B94FF48051364802F04BFB08
:1048B0004FF40051334802F044FB01202E490870A8
:1048C0008103304802F03FFB11E04FF480512D4846
:1048D00002F039FB4FF400512A4802F034FB4FF448
:1048E0008041284802F02DFB02202349087010BDAA
:1048F00010B50121880703F032FD002874D0012192
:10490000880703F035FD2048007800280ADD1E489E
:104910000078401E1C4908700846007810B9012034
:104920001A4908701A48007800285DDD1948007897
:10493000401C31E09812002075A800209C00002047
:104940005B140020159F002099A200201DA60020C6
:10495000A1A9002064000020281400203C1400209D
:104960002B0000202C0000202A000020280000201E
:1049700024000020461400202300002000240140D1
:1049800025000020000C01402F0100202E010020F6
:104990007E000020800000209749087008460078BB
:1049A00096490978884204DA4021954802F0C9FA0C
:1049B0001AE091480178914800780C30814204DA7D
:1049C00040218F4802F0BFFA0EE000208A490870AB
:1049D0008C480078401E8B4908700846007818B94A
:1049E0004021874802F0AFFA10BD704710B54FF470
:1049F000807001F092FE00287ED04FF4807001F0AC
:104A000097FE81480088401C7F4908807F480088C5
:104A1000401C7E49088014207D4908707D4800783C
:104A2000012804D17C480078401C7B4908707B48F1
:104A30000078012808D17A480078022804D1794802
:104A40000088401C774908807748007800280DDDF1
:104A500075480078401E744908700846007828B9E7
:104A6000012072490870002071490880714800785F
:104A700000280ADD6F480078401E6E49087008461D
:104A8000007810B90020694908706B480088002838
:104A900004DD69480088401E674908805F48007847
:104AA000012808D15E480078022804D163480088B4
:104AB000401C624908806248007800280DDD60488B
:104AC0000078401E5E4908700846007828B900202A
:104AD0005C49088001205C4908705C480078002827
:104AE0000CDD5A480078401E584908700846007886
:104AF00020B90020544900E070E008705448007864
:104B0000002812DD52480078401E514908700846BE
:104B1000007850B94F48008820F001004D490880C6
:104B200003204D490870FEF748FF4C4800780028E4
:104B300014DD4A480078401E48490870084600784D
:104B400060B947480078012805D14248008840F004
:104B500020004049088001204249087042480078FE
:104B6000002810DD40480078401E3F490870084684
:104B7000007840B93748008820F00800354908809F
:104B800001203849087039480078002810DD37487E
:104B90000078401E354908700846007840B92D4815
:104BA000008820F040002B49088001202D49087022
:104BB0002F4890F8B00000F0020000280EDD2648D3
:104BC000007858B92B480088C82807DD0220224900
:104BD0000870FEF7F2FE00202649088010BD7047DD
:104BE00010B50221244801F0E5FB18B1022122484A
:104BF00001F0E9FB10BD0000800000207F000020D4
:104C0000000801407E0000205C0000209E00002083
:104C1000A50000205800002059000020300000208E
:104C2000080100205E000020430000204500002015
:104C30009C000020440000207A0000208C0000200E
:104C4000910000209400002090000020920000209D
:104C5000AC000020AA000020A0000020AD00002031
:104C60003C000020B1000020AE000020AF0000207A
:104C700098120020480000200024014010B504468E
:104C80006248047024B1012C03D0022C09D101E048
:104C900000BF00BFFF205E490870F0205D4908702A
:104CA0000BE00020594908705B48007C58490870A7
:104CB0005948007D5749087000BF00BF534800782D
:104CC000FEF7E6FE10BD5548007830B1002053498C
:104CD000087053490880091D0880704700B589B0E5
:104CE00003208DF822000120ADF8200018208DF857
:104CF000230008A94B4802F077F80220ADF8200005
:104D000018208DF8230008A9464802F06DF801210B
:104D1000022002F0DFFB1720ADF81400FE20ADF8F2
:104D200018000020ADF81A00ADF8160005A93C489F
:104D30003C3802F0FBFC6020ADF804000120ADF827
:104D400006000020ADF80800ADF80A00ADF80C0030
:104D500001A933483C3802F0B5FD082130483C3801
:104D600003F086F96020ADF804000120ADF80600DC
:104D70000020ADF80800ADF80A00ADF80C0001A95C
:104D800027483C3802F0E9FD082125483C3803F06B
:104D900078F9012122483C3803F024F8FFF793FF0B
:104DA00001211F483C3803F029F81B4991F8E10024
:104DB000FFF764FF09B000BD022018490870002009
:104DC0001749091D088012480078091F088070479C
:104DD0000320124908700F4800781149091D088006
:104DE0000020091F0880704710B5FFF76CFF0120F5
:104DF000FBF759FA10BD064800780949088070474A
:104E0000044800780649091D088070470901002000
:104E10000E0100200F010020981200200801002040
:104E20003C040040000C01402DE9F84F2A21834842
:104E300003F032FF0024F7E081480088401E1FFA8B
:104E400080F84FF0000B00252CE0C4EB4410C0EBC1
:104E500004207C4901EB8000415D7B48005D0A38FD
:104E600081421DDAC4EB4410C0EB0420754901EB0C
:104E70008001681C095C7448005D0A3881420FDAC1
:104E8000C4EB4410C0EB04206E4901EB8001A81C68
:104E9000095C6D48005D0A38814201DAA84608E0E5
:104EA000681C85B26649088800EBD071B5EB610FCC
:104EB000CBDB00BF62480088401E85B22CE0C4EB0B
:104EC0004410C0EB04205F4901EB8000415D5E4867
:104ED000005D0A3881421DDAC4EB4410C0EB0420A7
:104EE000584901EB8001681E095C5748005D0A388B
:104EF00081420FDAC4EB4410C0EB0420514901EBAE
:104F00008001A81E095C5048005D0A38814201DA20
:104F1000AB4608E0681E85B24949088800EBD071AD
:104F2000B5EB610FCBDC00BF4549088800EBD071C1
:104F300008EB6101594575DC002600200090ABEBC1
:104F4000080087B2B1464FF0FF0A3846F91707EB61
:104F5000917108EBA1018DB230E0C4EB4410C0EBBD
:104F60000420384901EB8000405D06440098401C55
:104F70000090C4EB4410C0EB042001EB8000405DC6
:104F8000484507DDC4EB4410C0EB042001EB800072
:104F900010F80590C4EB4410C0EB0420294901EB44
:104FA0008000405D504507DAC4EB4410C0EB04209C
:104FB00001EB800010F805A0681C85B207EB4700E4
:104FC000C11700EB917108EBA101A942C5DAD145E7
:104FD00028DDA9EB0A00142824DA06EB8600460037
:104FE0000098B6FBF0F6194830F81400B04202D829
:104FF000164921F81460164830F81400B04202D364
:10500000134921F81460134850F824003044114922
:1050100041F824001048005D401C0F49085507491D
:1050200021F81460601C84B2152CFFF605AFBDE8B2
:10503000F88F7047014600207047704766AC00202B
:105040001001002054460020AC93002090AC0020BA
:10505000BAAC0020FCAB002050AC002000B587B0FB
:105060004FF48060ADF8180004208DF81B0001207B
:105070008DF81A0006A9864801F0B6FE4FF40070BC
:10508000ADF8180018208DF81B0006A9804801F023
:10509000ABFE4FF4E13002900020ADF80C00ADF80B
:1050A0000E00ADF81000ADF814000C20ADF81200A1
:1050B00002A9784803F0B7F94FF4A06000F008FFA8
:1050C00025208DF8040001208DF8050002208DF8C0
:1050D000060001208DF8070001A800F0FEFE012265
:1050E00040F225516B4803F036FA002240F2277156
:1050F000684803F030FA0121664803F020FA0020E6
:1051000065490870654908700121880402F0E2F9D8
:105110004FF40060ADF8180004208DF81B0001204A
:105120008DF81A0006A95E4801F05EFE4FF480601B
:10513000ADF8180018208DF81B0006A9584801F09A
:1051400053FE4FF4E13002900020ADF80C00ADF8B2
:105150000E00ADF81000ADF814000C20ADF81200F0
:1051600002A9504803F05FF94FF4A06000F0B0FED0
:1051700027208DF8040001208DF8050002208DF80D
:10518000060001208DF8070001A800F0A6FE01220C
:1051900040F22551434803F0DEF9002240F2277126
:1051A000404803F0D8F901213E4803F0C8F9002037
:1051B0003D49087007B000BD70B504460D4606E0D5
:1051C000FBF72BFA691D884200DD01E00026F7E7B6
:1051D00000BF002240F227712E4803F0BCF903E023
:1051E0002078FBF7E5F9641C2800A5F101018DB2D8
:1051F000F6D1012240F22771264803F0ACF970BDC8
:1052000070B504460D4606E0FBF7B8FA691D884202
:1052100000DD01E00026F7E700BF002240F2277121
:10522000224803F098F903E02088FBF746FAA41C13
:105230002800A5F101018DB2F6D1012240F22771BB
:105240001A4803F088F970BD70B504460D4606E0B3
:10525000FBF70AFB691D884200DD01E00026F7E745
:1052600000BF002240F227710E4803F074F903E0FA
:105270002078FBF7C4FA641C2800A5F101018DB267
:10528000F6D1012240F22771064803F064F970BD9F
:1052900000080140003801402E0100202F010020AD
:1052A000000C014000480040300100200044004054
:1052B0002DE9F04704460F46944600212DE04FEAC1
:1052C000812808FB07F898FBF3F5A812A5EB8022CC
:1052D00000F1010814F8088014F80090A8EB090800
:1052E00008FB02F84FEAA82814F800A000F1010911
:1052F00014F80990AAEB090909FB02F908EB2958EF
:1053000014F8009008EB0906FF2E00DDFF26002EA2
:1053100000DC00260CF80160491C9942CFDBBDE897
:10532000F0872DE9F04F91B0FE480088322803DB6A
:10533000FC480088B42808DDFF20FB490870FB49C1
:105340000870002011B0BDE8F08F4FF44071F848AC
:1053500003F0A2FC002414E0F64B03EB8412F14BA3
:105360001B88A3F10C01C4EB041303EB8303DFF8E8
:10537000C8C30CEB8303181D3023FFF799FF601C93
:1053800004B20C2CE8DB00244CE04FF0000944E0B0
:1053900004EB4400E74901EB801010F809000F907E
:1053A00004EB4400401C01EB801010F809000E9043
:1053B00004EB4400801C01EB801010F809000D90F4
:1053C0004FF4FA710F9841430E98401C91FBF0F096
:1053D0000C900C9801B24FEA490204EB440002EB36
:1053E0004010D34A22F810104FF4FA710D9841433F
:1053F0000E98401C91FBF0F00C900C9801B24FEA13
:10540000490204EB440002EB4010401CC84A22F859
:10541000101009F101000FFA80F9B9F1300FB7DB74
:10542000601C04B2042CB0DBC4480590C048069050
:10543000C34807904FF0450B0027B846002464E0AE
:1054400000200490814613E0069830F919000B9073
:1054500009FB0B41079830F911100A91049ADDE914
:105460000A1000FB0120049009F101000FFA80F9F5
:10547000B9F5C07FE8DB049804F05FF90022B14B76
:10548000CDE9020103F0D2FF05460E4609FB0B42AF
:10549000079931F91210C82201FB02F004F04DF90E
:1054A0000022A84BCDE9000103F0C0FF2A46334695
:1054B000CDE9020103F0FEFE05460E4686F00041EE
:1054C0002846CDE9025103F0B3FDCDE908010020E3
:1054D0009D49DDE9082303F0EDFE02460B46CDE9C8
:1054E00002010020984903F0A1FF05460E462A4616
:1054F00033463846414604F037F904D22F46B046C9
:10550000059810F804A0601C04B25C4598DB504676
:105510004FEAEA710AEB9171C1F38701824A117077
:105520004FEAEA710AEB91718910AAEB81017F4A77
:105530001170002006E72DE9F04F89B006460D46B0
:1055400017469846022F03DA002009B0BDE8F08F15
:10555000002006900590002409E055F824100698D4
:10556000814203DD55F8240006900594641CBC427A
:10557000F3DB4FF00009CDF81C90CA46CDF820901F
:10558000CB46002431E00598844200D12CE00BF199
:10559000010B56F8240004F0FDFC4946049004F089
:1055A00075FB814655F8240004F0F4FC5146049044
:1055B00004F06CFB824656F8241001FB01F004F065
:1055C000E9FC0490089904F061FB089056F8241057
:1055D00055F8242001FB02F004F0DCFC049007994C
:1055E00004F054FB079000BF641CBC42CBDB584660
:1055F00004F0D0FC0190089904F0F8FC49460390AF
:10560000484604F0F3FC0290039904F0C5FD002124
:10561000049004F06BFC01D1002096E7584604F09A
:10562000B9FC0090089904F0E1FC49460290484614
:1056300004F0DCFC0190029904F0AEFD04905846A1
:1056400004F0A8FC0090079904F0D0FC49460290B1
:10565000504604F0CBFC0190029904F09DFD0390AC
:10566000049904F081FBC8F80000584604F092FC4D
:1056700004904846D8F8001004F0B8FC5146029057
:1056800004F080FD0390049904F06EFB1299086009
:1056900001205AE72DE9FF4F009A019B002499E071
:1056A000002591E04FEA842ADDF80890A9F101096C
:1056B0000AFB09FADDF83890A9F101099AFBF9F71C
:1056C0004FEA852ADDF80490A9F101090AFB09FADD
:1056D000DDF83490A9F101099AFBF9F6B012B9127C
:1056E000A6EB802CA7EB812801F1010909FB030936
:1056F00012F8099001FB030A12F80AA0A9EB0A09A3
:1057000009FB08F901FB030A0AF1010A12F80AA0D1
:1057100001FB030B12F80BB0AAEB0B0A0AFB0C9966
:1057200014E00000160100203A0100203B01002097
:10573000C8B20020C8AF0020E99D00203E01002033
:105740009CFD0208006AF8400000F03F4FEAA929DA
:1057500001F1010A0AFB030A0AF1010A12F80AA080
:1057600001FB030B12F80BB0DA4401FB030B0BF146
:10577000010B12F80BB0AAEB0B0B01F1010A0AFBAB
:10578000030A12F80AA0ABEB0A0A0AFB0CFA0AFB9E
:1057900008FA09EB2A5901FB030A12F80AA009EBDF
:1057A0000A0EBEF1FF0F01DB4FF0FF0EBEF1000F3E
:1057B00001DC4FF0000EDDF8349004FB095BDDF8EE
:1057C0000C9009F80BE06D1CDDF834904D45FFF6A8
:1057D00069AF641CDDF838904C45FFF661AFBDE859
:1057E000FF8F2DE9F14F94B0B6480C900020B649D8
:1057F0000870B6480088642803DBB5480078FF28A5
:1058000006D10120B0490870002015B0BDE8F08F26
:1058100000200E9015200D90002424E04FF0000A87
:105820004FF008090EE0C4EB4410C0EB0420A5497A
:1058300001EB800010F80900F02801DD0AF1010AEF
:1058400009F10109A148008808384845EBDC9F4868
:105850000088032190FBF1F0504503DD601C00B28D
:105860000E9002E0641C152CD8DB00BF142424E049
:105870004FF0000A4FF008090EE0C4EB4410C0EBF3
:105880000420904901EB800010F80900F02801DDA8
:105890000AF1010A09F101098C48008808384845D5
:1058A000EBDC8A480088032190FBF1F0504503DDD2
:1058B000601E00B20D9002E0641E002CD8DC00BF18
:1058C000DDE90D01401A00B20F90002012900E9CED
:1058D00040E04FF0080937E0C4EB4411C1EB04216C
:1058E000784A02EB810111F80920C4EB4411C1EBA5
:1058F0000421744B03EB810309F10101595C0A4453
:10590000C4EB4411C1EB04216E4B03EB810309F19D
:105910000201595C0A44C4EB4411C1EB0421694BF8
:1059200003EB810309F10301595C5018C11700EB27
:105930009171891011911199CAB21298411C12915A
:1059400014990A5409F10409604800880838484548
:10595000C2DC641C0D988442BBDB0F99129890FB4B
:10596000F1F000B210904FF420715A4803F094F90E
:1059700010202821574BCDE90010DDE90F211498A4
:10598000FFF788FE54480890524807905348099002
:105990004FF0450B0027B84600245DE0002005903D
:1059A00081460DE0079810F8091009FB0B42099891
:1059B00030F91220059801FB0200059009F1010958
:1059C000B9F5207FEEDB059803F0B7FE0022444BCB
:1059D000CDE9020103F02AFD05460E4609FB0B4204
:1059E000099931F91210C82201FB02F003F0A5FE5B
:1059F00000223B4BCDE9000103F018FD2A46334657
:105A0000CDE9020103F056FC05460E4686F0004142
:105A10002846CDE9025103F00BFBCDE90A01002035
:105A20003049DDE90A2303F045FC02460B46CDE987
:105A3000020100202B4903F0F9FC05460E462A46D8
:105A400033463846414603F08FFE04D22F46B04617
:105A50000898005D0690641C5C459FDB224906980F
:105A600008700878C11700EB91718910184A1170FD
:105A70001D490878C11700EB91718910A0EB8101D5
:105A80001A4A11700020C0E630B503461C68146045
:105A900001200FE0441E53F8244053F820502544C1
:105AA000441C53F824402C44032594FBF5F442F89D
:105AB0002040401C4C1E8442ECDC53F8204042F84D
:105AC000204030BD54460020370100201001002046
:105AD00033010020E4AC00203E01002012A40108A4
