:020000040801F1
:1000000040C30020899A01089F440108A1440108C7
:10001000A5440108A9440108AD44010800000000FE
:10002000000000000000000000000000B1440108D2
:10003000B344010800000000B5440108B7440108BA
:10004000A39A0108A39A0108A39A0108A39A010898
:10005000A39A0108A39A0108A39A0108A39A010888
:10006000A39A0108A39A0108A39A0108CB4F01089B
:10007000A39A0108A39A0108A39A0108A39A010868
:10008000A39A0108A39A0108BD570108A39A010881
:10009000A39A0108A39A0108A39A010835540108FC
:1000A000A39A0108A39A0108A39A0108A39A010838
:1000B00019530108A39A0108D9460108A39A010817
:1000C000A39A0108A39A0108A39A0108A39A010818
:1000D000A39A010835460108A39A0108874601083A
:1000E000A39A0108A39A0108A39A0108000000003E
:1000F0000000000000000000000000000000000000
:100100000000000000000000A39A0108A39A010863
:10011000A39A0108A39A0108F76B0108A39A0108A2
:10012000A39A0108A39A0108A39A0108A39A0108B7
:10013000A39A0108A39A0108A39A0108A39A0108A7
:10014000A39A0108A39A0108A39A0108A39A010897
:1001500000F002F800F062F80AA090E8000C824477
:100160008344AAF10107DA4501D100F057F8AFF254
:10017000090EBAE80F0013F0010F18BFFB1A43F085
:100180000103184770E3050090E305000A444FF0AF
:10019000000C10F8013B13F0070408BF10F8014BE6
:1001A0001D1108BF10F8015B641E05D010F8016B2B
:1001B000641E01F8016BF9D113F0080F1EBF10F88F
:1001C000014BAD1C0C1B09D16D1E58BF01F801CBB2
:1001D000FAD505E014F8016B01F8016B6D1EF9D535
:1001E0009142D6D37047000000230024002500264A
:1001F000103A28BF78C1FBD8520728BF30C148BF8A
:100200000B607047642909F0D184732909F0558681
:10021000002070471FB51FBD10B510BD09F08CFE42
:100220001146FFF7F7FF03F071FC09F0AAFE03B4D3
:10023000FFF7F2FF03BC09F0ABFE0000EFF309800B
:10024000704780F309887047EFF30880704780F3A8
:100250000888704740BA7047C0BA704730B51E4929
:10026000B1F1807F00D31DE021F07F40401E4FF0B0
:10027000E022506150170F22002807DA13071D0EE5
:10028000164B00F00F04241F1D5503E013071C0E2E
:10029000134B1C5400BF00204FF0E0229061072058
:1002A000106100BF30BD014642F2887201FB02F0CE
:1002B00000E0401E0028FCD1704700EB400202EB3A
:1002C000C00100E0491E0029FCD17047014600E052
:1002D000491E0029FCD170474019010018ED00E0CB
:1002E00000E400E040F2E730FE490880084600885C
:1002F000FD4908800020FD490880704740F2E73042
:10030000FB49088008460088FA49088070470920A0
:10031000F949088008460088F84908800020F84913
:100320000880704740F2E730F649088008460088A8
:10033000F54908800020F5490880704740F2E73011
:10034000F349088008460088F2490880704700B5E4
:1003500000222FE0F04850F82200F04901EB021192
:100360000860EF4830F81200EC4901EB0211888078
:10037000EA4800EB02108088401EE84901EB0211B8
:10038000C880E64800EB02108088401EE34901EB7C
:10039000021108810020E14901EB02114881DF4888
:1003A00000EB02108088401EDC4901EB02118881BD
:1003B000501CC2B20A2ACDDBFFF7C0FFFFF7B2FF25
:1003C000FFF7A5FFFFF79AFFFFF78CFF00BD30B5E1
:1003D000D24B03EB00135B89D04C04EB0014A488D0
:1003E000A34223DACD4B03EB00131B895B1CCB4CE0
:1003F00004EB0014A48893FBF4F504FB1533C74CFD
:1004000004EB00142381C54B03EB00131B68C34CA2
:1004100004EB001424891A191170C04B03EB00136C
:100420005B895B1CBD4C04EB0014638130BD10B5CF
:100430000146BA4800EB01104089002824DDB74886
:1004400000EB0110C088401CB44B03EB01139B88E8
:1004500090FBF3F403FB1400B04B03EB0113D880C3
:10046000AE4800EB01104089401EAC4B03EB01137A
:100470005881AA4800EB01100068A84B03EB011358
:10048000DB88C218107810BD0020FCE710B50146CB
:10049000A24800EB0110408900281BDD9F4800EBBB
:1004A00001108089401C9D4B03EB01139B8890FB3E
:1004B000F3F403FB1400994B03EB01139881974865
:1004C00000EB01100068954B03EB01139B89C218E8
:1004D000107810BD0020FCE7904901EB00118988DD
:1004E000491E8E4A02EB0012D1808C4901EB0011AB
:1004F0008988491E894A02EB001211810021874A2E
:1005000002EB0012518170470146844800EB011054
:10051000408970470146814800EB011080887F4A7E
:1005200002EB01125289801A80B270477948028822
:10053000774801888A4202DB501A80B2704702F580
:100540007A70401A80B2F9E700B50346FFF7EEFF74
:10055000B0F57A7F0DDA6F480088401C4FF47A714D
:1005600090FBF1F201FB12006A4908806D4809888E
:10057000435400BD674800886549098888420ED009
:1005800063480088401C4FF47A7190FBF1F201FB44
:1005900012005F49088063480988405C7047FF206B
:1005A000FCE700B5FFF7C2FFC0F57A7080B200BD6E
:1005B00056490988B1F57A7F13DA53490988491CED
:1005C0004FF47A7291FBF2F302FB13114E4A118041
:1005D0004E490988491C4D4A118053494A4A12889C
:1005E0008854704749480088002814DD4548008831
:1005F000401C4FF47A7190FBF1F201FB120041496B
:10060000088042480088401E4049088046483D49CD
:100610000988405C70470020FCE73C480088C0F532
:100620007A7080B2704741480288414801888A4206
:1006300002DB501A80B2704702F10A00401A80B201
:10064000F9E709203A4908800846008837490880B8
:10065000704700B50346FFF7E6FF0A280DDA334876
:100660000088401C0A2190FBF1F201FB12002F4987
:1006700008803048098820F8113000BD2B480088D8
:100680002B49098888420ED029480088401C0A213D
:1006900090FBF1F201FB12002549088025480988EA
:1006A00030F8110070474FF6FF70FBE700B5FFF719
:1006B000BAFFC0F10A0080B200BD114909880A29B9
:1006C00040DA0E490988491C0A2291FBF2F302FB29
:1006D00013110A4A11800A490988491C084A1180E5
:1006E00015492BE01A0000201C00002018000020F3
:1006F000140000201600002010000020120000202E
:100700000E00002006000020080000200400002049
:100710000000002002000020ECB301081C130020A0
:10072000D8B30108F0020020D80600200C000020F9
:100730000A000020C00A0020D40A00204D4A128876
:1007400021F8120070474C480088002814DD4B48FF
:100750000088401C0A2190FBF1F201FB120047497E
:10076000088045480088401E434908804448434962
:10077000098830F8110070470020FCE73E480088E7
:10078000C0F10A0080B270473E4802883E480188A6
:100790008A4202DB501A80B2704702F57A70401A22
:1007A00080B2F9E737490988491C4FF47A7291FB06
:1007B000F2F302FB1311334A118034491288885432
:1007C0007047304800883049098888420ED02E484A
:1007D0000088401C4FF47A7190FBF1F201FB12008B
:1007E0002949088029480988405C7047FF20FCE7B8
:1007F00000B5FFF7C9FFC0F57A7080B200BD24498B
:100800000988B1F57A7F13DA22490988491C4FF427
:100810007A7291FBF2F302FB13111E4A11801C49FC
:100820000988491C1A4A11801B491A4A128888549F
:10083000704717480088002814DD18480088401CBD
:100840004FF47A7190FBF1F201FB1200134908801A
:100850000F480088401E0E4908800F480F4909883C
:10086000405C70470020FCE709480088C0F57A70BA
:1008700080B27047120000200E00002010000020FF
:10088000D40A00201600002014000020E80A0020EE
:10089000180000201C000020D00E00201A000020AC
:1008A0007047374A3748002105E013680360121D7E
:1008B000001D4B1C99B25929F7D370472DE9F0411F
:1008C00006F00FFE352007F03EFA052726E02C48FB
:1008D00006F08DFE2A4D2B4E002407E02846316895
:1008E00006F0B3FF2D1D361D601C84B2592CF5D3C4
:1008F0004FF00108224D234E002409E0286831689A
:10090000884201D04FF000082D1D361D601C84B2B6
:10091000592CF3D3B8F1000F00D004E03800A7F150
:100920000101CFB2D3D100BFBDE8F08108B51649AF
:100930006A4608681060009808BDF1B506F0D1FD60
:10094000352007F000FA052612E00F4806F04FFEAA
:100950000D4C6D462046296806F077FF012700BF41
:1009600000BF20682968884200D0002707B104E052
:100970003000A6F10101CEB2E7D100BFF8BD000002
:1009800000F80F08BC13002000F8000870B588B00C
:100990002021684609F0D4F9C6208DF800000E2009
:1009A0008DF8010055208DF810000026F7480088CA
:1009B000864201DAF5480688F5480088864201DA61
:1009C000F348068800253FE0F0480088854211DAA8
:1009D00000240CE004EB4400C0EBC410ED4901EB33
:1009E0000010415DA01C0DF80010601CC4B2022C68
:1009F000F0DB04E00020CDF80200ADF80600E4488A
:100A00000088854211DA00240CE0C4EB041000EBEE
:100A10008000E14901EB8000415D201D0DF80010D0
:100A2000601CC4B20C2CF0DB03E0002101910291A8
:100A300003911121684605F0D1F900BFD74800881D
:100A40000028FBDC681C85B2B542BDDBD4480088B9
:100A500000128DF80200D24800788DF80300CC48CF
:100A6000008800128DF80400C94800788DF8050050
:100A700000208DF806008DF807008DF808008DF82D
:100A800009008DF80A001121684605F0A7F9002039
:100A90008DF802008DF803008DF804008DF8050034
:100AA0008DF806008DF807008DF808008DF8090014
:100AB0008DF80A001121684605F090F900208DF8A4
:100AC00002008DF803008DF804008DF805008DF804
:100AD00006008DF807008DF808008DF809008DF8E4
:100AE0000A001121684605F079F900208DF802000E
:100AF0008DF803008DF804008DF805008DF80600D0
:100B00008DF807008DF808008DF809008DF80A00AF
:100B10001121684605F062F900208DF802008DF879
:100B200003008DF804008DF805008DF806008DF89F
:100B300007008DF808008DF809008DF80A001121D2
:100B4000684605F04BF9002514E0002405E0FF217C
:100B5000A01C0DF80010601CC4B20E2CF7DB112194
:100B6000684605F03BF900BF8C4800880028FBDC94
:100B7000681C85B2062DE8DB08B070BD30B589B0C1
:100B8000C6208DF8040019208DF8050055208DF839
:100B90001F000025F2E0EDB98148008800128DF8B1
:100BA00006007F48008800128DF80700002408E046
:100BB0007C480088C0F30721201D01AA1154601C45
:100BC000C4B2162CF4DB784800880112201D01AA5B
:100BD0001154C8E0012D19D1714800788DF8060034
:100BE0006F4800788DF80700002406E06D48017812
:100BF000201D01AA1154601CC4B2162CF6DB6A48F1
:100C000000880112201D01AA1154ACE0644800883C
:100C1000801C854211DA00240CE040F2A9106043E8
:100C2000624901EB4001A81E095CA01C01AA1154F5
:100C3000601CC4B2022CF0DB09E0002405E00021B6
:100C4000A01C01AA1154601CC4B2022CF7DB564848
:100C50000088801C854205DAA81E5549085C8DF87D
:100C60001E0002E000208DF81E00B5F5167F22DC84
:100C70004C480068801C854212D200240DE0C4EB71
:100C80004410C0EB04204B4901EB8001A81E095C15
:100C9000201D01AA1154601CC4B2162CEFDB62E0C7
:100CA000002405E00021201D01AA1154601CC4B2DB
:100CB000162CF7DB57E040F25920854213D100246F
:100CC0000EE00C2C06DA324800880112201D01AA21
:100CD000115403E00021201D01AA1154601CC4B26C
:100CE000162CEEDB3FE040F25A20854212D1002460
:100CF0000DE00C2C05DA26480178201D01AA1154BC
:100D000003E00021201D01AA1154601CC4B2162C5E
:100D1000EFDB28E000241AE0A5F516701C490988CD
:100D2000891C88420DDAC4EB041000EB80001A49DC
:100D300001EB8001A5F25A20095C201D01AA115483
:100D400003E00021201D01AA1154601CC4B20C2C28
:100D5000E2DB0C2405E00021201D01AA1154601CD7
:100D6000C4B2162CF7DB1C2101A805F037F800BF30
:100D70000A4800880028FBDC681C85B2B5F5617F55
:100D8000FFF609AF00252AE000241BE0A6000020A2
:100D9000A80000206037002009A0002004000020E7
:100DA000A200002090000020A0000020E19500207B
:100DB000859C002074480020FF21A01C01AA11542A
:100DC000601CC4B2192CF7DB1C2101A805F006F841
:100DD00000BFF74800880028FBDC681C85B2062DA0
:100DE000D2DB09B030BD00B585B030208DF80000F1
:100DF00004208DF80100EF4800788DF80200ED48DE
:100E000040788DF80300EB4880788DF80400E948BD
:100E1000C0788DF8050055208DF80600072168463A
:100E200004F0DCFF05B000BD10B54021E24807F03A
:100E3000A0F808B9202010BD8021DF4807F099F8FC
:100E400008B92120F7E74FF48071DB4807F091F8EB
:100E500008B92220EFE7FF20EDE72DE9F04100255A
:100E6000D6480078022803D0D4480078012876D1EB
:100E7000002470E0D24830F8146076BBD14B9A6AF7
:100E8000012303EB4403DFF840C33CF81310630075
:100E90003CF81330183B98B205F08EFDC94B9A6AA6
:100EA000012303EB4403DFF820C33CF81310630075
:100EB0003CF813300C3B98B205F07EFDC14B1A682C
:100EC000012303EB4403DFF800C33CF81310630075
:100ED0003CF8130005F070FD3BE0FFE7002536E02D
:100EE000F6B10A20B6FBF0F100FB11676300DFF8F2
:100EF000D8C23CF813304FF00C0C0CFB153398B2F1
:100F0000B04B53F82720012303EB4403DFF8B8C2AA
:100F10003CF8131005F050FD0A20B6FBF0F614E083
:100F20006300DFF8A4C23CF813304FF00C0C0CFB4C
:100F3000153398B2A34B9A6A012303EB4403DFF8FD
:100F400088C23CF8131005F037FD681CC5B2032DAC
:100F5000C6DB601CC4B2072C8CDBFCE0FFE79748C3
:100F600000780B2803D0954800781528F5D1002487
:100F7000EEE0934830F81460002E68D1032C37DB84
:100F8000904B9A6A631C4FF0010C0CEB4303DFF8A3
:100F900038C23CF81310631C5B003CF81330183B5C
:100FA00098B205F009FD874B9A6A631C4FF0010C5B
:100FB0000CEB4303DFF810C23CF81310631C5B001A
:100FC0003CF813300C3B98B205F0F6FC7D4B1A68E8
:100FD000631C4FF0010C0CEB4303DFF8ECC13CF851
:100FE0001310631C5B003CF8130005F0E5FCADE05A
:100FF000744B9A6A012303EB4403DFF8CCC13CF83D
:10100000131063003CF81330183B98B205F0D4FC81
:101010006C4B9A6A012303EB4403DFF8ACC13CF844
:10102000131063003CF813300C3B98B205F0C4FC7D
:10103000644B1A68012303EB4403DFF88CC13CF8CE
:10104000131063003CF8130005F0B6FC7EE0032C9F
:1010500041DB00253CE00EB30A20B6FBF0F100FBBB
:101060001167631C5B00DFF860C13CF813304FF080
:101070000C0C0CFB153398B2524B53F82720631C11
:101080004FF0010C0CEB4303DFF83CC13CF81310AC
:1010900005F092FC0A20B6FBF0F617E0631C5B003B
:1010A000DFF824C13CF813304FF00C0C0CFB153367
:1010B00098B2444B9A6A631C4FF0010C0CEB43034B
:1010C000DFF804C13CF8131005F076FC681CC5B2CB
:1010D000032DC0DB3AE0002536E0F6B10A20B6FB6E
:1010E000F0F100FB11676300DFF8DCC03CF813305F
:1010F0004FF00C0C0CFB153398B2324B53F82720F1
:10110000012303EB4403DFF8C0C03CF8131005F0E3
:1011100053FC0A20B6FBF0F614E06300DFF8A8C029
:101120003CF813304FF00C0C0CFB153398B2254BE8
:101130009A6A012303EB4403DFF88CC03CF81310D8
:1011400005F03AFC681CC5B2032DC6DB601CC4B2B6
:10115000062CFFF60EAFBDE8F08170B51B48007895
:1011600010B91B48056801E01A480588002440E0D2
:1011700095B10A20B5FBF0F100FB1156164951F864
:1011800026206101C1F58D7188B2B42105F014FCEF
:101190000A20B5FBF0F52AE04CB90F490A68610155
:1011A000C1F58D7188B2B42105F006FC1FE015E091
:1011B000040000206A15002000100140DA00002021
:1011C00040480020400100206C0100206100002008
:1011D000E0000020E400002014010020FE498A6A9B
:1011E0006101C1F58D7188B2B42105F0E5FB601C89
:1011F000C4B2072CBCDB70BD70B5F8480468006849
:1012000090B9F7486421826A6E2005F0D5FBF44856
:101210006421826A9E2005F0CFFBF14864210268B8
:10122000CE2005F0C9FB1EE0B4F57A7F01D340F271
:10123000E734002515E00A20B4FBF0F100FB11466D
:10124000E74951F8262005EB45010901C1F1CE011E
:1012500088B2642105F0B0FB681CC5B20A20B4FB5B
:10126000F0F4002CE7D170BD10B5DE48007840B92D
:10127000DD48007828B9FFF7BFFFFFF76EFFFFF7E3
:10128000ECFD10BD10B50020D4490860D749088096
:10129000D74908601821D74808F030FD10BDD14962
:1012A0000870704730B503463025541E0D55002494
:1012B0008C5410460FE00A2493FBF4F504FB15341C
:1012C0003034E5B2441E0D55E0B200B905E00A2401
:1012D00093FBF4F4A3B2002BEDDC00BF904201D1EC
:1012E000441EE0B203E02025441E0D55E0B2002864
:1012F000F9DC30BD10B5C0480078002819DD182091
:1013000005F09AFA002005F09DFA4FF4784005F0B8
:1013100096FABA48BAA1096801600222011DB648CE
:101320000078FFF7BFFFD4220021B44805F08DFA02
:1013300014E0182005F080FA002005F083FA002060
:1013400005F07DFAAD48B0A10A6802608A88828003
:1013500089798171D422002105F077FA10BD10B58A
:10136000AB48007828B9AB4AA521002005F024FB42
:1013700004E0A94AA521002005F01EFBA74800783B
:10138000012806D1A64A64214FF48C7005F014FBA5
:1013900005E0A44A64214FF48C7005F00DFB10BDEC
:1013A00010B5A14A0021084605F006FB9F4A5A21C4
:1013B000282005F001FB9E4A7321282005F0FCFA45
:1013C0009C4A8C21282005F0F7FA9B4800780128D8
:1013D0000AD19A4A0021084605F0EEFA984A0021FF
:1013E000522005F0E9FA2BE09348007802280AD150
:1013F000944A0021084605F0DFFA934A0021522062
:1014000005F0DAFA1CE08C4800780B280AD18F4AE4
:101410000021084605F0D0FA8D4A0021522005F03F
:10142000CBFA0DE084480078152809D1894A0021BB
:10143000084605F0C1FA884A0021522005F0BCFA9E
:10144000864A8C214FF4877005F0B6FA10BD10B5AE
:10145000FFF7A6FFFFF783FFFFF706FFFFF74AFF3F
:1014600010BD10B5044660480078012809D1222C2F
:1014700005D100205C490870FFF7E9FF00E000BFDC
:101480000DE1594800780028FAD1402C36D006DC0E
:10149000202C28D0212C7FD0222C13D104E0412CE9
:1014A00079D0422CF9D10EE05C480078012803D1B4
:1014B00000205A49087002E00120584908700120B4
:1014C00067490870EAE00020FFF7E9FE012065495E
:1014D000087000206449088047490870FFF7D2FE71
:1014E000FFF7C2FEDAE06148007818B901205F49D1
:1014F000087002E000205D490870CFE04E48007897
:1015000001280DD102204C4908704E4A002108469E
:1015100005F052FA4C4A0021522005F04DFA34E011
:101520004548007802280DD10B2043490870474AEE
:101530000021084605F040FA454A0021522005F0F6
:101540003BFA22E03C4800780B280DD115203A499F
:101550000870404A0021084605F02EFA3E4A002154
:10156000522005F029FA10E03348007815280CD1F4
:10157000012031490870314A0021084605F01CFA63
:101580002F4A0021522005F017FAFFF77BFEFFF7E4
:101590006BFE83E000E00DE01D48007818B90120E3
:1015A0001B49087002E000201949087001202C49ED
:1015B000087073E02E480078012869D100202C497A
:1015C000087041F22710FFF7B8F96420FEF76BFEB0
:1015D00000BF284800684FE014010020DC00002014
:1015E000E80000201E000020DB000020E4000020B6
:1015F000E000002040480020AD000020C847002047
:101600004A414D3A000000004A414D3A3838000046
:1016100061000020706702008078020062000020F4
:10162000D02807008820070070431C00E0970200C4
:10163000E0C40200089F0200DA00002028840C00A9
:10164000404B1A00F04609005072100008A70B002A
:1016500000AB170098150C0020FB1800B00707001E
:101660006300002073000020B8000020C2000020AA
:10167000C50000200CED00E000F4E060FE490843E6
:10168000001DFE490860BFF3408F00BF00BFFEE7AA
:10169000FB480078401CFA49087000BF00BF10BD2D
:1016A00010B50020FEF730FF00280BDD0020FEF70C
:1016B000BEFE0446F348007818B92046FFF7D1FE75
:1016C00000BF00BF10BD7CB506460C46EE48007852
:1016D00000B17CBD304608F0A5FA85B229463046F7
:1016E00004F07CFB002C09DD0D208DF800000A20A1
:1016F0008DF801000221684604F070FB00BFE8E7A6
:1017000030B504460D46032229462046FFF7CAFDA0
:1017100030BDDE490978012904D1DD490870142162
:10172000DC4A1170704710B50246C31700EB137303
:101730001B11D94CE35C0B70C31700EB13731B1127
:10174000A0EB0313E35C4B7000228A7010BD70B5F0
:101750000024D2482044D2A10A68026009790171AC
:10176000641D002510E0D048465DCC480119304684
:10177000FFF7D9FFA01CC4B220222046611CCCB2C6
:10178000C6490A54681CC5B2162DECDB002220465F
:10179000611CCCB2C1490A540121C048FFF793FF34
:1017A0000024BE482044C1A10A6802608988818063
:1017B000A41DC0480678B94801193046FFF7A0FFBC
:1017C000E41C20222146641CB448425400222146D5
:1017D000641C42540021FFF776FF0024AF482044E8
:1017E000B5A10A68026089888180A41DB148467845
:1017F000AA4801193046FFF783FFE41C2022214646
:10180000641CA648425400222146641C4254002114
:10181000FFF759FF0024A1482044A9A10A680260EB
:1018200089888180A41DA84806789C480119304603
:10183000FFF766FFE41C20222146641C97484254AF
:10184000A1484678954801193046FFF759FFE41C36
:1018500020222146641C914842549B4886788F4838
:1018600001193046FFF74CFFE01CC4B2202220468D
:10187000611CCCB289490A5400222046611CCCB2BA
:1018800086490A5400218548FFF71DFF002483483C
:1018900020448EA10A68026089888180A41D8A483C
:1018A000C6787E4801193046FFF72AFFE41C202243
:1018B0002146641C794842548348067977480119C7
:1018C0003046FFF71DFFE41C20222146641C7348AC
:1018D00042547D484679714801193046FFF710FFA0
:1018E000E01CC4B220222046611CCCB26B490A54D1
:1018F00000222046611CCCB268490A540021674886
:10190000FFF7E1FE00246548204472A10A680260E6
:1019100089888180A41D6C48867960480119304609
:10192000FFF7EEFEE41C20222146641C5B48425473
:101930006548C679594801193046FFF7E1FEE41CB5
:1019400020222146641C554842545F48067A534879
:1019500001193046FFF7D4FEE01CC4B22022204615
:10196000611CCCB24D490A5400222046611CCCB205
:101970004A490A5400214948FFF7A5FE0024474878
:10198000204456A10A68026089888180A41D4E48BF
:10199000467A424801193046FFF7B2FEE01CC4B255
:1019A00020222046611CCCB23C490A544648867A23
:1019B000084601193046FFF7A3FEE01CC4B22022FE
:1019C0002046611CCCB235490A543F48C67A0846C5
:1019D00001193046FFF794FEE01CC4B220222046D5
:1019E000611CCCB22D490A5400222046611CCCB2A5
:1019F0002A490A5401212948FFF765FE0024274897
:101A0000204438A10A6802604A684260098901815D
:101A10000A3437480678214801193046FFF770FE2E
:101A2000E41C20222146641C1C484254002221460A
:101A3000641C42540021FFF746FE0024174820444E
:101A40002CA10A68026009790171641D2B4806788F
:101A5000124801193046FFF753FEE41C20222146AC
:101A6000641C0E48425400222146641C425400214A
:101A7000FFF729FE002443E00000FA050CED00E02A
:101A8000C40000201E0000204C0000206200002046
:101A900086000020870000209CB40108C847002071
:101AA000B2E2B3A43A0000006A150020B4C5D0D455
:101AB000313A000028000020B4C5D0D4323A0000EA
:101AC000D1D5C9AB313A20007F150020D1D5C9ABA3
:101AD000323A2000D1D5C9AB333A2000D1D5C9ABB9
:101AE000343A2000BAECCDE2B7A2C9E4203A0000B3
:101AF00020000020C2EBC5CC3A00000064000020AA
:101B0000FC482044FCA10A68026009790171641D47
:101B1000FB480678F74801193046FFF7F1FDE41C51
:101B200020222146641CF348425400222146641CB2
:101B300042540121FFF7C7FD0024EE482044F1A1E3
:101B40000A88028089788170E41CEF480678E948A9
:101B500001193046FFF7D4FDE41C20222146641C05
:101B6000E448425400222146641C42540121FFF7FC
:101B7000AAFD0024DF482044E4A10A880280897875
:101B80008170E41CDB4A1119E14A1078FFF7B8FDB7
:101B9000E41C20222146641CD648425400222146DF
:101BA000641C42540021FFF78EFD0024D14A111914
:101BB000D74A5078FFF7A4FDE41C20222146641C7C
:101BC000CC48425400222146641C42540121FFF7B4
:101BD0007AFD0024C7482044CEA109680160241D75
:101BE0004021CE4806F0C5F90646C24801193046E4
:101BF000FFF786FDE41C20222146641CBD484254A8
:101C000000222146641C42540021FFF75CFD0024A1
:101C10008021C24806F0ADF90646B64801193046A3
:101C2000FFF76EFDE41C20222046611CCCB2B149B6
:101C30000A5400222046611CCCB2AE490A5400214D
:101C4000AC48FFF740FD00244FF48071B34806F024
:101C500090F90646A74801193046FFF751FDE41CEC
:101C600020222146641CA348425400222146641CC1
:101C700042540121FFF727FD0121A948FFF723FD69
:101C800070BD70B5A7480078012805D1FEF77CFD2E
:101C900018B90020A3490870CEE2FEF792FD054670
:101CA000A14800780028F7D1A72D7AD01CDCA02D00
:101CB00060D010DC622D29D006DC422D22D0482DC8
:101CC00053D0612D6ED128E0652D29D0672D4ED0DF
:101CD000682DF7D14AE0A5F1A100062862D2DFE81D
:101CE00000F04C767F889095A5F1A8000F28F5D2DA
:101CF000DFE800F09AA3A7ABFEFDFC5858FBFAF909
:101D0000F8F7F60000208949087094E2012087491D
:101D100008700020864908708DE2FEF72FFF8AE2E6
:101D20000020844908704FF40071834806F03BF9A5
:101D30000120824908706420FEF7B5FA002080492E
:101D4000087080490880804908808049086080497F
:101D5000088001207F4908707F4908707F4908701A
:101D60004FF416707E49088065E264E263E2FEF794
:101D70000DFE60E2FFF7EBFC5DE27A480078B0B957
:101D80000320FFF78CFA03F066FD2021764806F069
:101D90000CF901207549087000206649087001217E
:101DA00001E038E046E272A0FFF78DFC0EE0002073
:101DB000FFF775FA01205F4908700020714908702B
:101DC000FFF745FB012170A0FFF77DFC33E24FF4E4
:101DD0000071594806F0E7F80120584908702AE2D6
:101DE0004FF40071544806F0E0F8002053490870A1
:101DF00021E20120FFF78DFC012167A0FFF763FCC2
:101E000019E24021584806F0CEF814E24021564825
:101E100006F0CBF80FE26248007810B103F01BFD2A
:101E200001E003F092FD06E25D48007810B103F096
:101E300012FD01E003F095FDFDE101203C49087031
:101E4000F9E100203A490870F5E14FF400713A4891
:101E500006F0A9F80120394908700020FFF71FFAA1
:101E60000120344908706420FEF71DFA15224D49FF
:101E70004D4807F0F6FE01214CA0FFF724FC00249A
:101E80000EE020201B4908704749085D1949491C8C
:101E9000FFF736FC00211748FFF715FC601CC4B2A1
:101EA000152CEEDB012144A0FFF70DFC15223E4965
:101EB000424807F0D6FE02204149087000204149FF
:101EC00008705421404807F03BFF15213F4807F0B8
:101ED00015FF2A213E4807F011FFFF222A2179E051
:101EE00094E176E159E13CE127E111E1B5E08DE0D3
:101EF00078E00000C8470020BDF8B3AE3A0000000B
:101F00002B00002055563A002A00002050533A007A
:101F10002C0000204B45593A000000000010014001
:101F200000E30608EC0100204C0000208A0000209D
:101F3000C200002073000020000C0140200000209F
:101F400072000020A2000020A000002090000020CD
:101F5000A8000020460000209D00002099000020DD
:101F6000700000201E000020000801402200002018
:101F700053454E534F525F564945575F5354415452
:101F800045000000DB0000204E4F524D414C5F5396
:101F90005441544500000000626565700000000077
:101FA000C20100206A150020EC130020BFD5D4D850
:101FB000BAECCDE2D6B5000020000000CC950020A0
:101FC000D6010020D70100201CAE002070AE0020FA
:101FD000B0AE0020F14807F089FE0121F0A0FFF724
:101FE00072FB28E1F6480078012807D10020F44967
:101FF00008700121F3A0FFF766FB06E00120F0491D
:1020000008700121F4A0FFF75EFB14E1F7480078A7
:10201000012807D10020F54908700121F4A0FFF73D
:1020200052FB19E00120F14908700121F3A0FFF7EC
:102030004AFB4FF47A70FEF736F94FF48051F248BC
:1020400005F0B3FF4FF40051EF4805F0AEFF4FF439
:102050008041ED4805F0A9FFEDE0EC48007802284A
:1020600011D1C102E84805F0A0FF4FF40051E64845
:1020700005F09BFF4FF48041E34805F096FF0320F5
:10208000E249087043E0E1480078A0B94FF480517C
:10209000DD4805F08AFF4FF40051DB4805F083FF6F
:1020A0000120DA4908708103D74805F07EFF01203E
:1020B000D64908702BE0D5480078012812D10103D9
:1020C000D14805F072FF4FF40051CF4805F06DFF85
:1020D0004FF48041CC4805F066FF0220CB490870E0
:1020E000087014E04FF48051C74805F05CFF0020F1
:1020F000C64908704FF40051C34805F056FF4FF42D
:102100008041C14805F051FF0020C049087092E0AD
:102110000020B6490870FFF7C2F80120BC490870DA
:102120006420FEF7C0F80120BA490870BA49087067
:102130000121BAA0FFF7C7FA7DE0B748007801286F
:1021400007D10020B44908700121BAA0FFF7BBFAFB
:1021500006E00120B04908700121BBA0FFF7B3FAE7
:1021600069E0BE48007801280BD11021A64805F08F
:102170001CFF0020B94908700121B9A0FFF7A3FA9C
:102180000AE01021A04805F00EFF0120B3490870B5
:102190000121B6A0FFF797FA4DE0B7480078012873
:1021A0000BD12021B54805F0FEFE0020B249087091
:1021B0000121B3A0FFF787FA0AE02021AF4805F01C
:1021C000F4FE0120AC4908700121B1A0FFF77BFAB1
:1021D00031E0B348007801280BD141028A4805F06C
:1021E000E4FE0020AE4908700121AEA0FFF76BFAB3
:1021F0000BE04FF40071844805F0D5FE0120A8499A
:1022000008700121ABA0FFF75EFA14E0AD4800783A
:10221000012807D10020AB4908700121AAA0FFF7CF
:1022200052FA06E00120A74908700121AAA0FFF791
:102230004AFA00E000BF00BF70BDAB480068401C18
:10224000A9490860A9480078012806D1A848A949E9
:102250000978405CA849088022E0A4480078022858
:1022600007D1A648A349097830F81100A24908808F
:1022700016E09E4800780B2807D1A1489D490978AF
:1022800030F811009C4908800AE098480078152829
:1022900006D19C489749097830F811009649088082
:1022A0009948006894490988084497490860974804
:1022B0009049097830F81100401C94498D4A1278F1
:1022C00021F8120070470020914908809148007859
:1022D0009149097888420ED084480078012803D1BA
:1022E00000208B4908801BE08948008840F00400EA
:1022F0008749088014E089480078012806D184487D
:10230000008840F002008249088009E08448007893
:10231000012805D17E48008840F008007C490880EB
:102320007B480088002835D170480078012832D1D8
:102330007848007813282FD2DFE800F00A0B0C1041
:1023400011121617181C1D1E22232428F8F8F40059
:1023500000BF00BF002067490870F1E000BF00BF68
:10236000012064490870EBE000BF00BF0220614912
:102370000870E5E000BF00BF03205E490870DFE0A1
:1023800000BF00BF04205B490870D9E0052059490F
:102390000870D5E098E1D4E0C8E0C3E0DAAE0020F0
:1023A000BFAACABCBAF1B0D7D6BDD0A3D5FD2CB751
:1023B000C5C8EB383067BAF1B0D7D6BD0000000011
:1023C0008B000020B2E2B3A4CAE4B3F6D0A3D5FDDB
:1023D000CAFDBEDD00000000B2E2B3A4CAE4B3F659
:1023E000D4ADCABCCAFDBEDD00000000250000203F
:1023F000D1D5C9ABB5C6B4F2BFAA0000D1D5C9AB1F
:10240000B5C6B9D8B1D50000000C014023000020AA
:1024100073000020D60100208C000020BFAACABC97
:10242000D1D5C9ABD0A3D5FD2CB7C5C8EB4134D6A7
:10243000BD000000D1D5C9ABCAE4B3F6D0A3D5FD29
:10244000CAFDBEDD00000000D1D5C9ABCAE4B3F6B9
:10245000D4ADCABCCAFDBEDD0000000021000020D2
:102460005556B5C6B9D8B1D5000000005556B5C609
:10247000B4F2BFAA000000002200002000080140C2
:10248000BDF8B3AEBAECCDE2B9D8B1D500000000CA
:10249000BDF8B3AEBAECCDE2B4F2BFAA00000000C2
:1024A00020000020B2E2B3A4BAECCDE2B9D8B1D595
:1024B00000000000B2E2B3A4BAECCDE2B4F2BFAACD
:1024C0000000000096000020B5F7CAD4B4AEBFDA11
:1024D000B9D8B1D500000000B5F7CAD4B4AEBFDAA0
:1024E000B4F2BFAA00000000DC000020DA000020E7
:1024F00049B40108D5010020E400002054B40108CB
:1025000068B401087CB40108E000002040480020C5
:10251000D8000020EF010020F6010020F301002088
:10252000FA0100200620FE49087009E0FF20FC495E
:102530000870FC48008840F00100FA49088000BF9C
:10254000C2E0F948007802283AD1F84800780E280D
:102550002BD2DFE800F007080C0D111216171B1C18
:102560002021252600BF0020ED49087027E000BF8C
:102570000120EB49087022E000BF0220E849087002
:102580001DE000BF0320E649087018E000BF0420EA
:10259000E349087013E000BF0520E14908700EE030
:1025A00000BF0620DE49087009E0FF20DC49087002
:1025B000DC48008840F00100DA49088000BF83E071
:1025C000D94800780B284FD1D84800781A2840D233
:1025D000DFE800F00D0E0F131415161B1C1A212234
:1025E00020272826292D2E2F333435393A3B00BF9A
:1025F00000BF0020CA49087035E000BF00BF00BF1F
:102600000120C74908702EE000BF00BF0220C44966
:10261000087028E000BF00BF0320C149087022E015
:1026200000BF00BF00BF0420BD4908701BE000BF11
:1026300000BF0520BA49087015E000BF00BF0620A2
:10264000B74908700FE000BF00BF0720B449087009
:1026500009E0FF20B2490870B248008840F001004C
:10266000B049088000BF2FE0AF48007815282BD173
:10267000AE48007806281CD2DFE800F003070B0FF5
:1026800013170020A64908701DE00120A449087016
:1026900019E00220A249087015E00320A049087043
:1026A00011E004209E4908700DE005209C49087047
:1026B00009E0FF209A4908709A48008840F001001C
:1026C0009849088000BF00BF70472DE9FE4F4FF0CA
:1026D00078094FF0320A002446E0954931F8140099
:1026E00008F0A2FC8346934908F070FB0546904928
:1026F0002C3131F8140008F097FC83468D4908F01E
:1027000065FB07463946284608F022FC15D03946B5
:10271000284608F073FD0290504608F085FC0190B1
:10272000484608F081FC0090019908F067FD834657
:10273000029908F04BFB804601E04FF00008294663
:10274000404608F085FC8346484608F06DFC594633
:10275000029008F053FD0646774840F824807749F8
:1027600041F82460601CC4B2152CB6DBBDE8FE8FB6
:1027700070B5002500241EE0202071490870C4F1C6
:102780001401704A505C05226D49491CFEF78AFD10
:1027900000216B48FEF797FF012C01DB132C02DDB3
:1027A000681CC5B205E06748005D052801DB681CB0
:1027B000C5B2601CC4B2152CDEDB0121AFF60800E7
:1027C000FEF781FF002412E020205D490870C4F16B
:1027D00014015D4A32F8110005225949491CFEF7DF
:1027E00061FD00215648FEF76EFF601CC4B2152C37
:1027F000EADB0121AFF64000FEF765FF002413E09D
:1028000020204F490870C4F11401504A32F82110B9
:1028100088B205224A49491CFEF744FD0021484878
:10282000FEF751FF601CC4B2152CE9DB0121AFF6A5
:102830007800FEF748FF002412E02020404908708D
:10284000C4F11401424A32F8110005223C49491CE6
:10285000FEF728FD00213A48FEF735FF601CC4B2A0
:10286000152CEADB0121AFF6B000FEF72CFF0024A7
:1028700012E0202032490870C4F11401354A32F8C0
:10288000110005222E49491CFEF70CFD00212C48A1
:10289000FEF719FF601CC4B2152CEADB0121AFF66C
:1028A000E800FEF710FF0121AFF6F400FEF70BFF82
:1028B000152D7CD128480078022879D10121AFF666
:1028C0000810FEF700FF00244FE01E48005D0228BC
:1028D00044DD1C48005D801E1A4908551B4850F80D
:1028E00024001B4931F81410401A184941F82400FB
:1028F000084650F82400174931F81410401A1349BB
:1029000041F82400084650F824000E49095DB0FB48
:10291000F1F081B206482C3020F8141023E00000BA
:10292000D5010020D8000020DA000020EF010020AF
:10293000041400200000204154360020A836002056
:10294000C847002070AE002086AE00201CAE0020DC
:10295000B0AE0020DAAE0020D60100204FF4FA71AC
:10296000FA4820F81410601CC4B2152CADDB00240A
:1029700012E02020F6490870C4F11402F34931F83E
:1029800012000522F249491CFEF78CFC0021F04898
:10299000FEF799FE601CC4B2152CEADB0121AFF6EC
:1029A000E810FEF790FE0121AFF6F41001E08AE096
:1029B0001DE0FEF788FE0320E64908700020E64986
:1029C00008705421E54807F0BBF91521E44807F0E9
:1029D00095F92A21E34807F091F9FF222A21E248DC
:1029E00007F084F90121E1A0FEF76DFE6BE0D94804
:1029F0000078032867D10121AFF64420FEF763FE7B
:102A0000002431E0D648005D022825DDD448005D71
:102A1000801ED3490855D14850F82400D14931F8D7
:102A20001410401ACD4941F82400084650F82400FB
:102A3000CD4931F81410401AC84941F8240008461D
:102A400050F82400C649095DB0FBF1F081B2BF48DF
:102A50002C3820F8141005E04FF49661BB482C3850
:102A600020F81410601CC4B2152CCBDB002413E03A
:102A70002020B7490870C4F11402B4492C3931F848
:102A800012000522B249491CFEF70CFC0021B04897
:102A9000FEF719FE601CC4B2152CE9DB0121AFF66C
:102AA000E820FEF710FE0121AFF6F420FEF70BFE42
:102AB0000020A84908700121B4A0FEF704FEFDF72C
:102AC000FDFEFFF702FE70BD70B58CB0B248008805
:102AD000B2490880002404E000204DF82400601C66
:102AE000C4B20C2CF8DB0026142516E0701CC6B20C
:102AF00000240EE05DF82400C4EB041101EB810119
:102B0000A74A02EB8101495D08444DF82400601C8E
:102B1000C4B20C2CEEDB681CC5B2A0480088143887
:102B2000A842E3DC00241EE0002E08DD5DF824004E
:102B3000B0FBF6F0C1B285482D30015503E000210D
:102B400082482D3001552020814908707F492D3160
:102B5000085D7F49491CFEF7D3FD00217C48FEF744
:102B6000B2FD601CC4B20C2CDEDB00207949087079
:102B7000012186A0FEF7A7FDFDF7A0FE0CB070BDF9
:102B800010B588480078012877D100208549087061
:102B90004FF40071844805F006FA0120834908705B
:102BA0000103814805F001FA4FF400517E4805F019
:102BB000FCF94FF480417C4805F0F7F903207C498B
:102BC00008707C4800780028DED102F044FE61489D
:102BD0000078012802D1FFF777FF96E05D48007882
:102BE000012804DD02F0EAFEFFF7C2FD8DE0724825
:102BF0000178724803F0FBFB6F48007803F05BF943
:102C00006D48007803F071FDFFF75DFB6C480088AC
:102C100038B9FFF712FB0120FEF77BFDFEF724FB1E
:102C20006DE00320FEF775FD664AB4215A2003F0DB
:102C3000C3FE644AB4217A2003F0BEFE614AB42187
:102C40009A2003F0B9FE604AB421BA2003F0B4FE22
:102C50005E4AB421DA2003F0AFFE5D4AB421FA20C7
:102C600003F0AAFE56480088012807D1594AB4212A
:102C70004FF48D7003F0A0FE27E066E05048008816
:102C8000022806D1524AB4214FF48D7003F094FE0D
:102C90001BE04B480088042806D14F4AB4214FF46A
:102CA0008D7003F089FE10E045480088082806D1A1
:102CB0004A4AB4214FF48D7003F07EFE05E0484A85
:102CC000B4214FF48D7003F077FE46480078012858
:102CD00015D1454800784549087045480078487046
:102CE00044480078887044480078C8700020087113
:102CF00048715520887107213C4803F06FF83F4820
:102D00000078012801D1FDF739FF3D48008820F007
:102D100004003B4908803B48007850B908460088C9
:102D200040F00800088002F010FE96203649087036
:102D30000BE03348008840F040003149088002F041
:102D400010FE4FF496703149088010BD30140020F9
:102D5000C8470020D6010020D70100201CAE00206B
:102D600070AE0020B0AE0020DAAE0020BFAACABC10
:102D7000B1A1B0D7D6BDD0A3D5FD2CB7C5C8EB3413
:102D80003067B1A1B0D7D6BD00000000D0A3D5FDFB
:102D9000CDEAB3C900000000A8000020D201002045
:102DA00009A0002052000020000C0140200000205B
:102DB000230000201E000020DA000020531600200F
:102DC000D8000020E8B5070038120300C82C030023
:102DD000603E070018310700A84B0700F0580700B5
:102DE0003866070096000020F60100202C480020DD
:102DF000EF010020F3010020FA0100208A000020EA
:102E0000B8000020C2000020BF000020C000002049
:102E100010B50446082C75D2DFE804F00412202E09
:102E20003C4A58664FF48051F84805F0BEF804213A
:102E3000F74805F0BAF80821F64805F0B6F861E061
:102E40004FF48051F14805F0B0F80421F04805F046
:102E5000ACF80821EF4805F0A6F853E04FF4805194
:102E6000EA4805F0A2F80421E94805F09CF8082199
:102E7000E84805F09AF845E04FF48051E34805F042
:102E800094F80421E24805F08EF80821E14805F0A5
:102E90008AF837E04FF48051DC4805F084F80421CB
:102EA000DB4805F082F80821DA4805F07EF829E0D1
:102EB0004FF48051D54805F076F80421D44805F048
:102EC00074F80821D34805F06EF81BE04FF48051E8
:102ED000CE4805F068F80421CD4805F064F80821D3
:102EE000CC4805F062F80DE04FF48051C74805F07A
:102EF0005AF80421C64805F056F80821C54805F0DF
:102F000052F800BF00BF10BD10B50121C24803F048
:102F10007CFF10BD10B5FFF7F7FF00BF022004F0E3
:102F2000F1F90028FAD0022004F000FA10BD70B5C3
:102F300000220221B94804F0D6F90320FDF7B3F9C5
:102F40000020B749087008460078FFF761FF0025A8
:102F500002E1FFF7DFFF002412E0B24850F824003E
:102F6000C0F30720B04901F81400AE4850F824001F
:102F7000000E012101EB4401AB4A5054601CC4B265
:102F8000052CEADBA848407AA8490870A648407892
:102F9000A7490870A448C0784870A3480078A5499C
:102FA0000870A1480079A44908709F48007A4870C9
:102FB0009B48007807280FD2DFE800F0040F1A3E84
:102FC0006286AA00984840799C49087096488079A2
:102FD000C8719548C0798873A5E0934840799749AE
:102FE00048709148807908728F48C079C8739AE018
:102FF0008D484079914988708B48807948728A4819
:10300000C07908748E48007820B9874880788D4947
:10301000087010E08A480078012804D1824880783E
:103020008849487007E086480078022803D17E4826
:1030300080788449887076E07B4840797F49C87001
:103040007948807988727848C07948747C480078DB
:1030500020B9754880787B49C87010E078480078BE
:10306000012804D1704881787648017107E07448DE
:103070000078022803D16C4881787248417152E08F
:10308000694840796D49087167488079C872664817
:10309000C07988746A48007820B9634880786949A3
:1030A000887110E066480078012804D15E48817874
:1030B0006448C17107E062480078022803D15A4889
:1030C0008178604801722EE0574840795B49487129
:1030D0005548807908735448C079C87458480078B6
:1030E00020B9514880785749487210E05448007818
:1030F000012804D14C4881785248817207E0504839
:103100000078022803D1484881784E48C1720AE00D
:103110004548407949498871434880794873424815
:10312000C079087500BF00BF3D480078401C3C498D
:10313000087008460078072190FBF1F201FB1200AD
:103140003749087008460078FFF762FE4FF4FA70BE
:10315000FDF7B3F8681CC5B2072DFFF6FAAE0122E1
:1031600002212E4804F0BFF870BD10B50024364887
:103170000078012812D100203349087033480078C4
:1031800020B1032803D0052807D105E005E0FFF7AB
:10319000CEFEFEF7DCFA00E000BF00BF10BD10B5A8
:1031A0002B480078012830D1002029490870FDF70C
:1031B0003BFE28490870284800784006000E264942
:1031C000087024480078FF2803D008460078401C87
:1031D00008702248007800287AD11E480078FF281D
:1031E00044D11F48007850B91E48007838B11D48B6
:1031F00001780020FDF7EBF80120FEF78AFA142091
:10320000194908700220164908708FE0001001402B
:1032100000140140000C014000240140080002405D
:10322000240000204C150020601500202B000020F9
:103230002C0000202A000020280000206A15002011
:10324000230000207F1500207B0000201E000020AE
:10325000D2000020D5000020D7000020D10000209F
:10326000CC000020CF000020CD000020FE480078D8
:1032700000280BDDFC480078401EFB49087008461A
:10328000007818B9F9480078F9490870F9480078C9
:1032900000284BDDF7480078401EF64908700846C4
:1032A0000078002842D1F44908700120F3490870E1
:1032B000EE480078F2490870084600782030C1B224
:1032C0000020FDF784F80120FEF723FA2EE0FFE747
:1032D000E6480078EA490978884216D1E64800783D
:1032E000002823DDE4480078401EE34908700846C2
:1032F0000078D8B9E24800782030C1B20020FDF74C
:1033000066F80120FEF705FA10E00020DB4908709E
:10331000FF20DB490870D64908700220D2490870A6
:103320001420D44908700020D349087010BD10B58E
:10333000D448007800283ED1D348007801282ED107
:10334000D248008850BBD248007838BB4FF4007197
:10335000D04804F028FE0120CF4908700103CD4871
:1033600004F021FE0020CD4908704FF40051C948F7
:1033700004F01BFE4FF48041C64804F016FE02F034
:10338000E4FAC248008840F00100C04908804FF4C8
:10339000FA70C34908800020C24908800BE0BB488E
:1033A000007800F02000002805DDB848008820F0F3
:1033B0002000B649088010BD10B54FF40071B54823
:1033C00004F0F1FD0120B449087002F0BEFA642057
:1033D000FCF769FF0020B4490880B44908604FF445
:1033E0007A70FCF760FF02F0BCFA4FF47A70FCF7D9
:1033F0005AFF02F030FA4FF40071A64804F0D5FDF0
:103400000020A549087010BD704710B5A84803F00A
:1034100091FEA848A8490860A84848600020886034
:103420000520C86000200861802048618000886114
:103430008000C86120200862000248620020886283
:103440009B4803F019FF10BD00B587B00121480269
:1034500005F065F80121880205F061F801210846B0
:1034600005F050F81720ADF8000000208DF803009B
:103470006946934804F0EAFC3F20ADF800000020C4
:103480008DF8030069468F4804F0E0FCFFF7BDFFAC
:1034900001220221864803F026FF0B208DF8180038
:1034A00001208DF819008DF81A008DF81B0006A870
:1034B00003F0AFFB7F484C3803F014FC4FF4C020FE
:1034C000019001208DF8080000208DF809004FF4CC
:1034D000602003904FF40060049005208DF81400E4
:1034E00001A974484C3803F024FC01231A4600213A
:1034F00070484C3803F0B5FC0123022204216D48CA
:103500004C3803F0AEFC012303220A2169484C38F1
:1035100003F0A7FC012304220C2166484C3803F079
:10352000A0FC012305220E2162484C3803F099FCCF
:10353000654803F0D7FB4FF4C020019001208DF8BF
:10354000080000208DF809004FF4602003904FF42C
:103550000060049005208DF8140001A95A4803F07A
:10356000E8FB01231A461946574803F07AFC012369
:1035700002221146544803F074FC012303220B215C
:10358000514803F06EFC012304220D214E4803F044
:1035900068FC012305220F214B4803F062FC012146
:1035A000494803F0BAFC012142484C3803F0EDFBD6
:1035B00040484C3803F00BFC00BF3E484C3803F049
:1035C0000BFC0028F9D13B484C3803F00FFC00BF3E
:1035D00038484C3803F00FFC0028F9D101213A4853
:1035E00003F0D3FB384803F0F2FB00BF364803F08A
:1035F000F3FB0028FAD1344803F0F8FB00BF32484F
:1036000003F0F9FB0028FAD101212A484C3803F0D5
:10361000C7FB0121264803F05AFE022003F086FE74
:1036200007B000BD1FB50121084604F085FFB32097
:10363000ADF8000040F2CF70ADF804000020ADF806
:103640000600ADF8020069464FF0804005F0A0F892
:1036500001221146900705F012FC1C208DF80C0089
:1036600000208DF80D0031E0CC000020D5000020B6
:10367000CF000020CD000020CE000020D10000208F
:10368000D00000201E0000203C000020B8000020D8
:10369000C2010020000C0140200000202300002077
:1036A000BC000020A6000020A20000209000002006
:1036B000080002404C240140201500204C15002039
:1036C00000080140001001400028014001208DF851
:1036D0000E008DF80F0003A803F09BFA0121880764
:1036E00005F0B2FB1FBD08B501208DF802004002B5
:1036F000ADF8000010208DF803006946F84804F08A
:10370000A5FB1020ADF800008DF803006946F448D1
:1037100004F09CFB1021F24804F047FC0020F14922
:1037200008702020ADF8000010208DF803006946D5
:10373000ED4804F08BFB2021EB4804F034FC002022
:10374000EA4908704020ADF8000010208DF8030011
:103750006946E54804F07AFB4FF48050ADF800006C
:1037600010208DF803006946DD4804F06FFB4FF42C
:103770008051DB4804F019FC4FF40050ADF8000014
:1037800010208DF803006946D54804F05FFB4FF424
:103790000051D34804F009FC4FF48040ADF800001C
:1037A00010208DF803006946CD4804F04FFB4FF41C
:1037B0008041CB4804F0F9FB0121CD4804F017FC0F
:1037C0000820ADF8000010208DF803006946C448B9
:1037D00004F03CFB0420ADF8000010208DF803003D
:1037E0006946C44804F032FB4FF48050ADF8000045
:1037F00010208DF803006946BF4804F027FB002025
:10380000FFF706FB4020ADF8000048208DF80300CC
:103810006946B94804F01AFB8020ADF80000482042
:103820008DF803006946B44804F010FB4FF4807033
:10383000ADF8000048208DF803006946AE4804F05A
:1038400005FB4FF48070ADF8000004208DF80300F4
:103850006946A34804F0FAFA08BDC820A74981F8D0
:10386000E0000021A54880F8E11080F8E91080F818
:10387000EF1080F8EA10012180F8E210002180F8B2
:10388000E310012180F8E410002180F8E51080F8B1
:10389000E61080F8E710012180F8EB1080F8EC10BA
:1038A000322180F8ED10642180F8EE10704703207B
:1038B000924981F8B0004621904880F8B11041212A
:1038C00080F8B2103C2180F8B310372180F8B41092
:1038D0000A2180F8B510962180F8B6100A2180F8E8
:1038E000B710962180F8B810642180F8B9103721FC
:1038F00080F8BA10412180F8BB105A2180F8BC1022
:10390000732180F8BD103C2180F8BE10462180F85C
:10391000BF103C2180F8C010502180F8C1100C214C
:1039200080F8C210172180F8C3101D2180F8C41040
:103930002E2180F8C510162180F8C610242180F8A9
:10394000C710272180F8C810342180F8C9102B2116
:1039500080F8CA103C2180F8CB10912180F8CC105F
:10396000822180F8CD10782180F8CE107047002099
:1039700006E06349095C614A42F82010411CC8B264
:103980000328F6DB704700B500230EE05D48C15CFC
:103990005A48103040F833105A48C15C574810302C
:1039A00000EBC3004160581CC3B2032BEEDBFFF7F2
:1039B000DEFF00BD10B5FFF7E6FF0A204F4981F892
:1039C000A0002A214D48483006F098F92A214B489A
:1039D000743006F093F9FF2215214848303006F084
:1039E00085F910BD10B5FFF7E5FFFFF760FFFFF7A2
:1039F00034FF10BD0EB505F090FF4FF48031C802C2
:103A000003F039F94FF4806004F050FC002004F01A
:103A100056FC4FF4004004F06DFC01213D2004F001
:103A20007EFD0121480204F07AFD0121880204F0A4
:103A300076FD0121880304F072FD02F0D9F8FCF74D
:103A400086FCFCF70BFCFCF72BFFFCF72AFF2B484E
:103A5000D0F860012C49884217D02848D0F860017E
:103A600000F07040B0F1004F05D0FFF7BBFF002021
:103A7000FCF763FF03E0FFF71AFFFFF7EEFE2248B3
:103A80001E49C1F86001FCF719FFFFF72CFEFFF794
:103A9000C9FD01F0EBFE0821012004F0EDFA4FF41E
:103AA0008070009000208DF804000C208DF8050037
:103AB00001208DF80600684603F074FC17208DF88D
:103AC000080003208DF8090000208DF80A0001206D
:103AD0008DF80B0002A803F09CF8FFF7B5FC0EBDB3
:103AE000000C0140210000200008014022000020BD
:103AF000000230000014014000100140BC130020FF
:103B00001DB4010819B40108601406874FF47A70D7
:103B1000FCF7C9FBFFF76EFF0A20FCF7C4FB00208F
:103B200002F07AFE4FF4784002F089FE002002F0A5
:103B300089FE182002F080FE6C227C21FEA002F09B
:103B400084FE4FF4FA70FCF7AEFBFFF75DFCFFF765
:103B500033FC0020FA490870FA490870FEF7B5FDF9
:103B60001522F949F94806F07CF80020FDF797FB8B
:103B70000120F74908700020F6490870FDF782FB24
:103B8000FDF765FC0120FDF7C4FD4FF48051F248BC
:103B900004F00BFA4FF40051EF4804F006FA4FF42A
:103BA0008041ED4804F001FA0320EC49087085E0FB
:103BB000EB480078012802D10020E9490870E94863
:103BC0000078012806D10020E6490870E648008800
:103BD000E6490880E6480078012804D10020E4493D
:103BE0000870FDF787FBE3480078012804D1002026
:103BF000E0490870FDF7B3FBDF48007801280AD1DF
:103C00000020DD4908704FF40071D34804F0CDF96D
:103C10000020DA490870DA480078012839D1C9480B
:103C2000007890BBD748007878BBD7480078401C14
:103C3000D5490870084600780A2822DD4FF4007143
:103C4000C54804F0B0F90120CC49087001F089FEA4
:103C50004FF4FA70FCF727FB01F0FDFD0020CB4983
:103C60000870FDF71CFB0120B94908700020C84905
:103C700008800120BE490870FDF74BFD0020C249B5
:103C800008700A20FCF70FFB03E0FFE70020BE49A5
:103C90000870C0480078012804D10020BD49087090
:103CA00001F0D9FDFFF743FBFFF779FAFFF75DFA63
:103CB000FEF766FFFDF7E5FFFDF7F2FC78E72DE97B
:103CC000F04705460C46A148005D0A38A84202DCD0
:103CD0002846BDE8F087284607F0A6F98246AE4997
:103CE00051F82400514607F0B3F90746AB4850F8A5
:103CF0002410384606F0FCFF0646304606F0CCFF9E
:103D000007460022134606F061FD01D8002609E0AF
:103D1000304606F0C1FF07460022A14B06F090FE98
:103D200000D2A04E304607F047F900F0FF094846A0
:103D3000CFE72DE9F04F87B00746884692463E46CA
:103D4000707830383178303901EB810100EB410077
:103D5000C0B20690069828B900208AF8000007B083
:103D6000BDE8F08F0698804501DB4FF00008002485
:103D7000A346A14602252BE0705D7C281FD1BBF134
:103D8000000F07D100244FF0010B142101A805F00A
:103D9000D7FF1BE0C84506D1621C01A9504605F0BB
:103DA00060FF0120DBE709F1010000F0FF090024BA
:103DB0004FF0010B142101A805F0C2FF06E0112C01
:103DC00004DA705D01A90855601CC4B2681C85B294
:103DD000304605F027FFA842CEDCBBF1010F08D129
:103DE000C84506D1621C01A9504605F03AFF0120E2
:103DF000B5E700BFB3E738B504460D4625B1012D40
:103E00000BD0022D1BD111E020234FF4A072002112
:103E10000846009402F0A3FD12E0B0234FF4A07214
:103E200020210020009402F09AFD09E020234FF4A5
:103E3000A072D0210020009402F091FD00E000BFAC
:103E400000BF38BD30B503463025541E0D55002443
:103E50008C5410460FE00A2493FBF4F504FB153450
:103E60003034E5B2441E0D55E0B200B905E00A2435
:103E700093FBF4F4A3B2002BEDDC00BF904201D120
:103E8000441EE0B203E03025441E0D55E0B2002888
:103E9000F9DC30BD10B5024610460A2807DA302397
:103EA0000B704B708B7000F13003CB708BE064288B
:103EB0000FDA30230B704B700A2390FBF3F330338F
:103EC0008B700A2390FBF3F403FB14033033CB70A5
:103ED00079E0B0F57A7F19DA30230B70642390FB18
:103EE000F3F330334B70642390FBF3F403FB1403C0
:103EF00098B20A2390FBF3F330338B700A2390FBC4
:103F0000F3F403FB14033033CB705CE04FF47A73AB
:103F100090FBF3F330330B704FF47A7390FBF3F4B0
:103F200003FB140398B2642390FBF3F330334B701C
:103F3000642390FBF3F437E057454C434F4D450065
:103F4000380000203C000020EC130020CC9500201D
:103F500073000020DB000020000C01402300002043
:103F60007A00002072000020A2000020CE01002074
:103F7000AE00002063000020800000202000002010
:103F80001E0000203100002032000020AD00002083
:103F9000B8000020C300002054360020A8360020BE
:103FA00000E06F4000007F4303FB140398B20A2334
:103FB00090FBF3F330338B700A2390FBF3F403FB95
:103FC00014033033CB7000230B7110BD10B50024E7
:103FD000FE480119FE480078FFF75CFF241D2020F1
:103FE000FA490855641CFB480078072817D1084691
:103FF0002044F949F74A127851F822100A68026001
:104000004968416004F10800C4B2F0480119022275
:10401000F2480078FFF716FFA01CC4B20FE0EB488F
:104020000119ED48EB4A127850F8220002680A6044
:1040300042684A608068886004F10C00C4B20020C5
:10404000E2490855601CC4B20121E048FDF73BFB82
:1040500010BD10B5FDF708F90120FDF75AFB01F07E
:104060008CFC0C20FDF71BF910BD10B50120FDF7ED
:1040700050FB01F082FC0E20FDF711F910BD10B5C8
:10408000FFF775FC01F0E7FB002001F0B9FB01F040
:104090005CFC40F6B830FCF706F9D1480178D1480D
:1040A000D14A127840F8321001F0D5FB01F059FCEA
:1040B00040F6B830FCF7F7F8CC480178C948CA4A4E
:1040C000127800EBC200416001F0C5FB012001F055
:1040D00097FB01F03AFC40F6B830FCF7E4F8C04832
:1040E0000178C048C04A127840F8321001F0B3FBA2
:1040F00001F037FC40F6B830FCF7D5F8BB48017842
:10410000B848B94A127800EBC200416001F0A3FB45
:10411000022001F075FB01F018FC40F6B830FCF706
:10412000C2F8AF480178AF48AF4A127840F8321071
:1041300001F091FB01F015FC40F6B830FCF7B3F844
:10414000AA480178A748A84A127800EBC20041604B
:1041500001F081FBFCF7B2FBA249103991F8E100B4
:1041600001F04EFB10BD10B50446202097490870A1
:10417000452048700222891C2046FFF763FE10BDCF
:1041800064281FDB0022CA700A2290FBF2F302FBB4
:10419000130230328A700A2290FBF2F2D0B20A2265
:1041A00090FBF2F302FB130230324A700A2290FBBA
:1041B000F2F2D0B20A2290FBF2F302FB1302303289
:1041C0000A701FE00A2814DB00228A700A2290FB82
:1041D000F2F302FB130230324A700A2290FBF2F231
:1041E000D0B20A2290FBF2F302FB130230320A70C3
:1041F00008E000224A700A2290FBF2F302FB13024D
:1042000030320A70704730B503463025541E0D55C4
:1042100000248C5410460EE00A24B3FBF4F504FB92
:1042200015343034451E4C55441EE0B200B904E04C
:104230000A24B3FBF4F3002BEED100BF904201D16E
:10424000441EE0B203E02025441E0D55E0B20028D4
:10425000F9DC30BD10B56648007809280FD05B48FE
:1042600064A10988018064490978133188B2022267
:104270005649891CFDF716F80120FDF710F84FF498
:1042800000715E4803F08FFE01205D490870010354
:104290005A4803F08AFE4FF40051584803F085FE57
:1042A0004FF48041554803F080FE032055490870C3
:1042B00001F0D1FA50480078032805D00320FDF71B
:1042C00028FA01205049087010BDF0B501460A29AE
:1042D00001DA4C20F0BD4C274C48008801FB010559
:1042E0004C2301F14C042BE004EB030C1FFA8CF07F
:1042F00000EBD07C4FEA6C02FF2A06DDFF22FF2490
:10430000E01800EBD07CCCF34F0202FB02F086B247
:10431000A5F11400B04204D82830864201D81046D6
:10432000D8E7D81C844206DCE0181FFA80FC0CEBAE
:10433000DC704010CEE7AE4201D2134600E01446D6
:10434000D2E770B505460E464C246C433046FFF765
:10435000BCFFB4FBF0F4A0B270BD7FB505460021F0
:104360002B4804F071FD0121042004F0E5F825B18B
:10437000012D05D0022D09D105E04FF4E17406E0CE
:104380004FF4C87403E04FF4B47400E000BF00BF02
:10439000B320ADF8000040F22B10ADF8040000206F
:1043A000ADF80600ADF802006946194804F0F0F9CE
:1043B00001221146164804F062FD1E208DF80C0003
:1043C00000208DF80D00012024E00000C8470020E7
:1043D00053000020D501002090010020D4010020CE
:1043E000C8010020CC130020C3010020C901002017
:1043F0001E00002020450000AD000020000C014000
:104400002000002023000020AE000020B00100208A
:10441000000800408DF80E008DF80F0003A802F090
:10442000F8FB0121FE4804F00FFD7FBD10B5FD48EB
:104430000078401CFB490870084600780521B0FB55
:10444000F1F201FB1200F7490870F7480978405C67
:1044500038B92021F54803F0A6FD0020F449087082
:1044600006E02021F14803F0A0FD0120F04908708A
:1044700010BD10B504462068EE490840B0F1005F59
:104480000CD16068EC49086008460068EB49086098
:104490002068FBF7DCFEE9480068804710BD7047E4
:1044A00000BFFEE700BFFEE700BFFEE700BFFEE77C
:1044B00070477047704710B5E1480088002804DD58
:1044C000DF480088401EDE490880DE480068401C46
:1044D000DC490860DC480088401CDB49088008464D
:1044E0000088B0F57A7F23DB0120D8490870D849CD
:1044F00008700020D4490880D6480088401CD5495F
:10450000088008460088142812DD00200880D24860
:104510000078032803DB0120D049087008E0CE486A
:104520000078002804DDCC480078401ECA49087095
:10453000CB48007800280DDDC9480078401EC849E6
:1045400008700846007828B90120C6490870142070
:10455000C3490870C448008800280ADDC2480088A2
:10456000401EC14908800846008810B90120BF4993
:104570000870BF48007801285BD1BE480078032846
:1045800057D0AB480078B8B1BB480078BB49088029
:10459000B94800783C2805DDB9480078401CB84986
:1045A000087020E0B648007800281CDDB448007888
:1045B000401EB349087016E0AF480078B149088042
:1045C000AD4800783C2805DAAD480078401CAC497D
:1045D000087008E0AA480078002804DDA8480078A0
:1045E000401EA7490870A8480078401CA6490870DA
:1045F0000846007805281CDB00200870FFF716FF2E
:10460000A2480078401CA1490870084600780A2892
:104610000FDB002008709A4800781E2803DB012079
:104620009B49087002E000209949087000209449D5
:10463000087010BD10B52021964805F08DF850B1D6
:10464000944805F01FF8C4B22046FBF77DFF012017
:104650009149087016E080218E4805F07DF888B1F8
:104660008E480088002807DDFBF7BCFF0446214682
:10467000884805F003F805E0002240F227718548DC
:1046800004F09BFF10BD10B52021854805F064F8AB
:1046900050B1834804F0F6FFC4B22046FCF782F81C
:1046A00001208049087016E080217D4805F054F80B
:1046B00088B17D480088002807DDFCF7BAF8044679
:1046C0002146774804F0DAFF05E0002240F2277126
:1046D000734804F072FF10BD10B50121504804F07A
:1046E00070FE60B301214E4804F074FE604800780B
:1046F000012803D06D480088002820DD6B48008821
:10470000002815DD69480088401E68490880084671
:10471000008868B901F09FF8002065490870654974
:104720000870654800886549088000206449087061
:10473000FEF7EAFB63480068401C6249086010BD50
:1047400010B500236048007808B9002010BD002390
:10475000002100220FE05D48845C5D48805C0A38DF
:10476000844202DA481CC1B203E0994200DD0B46E4
:104770000021501CC2B2162AEDDB994200DD0B4627
:10478000032B01DB0120E1E70020DFE710B528481B
:104790000078012841D14F4800784006000E4D496D
:1047A00008704D480078B42803DA08460078401CA9
:1047B00008704A480078002830D14648007800F058
:1047C0000F000F2814D10120444908704448007894
:1047D00003280ED10020434908804348008820F078
:1047E0004000414908800846008840F010000880D9
:1047F000DBE03B480078022811D100203B490880CB
:104800004FF4FA703A4908803748008840F00200B7
:1048100035490880084600886CE0C1E082E0BEE0CF
:1048200000080040B2010020ACB4010800080140BB
:10483000220000200000FE2FB8010020B40100205B
:104840008C01002048000020BC0100207A000020DC
:104850007B000020BE010020C4000020C500002015
:10486000D4000020D20000207E0000208000002024
:10487000730000201E0000202B00002036000020C6
:104880003800002034000020C00100203B00002040
:104890003C00002000380140EA0100200400002014
:1048A00000480040EC0100201800002070000020AB
:1048B000460000209D00002090000020CC01002038
:1048C0009900002068000020200000206A150020C8
:1048D000CC9500203D0000202C0000203F0000204F
:1048E000C2010020C0000020B8000020BC00002051
:1048F000BA00002020F0010008803720F749087036
:104900001920F74908700120F64908700020F6497F
:104910000880F6490860F6490880F6490880F6499B
:10492000088042E0F548007801283ED1F44800783C
:1049300000F00F0098BB0020F0490870F1480078A3
:10494000022817D1F0480078022806D11E20EF492E
:1049500008700F20EE49087005E03220EB4908701E
:104960002820EB4908701E20EA4908701220EA4905
:1049700008701AE0E3480078032816D1E748008859
:1049800020F01000E5490880E5480078012804D1AE
:104990000846008840F02000088000F05CFF04E03A
:1049A0000020D7490870D549087010BDDD4800784F
:1049B000012836D1DC4800784006000EDA4908703C
:1049C000DA484078B42803DA08460078401C0870BA
:1049D000D7480078A0B9D448007800F00F000F281D
:1049E00024D10120D2490870C648007803281DD080
:1049F000C4480078022819D10020CE49088015E06B
:104A0000CB480078012811D1C748007800F00F008A
:104A100060B90020C6490870BA480078022805D05D
:104A200004E00020C0490870C1490870704710B503
:104A3000C1480078012839D1AC480068B0F5617FE1
:104A400034D2002425E0BD480078012803D0BC48BA
:104A5000007800280CDDBB48005DC4EB4411C1EBBD
:104A60000421B94A02EB8101A04A126888540EE081
:104A7000B449085D2146FFF722F9C4EB4411C1EBAC
:104A80000421B14A02EB8101984A12688854601CE3
:104A9000C4B2152CD7DB97480078AC49934A12680A
:104AA000885492480068401C9049086010BDA8488E
:104AB0000088B0F5FA6F10DAA6480078A649A44A33
:104AC00012888854A3484178A448A14A1288815486
:104AD0009F480088401C9E490880A1480078012812
:104AE00017D18548008840F2523188422CDA994823
:104AF00001789C48804A12888154964841789A48A7
:104B00007D4A128881547C480088401C7A4908807C
:104B10001AE0904800789549954A127888548D4853
:104B2000417892483230924A127881549048007805
:104B3000401C8F49087008460078322190FBF1F242
:104B400001FB12008A4908707047854800780128E7
:104B50000FD188480088B0F5617F0ADA864800786E
:104B60008649844A1288885482480088401C8149BA
:104B7000088070475B480078012829D15A4800888E
:104B8000B0F5967F24DA7E480078012856D17D481A
:104B9000007802281DD17C4881787C48524A1288CE
:104BA0008154794841797A484F4A1288815476482D
:104BB000017A78484C4A128881547348C17A764801
:104BC000494A1288815448480088401C4649088058
:104BD000FAE16C480078C0B96B4800786F49424AE6
:104BE000128888546848C1786D483F4A12888154B9
:104BF000654881796B483C4A128881546248417A01
:104C00006948394A12888154DEE15F484178674833
:104C1000354A128881545C4801796548324A1288C5
:104C200081545948C17963482F4A128881545648A3
:104C3000817A61482C4A12888154C5E15148007834
:104C400002284AD1504880788C2148435B4991F82A
:104C5000A31090FBF1F0FF2809DA4B4880788C21F3
:104C60004843564991F8A31090FBF1F000E0FF2073
:104C7000C1B246481C4A12888154434840798C216D
:104C800048434E4991F8A61090FBF1F0FF2809DA4D
:104C90003D4840798C214843484991F8A61090FB43
:104CA000F1F000E0FF20C1B239480F4A1288815468
:104CB0003548007A8C214843404991F8A91090FB6F
:104CC000F1F0FF287DDA3048007A8C2148433B49D7
:104CD00091F8A91090FBF1F074E099E09A0000209F
:104CE0009E00002046000020A80000209000002028
:104CF0009400002066000020A20000203F00002059
:104D00003D000020C2010020DA0000209B000020AE
:104D10009C0000209F00002045000020B8000020DB
:104D20003C000020220000203E0000202C0000203B
:104D300041000020BA0000209D0000208B000020D0
:104D4000D60100206A1500207448002048920020F7
:104D5000A60000202800002060370020303F0020FF
:104D600099000020E195002033990020FC360020B6
:104D7000A5000020A00000202A000020859C002023
:104D80008C000020230000207F15002061A200205D
:104D9000E5A5002069A90020EDAC002009A00020B5
:104DA0008DA3002011A7002095AA002035A1002086
:104DB000B9A400203DA80020C1AB0020BC130020F6
:104DC000FFE7FF20C1B2F748F74A12888154F7483D
:104DD000C07A8C214843F64991F8AC1090FBF1F071
:104DE000FF2809DAF148C07A8C214843F04991F84C
:104DF000AC1090FBF1F000E0FF20C1B2ED48EA4AB0
:104E000012888154E8480088401CE7490880DBE0AC
:104E1000E948007800286BD1E44800788C214843A9
:104E2000E34991F8A11090FBF1F0FF2809DADF487F
:104E300000788C214843DE4991F8A11090FBF1F0F5
:104E400000E0FF20DD49D84A12888854D748C0784E
:104E50008C214843D64991F8A41090FBF1F0FF282B
:104E600009DAD248C0788C214843D14991F8A4107E
:104E700090FBF1F000E0FF20C1B2D148CA4A12888D
:104E80008154CA4880798C214843C94991F8A710B8
:104E900090FBF1F0FF2809DAC44880798C2148435F
:104EA000C34991F8A71090FBF1F000E0FF20C1B2D8
:104EB000C448BD4A12888154BC48407A8C2148437A
:104EC000BB4991F8AA1090FBF1F0FF2809DAB74826
:104ED000407A8C214843B64991F8AA1090FBF1F032
:104EE00000E0FF20C1B2B848AF4A128881546BE09D
:104EF000AE4840788C214843AD4991F8A21090FB10
:104F0000F1F0FF2809DAA94840788C214843A849E4
:104F100091F8A21090FBF1F000E0FF20C1B2AB4885
:104F2000A14A12888154A14800798C214843A049A4
:104F300091F8A51090FBF1F0FF2809DA9B48007961
:104F40008C2148439A4991F8A51090FBF1F000E0BC
:104F5000FF20C1B29E48944A128881549348C07978
:104F60008C214843924991F8A81090FBF1F0FF285A
:104F700009DA8E48C0798C2148438D4991F8A810F0
:104F800090FBF1F000E0FF20C1B29248864A1288FF
:104F900081548648807A8C214843854991F8AB102A
:104FA00090FBF1F0FF2809DA8048807A8C21484391
:104FB0007F4991F8AB1090FBF1F000E0FF20C1B207
:104FC0008548794A12888154704710B5022002F052
:104FD00099F900286FD0022002F0A8F97F480068F4
:104FE000401C7E490860002412E07D4850F82400EF
:104FF000C0F307207B4901F81400794850F82400D9
:10500000000E012101EB4401764A5054601CC4B2E9
:10501000052CEADB7348407A734908707148407880
:10502000724908706F48C07848706E4800787049BF
:1050300008706C4800796F4908706A48007A4870B7
:105040006D48007807280FD2DFE800F0040F1A3F00
:105050006387DA006348407968490870614880795D
:10506000C8716048C0798873D5E05E48407963496B
:1050700048705C48807908725A48C079C873CAE0A1
:10508000584840795D49887056488079487255483B
:10509000C07908744848007820B95248807843495C
:1050A000087011E044480078012805D14D48807807
:1050B0003E49487008E008E13F480078022803D1E3
:1050C0004848807839498870A5E0464840794B497E
:1050D000C8704448807988724248C079487436481C
:1050E000007820B93F4880783049C87010E03248D5
:1050F0000078012804D13B4881782C48017107E0F1
:105100002D480078022803D136488178274841711C
:1051100081E0344840793949087132488079C87251
:105120003048C07988742448007820B92D488078A8
:105130001E49887110E020480078012804D12948D0
:1051400081781A48C17107E01B480078022803D112
:1051500024488178154801725DE02248407927494A
:1051600048712048807908731E48C079C874124875
:10517000007820B91B4880780C49487210E00E482E
:105180000078012804D1174881780848817207E027
:1051900009480078022803D1124881780348C17277
:1051A00039E0000069A90020A80000207F15002038
:1051B000BC130020EDAC00202300002009A000203B
:1051C0008DA3002011A7002095AA002035A1002062
:1051D000B9A400203DA80020C1AB00206C00002035
:1051E0004C150020601500202B0000202C00002012
:1051F0002A00002028000020240000206A1500203A
:10520000FE484079FE498871FC4880794873FB4824
:10521000C079087500BF00BFFA480078401CF94902
:10522000087008460078FDF7F3FDF6480078072877
:105230000BD1FFF7ABFAFFF7B9FBFFF7F8FBFFF76E
:1052400036FCFFF797FCFFF780FCEE480078072854
:1052500003DA0121EC4801F0D8FDEA48007807287C
:1052600059D10020E749087008460078FDF7D0FDC5
:10527000E648007848BBE6480078022811D1C10210
:10528000E44802F090FE0020E14908704FF400511C
:10529000E04802F08AFE4FF48041DE4802F085FECD
:1052A00039E0DB48007888B94FF48051D94802F0E2
:1052B0007CFE4FF40051D74802F075FE0120D4491E
:1052C00008708103D34802F070FE24E0D0480078D3
:1052D000012811D10103CF4802F067FE4FF40051BD
:1052E000CC4802F062FE4FF48041CA4802F05BFEF7
:1052F0000220C74908700EE04FF48051C54802F003
:1053000054FE4FF40051C34802F04FFE4FF4804169
:10531000C04802F04AFE10BD10B50121880704F014
:1053200050F8002868D00121880704F053F8BA48E3
:10533000007800280ADDB8480078401EB649087099
:105340000846007810B90120B4490870B4480078C4
:10535000401CB3490870084600780A2839DB002051
:105360000870B0480078022803D0AE4800780328BF
:1053700029D1AD48007864280BDAAC480088AC49E4
:10538000A94A127821F81200A7480078401CA649C3
:105390000870A8480078C8B9A44800880F280EDA19
:1053A000A5480088401CA4490880084600880A28AF
:1053B0000CDB01209F490870FEF74CFF06E000203F
:1053C0009D49088002E000209B4908800020974901
:1053D00008809A48007800282ADD99480078401C07
:1053E000974908700846007896490978884204DA97
:1053F0004021954802F0D7FD1AE091480178914884
:1054000000780C30814204DA40218F4802F0CDFD53
:105410000EE000208A49087088480078401E8749BD
:1054200008700846007818B94021874802F0BDFD91
:1054300010BD704710B54FF4807002F00AF80028D4
:105440007ED04FF4807002F00FF880480088401C36
:105450007E49088075480088401C744908801420E3
:105460007B4908707B480078012804D17A4800788D
:10547000401C7949087079480078012808D16948AA
:105480000078022804D176480088401C74490880BE
:105490007448007800280DDD72480078401E71497C
:1054A00008700846007828B901206F49087000206C
:1054B0006E4908806E48007800280EDD6C48007840
:1054C000401E6B4908700846007830B900206649D4
:1054D0000870664800886749088067480088002887
:1054E00004DD65480088401E6349088063480078F1
:1054F000012808D14B480078022804D16048008870
:10550000401C5F4908805F48007800280DDD5D4839
:105510000078401E5B4908700846007828B90020D2
:1055200059490880012059490870594800780028D5
:105530000EDD57480078401E55490870084600E0C7
:105540003AE1007820B95348007808B900F083F9AF
:105550005148007800281CDD4F480078401E4E4915
:10556000087008460078A0B94C4800884C4908806B
:1055700000204649087001204A4908704A480088BE
:1055800040F00400484908800846008820F00200E6
:1055900008804648007800280DDD44480078401E09
:1055A000424908700846007828B900204049086040
:1055B00001202A4908703F48007800280EDD3D4848
:1055C0000078401E3B4908700846007830B93848DA
:1055D0000088394908800020204908703748008831
:1055E000002877DD35480088401E34490880084689
:1055F000008808B92C4863E06CE0000060150020CA
:105600006A1500202400002000240140250000200D
:1056100023000020000C0140EB010020EA010020E3
:1056200040000020C2010020AC000020AA000020A1
:1056300000470020AD000020B000002086000020C0
:10564000880000208700002000080140640000203E
:10565000B30000205E0000205F0000209D000020BD
:10566000660000204400002046000020A800002022
:1056700045000020D20100208200002030000020E0
:10568000940000209A000020A00000209900002033
:105690009C0000201E0000209B000020A200002093
:1056A000CE01002052000020B80000209E00002003
:1056B000900000209F000020CC010020BA000020B4
:1056C000008820F002004349088003204249087006
:1056D000FEF7C0FD41480088002812DD3F480088E1
:1056E000401E3E4908800846008850B93948008865
:1056F00020F0010037490880032037490870FEF781
:10570000A9FD37480078002814DD35480078401E90
:10571000334908700846007860B93248007801289B
:1057200005D12C48008840F020002A49088001203B
:105730002D4908702D480078002810DD2B4800788E
:10574000401E2A4908700846007840B92148008860
:1057500020F008001F4908800120234908702448D0
:105760000088002812DD22480088401E2049088059
:105770000846008850B91748008820F040001549B5
:105780000880042014490870FEF764FD194890F859
:10579000B00000F0020000280EDD0F48007858B974
:1057A00015480088C82807DD02200B490870FEF75D
:1057B00051FD00201049088010BD704710B502212E
:1057C0000E4801F093FC18B102210C4801F097FC3F
:1057D00010BD0000B8000020AD000020BC0000207B
:1057E000BE0000203C000020C3000020BF000020BD
:1057F000C0000020BC1300204E0000200024014007
:1058000010B504466648047024B1012C09D0022C5E
:105810000FD107E0FF2063490870DC20624908705F
:1058200013E000BFFF205F490870DC205E4908706C
:105830000BE000205A4908705C48007C5949087008
:105840005A48007D5849087000BF00BF544800788E
:10585000FEF783FD10BD5648007830B10020544952
:10586000087054490880091D0880704700B589B048
:1058700003208DF822000120ADF8200018208DF8BB
:10588000230008A94C4802F0E1FA0220ADF82000FC
:1058900018208DF8230008A9474802F0D7FA012103
:1058A000022002F049FE40F2CF20ADF81400FE20A5
:1058B000ADF818000020ADF81A00ADF8160005A9E3
:1058C0003C483C3802F064FF6020ADF80400012041
:1058D000ADF806000020ADF80800ADF80A00ADF8FC
:1058E0000C0001A933483C3803F01EF80821314868
:1058F0003C3803F0EFFB6020ADF804000120ADF868
:1059000006000020ADF80800ADF80A00ADF80C0064
:1059100001A928483C3803F052F8082125483C38B2
:1059200003F0E1FB012123483C3803F08DFAFFF737
:1059300092FF01211F483C3803F092FA1B4991F86D
:10594000E100FFF75DFF09B000BD022018490870B3
:1059500000201849091D088012480078091F088096
:1059600070470320124908700F4800781149091D3B
:1059700008800020091F0880704710B5FFF76BFFF3
:105980000120FAF790FC10BD06480078094908800C
:105990007047054800780749091D088070470000D6
:1059A000C3010020C8010020C9010020BC13002051
:1059B000C20100203C040040000C01402DE9F84FDA
:1059C0002A21834804F09AF90024F7E081480088EE
:1059D000401E1FFA80F84FF0000B00252CE0C4EBAE
:1059E0004410C0EB04207C4901EB8000415D7B4802
:1059F000005D0A3881421DDAC4EB4410C0EB04207C
:105A0000754901EB8001681C095C7448005D0A3827
:105A100081420FDAC4EB4410C0EB04206E4901EB65
:105A20008001A81C095C6D48005D0A38814201DADA
:105A3000A84608E0681C85B26649088800EBD0716A
:105A4000B5EB610FCBDB00BF62480088401E85B21A
:105A50002CE0C4EB4410C0EB04205F4901EB800054
:105A6000415D5E48005D0A3881421DDAC4EB441096
:105A7000C0EB0420584901EB8001681E095C5748BF
:105A8000005D0A3881420FDAC4EB4410C0EB0420F9
:105A9000514901EB8001A81E095C5048005D0A389D
:105AA000814201DAAB4608E0681E85B249490888A0
:105AB00000EBD071B5EB610FCBDC00BF4549088826
:105AC00000EBD07108EB6101594575DC0026002020
:105AD0000090ABEB080087B2B1464FF0FF0A3846A2
