:020000040801F1
:10000000A0BF002085900108893D01088B3D0108B3
:100010008F3D0108933D0108973D01080000000055
:100020000000000000000000000000009B3D0108EF
:100030009D3D0108000000009F3D0108A13D010811
:100040009F9001089F9001089F9001089F900108D0
:100050009F9001089F9001089F9001089F900108C0
:100060009F9001089F9001089F9001082748010870
:100070009F9001089F9001089F9001089F900108A0
:100080009F9001089F900108754F01089F900108FB
:100090009F9001089F9001089F900108774C0108EC
:1000A0009F9001089F9001089F9001089F90010870
:1000B0005B4B01089F900108574001089F90010881
:1000C0009F9001089F9001089F9001089F90010850
:1000D0009F900108B33F01089F9001080540010867
:1000E0009F9001089F9001089F9001080000000068
:1000F0000000000000000000000000000000000000
:1001000000000000000000009F9001089F9001087F
:100110009F9001089F9001081F6501089F900108AA
:100120009F9001089F9001089F9001089F900108EF
:100130009F9001089F9001089F9001089F900108DF
:100140009F9001089F9001089F9001089F900108CF
:1001500000F002F800F062F80AA090E8000C824477
:100160008344AAF10107DA4501D100F057F8AFF254
:10017000090EBAE80F0013F0010F18BFFB1A43F085
:1001800001031847089D0300289D03000A444FF00F
:10019000000C10F8013B13F0070408BF10F8014BE6
:1001A0001D1108BF10F8015B641E05D010F8016B2B
:1001B000641E01F8016BF9D113F0080F1EBF10F88F
:1001C000014BAD1C0C1B09D16D1E58BF01F801CBB2
:1001D000FAD505E014F8016B01F8016B6D1EF9D535
:1001E0009142D6D37047000000230024002500264A
:1001F000103A28BF78C1FBD8520728BF30C148BF8A
:100200000B607047642908F0CF87732909F0538188
:10021000002070471FB51FBD10B510BD09F08AF949
:100220001146FFF7F7FF03F0ADF909F0A8F903B4A1
:10023000FFF7F2FF03BC09F0A9F90000EFF3098012
:10024000704780F309887047EFF30880704780F3A8
:100250000888704740BA7047C0BA704730B51E4929
:10026000B1F1807F00D31DE021F07F40401E4FF0B0
:10027000E022506150170F22002807DA13071D0EE5
:10028000164B00F00F04241F1D5503E013071C0E2E
:10029000134B1C5400BF00204FF0E0229061072058
:1002A000106100BF30BD014642F2887201FB02F0CE
:1002B00000E0401E0028FCD1704700EB400202EB3A
:1002C000C00100E0491E0029FCD17047014600E052
:1002D000491E0029FCD170474019010018ED00E0CB
:1002E00000E400E040F2E730FE490880084600885C
:1002F000FD4908800020FD490880704740F2E73042
:10030000FB49088008460088FA49088070470920A0
:10031000F949088008460088F84908800020F84913
:100320000880704740F2E730F649088008460088A8
:10033000F54908800020F5490880704740F2E73011
:10034000F349088008460088F2490880704700B5E4
:1003500000222FE0F04850F82200F04901EB021192
:100360000860EF4830F81200EC4901EB0211888078
:10037000EA4800EB02108088401EE84901EB0211B8
:10038000C880E64800EB02108088401EE34901EB7C
:10039000021108810020E14901EB02114881DF4888
:1003A00000EB02108088401EDC4901EB02118881BD
:1003B000501CC2B20A2ACDDBFFF7C0FFFFF7B2FF25
:1003C000FFF7A5FFFFF79AFFFFF78CFF00BD30B5E1
:1003D000D24B03EB00135B89D04C04EB0014A488D0
:1003E000A34223DACD4B03EB00131B895B1CCB4CE0
:1003F00004EB0014A48893FBF4F504FB1533C74CFD
:1004000004EB00142381C54B03EB00131B68C34CA2
:1004100004EB001424891A191170C04B03EB00136C
:100420005B895B1CBD4C04EB0014638130BD10B5CF
:100430000146BA4800EB01104089002824DDB74886
:1004400000EB0110C088401CB44B03EB01139B88E8
:1004500090FBF3F403FB1400B04B03EB0113D880C3
:10046000AE4800EB01104089401EAC4B03EB01137A
:100470005881AA4800EB01100068A84B03EB011358
:10048000DB88C218107810BD0020FCE710B50146CB
:10049000A24800EB0110408900281BDD9F4800EBBB
:1004A00001108089401C9D4B03EB01139B8890FB3E
:1004B000F3F403FB1400994B03EB01139881974865
:1004C00000EB01100068954B03EB01139B89C218E8
:1004D000107810BD0020FCE7904901EB00118988DD
:1004E000491E8E4A02EB0012D1808C4901EB0011AB
:1004F0008988491E894A02EB001211810021874A2E
:1005000002EB0012518170470146844800EB011054
:10051000408970470146814800EB011080887F4A7E
:1005200002EB01125289801A80B270477948028822
:10053000774801888A4202DB501A80B2704702F580
:100540007A70401A80B2F9E700B50346FFF7EEFF74
:10055000B0F57A7F0DDA6F480088401C4FF47A714D
:1005600090FBF1F201FB12006A4908806D4809888E
:10057000435400BD674800886549098888420ED009
:1005800063480088401C4FF47A7190FBF1F201FB44
:1005900012005F49088063480988405C7047FF206B
:1005A000FCE700B5FFF7C2FFC0F57A7080B200BD6E
:1005B00056490988B1F57A7F13DA53490988491CED
:1005C0004FF47A7291FBF2F302FB13114E4A118041
:1005D0004E490988491C4D4A118053494A4A12889C
:1005E0008854704749480088002814DD4548008831
:1005F000401C4FF47A7190FBF1F201FB120041496B
:10060000088042480088401E4049088046483D49CD
:100610000988405C70470020FCE73C480088C0F532
:100620007A7080B2704741480288414801888A4206
:1006300002DB501A80B2704702F10A00401A80B201
:10064000F9E709203A4908800846008837490880B8
:10065000704700B50346FFF7E6FF0A280DDA334876
:100660000088401C0A2190FBF1F201FB12002F4987
:1006700008803048098820F8113000BD2B480088D8
:100680002B49098888420ED029480088401C0A213D
:1006900090FBF1F201FB12002549088025480988EA
:1006A00030F8110070474FF6FF70FBE700B5FFF719
:1006B000BAFFC0F10A0080B200BD114909880A29B9
:1006C00040DA0E490988491C0A2291FBF2F302FB29
:1006D00013110A4A11800A490988491C084A1180E5
:1006E00015492BE01A0000201C00002018000020F3
:1006F000140000201600002010000020120000202E
:100700000E00002006000020080000200400002049
:100710000000002002000020E8A90108301200209B
:10072000D4A9010804020020EC0500200C000020E0
:100730000A000020D4090020E80900204D4A128850
:1007400021F8120070474C480088002814DD4B48FF
:100750000088401C0A2190FBF1F201FB120047497E
:10076000088045480088401E434908804448434962
:10077000098830F8110070470020FCE73E480088E7
:10078000C0F10A0080B270473E4802883E480188A6
:100790008A4202DB501A80B2704702F57A70401A22
:1007A00080B2F9E737490988491C4FF47A7291FB06
:1007B000F2F302FB1311334A118034491288885432
:1007C0007047304800883049098888420ED02E484A
:1007D0000088401C4FF47A7190FBF1F201FB12008B
:1007E0002949088029480988405C7047FF20FCE7B8
:1007F00000B5FFF7C9FFC0F57A7080B200BD24498B
:100800000988B1F57A7F13DA22490988491C4FF427
:100810007A7291FBF2F302FB13111E4A11801C49FC
:100820000988491C1A4A11801B491A4A128888549F
:10083000704717480088002814DD18480088401CBD
:100840004FF47A7190FBF1F201FB1200134908801A
:100850000F480088401E0E4908800F480F4909883C
:10086000405C70470020FCE709480088C0F57A70BA
:1008700080B27047120000200E00002010000020FF
:10088000E80900201600002014000020FC090020C8
:10089000180000201C000020E40D00201A00002099
:1008A0007047374A3748002105E013680360121D7E
:1008B000001D4B1C99B25929F7D370472DE9F0411F
:1008C00006F0A3FA352006F03BFD052726E02C486C
:1008D00006F0E0FA2A4D2B4E002407E02846316846
:1008E00006F0A8FB2D1D361D601C84B2592CF5D3D3
:1008F0004FF00108224D234E002409E0286831689A
:10090000884201D04FF000082D1D361D601C84B2B6
:10091000592CF3D3B8F1000F00D004E03800A7F150
:100920000101CFB2D3D100BFBDE8F08108B51649AF
:100930006A4608681060009808BDF1B506F065FACF
:10094000352006F0FDFC052612E00F4806F0A2FA5D
:100950000D4C6D462046296806F06CFB012700BF50
:1009600000BF20682968884200D0002707B104E052
:100970003000A6F10101CEB2E7D100BFF8BD000002
:1009800000FE0508D012002000F8000870B588B0FD
:100990002021684608F0D2FCC6208DF800000E2009
:1009A0008DF8010055208DF810000026F7480088CA
:1009B000864201DAF5480688F5480088864201DA61
:1009C000F348068800253FE0F0480088854211DAA8
:1009D00000240CE004EB4400C0EBC410ED4901EB33
:1009E0000010415DA01C0DF80010601CC4B2022C68
:1009F000F0DB04E00020CDF80200ADF80600E4488A
:100A00000088854211DA00240CE0C4EB041000EBEE
:100A10008000E14901EB8000415D201D0DF80010D0
:100A2000601CC4B20C2CF0DB03E0002101910291A8
:100A300003911121684604F0D1FD00BFD74800881A
:100A40000028FBDC681C85B2B542BDDBD4480088B9
:100A500000128DF80200D24800788DF80300CC48CF
:100A6000008800128DF80400C94800788DF8050050
:100A700000208DF806008DF807008DF808008DF82D
:100A800009008DF80A001121684604F0A7FD002036
:100A90008DF802008DF803008DF804008DF8050034
:100AA0008DF806008DF807008DF808008DF8090014
:100AB0008DF80A001121684604F090FD00208DF8A1
:100AC00002008DF803008DF804008DF805008DF804
:100AD00006008DF807008DF808008DF809008DF8E4
:100AE0000A001121684604F079FD00208DF802000B
:100AF0008DF803008DF804008DF805008DF80600D0
:100B00008DF807008DF808008DF809008DF80A00AF
:100B10001121684604F062FD00208DF802008DF876
:100B200003008DF804008DF805008DF806008DF89F
:100B300007008DF808008DF809008DF80A001121D2
:100B4000684604F04BFD002514E0002405E0FF2179
:100B5000A01C0DF80010601CC4B20E2CF7DB112194
:100B6000684604F03BFD00BF8C4800880028FBDC91
:100B7000681C85B2062DE8DB08B070BD30B589B0C1
:100B8000C6208DF8040019208DF8050055208DF839
:100B90001F000025F2E0EDB98148008800128DF8B1
:100BA00006007F48008800128DF80700002408E046
:100BB0007C480088C0F30721201D01AA1154601C45
:100BC000C4B2162CF4DB784800880112201D01AA5B
:100BD0001154C8E0012D19D1714800788DF8060034
:100BE0006F4800788DF80700002406E06D48017812
:100BF000201D01AA1154601CC4B2162CF6DB6A48F1
:100C000000880112201D01AA1154ACE0644800883C
:100C1000801C854211DA00240CE040F2A9106043E8
:100C2000624901EB4001A81E095CA01C01AA1154F5
:100C3000601CC4B2022CF0DB09E0002405E00021B6
:100C4000A01C01AA1154601CC4B2022CF7DB564848
:100C50000088801C854205DAA81E5549085C8DF87D
:100C60001E0002E000208DF81E00B5F5167F22DC84
:100C70004C480068801C854212D200240DE0C4EB71
:100C80004410C0EB04204B4901EB8001A81E095C15
:100C9000201D01AA1154601CC4B2162CEFDB62E0C7
:100CA000002405E00021201D01AA1154601CC4B2DB
:100CB000162CF7DB57E040F25920854213D100246F
:100CC0000EE00C2C06DA324800880112201D01AA21
:100CD000115403E00021201D01AA1154601CC4B26C
:100CE000162CEEDB3FE040F25A20854212D1002460
:100CF0000DE00C2C05DA26480178201D01AA1154BC
:100D000003E00021201D01AA1154601CC4B2162C5E
:100D1000EFDB28E000241AE0A5F516701C490988CD
:100D2000891C88420DDAC4EB041000EB80001A49DC
:100D300001EB8001A5F25A20095C201D01AA115483
:100D400003E00021201D01AA1154601CC4B20C2C28
:100D5000E2DB0C2405E00021201D01AA1154601CD7
:100D6000C4B2162CF7DB1C2101A804F037FC00BF2D
:100D70000A4800880028FBDC681C85B2B5F5617F55
:100D8000FFF609AF00252AE000241BE0A4000020A4
:100D9000A600002074360020099F002004000020D7
:100DA000A0000020900000209E000020E194002080
:100DB000859B002074470020FF21A01C01AA11542C
:100DC000601CC4B2192CF7DB1C2101A804F006FC3E
:100DD00000BFFC4800880028FBDC681C85B2062D9B
:100DE000D2DB09B030BD00B585B030208DF80000F1
:100DF00004208DF80100F44800788DF80200F248D4
:100E000040788DF80300F04880788DF80400EE48B3
:100E1000C0788DF8050055208DF80600072168463A
:100E200004F0DCFB05B000BD10B54021E74806F03A
:100E30009EFB08B9202010BD8021E44806F097FBF6
:100E400008B92120F7E74FF48071E04806F08FFBE6
:100E500008B92220EFE7FF20EDE730B50346302543
:100E6000541E0D5500248C5410460FE00A2493FBA9
:100E7000F4F504FB15343034E5B2441E0D55E0B2F0
:100E800000B905E00A2493FBF4F4A3B2002BEDDCD7
:100E900000BF904201D1441EE0B203E02025441E71
:100EA0000D55E0B20028F9DC30BD30B504460D46E2
:100EB000032229462046FFF7D0FF30BD10B5C448B5
:100EC0000078002819DD182005F06AF947F6FF7050
:100ED00005F06CF94FF4784005F065F9BD48BEA106
:100EE00009680160011DBA480078FFF7DEFFD422CF
:100EF0000021B84805F05DF913E0182005F050F91D
:100F000047F6FF7005F052F947F6FF7005F04BF910
:100F1000B048B3A206CA06C0D4220021083805F0A2
:100F200048F910BD30B503463025541E0D55002438
:100F30008C5410460EE00A24B3FBF4F504FB153480
:100F40003034451E4C55441EE0B200B904E00A247A
:100F5000B3FBF4F3002BEED100BF904201D1441E4D
:100F6000E0B203E02025441E0D55E0B20028F9DC74
:100F700030BD70B5102005F013F9002005F013F90D
:100F80004FF6FF7005F012F9002433E0964931F86E
:100F9000140004228F49FFF7C5FF04EB8400800092
:100FA00000F126023B218B4805F003F98F480078B9
:100FB000012807D18C4830F814008D49095D00FBE9
:100FC00001F507E0884830F814008A4931F8141018
:100FD00000FB01F505227F492846FFF7A3FF04EB3C
:100FE0008400800000F1260265217A4805F0E1F8CE
:100FF000601CC4B2072CC9DB042276497E48006815
:10100000FFF790FF04EB8400800000F126023B21F3
:10101000704805F0CEF805226E4978480068FFF761
:1010200081FF04EB8400800000F1260265216948FD
:1010300005F0BFF870BD10B5182005F0B1F800201C
:1010400005F0B1F84FF6FF7005F0B0F805226149E0
:101050006B480088FFF701FF64480078012808D139
:1010600024205C4908703C22F4215A4805F0A1F87C
:1010700007E02020574908703C22F421554805F02C
:1010800098F810BD10B5182005F08AF8002005F07A
:101090008AF84FF6FF7005F089F807224D49574846
:1010A0000068FFF73FFF8C22DC214A4805F081F8F9
:1010B00010BD10B5182005F073F8002005F073F886
:1010C0004FF6FF7005F072F8042242494A48006862
:1010D000FFF728FF64224FF480713E4805F069F85D
:1010E00010BD10B54748007850B94748007838B966
:1010F000FFF7DFFFFFF7C6FFFFF79DFFFFF739FFA1
:1011000010BD2DE9F04F87B00746884692463E460F
:10111000707830383178303901EB810100EB4100D3
:10112000C0B20690069828B900208AF8000007B0DF
:10113000BDE8F08F0698804501DB4FF000080024E1
:10114000A346A14602252BE0705D7C281FD1BBF190
:10115000000F07D100244FF0010B142101A808F063
:10116000EDF81BE0C84506D1621C01A9504608F005
:1011700076F80120DBE709F1010000F0FF09002407
:101180004FF0010B142101A808F0D8F806E0112C4B
:1011900004DA705D01A90855601CC4B2681C85B2F0
:1011A000304608F03DF8A842CEDCBBF1010F2DD14E
:1011B000C8452BD1621C01A9504608F050F8012007
:1011C000B5E70000040000207E140020001001405C
:1011D000AB000020DC4600204A414D3A00000000F0
:1011E0004A414D3A3838380040470020D2000020AC
:1011F00046AA010850AA0108D4000020D800002007
:10120000DC0000201E000020D300002000BF8EE77D
:1012100038B547F6FF7004F0C9FF47F6FF701C238E
:10122000322202210090042005F04DF8002004F045
:10123000BAFF182004F0B4FFFD4AFE480178FE48CA
:101240000068FFF75EFF044604220B21F84804F013
:10125000B0FF38BD38B504460D4625B1012D0BD081
:10126000022D1BD111E020234FF4A072002108466B
:10127000009405F028F812E0B0234FF4A07220216A
:101280000020009405F01FF809E020234FF4A0721D
:10129000D0210020009405F016F800E000BF00BF48
:1012A00038BD3EB5002147F6FF70FFF7D3FF01219F
:1012B0004FF6FF70FFF7CEFF022147F6FF70FFF7F2
:1012C000C9FF44F2080002234FF4A07220210090CD
:1012D000002004F0F8FF44F2080002234FF4A0724B
:1012E000CE210090002004F0EEFF00200821032210
:1012F000A823CDE9002102907E222421102004F0B1
:10130000B6FF102004F04CFF002004F04CFF4FF615
:10131000FF7004F04BFFC7480078012815D1002466
:1013200010E0C649085D0422C149FFF7FBFD04EB4C
:101330008400800000F126021121BD4804F039FF2D
:10134000601CC4B2072CECDB15E0002411E0BC49A2
:1013500031F814000422B649FFF7E4FD04EB8400E1
:10136000800000F126021121B14804F022FF601C28
:10137000C4B2072CEBDB04EB8400800000F12602F2
:101380001121B0A004F015FF182004F009FF00207F
:1013900004F009FF4FF6FF7004F008FF8C22A02133
:1013A000AAA004F006FF6422A021AAA004F001FF75
:1013B0003C22A021A9A004F0FCFE3EBD10B5FFF721
:1013C00070FFFFF725FFFFF78CFEFFF777FD10BDDD
:1013D00010B50020A3490860A3490880A34908600C
:1013E0001821A34807F088FF10BDA2490870704774
:1013F00010B50446A0480078012809D1222C05D157
:1014000000209D490870FFF7D9FF00E000BF5AE0B7
:1014100099480078002856D1402C1CD004DC202CA0
:1014200018D0222C4ED104E0412C28D0422C49D196
:1014300000E000BF0020FFF7D8FF01208F490870AF
:1014400000208F4908808F490870FFF7C1FFFFF720
:10145000B5FF37E000BF77480078012803D10220AC
:101460007449087006E073480078022802D1012010
:1014700070490870FFF7ACFFFFF7A0FF22E0824839
:101480000078012818D100207F49087041F2271008
:10149000FFF753FA6420FEF706FF00BF7B480068A1
:1014A00000F4E0607A490843001D78490860BFF302
:1014B000408F00BF00BFFEE776480078401C7549AA
:1014C000087000BF00BF10BD10B50020FFF71CF86A
:1014D00000280BDD0020FEF7AAFF044665480078CF
:1014E00018B92046FFF784FF00BF00BF10BD7CB5D0
:1014F00006460C466848007800B17CBD304607F0CF
:101500008FFE85B22946304604F068F8002C09DDCC
:101510000D208DF800000A208DF801000221684698
:1015200004F05CF800BFE8E75C49087014215C4AED
:101530001170704710B50246C31700EB13731B11EF
:10154000584CE35C0B70C31700EB13731B11A0EB3B
:101550000313E35C4B7000228A7010BD70B5002449
:101560003348204450A10A68026009790171641D62
:10157000002510E04E48465D2D4801193046FFF722
:10158000D9FFA01CC4B220222046611CCCB228493D
:101590000A54681CC5B2162DECDB00222046611CE3
:1015A000CCB223490A5401212148FFF7A0FF0024AF
:1015B0001F4820443FA10A68026089888180A41DD9
:1015C0003E4806781A4801193046FFF76EFCE41CC5
:1015D00020222146641C1648425400222146641CE5
:1015E00042540021FFF783FF00241148204434A116
:1015F0000A68026089888180A41D304846780C48BA
:1016000001193046FFF751FCE41C20222146641CDE
:101610000748425400222146641C42540021FFF72F
:1016200066FF00240248204427A10A6802604FE0B8
:10163000DC460020D200002064AA010846AA010866
:1016400050AA01082053554D200000002053554D4D
:101650003A000000205043533A00000044454E4FEA
:101660003A000000D4000020DC000020D800002058
:10167000404700201E000020D300002073000020FF
:10168000B6000020AB000020C00000200CED00E000
:101690000000FA05BF0000204C000020860000205A
:1016A0008700002070AA0108B2E2B3A43A0000004B
:1016B0007E140020B4C5D0D4313A000028000020A8
:1016C000B4C5D0D4323A0000D1D5C9AB313A2000EC
:1016D00089888180A41DFC480678FC4801193046A1
:1016E000FFF7E3FBE41C20222146641CF748425428
:1016F000F5484678F54801193046FFF7D6FBE41C5B
:1017000020222146641CF1484254EF488678EF4875
:1017100001193046FFF7C9FBE01CC4B22022204665
:10172000611CCCB2E9490A5400222046611CCCB2AB
:10173000E6490A540021E548FFF7D9FE0024E348B2
:101740002044E3A10A68026089888180A41DDE48E4
:10175000C678DE4801193046FFF7A7FBE41C2022BB
:101760002146641CD9484254D7480679D748011904
:101770003046FFF79AFBE41C20222146641CD34824
:101780004254D1484679D14801193046FFF78DFBC4
:10179000E01CC4B220222046611CCCB2CB490A54C2
:1017A00000222046611CCCB2C8490A540021C74817
:1017B000FFF79DFE0024C5482044C7A10A680260C7
:1017C00089888180A41DC0488679C04801193046A7
:1017D000FFF76BFBE41C20222146641CBB484254EB
:1017E000B948C679B94801193046FFF75EFBE41CD9
:1017F00020222146641CB5484254B348067AB348B7
:1018000001193046FFF751FBE01CC4B220222046EC
:10181000611CCCB2AD490A5400222046611CCCB2F6
:10182000AA490A540021A948FFF761FE0024A748ED
:101830002044ABA10A68026089888180A41DA24867
:10184000467AA24801193046FFF72FFBE01CC4B2CC
:1018500020222046611CCCB29C490A549A48867AC0
:10186000084601193046FFF720FBE01CC4B22022D5
:101870002046611CCCB295490A549348C67A084662
:1018800001193046FFF711FBE01CC4B220222046AC
:10189000611CCCB28D490A5400222046611CCCB296
:1018A0008A490A5401218948FFF721FE002487480C
:1018B00020448DA10A6802604A684260098901815A
:1018C0000A348C480678814801193046FFF7EDFA52
:1018D000E41C20222146641C7C48425400222146FC
:1018E000641C42540021FFF702FE00247748204484
:1018F00081A10A68026009790171641D8048067837
:10190000724801193046FFF7D0FAE41C2022214624
:10191000641C6E48425400222146641C425400213B
:10192000FFF7E5FD00246948204476A10A680260BB
:1019300009790171641D75480678644801193046BB
:10194000FFF7B3FAE41C20222146641C5F4842548E
:1019500000222146641C42540121FFF7C8FD0024E7
:101960005A4820446AA10A88028089788170E41C60
:1019700068480678554801193046FFF796FAE41C86
:1019800020222146641C5148425400222146641CF6
:1019900042540121FFF7ABFD00244C4820445EA1D6
:1019A0000A88028089788170E41C484A11195B4AD0
:1019B0001078FFF77AFAE41C20222146641C434881
:1019C000425400222146641C42540021FFF78FFD3F
:1019D00000243E4A1119514A5078FFF766FAE41C78
:1019E00020222146641C3948425400222146641CAE
:1019F00042540121FFF77BFD00243448204448A1D4
:101A000009680160241D4021474805F0B0FD0646E5
:101A10002E4801193046FFF748FAE41C20222146DF
:101A2000641C2A48425400222146641C425400216E
:101A3000FFF75DFD80213C4805F099FD06462348EF
:101A400001193046FFF731FAE41C20222046611CC0
:101A5000CCB21E490A5400222046611CCCB21B495C
:101A60000A5400211948FFF742FD4FF480712E48B7
:101A700005F07DFD0646154801193046FFF715FAB9
:101A8000E01CC4B220222046611CCCB20F490A548B
:101A900000222046611CCCB20C490A5401210B489B
:101AA000FFF725FD01212148FFF721FD70BD70B52D
:101AB0001F480078012805D1FEF766FE18B90020FE
:101AC0001B49087017E335E093140020DC46002022
:101AD000D1D5C9AB323A2000D1D5C9AB333A2000B9
:101AE000D1D5C9AB343A2000BAECCDE2B7A2C9E4F3
:101AF000203A000020000020C2EBC5CC3A000000D4
:101B000062000020BDF8B3AE3A0000002B000020B8
:101B100055563A002A00002050533A002C0000206D
:101B20004B45593A0000000000100140989C040801
:101B300040010020FEF745FE0546F84800780028E1
:101B4000C0D1A62D78D01ADC682D57D00EDC622DBE
:101B500027D006DC422D20D0482D4ED0612D6CD1EF
:101B600023E0652D24D0672DF9D148E0A5F1A00030
:101B7000062862D2DFE800F04649727B848CA5F12A
:101B8000A7000F28F5D2DFE800F08D969FA3A7FEEF
:101B9000FDFC5858FBFAF9F8F7000020E0490870FE
:101BA000A8E20120DE490870A4E2FEF7E7FFA1E207
:101BB0000020DC4908704FF40071DB4805F0F1FCAF
:101BC0000120DA4908706420FEF76DFB0020D84937
:101BD0000870D8490880D8490880D8490860D84991
:101BE00008800120D7490870D7490870D749087084
:101BF0004FF41670D64908807CE27BE27AE2FEF769
:101C0000C5FE77E2FFF7AAFC74E2D2480078A8B9D3
:101C10000320FFF7EAFB03F01EFA2021CE4805F06F
:101C2000C0FC0120CD4908700020BE490870012188
:101C3000CBA0FFF75CFC10E02FE05AE20020FFF79A
:101C4000D4FB0120B74908700020CA490870FFF78B
:101C5000B5FB0121C8A0FFF74AFC4BE24FF400712D
:101C6000B14805F09EFC0120B049087042E24FF4F3
:101C70000071AD4805F097FC0020AC49087039E2CE
:101C80000120FFF751FC0121BFA0FFF730FC31E23A
:101C90004021B14805F085FC2CE24021AE4805F01A
:101CA00082FC27E2BA48007810B103F0D4F901E0D1
:101CB00003F04BFA1EE2B648007810B103F0CBF9FE
:101CC00001E003F04EFA15E20120B249087011E27A
:101CD0000020B04908700DE24FF40071924805F001
:101CE00060FC0120914908700020FFF77EFB012075
:101CF0008C4908706420FEF7D6FA1522A649A74839
:101D000007F0ADFA0121A6A0FFF7F1FB00240EE0D9
:101D10002020A6490870A149085DA449491CFFF785
:101D2000C4F80021A148FFF7E2FB601CC4B2152CE7
:101D3000EEDB0121AFF2F060FFF7D9FB15229749E6
:101D40009B4807F08CFA02209A49087000209A49B3
:101D500008705421994807F0F1FA1521984807F0C6
:101D6000CBFA2A21974807F0C7FAFF222A21964882
:101D700007F0BAFA012107E09EE1B2E095E080E0C9
:101D80006AE040E018E003E090A0FFF7B0FBB1E1AB
:101D900096480078012807D1002094490870012155
:101DA00093A0FFF7A4FB06E00120904908700121F1
:101DB00094A0FFF79CFB9DE197480078012807D18C
:101DC000002095490870012194A0FFF790FB19E0CD
:101DD000012091490870012193A0FFF788FB4FF47F
:101DE0007A70FEF760FA4FF480514F4805F0DBFB44
:101DF0004FF400514C4805F0D6FB4FF480414A485F
:101E000005F0D1FB76E18B480078022811D1C102A0
:101E1000454805F0C8FB4FF40051434805F0C3FBAB
:101E20004FF48041404805F0BEFB03208149087013
:101E300011E08048007818B901207E4908700AE056
:101E40007C480078012803D102207A49087002E01A
:101E50000020784908704DE100206F490870FFF7B5
:101E6000C4FA01202F4908706420FEF71CFA0120F3
:101E70005049087070490870012170A0FFF737FBC6
:101E800038E16D480078012807D100206A490870C0
:101E9000012170A0FFF72BFB06E0012066490870C6
:101EA000012171A0FFF723FB24E174480078012889
:101EB0000BD110211C4805F076FB00206F490870FB
:101EC00001216FA0FFF713FB0AE01021164805F06F
:101ED00068FB01206949087001216CA0FFF707FB2E
:101EE00008E11E48007801280BD120211A4805F08E
:101EF0005AFB002019490870012167A0FFF7F7FA83
:101F00000AE02021144805F04CFB01201349087019
:101F1000012165A0FFF7EBFAECE000004C00002087
:101F20008A00002073000020000C014020000020E7
:101F300072000020A00000209E00002090000020E1
:101F4000A6000020460000209B00002098000020F2
:101F5000700000201E000020000801402200002028
:101F600053454E534F525F564945575F5354415462
:101F700045000000D30000204E4F524D414C5F53AE
:101F80005441544500000000626565700000000087
:101F900016010020BD0000207E1400200013002048
:101FA000BFD5D4D8BAECCDE2D6B50000DC460020CF
:101FB000CC9400202A0100202B0100201CAD002021
:101FC00070AD0020B0AD0020DAAD0020BFAACABCC1
:101FD000BAF1B0D7D6BDD0A3D5FD2CB7C5C8EB3864
:101FE0003067BAF1B0D7D6BD000000008B000020EA
:101FF000B2E2B3A4CAE4B3F6D0A3D5FDCAFDBEDDF8
:1020000000000000B2E2B3A4CAE4B3F6D4ADCABC87
:10201000CAFDBEDD0000000025000020D1D5C9ABFF
:10202000B5C6B4F2BFAA0000D1D5C9ABB5C6B9D800
:10203000B1D50000230000208C000020BFAACABC3C
:10204000D1D5C9ABD0A3D5FD2CB7C5C8EB4134D68B
:10205000BD000000D1D5C9ABCAE4B3F6D0A3D5FD0D
:10206000CAFDBEDD00000000D1D5C9ABCAE4B3F69D
:10207000D4ADCABCCAFDBEDD0000000021000020B6
:102080005556B5C6B9D8B1D5000000005556B5C6ED
:10209000B4F2BFAA00000000BDF8B3AEBAECCDE2C6
:1020A000B9D8B1D500000000BDF8B3AEBAECCDE2AE
:1020B000B4F2BFAA00000000FB48007801280BD151
:1020C0004102FA4805F06FFA0020F7490870012133
:1020D000F7A0FFF70CFA0BE04FF40071F34805F09E
:1020E00060FA0120F04908700121F5A0FFF7FFF91F
:1020F00000E000BF00BF70BDF5480068401CF44917
:102100000860F4480078012806D1F348F3490978BB
:10211000405CF349088006E0F248F049097830F85D
:102120001100EF490880F0480068ED49098808442B
:10213000ED490860ED48E949097830F81100401C84
:10214000EA49E64A127821F812007047E14800781F
:1021500001283CD1E6480078132833D2DFE800F0AC
:102160000A0B0C1011121617181C1D1E22232428EE
:10217000292A2E0000BF00BF0020D849087025E0A2
:1021800000BF00BF0120D54908701FE000BF00BF9D
:102190000220D249087019E000BF00BF0320CF49D8
:1021A000087013E000BF00BF0420CC4908700DE0A8
:1021B00000BF00BF0520C949087007E00620C749D5
:1021C000087003E00720C549087000BF34E0C84824
:1021D00000780E282BD2DFE800F007080C0D111252
:1021E00016171B1C2021252600BF0020BB490870A4
:1021F00021E000BF0120B94908701CE000BF0220A7
:10220000B649087017E000BF0320B449087012E017
:1022100000BF0420B14908700DE000BF0520AF49A0
:10222000087008E000BF0620AC49087003E00720F2
:10223000AA49087000BF00BF70472DE9FE4F4FF05C
:1022400078094FF0320A002446E0AA4931F8140018
:1022500008F0E8F98346A84908F0B6F80546A5490C
:102260002C3131F8140008F0DDF98346A24908F05A
:10227000ABF807463946284608F068F915D03946C4
:10228000284608F0B9FA0290504608F0CBF90190C0
:10229000484608F0C7F90090019908F0ADFA834666
:1022A000029908F091F8804601E04FF000082946B5
:1022B000404608F0CBF98346484608F0B3F9594642
:1022C000029008F099FA06468C4840F824808C4920
:1022D00041F82460601CC4B2152CB6DBBDE8FE8F4B
:1022E00070B5002500241EE0202086490870C4F146
:1022F0001401854A505C05228249491CFEF7ADFD58
:1023000000218048FFF7F3F8012C01DB132C02DDDC
:10231000681CC5B205E07C48005D052801DB681C2F
:10232000C5B2601CC4B2152CDEDB0121AFF6E8405B
:10233000FFF7DDF8002412E0202072490870C4F194
:102340001401724A32F8110005226E49491CFEF749
:1023500084FD00216B48FFF7CAF8601CC4B2152C3D
:10236000EADB0121AFF62050FFF7C1F8002413E0AB
:10237000202064490870C4F11401654A32F8211024
:1023800088B205225F49491CFEF767FD00215D48C0
:10239000FFF7ADF8601CC4B2152CE9DB0121AFF6E4
:1023A0005850FFF7A4F8002412E020205549087087
:1023B000C4F11401574A32F8110005225149491C51
:1023C000FEF74BFD00214F48FFF791F8601CC4B2A7
:1023D000152CEADB0121AFF69050FFF788F80024B6
:1023E00012E0202047490870C4F114014A4A32F82B
:1023F000110005224349491CFEF72FFD00214148E9
:10240000FFF775F8601CC4B2152CEADB0121AFF6AA
:10241000C850FFF76CF80121AFF6D450FFF767F80A
:10242000152D40D13D480078022879D10121AFF621
:10243000E850FFF75CF8002431E03348005D0228E3
:1024400025DD3148005D801E2F490855304850F881
:102450002400304931F81410401A2D4941F8240065
:10246000084650F824002C4931F81410401A284925
:1024700041F82400084650F824002349095DB0FBC8
:10248000F1F081B21B482C3020F8141005E04FF415
:10249000FA7118482C3020F81410601CC4B2152CA6
:1024A000CBDB002450E0E1E020000020000C0140E4
:1024B000B2E2B3A4BAECCDE2B9D8B1D500000000C5
:1024C000B2E2B3A4BAECCDE2B4F2BFAA00000000BD
:1024D000D4000020D200002046AA010829010020D3
:1024E000DC00002050AA0108D8000020404700204E
:1024F000430100201813002000002041683500200F
:10250000BC350020DC46002070AD002086AD0020E8
:102510001CAD0020B0AD0020DAAD00202A01002063
:102520003AE02020F8490870C4F11402F74931F864
:1025300012000522F449491CFEF78FFC0021F248E5
:10254000FEF7D5FF601CC4B2152CEADB0121AFF603
:102550000870FEF7CCFF0121AFF61470FEF7C7FF3D
:102560000320EB4908700020EA4908705421EA482A
:1025700006F0E4FE1521E94806F0BEFE2A21E848EF
:1025800006F0BAFEFF222A21E64806F0ADFE012140
:10259000E5A0FEF7ACFF69E0DD480078032865D1CF
:1025A0000121AFF65C70FEF7A2FF002431E0DB48AA
:1025B000005D022825DDD948005D801ED7490855F9
:1025C000D54850F82400D64931F81410401AD249A1
:1025D00041F82400084650F82400D24931F814107C
:1025E000401ACD4941F82400084650F82400CB4950
:1025F000095DB0FBF1F081B2C4482C3820F814100A
:1026000005E04FF49661C1482C3820F81410601C86
:10261000C4B2152CCBDB002413E02020BA4908708B
:10262000C4F11402B9492C3931F812000522B64917
:10263000491CFEF712FC0021B348FEF758FF601C4E
:10264000C4B2152CE9DB0121BFA0FEF750FF012128
:10265000BDA0FEF74CFF0020AD4908700121BBA0D2
:10266000FEF745FFFEF72AF9FFF7E7FD70BD70B5ED
:102670008CB0B9480088B9490880002404E00020E3
:102680004DF82400601CC4B20C2CF8DB0026142585
:1026900016E0701CC6B200240EE05DF82400C4EB06
:1026A000041101EB8101AE4A02EB8101495D08444E
:1026B0004DF82400601CC4B20C2CEEDB681CC5B2C3
:1026C000A64800881438A842E3DC00241EE0002E4F
:1026D00008DD5DF82400B0FBF6F0C1B28B482D3068
:1026E000015503E0002189482D30015520208649FD
:1026F000087086492D31085D8349491CFEF7D5FBDA
:1027000000218148FEF7F3FE601CC4B20C2CDEDB16
:1027100000207F49087001218CA0FEF7E8FEFEF73B
:10272000CDF80CB070BD10B58E48007801287DD171
:1027300000208C4908708C4800780028F7D102F0FE
:102740008AFC73480078012802D1FFF790FF5AE015
:102750006F480078012804DD02F030FDFFF7C0FD6E
:1027600051E082480078012803D1814803F003FA40
:1027700002E07F4803F052FB102003F011FD00201F
:1027800003F011FD4FF6FF7003F010FD03225E49C8
:1027900078480078FEF7C6FBBE22DC215A4803F0D9
:1027A00008FD0322584974480078FEF7BBFBBE229F
:1027B000FA21554803F0FDFCFFF7C8FC6F4800788C
:1027C000072807DAFFF798FC0120FEF7ADFEFEF7B9
:1027D00088FC12E00320FEF7A7FE182003F0E0FCBF
:1027E0004FF4784003F0DFFC4FF6FF7003F0DEFC9F
:1027F0003C22F42162A003F0DCFC6348007801284D
:1028000001D1FEF7BBF96148008820F004005F4960
:1028100008805F48007860B90846008840F00800EA
:10282000088002F092FC96205A4900E00CE0087003
:102830000AE05648008840F040005449088002F001
:1028400090FCFA205449087010BD10B50446082CBD
:1028500012D2DFE804F00412202E3C4AA9B74FF44C
:1028600080514E4804F09FFE04214D4804F09BFE29
:1028700008214C4804F097FEB2E04FF480514748DD
:1028800004F091FE0421464804F08DFE08214548DD
:1028900004F087FEA4E04FF48051404804F083FE2A
:1028A00004213F4804F07DFE08213E4804F07BFEF1
:1028B00096E04FF48051394804F075FE0421384801
:1028C00004F06FFE0821374804F06BFE88E04FF4F7
:1028D0008051324804F065FE0421314804F063FE63
:1028E0000821304804F05FFE7AE04FF480512B4815
:1028F00004F057FE04212A4804F055FE0821294817
:1029000004F04FFE6CE00000DC4600204413002081
:102910002A0100202B0100201CAD002070AD0020FA
:10292000B0AD0020DAAD0020BFAACABCB1A1B0D7BB
:10293000D6BDD0A3D5FD2CB7C5C8EB343067B1A147
:10294000B0D7D6BD0000000020000000D0A3D5FD08
:10295000CDEAB3C900000000A60000202601002037
:10296000099F0020520000201E000020D2000020FD
:1029700067150020430100204401002029010020A8
:1029800020535553500000008A000020B60000205C
:10299000BD000020BB000020BC0000200010014052
:1029A00000140140000C01404FF48051FE4804F037
:1029B000F8FD0421FD4804F0F4FD0821FC4804F072
:1029C000F2FD0DE04FF48051F74804F0EAFD0421D8
:1029D000F64804F0E6FD0821F54804F0E2FD00BFEA
:1029E00000BF10BD10B50121F24803F0A2FE10BDDA
:1029F00010B5FFF7F7FF00BF022004F017F9002819
:102A0000FAD0022004F026F910BD70B50022022190
:102A1000E94804F0FCF80320FDF745FC0020E749F5
:102A2000087008460078FFF710FF002502E1FFF765
:102A3000DFFF002412E0E24850F82400C0F3072032
:102A4000E04901F81400DE4850F82400000E01218E
:102A500001EB4401DB4A5054601CC4B2052CEADB94
:102A6000D848407AD8490870D648C078D749087005
:102A7000D44840784870D3480078D5490870D14888
:102A80000079D4490870CF48007A4870CB48007864
:102A900007280FD2DFE800F0040F1A3E6286AA0072
:102AA000C8484079CC490870C6488079C871C54883
:102AB000C0798873A5E0C3484079C7494870C148C8
:102AC00080790872BF48C079C8739AE0BD484079E0
:102AD000C1498870BB4880794872BA48C079087487
:102AE000BE48007820B9B7488078BD49087010E02A
:102AF000BA480078012804D1B2488078B8494870B3
:102B000007E0B6480078022803D1AE488078B4497F
:102B1000887076E0AB484079AF49C870A9488079A1
:102B20008872A848C0794874AC48007820B9A54894
:102B30008078AB49C87010E0A8480078012804D11B
:102B4000A0488178A648017107E0A44800780228CF
:102B500003D19C488178A248417152E0994840795C
:102B60009D49087197488079C8729648C0798874E1
:102B70009A48007820B9934880789949887110E084
:102B800096480078012804D18E4881789448C17114
:102B900007E092480078022803D18A48817890485B
:102BA00001722EE0874840798B49487185488079C9
:102BB00008738448C079C8748848007820B981486F
:102BC00080788749487210E084480078012804D151
:102BD0007C4881788248817207E08048007802282A
:102BE00003D1784881787E48C1720AE075484079FF
:102BF000794988717348807948737248C07908753B
:102C000000BF00BF6D480078401C6C490870084642
:102C10000078072190FBF1F201FB12006749087070
:102C200008460078FFF711FE4FF4FA70FDF745FBF8
:102C3000681CC5B2072DFFF6FAAE012202215E48DC
:102C400003F0E5FF70BD10B5002466480078012848
:102C500012D10020634908706348007820B103282E
:102C600003D0052807D105E005E0FFF7CEFEFEF70B
:102C700075FC00E000BF00BF10BD10B55B480078D8
:102C8000012830D1002059490870FEF7CDF8584985
:102C90000870584800784006000E5649087054489D
:102CA0000078FF2803D008460078401C087052487E
:102CB0000078002849D14E480078FF2814D14F48A9
:102CC000007850B94E48007838B14D48017800205E
:102CD000FDF77DFB0120FEF727FC14204949087011
:102CE00002204649087095E04448007800280BDD32
:102CF00042480078401E414908700846007818B9DB
:102D00003B4800783E4908703E48007800281BDDAB
:102D10003C480078401E3B4908700846007800286F
:102D200078D139490870012033490870304800785B
:102D300036490870084600782030C1B20020FDF7FF
:102D400046FB0120FEF7F0FB64E0294800782F499C
:102D50000978884216D12C48007800285ADD2A4884
:102D60000078401E2849087008460078D0B92748E6
:102D700000782030C1B20020FDF729FB0120FEF7CA
:102D8000D3FB47E000201C490870FF201F49087052
:102D90001B4908700220194908701420194908704D
:102DA000002035E036E00000001001400014014032
:102DB000000C0140002401400800024024000020D3
:102DC00060140020741400202B0000202C00002030
:102DD0002A000020280000207E140020230000206C
:102DE000931400207B0000201E000020CC00002057
:102DF000CF000020D1000020CB000020C600002022
:102E0000C9000020C7000020C8000020CA00002020
:102E1000FE49087010BD10B5FD48007820BBFD4884
:102E20000078012814D1FC480088E8B9FB480078F4
:102E3000D0B902F08AF9F848008840F00100F6495C
:102E40000880F420F64908700020F64908800BE05D
:102E5000F148007800F02000002805DDEE480088E9
:102E600020F02000EC49088010BD10B54FF400712F
:102E7000ED4804F096FB0120EC49087002F065F97A
:102E80006420FDF710FA0020E9490880E94908604C
:102E90004FF47A70FDF707FA02F063F94FF47A7095
:102EA000FDF701FA02F0D7F84FF40071DE4804F0A4
:102EB0007AFB0020DD49087010BD704710B5DE4870
:102EC00003F0CCFDDD48DE490860DE4848600020A4
:102ED00088600520C860002008618020486180006B
:102EE00088618000C86120200862000248620020DA
:102EF0008862D14803F054FE10BD00B587B00121AF
:102F0000480204F00AFE0121880204F006FE0121B5
:102F1000084604F0F5FD1720ADF8000000208DF8FC
:102F200003006946C84804F08FFA3F20ADF800005E
:102F300000208DF803006946C44804F085FAFFF7C5
:102F4000BDFF01220221BC4803F061FE0B208DF879
:102F5000180001208DF819008DF81A008DF81B005B
:102F600006A803F0EAFAB5484C3803F04FFB4FF4DB
:102F7000C020019001208DF8080000208DF8090084
:102F80004FF4602003904FF40060049005208DF80A
:102F9000140001A9A9484C3803F05FFB01231A462D
:102FA0000021A6484C3803F0F0FB01230222042143
:102FB000A2484C3803F0E9FB012303220A219F4871
:102FC0004C3803F0E2FB012304220C219B484C38CF
:102FD00003F0DBFB012305220E2198484C3803F057
:102FE000D4FB9B4803F012FB4FF4C020019001205A
:102FF0008DF8080000208DF809004FF46020039040
:103000004FF40060049005208DF8140001A9904849
:1030100003F023FB01231A4619468D4803F0B5FB44
:103020000123022211468A4803F0AFFB0123032249
:103030000B21874803F0A9FB012304220D218448BA
:1030400003F0A3FB012305220F21814803F09DFB20
:1030500001217F4803F0F5FB012178484C3803F04B
:1030600028FB76484C3803F046FB00BF73484C38C9
:1030700003F046FB0028F9D170484C3803F04AFBB6
:1030800000BF6E484C3803F04AFB0028F9D10121FB
:103090006F4803F00EFB6E4803F02DFB00BF6C4839
:1030A00003F02EFB0028FAD1694803F033FB00BF80
:1030B000674803F034FB0028FAD101215F484C38FF
:1030C00003F002FB01215C4803F095FD022003F0B0
:1030D000C1FD07B000BD1FB50121084604F02AFD5F
:1030E000B320ADF8000040F2CF70ADF8040000202E
:1030F000ADF80600ADF8020069464FF0804004F0DC
:1031000045FE01221146900705F0B7F91C208DF805
:103110000C0000208DF80D0001208DF80E008DF8B8
:103120000F0003A803F009FA0121880705F08AF9C6
:103130001FBD08B501208DF802004002ADF8000067
:1031400010208DF803006946374804F07DF91020FF
:10315000ADF800008DF803006946334804F074F9B7
:103160001021314804F01FFA00203A49087020204D
:10317000ADF8000010208DF803006946324804F0D5
:1031800063F92021304804F00EFA0020324908701B
:103190004020ADF8000010208DF8030069462A4851
:1031A00004F052F94FF48050ADF8000010208DF873
:1031B000030069461C4804F047F94FF480511A484F
:1031C00004F0F1F94FF40050ADF8000010208DF834
:1031D00003006946144804F037F94FF400511248CF
:1031E00004F0E1F94FF48040ADF8000010208DF8B4
:1031F000030069460C4804F027F94FF480410A485F
:1032000004F0D1F9012115482AE00000C80000208F
:103210001E0000203C000020B60000201601002007
:10322000B9000020A4000020000C01402000002074
:10323000A000002090000020080002404C24014023
:1032400034140020601400200008014000100140E8
:103250000028014021000020220000200002300050
:1032600004F0C3F90820ADF8000010208DF8030029
:103270006946FE4804F0E8F80420ADF8000010208C
:103280008DF803006946FA4804F0DEF84FF48050E8
:10329000ADF8000010208DF803006946F54804F0F1
:1032A000D3F80020FFF7D1FA4020ADF80000482005
:1032B0008DF803006946EF4804F0C6F88020ADF8A9
:1032C000000048208DF803006946EA4804F0BCF885
:1032D0004FF48070ADF8000048208DF80300694677
:1032E000E44804F0B1F84FF48070ADF80000042019
:1032F0008DF803006946DD4804F0A6F808BDC82033
:10330000DD4981F8E0000021DB4880F8E11080F819
:10331000E91080F8EF1080F8EA10012180F8E2103F
:10332000002180F8E310012180F8E410002180F8EA
:10333000E51080F8E61080F8E710012180F8EB1026
:1033400080F8EC10322180F8ED10642180F8EE1046
:1033500070470320C84981F8B0004621C64880F86C
:10336000B110412180F8B2103C2180F8B310372110
:1033700080F8B4100A2180F8B510962180F8B610B4
:103380000A2180F8B710962180F8B810642180F8DF
:10339000B910372180F8BA10412180F8BB105A21AA
:1033A00080F8BC10732180F8BD103C2180F8BE105D
:1033B000462180F8BF103C2180F8C010502180F8D1
:1033C000C1100C2180F8C210172180F8C3101D21F4
:1033D00080F8C4102E2180F8C510162180F8C61080
:1033E000242180F8C710272180F8C810342180F8E4
:1033F000C9102B2180F8CA103C2180F8CB109121F4
:1034000080F8CC10822180F8CD10782180F8CE1081
:103410007047002006E09949095C974A42F820105D
:10342000411CC8B20328F6DB704700B500230EE04C
:103430009348C15C9048103040F833109048C15C0C
:103440008D48103000EBC3004160581CC3B2032B01
:10345000EEDBFFF7DEFF00BD10B5FFF7E6FF0A2049
:10346000854981F8A0002A218348483005F044FFAF
:103470002A218148743005F03FFFFF2215217E4844
:10348000303005F031FF10BD10B5FFF7E5FFFFF755
:1034900060FFFFF734FF10BD0EB505F03CFD4FF4A3
:1034A0008031C80203F07BF84FF4806004F0FCF92F
:1034B000002004F002FA4FF4004004F019FA012150
:1034C0003D2004F02AFB0121480204F026FB0121E3
:1034D000880204F022FB0121880304F01EFB01F0A6
:1034E00087FFFCF734FFFCF7B9FEFDF7D9F9FDF7CC
:1034F000D8F96148D0F860016249884217D05E4827
:10350000D0F8600100F07040B0F1004F05D0FFF737
:10351000BBFF0020FDF711FA03E0FFF71AFFFFF7EA
:10352000EEFE58485449C1F86001FDF7C7F9FFF7AE
:1035300000FEFFF7D0FD01F099FD0821012004F005
:1035400099F84FF48070009000208DF804000C2052
:103550008DF8050001208DF80600684603F0B6FBE3
:1035600017208DF8080003208DF8090000208DF841
:103570000A0001208DF80B0002A802F0DEFFFFF721
:10358000BCFC0EBD4FF47A70FCF78DFEFFF784FF94
:103590000A20FCF788FE4FF6FF7002F0F1FD4FF4B1
:1035A000784002F000FE4FF6FF7002F0FFFD182099
:1035B00002F0F6FD6C227C2133A002F0FAFD4FF4FC
:1035C000FA70FCF770FEFFF778FCFFF74EFC002066
:1035D0002F4908702F490870FEF72FFE1522264943
:1035E00030312D4805F03BFE4FF400711F4803F0C9
:1035F000D8FF0120294908700020FDF7F6FE0120C0
:1036000027490870002027490870FDF7E1FEFDF703
:10361000D5FE0120FDF788FF4FF48051134803F0D9
:10362000C2FF4FF40051114803F0BDFF4FF4804139
:103630000E4803F0B8FFA7E01B480078012802D12C
:1036400000201949087019480078012806D1002087
:1036500016490870164800881649088016480078F0
:1036600001282DD100201449087027E0000C0140EA
:103670000014014000100140D012002019AA0108D6
:1036800015AA01085311068757454C434F4D450075
:10369000380000203C000020CC94002020000020B6
:1036A00073000020D30000207A0000207200002068
:1036B000A000002022010020AC000020FDF7FEFB4E
:1036C000FB48007801280AD10020F94908704FF41E
:1036D0000071F84803F067FF0020F7490870F748C9
:1036E000007801283BD1F6480078A0BBF548007867
:1036F00088BBF5480078401CF349087008460078FC
:103700000A2824DD4FF40071EA4803F04AFF012043
:10371000E949087001F025FD4FF4FA70FCF7C3FD8C
:1037200001F099FC0020E9490870FDF75EFE0120D8
:10373000E74908700020E7490880FDF749FEFDF7DA
:103740003DFE0120FDF7F0FE0020DF4908700A2051
:10375000FCF7A9FD03E0FFE70020DB490870DE4825
:103760000078012804D10020DB49087001F073FCC7
:10377000FFF751FBFFF781FAFFF765FAFEF7D3FF7A
:10378000FEF795F9FDF7A0FE56E72DE9F04705464F
:103790000C46D248005D0A38A84202DC2846BDE843
:1037A000F087284606F03EFF8246CD4951F82400B6
:1037B000514606F04BFF0746CA4850F824103846D9
:1037C00006F094FD0646304606F064FD07460022EA
:1037D000134606F0F9FA01D8002609E0304606F053
:1037E00059FD07460022C04B06F028FC00D2BF4E10
:1037F000304606F0DFFE00F0FF094846CFE730B55F
:1038000003463025541E0D5500248C5410460FE0FD
:103810000A2493FBF4F504FB15343034E5B2441E5E
:103820000D55E0B200B905E00A2493FBF4F4A3B20D
:10383000002BEDDC00BF904201D1441EE0B203E05A
:103840003025441E0D55E0B20028F9DC30BD10B51E
:10385000024610460A2807DA30230B704B708B7033
:1038600000F13003CB7052E064280FDA30230B7084
:103870004B700A2390FBF3F330338B700A2390FBD9
:10388000F3F403FB14033033CB7040E0B0F57A7FE0
:1038900019DA30230B70642390FBF3F330334B7051
:1038A000642390FBF3F403FB140398B20A2390FB08
:1038B000F3F330338B700A2390FBF3F403FB140310
:1038C0003033CB7023E04FF47A7390FBF3F3303353
:1038D0000B704FF47A7390FBF3F403FB140398B26C
:1038E000642390FBF3F330334B70642390FBF3F4C9
:1038F00003FB140398B20A2390FBF3F330338B706D
:103900000A2390FBF3F403FB14033033CB70002342
:103910000B7110BD10B50024754801197548007869
:10392000FFF795FF241D202071490855641C72483B
:103930000078072817D10846204470496E4A12784B
:1039400051F822100A6802604968416004F10800D9
:10395000C4B267480119022269480078FFF74FFF97
:10396000A01CC4B20FE0624801196448624A127890
:1039700050F8220002680A6042684A6080688860E5
:1039800004F10C00C4B2002059490855601CC4B2AF
:1039900001215748FDF7ABFD10BD10B5FDF7A1FBA8
:1039A0000120FDF7C1FD01F0E8FB0C20FDF71DFD36
:1039B00010BD10B50120FDF7B7FD01F0DEFB0E20B4
:1039C000FDF713FD10BD10B5FFF723FD01F043FB1C
:1039D000002001F01BFB01F0B8FB40F6B830FCF70B
:1039E00062FC484801784848484A127840F832104A
:1039F00001F031FB01F0B5FB40F6B830FCF753FCA9
:103A0000434801784048414A127800EBC2004160C7
:103A100001F021FB012001F0F9FA01F096FB40F6DC
:103A2000B830FCF740FC374801783748374A1278FD
:103A300040F8321001F00FFB01F093FB40F6B83074
:103A4000FCF731FC324801782F48304A127800EBFD
:103A5000C200416001F0FFFA022001F0D7FA01F044
:103A600074FB40F6B830FCF71EFC26480178264867
:103A7000264A127840F8321001F0EDFA01F071FB9D
:103A800040F6B830FCF70FFC214801781E481F4A69
:103A9000127800EBC200416001F0DDFAFCF70EFF86
:103AA0001949103991F8E10001F0B0FA10BD000099
:103AB00080000020000C0140200000201E0000209B
:103AC0003C0000203100002032000020AB0000202C
:103AD00073000020B6000020BE000020CC9400201F
:103AE00068350020BC35002000E06F4000007F43B7
:103AF000DC4600205300002029010020E4000020C3
:103B0000280100201C010020E012002017010020E5
:103B10001D01002010B504462020FE4908704520F4
:103B200048700222891C2046FFF769FE10BD6428F8
:103B30001FDB0022CA700A2290FBF2F302FB130281
:103B400030328A700A2290FBF2F2D0B20A2290FB45
:103B5000F2F302FB130230324A700A2290FBF2F2B7
:103B6000D0B20A2290FBF2F302FB130230320A7049
:103B70001FE00A2814DB00228A700A2290FBF2F36D
:103B800002FB130230324A700A2290FBF2F2D0B2EA
:103B90000A2290FBF2F302FB130230320A7008E0B3
:103BA00000224A700A2290FBF2F302FB1302303229
:103BB0000A70704710B5D848007809280FD0D5484A
:103BC000D6A109880180D6490978133188B202222A
:103BD000D049891CFDF741F90120FDF706FC4FF49F
:103BE0000071D04803F0DDFC0120CF49087001F0DE
:103BF00032FA0320FDF798FC0120CC49087010BD73
:103C0000F0B501460A2901DA4C20F0BD4C27C8481E
:103C1000008801FB01054C2301F14C042BE004EB6F
:103C2000030C1FFA8CF000EBD07C4FEA6C02FF2AE9
:103C300006DDFF22FF24E01800EBD07CCCF34F021E
:103C400002FB02F086B2A5F11400B04204D828307D
:103C5000864201D81046D8E7D81C844206DCE0181A
:103C60001FFA80FC0CEBDC704010CEE7AE4201D2B4
:103C7000134600E01446D2E770B505460E464C24C4
:103C80006C433046FFF7BCFFB4FBF0F4A0B270BD4C
:103C90007FB505460021A74804F0D4FB012104208C
:103CA00003F048FF25B1012D05D0022D09D105E013
:103CB0004FF4E17406E04FF4C87403E04FF4B474B9
:103CC00000E000BF00BFB320ADF8000040F22B10B1
:103CD000ADF804000020ADF80600ADF8020069461A
:103CE000944804F053F801221146924804F0C5FBB1
:103CF0001E208DF80C0000208DF80D0001208DF89D
:103D00000E008DF80F0003A802F017FC012189486E
:103D100004F098FB7FBD10B587480078401C8649A9
:103D20000870084600780521B0FBF1F201FB120093
:103D30008149087081480978405C38B92021804861
:103D400003F031FC00207F49087006E020217C4808
:103D500003F027FC01207B49087010BD10B5044614
:103D6000206879490840B0F1005F0CD1606877495C
:103D7000086008460068764908602068FCF767FA22
:103D800073480068804710BD704700BFFEE700BF62
:103D9000FEE700BFFEE700BFFEE7704770477047D1
:103DA00010B56C480088002804DD6A480088401E71
:103DB0006849088068480068401C6749086067488F
:103DC0000088401C6549088008460088B0F57A7F65
:103DD00023DB0120624908706249087000205F49B6
:103DE000088061480088401C5F49088008460088B8
:103DF000142812DD002008805C480078032803DBCB
:103E000001205B49087008E058480078002804DD6C
:103E100056480078401E55490870564800780028DA
:103E20000DDD54480078401E52490870084600785D
:103E300028B901205049087014204E4908704F4895
:103E4000008800280ADD4D480088401E4B49088044
:103E50000846008810B9012049490870494800788F
:103E6000012855D12C480078032851D035480078D6
:103E7000B8B14548007845490880434800783C2857
:103E800005DD43480078401C4149087020E0404867
:103E9000007800281CDD3E480078401E3C49087030
:103EA00016E0394800783B490880374800783C28BC
:103EB00005DA37480078401C3549087008E0344876
:103EC0000078002804DD32480078401E3049087030
:103ED00031480078401C30490870084600780528B1
:103EE00066DB00200870FFF716FF2C480078401CA6
:103EF0002A490870084600780A2859DB0020087013
:103F0000234800781E284DDB0120254908704CE02D
:103F10004EE00000DC4600201E000020204500008E
:103F2000AB000020000C014020000020AC0000206D
:103F300004010020000800400601002080AA0108BA
:103F400000080140220000200000FE2F0C0100208C
:103F500008010020DE0000204800002010010020A1
:103F60007A0000207B00002012010020BF0000200A
:103F7000C0000020CE000020CC0000207E000020E9
:103F800080000020730000202B000020360000205D
:103F90003800002034000020140100203B000020E5
:103FA0003C0000200020F84908700020F749087004
:103FB00010BD10B52021F64804F0CCFE50B1F448F5
:103FC00004F05EFEC4B22046FCF7BEFA0120F149BF
:103FD000087016E08021EE4804F0BCFE88B1EE487F
:103FE0000088002807DDFCF7FDFA04462146E84872
:103FF00004F042FE05E0002240F22771E44804F09C
:10400000DAFD10BD10B52021E44804F0A3FE50B144
:10401000E24804F035FEC4B22046FCF7C3FB0120A1
:10402000DF49087016E08021DC4804F093FE88B177
:10403000DC480088002807DDFCF7FBFB044621462E
:10404000D64804F019FE05E0002240F22771D3485B
:1040500004F0B1FD10BD10B50121D34804F0AFFC50
:1040600060B30121D04804F0B3FCD04800780128A7
:1040700003D0CF480088002820DDCD4800880028E4
:1040800015DDCB480088401EC949088008460088D5
:1040900068B900F0E0FF0020C6490870C649087002
:1040A000C6480088C64908800020C6490870FEF747
:1040B00099FCC5480068401CC349086010BD10B594
:1040C0000023C248007808B9002010BD0023002159
:1040D00000220FE0BE48845CBE48805C0A388442FF
:1040E00002DA481CC1B203E0994200DD0B46002110
:1040F000501CC2B2162AEDDB994200DD0B46032BA1
:1041000001DB0120E1E70020DFE7B3480078012868
:1041100071D1B24800784006000EB0490870B0482E
:104120004078B42803DA08460078401C0870AD488F
:104130000078002845D1A948007800F00F000F282A
:104140006DD10120A7490870A748007803280ED137
:104150000020A6490870A648008820F04000A44925
:1041600008800846008840F01000088057E09E480C
:104170000078022853D100209E490870F4209E49FF
:1041800008709B48008840F0020099490880084662
:10419000008820F001000880372098490870192015
:1041A00097490870012083490870002095490880CC
:1041B000824908609449088094490880944908809D
:1041C0002DE088480078012829D18448007800F043
:1041D0000F0020BB00208349087083480078022824
:1041E0000AD137208B4908701E208B490870122095
:1041F0008A49087013E00DE07B48007803280ED14F
:104200002820874908707A48008820F010007849F3
:10421000088004E0002071490870724908707047F6
:104220006D480078012836D17E4800784006000E9F
:104230007C4908706A480078B42803DA0846007898
:10424000401C087078480078A0B97648007800F0E3
:104250000F000F2824D101207349087062480078AC
:1042600003281DD060480078022819D10020624937
:10427000087015E06C480078012811D16948007871
:1042800000F00F0060B900206749087056480078B8
:10429000022805D004E000206249087062490870D5
:1042A000704710B544480078012839D14348006868
:1042B000B0F5617F34D2002425E05C480078012805
:1042C00003D05B48007800280CDD4148005DC4EB5A
:1042D0004411C1EB0421574A02EB8101374A1268AD
:1042E00088540EE03A49085D2146FFF74EFAC4EBC8
:1042F0004411C1EB04214F4A02EB81012F4A12689D
:104300008854601CC4B2152CD7DB404800784A4959
:104310002A4A1268885429480068401C27490860C6
:1043200010BD46480088B0F5FA6F10DA44480078AE
:104330004449424A128888544148417842483F4A99
:10434000128881543D480088401C3C4908801D4823
:10435000007801287ED12E48008840F252318842F0
:1043600010DA374801783948294A1288815434488C
:1043700041783748264A1288815425480088401CD5
:104380002349088081E065E03C00002038000020DF
:10439000003801403E010020040000200048004099
:1043A0004001002018000020000800407300002099
:1043B00070000020460000209B000020900000209C
:1043C000200100209800002068000020200000202C
:1043D0007E140020CC940020220000203D0000200C
:1043E0002C0000203F00002016010020BC0000200F
:1043F000B6000020B9000020B8000020990000207D
:104400009C000020A60000209400002064000020F2
:10441000A00000209A0000209D0000204500002000
:10442000BA0000203E000020410000208B00002048
:104430002A0100207447002048910020A400002099
:104440002800002074360020443E0020E194002023
:1044500033980020FC480078FC49FD4A12788854C3
:10446000F9484178F9483230F94A12788154F848CD
:104470000078401CF649087008460078322190FB0D
:10448000F1F201FB1200F24908707047F148007820
:1044900001280FD1F0480088B0F5617F0ADAEF48B3
:1044A0000078EF49EC4A12888854EB480088401C99
:1044B000E94908807047EB480078012829D1EA488B
:1044C0000088B0F5967F24DAE8480078012856D1B4
:1044D000E748007802281DD1E6488178E648E24A9C
:1044E00012888154E3484179E448DF4A12888154B4
:1044F000E048017AE248DC4A12888154DD48C17AFA
:10450000E048D94A12888154D7480088401CD649CF
:10451000088087E1D6480078C0B9D6480078DA49E3
:10452000D14A12888854D348C178D848CE4A1288D4
:104530008154D0488179D648CB4A12888154CD48DD
:10454000417AD448C84A128881546BE1C9484178FD
:10455000D148C54A12888154C6480179CF48C24A19
:1045600012888154C348C179CD48BF4A128881540A
:10457000C048817ACB48BC4A1288815452E1BC4879
:104580000078022872D1BB488078B4214843C649DC
:1045900091F8A31090FBF1F0FF2809DAB548807874
:1045A000B4214843C04991F8A31090FBF1F000E01A
:1045B000FF20C1B2B048AC4A12888154AD4840795E
:1045C000B4214843B84991F8A61090FBF1F0FF28B8
:1045D00009DAA8484079B4214843B34991F8A610B4
:1045E00090FBF1F000E0FF20C1B2A4489E4A12887F
:1045F0008154A048007AB4214843AB4991F8A910EE
:1046000090FBF1F0FF2809DA9A48007AB421484378
:10461000A54991F8A91090FBF1F000E0FF20C1B28C
:104620009748914A128881549248C07AB4214843ED
:104630009D4991F8AC1090FBF1F0FF2809DA8D4804
:10464000C07AB4214843984991F8AC1090FBF1F03E
:1046500000E0FF20C1B28B48834A1288815482480F
:104660000088401C80490880DCE0FFE78048007833
:1046700000286BD17F480078B42148438A4991F8DB
:10468000A11090FBF1F0FF2809DA7A480078B421F4
:104690004843854991F8A11090FBF1F000E0FF201C
:1046A0007949714A128888547248C078B4214843C5
:1046B0007D4991F8A41090FBF1F0FF2809DA6D48CC
:1046C000C078B4214843784991F8A41090FBF1F0E8
:1046D00000E0FF20C1B26D48634A128881546548EA
:1046E0008079B4214843704991F8A71090FBF1F00C
:1046F000FF2809DA5F488079B42148436A4991F874
:10470000A71090FBF1F000E0FF20C1B26048564ACC
:10471000128881545748407AB4214843624991F83D
:10472000AA1090FBF1F0FF2809DA5248407AB42130
:1047300048435D4991F8AA1090FBF1F000E0FF209A
:10474000C1B25448484A128881546BE049484078C5
:10475000B4214843544991F8A21090FBF1F0FF288E
:1047600009DA44484078B42148434F4991F8A210EF
:1047700090FBF1F000E0FF20C1B247483A4A1288AE
:1047800081543C480079B4214843474991F8A51029
:1047900090FBF1F0FF2809DA36480079B42148434C
:1047A000414991F8A51090FBF1F000E0FF20C1B263
:1047B0003A482D4A128881542E48C079B421484382
:1047C000394991F8A81090FBF1F0FF2809DA29483F
:1047D000C079B4214843344991F8A81090FBF1F016
:1047E00000E0FF20C1B22E481F4A128881542148A0
:1047F000807AB42148432C4991F8AB1090FBF1F03A
:10480000FF2809DA1B48807AB4214843264991F8E9
:10481000AB1090FBF1F000E0FF20C1B22148124A3A
:1048200012888154704710B5022002F0FFF9002869
:104830007ED0022002F00EFA1C480068401C1B4982
:104840000860002447E00000280000201036002007
:10485000A3000020980000209E0000202A000020D5
:10486000859B002046000020A60000208C00002030
:10487000230000209314002061A10020E5A4002063
:1048800069A80020EDAB0020099F00208DA2002028
:1048900011A6002095A9002035A00020B9A3002072
:1048A0003DA70020C1AA0020D01200206C000020EB
:1048B000FE4850F82400C0F30720FD4901F8140019
:1048C000FA4850F82400000E012101EB4401F84A97
:1048D0005054601CC4B2052CEADBF548407AF54917
:1048E0000870F348C078F4490870F148407848707F
:1048F000EF480078F1490870ED480079F0490870F8
:10490000EB48007A4870EF48007807280FD2DFE8BC
:1049100000F004101B3F6387AB00E5484079EA498B
:104920000870E3488079C871E148C0798873A6E0CF
:10493000FFE0DF484079E4494870DD48807908723B
:10494000DB48C079C8739AE0D9484079DE4988705D
:10495000D74880794872D648C0790874DB48007817
:1049600020B9D3488078DA49087010E0D748007839
:10497000012804D1CE488078D549487007E0D34853
:104980000078022803D1CA488078D149887076E03F
:10499000C7484079CC49C870C54880798872C448F6
:1049A000C0794874C948007820B9C1488078C8499E
:1049B000C87010E0C5480078012804D1BC4881784F
:1049C000C348017107E0C1480078022803D1B84804
:1049D0008178BF48417152E0B5484079BA490871C1
:1049E000B3488079C872B248C0798874B7480078F3
:1049F00020B9AF488078B649887110E0B348007894
:104A0000012804D1AA488178B148C17107E0AF48B4
:104A10000078022803D1A6488178AD4801722EE0C3
:104A2000A3484079A8494871A14880790873A048F3
:104A3000C079C874A548007820B99D488078A449F9
:104A4000487210E0A1480078012804D19848817884
:104A50009F48817207E09D480078022803D194485E
:104A600081789B48C1720AE09148407996498871E3
:104A70008F48807948738E48C079087500BF00BFA1
:104A800090480078401C8F49087008460078FDF770
:104A9000DCFE8C48007807280BD1FFF736FBFFF7C8
:104AA000BFFBFFF7FEFBFFF73CFCFFF704FDFFF742
:104AB000EDFC84480078072803DA0121854801F0DD
:104AC00038FE80480078072846D100207D490870CC
:104AD00008460078FDF7B9FE7F48007848BB7B4860
:104AE0000078022811D1C1027C4802F05AFD002052
:104AF000764908704FF40051784802F054FD4FF4A5
:104B00008041764802F04FFD26E07048007888B971
:104B10004FF48051714802F046FD4FF400516F4848
:104B200002F03FFD01206949087081036B4802F0E3
:104B30003AFD11E04FF48051684802F034FD4FF423
:104B40000051664802F02FFD4FF48041634802F0A7
:104B500028FD02205D49087010BD10B501218807AD
:104B600003F02DFF002868D00121880703F030FFF3
:104B70005B48007800280ADD59480078401E5849F3
:104B800008700846007810B9012056490870564848
:104B90000078401C54490870084600780A2839DB20
:104BA0000020087051480078022803D04F48007850
:104BB000032829D14E48007864280BDA4D48008834
:104BC0004D494B4A127821F8120049480078401CA0
:104BD0004749087049480078C8B9464800880F28F6
:104BE0000EDA47480088401C45490880084600887E
:104BF0000A280CDB012041490870FEF7DBFF06E0C4
:104C000000203F49088002E000203D490880002044
:104C1000384908803B48007800282ADD3A48007867
:104C2000401C39490870084600783849097888429C
:104C300004DA4021364802F0B4FC1AE03248017828
:104C4000324800780C30814204DA4021304802F0CA
:104C5000AAFC0EE000202C4908702A480078401E6B
:104C6000284908700846007818B94021284802F001
:104C70009AFC10BD704710B54FF4807002F07DF8BB
:104C800000287DD04FF4807002F082F8214800881F
:104C9000401C2049088017480088401C154908809E
:104CA00014201D4908701D48007839E06014002068
:104CB000741400202B0000202C0000202A0000206B
:104CC00028000020240000207E1400202300002063
:104CD000931400200024014025000020000C014016
:104CE0003F0100203E01002040000020160100206E
:104CF000AA000020A800002014460020AB000020DD
:104D0000AE000020860000208800002087000020E0
:104D10000008014062000020B10000205E00002079
:104D2000012804D199480078401C98490870984897
:104D30000078012808D197480078022804D19648C5
:104D40000088401C944908809448007800280DDDB4
:104D500092480078401E914908700846007828B9AA
:104D600001208F49087000208E4908808E48007805
:104D700000280CDD8C480078401E8B49087000E04C
:104D8000F6E00846007810B9002085490870874889
:104D90000088002804DD85480088401E834908807B
:104DA00083480078012808D17A480078022804D185
:104DB00080480088401C7F4908807F480078002890
:104DC0000DDD7D480078401E7B490870084600785C
:104DD00028B900207949088001207949087079486C
:104DE0000078002818DD77480078401E7549087063
:104DF0000846007880B90020714908700120724986
:104E000008707248008840F0040070490880084625
:104E1000008820F0020008806D48007800280DDD31
:104E20006B480078401E6A4908700846007828B927
:104E300000206849086001205549087066480078DC
:104E400000280EDD64480078401E6349087008465B
:104E5000007830B95F4800886049088000204C49DC
:104E600008705F480078002812DD5D480078401E19
:104E70005B4908700846007850B95448008820F013
:104E8000020052490880032056490870FEF792FE3E
:104E900055480078002812DD53480078401E5249DA
:104EA00008700846007850B94848008820F0010092
:104EB0004649088003204B490870FEF77BFE4B48AB
:104EC0000078002814DD49480078401E47490870E2
:104ED0000846007860B946480078012805D13B486B
:104EE000008840F0200039490880012041490870BD
:104EF00041480078002810DD3F480078401E3E49B8
:104F000008700846007840B93048008820F0080052
:104F10002E49088001203749087038480078002859
:104F200010DD36480078401E344908700846007885
:104F300040B92648008820F040002449088001201C
:104F40002C4908702E4890F8B00000F002000028AC
:104F50000EDD2448007858B92A480088C82807DDA3
:104F6000022020490870FEF725FE00202549088010
:104F700010BD704710B50221234801F04BFD18B158
:104F80000221214801F04FFD10BD00005F0000200C
:104F90009B00002016010020640000204400002037
:104FA00046000020A60000204500002082000020CE
:104FB0003000002094000020990000209E00002076
:104FC000980000209A00002052000020B600002027
:104FD0009C000020900000209D0000202001002067
:104FE000B8000020AB000020B9000020BA0000206B
:104FF0003C000020BE000020BB000020BC000020C0
:10500000D01200204E0000200024014010B50446BC
:105010006348047024B1012C03D0022C09D101E0B3
:1050200000BF00BFFF205F490870F0205E49087094
:105030000BE000205A4908705C48007C5949087010
:105040005A48007D5849087000BF00BF5448007896
:10505000FEF71EFE10BD5648007830B100205449BE
:10506000087054490880091D0880704700B589B050
:1050700003208DF822000120ADF8200018208DF8C3
:10508000230008A94C4802F0DFF90220ADF8200007
:1050900018208DF8230008A9474802F0D5F901210E
:1050A000022002F047FD40F2CF20ADF81400FE20B0
:1050B000ADF818000020ADF81A00ADF8160005A9EB
:1050C0003C483C3802F062FE6020ADF8040001204C
:1050D000ADF806000020ADF80800ADF80A00ADF804
:1050E0000C0001A933483C3802F01CFF082131486C
:1050F0003C3803F0EDFA6020ADF804000120ADF873
:1051000006000020ADF80800ADF80A00ADF80C006C
:1051100001A928483C3802F050FF082125483C38B6
:1051200003F0DFFA012123483C3803F08BF9FFF745
:1051300092FF01211F483C3803F090F91B4991F878
:10514000E100FFF763FF09B000BD022018490870B5
:1051500000201849091D088012480078091F08809E
:1051600070470320124908700F4800781149091D43
:1051700008800020091F0880704710B5FFF76BFFFB
:105180000120FBF790F810BD064800780949088017
:105190007047054800780749091D088070470000DE
:1051A000170100201C0100201D010020D01200204A
:1051B000160100203C040040000C01402DE9F84F8E
:1051C0002A21834804F098F80024F7E081480088F9
:1051D000401E1FFA80F84FF0000B00252CE0C4EBB6
:1051E0004410C0EB04207C4901EB8000415D7B480A
:1051F000005D0A3881421DDAC4EB4410C0EB042084
:10520000754901EB8001681C095C7448005D0A382F
:1052100081420FDAC4EB4410C0EB04206E4901EB6D
:105220008001A81C095C6D48005D0A38814201DAE2
:10523000A84608E0681C85B26649088800EBD07172
:10524000B5EB610FCBDB00BF62480088401E85B222
:105250002CE0C4EB4410C0EB04205F4901EB80005C
:10526000415D5E48005D0A3881421DDAC4EB44109E
:10527000C0EB0420584901EB8001681E095C5748C7
:10528000005D0A3881420FDAC4EB4410C0EB042001
:10529000514901EB8001A81E095C5048005D0A38A5
:1052A000814201DAAB4608E0681E85B249490888A8
:1052B00000EBD071B5EB610FCBDC00BF454908882E
:1052C00000EBD07108EB6101594575DC0026002028
:1052D0000090ABEB080087B2B1464FF0FF0A3846AA
:1052E000F91707EB917108EBA1018DB230E0C4EB27
:1052F0004410C0EB0420384901EB8000405D0644B7
:105300000098401C0090C4EB4410C0EB042001EB5B
:105310008000405D484507DDC4EB4410C0EB04202D
:1053200001EB800010F80590C4EB4410C0EB0420A2
:10533000294901EB8000405D504507DAC4EB441079
:10534000C0EB042001EB800010F805A0681C85B2BA
:1053500007EB4700C11700EB917108EBA101A942CF
:10536000C5DAD14528DDA9EB0A00142824DA06EBBA
:10537000860046000098B6FBF0F6194830F8140095
:10538000B04202D8164921F81460164830F81400CB
:10539000B04202D3134921F81460134850F8240096
:1053A0003044114941F824001048005D401C0F4969
:1053B0000855074921F81460601C84B2152CFFF6CB
:1053C00005AFBDE8F88F7047014600207047704771
:1053D00086AD00202001002074470020CC940020DE
:1053E000B0AD0020DAAD00201CAD002070AD002073
:1053F00000B587B04FF48060ADF8180004208DF838
:105400001B0001208DF81A0006A9864802F01CF83E
:105410004FF40070ADF8180018208DF81B0006A995
:10542000804802F011F84FF4E13002900020ADF80E
:105430000C00ADF80E00ADF81000ADF814000C2013
:10544000ADF8120002A9784803F01DFB4FF4A060EC
:1054500001F06EF825208DF8040001208DF805007C
:1054600002208DF8060001208DF8070001A801F048
:1054700064F8012240F225516B4803F09CFB0022A6
:1054800040F22771684803F096FB0121664803F05B
:1054900086FB002065490870654908700121880471
:1054A00002F048FB4FF40060ADF8180004208DF8BE
:1054B0001B0001208DF81A0006A95E4801F0C4FF08
:1054C0004FF48060ADF8180018208DF81B0006A975
:1054D000584801F0B9FF4FF4E13002900020ADF8D8
:1054E0000C00ADF80E00ADF81000ADF814000C2063
:1054F000ADF8120002A9504803F0C5FA4FF4A060BD
:1055000001F016F827208DF8040001208DF8050021
:1055100002208DF8060001208DF8070001A801F097
:105520000CF8012240F22551434803F044FB0022CD
:1055300040F22771404803F03EFB01213E4803F052
:105540002EFB00203D49087007B000BD70B5044631
:105550000D4606E0FBF761F8691D884200DD01E0B9
:105560000026F7E700BF002240F227712E4803F023
:1055700022FB03E02078FBF71BF8641C2800A5F150
:1055800001018DB2F6D1012240F22771264803F0C5
:1055900012FB70BD70B504460D4606E0FBF7EEF851
:1055A000691D884200DD01E00026F7E700BF002208
:1055B00040F22771224803F0FEFA03E02088FBF74F
:1055C0007CF8A41C2800A5F101018DB2F6D10122BE
:1055D00040F227711A4803F0EEFA70BD70B5044628
:1055E0000D4606E0FBF740F9691D884200DD01E049
:1055F0000026F7E700BF002240F227710E4803F0B3
:10560000DAFA03E02078FBF7FAF8641C2800A5F129
:1056100001018DB2F6D1012240F22771064803F054
:10562000CAFA70BD00080140003801403E01002068
:105630003F010020000C01400048004040010020D4
:10564000004400402DE9F04704460F4694460021EF
:105650002DE04FEA812808FB07F898FBF3F5A81224
:10566000A5EB802200F1010814F8088014F80090DE
:10567000A8EB090808FB02F84FEAA82814F800A0D4
:1056800000F1010914F80990AAEB090909FB02F9D4
:1056900008EB295814F8009008EB0906FF2E00DDEE
:1056A000FF26002E00DC00260CF80160491C994200
:1056B000CFDBBDE8F0872DE9F04F91B0FE480088C0
:1056C000322803DBFC480088B42808DDFF20FB49B2
:1056D0000870FB490870002011B0BDE8F08F4FF44E
:1056E0004071F84803F008FE002414E0F64B03EB89
:1056F0008412F14B1B88A3F10C01C4EB041303EBE0
:105700008303DFF8C8C30CEB8303181D3023FFF7B6
:1057100099FF601C04B20C2CE8DB00244CE04FF035
:10572000000944E004EB4400E74901EB801010F865
:1057300009000F9004EB4400401C01EB801010F8AE
:1057400009000E9004EB4400801C01EB801010F85F
:1057500009000D904FF4FA710F9841430E98401CC8
:1057600091FBF0F00C900C9801B24FEA490204EB67
:10577000440002EB4010D34A22F810104FF4FA71A3
:105780000D9841430E98401C91FBF0F00C900C9842
:1057900001B24FEA490204EB440002EB4010401C06
:1057A000C84A22F8101009F101000FFA80F9B9F186
:1057B000300FB7DB601C04B2042CB0DBC44805908A
:1057C000C0480690C34807904FF0450B0027B846E5
:1057D000002464E000200490814613E0069830F92C
:1057E00019000B9009FB0B41079830F911100A9131
:1057F000049ADDE90A1000FB0120049009F1010080
:105800000FFA80F9B9F5C07FE8DB049804F0C5FA17
:105810000022B14BCDE9020104F038F905460E46ED
:1058200009FB0B42079931F91210C82201FB02F063
:1058300004F0B3FA0022A84BCDE9000104F026F9E8
:105840002A463346CDE9020104F064F805460E46C7
:1058500086F000412846CDE9025103F019FFCDE959
:10586000080100209D49DDE9082304F053F80246B1
:105870000B46CDE902010020984904F007F90546DE
:105880000E462A4633463846414604F09DFA04D275
:105890002F46B046059810F804A0601C04B25C4581
:1058A00098DB50464FEAEA710AEB9171C1F3870128
:1058B000824A11704FEAEA710AEB91718910AAEBE2
:1058C00081017F4A1170002006E72DE9F04F89B071
:1058D00006460D4617469846022F03DA002009B007
:1058E000BDE8F08F002006900590002409E055F8EF
:1058F00024100698814203DD55F824000690059493
:10590000641CBC42F3DB4FF00009CDF81C90CA4682
:10591000CDF82090CB46002431E00598844200D198
:105920002CE00BF1010B56F8240004F063FE49460D
:10593000049004F0DBFC814655F8240004F05AFE84
:105940005146049004F0D2FC824656F8241001FB24
:1059500001F004F04FFE0490089904F0C7FC089091
:1059600056F8241055F8242001FB02F004F042FE02
:105970000490079904F0BAFC079000BF641CBC4275
:10598000CBDB584604F036FE0190089904F05EFE29
:1059900049460390484604F059FE0290039904F0EA
:1059A0002BFF0021049004F0D1FD01D1002096E7E7
:1059B000584604F01FFE0090089904F047FE49463F
:1059C0000290484604F042FE0190029904F014FF50
:1059D0000490584604F00EFE0090079904F036FE3D
:1059E00049460290504604F031FE0190029904F0BD
:1059F00003FF0390049904F0E7FCC8F80000584640
:105A000004F0F8FD04904846D8F8001004F01EFE9B
:105A10005146029004F0E6FE0390049904F0D4FC91
:105A20001299086001205AE72DE9FF4F009A019B67
:105A3000002499E0002591E04FEA842ADDF80890DF
:105A4000A9F101090AFB09FADDF83890A9F1010969
:105A50009AFBF9F74FEA852ADDF80490A9F10109CC
:105A60000AFB09FADDF83490A9F101099AFBF9F66D
:105A7000B012B912A6EB802CA7EB812801F1010925
:105A800009FB030912F8099001FB030A12F80AA0A6
:105A9000A9EB0A0909FB08F901FB030A0AF1010A4B
:105AA00012F80AA001FB030B12F80BB0AAEB0B0AC9
:105AB0000AFB0C9914E00000260100204A01002096
:105AC0004B010020E8B30020E8B00020099F00202F
:105AD0004E01002060CC0308006AF8400000F03F4F
