:020000040801F1
:1000000000F70020C9AA01089D4F01089F4F010871
:10001000A34F0108A74F0108AB4F010800000000E3
:10002000000000000000000000000000AF4F0108C9
:10003000B14F010800000000B34F0108B54F01089F
:10004000E3AA0108E3AA0108E3AA0108E3AA010858
:10005000E3AA0108E3AA0108E3AA0108E3AA010848
:10006000E3AA0108E3AA0108E3AA0108035E010864
:10007000E3AA0108E3AA0108E3AA0108E3AA010828
:10008000E3AA0108E3AA0108FF660108E3AA010840
:10009000E3AA0108E3AA0108E3AA01087D620108B6
:1000A000E3AA0108E3AA0108E3AA0108E3AA0108F8
:1000B000FD600108E3AA010855520108E3AA0108FE
:1000C000E3AA0108E3AA0108E3AA0108E3AA0108D8
:1000D000E3AA0108B1510108E3AA0108035201088B
:1000E000E3AA0108E3AA0108E3AA0108000000004E
:1000F0000000000000000000000000000000000000
:100100000000000000000000E3AA0108E3AA0108C3
:10011000E3AA0108E3AA0108377C0108E3AA010861
:10012000E3AA0108E3AA0108E3AA0108E3AA010877
:10013000E3AA0108E3AA0108E3AA0108E3AA010867
:10014000E3AA0108E3AA0108E3AA0108E3AA010857
:1001500000F002F800F062F80AA090E8000C824477
:100160008344AAF10107DA4501D100F057F8AFF254
:10017000090EBAE80F0013F0010F18BFFB1A43F085
:100180000103184750D2020070D202000A444FF017
:10019000000C10F8013B13F0070408BF10F8014BE6
:1001A0001D1108BF10F8015B641E05D010F8016B2B
:1001B000641E01F8016BF9D113F0080F1EBF10F88F
:1001C000014BAD1C0C1B09D16D1E58BF01F801CBB2
:1001D000FAD505E014F8016B01F8016B6D1EF9D535
:1001E0009142D6D37047000000230024002500264A
:1001F000103A28BF78C1FBD8520728BF30C148BF8A
:100200000B60704764290AF0F18473290AF075863F
:10021000002070471FB51FBD10B510BD0AF0ACFE21
:100220001146FFF7F7FF04F044F90AF0CAFE03B4E1
:10023000FFF7F2FF03BC0AF0CBFE0000EFF30980EA
:10024000704780F309887047EFF30880704780F3A8
:100250000888704740BA7047C0BA704730B51E4929
:10026000B1F1807F00D31DE021F07F40401E4FF0B0
:10027000E022506150170F22002807DA13071D0EE5
:10028000164B00F00F04241F1D5503E013071C0E2E
:10029000134B1C5400BF00204FF0E0229061072058
:1002A000106100BF30BD014642F2887201FB02F0CE
:1002B00000E0401E0028FCD1704700EB400202EB3A
:1002C000C00100E0491E0029FCD17047014600E052
:1002D000491E0029FCD170474019010018ED00E0CB
:1002E00000E400E040F2E730FE490880084600885C
:1002F000FD4908800020FD490880704740F2E73042
:10030000FB49088008460088FA49088070470920A0
:10031000F949088008460088F84908800020F84913
:100320000880704740F2E730F649088008460088A8
:10033000F54908800020F5490880704740F2E73011
:10034000F349088008460088F2490880704700B5E4
:1003500000222FE0F04850F82200F04901EB021192
:100360000860EF4830F81200EC4901EB0211888078
:10037000EA4800EB02108088401EE84901EB0211B8
:10038000C880E64800EB02108088401EE34901EB7C
:10039000021108810020E14901EB02114881DF4888
:1003A00000EB02108088401EDC4901EB02118881BD
:1003B000501CC2B20A2ACDDBFFF7C0FFFFF7B2FF25
:1003C000FFF7A5FFFFF79AFFFFF78CFF00BD30B5E1
:1003D000D24B03EB00135B89D04C04EB0014A488D0
:1003E000A34223DACD4B03EB00131B895B1CCB4CE0
:1003F00004EB0014A48893FBF4F504FB1533C74CFD
:1004000004EB00142381C54B03EB00131B68C34CA2
:1004100004EB001424891A191170C04B03EB00136C
:100420005B895B1CBD4C04EB0014638130BD10B5CF
:100430000146BA4800EB01104089002824DDB74886
:1004400000EB0110C088401CB44B03EB01139B88E8
:1004500090FBF3F403FB1400B04B03EB0113D880C3
:10046000AE4800EB01104089401EAC4B03EB01137A
:100470005881AA4800EB01100068A84B03EB011358
:10048000DB88C218107810BD0020FCE710B50146CB
:10049000A24800EB0110408900281BDD9F4800EBBB
:1004A00001108089401C9D4B03EB01139B8890FB3E
:1004B000F3F403FB1400994B03EB01139881974865
:1004C00000EB01100068954B03EB01139B89C218E8
:1004D000107810BD0020FCE7904901EB00118988DD
:1004E000491E8E4A02EB0012D1808C4901EB0011AB
:1004F0008988491E894A02EB001211810021874A2E
:1005000002EB0012518170470146844800EB011054
:10051000408970470146814800EB011080887F4A7E
:1005200002EB01125289801A80B270477948028822
:10053000774801888A4202DB501A80B2704702F580
:100540007A70401A80B2F9E700B50346FFF7EEFF74
:10055000B0F57A7F0DDA6F480088401C4FF47A714D
:1005600090FBF1F201FB12006A4908806D4809888E
:10057000435400BD674800886549098888420ED009
:1005800063480088401C4FF47A7190FBF1F201FB44
:1005900012005F49088063480988405C7047FF206B
:1005A000FCE700B5FFF7C2FFC0F57A7080B200BD6E
:1005B00056490988B1F57A7F13DA53490988491CED
:1005C0004FF47A7291FBF2F302FB13114E4A118041
:1005D0004E490988491C4D4A118053494A4A12889C
:1005E0008854704749480088002814DD4548008831
:1005F000401C4FF47A7190FBF1F201FB120041496B
:10060000088042480088401E4049088046483D49CD
:100610000988405C70470020FCE73C480088C0F532
:100620007A7080B2704741480288414801888A4206
:1006300002DB501A80B2704702F10A00401A80B201
:10064000F9E709203A4908800846008837490880B8
:10065000704700B50346FFF7E6FF0A280DDA334876
:100660000088401C0A2190FBF1F201FB12002F4987
:1006700008803048098820F8113000BD2B480088D8
:100680002B49098888420ED029480088401C0A213D
:1006900090FBF1F201FB12002549088025480988EA
:1006A00030F8110070474FF6FF70FBE700B5FFF719
:1006B000BAFFC0F10A0080B200BD114909880A29B9
:1006C00040DA0E490988491C0A2291FBF2F302FB29
:1006D00013110A4A11800A490988491C084A1180E5
:1006E00015492BE01A0000201C00002018000020F3
:1006F000140000201600002010000020120000202E
:100700000E00002006000020080000200400002049
:1007100000000020020000202CC40108DC12002090
:1007200018C40108B0020020980600200C00002028
:100730000A000020800A0020940A00204D4A1288F6
:1007400021F8120070474C480088002814DD4B48FF
:100750000088401C0A2190FBF1F201FB120047497E
:10076000088045480088401E434908804448434962
:10077000098830F8110070470020FCE73E480088E7
:10078000C0F10A0080B270473E4802883E480188A6
:100790008A4202DB501A80B2704702F57A70401A22
:1007A00080B2F9E737490988491C4FF47A7291FB06
:1007B000F2F302FB1311334A118034491288885432
:1007C0007047304800883049098888420ED02E484A
:1007D0000088401C4FF47A7190FBF1F201FB12008B
:1007E0002949088029480988405C7047FF20FCE7B8
:1007F00000B5FFF7C9FFC0F57A7080B200BD24498B
:100800000988B1F57A7F13DA22490988491C4FF427
:100810007A7291FBF2F302FB13111E4A11801C49FC
:100820000988491C1A4A11801B491A4A128888549F
:10083000704717480088002814DD18480088401CBD
:100840004FF47A7190FBF1F201FB1200134908801A
:100850000F480088401E0E4908800F480F4909883C
:10086000405C70470020FCE709480088C0F57A70BA
:1008700080B27047120000200E00002010000020FF
:10088000940A00201600002014000020A80A00206E
:10089000180000201C000020900E00201A000020EC
:1008A0007047374A3748002105E013680360121D7E
:1008B000001D4B1C99B25929F7D370472DE9F0411F
:1008C00007F02FFE352008F05EFA052726E02C48B9
:1008D00007F0ADFE2A4D2B4E002407E02846316874
:1008E00007F0D3FF2D1D361D601C84B2592CF5D3A3
:1008F0004FF00108224D234E002409E0286831689A
:10090000884201D04FF000082D1D361D601C84B2B6
:10091000592CF3D3B8F1000F00D004E03800A7F150
:100920000101CFB2D3D100BFBDE8F08108B51649AF
:100930006A4608681060009808BDF1B507F0F1FD3F
:10094000352008F020FA052612E00F4807F06FFE68
:100950000D4C6D462046296807F097FF012700BF20
:1009600000BF20682968884200D0002707B104E052
:100970003000A6F10101CEB2E7D100BFF8BD000002
:1009800000F80F087C13002000F8000870B588B04C
:10099000202168460AF0F4F9C6208DF800000E20E8
:1009A0008DF8010055208DF810000026FE480088C3
:1009B000864201DAFC480688FC480088864201DA53
:1009C000FA480688002540E0F7480088854211DA99
:1009D00000240CE004EB4400C0EBC410F44901EB2C
:1009E0000010415DA01C0DF80010601CC4B2022C68
:1009F000F0DB04E00020CDF80200ADF80600EB4883
:100A00000088854212DA00240DE0C4EB041000EBEC
:100A10008000E84901EBC00010F81510201D0DF80A
:100A20000010601CC4B20C2CEFDB03E0002101912C
:100A3000029103911121684606F068F900BFDE4873
:100A400000880028FBDC681C85B2B542BCDBDB48B3
:100A5000008800128DF80200D84800788DF8030055
:100A6000D248008800128DF80400D04800788DF834
:100A7000050000208DF806008DF807008DF80800AD
:100A80008DF809008DF80A001121684606F03EF93C
:100A900000208DF802008DF803008DF804008DF819
:100AA00005008DF806008DF807008DF808008DF818
:100AB00009008DF80A001121684606F027F9002088
:100AC0008DF802008DF803008DF804008DF8050004
:100AD0008DF806008DF807008DF808008DF80900E4
:100AE0008DF80A001121684606F010F900208DF8F3
:100AF00002008DF803008DF804008DF805008DF8D4
:100B000006008DF807008DF808008DF809008DF8B3
:100B10000A001121684606F0F9F800208DF802005D
:100B20008DF803008DF804008DF805008DF806009F
:100B30008DF807008DF808008DF809008DF80A007F
:100B40001121684606F0E2F8002514E0002405E0D3
:100B5000FF21A01C0DF80010601CC4B20E2CF7DBA6
:100B60001121684606F0D2F800BF9348008800289B
:100B7000FBDC681C85B2062DE8DB08B070BD70B5E3
:100B80008EB0C7208DF804002C208DF8050055206C
:100B90008DF832002C210DF106000AF0CFF8002468
:100BA00011E087480088C0F30720022101EB4401CF
:100BB00001AA505482480178022000EB4400401CF6
:100BC0001154601CC4B2162CEBDB2F2101A806F0D7
:100BD0009DF800BF784800880028FBDC2C210DF12F
:100BE00006000AF0ABF800252BE000241CE0C4EB63
:100BF0004410C0EB0420734901EB8000405D0012FB
:100C0000022101EB440101AA5054C4EB4410C0EB93
:100C100004206C4901EB8000415D022000EB4400A0
:100C2000401C1154601CC4B2162CE0DB2F2101A81B
:100C300006F06CF800BF604800880028FBDC681CE8
:100C400085B25F4800688542CFD32C210DF10600A4
:100C50000AF074F8002659480088544909888842E7
:100C600002DD5648008801E0504800880646564894
:100C70000088864201DD304601E053480088064680
:100C8000002436E0022C0FDA4C48008800120221C2
:100C900001EB440101AA505448480178022000EBBE
:100CA0004400401C115422E0032C0FDA464800880F
:100CB0000012022101EB440101AA5054424801787C
:100CC000022000EB4400401C115410E00F2C0EDAFF
:100CD000364800880012022101EB440101AA505459
:100CE00032480178022000EB4400401C1154601C83
:100CF000C4B2162CC6DB2F2101A806F007F8002588
:100D00007EE02C210DF106000AF018F800246AE0BC
:100D1000022C16DA29480088854262DA0020022176
:100D200001EB440101AA505440F2A9106043274945
:100D300001EB4000415D022000EB4400401C1154D7
:100D40004FE0032C11DA20480088854249DA002060
:100D5000022101EB440101AA50541D48415D0220CB
:100D600000EB4400401C11543BE00F2C39DA0F48D3
:100D70000088854235DAE01EC0EB001000EB8000F1
:100D80000C4901EBC00030F815000012022101EB04
:100D9000440101AA5054E01EC0EB001000EB80009B
:100DA000044901EBC00015E0CC000020CE0000207B
:100DB0000C4B0020B6B3002004000020C800002027
:100DC000B4000020205C0020C60000208DA9002077
:100DD00031B0002010F81510022000EB4400401C38
:100DE0001154601CC4B2162C92DB2F2101A805F00F
:100DF0008DFF00BFF74800880028FBDC681C85B227
:100E0000B542FFF67EAF002514E0002405E0FF2187
:100E1000A01C01AA1154601CC4B22C2CF7DB2F219A
:100E200001A805F073FF00BFEA4800880028FBDC3A
:100E3000681C85B2062DE8DB0EB070BD30B589B0F8
:100E4000C6208DF8040019208DF8050055208DF876
:100E50001F000025F3E0EDB9DF48008800128DF88F
:100E60000600DD48008800128DF80700002408E025
:100E7000DA480088C0F30721201D01AA1154601C24
:100E8000C4B2162CF4DBD64800880112201D01AA3A
:100E90001154C9E0012D19D1CF4800788DF8060012
:100EA000CD4800788DF80700002406E0CB48017893
:100EB000201D01AA1154601CC4B2162CF6DBC848D0
:100EC00000880112201D01AA1154ADE0C24800881B
:100ED000801C854211DA00240CE040F2A910604326
:100EE000C04901EB4001A81E095CA01C01AA1154D5
:100EF000601CC4B2022CF0DB09E0002405E00021F4
:100F0000A01C01AA1154601CC4B2022CF7DBB44827
:100F10000088801C854205DAA81EB349085C8DF85C
:100F20001E0002E000208DF81E00B5F5167F22DCC1
:100F3000AA480068801C854212D200240DE0C4EB50
:100F40004410C0EB0420A94901EB8001A81E095CF4
:100F5000201D01AA1154601CC4B2162CEFDB63E003
:100F6000002405E00021201D01AA1154601CC4B218
:100F7000162CF7DB58E040F25920854213D10024AB
:100F80000EE00C2C06DA9A4800880112201D01AAF6
:100F9000115403E00021201D01AA1154601CC4B2A9
:100FA000162CEEDB40E040F25A20854212D100249C
:100FB0000DE00C2C05DA8E480178201D01AA115491
:100FC00003E00021201D01AA1154601CC4B2162C9C
:100FD000EFDB29E000241BE0A5F5167084490988A1
:100FE000891C88420EDAC4EB041000EB80008149B2
:100FF00001EBC001A5F25A2011F81010201D01AA22
:10100000115403E00021201D01AA1154601CC4B238
:101010000C2CE1DB0C2405E00021201D01AA115459
:10102000601CC4B2162CF7DB1C2101A805F06EFE73
:1010300000BF684800880028FBDC681C85B2B5F555
:10104000617FFFF608AF002514E0002405E0FF21D2
:10105000A01C01AA1154601CC4B2192CF7DB1C217E
:1010600001A805F053FE00BF634800880028FBDCA0
:10107000681C85B2062DE8DB09B030BD7CB50020C8
:1010800000900190C6208DF8000004208DF801002A
:1010900055208DF80600594800685949098888424A
:1010A00002D95648006801E05548008885B2554885
:1010B0000088A84202DD5348008800E02846054623
:1010C000002434E04D480068844204D84E48005D56
:1010D0008DF8020002E000208DF8020048480088E8
:1010E000844204DC4948005D8DF8030002E00020E2
:1010F0008DF8030043480088844208DC4448005DC2
:101100008DF804004348005D8DF8050004E00020E0
:101110008DF804008DF805000721684605F0F6FDFE
:1011200000BF354800880028FBDC601C84B2AC425C
:10113000C8DB002413E0FF208DF802008DF80300C7
:101140008DF804008DF805000721684605F0DEFDE6
:1011500000BF294800880028FBDC601C84B2062CF4
:10116000E9DB7CBD00B585B030208DF8000004209F
:101170008DF80100284800788DF802002648407854
:101180008DF80300244880788DF804002248C07848
:101190008DF8050055208DF806000721684605F0FA
:1011A000B5FD05B000BD10B540211C4807F001FF9A
:1011B00008B9202010BD8021184807F0FAFE08B9B0
:1011C0002120F7E74FF48071144807F0F2FE38BB96
:1011D0002220EFE704000020C8000020B400002017
:1011E000C60000208DA9002031B00020205C002026
:1011F000CE000020B6B3002018000020840000209C
:101200007E00002004010020174600202F4200200D
:1012100077360020533C00208E150020001001403E
:10122000FFE7FF20C6E770B5002006F028FB4FF669
:10123000FF7006F027FB182006F01EFBFA48007826
:1012400005283ED2DFE800F003101D293500B42444
:101250003225F64991F82011F54A52F821002A4624
:10126000214606F012FB2DE0B4245025EF4991F8F9
:101270002111F04A52F821002A46214606F005FBCA
:1012800020E0B4246E25EA49EB4A127851F8220096
:101290002A46214606F0F9FA14E0B4248C25E449E4
:1012A000E64A127851F822002A46214606F0EDFA65
:1012B00008E0B424AA252A462146E1A006F0E5FA72
:1012C00000E000BF00BFE0480078D74909788842B5
:1012D00000D170BD4FF6FF7006F0D1FA002006F085
:1012E000D1FAD948007805283ED2DFE800F0031093
:1012F0001D293500B4243225CC4991F82011CC4A5F
:1013000052F821002A46214606F0BFFA2DE0B42407
:101310005025C64991F82111C64A52F821002A46A3
:10132000214606F0B2FA20E0B4246E25C049C24A34
:10133000127851F822002A46214606F0A6FA14E057
:10134000B4248C25BA49BD4A127851F822002A46A5
:10135000214606F09AFA08E0B424AA252A46214636
:10136000B7A006F092FA00E000BF00BF00BFB0E7F0
:1013700010B5AD480078052862D2DFE800F0031808
:101380002D3C4B00A94890F82001401CA74981F84A
:10139000200191F8200100EBD0714910A0EB410130
:1013A000A24A82F820110120A849087049E09F480C
:1013B00090F82101401C9D4981F8210191F82101FB
:1013C00000EBD0714910A0EB4101984A82F821113D
:1013D00001209E49087034E09748007828B9012020
:1013E0009549087005F04AFA04E000209249087017
:1013F00005F0CAF925E09148007828B901208F4905
:10140000087005F047FA04E000208C49087005F0E8
:10141000BBF916E041F22710FFF78FFA6420FEF7C0
:1014200042FF00BF8A48006800F4E0608949084331
:10143000001D87490860BFF3408F00BF00BFFEE773
:1014400000BF00BF10BD30B503463025541E0D55FA
:1014500000248C5410460FE00A2493FBF4F504FB9F
:1014600015343034E5B2441E0D55E0B200B905E044
:101470000A2493FBF4F4A3B2002BEDDC00BF9042EE
:1014800001D1441EE0B203E02025441E0D55E0B218
:101490000028F9DC30BD10B56F480078002819DD50
:1014A000182006F0E9F9002006F0ECF94FF4784036
:1014B00006F0E5F969486AA1096801600222011D88
:1014C00065480078FFF7BFFFD4220021634806F08B
:1014D000DCF914E0182006F0CFF9002006F0D2F96C
:1014E000002006F0CCF95D485FA10A6802608A8896
:1014F000828089798171D422002106F0C6F910BD5D
:101500002DE9F04100255A480078022803D05848B8
:10151000007801287ED1002481E0564830F814601C
:10152000BEBB554B9A6A012303EB44039B1CDFF8B7
:101530004CC13CF81310022303EB44033CF8133076
:10154000183B98B206F058FA4B4B9A6A012303EB0A
:1015500044039B1CDFF824C13CF81310022303EB67
:1015600044033CF813300C3B98B206F045FA424B6A
:101570001A68012303EB44039B1CDFF800C13CF80D
:101580001310022303EB44033CF8130006F034FA73
:1015900043E0FFE700253CE00EB30A20B6FBF0F184
:1015A00000FB1167022303EB4403DFF8D0C03CF8D3
:1015B00013304FF00C0C0CFB153398B22E4B53F834
:1015C0002720012303EB44039B1CDFF8B0C03CF849
:1015D000131006F011FA0A20B6FBF0F617E002230A
:1015E00003EB4403DFF894C03CF813304FF00C0CCD
:1015F0000CFB153398B2204B9A6A012303EB44038A
:101600009B1CDFF878C03CF8131006F0F5F9681C55
:10161000C5B200E034E0032DBEDB601CC4B2072C71
:10162000FFF67BAFC9E10000DB0000207C13002047
:10163000DCC40108E4C40108DE000020DF00002053
:10164000656E746572000000DC000020DD00002083
:101650000CED00E00000FA05D3000020745B0020D0
:101660004A414D3A000000004A414D3A38380000E6
:1016700001010020EC5B00206C010020980100209B
:10168000F748007815287CD100241AE1F54830F895
:101690001460002E76D1032C49DBF34B9A6A631C4D
:1016A0004FF0010C0CEB43039B1CDFF8C0C33CF86C
:1016B0001310631C4FF0020C0CEB4303DFF8ACC3B8
:1016C0003CF81330183B98B206F096F9E64B9A6A4C
:1016D000631C4FF0010C0CEB43039B1CDFF88CC325
:1016E0003CF81310631C4FF0020C0CEB4303DFF8C3
:1016F0007CC33CF813300C3B98B206F07DF9DA4B12
:101700001A68631C4FF0010C0CEB43039B1CDFF8C1
:101710005CC33CF81310631C4FF0020C0CEB43034A
:10172000DFF848C33CF8130006F066F9C7E0CE4B7B
:101730009A6A012303EB44039B1CDFF830C33CF897
:101740001310022303EB44033CF81330183B98B208
:1017500006F052F9C44B9A6A012303EB44039B1C25
:10176000DFF808C33CF81310022303EB44033CF8F2
:1017700013300C3B98B206F03FF9BB4B1A680123BB
:1017800001E0A2E00EE003EB44039B1CDFF8DCC2A7
:101790003CF81310022303EB44033CF8130006F05B
:1017A0002BF98CE0032C49DB002544E02EB30A2002
:1017B000B6FBF0F100FB1167631C4FF0020C0CEB61
:1017C0004303DFF8A8C23CF813304FF00C0C0CFBBD
:1017D000153398B2A44B53F82720631C4FF0010C2B
:1017E0000CEB43039B1CDFF884C23CF8131006F09B
:1017F00003F90A20B6FBF0F61BE0631C4FF0020C65
:101800000CEB4303DFF864C23CF813304FF00C0CD0
:101810000CFB153398B2944B9A6A631C4FF0010C81
:101820000CEB43039B1CDFF844C23CF8131006F09A
:10183000E3F8681CC5B2032DB8DB40E000253CE0AE
:101840000EB30A20B6FBF0F100FB1167022303EB95
:101850004403DFF818C23CF813304FF00C0C0CFBBB
:10186000153398B2804B53F82720012303EB440330
:101870009B1CDFF8F8C13CF8131006F0BDF80A20F5
:10188000B6FBF0F617E0022303EB4403DFF8DCC1FC
:101890003CF813304FF00C0C0CFB153398B2724B24
:1018A0009A6A012303EB44039B1CDFF8C0C13CF898
:1018B000131006F0A1F8681CC5B2032DC0DB601C34
:1018C000C4B2062CFFF6E2AE77E0654800780B283C
:1018D00073D100246FE0634830F8146076BB624B2C
:1018E0009A6A012303EB4403DFF880C13CF813102C
:1018F00063003CF81330183B98B206F07DF85A4B61
:101900009A6A012303EB4403DFF860C13CF813102B
:1019100063003CF813300C3B98B206F06DF8524B64
:101920001A68012303EB4403DFF840C13CF81310AD
:1019300063003CF8130006F05FF83AE0002536E05B
:10194000F6B10A20B6FBF0F100FB11676300DFF887
:101950001CC13CF813304FF00C0C0CFB153398B243
:10196000414B53F82720012303EB4403DFF8FCC06D
:101970003CF8131006F040F80A20B6FBF0F614E02D
:101980006300DFF8E8C03CF813304FF00C0C0CFBA0
:10199000153398B2344B9A6A012303EB4403DFF802
:1019A000CCC03CF8131006F027F8681CC5B2032D14
:1019B000C6DB601CC4B2082C8DDBBDE8F08170B5BD
:1019C0002B48007810B92B48056801E02A480588A3
:1019D000002429E095B10A20B5FBF0F100FB115677
:1019E000264951F826206101C1F58D7188B2B421D4
:1019F00006F002F80A20B5FBF0F513E04CB91F49D8
:101A00000A686101C1F58D7188B2B42105F0F4FF57
:101A100008E01A498A6A6101C1F58D7188B2B42162
:101A200005F0EAFF601CC4B2072CD3DB70BD70B5B3
:101A300013480468006890B912486421826A6E20D5
:101A400005F0DAFF0F486421826A9E2005F0D4FF7A
:101A50000C4864210268CE2005F0CEFF33E013E08D
:101A600001010020EC5B00206C01002098010020A7
:101A7000750000200C010020100100204001002012
:101A80000801002014010020B4F57A7F01D340F250
:101A9000E734002515E00A20B4FBF0F100FB114605
:101AA000FE4951F8262005EB45010901C1F1CE019F
:101AB00088B2642105F0A0FF681CC5B20A20B4FBFF
:101AC000F0F4002CE7D170BD10B5F548007840B9AE
:101AD000F448007828B9FFF7AAFFFFF770FFFFF777
:101AE0000FFD10BD10B5F048007828B9EF4AA521C8
:101AF000002005F081FF04E0ED4AA521002005F05B
:101B00007BFFEC4890F82001012806D1EA4A6421C5
:101B10004FF48C7005F070FF05E0E84A64214FF443
:101B20008C7005F069FF10BD10B5E54A002108462C
:101B300005F062FFE348007803280FD1E24A5A21FA
:101B4000282005F059FFE14A7321282005F054FFB1
:101B5000DF4A8C21282005F04FFF1BE0D948007890
:101B600028B9D94A5A21282005F046FF12E0D54865
:101B70000078012805D1D54A7321282005F03CFFC3
:101B800008E0D0480078022804D1D14A8C212820CE
:101B900005F032FFCF48007801280AD1CE4A002153
:101BA000084605F029FFCD4A0021522005F024FF08
:101BB0002BE0C848007802280AD1C94A002108460B
:101BC00005F01AFFC74A0021522005F015FF1CE05E
:101BD000C04800780B280AD1C34A0021084605F006
:101BE0000BFFC24A0021522005F006FF0DE0B94864
:101BF0000078152809D1BE4A0021084605F0FCFEF0
:101C0000BC4A0021522005F0F7FEBB4A8C214FF45C
:101C1000877005F0F1FE10BD10B5FFF785FFFFF7E7
:101C200061FFFFF751FFFFF736FC10BD10B5002034
:101C3000B2490860B2490880B24908601821B24828
:101C400009F07CF810BD96490870704710B504463D
:101C5000202C17D0212C1AD0222C02D0412C2CD190
:101C60002AE0AA480078012804D10020A74908707A
:101C7000FEF724FE0020FFF7E6FFFFF7D7FFFFF790
:101C8000CBFF1AE0FFF774FBFFF7CDFA15E0A04891
:101C90000078A04908709E480078401C9C49087054
:101CA00008460078052190FBF1F201FB12009849EB
:101CB0000870FFF7B8FA00E000BF00BF10BD70B5B4
:101CC0004FF6FF7005F0DBFD002005F0DBFD18206E
:101CD00005F0D2FDB4243225764991F820118E4AC0
:101CE00052F821002A46214605F0CFFD00BF5025BD
:101CF000704991F82111894A52F821002A4621465B
:101D000005F0C3FD00BF6E258349854A127851F85E
:101D100022002A46214605F0B8FD00BF8C257E49E9
:101D2000804A127851F822002A46214605F0ADFD7E
:101D300000BFAA252A462146AFF2FC6005F0A5FDAA
:101D400070BD10B5002005F087FD4FF6FF7005F05F
:101D500096FD002005F096FD182005F08DFD00226F
:101D6000642171A005F091FD182005F085FD322257
:101D7000002170A005F089FD5022002171A005F01E
:101D800084FD6E22002173A005F07FFD8C220021CE
:101D900074A005F07AFDAA22002176A005F075FD59
:101DA000D822002177A005F070FDFFF788FFFFF72C
:101DB0003AFA10BD10B504463A480078012809D116
:101DC000222C05D1002037490870FFF725FF00E0DD
:101DD00000BF61E1334800780028FAD1222C0AD0F4
:101DE00004DC202C22D0212C14D1EBE0412C53D048
:101DF000422CF9D10FE00020FFF725FF01206349B5
:101E0000087000206249088062490870FFF70EFFE1
:101E1000FFF75AFE3FE10F20FFF715FFFFF791FF95
:101E200000203B4908703B49087034E1294800789C
:101E300001280DD1022027490870294A00210846AF
:101E400005F0DAFD274A0021522005F0D5FDB4E067
:101E50002048007802280DD10B201E490870224A24
:101E60000021084605F0C8FD204A0021522005F057
:101E7000C3FDA2E0174800780B280ED115201549A4
:101E800008701B4A0021084605F0B6FD194A0021DA
:101E9000522005F0B1FD90E0EFE07DE0140100205C
:101EA0001E00002002010020750000207067020063
:101EB000807802007C130020D028070088200700CB
:101EC00070431C00D9000020E0970200E0C402002B
:101ED000089F02000101002028840C00404B1A00DA
:101EE000F04609005072100008A70B0000AB170065
:101EF00098150C0020FB1800B0070700080100200F
:101F0000100100200C010020EC5B0020DD0000200F
:101F1000DB000020DC000020DCC40108E4C4010870
:101F2000DE000020DF0000205365747570204D65D1
:101F30006E75000042656570202020202020202042
:101F4000203A00004E6F74654C6561766520202054
:101F5000203A00004D6F746F72466F727761726441
:101F6000203A00004D6F746F724261636B7761724B
:101F7000643A00005570677261646520202020205B
:101F8000203A000056322E37000000009700002053
:101F9000E0000020D3000020FE48007815280CD176
:101FA0000120FC490870FC4A0021084605F024FD88
:101FB000FA4A0021522005F01FFDFFF737FEFFF718
:101FC00083FD68E0F6480078022812D1F54A5A21CC
:101FD000282005F011FDF44A7321282005F00CFD9E
:101FE000F24A8C21282005F007FD0320EC490870F7
:101FF00042E0EB480078032812D1EA4A5A2128200F
:1020000005F0FAFCEA4A7321282005F0F5FCE84ABD
:102010008C21282005F0F0FC0020E14908702BE01D
:10202000DF48007890B9E24A5A21282005F0E4FC04
:10203000DD4A7321282005F0DFFCDD4A8C212820B1
:1020400005F0DAFC0120D649087015E0D448007884
:10205000012811D1D64A5A21282005F0CDFCD44AB6
:102060007321282005F0C8FCD04A8C21282005F0D7
:10207000C3FC0220CA4908700DE0CE48007818B9A8
:102080000120CC49087002E00020CA4908700120F4
:10209000C949087000BF00BF10BD10B50020FEF791
:1020A00033FA002812DD0020FEF7C1F90446C348C8
:1020B000007810B10F2808D103E02046FFF77AFE20
:1020C00003E02046FFF7C2FD00BF00BF10BD7CB596
:1020D00006460C46BA48007800B17CBD304608F090
:1020E000C1FD85B22946304604F010FE002C09DD02
:1020F0000D208DF800000A208DF8010002216846AD
:1021000004F004FE00BFE8E730B504460D460322A4
:1021100029462046FFF797F930BDAA4991F82011CA
:10212000012904D1A84908701421A84A11707047E8
:1021300010B50246C31700EB13731B11A44CE35CEC
:102140000B70C31700EB13731B11A0EB0313E35CBD
:102150004B7000228A7010BD70B500249D48204449
:102160009DA10A68026009790171641D002510E0D3
:102170009B48465D974801193046FFF7D9FFA01CE0
:10218000C4B220222046611CCCB292490A54681C79
:10219000C5B2162DECDB00222046611CCCB28D4965
:1021A0000A5401218B48FFF792FF002489482044FC
:1021B0008CA10A68026089888180A41D8B480678FA
:1021C000844801193046FFF79FFFE41C2022214676
:1021D000641C8048425400222146641C4254002161
:1021E000FFF775FF00247B48204481A10A68026044
:1021F00089888180A41D7D4846787648011930463B
:10220000FFF782FFE41C20222146641C71484254DF
:1022100000222146641C42540021FFF758FF00248D
:102220006C48204474A10A68026089888180A41DDA
:1022300073480678674801193046FFF765FFE41CCC
:1022400020222146641C634842546D484678614808
:1022500001193046FFF758FFE41C20222146641C78
:102260005C484254664886785A4801193046FFF760
:102270004BFFE01CC4B220222046611CCCB2554961
:102280000A5400222046611CCCB252490A54002153
:102290005048FFF71CFF00244E48204459A10A680B
:1022A000026089888180A41D5548C6784948011973
:1022B0003046FFF729FFE41C20222146641C4548D4
:1022C00042544F480679434801193046FFF71CFF36
:1022D000E41C20222146641C3E484254484846796A
:1022E0003C4801193046FFF70FFFE01CC4B2202222
:1022F0002046611CCCB237490A5400222046611C9A
:10230000CCB234490A5400213248FFF7E0FE0024E1
:10231000304820443DA10A68026089888180A41D5C
:10232000374886792B4801193046FFF7EDFEE41C4B
:1023300020222146641C274842543148C67925484A
:1023400001193046FFF7E0FEE41C20222146641C00
:10235000204842542A48067A1E4801193046FFF7A1
:10236000D3FEE01CC4B220222046611CCCB2194925
:102370000A5400222046611CCCB216490A5400219E
:102380001448FFF7A4FE00241248204421A10A6843
:10239000026043E00101002028840C00404B1A0039
:1023A000D9000020E0970200E0C40200089F02006C
:1023B0008078020075000020760000201E000020BA
:1023C000600000207C130020AA000020AB00002049
:1023D000ECC40108745B0020B2E2B3A43A00000030
:1023E0008E150020B4C5D0D4313A00002B00002057
:1023F000B4C5D0D4323A0000D1D5C9AB313A2000AF
:10240000A3150020D1D5C9AB323A2000D1D5C9AB34
:10241000333A2000D1D5C9AB343A20008988818075
:10242000A41DFA48467AFA4801193046FFF76CFEB7
:10243000E01CC4B220222046611CCCB2F4490A54EC
:10244000F248867A084601193046FFF75DFEE01C27
:10245000C4B220222046611CCCB2ED490A54EB489C
:10246000C67A084601193046FFF74EFEE01CC4B29A
:1024700020222046611CCCB2E5490A5400222046A5
:10248000611CCCB2E2490A540121E148FFF71FFE6A
:102490000024DF482044DFA10A6802604A684260E5
:1024A000098901810A34DE480678D9480119304685
:1024B000FFF72AFEE41C20222146641CD448425423
:1024C00000222146641C42540021FFF700FE002434
:1024D000CF482044D3A10A68026009790171641DC4
:1024E000D2480678CA4801193046FFF70DFEE41CB1
:1024F00020222146641CC648425400222146641C06
:1025000042540021FFF7E3FD0024C1482044C8A144
:102510000A68026009790171641DC7480678BC48E1
:1025200001193046FFF7F0FDE41C20222146641C0F
:10253000B748425400222146641C42540121FFF74F
:10254000C6FD0024B2482044BCA10A8802808978D4
:102550008170E41CBA480678AD4801193046FFF78F
:10256000D3FDE41C20222146641CA94842540022C9
:102570002146641C42540121FFF7A9FD0024A44810
:102580002044B0A10A88028089788170E41CA04AA6
:102590001119AD4A1078FFF7B7FDE41C202221463F
:1025A000641C9B48425400222146641C4254002172
:1025B000FFF78DFD0024964A1119A34A5078FFF7C2
:1025C000A3FDE41C20222146641C914842540022B1
:1025D0002146641C42540121FFF779FD00248C48F8
:1025E00020449AA109680160241D4021994806F001
:1025F000E0FC0646864801193046FFF785FDE41CDD
:1026000020222146641C8248425400222146641C38
:1026100042540021FFF75BFD002480218D4806F025
:10262000C8FC06467A4801193046FFF76DFDE41CE8
:1026300020222046611CCCB275490A540022204653
:10264000611CCCB272490A5400217148FFF73FFD6A
:1026500000244FF480717F4806F0ABFC06466C48BE
:1026600001193046FFF750FDE41C20222146641C6E
:102670006748425400222146641C42540121FFF75E
:1026800026FD01217448FFF722FD70BD70B5734827
:102690000078012805D1FEF777F818B900206F49B6
:1026A0000870CBE2FEF78DF805466D4800780028EB
:1026B000F7D1A72D7ED01CDCA02D61D010DC622DBF
:1026C00029D006DC422D22D0482D54D0612D72D164
:1026D00029E0652D2AD0672D4FD0682DF7D14BE02A
:1026E000A5F1A100062866D2DFE800F04D767F88CC
:1026F000F5F4A5F1A8000F28F5D2DFE800F0F9F80D
:10270000F7F6F5F4F35C5CF2F1F0EFEEED0000208B
:102710005449087091E20120524908700020524942
:1027200081F8210189E2FEF72AFA86E200204F496A
:1027300008704FF400714E4806F055FC01203849EE
:1027400008706420FDF7AFFD00204A4908704A492F
:1027500008804A4908804A4908604A49088001209F
:102760004949087049490870494908704FF4167082
:102770004849088061E260E25FE2FEF77FFC5CE2CC
:10278000FFF7EAFC59E244480078A8B90320FFF7B4
:102790005AFA03F0F9FF2021404806F026FC0120F8
:1027A0003F49087000203149087001213DA0FFF722
:1027B0008EFC10E0A7E03FE20020FFF744FA012082
:1027C0002A49087000203C490870FFF725FA0121CA
:1027D0003AA0FFF77CFC30E24FF40071244806F089
:1027E00002FC01200E49087027E24FF400712048D6
:1027F00006F0FBFB00200A4908701EE20120FFF7EB
:102800008CFC012131A0FFF762FC16E2A315002029
:10281000745B0020BAECCDE2B7A2C9E4203A000014
:1028200020000020C2EBC5CC3A0000007800002058
:10283000BDF8B3AE3A0000002E00002055563A0015
:102840002D00002050533A002F0000204B45593AEC
:102850000000000000100140D0D103082002002039
:1028600060000020AE0000207C13002097000020B4
:10287000000C014096000020C8000020C600002087
:10288000B4000020CE00002059000020C20000202B
:10289000BD000020940000201E0000200008014020
:1028A0002200002053454E534F525F564945575F13
:1028B0005354415445000000020100204E4F524D38
:1028C000414C5F53544154450000000062656570FF
:1028D0000000000012E00CE09AE17CE15FE142E1DF
:1028E0002DE117E1BBE093E07EE028E022E01CE070
:1028F00012E04021FE4806F076FB9EE14021FC48B4
:1029000006F073FB99E1FB48007810B103F03CFF3F
:1029100001E003F0B3FF90E1F648007810B103F056
:1029200033FF01E003F0B6FF87E10120F24981F8AF
:10293000210182E10020F04981F821017DE14FF47D
:102940000071EE4806F04FFB0120ED4908700020B1
:10295000FFF779F90120EB4908706420FDF7A3FC2B
:102960001522E949E448303008F09BF90121E7A03D
:10297000FFF7ADFB00240FE02020E7490870DE4997
:102980003031085DE449491CFFF7BEFB0021E248F5
:10299000FFF79DFB601CC4B2152CEDDB0121DFA00D
:1029A000FFF795FB1522D4493031DD4808F079F95D
:1029B0000220DC4908700020DB4908705421DB4804
:1029C00008F0DEF91521DA4808F0B8F92A21D948CB
:1029D00008F0B4F9FF222A21D74808F0A7F901210D
:1029E000D6A0FFF774FB28E1DC480078012807D166
:1029F0000020DA4908700121D9A0FFF768FB06E042
:102A00000120D64908700121DAA0FFF760FB14E12C
:102A1000DD480078012807D10020DB49087001213A
:102A2000DAA0FFF754FB19E00120D7490870012113
:102A3000D9A0FFF74CFB4FF47A70FDF734FC4FF44C
:102A40008051AE4806F0D1FA4FF40051AB4806F081
:102A5000CCFA4FF48041A94806F0C7FAEDE0D1481E
:102A60000078022811D1C102A44806F0BEFA4FF442
:102A70000051A24806F0B9FA4FF480419F4806F091
:102A8000B4FA0320C749087043E0C6480078A0B9EB
:102A90004FF48051994806F0A8FA4FF40051974836
:102AA00006F0A1FA0120BF4908708103934806F09F
:102AB0009CFA0120BB4908702BE0BA480078012835
:102AC00012D101038D4806F090FA4FF400518B4863
:102AD00006F08BFA4FF48041884806F084FA022011
:102AE000B0490870087014E04FF48051834806F034
:102AF0007AFA0020AB4908704FF400517F4806F085
:102B000074FA4FF480417D4806F06FFA0020A54921
:102B1000087092E000209C490870FFF794F80120AB
:102B2000784908706420FDF7BEFB01207D490870DC
:102B30009D49087001219DA0FFF7C9FA7DE09A48E0
:102B40000078012807D100209749087001219DA035
:102B5000FFF7BDFA06E001209349087001219EA00D
:102B6000FFF7B5FA69E0A148007801280BD11021E0
:102B7000624806F03AFA00209C49087001219CA0A6
:102B8000FFF7A5FA0AE010215C4806F02CFA0120B4
:102B900096490870012199A0FFF799FA4DE09A48EB
:102BA000007801280BD12021514806F01CFA0020A2
:102BB00095490870012195A0FFF789FA0AE02021C4
:102BC0004B4806F012FA01208F490870012193A0AA
:102BD000FFF77DFA31E04A48007801280BD1410225
:102BE000464806F002FA00204549087001218FA0EE
:102BF000FFF76DFA0BE04FF40071404806F0F3F96F
:102C000001203F49087001218CA0FFF760FA14E011
:102C10008E480078012807D100208C4908700121D6
:102C20008BA0FFF754FA06E00120884908700121C3
:102C30008BA0FFF74CFA00E000BF00BF70BD8C48CE
:102C40000068401C8A4908608A480078012806D13B
:102C500089488A490978405C8949088022E085488A
:102C60000078022807D187488449097830F8110094
:102C70008349088016E07F4800780B2807D18248F6
:102C80007E49097830F811007D4908800AE07948CA
:102C90000078152806D17D487849097830F8110068
:102CA000774908807A480068754909880844784956
:102CB000086078487149097830F81100401C75495E
:102CC0006E4A127821F8120070470020724908807D
:102CD0007248007872490978884207D065480078C0
:102CE000012804D100206C490880F7E0E1E0D9E038
:102CF00000080140F60100207C130020000C014078
:102D000020000020970000208E150020BFD5D4D8C9
:102D1000BAECCDE2D6B50000745B002020000000C4
:102D200078A900200A0200200B020020D8CF002042
:102D30002CD000206CD0002096D00020BFAACABCA6
:102D4000BAF1B0D7D6BDD0A3D5FD2CB7C5C8EB38E6
:102D50003067BAF1B0D7D6BD00000000AF00002048
:102D6000B2E2B3A4CAE4B3F6D0A3D5FDCAFDBEDD7A
:102D700000000000B2E2B3A4CAE4B3F6D4ADCABC0A
:102D8000CAFDBEDD0000000025000020D1D5C9AB82
:102D9000B5C6B4F2BFAA0000D1D5C9ABB5C6B9D883
:102DA000B1D5000023000020B0000020BFAACABC9B
:102DB000D1D5C9ABD0A3D5FD2CB7C5C8EB4134D60E
:102DC000BD000000D1D5C9ABCAE4B3F6D0A3D5FD90
:102DD000CAFDBEDD00000000D1D5C9ABCAE4B3F620
:102DE000D4ADCABCCAFDBEDD000000002100002039
:102DF0005556B5C6B9D8B1D5000000005556B5C670
:102E0000B4F2BFAA0000000022000020BDF8B3AE5B
:102E1000BAECCDE2B9D8B1D500000000BDF8B3AE30
:102E2000BAECCDE2B4F2BFAA00000000B2E2B3A453
:102E3000BAECCDE2B9D8B1D500000000B2E2B3A43B
:102E4000BAECCDE2B4F2BFAA00000000BA00002044
:102E5000B5F7CAD4B4AEBFDAB9D8B1D50000000016
:102E6000B5F7CAD4B4AEBFDAB4F2BFAA000000000E
:102E7000080100200101002089C401080902002086
:102E80001001002094C40108A8C40108BCC40108B2
:102E90000C010020EC5B0020FE000020230200203B
:102EA0002A020020FE48008840F00400FC49088007
:102EB00014E0FC480078012806D1F948008840F069
:102EC0000200F749088009E0F7480078012805D199
:102ED000F348008840F00800F1490880F048008875
:102EE000002843D1F1480078012840D1F04800780B
:102EF000132831D2DFE800F00A0B0C10111216175C
:102F0000181C1D1E2223242830302C0000BF00BFB7
:102F10000020E849087029E000BF00BF0120E54912
:102F2000087023E000BF00BF0220E24908701DE0E6
:102F300000BF00BF0320DF49087017E000BF00BFDB
:102F40000420DC49087011E00520DA4908700DE022
:102F50000620D849087009E0FF20D6490870D048FB
:102F6000008840F00100CE49088000BFC2E0CF4891
:102F7000007802283AD1CE4800780E282BD2DFE81C
:102F800000F007080C0D111216171B1C2021252616
:102F900000BF0020C749087027E000BF0120C549D5
:102FA000087022E000BF0220C24908701DE000BF87
:102FB0000320C049087018E000BF0420BD49087014
:102FC00013E000BF0520BB4908700EE000BF0620DB
:102FD000B849087009E0FF20B6490870B048008879
:102FE00040F00100AE49088000BF83E0AF480078A0
:102FF0000B284FD1AE4800781A2840D2DFE800F005
:103000000D0E0F131415161B1C1A2122202728261B
:10301000292D2E2F333435393A3B00BF00BF002015
:10302000A449087035E000BF00BF00BF0120A149DE
:1030300008702EE000BF00BF02209E49087028E003
:1030400000BF00BF03209B49087022E000BF00BF03
:1030500000BF0420974908701BE000BF00BF052097
:103060009449087015E000BF00BF06209149087020
:103070000FE000BF00BF07208E49087009E0FF2065
:103080008C4908708648008840F001008449088017
:1030900000BF2FE08548007815282BD184480078A0
:1030A00006281CD2DFE800F003070B0F13170020DF
:1030B000804908701DE001207E49087019E0022057
:1030C0007C49087015E003207A49087011E004205B
:1030D000784908700DE005207649087009E0FF2066
:1030E000744908706E48008840F001006C490880FF
:1030F00000BF00BF70472DE9FE4F4FF078094FF039
:10310000320A002446E06C4931F8140008F0ACFFA4
:1031100083466A4908F07AFE054667492C3131F842
:10312000140008F0A1FF8346644908F06FFE0746CB
:103130003946284608F02CFF15D03946284609F0B4
:103140007DF80290504608F08FFF0190484608F045
:103150008BFF0090019909F071F88346029908F0FD
:1031600055FE804601E04FF000082946404608F031
:103170008FFF8346484608F077FF5946029009F0D2
:103180005DF806464E4840F824804E4941F82460D8
:10319000601CC4B2152CB6DBBDE8FE8F70B50025EF
:1031A00000241EE0202048490870C4F11401474A59
:1031B000505C05224449491CFEF745F9002142486C
:1031C000FEF785FF012C01DB132C02DD681CC5B264
:1031D00005E03E48005D052801DB681CC5B2601CA7
:1031E000C4B2152CDEDB0121AFF2D040FEF76FFF39
:1031F000002412E0202034490870C4F11401344A3C
:1032000032F8110005223049491CFEF71CF9002153
:103210002D48FEF75CFF601CC4B2152CEADB0121CF
:10322000AFF20850FEF753FF002413E02020264998
:103230000870C4F11401274A32F8211088B205221F
:103240002149491CFEF7FFF800211F48FEF73FFF08
:10325000601CC4B2152CE9DB0121AFF24050FEF72F
:1032600036FF002412E0202017490870C4F1140131
:10327000194A32F8110005221349491CFEF7E3F8F8
:1032800000211148FEF723FF601CC4B2152CEADBB5
:103290000121AFF27850FEF71AFF002431E0000060
:1032A000FE000020270200202E0200200101002045
:1032B0002302002009020020C41300200000204146
:1032C000004A0020544A0020745B00202CD00020CB
:1032D00042D00020D8CF00206CD000202020F94917
:1032E0000870C4F11401F84A32F811000522F549BA
:1032F000491CFEF7A8F80021F248FEF7E8FE601C22
:10330000C4B2152CEADB0121AFF2F050FEF7DFFE6C
:103310000121AFF2F850FEF7DAFE152D76D1EB4819
:103320000078022878D10121AFF21060FEF7CFFEBD
:1033300000242FE0E648005D022824DDE448005D1B
:10334000801EE3490855E34850F82400E24931F86B
:103350001410401ADF4941F82400084650F82400B0
:10336000D94931F81410401ADA4941F824000846C6
:1033700050F82400D649095DB0FBF1F081B2D7487E
:1033800020F8141004E04FF4FA71D44820F8141017
:10339000601CC4B2152CCDDB002412E02020C949EA
:1033A0000870C4F11402CD4931F812000522C54954
:1033B000491CFEF748F80021C248FEF788FE601C51
:1033C000C4B2152CEADB0121AFF2B060FEF77FFE3C
:1033D0000121AFF2B860FEF77AFE0320BB49087006
:1033E0000020BF4908705421BA4807F0C9FC1521D4
:1033F000B74807F0A3FC2A21B74807F09FFCFF223B
:103400002A21B14807F092FC012101E070E003E0BD
:10341000B4A0FEF75CFE6BE0AC480078032867D1EF
:103420000121AFF20870FEF752FE002431E0A848F7
:10343000005D022825DDA648005D801EA4490855D0
:10344000A44850F82400A44931F81410401AA149A6
:1034500041F82400084650F824009B4931F8141024
:10346000401A9C4941F82400084650F82400984925
:10347000095DB0FBF1F081B298482C3820F81410A7
:1034800005E04FF4966195482C3820F81410601C24
:10349000C4B2152CCBDB002413E02020894908702E
:1034A000C4F114028D492C3931F8120005228549E6
:1034B000491CFDF7C8FF00218248FEF708FE601C8A
:1034C000C4B2152CE9DB0121AFF2B070FEF7FFFDAD
:1034D0000121AFF2B870FEF7FAFD00207B490870B9
:1034E000012188A0FEF7F3FDFDF7E8F9FFF703FEE1
:1034F00070BD70B58CB0864800888649088000246D
:1035000004E000204DF82400601CC4B20C2CF8DB51
:103510000026142517E0701CC6B200240FE0C4EB8F
:10352000041000EB80007C4901EBC00030F815006E
:103530005DF8241008444DF82400601CC4B20C2C23
:10354000EDDB681CC5B2734800881438A842E2DC81
:1035500000241EE0002E08DD5DF82400B0FBF6F02C
:10356000C1B25E482D30015503E000215B482D308B
:10357000015520205349087058492D31085D5149A3
:10358000491CFEF7C1FD00214E48FEF7A0FD601C5E
:10359000C4B20C2CDEDB00204C490870012159A07C
:1035A000FEF795FDFDF78AF90CB070BD10B55B48CC
:1035B0000078012879D10020584908704FF4007133
:1035C000574805F010FD0120564908700103544882
:1035D00005F00BFD4FF40051514805F006FD4FF486
:1035E00080414F4805F001FD03204F4908704F48C6
:1035F00000780028DED135480078012802D1FFF795
:1036000078FFE1E031480078012804DD03F06EF92D
:10361000FFF7C4FDD8E046480178464803F089FE2C
:103620004348007803F0DEFB4148007804F06FF86F
:103630004FF49670FCF737FEFFF747FB3E480088D3
:1036400038B9FFF7FCFA0120FEF767FDFEF73CFAF8
:10365000B4E00320FEF761FD384AB4215A2004F09B
:10366000CBF9364AB4217A2004F0C6F9334AB421A2
:103670009A2004F0C1F9324AB421BA2004F0BCF90E
:10368000304AB421DA2004F0B7F92F4AB421FA20E5
:1036900004F0B2F928480088012807D12B4AB42148
:1036A0004FF48D7004F0A8F96EE0BFE02248008866
:1036B00002284DD1244AB4214FF48D7004F09CF9B6
:1036C00062E00000745B002096D000200A02002017
:1036D0002CD00020D8CF00206CD00020F013002088
:1036E0000B020020BFAACABCB1A1B0D7D6BDD0A3DF
:1036F000D5FD2CB7C5C8EB343067B1A1B0D7D6BD66
:1037000000000000D0A3D5FDCDEAB3C90000000041
:10371000CE00002006020020B6B300206600002084
:10372000000C014020000020230000201E0000208B
:103730000101002077160020FE000020E8B50700F8
:1037400038120300C82C0300603E07001831070040
:10375000F7480088042806D1F64AB4214FF48D704A
:1037600004F04AF910E0F2480088082806D1F24A2D
:10377000B4214FF48D7004F03FF905E0EF4AB42115
:103780004FF48D7004F038F9ED480078012815D118
:10379000EC480078EC490870EC4800784870EC4838
:1037A00000788870EB480078C87000200871487174
:1037B000552088710721E44803F0A8FAE64800780C
:1037C000012801D1FDF7DBF9E448008820F004006E
:1037D000E2490880E24890F8210180B90846008853
:1037E00040F00800088003F049F80220DD49087025
:1037F0009620DD4908700020DC49087016E0D748A3
:10380000008840F04000D54908800020D849087061
:10381000D84908700120D849087003F03BF802200D
:10382000D24908704FF4FA70D449088010BD10B521
:103830000446082C75D2DFE804F00412202E3C4A1E
:1038400058664FF48051CE4805F0CFFB0421CD4897
:1038500005F0CBFB0821CC4805F0C7FB61E04FF435
:103860008051C74805F0C1FB0421C64805F0BDFBE7
:103870000821C54805F0B7FB53E04FF48051C0481C
:1038800005F0B3FB0421BF4805F0ADFB0821BE489D
:1038900005F0ABFB45E04FF48051B94805F0A5FBBE
:1038A0000421B84805F09FFB0821B74805F09BFBB1
:1038B00037E04FF48051B24805F095FB0421B14840
:1038C00005F093FB0821B04805F08FFB29E04FF489
:1038D0008051AB4805F087FB0421AA4805F085FB21
:1038E0000821A94805F07FFB1BE04FF48051A44854
:1038F00005F079FB0421A34805F075FB0821A248D7
:1039000005F073FB0DE04FF480519D4805F06BFB13
:1039100004219C4805F067FB08219B4805F063FBE8
:1039200000BF00BF10BD10B50121984804F08DFA0A
:1039300010BD10B5FFF7F7FF00BF022004F002FD35
:103940000028FAD0022004F011FD10BD70B500224D
:1039500002218F4804F0E7FC0320FCF7A4FC0020C0
:103960008C49087008460078FFF761FF00254AE19E
:10397000FFF7DFFF002412E0874850F82400C0F36F
:103980000720864901F81400834850F82400000EEF
:10399000012101EB4401814A5054601CC4B2052C42
:1039A000EADBADB97D48407A7D4908707B484078B4
:1039B0007C4908707948C0784870784800787A491E
:1039C000087076480079794908707448007A487020
:1039D0007048007807280FD2DFE800F0040F1A3E85
:1039E0006286F1006D484079714908706B488079B2
:1039F000C8716A48C0798873ECE0684840796C49BE
:103A000048706648807908726448C079C873E1E0FC
:103A100062484079664988706048807948725F489A
:103A2000C07908746348007820B95C48807862499E
:103A3000087010E05F480078012804D1574880786A
:103A40005D49487007E05B480078022803D153487D
:103A5000807859498870BDE0504840795449C87011
:103A60004E48807988724D48C07948745148007832
:103A700020B94A4880785049C87010E04D48007815
:103A8000012804D1454881784B48017107E0494835
:103A90000078022803D1414881784748417199E074
:103AA0003E484079424908713C488079C8723B4899
:103AB000C07988743F48007820B9384880783E49FA
:103AC000887110E03B480078012804D133488178A0
:103AD0003948C17107E037480078022803D12F48E0
:103AE00081783548017275E02C4840793049487139
:103AF0002A48807908732948C079C8742D4800780D
:103B000020B9264880782C49487210E0294800786E
:103B1000012804D1214881782748817207E025488F
:103B20000078022803D11D4881782348C17251E0F2
:103B3000FE000020A84B0700F05807003866070079
:103B4000BA0000202A020020D85B002023020020B7
:103B5000270200202E020020AE000020E0000020FE
:103B60007C13002046000020E70000200001002018
:103B7000520000205100002045000020E8000020F5
:103B80000010014000140140000C014000240140DD
:103B90000800024024000020701500208415002039
:103BA0002E0000202F0000202D0000202B000020E0
:103BB0008E15002023000020A3150020FFE7FE48FB
:103BC0004079FE498871FC4880794873FA48C07989
:103BD000087500BF00BFFA480078401CF84908701B
:103BE00008460078072190FBF1F201FB1200F4492E
:103BF000087008460078FFF71AFE4FF4FA70FCF7D9
:103C00005CFB681CC5B2072DFFF6B2AE0122022193
:103C1000EC4804F088FB70BD10B50024EA48007839
:103C2000012812D10020E8490870E848007820B146
:103C3000032803D0052807D105E005E0FFF786FE3D
:103C4000FEF78AFA00E000BF00BF10BD10B5DF48E4
:103C5000007800285CD1DE48007801284CD1DD488E
:103C60000088002854D1DC480078002850D14FF457
:103C70007A71DA4807F062F84FF47A71D84807F0A1
:103C80005DF84FF40071D74805F0ADF90120D64931
:103C900008700103D34805F0A6F90020D349087045
:103CA0004FF40051CF4805F0A0F94FF48041CD48C2
:103CB00005F09BF90020CE490880CE49086001201C
:103CC000CD49087002F0DAFD0320CC4908700020CD
:103CD000CB490870CB490880CB490880BD48008893
:103CE00040F00100BB4908804FF4FA70C7490880D2
:103CF0000020C74908800BE0B648007800F020009B
:103D0000002805DDB348008820F02000B149088074
:103D100010BD10B54FF40071B24805F064F90120F0
:103D2000B149087002F0AAFD6420FCF7BCFA00203B
:103D3000B8490880B84908604FF47A70FCF7B3FAC4
:103D400002F0A8FD4FF47A70FCF7ADFA02F01CFD0A
:103D500010BD704710B59B4804F00CFAAF48B0494D
:103D60000860B0484860002088600520C8600020D6
:103D7000086180204861800088618000C86120203F
:103D8000086200024862002088628E4804F094FABB
:103D900010BD00B587B00121480205F0E0FB01210C
:103DA000880205F0DCFB0121084605F0CBFB17205B
:103DB000ADF8000000208DF8030069469A4805F030
:103DC00065F83F20ADF8000000208DF8030069463B
:103DD000964805F05BF8FFF7BDFF01220221794804
:103DE00004F0A1FA0B208DF8180001208DF81900BD
:103DF0008DF81A008DF81B0006A803F02AFF8748EB
:103E00004C3803F08FFF4FF4C020019001208DF853
:103E1000080000208DF809004FF4602003904FF453
:103E20000060049005208DF8140001A97B484C38EF
:103E300003F09FFF01231A46002178484C3804F014
:103E400030F801230222042174484C3804F029F888
:103E5000012303220A2171484C3804F022F801237F
:103E600004220C216D484C3804F01BF80123052274
:103E70000E216A484C3804F014F86D4803F052FFE4
:103E80004FF4C020019001208DF8080000208DF82B
:103E900009004FF4602003904FF400600490052067
:103EA0008DF8140001A9624803F063FF01231A464C
:103EB00019465F4803F0F5FF0123022211465C48D2
:103EC00003F0EFFF012303220B21594803F0E9FF20
:103ED000012304220D21564803F0E3FF01230522AC
:103EE0000F21534803F0DDFF0121514804F035F85C
:103EF00001214A484C3803F068FF48484C3803F029
:103F000086FF00BF45484C3803F086FF0028F9D1F2
:103F100042484C3803F08AFF00BF40484C3803F059
:103F20008AFF0028F9D10121414803F04EFF4048A3
:103F300003F06DFF00BF3E4803F06EFF0028FAD18A
:103F40003B4803F073FF00BF394803F074FF0028BB
:103F5000FAD1012131484C3803F042FF01211948C0
:103F600004F0D5F9022004F001FA07B000BD1FB536
:103F70000121084605F000FBB320ADF8000040F237
:103F8000CF70ADF804000020ADF80600ADF80200D7
:103F900069464FF0804005F01BFC01221146900756
:103FA00005F08DFF1C208DF80C0000208DF80D0011
:103FB00001208DF80E003DE0841500208E150020B4
:103FC00024000020080002409F0000201E00002066
:103FD0003E000020E0000020F60100202F420020DB
:103FE00017460020000C0140200000202300002084
:103FF00078000020880000200001002046000020FA
:10400000450000204A00002048000020E400002075
:10401000CC000020C8000020B40000204C24014047
:1040200044150020701500200008014000100140D8
:10403000002801408DF80F0003A803F00AFE0121BB
:10404000880705F021FF0121082005F095FA40F2CC
:10405000CF20ADF8000042F20F70ADF80400002050
:10406000ADF80600ADF802006946FE4805F0B0FB69
:104070000021FC4805F008FF1FBD08B501208DF8A0
:1040800002004002ADF8000010208DF803006946E0
:10409000F54804F0FBFE1020ADF800008DF8030099
:1040A0006946F14804F0F2FE1021EF4804F09DFF4C
:1040B0000020EE4908702020ADF8000010208DF897
:1040C00003006946EA4804F0E1FE2021E84804F0D4
:1040D0008AFF0020E74908704020ADF8000010205A
:1040E0008DF803006946E24804F0D0FE4FF480509A
:1040F000ADF8000010208DF803006946DA4804F09E
:10410000C5FE4FF48051D84804F06FFF4FF40050C3
:10411000ADF8000010208DF803006946D24804F085
:10412000B5FE4FF40051D04804F05FFF4FF48040DB
:10413000ADF8000010208DF803006946CA4804F06D
:10414000A5FE4FF48041C84804F04FFF0121CA4842
:1041500004F06DFF0820ADF8000010208DF803007A
:104160006946C14804F092FE0420ADF8000010201A
:104170008DF803006946C14804F088FE4FF4805072
:10418000ADF8000010208DF803006946BC4804F02B
:104190007DFE0020FFF74BFB4020ADF800004820DB
:1041A0008DF803006946B64804F070FE8020ADF833
:1041B000000048208DF803006946B14804F066FE0F
:1041C0004FF48070ADF8000048208DF80300694678
:1041D000AB4804F05BFE4FF48070ADF800000420A3
:1041E0008DF803006946A04804F050FE08BDC820C1
:1041F000A44981F8E0000021A24880F8E11080F88D
:10420000E91080F8EF1080F8EA10012180F8E21040
:10421000002180F8E310012180F8E410002180F8EB
:10422000E51080F8E61080F8E710012180F8EB1027
:1042300080F8EC10322180F8ED10642180F8EE1047
:104240000120904981F8200181F821017047032065
:104250008C4981F8B00046218A4880F8B11041218C
:1042600080F8B2103C2180F8B310372180F8B410E8
:104270000A2180F8B510962180F8B6100A2180F83E
:10428000B710962180F8B810642180F8B910372152
:1042900080F8BA10412180F8BB105A2180F8BC1078
:1042A000732180F8BD103C2180F8BE10462180F8B3
:1042B000BF103C2180F8C010502180F8C1100C21A3
:1042C00080F8C210172180F8C3101D2180F8C41097
:1042D0002E2180F8C510162180F8C610242180F800
:1042E000C710272180F8C810342180F8C9102B216D
:1042F00080F8CA103C2180F8CB10912180F8CC10B6
:10430000822180F8CD10782180F8CE1070470020EF
:1043100006E05D49095C5B4A42F82010411CC8B2C6
:104320000328F6DB704700B500230EE05748C15C58
:104330005448103040F833105448C15C5148103094
:1043400000EBC3004160581CC3B2032BEEDBFFF748
:10435000DEFF00BD10B5FFF7E6FF0A20494981F8EE
:10436000A0002A214748483006F0E8FC2A214548A9
:10437000743006F0E3FCFF2215214248303006F08D
:10438000D5FC10BD10B5FFF7E5FFFFF760FFFFF7A5
:104390002EFF10BD0EB506F0E0FA4FF48031C802D2
:1043A00003F089FC4FF4806004F0A0FF002004F0CB
:1043B000A6FF4FF4004004F0BDFF01213D2005F0B1
:1043C000CEF80121480205F0CAF80121880205F063
:1043D000C6F80121880305F0C2F802F0A1FBFBF743
:1043E000B6FFFBF73BFFFCF75BFAFCF75AFA2548F0
:1043F000D0F860012649884217D02248D0F86001E1
:1044000000F07040B0F1004F05D0FFF7BBFF002077
:10441000FCF793FA03E0FFF71AFFFFF7E8FE1C48EA
:104420001849C1F86001FCF749FAFFF726FEFFF7CB
:104430009EFD02F0B4F90821012004F03DFE4FF486
:104440008070009000208DF804000C208DF805008D
:1044500001208DF80600684603F0C4FF17208DF890
:10446000080017E0000C0040000C01402100002073
:10447000000801402200002000023000001401402A
:10448000001001407C1300205DC4010859C40108DC
:104490006714068703208DF8090000208DF80A00B4
:1044A00001208DF80B0002A803F0D3FBFFF771FC8D
:1044B0000EBD4FF47A70FBF7F6FEFFF76BFF0A2094
:1044C000FBF7F1FE002003F0C7F94FF4784003F04A
:1044D000D6F9002003F0D6F9182003F0CDF96C22AC
:1044E0007C21FBA003F0D1F94FF4FA70FBF7DBFE5F
:1044F000FFF72FFCFFF70DFC0020F7490870F74984
:104500000870FEF7F8FD1522F549F64806F0C9FBDC
:104510000020FDF798FB0120F34908700020F349C3
:104520000870FDF783FBFDF777FB0120FDF7F5FD34
:104530004FF48051EE4804F058FD4FF40051EC4820
:1045400004F053FD4FF48041E94804F04EFD032090
:10455000E849087089E0E8480078012802D1002085
:10456000E5490870E5480078012806D10020E349B4
:104570000870E3480088E3490880E3480078012890
:1045800004D10020E0490870FCF785FFDF4800787F
:10459000012804D10020DD490870FDF7A3FADC48AA
:1045A000007801280AD10020D94908704FF4007121
:1045B000CF4804F01AFD0020D6490870D64800788C
:1045C00001283CD1C5480078A8BBD448007890BBEE
:1045D000D3480078401CD2490870084600780A2861
:1045E00025DD4FF40071C24804F0FDFC0120C949EB
:1045F000087002F04FF94FF4FA70FBF754FE02F026
:10460000C3F80120C74908700020C7490870FDF7AA
:104610001AFB0120B44908700020C4490880012019
:10462000B9490870FDF779FD0020BD4908700A20DE
:10463000FBF739FE03E0FFE70020B9490870BC48EA
:104640000078012807D10020B949087002F09CF8D1
:104650000220B4490870FFF7F9FAFFF7DDFAFEF718
:10466000A5FFFEF713F8FDF718FD74E710B5B14884
:104670000078012830D10020AE490870FCF793FD86
:10468000AD490870AD4800784006000EAB4908708F
:10469000A9480078FF2803D008460078401C08701D
:1046A000A7480078002849D1A3480078FF2814D1F2
:1046B000A448007850B9A448007838B1A2480178DD
:1046C0000020FBF784FE0120FDF727FD64209F49B1
:1046D000088002209B4908705EE09A480078002814
:1046E0000BDD98480078401E96490870084600780F
:1046F00018B99148007894490870944800880028B7
:104700004ADD92480088401E90490880084600888B
:10471000002841D18E4908700120894908708648D7
:1047200000788C490870084600782030C1B200201B
:10473000FBF74DFE0120FDF7F0FC2DE07E480078F0
:1047400084490978884216D181480078002823DD01
:104750007F480078401E7E49087008460078D8B926
:104760007C4800782030C1B20020FBF730FE0120E9
:10477000FDF7D3FC10E0002071490870FF20754957
:1047800008707149087002206E49087064206F49F2
:10479000088000206E49087010BD2DE9F0470546DD
:1047A0000C465048005D0A38A84202DC2846BDE8A5
:1047B000F087284607F058FC8246674951F82400E4
:1047C000514607F065FC0746644850F82410384607
:1047D00007F0AEFA0646304607F07EFA074600229A
:1047E000134607F013F801D8002609E0304607F019
:1047F00073FA074600225A4B07F042F900D2594E8D
:10480000304607F0F9FB00F0FF094846CFE72DE9F5
:10481000F04F87B00746884692463E46707830385B
:104820003178303901EB810100EB4100C0B20690D4
:10483000069828B900208AF8000007B0BDE8F08F7C
:104840000698804501DB4FF000080024A346A146EE
:1048500002252BE0705D7C281FD1BBF1000F07D132
:1048600000244FF0010B142101A806F089FA1BE087
:10487000C84506D1621C01A9504606F012FA012073
:10488000DBE709F1010000F0FF0900244FF0010B04
:10489000142101A806F074FA06E0112C04DA705D08
:1048A00001A90855601CC4B2681C85B2304606F0E8
:1048B000D9F9A842CEDCBBF1010F55D1C84553D17F
:1048C000621C01A9504606F0ECF90120B5E7000092
:1048D00057454C434F4D45003A0000203E00002014
:1048E000AC13002078A900209700002002010020CE
:1048F000000C0140230000209E00002096000020B4
:10490000C800002002020020D40000207600002011
:10491000A4000020200000201E0000203400002001
:104920003500002044000020D3000020E0000020DB
:10493000EA000020F8000020FB000020FD0000201D
:10494000F7000020F0000020F5000020F200002019
:10495000F4000020F6000020004A0020544A002005
:1049600000E06F4000007F4300BF66E738B50446B3
:104970000D4625B1012D0BD0022D1BD111E02023B6
:104980004FF4A07200210846009403F008F812E0EA
:10499000B0234FF4A07220210020009402F0FFFF0A
:1049A00009E020234FF4A072D0210020009402F0EF
:1049B000F6FF00E000BF00BF38BD30B5034630252C
:1049C000541E0D5500248C5410460FE00A2493FB0E
:1049D000F4F504FB15343034E5B2441E0D55E0B255
:1049E00000B905E00A2493FBF4F4A3B2002BEDDC3C
:1049F00000BF904201D1441EE0B203E03025441EC6
:104A00000D55E0B20028F9DC30BD10B50246104665
:104A10000A2807DA30230B704B708B7000F13003DB
:104A2000CB7052E064280FDA30230B704B700A23EE
:104A300090FBF3F330338B700A2390FBF3F403FB0A
:104A400014033033CB7040E0B0F57A7F19DA3023AD
:104A50000B70642390FBF3F330334B70642390FBB3
:104A6000F3F403FB140398B20A2390FBF3F33033FF
:104A70008B700A2390FBF3F403FB14033033CB70E9
:104A800023E04FF47A7390FBF3F330330B704FF461
:104A90007A7390FBF3F403FB140398B2642390FB46
:104AA000F3F330334B70642390FBF3F403FB1403F4
:104AB00098B20A2390FBF3F330338B700A2390FBF8
:104AC000F3F403FB14033033CB7000230B7110BDE0
:104AD00010B50024FE480119FE480078FFF795FF45
:104AE000241D2020FA490855641CFB48007807283B
:104AF00017D108462044F949F74A127851F8221094
:104B00000A6802604968416004F10800C4B2F048D4
:104B100001190222F2480078FFF74FFFA01CC4B22F
:104B20000FE0EB480119ED48EB4A127850F82200EB
:104B300002680A6042684A608068886004F10C007C
:104B4000C4B20020E2490855601CC4B20121E0480B
:104B5000FDF7BDFA10BD10B5FCF7B6FF0120FDF75B
:104B6000DCFA01F0A3FE0C20FDF76DF810BD10B5C6
:104B70000120FDF7D2FA01F099FE0E20FDF763F84F
:104B800010BD10B5FFF7C3FB01F0FEFD002001F0E2
:104B9000D1FD01F073FE40F6B830FBF784FBD1483D
:104BA0000178D148D14A127840F8321001F0ECFD7A
:104BB00001F070FE40F6B830FBF775FBCC48017889
:104BC000C948CA4A127800EBC200416001F0DCFD1E
:104BD000012001F0AFFD01F051FE40F6B830FBF7C7
:104BE00062FBC0480178C048C04A127840F83210D1
:104BF00001F0CAFD01F04EFE40F6B830FBF753FB62
:104C0000BB480178B848B94A127800EBC20041604D
:104C100001F0BAFD022001F08DFD01F02FFE40F6FB
:104C2000B830FBF740FBAF480178AF48AF4A127885
:104C300040F8321001F0A8FD01F02CFE40F6B8302B
:104C4000FBF731FBAA480178A748A84A127800EB85
:104C5000C200416001F098FDFBF730FEA249103917
:104C600091F8E10001F066FD10BD10B5044620206A
:104C700097490870452048700222891C2046FFF79A
:104C80009CFE10BD64281FDB0022CA700A2290FB24
:104C9000F2F302FB130230328A700A2290FBF2F226
:104CA000D0B20A2290FBF2F302FB130230324A70B8
:104CB0000A2290FBF2F2D0B20A2290FBF2F302FB3E
:104CC000130230320A701FE00A2814DB00228A70B7
:104CD0000A2290FBF2F302FB130230324A700A22DE
:104CE00090FBF2F2D0B20A2290FBF2F302FB130225
:104CF00030320A7008E000224A700A2290FBF2F378
:104D000002FB130230320A70704730B5034630257B
:104D1000541E0D5500248C5410460EE00A24B3FB9B
:104D2000F4F504FB15343034451E4C55441EE0B2F6
:104D300000B904E00A24B3FBF4F3002BEED100BF6A
:104D4000904201D1441EE0B203E02025441E0D55DF
:104D5000E0B20028F9DC30BD10B5664800780928BB
:104D60000FD05B4864A10988018064490978133138
:104D700088B202225649891CFCF765FB0120FCF72A
:104D800062FF4FF400715E4804F02DF901205D4987
:104D9000087001035A4804F028F94FF400515848AC
:104DA00004F023F94FF48041554804F01EF9032024
:104DB0005549087001F0E8FC0420544908704F4838
:104DC0000078032805D00320FDF7A7F901205049FA
:104DD000087010BDF0B501460A2901DA4C20F0BD7B
:104DE0004C274C48008801FB01054C2301F14C0481
:104DF0002BE004EB030C1FFA8CF000EBD07C4FEAA5
:104E00006C02FF2A06DDFF22FF24E01800EBD07CB5
:104E1000CCF34F0202FB02F086B2A5F11400B042BF
:104E200004D82830864201D81046D8E7D81C8442DE
:104E300006DCE0181FFA80FC0CEBDC704010CEE7BB
:104E4000AE4201D2134600E01446D2E770B50546E3
:104E50000E464C246C433046FFF7BCFFB4FBF0F425
:104E6000A0B270BD7FB5054600212B4805F00CF8B7
:104E70000121042004F080FB25B1012D05D0022D75
:104E800009D105E04FF4E17406E04FF4C87403E083
:104E90004FF4B47400E000BF00BFB320ADF80000D1
:104EA00040F22B10ADF804000020ADF80600ADF87C
:104EB00002006946184804F08BFC0122114616488E
:104EC00004F0FDFF1E208DF80C00002026E00000FD
:104ED000745B00206700002009020020C001002050
:104EE00008020020FC0100208C130020F7010020A4
:104EF000FD0100201E00002020450000D3000020FE
:104F0000000C01402000002023000020440000206D
:104F1000D4000020E0010020000800408DF80D00C2
:104F200001208DF80E008DF80F0003A802F091FE0D
:104F30000121FE4804F0A8FF7FBD10B5FC480078B1
:104F4000401CFB490870084600780521B0FBF1F2CF
:104F500001FB1200F6490870F6480978405C30B150
:104F60002021F54804F041F80120F449087010BDF3
:104F700010B504462068F2490840B0F1005F0CD13A
:104F80006068F049086008460068EF4908602068DA
:104F9000FBF75DF9EC480068804710BD704700BF23
:104FA000FEE700BFFEE700BFFEE700BFFEE7704779
:104FB0007047704710B5E5480088002804DDE348D5
:104FC0000088401EE1490880E1480068401CE04933
:104FD0000860E0480068401CDE490860DE48008840
:104FE000401CDD49088008460088B0F57A7F07DB61
:104FF0000120DA490870DA4908700020D649088093
:10500000D8480078002860DDD6480078401ED54991
:10501000087008460078002857D1D3480078002847
:1050200053D101F0B1FB0020D0490870D04800787E
:10503000012829D10020CE490870CE480088CE49E9
:105040000880C3480068CD4908600620CC49087034
:105050000120CC490870CC48008840F00400CA49BF
:1050600008800846008820F002000880C7480088B1
:10507000C7490988884202DDC448008801E0C44865
:105080000088C449088020E0B948007802281CD173
:105090000020B7490870B7480088B7490880AC4875
:1050A0000068B64908600920B5490870B64800880C
:1050B00020F01000B4490880B7480078012804D1D6
:1050C0000846008840F020000880B4480078002896
:1050D0000DDDB2480078401EB049087008460078DF
:1050E00028B90120AE4908701420AC490870AD48B9
:1050F000007801285BD19C480078032857D08F485E
:105100000078B8B1A8480078A8490880A648007877
:105110003C2805DDA6480078401CA549087020E021
:10512000A348007800281CDDA1480078401EA04953
:10513000087016E09C4800789E4908809A480078DC
:105140003C2805DA9A480078401C9949087008E024
:1051500097480078002804DD95480078401E94495F
:10516000087095480078401C9349087008460078FC
:1051700005281CDB00200870FFF7DFFE8F48007851
:10518000401C8E490870084600780A280FDB002072
:105190000870874800781E2803DB01207E490870CC
:1051A00002E000207C49087000208149087010BD91
:1051B00010B52021824805F0EFFA50B1804805F083
:1051C00081FAC4B22046FBF7BFF901207D4908707F
:1051D00016E080217A4805F0DFFA88B17A48008825
:1051E000002807DDFBF7FEF904462146744805F068
:1051F00065FA05E0002240F22771714805F0FDF9DB
:1052000010BD10B52021714805F0C6FA50B16F48A5
:1052100005F058FAC4B22046FBF7C4FA01206C49E5
:10522000087016E08021694805F0B6FA88B169482F
:105230000088002807DDFBF7FCFA04462146634896
:1052400005F03CFA05E0002240F227715F4805F0C6
:10525000D4F910BD10B50121344805F0D2F860B37F
:105260000121324805F0D6F84E480078012803D0D5
:1052700059480088002820DD57480088002815DD9F
:1052800055480088401E544908800846008868B97F
:1052900001F07AFA002051490870514908705148CC
:1052A000008851490880002050490870FEF73BFBF8
:1052B0004F480068401C4E49086010BD10B50023DF
:1052C0004C48007808B9002010BD002300210022BE
:1052D0000FE04948845C4948805C0A38844202DA1D
:1052E000481CC1B203E0994200DD0B460021501C6E
:1052F000C2B2162AEDDB994200DD0B46032B01DB1F
:105300000120E1E70020DFE73A48007801287BD15F
:105310003B48006840003A4908601C48008840F259
:10532000DC5188427ADA374801786FE000080040A3
:10533000E2010020FCC40108000801402200002016
:105340000000FE2FE8010020E4010020BC01002045
:10535000880000205C000020EC0100209E0000205E
:105360009F000020260000201E00002028000020B2
:1053700000010020780000207E0000208400002032
:105380004400002066000020E000002048000020CB
:105390004A000020040100203E000020FA00002006
:1053A000F8000020970000202E0000203800002088
:1053B0003A00002036000020F00100203D000020CF
:1053C000003801401E020020040000200048004078
:1053D0002002002018000020940000205900002026
:1053E000C2000020B400002000020020BD00002008
:1053F0008C000020200000208E15002078A90020BD
:10540000400000202F00002099E007E0FE480288BD
:105410000088401CFC4B1880FC488154FC480078F4
:10542000C82804DAFB480068401CFA490860FA48BA
:10543000007800285AD1F748007800F00F000F28B4
:1054400014D10120F4490870F448007802280ED1E4
:105450000020F3490880F348008820F04000F1491B
:1054600008800846008840F0100008806CE0EB4897
:105470000078012868D10020EB4908804FF4FA70C9
:10548000EA490880E748008840F00200E5490880C2
:105490000846008820F0010008803720E4490870A1
:1054A0001920E44908700120E34908700020E3490D
:1054B0000880E3490860E3490880E3490880E3493C
:1054C0000880E3480088B0F57A7F04DA1421E148C7
:1054D000DF4A12888154E0480068B0F57A7F33D201
:1054E0001420DE49DC4A126888542DE0CA4800784E
:1054F000012829D1C7480068C0F3130020BB002051
:10550000C5490870C5480078012817D10220D44940
:105510000870CF480088B0F57A7F04DA3C20CD4986
:10552000CB4A12888854CC480068B0F57A7F0BD2F9
:105530003C21CA48C84A1268815405E004E00020B2
:10554000B4490860B4490870704710B5C548007880
:1055500001287DD1C44800784006000EC249087079
:10556000FFF7ACFE012802D1C049087002E000201C
:10557000BE490870BD480078012804D1BA480078B7
:10558000401CB9490870BA48008840F2DC51884292
:1055900009DAB848417BB64802880088401CB44B01
:1055A0001880B5488154B548007840BBAE480078B3
:1055B00000F00F000F2877D10120B04908700020BB
:1055C000AF4908709548007802286DD0934800785C
:1055D000012869D19E480088B0F57A7F04DA6420FA
:1055E0009C499B4A128888549B480068B0F57A7F92
:1055F0005AD2E8209949984A1268885454E09F4842
:105600000078012850D18548007801282DD196488E
:10561000007800F00F00002846D17F48007800286D
:1056200042D197490870954908702820954908701B
:105630001420954908700220944908708448008815
:10564000B0F57A7F06DA50208249814A128800E05C
:1056500025E0885480480068B0F57A7F24D2502035
:105660007E497D4A126888541EE06C480078022802
:105670001AD17D48007800F00F00A8B900208049B9
:1056800008707E49087001F0F9F80120804908701F
:1056900000208049087023207F49087004E0002022
:1056A000714908707549087010BD6E48007801286E
:1056B0006DD17A4800784006000E78490870544849
:1056C0004078C82807DA08460078401C0870002097
:1056D0007349087004E072480078401C70490870F3
:1056E0007048007858BB6D48007800F00F000F2814
:1056F00052D101206B490870002069490870474861
:105700000078022848D045480078012844D100207C
:10571000464908804E480088B0F57A7F04DA282090
:105720004C494B4A128888544B480068B0F57A7F40
:1057300032D228204949484A126888542CE05948F6
:105740000078012828D15548007800F00F0018BBD8
:1057500000205349087053490870304800780128E8
:1057600014D13B480088B0F57A7F04DA50203949DB
:10577000374A1288885438480068B0F57A7F0BD2CF
:1057800050213648344A1268815405E004E0002074
:105790004249087043490870704710B54248007884
:1057A00001282FD126480068B0F5617F2AD2002455
:1057B00025E03E480078012803D03D4800780028C5
:1057C0000CDD2C48005DC4EB4411C1EB0421394AC7
:1057D00002EB81011A4A126888540EE02549085DDF
:1057E0002146FEF7DAFFC4EB4411C1EB0421314A34
:1057F00002EB8101124A12688854601CC4B2152C55
:10580000D7DB59E063E00000480000207736002035
:105810002F000020400000204F0000200001002049
:10582000E8000020E0000020E4000020E20000206A
:10583000BE000020C300002059000020CE00002040
:10584000B4000020B80000207A000020C80000202A
:10585000780000202F4200208800002017460020FA
:1058600058000020200000204D00002034000020BF
:105870004A0000208E150020533C002054000020D8
:105880004E000020BF000020C1000020C400002006
:1058900028000020270000202600002050000020C3
:1058A0005100002052000020C2000020AF00002064
:1058B0000A020020205C0020FD480078FD49FE4AD5
:1058C00012688854FC480068401CFB49086010BD01
:1058D000FA480088B0F5FA6F10DAF9480078F9490B
:1058E000F64A12888854F6484178F748F34A1288F5
:1058F0008154F2480088401CF0490880F348007841
:10590000012817D1F248008840F2523188422CDA3F
:10591000EB480178EF48EE4A12888154E848417814
:10592000ED48EB4A12888154E9480088401CE84958
:1059300008801AE0E2480078E849E94A1278885479
:10594000DF484178E5483230E54A12788154E4482E
:105950000078401CE249087008460078322190FB2C
:10596000F1F201FB1200DE4908707047D748007859
:1059700001280FD1DB480088B0F5617F0ADADA48E8
:105980000078DA49D74A12888854D6480088401CE3
:10599000D44908807047D648007801282DD1D548D1
:1059A0000088B0F5967F28DAD3480078012863D1C3
:1059B000D2480078022821D1D1488178D148CD4AF7
:1059C000128820F81210CE484179CF48C94A12886F
:1059D00020F81210CA48017ACC48C64A128820F82A
:1059E0001210C748C07ACA49C24A128821F8120068
:1059F000C0480088401CBF49088001E2BF480078C9
:105A0000E0B9BF480078C349BA4A128821F81200A9
:105A1000BB48C178C048B74A128820F81210B8486D
:105A20008179BE48B34A128820F81210B448407AEF
:105A3000BB49B04A128821F81200E1E1B048417830
:105A4000B848AC4A128820F81210AD480179B6481F
:105A5000A84A128820F81210A948C079B349A54A6B
:105A6000128821F81200A648807A01F5E161A14A66
:105A7000128821F81200C3E1A0480078022873D1EF
:105A80009F488078FA214843A94991F8A31090FBD8
:105A9000F1F04FF6FF71884209DA99488078FA21CF
:105AA0004843A34991F8A31090FBF1F001E04FF6B1
:105AB000FF7081B293488F4A128820F812109048E4
:105AC0004079FA2148439A4991F8A61090FBF1F0E9
:105AD0004FF6FF71884209DA89484079FA21484334
