:020000040801F1
:1000000028F70020A5A40108794901087B490108C7
:100010007F49010883490108874901080000000061
:100020000000000000000000000000008B490108F3
:100030008D490108000000008F490108914901081D
:10004000BFA40108BFA40108BFA40108BFA4010800
:10005000BFA40108BFA40108BFA40108BFA40108F0
:10006000BFA40108BFA40108BFA401081F580108CC
:10007000BFA40108BFA40108BFA40108BFA40108D0
:10008000BFA40108BFA4010807610108BFA40108BB
:10009000BFA40108BFA40108BFA40108895C01082E
:1000A000BFA40108BFA40108BFA40108BFA40108A0
:1000B0006D5B0108BFA40108694C0108BFA40108D9
:1000C000BFA40108BFA40108BFA40108BFA4010880
:1000D000BFA40108C54B0108BFA40108174C0108C3
:1000E000BFA40108BFA40108BFA4010800000000CC
:1000F0000000000000000000000000000000000000
:100100000000000000000000BFA40108BFA4010817
:10011000BFA40108BFA4010813760108BFA4010809
:10012000BFA40108BFA40108BFA40108BFA401081F
:10013000BFA40108BFA40108BFA40108BFA401080F
:10014000BFA40108BFA40108BFA40108BFA40108FF
:1001500000F002F800F062F80AA090E8000C824477
:100160008344AAF10107DA4501D100F057F8AFF254
:10017000090EBAE80F0013F0010F18BFFB1A43F085
:100180000103184788560400A85604000A444FF09B
:10019000000C10F8013B13F0070408BF10F8014BE6
:1001A0001D1108BF10F8015B641E05D010F8016B2B
:1001B000641E01F8016BF9D113F0080F1EBF10F88F
:1001C000014BAD1C0C1B09D16D1E58BF01F801CBB2
:1001D000FAD505E014F8016B01F8016B6D1EF9D535
:1001E0009142D6D37047000000230024002500264A
:1001F000103A28BF78C1FBD8520728BF30C148BF8A
:100200000B60704764290AF0DF8173290AF0638369
:10021000002070471FB51FBD10B510BD0AF09AFB36
:100220001146FFF7F7FF03F0DAFE0AF0B8FB03B45C
:10023000FFF7F2FF03BC0AF0B9FB0000EFF30980FF
:10024000704780F309887047EFF30880704780F3A8
:100250000888704740BA7047C0BA704730B51E4929
:10026000B1F1807F00D31DE021F07F40401E4FF0B0
:10027000E022506150170F22002807DA13071D0EE5
:10028000164B00F00F04241F1D5503E013071C0E2E
:10029000134B1C5400BF00204FF0E0229061072058
:1002A000106100BF30BD014642F2887201FB02F0CE
:1002B00000E0401E0028FCD1704700EB400202EB3A
:1002C000C00100E0491E0029FCD17047014600E052
:1002D000491E0029FCD170474019010018ED00E0CB
:1002E00000E400E040F2E730FE490880084600885C
:1002F000FD4908800020FD490880704740F2E73042
:10030000FB49088008460088FA49088070470920A0
:10031000F949088008460088F84908800020F84913
:100320000880704740F2E730F649088008460088A8
:10033000F54908800020F5490880704740F2E73011
:10034000F349088008460088F2490880704700B5E4
:1003500000222FE0F04850F82200F04901EB021192
:100360000860EF4830F81200EC4901EB0211888078
:10037000EA4800EB02108088401EE84901EB0211B8
:10038000C880E64800EB02108088401EE34901EB7C
:10039000021108810020E14901EB02114881DF4888
:1003A00000EB02108088401EDC4901EB02118881BD
:1003B000501CC2B20A2ACDDBFFF7C0FFFFF7B2FF25
:1003C000FFF7A5FFFFF79AFFFFF78CFF00BD30B5E1
:1003D000D24B03EB00135B89D04C04EB0014A488D0
:1003E000A34223DACD4B03EB00131B895B1CCB4CE0
:1003F00004EB0014A48893FBF4F504FB1533C74CFD
:1004000004EB00142381C54B03EB00131B68C34CA2
:1004100004EB001424891A191170C04B03EB00136C
:100420005B895B1CBD4C04EB0014638130BD10B5CF
:100430000146BA4800EB01104089002824DDB74886
:1004400000EB0110C088401CB44B03EB01139B88E8
:1004500090FBF3F403FB1400B04B03EB0113D880C3
:10046000AE4800EB01104089401EAC4B03EB01137A
:100470005881AA4800EB01100068A84B03EB011358
:10048000DB88C218107810BD0020FCE710B50146CB
:10049000A24800EB0110408900281BDD9F4800EBBB
:1004A00001108089401C9D4B03EB01139B8890FB3E
:1004B000F3F403FB1400994B03EB01139881974865
:1004C00000EB01100068954B03EB01139B89C218E8
:1004D000107810BD0020FCE7904901EB00118988DD
:1004E000491E8E4A02EB0012D1808C4901EB0011AB
:1004F0008988491E894A02EB001211810021874A2E
:1005000002EB0012518170470146844800EB011054
:10051000408970470146814800EB011080887F4A7E
:1005200002EB01125289801A80B270477948028822
:10053000774801888A4202DB501A80B2704702F580
:100540007A70401A80B2F9E700B50346FFF7EEFF74
:10055000B0F57A7F0DDA6F480088401C4FF47A714D
:1005600090FBF1F201FB12006A4908806D4809888E
:10057000435400BD674800886549098888420ED009
:1005800063480088401C4FF47A7190FBF1F201FB44
:1005900012005F49088063480988405C7047FF206B
:1005A000FCE700B5FFF7C2FFC0F57A7080B200BD6E
:1005B00056490988B1F57A7F13DA53490988491CED
:1005C0004FF47A7291FBF2F302FB13114E4A118041
:1005D0004E490988491C4D4A118053494A4A12889C
:1005E0008854704749480088002814DD4548008831
:1005F000401C4FF47A7190FBF1F201FB120041496B
:10060000088042480088401E4049088046483D49CD
:100610000988405C70470020FCE73C480088C0F532
:100620007A7080B2704741480288414801888A4206
:1006300002DB501A80B2704702F10A00401A80B201
:10064000F9E709203A4908800846008837490880B8
:10065000704700B50346FFF7E6FF0A280DDA334876
:100660000088401C0A2190FBF1F201FB12002F4987
:1006700008803048098820F8113000BD2B480088D8
:100680002B49098888420ED029480088401C0A213D
:1006900090FBF1F201FB12002549088025480988EA
:1006A00030F8110070474FF6FF70FBE700B5FFF719
:1006B000BAFFC0F10A0080B200BD114909880A29B9
:1006C00040DA0E490988491C0A2291FBF2F302FB29
:1006D00013110A4A11800A490988491C084A1180E5
:1006E00015492BE01A0000201C00002018000020F3
:1006F000140000201600002010000020120000202E
:100700000E00002006000020080000200400002049
:10071000000000200200002008BE01080413002091
:10072000F4BD0108D8020020C00600200C00002003
:100730000A000020A80A0020BC0A00204D4A1288A6
:1007400021F8120070474C480088002814DD4B48FF
:100750000088401C0A2190FBF1F201FB120047497E
:10076000088045480088401E434908804448434962
:10077000098830F8110070470020FCE73E480088E7
:10078000C0F10A0080B270473E4802883E480188A6
:100790008A4202DB501A80B2704702F57A70401A22
:1007A00080B2F9E737490988491C4FF47A7291FB06
:1007B000F2F302FB1311334A118034491288885432
:1007C0007047304800883049098888420ED02E484A
:1007D0000088401C4FF47A7190FBF1F201FB12008B
:1007E0002949088029480988405C7047FF20FCE7B8
:1007F00000B5FFF7C9FFC0F57A7080B200BD24498B
:100800000988B1F57A7F13DA22490988491C4FF427
:100810007A7291FBF2F302FB13111E4A11801C49FC
:100820000988491C1A4A11801B491A4A128888549F
:10083000704717480088002814DD18480088401CBD
:100840004FF47A7190FBF1F201FB1200134908801A
:100850000F480088401E0E4908800F480F4909883C
:10086000405C70470020FCE709480088C0F57A70BA
:1008700080B27047120000200E00002010000020FF
:10088000BC0A00201600002014000020D00A00201E
:10089000180000201C000020B80E00201A000020C4
:1008A0007047374A3748002105E013680360121D7E
:1008B000001D4B1C99B25929F7D370472DE9F0411F
:1008C00007F01DFB352007F04CFF052726E02C48DC
:1008D00007F09BFB2A4D2B4E002407E02846316889
:1008E00007F0C1FC2D1D361D601C84B2592CF5D3B8
:1008F0004FF00108224D234E002409E0286831689A
:10090000884201D04FF000082D1D361D601C84B2B6
:10091000592CF3D3B8F1000F00D004E03800A7F150
:100920000101CFB2D3D100BFBDE8F08108B51649AF
:100930006A4608681060009808BDF1B507F0DFFA54
:10094000352007F00EFF052612E00F4807F05DFB8B
:100950000D4C6D462046296807F085FC012700BF35
:1009600000BF20682968884200D0002707B104E052
:100970003000A6F10101CEB2E7D100BFF8BD000002
:1009800000F80F08A413002000F8000870B588B024
:100990002021684609F0E2FEC6208DF800000E20F6
:1009A0008DF8010055208DF810000026FE480088C3
:1009B000864201DAFC480688FC480088864201DA53
:1009C000FA480688002540E0F7480088854211DA99
:1009D00000240CE004EB4400C0EBC410F44901EB2C
:1009E0000010415DA01C0DF80010601CC4B2022C68
:1009F000F0DB04E00020CDF80200ADF80600EB4883
:100A00000088854212DA00240DE0C4EB041000EBEC
:100A10008000E84901EBC00010F81510201D0DF80A
:100A20000010601CC4B20C2CEFDB03E0002101912C
:100A3000029103911121684605F070FE00BFDE4867
:100A400000880028FBDC681C85B2B542BCDBDB48B3
:100A5000008800128DF80200D84800788DF8030055
:100A6000D248008800128DF80400D04800788DF834
:100A7000050000208DF806008DF807008DF80800AD
:100A80008DF809008DF80A001121684605F046FE30
:100A900000208DF802008DF803008DF804008DF819
:100AA00005008DF806008DF807008DF808008DF818
:100AB00009008DF80A001121684605F02FFE00207C
:100AC0008DF802008DF803008DF804008DF8050004
:100AD0008DF806008DF807008DF808008DF80900E4
:100AE0008DF80A001121684605F018FE00208DF8E7
:100AF00002008DF803008DF804008DF805008DF8D4
:100B000006008DF807008DF808008DF809008DF8B3
:100B10000A001121684605F001FE00208DF8020050
:100B20008DF803008DF804008DF805008DF806009F
:100B30008DF807008DF808008DF809008DF80A007F
:100B40001121684605F0EAFD002514E0002405E0C7
:100B5000FF21A01C0DF80010601CC4B20E2CF7DBA6
:100B60001121684605F0DAFD00BF9348008800288F
:100B7000FBDC681C85B2062DE8DB08B070BD70B5E3
:100B80008EB0C7208DF804002C208DF8050055206C
:100B90008DF832002C210DF1060009F0BDFD002476
:100BA00011E087480088C0F30720022101EB4401CF
:100BB00001AA505482480178022000EB4400401CF6
:100BC0001154601CC4B2162CEBDB2F2101A805F0D8
:100BD000A5FD00BF784800880028FBDC2C210DF122
:100BE000060009F099FD00252BE000241CE0C4EB71
:100BF0004410C0EB0420734901EB8000405D0012FB
:100C0000022101EB440101AA5054C4EB4410C0EB93
:100C100004206C4901EB8000415D022000EB4400A0
:100C2000401C1154601CC4B2162CE0DB2F2101A81B
:100C300005F074FD00BF604800880028FBDC681CDC
:100C400085B25F4800688542CFD32C210DF10600A4
:100C500009F062FD002659480088544909888842F5
:100C600002DD5648008801E0504800880646564894
:100C70000088864201DD304601E053480088064680
:100C8000002436E0022C0FDA4C48008800120221C2
:100C900001EB440101AA505448480178022000EBBE
:100CA0004400401C115422E0032C0FDA464800880F
:100CB0000012022101EB440101AA5054424801787C
:100CC000022000EB4400401C115410E00F2C0EDAFF
:100CD000364800880012022101EB440101AA505459
:100CE00032480178022000EB4400401C1154601C83
:100CF000C4B2162CC6DB2F2101A805F00FFD00257C
:100D00007EE02C210DF1060009F006FD00246AE0CA
:100D1000022C16DA29480088854262DA0020022176
:100D200001EB440101AA505440F2A9106043274945
:100D300001EB4000415D022000EB4400401C1154D7
:100D40004FE0032C11DA20480088854249DA002060
:100D5000022101EB440101AA50541D48415D0220CB
:100D600000EB4400401C11543BE00F2C39DA0F48D3
:100D70000088854235DAE01EC0EB001000EB8000F1
:100D80000C4901EBC00030F815000012022101EB04
:100D9000440101AA5054E01EC0EB001000EB80009B
:100DA000044901EBC00015E0CC000020CE0000207B
:100DB000344B0020DEB3002004000020C8000020D7
:100DC000B4000020485C0020C6000020B5A9002027
:100DD00059B0002010F81510022000EB4400401C10
:100DE0001154601CC4B2162C92DB2F2101A805F00F
:100DF00095FC00BFF94800880028FBDC681C85B220
:100E0000B542FFF67EAF002514E0002405E0FF2187
:100E1000A01C01AA1154601CC4B22C2CF7DB2F219A
:100E200001A805F07BFC00BFEC4800880028FBDC33
:100E3000681C85B2062DE8DB0EB070BD30B589B0F8
:100E4000C6208DF8040019208DF8050055208DF876
:100E50001F000025F3E0EDB9E148008800128DF88D
:100E60000600DF48008800128DF80700002408E023
:100E7000DC480088C0F30721201D01AA1154601C22
:100E8000C4B2162CF4DBD84800880112201D01AA38
:100E90001154C9E0012D19D1D14800788DF8060010
:100EA000CF4800788DF80700002406E0CD4801788F
:100EB000201D01AA1154601CC4B2162CF6DBCA48CE
:100EC00000880112201D01AA1154ADE0C448008819
:100ED000801C854211DA00240CE040F2A910604326
:100EE000C24901EB4001A81E095CA01C01AA1154D3
:100EF000601CC4B2022CF0DB09E0002405E00021F4
:100F0000A01C01AA1154601CC4B2022CF7DBB64825
:100F10000088801C854205DAA81EB549085C8DF85A
:100F20001E0002E000208DF81E00B5F5167F22DCC1
:100F3000AC480068801C854212D200240DE0C4EB4E
:100F40004410C0EB0420AB4901EB8001A81E095CF2
:100F5000201D01AA1154601CC4B2162CEFDB63E003
:100F6000002405E00021201D01AA1154601CC4B218
:100F7000162CF7DB58E040F25920854213D10024AB
:100F80000EE00C2C06DA9C4800880112201D01AAF4
:100F9000115403E00021201D01AA1154601CC4B2A9
:100FA000162CEEDB40E040F25A20854212D100249C
:100FB0000DE00C2C05DA90480178201D01AA11548F
:100FC00003E00021201D01AA1154601CC4B2162C9C
:100FD000EFDB29E000241BE0A5F51670864909889F
:100FE000891C88420EDAC4EB041000EB80008349B0
:100FF00001EBC001A5F25A2011F81010201D01AA22
:10100000115403E00021201D01AA1154601CC4B238
:101010000C2CE1DB0C2405E00021201D01AA115459
:10102000601CC4B2162CF7DB1C2101A805F076FB6E
:1010300000BF6A4800880028FBDC681C85B2B5F553
:10104000617FFFF608AF002514E0002405E0FF21D2
:10105000A01C01AA1154601CC4B2192CF7DB1C217E
:1010600001A805F05BFB00BF654800880028FBDC99
:10107000681C85B2062DE8DB09B030BD7CB50020C8
:1010800000900190C6208DF8000004208DF801002A
:1010900055208DF806005B4800685B490988884246
:1010A00002D95848006801E05748008885B257487F
:1010B0000088A84202DD5548008800E02846054621
:1010C000002434E04F480068844204D85048005D52
:1010D0008DF8020002E000208DF802004A480088E6
:1010E000844204DC4B48005D8DF8030002E00020E0
:1010F0008DF8030045480088844208DC4648005DBE
:101100008DF804004548005D8DF8050004E00020DE
:101110008DF804008DF805000721684605F0FEFAF9
:1011200000BF374800880028FBDC601C84B2AC425A
:10113000C8DB002413E0FF208DF802008DF80300C7
:101140008DF804008DF805000721684605F0E6FAE1
:1011500000BF2B4800880028FBDC601C84B2062CF2
:10116000E9DB7CBD00B585B030208DF8000004209F
:101170008DF801002A4800788DF802002848407850
:101180008DF80300264880788DF804002448C07844
:101190008DF8050055208DF806000721684605F0FA
:1011A000BDFA05B000BD10B540211E4807F0EFFBA9
:1011B00030B980211B4807F0EAFB08B9232010BD95
:1011C0004021184807F0E3FB08B92020F7E7802109
:1011D000144807F0DCFB38BB2120F0E704000020B6
:1011E000C8000020B4000020C6000020B5A90020DF
:1011F00059B00020485C0020CE000020DEB3002063
:1012000018000020840000207E000020040100203F
:101210003F460020574200209F3600207B3C0020A4
:10122000B615002000100140FFE74FF48071FC4824
:1012300007F0ADFB08B92220C1E7FF20BFE72DE989
:10124000F0410025F7480078022803D0F5480078DF
:10125000012876D1002470E0F34830F8146076BBA2
:10126000F24B9A6A012303EB4403DFF8C4C33CF852
:10127000131063003CF81330183B98B206F0AAF83C
:10128000EA4B9A6A012303EB4403DFF8A4C33CF85A
:10129000131063003CF813300C3B98B206F09AF838
:1012A000E24B1A68012303EB4403DFF884C33CF8E4
:1012B000131063003CF8130006F08CF83BE0FFE7E6
:1012C000002536E0F6B10A20B6FBF0F100FB11670D
:1012D0006300DFF85CC33CF813304FF00C0C0CFBE0
:1012E000153398B2D14B53F82720012303EB440365
:1012F000DFF83CC33CF8131006F06CF80A20B6FB8C
:10130000F0F614E06300DFF828C33CF813304FF028
:101310000C0C0CFB153398B2C44B9A6A012303EBF7
:101320004403DFF80CC33CF8131006F053F8681CB4
:10133000C5B2032DC6DB601CC4B2072C8CDBFCE0FD
:10134000FFE7B84800780B2803D0B6480078152886
:10135000F5D10024EEE0B44830F81460002E68D1D6
:10136000032C37DBB14B9A6A631C4FF0010C0CEB7A
:101370004303DFF8BCC23CF81310631C5B003CF86D
:101380001330183B98B206F025F8A84B9A6A631CF4
:101390004FF0010C0CEB4303DFF894C23CF8131040
:1013A000631C5B003CF813300C3B98B206F012F85B
:1013B0009E4B1A68631C4FF0010C0CEB4303DFF8E3
:1013C00070C23CF81310631C5B003CF8130006F07D
:1013D00001F8ADE0954B9A6A012303EB4403DFF873
:1013E00050C23CF8131063003CF81330183B98B21D
:1013F00005F0F0FF8D4B9A6A012303EB4403DFF8FD
:1014000030C23CF8131063003CF813300C3B98B228
:1014100005F0E0FF854B1A68012303EB4403DFF876
:1014200010C23CF8131063003CF8130005F0D2FF23
:101430007EE0032C41DB00253CE00EB30A20B6FB26
:10144000F0F100FB1167631C5B00DFF8E4C13CF8BE
:1014500013304FF00C0C0CFB153398B2734B53F850
:101460002720631C4FF0010C0CEB4303DFF8C0C1D5
:101470003CF8131005F0AEFF0A20B6FBF0F617E0BB
:10148000631C5B00DFF8A8C13CF813304FF00C0C74
:101490000CFB153398B2654B9A6A631C4FF0010C34
:1014A0000CEB4303DFF888C13CF8131005F092FF02
:1014B000681CC5B2032DC0DB3AE0002536E0F6B16A
:1014C0000A20B6FBF0F100FB11676300DFF860C192
:1014D0003CF813304FF00C0C0CFB153398B2534B07
:1014E00053F82720012303EB4403DFF844C13CF801
:1014F000131005F06FFF0A20B6FBF0F614E063004E
:10150000DFF82CC13CF813304FF00C0C0CFB1533FA
:1015100098B2464B9A6A012303EB4403DFF810C1EB
:101520003CF8131005F056FF681CC5B2032DC6DB4E
:10153000601CC4B2062CFFF60EAFBDE8F08170B59A
:101540003C48007810B93C48056801E03B480588F4
:10155000002429E095B10A20B5FBF0F100FB1156FB
:10156000374951F826206101C1F58D7188B2B42147
:1015700005F030FF0A20B5FBF0F513E04CB9304917
:101580000A686101C1F58D7188B2B42105F022FFAE
:1015900008E02B498A6A6101C1F58D7188B2B421D6
:1015A00005F018FF601CC4B2072CD3DB70BD70B50A
:1015B00024480468006890B923486421826A6E2038
:1015C00005F008FF20486421826A9E2005F002FF92
:1015D0001D4864210268CE2005F0FCFE1EE0B4F533
:1015E0007A7F01D340F2E734002515E00A20B4FBEE
:1015F000F0F100FB1146144951F8262005EB450196
:101600000901C1F1CE0188B2642105F0E3FE681C36
:10161000C5B20A20B4FBF0F4002CE7D170BD000085
:101620000010014001010020145C00206C0100202A
:1016300098010020750000200C01002010010020FE
:1016400040010020080100201401002010B5F748D7
:10165000007840B9F648007828B9FFF7A8FFFFF7EF
:101660006EFFFFF7ECFD10BD10B50020F1490860DA
:10167000F1490880F14908601821F14809F04CF857
:1016800010BDEA490870704730B503463025541E36
:101690000D5500248C5410460FE00A2493FBF4F5FA
:1016A00004FB15343034E5B2441E0D55E0B200B9E8
:1016B00005E00A2493FBF4F4A3B2002BEDDC00BF99
:1016C000904201D1441EE0B203E02025441E0D5596
:1016D000E0B20028F9DC30BD10B5DA480078002807
:1016E00019DD182005F0B6FD002005F0B9FD4FF416
:1016F000784005F0B2FDD448D4A109680160022207
:10170000011DD0480078FFF7BFFFD4220021CE484A
:1017100005F0A9FD14E0182005F09CFD002005F05F
:101720009FFD002005F099FDC748CAA10A68026024
:101730008A88828089798171D422002105F093FD05
:1017400010BD10B5C548007828B9C54AA5210020AC
:1017500005F040FE04E0C34AA521002005F03AFE52
:10176000C1480078012806D1C04A64214FF48C702A
:1017700005F030FE05E0BE4A64214FF48C7005F0A0
:1017800029FE10BD10B5BB4A0021084605F022FE17
:10179000B94A5A21282005F01DFEB84A7321282095
:1017A00005F018FEB64A8C21282005F013FEB54836
:1017B000007801280AD1B44A0021084605F00AFE43
:1017C000B24A0021522005F005FE2BE0AD4800781A
:1017D00002280AD1AE4A0021084605F0FBFDAD4AB9
:1017E0000021522005F0F6FD1CE0A64800780B28E9
:1017F0000AD1A94A0021084605F0ECFDA74A0021BC
:10180000522005F0E7FD0DE09E480078152809D12B
:10181000A34A0021084605F0DDFDA24A002152201E
:1018200005F0D8FDA04A8C214FF4877005F0D2FD59
:1018300010BD10B5FFF7A6FFFFF783FFFFF706FF08
:10184000FFF74AFF10BD10B504467948007801281B
:1018500009D1222C05D1002075490870FFF7E9FF56
:1018600000E000BFCEE0724800780028FAD1232CB7
:101870000ED006DC202C3AD0212C79D0222C16D187
:1018800016E0402C3ED0412C73D0422CF7D11EE004
:101890008648007810B904F0F9FC08E08348007825
:1018A000022802D104F0FEFC01E004F075FCA8E07F
:1018B0006D480078012803D100206B49087002E0D0
:1018C00001206949087001207949087099E00020D9
:1018D000FFF7D7FE0120774908700020764908807D
:1018E00058490870FFF7C0FEFFF7B0FE89E0734863
:1018F000007818B901207149087002E000206F4992
:1019000008707EE05F48007801280DD102205D4913
:1019100008705F4A0021084605F05CFD5D4A002121
:10192000522005F057FD36E05648007802280DD1C8
:101930000B2054490870584A0021084605F04AFD1A
:10194000564A0021522005F045FD24E04D4800781C
:101950000B280FD115204B490870514A0021084629
:1019600005F038FD4F4A0021522005F033FD12E00A
:1019700016E023E04348007815280CD101204149A6
:101980000870414A0021084605F024FD3F4A002125
:10199000522005F01FFDFFF767FEFFF757FE30E00E
:1019A0002E48007818B901202C49087002E0002068
:1019B0002A49087001203E49087022E0404800781A
:1019C000012818D100203E49087041F22710FEF787
:1019D000B4FF6420FEF767FC00BF3A48006800F4DB
:1019E000E06039490843001D36490860BFF3408F65
:1019F00000BF00BFFEE735480078401C334908703F
:101A000000BF00BF10BD10B50020FEF77DFD00280F
:101A10000BDD0020FEF70BFD04460448007818B9E2
:101A20002046FFF710FF00BF00BF10BD1E000020C2
:101A30000201002008010020100100200C010020FC
:101A4000145C0020D30000209C5B00204A414D3AEA
:101A5000000000004A414D3A38380000750000206F
:101A6000706702008078020076000020D02807000E
:101A70008820070070431C00E0970200E0C40200C9
:101A8000089F02000101002028840C00404B1A002E
:101A9000F04609005072100008A70B0000AB1700B9
:101AA00098150C0020FB1800B0070700F201002079
:101AB0007700002097000020DE000020E8000020D2
:101AC000EB0000200CED00E00000FA05EA00002029
:101AD0007CB506460C46FE48007800B17CBD304619
:101AE00008F0AEFD85B22946304604F017FE002C02
:101AF00009DD0D208DF800000A208DF8010002217B
:101B0000684604F00BFE00BFE8E730B504460D461A
:101B1000032229462046FFF7B7FD30BDED4909787D
:101B2000012904D1EC4908701421EC4A1170704766
:101B300010B50246C31700EB13731B11E84CE35CAE
:101B40000B70C31700EB13731B11A0EB0313E35CC3
:101B50004B7000228A7010BD70B50024E14820440B
:101B6000E1A10A68026009790171641D002510E095
:101B7000DF48465DDB4801193046FFF7D9FFA01C5E
:101B8000C4B220222046611CCCB2D6490A54681C3B
:101B9000C5B2162DECDB00222046611CCCB2D14927
:101BA0000A540121CF48FFF793FF0024CD48204479
:101BB000D0A10A68026089888180A41DCF48067878
:101BC000C84801193046FFF7A0FFE41C2022214637
:101BD000641CC448425400222146641C4254002123
:101BE000FFF776FF0024BF482044C5A10A680260C1
:101BF00089888180A41DC1484678BA4801193046B9
:101C0000FFF783FFE41C20222146641CB5484254A0
:101C100000222146641C42540021FFF759FF002492
:101C2000B0482044B8A10A68026089888180A41D58
:101C3000B7480678AB4801193046FFF766FFE41C49
:101C400020222146641CA7484254B1484678A54842
:101C500001193046FFF759FFE41C20222146641C7D
:101C6000A0484254AA4886789E4801193046FFF79A
:101C70004CFFE01CC4B220222046611CCCB2994922
:101C80000A5400222046611CCCB296490A54002115
:101C90009448FFF71DFF0024924820449DA10A6844
:101CA000026089888180A41D9948C6788D480119F1
:101CB0003046FFF72AFFE41C20222146641C894895
:101CC000425493480679874801193046FFF71DFFB3
:101CD000E41C20222146641C824842548C484679E8
:101CE000804801193046FFF710FFE01CC4B22022E3
:101CF0002046611CCCB27B490A5400222046611C5C
:101D0000CCB278490A5400217648FFF7E1FE00245E
:101D10007448204481A10A68026089888180A41DDA
:101D20007B4886796F4801193046FFF7EEFEE41CC8
:101D300020222146641C6B4842547548C679694884
:101D400001193046FFF7E1FEE41C20222146641C05
:101D5000644842546E48067A624801193046FFF7DB
:101D6000D4FEE01CC4B220222046611CCCB25D49E6
:101D70000A5400222046611CCCB25A490A54002160
:101D80005848FFF7A5FE00245648204465A10A687C
:101D9000026089888180A41D5D48467A51480119F6
:101DA0003046FFF7B2FEE01CC4B220222046611C80
:101DB000CCB24C490A545648867A08460119304636
:101DC000FFF7A3FEE01CC4B220222046611CCCB267
:101DD00044490A544E48C67A084601193046FFF76E
:101DE00094FEE01CC4B220222046611CCCB23D49C6
:101DF0000A5400222046611CCCB23A490A540121FF
:101E00003848FFF765FE00243648204447A10A6899
:101E100002604A684260098901810A3446480678AE
:101E2000304801193046FFF770FEE41C202221469D
:101E3000641C2C48425400222146641C4254002158
:101E4000FFF746FE0024274820443CA10A680260B0
:101E500009790171641D3B48067822480119304612
:101E6000FFF753FEE41C20222146641C1D48425407
:101E700000222146641C42540021FFF729FE002461
:101E80001848204430A10A68026009790171641D74
:101E90002F480678134801193046FFF736FEE41C38
:101EA00020222146641C0F48425400222146641C13
:101EB00042540121FFF70CFE00240A48204425A1CA
:101EC0000A88028089788170E41C2348067845E0FE
:101ED0006000002076000020AA000020AB00002057
:101EE000B8BE01089C5B0020B2E2B3A43A00000037
:101EF000B6150020B4C5D0D4313A00002B00002024
:101F0000B4C5D0D4323A0000D1D5C9AB313A2000A3
:101F1000CB150020D1D5C9AB323A2000D1D5C9AB01
:101F2000333A2000D1D5C9AB343A2000BAECCDE227
:101F3000B7A2C9E4203A000020000020C2EBC5CCC3
:101F40003A00000078000020BDF8B3AE3A0000006F
:101F50002E00002055563A002D000020FC480119A3
:101F60003046FFF7D2FDE41C20222146641CF848CD
:101F7000425400222146641C42540121FFF7A8FD6F
:101F80000024F3482044F3A10A88028089788170F4
:101F9000E41CEF4A1119F04A1078FFF7B6FDE41C73
:101FA00020222146641CEA48425400222146641C37
:101FB00042540021FFF78CFD0024E54A1119E64A3E
:101FC0005078FFF7A2FDE41C20222146641CE04863
:101FD000425400222146641C42540121FFF778FD3F
:101FE0000024DB482044DDA109680160241D402154
:101FF000DC4806F0CCFC0646D54801193046FFF710
:1020000084FDE41C20222146641CD1484254002255
:102010002146641C42540021FFF75AFD0024802110
:10202000D04806F0B4FC0646C94801193046FFF70F
:102030006CFDE41C20222046611CCCB2C4490A5429
:1020400000222046611CCCB2C1490A540021C0487C
:10205000FFF73EFD00244FF48071C24806F097FC64
:102060000646BB4801193046FFF74FFDE41C20220D
:102070002146641CB648425400222146641C425446
:102080000121FFF725FD0121B748FFF721FD70BDB4
:1020900070B5B6480078012805D1FEF775FB18B970
:1020A0000020B2490870F3E2FEF78BFB0546B0480A
:1020B00000780028F7D1A72D7DD01CDCA02D60D0A2
:1020C00010DC622D29D006DC422D22D0482D53D0C1
:1020D000612D71D128E0652D29D0672D4ED0682D56
:1020E000F7D14AE0A5F1A100062865D2DFE800F0AB
:1020F0004C757E878F94A5F1A8000F28F5D2DFE8F4
:1021000000F099A2A6AAFDFCFB5B5BFAF9F8F7F6D2
:10211000F500002097490870B9E201209549087040
:10212000002095490870B2E2FEF729FDAFE20020D9
:10213000924908704FF40071914806F042FC01206A
:10214000904908706420FEF7AEF800208E490870B0
:102150008E4908808E4908808E4908608E49088023
:1021600001208E4908708E4908708E4908704FF41E
:1021700016708D4908808AE289E288E2FEF77EFFC8
:1021800085E2FFF7E9FC82E288480078A8B90320DD
:10219000FFF777FA04F000F82021854806F013FCD9
:1021A000012084490870002074490870012182A030
:1021B000FFF78EFC10E034E068E20020FFF761FAE0
:1021C00001206E490870002080490870FFF731FB3C
:1021D00001217FA0FFF77CFC59E24FF400716848B1
:1021E00006F0EFFB01206749087050E24FF40071E0
:1021F000634806F0E8FB00206249087047E20120CE
:10220000FFF78CFC012176A0FFF762FC3FE2402142
:10221000674806F0D6FB3AE24021654806F0D3FB5A
:1022200035E27148007810B103F0B6FF01E004F028
:102230002DF82CE26C48007810B103F0ADFF01E0FE
:1022400004F030F823E201204B4908701FE200201F
:10225000494908701BE24FF40071494806F0B1FB90
:102260000120484908700020FFF70BFA012043497C
:1022700008706420FEF717F815225C495C4808F0E6
:10228000FEF901215BA0FFF723FC00240EE02020D3
:102290002F4908705649085D2D49491CFFF735FC48
:1022A00000212B48FFF714FC601CC4B2152CEEDB98
:1022B000012153A0FFF70CFC15224D49514808F0AD
:1022C000DEF902205049087000205049087054215E
:1022D0004F4808F043FA15214E4808F01DFA2A210C
:1022E0004D4808F019FAFF222A2108E0BAE19CE1E2
:1022F0007FE162E14DE137E1DBE01CE007E04748C8
:1023000008F002FA012146A0FFF7E2FBBFE14C48CA
:102310000078012807D1002049490870012149A00F
:10232000FFF7D6FB06E001204549087001214AA0CD
:10233000FFF7CEFBABE14D480078012807D1002024
:102340004A49087001214AA0FFF7C2FBB0E095E0BE
:102350009C5B002050533A002F0000204B45593A17
:102360000000000000100140185605081C02002063
:1023700060000020AE000020E80000209700002050
:10238000000C01402000002096000020C800002022
:10239000C6000020B4000020CE000020590000201C
:1023A000C2000020BD000020940000201E0000207C
:1023B000000801402200002053454E534F525F5603
:1023C0004945575F53544154450000000201002025
:1023D0004E4F524D414C5F53544154450000000054
:1023E0006265657000000000F2010020B615002053
:1023F000D4130020BFD5D4D8BAECCDE2D6B50000B6
:1024000020000000A0A900200602002007020020F2
:1024100000D0002054D0002094D00020BED0002056
:10242000BFAACABCBAF1B0D7D6BDD0A3D5FD2CB7D0
:10243000C5C8EB383067BAF1B0D7D6BD0000000090
:10244000AF000020B2E2B3A4CAE4B3F6D0A3D5FD36
:10245000CAFDBEDD00000000B2E2B3A4CAE4B3F6D8
:10246000D4ADCABCCAFDBEDD0000000025000020BE
:10247000D1D5C9ABB5C6B4F2BFAA00000120F94955
:1024800008700121F8A0FFF723FB4FF47A70FDF7E5
:102490000AFF4FF48051F74806F095FA4FF40051C7
:1024A000F44806F090FA4FF48041F24806F08BFAB7
:1024B000EDE0F1480078022811D1C102ED4806F0A4
:1024C00082FA4FF40051EB4806F07DFA4FF4804158
:1024D000E84806F078FA0320E749087043E0E64848
:1024E0000078A0B94FF48051E24806F06CFA4FF43E
:1024F0000051E04806F065FA0120DF4908708103C9
:10250000DC4806F060FA0120DB4908702BE0DA486D
:102510000078012812D10103D64806F054FA4FF48E
:102520000051D44806F04FFA4FF48041D14806F0EC
:1025300048FA0220D0490870087014E04FF4805126
:10254000CC4806F03EFA0020CB4908704FF4005109
:10255000C84806F038FA4FF48041C64806F033FA0E
:102560000020C549087092E00020BE490870FFF7BE
:1025700088F80120C14908706420FDF794FE01200D
:10258000BF490870BF4908700121BFA0FFF7A0FA3A
:102590007DE0BC480078012807D10020B9490870C7
:1025A0000121BFA0FFF794FA06E00120B5490870A9
:1025B0000121C0A0FFF78CFA69E0C3480078012828
:1025C0000BD11021AB4806F0FEF90020BE4908707F
:1025D0000121BEA0FFF77CFA0AE01021A54806F011
:1025E000F0F90120B84908700121BBA0FFF770FA8B
:1025F0004DE0BC48007801280BD12021BA4806F0F4
:10260000E0F90020B74908700121B8A0FFF760FA8F
:102610000AE02021B44806F0D6F90120B14908703B
:102620000121B6A0FFF754FA31E0B848007801283C
:102630000BD141028F4806F0C6F90020B34908705B
:102640000121B3A0FFF744FA0BE04FF40071894871
:1026500006F0B7F90120AD4908700121B0A0FFF7DD
:1026600037FA14E0B2480078012807D10020B049B9
:1026700008700121AFA0FFF72BFA06E00120AC495A
:1026800008700121AFA0FFF723FA00E000BF00BFF0
:1026900070BDB0480068401CAE490860AE48007884
:1026A000012806D1AD48AE490978405CAD490880A3
:1026B00022E0A9480078022807D1AB48A849097848
:1026C00030F81100A749088016E0A34800780B28CD
:1026D00007D1A648A249097830F81100A14908801D
:1026E0000AE09D480078152806D1A1489C49097840
:1026F00030F811009B4908809E4800689949098874
:1027000008449C4908609C489549097830F81100B4
:10271000401C9949924A127821F812007047002013
:1027200096490880964800789649097888420ED0E4
:1027300089480078012803D10020904908801BE0D7
:102740008E48008840F004008C49088014E08E48D0
:102750000078012806D18948008840F002008749A6
:10276000088009E089480078012805D1834800885D
:1027700040F008008149088080480088002843D143
:1027800075480078012840D17D480078132831D25F
:10279000DFE800F00A0B0C1011121617181C1D1E92
:1027A0002223242830302C0000BF00BF00206C49B9
:1027B000087029E000BF00BF01206949087023E0CC
:1027C00000BF00BF0220664908701DE000BF00BFC7
:1027D00003206349087017E000BF00BF0420604970
:1027E000087011E005205E4908700DE006205C4984
:1027F000087009E0FF205A4908706048008840F0DE
:1028000001005E49088000BF5BE153480078022860
:1028100025D15B4800780E2822D2DFE800F00708B7
:102820000C0D111216171B1CB9BABEBF00BF002039
:102830004B490870C0E000BF012049490870BBE067
:1028400000BF022046490870B6E000BF032044499B
:102850000870B1E000BF042041490870ACE0ACE072
:10286000A0E0000025000020D1D5C9ABB5C6B9D87D
:10287000B1D50000000C014023000020970000208B
:1028800006020020B0000020BFAACABCD1D5C9AB47
:10289000D0A3D5FD2CB7C5C8EB4134D6BD00000090
:1028A000D1D5C9ABCAE4B3F6D0A3D5FDCAFDBEDD10
:1028B00000000000D1D5C9ABCAE4B3F6D4ADCABCA0
:1028C000CAFDBEDD00000000210000205556B5C63F
:1028D000B9D8B1D5000000005556B5C6B4F2BFAAAC
:1028E000000000002200002000080140BDF8B3AE47
:1028F000BAECCDE2B9D8B1D500000000BDF8B3AE56
:10290000BAECCDE2B4F2BFAA000000002000002023
:10291000B2E2B3A4BAECCDE2B9D8B1D50000000060
:10292000B2E2B3A4BAECCDE2B4F2BFAA0000000058
:10293000BA000020B5F7CAD4B4AEBFDAB9D8B1D561
:1029400000000000B5F7CAD4B4AEBFDAB4F2BFAA33
:1029500000000000080100200101002065BE010800
:10296000050200201001002070BE010884BE01088D
:1029700098BE01080C010020145C0020FE0000201D
:102980001F02002026020020230200202A0200202D
:1029900000BF0520FE4908700EE000BF0620FC497C
:1029A000087009E0FF20FA490870FA48008840F0F2
:1029B0000100F849088000BF83E0F74800780B2841
:1029C0004FD1F64800781A2840D2DFE800F00D0E0B
:1029D0000F131415161B1C1A212220272826292D17
:1029E0002E2F333435393A3B00BF00BF0020E84971
:1029F000087035E000BF00BF00BF0120E449087047
:102A00002EE000BF00BF0220E149087028E000BFAF
:102A100000BF0320DE49087022E000BF00BF00BFF6
:102A20000420DB4908701BE000BF00BF0520D84927
:102A3000087015E000BF00BF0620D54908700FE000
:102A400000BF00BF0720D249087009E0FF20D0492D
:102A50000870D048008840F00100CE49088000BFCF
:102A60002FE0CD48007815282BD1CC4800780628D7
:102A70001CD2DFE800F003070B0F13170020C44936
:102A800008701DE00120C249087019E00220C04909
:102A9000087015E00320BE49087011E00420BC490D
:102AA00008700DE00520BA49087009E0FF20B84918
:102AB0000870B848008840F00100B649088000BF9F
:102AC00000BF70472DE9FE4F4FF078094FF0320AF2
:102AD000002446E0B24931F8140008F0B3FF834601
:102AE000B04908F081FE0546AD492C3131F814009B
:102AF00008F0A8FF8346AB4908F076FE0746394642
:102B0000284608F033FF15D03946284609F084F8E6
:102B10000290504608F096FF0190484608F092FF58
:102B20000090019909F078F88346029908F05CFE5C
:102B3000804601E04FF000082946404608F096FF25
:102B40008346484608F07EFF5946029009F064F833
:102B50000646954840F82480944941F82460601C5A
:102B6000C4B2152CB6DBBDE8FE8F70B5002500247D
:102B70001EE020208E490870C4F114018D4A505C7B
:102B800005228B49491CFEF77FFD00218848FEF78E
:102B90009FFF012C01DB132C02DD681CC5B205E090
:102BA0008448005D052801DB681CC5B2601CC4B206
:102BB000152CDEDB0121AFF2B870FEF789FF00248F
:102BC00012E020207A490870C4F114017A4A32F8E0
:102BD000110005227649491CFEF756FD0021744874
:102BE000FEF776FF601CC4B2152CEADB0121AFF2C0
:102BF000F070FEF76DFF002413E020206C49087090
:102C0000C4F114016D4A32F8211088B205226849D6
:102C1000491CFEF739FD00216548FEF759FF601C8D
:102C2000C4B2152CE9DB0121AFF62C00FEF750FFF2
:102C3000002412E020205E490870C4F11401604AAB
:102C400032F8110005225A49491CFEF71DFD0021EA
:102C50005748FEF73DFF601CC4B2152CEADB01218A
:102C6000AFF66400FEF734FF002412E02020504944
:102C70000870C4F11401534A32F8110005224C497E
:102C8000491CFEF701FD00214948FEF721FF601CA9
:102C9000C4B2152CEADB0121AFF69C00FEF718FF49
:102CA0000121AFF6A400FEF713FF152D6DD14648A4
:102CB000007802286AD10121AFF6BC00FEF708FFB8
:102CC000002431E03B48005D022825DD3948005DE5
:102CD000801E38490855394850F82400384931F8E1
:102CE0001410401A354941F82400084650F82400D1
:102CF000344931F81410401A304941F8240008468C
:102D000050F824002B49095DB0FBF1F081B2244852
:102D10002C3020F8141005E04FF4FA7120482C30C4
:102D200020F81410601CC4B2152CCBDB002413E077
:102D300020201F490870C4F1140219492C3131F8C0
:102D4000120005221A49491CFEF79EFC0021184872
:102D5000FEF7BEFE601CC4B2152CE9DB0121AFF604
:102D60006010FEF7B5FE0121AFF66C10FEF7B0FE65
:102D700003201549087000201449087054210F4899
:102D800007F0ECFC15210B4822E09AE030E000004F
:102D900005020020FE000020010100201F0200208B
:102DA000EC13002000002041284A00207C4A00202B
:102DB0009C5B002054D000206AD0002000D000206E
:102DC00094D00020BED00020060200200702002080
:102DD00007F0A2FC2A21F94807F09EFCFF222A21D5
:102DE000F74807F091FC0121F6A0FEF771FE68E0BC
:102DF000FC480078032864D10121AFF6FC10FEF7EF
:102E000067FE00242FE0F848005D022824DDF64824
:102E1000005D801EF4490855F44850F82400E74945
:102E200031F81410401AF14941F82400084650F8CE
:102E30002400E34931F81410401AEC4941F8240009
:102E4000084650F82400E849095DB0FBF1F081B272
:102E5000E74820F8141004E04FF49661E44820F8A5
:102E60001410601CC4B2152CCDDB002412E020200D
:102E7000E0490870C4F11402DD4931F8120005225E
:102E8000DC49491CFEF700FC0021DA48FEF720FE71
:102E9000601CC4B2152CEADB0121AFF69C20FEF7C2
:102EA00017FE0121AFF6A820FEF712FE0020CD4943
:102EB00008700121D0A0FEF70BFEFDF7FFFCFFF725
:102EC00001FE70BD70B58CB0CE480088CE49088038
:102ED000002404E000204DF82400601CC4B20C2C37
:102EE000F8DB0026142517E0701CC6B200240FE0A2
:102EF000C4EB041000EB8000C44901EBC00030F8C3
:102F000015005DF8241008444DF82400601CC4B27C
:102F10000C2CEDDB681CC5B2BB4800881438A842F5
:102F2000E2DC00241EE0002E08DD5DF82400B0FB8A
:102F3000F6F0C1B2AE485930015503E00021AC486B
:102F4000593001552020AB490870A9495931085D15
:102F5000A849491CFEF7D9FD0021A648FEF7B8FD97
:102F6000601CC4B20C2CDEDB00209E4908700121DD
:102F7000A1A0FEF7ADFDFDF7A1FC0CB070BD10B532
:102F8000A3480078012879D10020A14908704FF4A6
:102F90000071A04805F015FD01209F49087001034C
:102FA0009C4805F010FD4FF400519A4805F00BFDC8
:102FB0004FF48041974805F006FD032097490870BB
:102FC000974800780028DED186480078012802D191
:102FD000FFF778FF9AE083480078012804DD03F0CA
:102FE0008DF9FFF7C2FD91E08E4801788E4803F01D
:102FF0009CFE8C48007803F0FDFB8A48007804F0C2
:1030000078F84FF49670FDF74EF9FFF788FB874884
:10301000008838B9FFF73DFB0120FEF77FFDFEF782
:1030200015FB6DE00320FEF779FD814AB4215A209B
:1030300004F0D0F97E4AB4217A2004F0CBF97C4A1E
:10304000B4219A2004F0C6F97A4AB421BA2004F0D7
:10305000C1F9794AB421DA2004F0BCF9774AB421E5
:10306000FA2004F0B7F971480088012807D1744AA2
:10307000B4214FF48D7004F0ADF927E077E06B4890
:103080000088022806D16D4AB4214FF48D7004F0F7
:10309000A1F91BE065480088042806D1694AB421DB
:1030A0004FF48D7004F096F910E06048008808280D
:1030B00006D1654AB4214FF48D7004F08BF905E018
:1030C000624AB4214FF48D7004F084F960480078AE
:1030D000012815D15F4800785F4908705F48007883
:1030E00048705F48007888705E480078C87000209B
:1030F00008714871552088710721574803F00EFB6D
:1031000059480078012801D1FDF739FD574800885A
:1031100020F00400554908805548007880B90846D9
:10312000008840F00800088003F0B0F80220514900
:10313000087096205049087000205049087016E029
:103140004A48008840F040004849088000204C4927
:1031500008704C49087001204B49087003F0A2F830
:103160000220464908704FF4FA704849088010BDA3
:1031700010B50446082C12D2DFE804F004128E9C2D
:10318000AAB8C6D44FF48051414805F01CFC042174
:10319000404805F018FC08211E4805F014FCCFE05B
:1031A0004FF480513A4805F00EFC0421394805F0EF
:1031B0000AFC0821174805F004FCC1E094D0002067
:1031C000BED00020BFAACABCB1A1B0D7D6BDD0A383
:1031D000D5FD2CB7C5C8EB343067B1A1B0D7D6BD8B
:1031E000000000000602002054D0002000D0002083
:1031F000EC1300209C5B0020D0A3D5FDCDEAB3C921
:1032000000000000CE00002002020020DEB30020FB
:1032100066000020000C0140200000202300002058
:103220001E000020010100209F160020FE0000204B
:10323000E8B5070038120300C82C0300603E070001
:1032400018310700A84B0700F05807003866070040
:10325000BA00002026020020005C00201F0200208F
:10326000230200202A020020AE000020DE00002001
:10327000E800002046000020E500002000010020BA
:10328000520000205100002045000020E6000020F0
:1032900000100140001401404FF48051FE4805F039
:1032A00092FB0421FD4805F08CFB0821FC4805F049
:1032B0008AFB45E04FF48051F74805F084FB042178
:1032C000F64805F07EFB0821F54805F07AFB37E06B
:1032D0004FF48051F04805F074FB0421EF4805F0ED
:1032E00072FB0821EE4805F06EFB29E04FF4805197
:1032F000E94805F066FB0421E84805F064FB082175
:10330000E74805F05EFB1BE04FF48051E24805F012
:1033100058FB0421E14805F054FB0821E04805F082
:1033200052FB0DE04FF48051DB4805F04AFB0421CD
:10333000DA4805F046FB0821D94805F042FB00BFFA
:1033400000BF10BD10B50121D64804F06CFA10BDC5
:1033500010B5FFF7F7FF00BF022004F0E1FC0028E2
:10336000FAD0022004F0F0FC10BD70B5002202215A
:10337000CD4804F0C6FC0320FCF795FF0020CB49A4
:10338000087008460078FFF7F3FE002503E1FFF719
:10339000DFFF002412E0C64850F82400C0F30720E5
:1033A000C44901F81400C24850F82400000E01215D
:1033B00001EB4401BF4A5054601CC4B2052CEADB47
:1033C000ADB9BC48407ABC490870BA484078BB499E
:1033D0000870B848C0784870B6480078B849087096
:1033E000B4480079B7490870B248007A4870AF48CD
:1033F000007807280FD2DFE800F0040F1A3E62863B
:10340000AA00AC484079B0490870AA488079C871D0
:10341000A848C0798873A5E0A6484079AA494870B1
:10342000A44880790872A348C079C8739AE0A1487B
:103430004079A54988709F48807948729D48C07935
:103440000874A248007820B99A488078A04908708A
:1034500010E09E480078012804D1964880789C4965
:10346000487007E099480078022803D19148807895
:103470009749887076E08F4840799349C8708D48A5
:10348000807988728B48C07948749048007820B958
:10349000884880788E49C87010E08C4800780128F0
:1034A00004D1844881788A48017107E08748007810
:1034B000022803D17F4881788548417152E07D48D8
:1034C0004079814908717B488079C8727948C07910
:1034D00088747E48007820B9764880787C49887165
:1034E00010E07A480078012804D172488178784841
:1034F000C17107E075480078022803D16D488178D2
:10350000734801722EE06B4840796F4948716948F1
:10351000807908736748C079C8746C48007820B90E
:10352000644880786A49487210E068480078012849
:1035300004D1604881786648817207E0634800786A
:10354000022803D15B4881786148C1720AE059487A
:1035500040795D4988715748807948735548C079EA
:10356000087500BF00BF51480078401C4F490870E3
:1035700008460078072190FBF1F201FB12004B494D
:10358000087008460078FFF7F3FD4FF4FA70FCF777
:1035900094FE681CC5B2072DFFF6F9AE0122022188
:1035A000414804F0AEFB70BD10B5002449480078D6
:1035B000012812D10020474908704748007820B1FF
:1035C000032803D0052807D105E005E0FFF7CDFE6D
:1035D000FEF7C2FA00E000BF00BF10BD10B53F48C3
:1035E0000078012830D100203C490870FDF7DBFD50
:1035F0003B4908703B4800784006000E3949087086
:1036000037480078FF2803D008460078401C08702F
:103610003548007800287FD131480078FF2814D140
:103620003248007850B93248007838B130480178D3
:103630000020FCF7CCFE0120FEF770FA14202D4983
:10364000087002202949087094E028480078002872
:103650000BDD26480078401E244908700846007893
:1036600018B91F48007822490870224800780028BD
:1036700051DD20480078401E1E4908700846007839
:10368000002877D11C490870012017490870144898
:1036900000781A49087034E000100140001401401D
:1036A000000C0140002401400800024024000020DA
:1036B00098150020AC1500202E0000202F000020BF
:1036C0002D0000202B000020B61500202300002034
:1036D000CB1500209F0000201E000020F8000020D5
:1036E000FB000020FD000020F7000020F200002079
:1036F000F5000020F3000020F4000020F600002078
:103700000AE0084600782030C1B20020FCF75FFED6
:103710000120FEF703FA2DE0FE480078FE49097803
:10372000884216D1FD480078002823DDFB48007848
:10373000401EFA49087008460078D8B9F648007863
:103740002030C1B20020FCF742FE0120FEF7E6F96E
:1037500010E00020F2490870FF20EF490870F1499D
:1037600008700220F04908701420F0490870002009
:10377000EA49087010BD10B5ED48007800285CD10A
:10378000EC48007801284CD1EB480088002854D13F
:10379000EA480078002850D14FF47A71E84806F0E2
:1037A000BBFF4FF47A71E74806F0B6FF4FF40071A3
:1037B000E54805F006F90120E44908700103E248F4
:1037C00005F0FFF80020E24908704FF40051DE4890
:1037D00005F0F9F84FF48041DB4805F0F4F80020DB
:1037E000DC490880DC4908600120DC49087002F0EF
:1037F0004DFD0320DA4908700020DA490870DA49E3
:103800000880DA490880CC48008840F00100CA49A5
:1038100008804FF4FA70D64908800020D549088006
:103820000BE0C548007800F02000002805DDC24804
:10383000008820F02000C049088010BD10B54FF46A
:103840000071C14805F0BDF80120C049087002F0C0
:103850001DFD6420FCF727FD0020C7490880C749EB
:1038600008604FF47A70FCF71EFD02F01BFD4FF468
:103870007A70FCF718FD02F08FFC10BD704710B590
:10388000BF4804F065F9BF48BF490860BF484860B9
:10389000002088600520C860002008618020486101
:1038A000800088618000C8612020086200024862B0
:1038B00000208862B24804F0EDF910BD00B587B071
:1038C0000121480205F039FB0121880205F035FB92
:1038D0000121084605F024FB1720ADF80000002068
:1038E0008DF803006946AA4804F0BEFF3F20ADF8FA
:1038F000000000208DF803006946A64804F0B4FFDC
:10390000FFF7BDFF012202219D4804F0FAF90B20C8
:103910008DF8180001208DF819008DF81A008DF827
:103920001B0006A803F083FE96484C3803F0E8FE1F
:103930004FF4C020019001208DF8080000208DF880
:1039400009004FF4602003904FF4006004900520BC
:103950008DF8140001A98B484C3803F0F8FE0123C0
:103960001A46002187484C3803F089FF01230222C0
:10397000042184484C3803F082FF012303220A21EA
:1039800080484C3803F07BFF012304220C217D4842
:103990004C3803F074FF012305220E2179484C387E
:1039A00003F06DFF7C4803F0ABFE4FF4C0200190A4
:1039B00001208DF8080000208DF809004FF46020E8
:1039C00003904FF40060049005208DF8140001A9C5
:1039D000714803F0BCFE01231A4619466E4803F0F5
:1039E0004EFF0123022211466B4803F048FF0123DA
:1039F00003220B21684803F042FF012304220D211A
:103A0000654803F03CFF012305220F21624803F0C3
:103A100036FF0121604803F08EFF012159484C38E0
:103A200003F0C1FE57484C3803F0DFFE00BF554895
:103A30004C3803F0DFFE0028F9D152484C3803F02F
:103A4000E3FE00BF4F484C3803F0E3FE0028F9D1F5
:103A50000121514803F0A7FE4F4803F0C6FE00BF06
:103A60004D4803F0C7FE0028FAD14B4803F0CCFEC6
:103A700000BF494803F0CDFE0028FAD1012141489A
:103A80004C3803F09BFE01213D4804F02EF9022042
:103A900004F05AF907B000BD1FB50121084605F032
:103AA00059FAB320ADF8000040F2CF70ADF8040031
:103AB0000020ADF80600ADF8020069464FF08040E6
:103AC00005F074FB01221146900705F0E6FE1C206C
:103AD0008DF80C0000208DF80D0001208DF80E00EF
:103AE0008DF80F0003A803F0A2FD0121880705F05F
:103AF000B9FE0121082005F02DFA40F2CF20ADF8E3
:103B0000000042F20F70ADF804000020ADF806008E
:103B100044E00000FB000020F6000020F40000203C
:103B2000F7000020F5000020F2000020F300002044
:103B30001E0000203E000020DE000020F2010020D8
:103B4000574200203F460020000C0140200000208A
:103B500023000020780000208800002000010020C1
:103B600046000020450000204A00002048000020B8
:103B7000E2000020CC000020C8000020B40000209B
:103B8000080002404C2401406C15002098150020CC
:103B9000000801400010014000280140ADF802007B
:103BA0006946FE4805F002FB0021FC4805F05AFE7C
:103BB0001FBD08B501208DF802004002ADF80000DD
:103BC00010208DF803006946F54804F04DFE1020E2
:103BD000ADF800008DF803006946F14804F044FE9A
:103BE0001021EF4804F0EFFE0020EE49087020207D
:103BF000ADF8000010208DF803006946EA4804F093
:103C000033FE2021E84804F0DCFE0020E74908707C
:103C10004020ADF8000010208DF803006946E2480E
:103C200004F022FE4FF48050ADF8000010208DF813
:103C300003006946DA4804F017FE4FF48051D84873
:103C400004F0C1FE4FF40050ADF8000010208DF8D4
:103C500003006946D24804F007FE4FF40051D048F3
:103C600004F0B1FE4FF48040ADF8000010208DF854
:103C700003006946CA4804F0F7FD4FF48041C84884
:103C800004F0A1FE0121CA4804F0BFFE0820ADF8EF
:103C9000000010208DF803006946C14804F0E4FDDF
:103CA0000420ADF8000010208DF803006946C148DB
:103CB00004F0DAFD4FF48050ADF8000010208DF8CC
:103CC00003006946BC4804F0CFFD0020FFF750FA1E
:103CD0004020ADF8000048208DF803006946B64842
:103CE00004F0C2FD8020ADF8000048208DF80300EC
:103CF0006946B14804F0B8FD4FF48070ADF800009B
:103D000048208DF803006946AB4804F0ADFD4FF440
:103D10008070ADF8000004208DF803006946A048CB
:103D200004F0A2FD08BDC820A44981F8E0000021EC
:103D3000A24880F8E11080F8E91080F8EF1080F8D0
:103D4000EA10012180F8E210002180F8E31001213F
:103D500080F8E410002180F8E51080F8E61080F883
:103D6000E710012180F8EB1080F8EC10322180F888
:103D7000ED10642180F8EE10704703208F4981F820
:103D8000B00046218D4880F8B110412180F8B21072
:103D90003C2180F8B310372180F8B4100A2180F854
:103DA000B510962180F8B6100A2180F8B710962138
:103DB00080F8B810642180F8B910372180F8BA1063
:103DC000412180F8BB105A2180F8BC10732180F883
:103DD000BD103C2180F8BE10462180F8BF103C2168
:103DE00080F8C010502180F8C1100C2180F8C2105A
:103DF000172180F8C3101D2180F8C4102E2180F8EF
:103E0000C510162180F8C610242180F8C71027217C
:103E100080F8C810342180F8C9102B2180F8CA100E
:103E20003C2180F8CB10912180F8CC10822180F8C1
:103E3000CD10782180F8CE107047002006E0604950
:103E4000095C5E4A42F82010411CC8B20328F6DB28
:103E5000704700B500230EE05A48C15C5748103047
:103E600040F833105748C15C5448103000EBC30091
:103E70004160581CC3B2032BEEDBFFF7DEFF00BD31
:103E800010B5FFF7E6FF0A204C4981F8A0002A216F
:103E90004A48483006F040FC2A214848743006F071
:103EA0003BFCFF2215214548303006F02DFC10BDAB
:103EB00010B5FFF7E5FFFFF760FFFFF734FF10BD18
:103EC0000EB506F038FA4FF48031C80203F0E1FB7A
:103ED0004FF4806004F0F8FE002004F0FEFE4FF482
:103EE000004004F015FF01213D2005F026F80121D6
:103EF000480205F022F80121880205F01EF8012190
:103F0000880305F01AF802F013FBFCF720FAFCF71F
:103F1000A5F9FCF7C5FCFCF7C4FC2848D0F8600103
:103F20002949884217D02548D0F8600100F0704038
:103F3000B0F1004F05D0FFF7BBFF0020FCF7FDFC00
:103F400003E0FFF71AFFFFF7EEFE1F481B49C1F819
:103F50006001FCF7B3FCFFF72CFEFFF79DFD02F0BC
:103F600026F90821012004F095FD4FF4807000909F
:103F700000208DF804000C208DF8050001208DF83C
:103F80000600684603F01CFF17208DF80800032088
:103F90008DF8090000208DF80A0017E0000C0040A1
:103FA000000C0140210000200008014022000020F8
:103FB000000230000014014000100140A413002052
:103FC00039BE010835BE01086014068701208DF84E
:103FD0000B0002A803F02BFBFFF770FC0EBD4FF4A3
:103FE0007A70FCF760F9FFF76BFF0A20FCF75BF9CA
:103FF000002003F01FF94FF4784003F02EF9002061
:1040000003F02EF9182003F025F96C227C21F7A08B
:1040100003F029F94FF4FA70FCF745F9FFF72EFC8D
:10402000FFF70CFC0020F3490870F3490870FEF715
:1040300049FD1522F149F24806F021FB0020FDF769
:1040400020FB0120EF4908700020EF490870FDF7C0
:104050000BFBFDF7EEFB0120FDF760FD4FF48051F7
:10406000EA4804F0B0FC4FF40051E84804F0ABFC1F
:104070004FF48041E54804F0A6FC0320E4490870B1
:104080008BE0E4480078012802D10020E149087063
:10409000E1480078012806D10020DF490870DF4898
:1040A0000088DF490880DF480078012804D100201B
:1040B000DC490870FDF710FBDB480078012804D1CB
:1040C0000020D9490870FDF73CFBD848007801284A
:1040D0000AD10020D54908704FF40071CB4804F094
:1040E00072FC0020D2490870D248007801283CD1E7
:1040F000C1480078A8BBD048007890BBCF48007872
:10410000401CCE490870084600780A2825DD4FF487
:104110000071BE4804F055FC0120C549087002F04A
:10412000C1F84FF4FA70FCF7BEF802F035F8012040
:10413000C34908700020C3490870FDF7A2FA0120A6
:10414000B04908700020C04908800120B5490870B6
:10415000FDF7E4FC0020B94908700A20FCF7A3F839
:1041600003E0FFE70020B5490870B848007801284F
:1041700007D10020B549087002F00EF80220B049BE
:104180000870FFF7F8FAFFF729FAFFF70DFAFEF7C4
:10419000F6FEFDF77DFFFDF736FC72E72DE9F047EF
:1041A00005460C469648005D0A38A84202DC2846BF
:1041B000BDE8F087284607F045FC8246A44951F83F
:1041C0002400514607F052FC0746A24850F824103C
:1041D000384607F09BFA0646304607F06BFA07466A
:1041E0000022134607F000F801D8002609E0304607
:1041F00007F060FA07460022974B07F02FF900D22C
:10420000964E304607F0E6FB00F0FF094846CFE740
:104210002DE9F04F87B00746884692463E467078B3
:1042200030383178303901EB810100EB4100C0B208
:104230000690069828B900208AF8000007B0BDE86B
:10424000F08F0698804501DB4FF000080024A3465C
:10425000A14602252BE0705D7C281FD1BBF1000F29
:1042600007D100244FF0010B142101A806F076FAC3
:104270001BE0C84506D1621C01A9504606F0FFF9B3
:104280000120DBE709F1010000F0FF0900244FF0F5
:10429000010B142101A806F061FA06E0112C04DAE2
:1042A000705D01A90855601CC4B2681C85B2304617
:1042B00006F0C6F9A842CEDCBBF1010F08D1C84513
:1042C00006D1621C01A9504606F0D9F90120B5E7D4
:1042D00000BFB3E738B504460D4625B1012D0BD01C
:1042E000022D1BD111E020234FF4A07200210846BB
:1042F000009403F042F812E0B0234FF4A0722021A2
:104300000020009403F039F809E020234FF4A07254
:10431000D0210020009403F030F800E000BF00BF7F
:1043200038BD30B503463025541E0D5500248C543D
:1043300010460FE00A2493FBF4F504FB15343034E7
:10434000E5B2441E0D55E0B200B905E00A2493FB26
:10435000F4F4A3B2002BEDDC00BF904201D1441E67
:10436000E0B203E03025441E0D55E0B20028F9DC30
:1043700030BD10B5024610460A2807DA30230B700C
:104380004B708B7000F13003CB708DE064280FDA36
:1043900030230B704B700A2390FBF3F330338B7098
:1043A0000A2390FBF3F403FB14033033CB707BE060
:1043B000B0F57A7F54DA30230B70642390FBF3F36B
:1043C00030334B70642390FBF3F403FB140398B277
:1043D0000A2390FBF3F330338B700A2390FBF3F442
:1043E00003FB14033033CB705EE0000057454C43B1
:1043F0004F4D45003A0000203E000020D41300201D
:10440000A0A900209700002002010020000C01401C
:10441000230000209E00002096000020C8000020FD
:10442000FE010020D400002077000020A40000201E
:10443000200000201E000020340000203500002055
:1044400044000020D3000020DE000020E90000200E
:10445000284A00207C4A002000E06F4000007F4393
:104460004FF47A7390FBF3F330330B704FF47A739D
:1044700090FBF3F403FB140398B2642390FBF3F373
:1044800030334B70642390FBF3F403FB140398B2B6
:104490000A2390FBF3F330338B700A2390FBF3F481
:1044A00003FB14033033CB7000230B7110BD10B528
:1044B0000024FE480119FE480078FFF75AFF241D2A
:1044C0002020FA490855641CFA480078072817D1BB
:1044D00008462044F849F74A127851F822100A6831
:1044E00002604968416004F10800C4B2EF48011954
:1044F0000222F2480078FFF714FFA01CC4B20FE0BC
:10450000EA480119EC48EB4A127850F82200026898
:104510000A6042684A608068886004F10C00C4B296
:104520000020E2490855601CC4B20121DF48FDF7B4
:10453000CFFA10BD10B5FDF789F80120FDF7EEFAAE
:1045400001F0BCFE0C20FDF79CF810BD10B5012059
:10455000FDF7E4FA01F0B2FE0E20FDF792F810BD6F
:1045600010B5FFF76AFC01F017FE002001F0EAFD2C
:1045700001F08CFE40F6B830FBF795FED04801788C
:10458000D048D14A127840F8321001F005FE01F00F
:1045900089FE40F6B830FBF786FECC480178C94862
:1045A000C94A127800EBC200416001F0F5FD01201C
:1045B00001F0C8FD01F06AFE40F6B830FBF773FE6B
:1045C000BF480178BF48C04A127840F8321001F065
:1045D000E3FD01F067FE40F6B830FBF764FEBB4830
:1045E0000178B848B84A127800EBC200416001F087
:1045F000D3FD022001F0A6FD01F048FE40F6B830E0
:10460000FBF751FEAE480178AE48AF4A127840F849
:10461000321001F0C1FD01F045FE40F6B830FBF765
:1046200042FEAA480178A748A74A127800EBC200C8
:10463000416001F0B1FDFCF741F9A249103991F850
:10464000E10001F07FFD10BD10B504462020974920
:104650000870452048700222891C2046FFF761FE41
:1046600010BD64281FDB0022CA700A2290FBF2F3FF
:1046700002FB130230328A700A2290FBF2F2D0B2AF
:104680000A2290FBF2F302FB130230324A700A2234
:1046900090FBF2F2D0B20A2290FBF2F302FB13027B
:1046A00030320A701FE00A2814DB00228A700A22C6
:1046B00090FBF2F302FB130230324A700A2290FBA5
:1046C000F2F2D0B20A2290FBF2F302FB1302303274
:1046D0000A7008E000224A700A2290FBF2F302FB03
:1046E000130230320A70704730B503463025541E2D
:1046F0000D5500248C5410460EE00A24B3FBF4F54B
:1047000004FB15343034451E4C55441EE0B200B94C
:1047100004E00A24B3FBF4F3002BEED100BF904277
:1047200001D1441EE0B203E02025441E0D55E0B245
:104730000028F9DC30BD10B56548007809280FD095
:104740005A4864A10988018063490978133188B205
:1047500002225649891CFCF797FF0120FCF791FFC4
:104760004FF400715D4804F02CF901205C49087099
:1047700001035A4804F027F94FF40051574804F058
:1047800022F94FF48041554804F01DF903205549A2
:10479000087001F001FD0420534908704E4800786C
:1047A000032805D00320FDF7B9F901204F4908700F
:1047B00010BDF0B501460A2901DA4C20F0BD4C27A6
:1047C0004B48008801FB01054C2301F14C042BE010
:1047D00004EB030C1FFA8CF000EBD07C4FEA6C0268
:1047E000FF2A06DDFF22FF24E01800EBD07CCCF38B
:1047F0004F0202FB02F086B2A5F11400B04204D8C9
:104800002830864201D81046D8E7D81C844206DCFE
:10481000E0181FFA80FC0CEBDC704010CEE7AE42D3
:1048200001D2134600E01446D2E770B505460E46A5
:104830004C246C433046FFF7BCFFB4FBF0F4A0B24D
:1048400070BD7FB5054600212A4805F00BF801210F
:10485000042004F07FFB25B1012D05D0022D09D1E4
:1048600005E04FF4E17406E04FF4C87403E04FF440
:10487000B47400E000BF00BFB320ADF8000040F208
:104880002B10ADF804000020ADF80600ADF80200D2
:104890006946184804F08AFC01221146154804F0C4
:1048A000FCFF1E208DF80C00002025E09C5B002002
:1048B0006700002005020020BC0100200402002047
:1048C000F8010020B4130020F3010020F9010020BA
:1048D0001E00002020450000D3000020000C0140F5
:1048E000200000202300002044000020D4000020ED
:1048F000DC010020000800408DF80D0001208DF83B
:104900000E008DF80F0003A802F091FE0121FB4874
:1049100004F0A8FF7FBD10B5F9480078401CF849A5
:104920000870084600780521B0FBF1F201FB120087
:10493000F3490870F3480978405C30B12021F2480F
:1049400004F041F80120F149087010BD10B504468B
:104950002068EF490840B0F1005F0CD16068ED4974
:10496000086008460068EC4908602068FBF76FFCA7
:10497000E9480068804710BD704700BFFEE700BFF0
:10498000FEE700BFFEE700BFFEE7704770477047D5
:1049900010B5E2480088002804DDE0480088401E89
:1049A000DE490880DE480068401CDD490860DD48BB
:1049B0000068401CDB490860DB480088401CDA497D
:1049C000088008460088B0F57A7F23DB0120D749AC
:1049D0000870D74908700020D3490880D54800885E
:1049E000401CD449088008460088142812DD0020A5
:1049F0000880D1480078032803DB0120CF490870E4
:104A000008E0CD480078002804DDCB480078401E3F
:104A1000C9490870CA480078002860DDC848007895
:104A2000401EC749087008460078002857D1C5487D
:104A30000078002853D101F0AFFB0020C249087074
:104A4000C2480078012829D10020C0490870C04818
:104A50000088C0490880B2480068BF490860062045
:104A6000BE4908700120BE490870BE48008840F069
:104A70000400BC4908800846008820F00200088035
:104A8000B9480088B9490988884202DDB6480088DB
:104A900001E0B6480088B649088020E0AB480078BD
:104AA00002281CD10020A9490870A9480088A949FA
:104AB00008809B480068A84908600920A749087039
:104AC000A848008820F01000A6490880A94800786E
:104AD000012804D10846008840F020000880A6483C
:104AE000007800280DDDA4480078401EA249087017
:104AF0000846007828B90120A049087014209E4972
:104B000008709F48007801285BD18E480078032800
:104B100057D07E480078B8B19A4800789A49088002
:104B2000984800783C2805DD98480078401C974953
:104B3000087020E09548007800281CDD9348007834
:104B4000401E9249087016E08E480078904908800F
:104B50008C4800783C2805DA8C480078401C8B494A
:104B6000087008E089480078002804DD874800784C
:104B7000401E8649087087480078401C85490870A7
:104B80000846007805281CDB00200870FFF7C3FEEC
:104B900081480078401C80490870084600780A283F
:104BA0000FDB00200870794800781E2803DB012005
:104BB0007049087002E000206E49087000207349B7
:104BC000087010BD10B52021744805F0D3FA50B11B
:104BD000724805F065FAC4B22046FBF7B5FC012027
:104BE0006F49087016E080216C4805F0C3FA88B15F
:104BF0006C480088002807DDFBF7F4FC04462146DA
:104C0000664805F049FA05E0002240F22771634842
:104C100005F0E1F910BD10B52021634805F0AAFAAE
:104C200050B1614805F03CFAC4B22046FBF7BAFD2A
:104C300001205E49087016E080215B4805F09AFA71
:104C400088B15B480088002807DDFBF7F2FD0446C9
:104C50002146554805F020FA05E0002240F2277170
:104C6000514805F0B8F910BD10B50121234805F0F1
:104C7000B6F860B30121214805F0BAF84048007841
:104C8000012803D04B480088002820DD49480088CF
:104C9000002815DD47480088401E46490880084620
:104CA000008868B901F078FA002043490870434948
:104CB0000870434800884349088000204249087032
:104CC000FEF740FB41480068401C4049086010BDA9
:104CD00010B500233E48007808B9002010BD00231D
:104CE0000021002280E03B48845C3B48805C0A381D
:104CF000844273DA481CC1B274E06FE000080040DF
:104D0000DE010020C8BE010800080140220000208A
:104D10000000FE2FE4010020E0010020B801002087
:104D2000880000205C000020E80100209E00002098
:104D30009F000020EA010020EA000020EB00002094
:104D4000260000201E000020280000200001002076
:104D5000780000207E000020840000204400002015
:104D600066000020DE000020480000204A000020ED
:104D7000040100203E000020FA000020F80000207E
:104D8000970000202E000020380000203A0000206C
:104D900036000020EC0100203D00002000380140DA
:104DA0001A02002004000020004800401C020020DD
:104DB000180000209400002059000020C2000020AC
:104DC000B4000020FC010020BD0000208C00002069
:104DD00020000020B6150020A0A90020994200DD87
:104DE0000B460021501CC2B2162AFFF67CAF994236
:104DF00000DD0B46032B01DB01206FE700206DE790
:104E0000FC48007801287CD1FB4800684000FA4942
:104E10000860FA48008840F2DC51884209DAF84814
:104E20000178F64802880088401CF44B1880F54849
:104E30008154F3480078C82804DAEF480068401C21
:104E4000ED490860F048007800285BD1EA48007816
:104E500000F00F000F2814D10120EB490870EB4837
:104E6000007802280ED10020E9490880E94800882E
:104E700020F04000E74908800846008840F0100014
:104E800008806DE0E1480078012869D10020E249FE
:104E900008804FF4FA70E1490880DE48008840F04D
:104EA0000200DC4908800846008820F001000880E4
:104EB0003720DB4908701920DA4908700120DA49E7
:104EC00008700020D9490880D9490860D94908806C
:104ED000D9490880D9490880D9480088B0F57A7F37
:104EE00004DA1421D748D64A12888154D64800687B
:104EF000B0F57A7F34D21420D449D34A126888544A
:104F00002EE028E0C0480078012829D1BA4800687E
:104F1000C0F3130020BB0020BB490870BB480078D9
:104F2000012817D10220CA490870C5480088B0F589
:104F30007A7F04DA3C20C349C14A12888854C248A7
:104F40000068B0F57A7F0BD23C21C048BE4A126897
:104F5000815405E004E00020A7490860AA490870D0
:104F6000704710B5A348007801287DD1B948007872
:104F70004006000EB7490870FFF7AAFE012802D1CB
:104F8000B549087002E00020B3490870B2480078C3
:104F9000012804D1AF480078401CAE490870AF48E2
:104FA000008840F2DC51884209DAAD48417BAB48C9
:104FB00002880088401CA94B1880AA488154AA483E
:104FC000007840BBA348007800F00F000F2877D18D
:104FD0000120A54908700020A44908708B4800787A
:104FE00002286DD089480078012869D1944800884A
:104FF000B0F57A7F04DA64209249914A1288885485
:1050000091480068B0F57A7F5AD2E8208F498E4ADD
:105010001268885454E094480078012850D17B48A5
:10502000007801282DD18B48007800F00F0000286F
:1050300046D175480078002842D18C4908708A49C9
:10504000087028208A49087014208A4908700220B4
:10505000894908707A480088B0F57A7F06DA5020CE
:105060007849774A128800E025E08854764800683D
:10507000B0F57A7F24D250207449734A126888545C
:105080001EE06248007802281AD17248007800F0C9
:105090000F00A8B90020754908707349087001F025
:1050A000F5F8012075490870002075490870232023
:1050B0007449087004E00020664908706A49087065
:1050C00010BD4C48007801286DD16F48007840062B
:1050D000000E6D4908704A484078C82807DA08462B
:1050E0000078401C087000206849087004E0674898
:1050F0000078401C654908706548007858BB6248D4
:10510000007800F00F000F2852D10120604908708C
:1051100000205E4908703D480078022848D03B488E
:105120000078012844D100203C4908804448008888
:10513000B0F57A7F04DA28204249414A128888541F
:1051400041480068B0F57A7F32D228203F493E4A74
:10515000126888542CE04E480078012828D14A482B
:10516000007800F00F0018BB00204849087048493B
:10517000087026480078012814D131480088B0F51D
:105180007A7F04DA50202F492D4A128888542E48FD
:105190000068B0F57A7F0BD250212C482A4A126859
:1051A000815405E004E00020374908703849087050
:1051B000704710B537480078012873D11C48006843
:1051C000B0F5617F6ED200247EE03348007801287C
:1051D00003D032480078002865DD2148005DC4EB2B
:1051E0004411C1EB04212E4A02EB8101104A1268DE
:1051F000885467E020000020400000204800002084
:105200002F0000209F3600204F00002000010020CA
:10521000E6000020DE000020E2000020E000002088
:10522000BE000020C300002059000020CE00002056
:10523000B4000020B80000207A000020C800002040
:105240007800002057420020880000203F460020C0
:10525000580000204D000020340000204A000020AB
:10526000B61500207B3C0020540000204E0000209A
:10527000BF000020C1000020C40000202800002042
:1052800027000020260000205000002051000020B0
:1052900052000020C2000020AF00002006020020C3
:1052A000485C00201EE0F949085D2146FEF776FFC4
:1052B000C4EB4411C1EB0421F54A02EB8101F54A2C
:1052C00012688854601CC4B2152CFFF67EAFF248F9
:1052D0000078F249EF4A12688854EE480068401C92
:1052E000EC49086010BDEE480088B0F5FA6F10DA9E
:1052F000EC480078EC49EA4A12888854E948417839
:10530000EA48E74A12888154E5480088401CE4498D
:105310000880E7480078012817D1E648008840F265
:10532000523188422CDADF480178E348E14A12889A
:105330008154DC484178E148DE4A12888154DD48D6
:105340000088401CDB4908801AE0D6480078DC4918
:10535000DC4A12788854D3484178D9483230D94A47
:1053600012788154D7480078401CD6490870084606
:105370000078322190FBF1F201FB1200D149087054
:105380007047CB48007801280FD1CF480088B0F58E
:10539000617F0ADACD480078CD49CB4A128888541B
:1053A000C9480088401CC84908807047C94800782F
:1053B00001282DD1C8480088B0F5967F28DAC74863
:1053C0000078012863D1C6480078022821D1C54859
:1053D0008178C548C04A128820F81210C148417926
:1053E000C248BD4A128820F81210BE48017AC0484F
:1053F000B94A128820F81210BA48C07ABD49B64A94
:10540000128821F81200B4480088401CB249088074
:1054100004E2B3480078E0B9B2480078B649AE4A31
:10542000128821F81200AF48C178B448AA4A1288FD
:1054300020F81210AB488179B148A74A128820F8A9
:105440001210A848407AAF49A34A128821F81200E6
:10545000E4E1A4484178AC489F4A128820F8121031
:10546000A0480179A9489C4A128820F812109D484A
:10547000C079A749984A128821F812009948807A81
:1054800001F5E161944A128821F81200C6E19448BE
:105490000078022873D193488078FA2148439D49C7
:1054A00091F8A31090FBF1F04FF6FF71884209DAF2
:1054B0008C488078FA214843964991F8A31090FBD4
:1054C000F1F001E04FF6FF7081B28748824A1288FE
:1054D00020F8121083484079FA2148438D4991F809
:1054E000A61090FBF1F04FF6FF71884209DA7D4873
:1054F0004079FA214843874991F8A61090FBF1F0D2
:1055000001E04FF6FF7081B27848734A128820F8A4
:1055100012107448007AFA2148437E4991F8A91084
:1055200090FBF1F04FF6FF71884209DA6D48007A7E
:10553000FA214843774991F8A91090FBF1F001E076
:105540004FF6FF7081B26A48634A128820F8121041
:105550006448C07AFA2148436E4991F8AC1090FB38
:10556000F1F04FF6FF7188420ADA5E48C07AFA21FC
:105570004843684991F8AC1090FBF1F002E00CE070
:105580004FF6FF705B49544A128821F812005248C6
:105590000088401C5049088040E1514800780028AC
:1055A00072D150480078FA2148435A4991F8A11025
:1055B00090FBF1F04FF6FF71884209DA4948007814
:1055C000FA214843534991F8A11090FBF1F001E012
:1055D0004FF6FF704849404A128821F812004148AE
:1055E000C078FA2148434B4991F8A41090FBF1F0A0
:1055F0004FF6FF71884209DA3A48C078FA214843E9
:10560000444991F8A41090FBF1F001E04FF6FF70CF
:1056100081B23A48304A128820F812103148807915
:10562000FA2148433B4991F8A71090FBF1F04FF65F
:10563000FF71884209DA2B488079FA2148433549BD
:1056400091F8A71090FBF1F001E04FF6FF7081B2E6
:105650002B48214A128820F812102248407AFA2159
:1056600048432C4991F8AA1090FBF1F04FF6FF71D6
:10567000884251DA1B48407AFA214843254991F87B
:10568000AA1090FBF1F049E04EE00000B6150020B2
:10569000485C0020B40000207A0000201CA60020F6
:1056A000CC0000202B000020344B002004530020AD
:1056B000BD000020C8000020B5A9002007AD0020D3
:1056C000D04A0020CB000020C60000202D00002082
:1056D00059B0002059000020CE000020B00000206A
:1056E00023000020CB1500208EB8002096BF00209C
:1056F0009EC60020A6CD0020DEB30020E6BA002022
:10570000EEC10020F6C8002036B600203EBD0020C5
:1057100046C40020A41300204FF6FF70F649F74A54
:10572000128821F8120079E0F5484078FA214843C0
:10573000F44991F8A21090FBF1F04FF6FF71884206
:1057400009DAEF484078FA214843EE4991F8A2106F
:1057500090FBF1F001E04FF6FF7081B2EA48E74AB2
:10576000128820F81210E6480079FA214843E549EA
:1057700091F8A51090FBF1F04FF6FF71884209DA1D
:10578000DF480079FA214843DE4991F8A51090FBE3
:10579000F1F001E04FF6FF7081B2DC48D74A128881
:1057A00020F81210D648C079FA214843D54991F81B
:1057B000A81090FBF1F04FF6FF71884209DAD0484B
:1057C000C079FA214843CF4991F8A81090FBF1F035
:1057D00001E04FF6FF70CE49C84A128821F8120046
:1057E000C748807AFA214843C64991F8AB1090FB2C
:1057F000F1F04FF6FF71884209DAC148807AFA2148
:105800004843C04991F8AB1090FBF1F001E04FF62E
:10581000FF70C049B94A128821F81200704710B5CC
:10582000022002F07DFA002872D0022002F08CFAE9
:10583000B9480068401CB8490860002412E0B74825
:1058400050F82400C0F30720B54901F81400B3480C
:1058500050F82400000E012101EB4401B04A5054DD
:10586000601CC4B2052CEADBAE480078A8B9AC488D
:10587000407AAD490870AA484078AC490870A848F9
:10588000C0784870A6480078A9490870A4480079F3
:10589000A8490870A248007A4870A24800780728F2
:1058A0000FD2DFE800F0040F1A3F6387AB009C487B
:1058B0004079A14908709A488079C8719848C079A0
:1058C0008873A6E0964840799B494870944880794F
:1058D00008729348C079C8739BE091484079964913
:1058E00088708F48807948728D48C07908749348D1
:1058F000007820B98A4880788149087011E08F4883
:105900000078012805D1864880787D49487008E0F4
:10591000DBE08A480078022803D181488078784902
:10592000887076E07E4840798349C8707C488079E9
:1059300088727B48C07948748048007820B97848DC
:1059400080786F49C87010E07C480078012804D145
:10595000734881786A48017107E078480078022826
:1059600003D16F4881786648417152E06C484079B4
:10597000714908716A488079C8726948C079887429
:105980006E48007820B9664880785D49887110E0DB
:105990006A480078012804D1614881785848C1716B
:1059A00007E066480078022803D15D4881785448B2
:1059B00001722EE05A4840795F4948715848807911
:1059C00008735748C079C8745C48007820B95448B7
:1059D00080784B49487210E058480078012804D17B
:1059E0004F4881784648817207E054480078022881
:1059F00003D14B4881784248C1720AE04848407957
:105A00004D4988714648807948734548C079087582
:105A100000BF00BF43480078401C42490870084658
:105A20000078FDF7A5FB3F48007807280DD1FFF768
:105A3000E7F9FFF796FAFFF744FBFFF7BAFBFFF72A
:105A400052FCFFF7B3FCFFF79CFC364800780728B0
:105A500003DA01213A4801F0E6FE324800780728CF
:105A600033D100202F49087008460078FDF780FBED
:105A70003448007848BB31480078022811D1C1026F
:105A8000314802F09EFF00202C4908704FF400516D
:105A90002D4802F098FF4FF480412B4802F093FF0D
:105AA00063E02648007888B94FF48051264802F018
:105AB0008AFF4FF40051244802F083FF01201F4960
:105AC00008708103204802F07EFF4EE01B480078FA
:105AD00001283BD101031C4802F075FF4FF400512F
