:020000040801F1
:1000000078BF0020358D0108493D01084B3D0108AE
:100010004F3D0108533D0108573D01080000000015
:100020000000000000000000000000005B3D01082F
:100030005D3D0108000000005F3D0108613D0108D1
:100040004F8D01084F8D01084F8D01084F8D01081C
:100050004F8D01084F8D01084F8D01084F8D01080C
:100060004F8D01084F8D01084F8D0108A7470108EA
:100070004F8D01084F8D01084F8D01084F8D0108EC
:100080004F8D01084F8D0108FD4E01084F8D01086D
:100090004F8D01084F8D01084F8D0108FD4B010860
:1000A0004F8D01084F8D01084F8D01084F8D0108BC
:1000B000E14A01084F8D0108DB3F01084F8D01081F
:1000C0004F8D01084F8D01084F8D01084F8D01089C
:1000D0004F8D0108A73E01084F8D0108893F010897
:1000E0004F8D01084F8D01084F8D01080000000061
:1000F0000000000000000000000000000000000000
:1001000000000000000000004F8D01084F8D010825
:100110004F8D01084F8D0108CF6101084F8D0108F7
:100120004F8D01084F8D01084F8D01084F8D01083B
:100130004F8D01084F8D01084F8D01084F8D01082B
:100140004F8D01084F8D01084F8D01084F8D01081B
:1001500000F002F800F062F80AA090E8000C824477
:100160008344AAF10107DA4501D100F057F8AFF254
:10017000090EBAE80F0013F0010F18BFFB1A43F085
:100180000103184768D1020088D102000A444FF0E9
:10019000000C10F8013B13F0070408BF10F8014BE6
:1001A0001D1108BF10F8015B641E05D010F8016B2B
:1001B000641E01F8016BF9D113F0080F1EBF10F88F
:1001C000014BAD1C0C1B09D16D1E58BF01F801CBB2
:1001D000FAD505E014F8016B01F8016B6D1EF9D535
:1001E0009142D6D37047000000230024002500264A
:1001F000103A28BF78C1FBD8520728BF30C148BF8A
:100200000B607047642908F02786732908F0AB87D4
:10021000002070471FB51FBD10B510BD08F0E2FFEC
:100220001146FFF7F7FF03F08DF909F000F803B46A
:10023000FFF7F2FF03BC09F001F80000EFF30980BB
:10024000704780F309887047EFF30880704780F3A8
:100250000888704740BA7047C0BA704730B51E4929
:10026000B1F1807F00D31DE021F07F40401E4FF0B0
:10027000E022506150170F22002807DA13071D0EE5
:10028000164B00F00F04241F1D5503E013071C0E2E
:10029000134B1C5400BF00204FF0E0229061072058
:1002A000106100BF30BD014642F2887201FB02F0CE
:1002B00000E0401E0028FCD1704700EB400202EB3A
:1002C000C00100E0491E0029FCD17047014600E052
:1002D000491E0029FCD170474019010018ED00E0CB
:1002E00000E400E040F2E730FE490880084600885C
:1002F000FD4908800020FD490880704740F2E73042
:10030000FB49088008460088FA49088070470920A0
:10031000F949088008460088F84908800020F84913
:100320000880704740F2E730F649088008460088A8
:10033000F54908800020F5490880704740F2E73011
:10034000F349088008460088F2490880704700B5E4
:1003500000222FE0F04850F82200F04901EB021192
:100360000860EF4830F81200EC4901EB0211888078
:10037000EA4800EB02108088401EE84901EB0211B8
:10038000C880E64800EB02108088401EE34901EB7C
:10039000021108810020E14901EB02114881DF4888
:1003A00000EB02108088401EDC4901EB02118881BD
:1003B000501CC2B20A2ACDDBFFF7C0FFFFF7B2FF25
:1003C000FFF7A5FFFFF79AFFFFF78CFF00BD30B5E1
:1003D000D24B03EB00135B89D04C04EB0014A488D0
:1003E000A34223DACD4B03EB00131B895B1CCB4CE0
:1003F00004EB0014A48893FBF4F504FB1533C74CFD
:1004000004EB00142381C54B03EB00131B68C34CA2
:1004100004EB001424891A191170C04B03EB00136C
:100420005B895B1CBD4C04EB0014638130BD10B5CF
:100430000146BA4800EB01104089002824DDB74886
:1004400000EB0110C088401CB44B03EB01139B88E8
:1004500090FBF3F403FB1400B04B03EB0113D880C3
:10046000AE4800EB01104089401EAC4B03EB01137A
:100470005881AA4800EB01100068A84B03EB011358
:10048000DB88C218107810BD0020FCE710B50146CB
:10049000A24800EB0110408900281BDD9F4800EBBB
:1004A00001108089401C9D4B03EB01139B8890FB3E
:1004B000F3F403FB1400994B03EB01139881974865
:1004C00000EB01100068954B03EB01139B89C218E8
:1004D000107810BD0020FCE7904901EB00118988DD
:1004E000491E8E4A02EB0012D1808C4901EB0011AB
:1004F0008988491E894A02EB001211810021874A2E
:1005000002EB0012518170470146844800EB011054
:10051000408970470146814800EB011080887F4A7E
:1005200002EB01125289801A80B270477948028822
:10053000774801888A4202DB501A80B2704702F580
:100540007A70401A80B2F9E700B50346FFF7EEFF74
:10055000B0F57A7F0DDA6F480088401C4FF47A714D
:1005600090FBF1F201FB12006A4908806D4809888E
:10057000435400BD674800886549098888420ED009
:1005800063480088401C4FF47A7190FBF1F201FB44
:1005900012005F49088063480988405C7047FF206B
:1005A000FCE700B5FFF7C2FFC0F57A7080B200BD6E
:1005B00056490988B1F57A7F13DA53490988491CED
:1005C0004FF47A7291FBF2F302FB13114E4A118041
:1005D0004E490988491C4D4A118053494A4A12889C
:1005E0008854704749480088002814DD4548008831
:1005F000401C4FF47A7190FBF1F201FB120041496B
:10060000088042480088401E4049088046483D49CD
:100610000988405C70470020FCE73C480088C0F532
:100620007A7080B2704741480288414801888A4206
:1006300002DB501A80B2704702F10A00401A80B201
:10064000F9E709203A4908800846008837490880B8
:10065000704700B50346FFF7E6FF0A280DDA334876
:100660000088401C0A2190FBF1F201FB12002F4987
:1006700008803048098820F8113000BD2B480088D8
:100680002B49098888420ED029480088401C0A213D
:1006900090FBF1F201FB12002549088025480988EA
:1006A00030F8110070474FF6FF70FBE700B5FFF719
:1006B000BAFFC0F10A0080B200BD114909880A29B9
:1006C00040DA0E490988491C0A2291FBF2F302FB29
:1006D00013110A4A11800A490988491C084A1180E5
:1006E00015492BE01A0000201C00002018000020F3
:1006F000140000201600002010000020120000202E
:100700000E00002006000020080000200400002049
:10071000000000200200002098A60108041200201A
:1007200084A60108D8010020C00500200C0000208C
:100730000A000020A8090020BC0900204D4A1288A8
:1007400021F8120070474C480088002814DD4B48FF
:100750000088401C0A2190FBF1F201FB120047497E
:10076000088045480088401E434908804448434962
:10077000098830F8110070470020FCE73E480088E7
:10078000C0F10A0080B270473E4802883E480188A6
:100790008A4202DB501A80B2704702F57A70401A22
:1007A00080B2F9E737490988491C4FF47A7291FB06
:1007B000F2F302FB1311334A118034491288885432
:1007C0007047304800883049098888420ED02E484A
:1007D0000088401C4FF47A7190FBF1F201FB12008B
:1007E0002949088029480988405C7047FF20FCE7B8
:1007F00000B5FFF7C9FFC0F57A7080B200BD24498B
:100800000988B1F57A7F13DA22490988491C4FF427
:100810007A7291FBF2F302FB13111E4A11801C49FC
:100820000988491C1A4A11801B491A4A128888549F
:10083000704717480088002814DD18480088401CBD
:100840004FF47A7190FBF1F201FB1200134908801A
:100850000F480088401E0E4908800F480F4909883C
:10086000405C70470020FCE709480088C0F57A70BA
:1008700080B27047120000200E00002010000020FF
:10088000BC0900201600002014000020D009002020
:10089000180000201C000020B80D00201A000020C5
:1008A0007047374A3748002105E013680360121D7E
:1008B000001D4B1C99B25929F7D370472DE9F0411F
:1008C00006F0FBF8352006F093FB052726E02C48C0
:1008D00006F038F92A4D2B4E002407E028463168EF
:1008E00006F000FA2D1D361D601C84B2592CF5D37C
:1008F0004FF00108224D234E002409E0286831689A
:10090000884201D04FF000082D1D361D601C84B2B6
:10091000592CF3D3B8F1000F00D004E03800A7F150
:100920000101CFB2D3D100BFBDE8F08108B51649AF
:100930006A4608681060009808BDF1B506F0BDF879
:10094000352006F055FB052612E00F4806F0FAF8B0
:100950000D4C6D462046296806F0C4F9012700BFFA
:1009600000BF20682968884200D0002707B104E052
:100970003000A6F10101CEB2E7D100BFF8BD000002
:1009800000FE0508A412002000F8000870B588B029
:100990002021684608F02AFBC6208DF800000E20B2
:1009A0008DF8010055208DF810000026F7480088CA
:1009B000864201DAF5480688F5480088864201DA61
:1009C000F348068800253FE0F0480088854211DAA8
:1009D00000240CE004EB4400C0EBC410ED4901EB33
:1009E0000010415DA01C0DF80010601CC4B2022C68
:1009F000F0DB04E00020CDF80200ADF80600E4488A
:100A00000088854211DA00240CE0C4EB041000EBEE
:100A10008000E14901EB8000415D201D0DF80010D0
:100A2000601CC4B20C2CF0DB03E0002101910291A8
:100A300003911121684604F08FFD00BFD74800885C
:100A40000028FBDC681C85B2B542BDDBD4480088B9
:100A500000128DF80200D24800788DF80300CC48CF
:100A6000008800128DF80400C94800788DF8050050
:100A700000208DF806008DF807008DF808008DF82D
:100A800009008DF80A001121684604F065FD002078
:100A90008DF802008DF803008DF804008DF8050034
:100AA0008DF806008DF807008DF808008DF8090014
:100AB0008DF80A001121684604F04EFD00208DF8E3
:100AC00002008DF803008DF804008DF805008DF804
:100AD00006008DF807008DF808008DF809008DF8E4
:100AE0000A001121684604F037FD00208DF802004D
:100AF0008DF803008DF804008DF805008DF80600D0
:100B00008DF807008DF808008DF809008DF80A00AF
:100B10001121684604F020FD00208DF802008DF8B8
:100B200003008DF804008DF805008DF806008DF89F
:100B300007008DF808008DF809008DF80A001121D2
:100B4000684604F009FD002514E0002405E0FF21BB
:100B5000A01C0DF80010601CC4B20E2CF7DB112194
:100B6000684604F0F9FC00BF8C4800880028FBDCD4
:100B7000681C85B2062DE8DB08B070BD30B589B0C1
:100B8000C6208DF8040019208DF8050055208DF839
:100B90001F000025F2E0EDB98148008800128DF8B1
:100BA00006007F48008800128DF80700002408E046
:100BB0007C480088C0F30721201D01AA1154601C45
:100BC000C4B2162CF4DB784800880112201D01AA5B
:100BD0001154C8E0012D19D1714800788DF8060034
:100BE0006F4800788DF80700002406E06D48017812
:100BF000201D01AA1154601CC4B2162CF6DB6A48F1
:100C000000880112201D01AA1154ACE0644800883C
:100C1000801C854211DA00240CE040F2A9106043E8
:100C2000624901EB4001A81E095CA01C01AA1154F5
:100C3000601CC4B2022CF0DB09E0002405E00021B6
:100C4000A01C01AA1154601CC4B2022CF7DB564848
:100C50000088801C854205DAA81E5549085C8DF87D
:100C60001E0002E000208DF81E00B5F5167F22DC84
:100C70004C480068801C854212D200240DE0C4EB71
:100C80004410C0EB04204B4901EB8001A81E095C15
:100C9000201D01AA1154601CC4B2162CEFDB62E0C7
:100CA000002405E00021201D01AA1154601CC4B2DB
:100CB000162CF7DB57E040F25920854213D100246F
:100CC0000EE00C2C06DA324800880112201D01AA21
:100CD000115403E00021201D01AA1154601CC4B26C
:100CE000162CEEDB3FE040F25A20854212D1002460
:100CF0000DE00C2C05DA26480178201D01AA1154BC
:100D000003E00021201D01AA1154601CC4B2162C5E
:100D1000EFDB28E000241AE0A5F516701C490988CD
:100D2000891C88420DDAC4EB041000EB80001A49DC
:100D300001EB8001A5F25A20095C201D01AA115483
:100D400003E00021201D01AA1154601CC4B20C2C28
:100D5000E2DB0C2405E00021201D01AA1154601CD7
:100D6000C4B2162CF7DB1C2101A804F0F5FB00BF70
:100D70000A4800880028FBDC681C85B2B5F5617F55
:100D8000FFF609AF00252AE000241BE0A4000020A4
:100D9000A600002048360020DD9E00200400002030
:100DA000A0000020900000209E000020B5940020AC
:100DB000599B002048470020FF21A01C01AA115484
:100DC000601CC4B2192CF7DB1C2101A804F0C4FB81
:100DD00000BFF64800880028FBDC681C85B2062DA1
:100DE000D2DB09B030BD00B585B030208DF80000F1
:100DF00004208DF80100EE4800788DF80200EC48E0
:100E000040788DF80300EA4880788DF80400E848BF
:100E1000C0788DF8050055208DF80600072168463A
:100E200004F09AFB05B000BD10B54021E14806F082
:100E3000F6F908B9202010BD8021DE4806F0EFF950
:100E400008B92120F7E74FF48071DA4806F0E7F996
:100E500008B92220EFE7FF20EDE730B50346302543
:100E6000541E0D5500248C5410460FE00A2493FBA9
:100E7000F4F504FB15343034E5B2441E0D55E0B2F0
:100E800000B905E00A2493FBF4F4A3B2002BEDDCD7
:100E900000BF904201D1441EE0B203E02025441E71
:100EA0000D55E0B20028F9DC30BD30B504460D46E2
:100EB000032229462046FFF7D0FF30BD10B5BE48BB
:100EC0000078002819DD182004F0C2FF47F6FF70F3
:100ED00004F0C4FF4FF4784004F0BDFFB748B8A158
:100EE00009680160011DB4480078FFF7DEFFD422D5
:100EF0000021B24804F0B5FF13E0182004F0A8FF69
:100F000047F6FF7004F0AAFF47F6FF7004F0A3FF56
:100F1000AA48ADA206CA06C0D4220021083804F0AF
:100F2000A0FF10BD30B503463025541E0D550024DA
:100F30008C5410460EE00A24B3FBF4F504FB153480
:100F40003034451E4C55441EE0B200B904E00A247A
:100F5000B3FBF4F3002BEED100BF904201D1441E4D
:100F6000E0B203E02025441E0D55E0B20028F9DC74
:100F700030BD70B5102004F06BFF002004F06BFF53
:100F80004FF6FF7004F06AFF002426E0904931F824
:100F9000140004228949FFF7C5FF04EB8400800098
:100FA00000F126023B21854804F05BFF884830F8B9
:100FB00014008849095D00FB01F505227F49284698
:100FC000FFF7B0FF04EB8400800000F126026521EA
:100FD0007A4804F046FF601CC4B2072CD6DB04221A
:100FE00076497D480068FFF79DFF04EB8400800090
:100FF00000F126023B21714804F033FF05226F49BE
:1010000076480068FFF78EFF04EB8400800000F153
:1010100026026521694804F024FF70BD10B5182030
:1010200004F016FF002004F016FF4FF6FF7004F0E6
:1010300015FF052261496A480088FFF70EFF6948DD
:101040000078012808D124205C4908703C22F42152
:101050005A4804F006FF07E02020584908703C2257
:10106000F421564804F0FDFE10BD10B5182004F020
:10107000EFFE002004F0EFFE4FF6FF7004F0EEFEEE
:1010800007224E4955480068FFF74CFF8C22DC21AF
:101090004A4804F0E6FE10BD10B5182004F0D8FE52
:1010A000002004F0D8FE4FF6FF7004F0D7FE0422B3
:1010B000424949480068FFF735FF64224FF48071C8
:1010C0003E4804F0CEFE10BD10B54748007850B938
:1010D0004648007838B9FFF7DFFFFFF7C6FFFFF794
:1010E0009DFFFFF746FF10BD2DE9F04F87B0074683
:1010F000884692463E46707830383178303901EB78
:10110000810100EB4100C0B20690069828B900208A
:101110008AF8000007B0BDE8F08F0698804501DB33
:101120004FF000080024A346A14602252BE0705D85
:101130007C281FD1BBF1000F07D100244FF0010B19
:10114000142101A807F052FF1BE0C84506D1621C1C
:1011500001A9504607F0DBFE0120DBE709F10100A1
:1011600000F0FF0900244FF0010B142101A807F043
:101170003DFF06E0112C04DA705D01A90855601CE2
:10118000C4B2681C85B2304607F0A2FEA842CEDC8D
:10119000BBF1010F08D1C84506D1621C01A9504618
:1011A00007F0B5FE0120B5E700BFB3E7040000205B
:1011B0005214002000100140AB000020B046002077
:1011C0004A414D3A000000004A414D3A3838380053
:1011D00014470020F6A60108D4000020D800002003
:1011E000DC000020D00000201E000020D1000020E4
:1011F00038B547F6FF7004F031FE47F6FF701C2348
:10120000322202210090042004F0B5FE002004F0F8
:1012100022FE182004F01CFEFD4AFE480178FE481C
:101220000068FFF761FF044604220B21F84804F030
:1012300018FE38BD38B504460D4625B1012D0BD03A
:10124000022D1BD111E020234FF4A072002108468B
:10125000009404F090FE12E0B0234FF4A07220211D
:101260000020009404F087FE09E020234FF4A072D0
:10127000D0210020009404F07EFE00E000BF00BFFB
:1012800038BD3EB5002147F6FF70FFF7D3FF0121BF
:101290004FF6FF70FFF7CEFF022147F6FF70FFF712
:1012A000C9FF44F2080002234FF4A07220210090ED
:1012B000002004F060FE44F2080002234FF4A07204
:1012C000CE210090002004F056FE002008210322C9
:1012D000A823CDE9002102907E222421102004F0D1
:1012E0001EFE102004F0B4FD002004F0B4FD4FF603
:1012F000FF7004F0B3FDC7480078012815D1002421
:1013000010E0C649085D0422C149FFF70BFE04EB5B
:101310008400800000F126021121BD4804F0A1FDE7
:10132000601CC4B2072CECDB15E0002411E0BC49C2
:1013300031F814000422B649FFF7F4FD04EB8400F1
:10134000800000F126021121B14804F08AFD601CE2
:10135000C4B2072CEBDB04EB8400800000F1260212
:101360001121B0A004F07DFD182004F071FD0020D3
:1013700004F071FD4FF6FF7004F070FD8C22A02187
:10138000AAA004F06EFD6422A021AAA004F069FDC9
:101390003C22A021A9A004F064FD3EBD10B5FFF7DA
:1013A00070FFFFF725FFFFF78FFEFFF787FD10BDEA
:1013B00010B50020A3490860A3490880A34908602C
:1013C0001821A34807F0F0FD10BDA249087070472E
:1013D00010B50446A0480078012809D1222C05D177
:1013E00000209D490870FFF7D9FF00E000BF4DE0E5
:1013F00099480078002849D1402C1CD004DC202CCE
:1014000018D0222C41D104E0412C28D0422C3CD1D0
:1014100000E000BF0020FFF7D8FF01208F490870CF
:1014200000208F4908808F490870FFF7C1FFFFF740
:10143000B5FF2AE000BF77480078012803D10220D9
:101440007449087006E073480078022802D1012030
:1014500070490870FFF7ACFFFFF7A0FF15E041F2FD
:101460002710FFF76AFA6420FEF71DFF00BF7E48D1
:10147000006800F4E0607D490843001D7A49086077
:10148000BFF3408F00BF00BFFEE700BF10BD10B527
:101490000020FFF739F800280BDD0020FEF7C7FF1A
:1014A00004466C48007818B92046FFF791FF00BF4A
:1014B00000BF10BD7CB506460C466D48007800B1F3
:1014C0007CBD304607F004FD85B22946304604F065
:1014D00043F8002C09DD0D208DF800000A208DF85E
:1014E00001000221684604F037F800BFE8E76149CF
:1014F00008701421604A1170704710B50246C31776
:1015000000EB13731B115D4CE35C0B70C31700EB16
:1015100013731B11A0EB0313E35C4B7000228A7062
:1015200010BD70B500243A48204455A10A680260F5
:1015300009790171641D002510E05348465D344867
:1015400001193046FFF7D9FFA01CC4B22022204663
:10155000611CCCB22E490A54681CC5B2162DECDBB6
:1015600000222046611CCCB229490A540121284896
:10157000FFF7A0FF00242648204444A10A68026027
:1015800089888180A41D4348067821480119304686
:10159000FFF78BFCE41C20222146641C1C484254AB
:1015A00000222146641C42540021FFF783FF0024DF
:1015B0001748204438A10A68026089888180A41DE8
:1015C00034484678124801193046FFF76EFCE41C97
:1015D00020222146641C0E48425400222146641CED
:1015E00042540021FFF766FF0024094820442CA143
:1015F0000A68026089888180A41D2B480678044807
:1016000001193046FFF751FCE41C202221464DE031
:10161000B0460020D000002014A70108F6A601085B
:1016200000A701082053554D200000002053554DC0
:101630003A000000205043533A00000044454E4F0A
:101640003A000000D4000020DC000020D800002078
:10165000144700201E000020D1000020730000204D
:10166000B6000020AB0000200CED00E00000FA0501
:101670004C000020860000208700002020A70108E1
:10168000B2E2B3A43A00000052140020B4C5D0D492
:10169000313A000028000020B4C5D0D4323A00000E
:1016A000D1D5C9AB313A200067140020641CF6483C
:1016B0004254F6484678F44801193046FFF7F5FBE6
:1016C000E41C20222146641CEF484254EF488678EF
:1016D000ED4801193046FFF7E8FBE01CC4B22022B8
:1016E0002046611CCCB2E8490A5400222046611C05
:1016F000CCB2E5490A540021E348FFF7DBFE0024A1
:10170000E1482044E2A10A68026089888180A41D22
:10171000DE48C678DC4801193046FFF7C6FBE41CFA
:1017200020222146641CD8484254D8480679D6481D
:1017300001193046FFF7B9FBE41C20222146641C46
:10174000D1484254D1484679CF4801193046FFF775
:10175000ACFBE01CC4B220222046611CCCB2CA49BA
:101760000A5400222046611CCCB2C7490A54002109
:10177000C548FFF79FFE0024C3482044C6A10A685D
:10178000026089888180A41DC0488679BE480119FD
:101790003046FFF78AFBE41C20222146641CBA482D
:1017A0004254BA48C679B84801193046FFF77DFB64
:1017B000E41C20222146641CB3484254B348067AF4
:1017C000B14801193046FFF770FBE01CC4B220227B
:1017D0002046611CCCB2AC490A5400222046611C50
:1017E000CCB2A9490A540021A748FFF763FE0024A0
:1017F000A5482044AAA10A68026089888180A41DA6
:10180000A248467AA04801193046FFF74EFBE01C7B
:10181000C4B220222046611CCCB29B490A549B488A
:10182000867A084601193046FFF73FFBE01CC4B238
:1018300020222046611CCCB293490A549348C67AB0
:10184000084601193046FFF730FBE01CC4B22022E5
:101850002046611CCCB28C490A5400222046611CEF
:10186000CCB289490A5401218748FFF723FE00249E
:10187000854820448CA10A6802604A684260098950
:1018800001810A348B4806787F4801193046FFF7FA
:101890000CFBE41C20222146641C7B48425400229D
:1018A0002146641C42540021FFF704FE00247648C0
:1018B000204481A10A68026009790171641D804891
:1018C0000678714801193046FFF7EFFAE41C202230
:1018D0002146641C6C48425400222146641C425438
:1018E0000021FFF7E7FD00246748204475A10A683E
:1018F000026009790171641D744806786248011913
:101900003046FFF7D2FAE41C20222146641C5E48D0
:10191000425400222146641C42540121FFF7CAFDB3
:101920000024594820446AA10A880280897881707D
:10193000E41C68480678544801193046FFF7B5FAA8
:10194000E41C20222146641C4F48425400222146B8
:10195000641C42540121FFF7ADFD00244A48204495
:101960005DA10A88028089788170E41C464A1119B9
:101970005A4A1078FFF799FAE41C20222146641C89
:101980004148425400222146641C42540021FFF782
:1019900091FD00243C4A1119504A5078FFF785FA0E
:1019A000E41C20222146641C374842540022214670
:1019B000641C42540121FFF77DFD0024324820447D
:1019C00047A109680160241D4021474805F027FC14
:1019D00006462D4801193046FFF767FAE41C20221D
:1019E0002146641C2848425400222146641C42546B
:1019F0000021FFF75FFD80213B4805F010FC064603
:101A0000214801193046FFF750FAE41C20222046F5
:101A1000611CCCB21C490A5400222046611CCCB285
:101A200019490A5400211848FFF744FD4FF480710A
:101A30002D4805F0F4FB0646134801193046FFF720
:101A400034FAE01CC4B220222046611CCCB20E49FC
:101A50000A5400222046611CCCB20B490A540121D1
:101A60000948FFF727FD01212048FFF723FD70BD3E
:101A700070B51F480078012805D1FEF785FEC8BB68
:101A800000201B49087016E3B046002067140020B0
:101A9000D1D5C9AB323A2000D1D5C9AB333A2000F9
:101AA000D1D5C9AB343A2000BAECCDE2B7A2C9E433
:101AB000203A000020000020C2EBC5CC3A00000014
:101AC00062000020BDF8B3AE3A0000002B000020F9
:101AD00055563A002A00002050533A002C000020AE
:101AE0004B45593A0000000000100140F8D00308AF
:101AF0003C010020FFE7FEF764FE0546F74800784A
:101B00000028C0D1A62D78D01ADC682D57D00EDC65
:101B1000622D27D006DC422D20D0482D4ED0612DDD
:101B20006CD123E0652D24D0672DF9D148E0A5F1D3
:101B3000A000062862D2DFE800F04649727B848C60
:101B4000A5F1A7000F28F5D2DFE800F08D969FA33E
:101B5000A7FDFCFB5858FAF9F8F7F6000020E04919
:101B60000870A7E20120DE490870A3E2FFF706F83B
:101B7000A0E20020DB4908704FF40071DA4805F05C
:101B800068FB0120D94908706420FEF78CFB002017
:101B9000D7490870D7490880D7490880D7490860D5
:101BA000D74908800120D7490870D7490870D7491C
:101BB00008704FF41670D64908807BE27AE279E229
:101BC000FEF7E4FE76E2FFF7ACFC73E2D148007862
:101BD000A8B90320FFF7F9FB03F0FBF92021CE4859
:101BE00005F037FB0120CD4908700020BD49087081
:101BF0000121CBA0FFF75EFC10E02FE059E20020AE
:101C0000FFF7E3FB0120B74908700020C9490870BD
:101C1000FFF7C4FB0121C8A0FFF74CFC4AE24FF4D8
:101C20000071B14805F015FB0120B049087041E290
:101C30004FF40071AC4805F00EFB0020AB49087072
:101C400038E20120FFF753FC0121BFA0FFF732FC6F
:101C500030E24021B04805F0FCFA2BE24021AE48CA
:101C600005F0F9FA26E2BA48007810B103F0B1F9AC
:101C700001E003F028FA1DE2B548007810B103F046
:101C8000A8F901E003F02BFA14E20120B149087031
:101C900010E20020AF4908700CE24FF40071924846
:101CA00005F0D7FA0120914908700020FFF78DFB5D
:101CB00001208C4908706420FEF7F5FA1522A64928
:101CC000A64807F024F90121A5A0FFF7F3FB0024A3
:101CD0000EE02020A5490870A049085DA349491CD1
:101CE000FFF7E3F80021A148FFF7E4FB601CC4B252
:101CF000152CEEDB0121AFF2D060FFF7DBFB1522E4
:101D000096499B4807F003F902209A490870002081
:101D1000994908705421994807F068F915219848A5
:101D200007F042F92A21974807F03EF9FF222A21BD
:101D3000954807F031F907E09EE1B3E096E081E0D5
:101D40006BE041E019E004E0012190A0FFF7B2FB55
:101D5000B0E196480078012807D100209349087027
:101D6000012193A0FFF7A6FB06E001208F49087030
:101D7000012194A0FFF79EFB9CE197480078012881
:101D800007D1002094490870012194A0FFF792FB2D
:101D900019E0012090490870012193A0FFF78AFB08
:101DA0004FF47A70FEF77FFA4FF480514E4805F0F9
:101DB00052FA4FF400514C4805F04DFA4FF480416F
:101DC000494805F048FA75E18A480078022811D19F
:101DD000C102454805F03FFA4FF40051424805F072
:101DE0003AFA4FF48041404805F035FA0320814922
:101DF000087011E07F48007818B901207D4908700B
:101E00000AE07C480078012803D102207949087053
:101E100002E00020774908704CE100206E4908700C
:101E2000FFF7D3FA01202F4908706420FEF73BFA30
:101E30000120504908707049087001216FA0FFF718
:101E400039FB37E16C480078012807D100206A4946
:101E5000087001216FA0FFF72DFB06E00120664905
:101E60000870012170A0FFF725FB23E1734800787B
:101E700001280BD110211C4805F0EDF900206F4915
:101E8000087001216EA0FFF715FB0AE0102116482B
:101E900005F0DFF901206949087001216BA0FFF707
:101EA00009FB07E11D48007801280BD120211A48C1
:101EB00005F0D1F9002019490870012166A0FFF74B
:101EC000F9FA0AE02021144805F0C3F9012013496A
:101ED0000870012164A0FFF7EDFAEBE04C00002050
:101EE0008A00002073000020000C01402000002028
:101EF00072000020A00000209E0000209000002022
:101F0000A6000020460000209B0000209800002032
:101F1000700000201E000020000801402200002068
:101F200053454E534F525F564945575F53544154A2
:101F300045000000D10000204E4F524D414C5F53F0
:101F400054415445000000006265657000000000C7
:101F500014010020BD00002052140020D4120020E3
:101F6000BFD5D4D8BAECCDE2D6B50000B04600203B
:101F7000A09400202601002027010020F0AC0020C2
:101F800044AD002084AD0020AEAD0020BFAACABC85
:101F9000BAF1B0D7D6BDD0A3D5FD2CB7C5C8EB38A4
:101FA0003067BAF1B0D7D6BD000000008B0000202A
:101FB000B2E2B3A4CAE4B3F6D0A3D5FDCAFDBEDD38
:101FC00000000000B2E2B3A4CAE4B3F6D4ADCABCC8
:101FD000CAFDBEDD0000000025000020D1D5C9AB40
:101FE000B5C6B4F2BFAA0000D1D5C9ABB5C6B9D841
:101FF000B1D50000230000208C000020BFAACABC7D
:10200000D1D5C9ABD0A3D5FD2CB7C5C8EB4134D6CB
:10201000BD000000D1D5C9ABCAE4B3F6D0A3D5FD4D
:10202000CAFDBEDD00000000D1D5C9ABCAE4B3F6DD
:10203000D4ADCABCCAFDBEDD0000000021000020F6
:102040005556B5C6B9D8B1D5000000005556B5C62D
:10205000B4F2BFAA00000000BDF8B3AEBAECCDE206
:10206000B9D8B1D500000000BDF8B3AEBAECCDE2EE
:10207000B4F2BFAA00000000FB48007801280BD191
:102080004102FA4805F0E7F80020F74908700121FD
:10209000F7A0FFF70FFA0BE04FF40071F34805F0DB
:1020A000D8F80120F04908700121F5A0FFF702FAE5
:1020B00000E000BF00BF70BDF5480068401CF44957
:1020C0000860F4480078012806D1F348F3490978FC
:1020D000405CF349088006E0F248F049097830F89E
:1020E0001100EF490880F0480068ED49098808446C
:1020F000ED490860ED48E949097830F81100401CC5
:10210000EA49E64A127821F812007047E14800785F
:1021100001283CD1E6480078132833D2DFE800F0EC
:102120000A0B0C1011121617181C1D1E222324282E
:10213000292A2E0000BF00BF0020D849087025E0E2
:1021400000BF00BF0120D54908701FE000BF00BFDD
:102150000220D249087019E000BF00BF0320CF4918
:10216000087013E000BF00BF0420CC4908700DE0E8
:1021700000BF00BF0520C949087007E00620C74915
:10218000087003E00720C549087000BF34E0C84864
:1021900000780E282BD2DFE800F007080C0D111292
:1021A00016171B1C2021252600BF0020BB490870E4
:1021B00021E000BF0120B94908701CE000BF0220E7
:1021C000B649087017E000BF0320B449087012E058
:1021D00000BF0420B14908700DE000BF0520AF49E1
:1021E000087008E000BF0620AC49087003E0072033
:1021F000AA49087000BF00BF70472DE9FE4F4FF09D
:1022000078094FF0320A002446E0AA4931F8140058
:1022100008F060F88346A84907F02EFF0546A54957
:102220002C3131F8140008F055F88346A24907F024
:1022300023FF07463946284607F0E0FF15D0394608
:10224000284608F031F90290504608F043F8019012
:10225000484608F03FF80090019908F025F98346B8
:10226000029907F009FF804601E04FF00008294677
:10227000404608F043F88346484608F02BF8594694
:10228000029008F011F906468C4840F824808C49E9
:1022900041F82460601CC4B2152CB6DBBDE8FE8F8B
:1022A00070B5002500241EE0202086490870C4F186
:1022B0001401854A505C05228249491CFEF7CDFD78
:1022C00000218048FFF7F6F8012C01DB132C02DD1A
:1022D000681CC5B205E07C48005D052801DB681C70
:1022E000C5B2601CC4B2152CDEDB0121AFF6C840BC
:1022F000FFF7E0F8002412E0202072490870C4F1D2
:102300001401724A32F8110005226E49491CFEF789
:10231000A4FD00216B48FFF7CDF8601CC4B2152C5A
:10232000EADB0121AFF60050FFF7C4F8002413E008
:10233000202064490870C4F11401654A32F8211064
:1023400088B205225F49491CFEF787FD00215D48E0
:10235000FFF7B0F8601CC4B2152CE9DB0121AFF621
:102360003850FFF7A7F8002412E0202055490870E4
:10237000C4F11401574A32F8110005225149491C91
:10238000FEF76BFD00214F48FFF794F8601CC4B2C4
:10239000152CEADB0121AFF67050FFF78BF8002413
:1023A00012E0202047490870C4F114014A4A32F86B
:1023B000110005224349491CFEF74FFD0021414809
:1023C000FFF778F8601CC4B2152CEADB0121AFF6E8
:1023D000A850FFF76FF80121AFF6B450FFF76AF885
:1023E000152D40D13D480078022879D10121AFF662
:1023F000C850FFF75FF8002431E03348005D022841
:1024000025DD3148005D801E2F490855304850F8C1
:102410002400304931F81410401A2D4941F82400A5
:10242000084650F824002C4931F81410401A284965
:1024300041F82400084650F824002349095DB0FB08
:10244000F1F081B21B482C3020F8141005E04FF455
:10245000FA7118482C3020F81410601CC4B2152CE6
:10246000CBDB002450E0E3E020000020000C014022
:10247000B2E2B3A4BAECCDE2B9D8B1D50000000005
:10248000B2E2B3A4BAECCDE2B4F2BFAA00000000FD
:10249000D4000020D0000020F6A60108250100206D
:1024A000DC00002000A70108D8000020144700200D
:1024B0003F010020EC120020000020413C350020AC
:1024C00090350020B046002044AD00205AAD0020D9
:1024D000F0AC002084AD0020AEAD0020260100202D
:1024E0003AE02020F9490870C4F11402F84931F8A3
:1024F00012000522F549491CFEF7AFFC0021F34804
:10250000FEF7D8FF601CC4B2152CEADB0121AFF640
:10251000E860FEF7CFFF0121AFF6F460FEF7CAFFD7
:102520000320EC4908700020EB4908705421EB4867
:1025300006F05CFD1521EA4806F036FD2A21E9483F
:1025400006F032FDFF222A21E74806F025FD012191
:10255000E6A0FEF7AFFF6BE0DE480078032867D106
:102560000121AFF63C70FEF7A5FF002431E0DC4806
:10257000005D022825DDDA48005D801ED849085537
:10258000D64850F82400D74931F81410401AD349DE
:1025900041F82400084650F82400D34931F81410BB
:1025A000401ACE4941F82400084650F82400CC498E
:1025B000095DB0FBF1F081B2C5482C3820F8141049
:1025C00005E04FF49661C2482C3820F81410601CC6
:1025D000C4B2152CCBDB002413E02020BB490870CB
:1025E000C4F11402BA492C3931F812000522B74956
:1025F000491CFEF732FC0021B448FEF75BFF601C6B
:10260000C4B2152CE9DB0121AFF6E470FEF752FFEE
:102610000121AFF6EC70FEF74DFF0020AD490870C8
:102620000121BAA0FEF746FFFEF748F9FFF7E5FDE6
:1026300070BD70B58CB0B8480088B84908800024D7
:1026400004E000204DF82400601CC4B20C2CF8DB20
:102650000026142516E0701CC6B200240EE05DF8BA
:102660002400C4EB041101EB8101AD4A02EB8101AE
:10267000495D08444DF82400601CC4B20C2CEEDB0C
:10268000681CC5B2A54800881438A842E3DC0024C1
:102690001EE0002E08DD5DF82400B0FBF6F0C1B2AC
:1026A0008B482D30015503E0002189482D3001551C
:1026B00020208649087086492D31085D8349491CD0
:1026C000FEF7F3FB00218148FEF7F4FE601CC4B264
:1026D0000C2CDEDB00207F49087001218BA0FEF767
:1026E000E9FEFEF7EBF80CB070BD10B58D48007830
:1026F00001287DD100208B4908708B480078002884
:10270000F7D102F066FC73480078012802D1FFF788
:1027100090FF5AE06F480078012804DD02F00CFDBC
:10272000FFF7BEFD51E081480078012803D18048C1
:1027300003F0DFF902E07E4803F0DBF9102003F03C
:1027400087FB002003F087FB4FF6FF7003F086FB4A
:1027500003225E4977480078FEF7E4FBBE22DC21C5
:102760005A4803F07EFB0322584973480078FEF76D
:10277000D9FBBE22FA21554803F073FBFFF7C6FCD4
:102780006E480078072807DAFFF796FC0120FEF76D
:10279000AEFEFEF799FC12E00320FEF7A8FE18201B
:1027A00003F056FB4FF4784003F055FB4FF6FF70F3
:1027B00003F054FB3C22F42161A003F052FB624879
:1027C0000078012801D1FEF7D9F96048008820F08F
:1027D00004005E4908805E48007860B908460088B9
:1027E00040F00800088002F06EFC9620594900E095
:1027F0000CE008700AE05548008840F0400053495A
:10280000088002F06CFCFA205349087010BD10B526
:102810000446082C12D2DFE804F00412202E3C4AB1
:10282000A7B54FF480514D4804F015FD04214C48E4
:1028300004F011FD08214B4804F00DFDB0E04FF409
:102840008051464804F007FD0421454804F003FD8B
:102850000821444804F0FDFCA2E04FF480513F48B9
:1028600004F0F9FC04213E4804F0F3FC08213D4843
:1028700004F0F1FC94E04FF48051384804F0EBFC94
:102880000421374804F0E5FC0821364804F0E1FC57
:1028900086E04FF48051314804F0DBFC04213048DD
:1028A00004F0D9FC08212F4804F0D5FC78E04FF45F
:1028B00080512A4804F0CDFC0421294804F0CBFCC7
:1028C0000821284804F0C5FC6AE00000B04600205A
:1028D000181300202601002027010020F0AC002062
:1028E00044AD002084AD0020AEAD0020BFAACABC1C
:1028F000B1A1B0D7D6BDD0A3D5FD2CB7C5C8EB3498
:102900003067B1A1B0D7D6BD00000000D0A3D5FD7F
:10291000CDEAB3C900000000A6000020220100207B
:10292000DD9E0020520000201E000020D00000206C
:102930003B1500203F010020400100202501002020
:1029400020535553500000008A000020B60000209C
:10295000BD000020BB000020BC0000200010014092
:1029600000140140000C01404FF48051FE4804F077
:1029700070FC0421FD4804F06CFC0821FC4804F0C4
:102980006AFC0DE04FF48051F74804F062FC04212A
:10299000F64804F05EFC0821F54804F05AFC00BF3C
:1029A00000BF10BD10B50121F24803F01AFD10BDA3
:1029B00010B5FFF7F7FF00BF022003F08FFF0028DC
:1029C000FAD0022003F09EFF10BD70B50022022154
:1029D000E94803F074FF0320FDF765FC0020E74998
:1029E000087008460078FFF712FF002502E1FFF7A4
:1029F000DFFF002412E0E24850F82400C0F3072073
:102A0000E04901F81400DE4850F82400000E0121CE
:102A100001EB4401DB4A5054601CC4B2052CEADBD4
:102A2000D848407AD8490870D648C078D749087045
:102A3000D44840784870D3480078D5490870D148C8
:102A40000079D4490870CF48007A4870CB480078A4
:102A500007280FD2DFE800F0040F1A3E6286AA00B2
:102A6000C8484079CC490870C6488079C871C548C3
:102A7000C0798873A5E0C3484079C7494870C14808
:102A800080790872BF48C079C8739AE0BD48407920
:102A9000C1498870BB4880794872BA48C0790874C7
:102AA000BE48007820B9B7488078BD49087010E06A
:102AB000BA480078012804D1B2488078B8494870F3
:102AC00007E0B6480078022803D1AE488078B449C0
:102AD000887076E0AB484079AF49C870A9488079E2
:102AE0008872A848C0794874AC48007820B9A548D5
:102AF0008078AB49C87010E0A8480078012804D15C
:102B0000A0488178A648017107E0A448007802280F
:102B100003D19C488178A248417152E0994840799C
:102B20009D49087197488079C8729648C079887421
:102B30009A48007820B9934880789949887110E0C4
:102B400096480078012804D18E4881789448C17154
:102B500007E092480078022803D18A48817890489B
:102B600001722EE0874840798B4948718548807909
:102B700008738448C079C8748848007820B98148AF
:102B800080788749487210E084480078012804D191
:102B90007C4881788248817207E08048007802286A
:102BA00003D1784881787E48C1720AE0754840793F
:102BB000794988717348807948737248C07908757B
:102BC00000BF00BF6D480078401C6C490870084683
:102BD0000078072190FBF1F201FB120067490870B1
:102BE00008460078FFF713FE4FF4FA70FDF765FB17
:102BF000681CC5B2072DFFF6FAAE012202215E481D
:102C000003F05DFE70BD10B5002466480078012811
:102C100012D10020634908706348007820B103286E
:102C200003D0052807D105E005E0FFF7CEFEFEF74B
:102C300078FC00E000BF00BF10BD10B55B48007815
:102C4000012830D1002059490870FEF7EDF85849A5
:102C50000870584800784006000E564908705448DD
:102C60000078FF2803D008460078401C08705248BE
:102C70000078002849D14E480078FF2814D14F48E9
:102C8000007850B94E48007838B14D48017800209E
:102C9000FDF79DFB0120FEF72AFC1420494908702E
:102CA00002204649087095E04448007800280BDD72
:102CB00042480078401E414908700846007818B91B
:102CC0003B4800783E4908703E48007800281BDDEC
:102CD0003C480078401E3B490870084600780028B0
:102CE00078D139490870012033490870304800789C
:102CF00036490870084600782030C1B20020FDF740
:102D000066FB0120FEF7F3FB64E0294800782F49B9
:102D10000978884216D12C48007800285ADD2A48C4
:102D20000078401E2849087008460078D0B9274826
:102D300000782030C1B20020FDF749FB0120FEF7EA
:102D4000D6FB47E000201C490870FF201F4908708F
:102D50001B4908700220194908701420194908708D
:102D6000002035E036E00000001001400014014072
:102D7000000C014000240140080002402400002013
:102D800034140020481400202B0000202C000020C8
:102D90002A000020280000205214002023000020D8
:102DA000671400207B0000201E000020CA000020C5
:102DB000CD000020CF000020C9000020C40000206A
:102DC000C7000020C5000020C6000020C800002069
:102DD000FE49087010BD10B5FD48007820BBFD48C5
:102DE0000078012814D1FC480088E8B9FB48007835
:102DF000D0B902F068F9F848008840F00100F649BF
:102E00000880F420F64908700020F64908800BE09D
:102E1000F148007800F02000002805DDEE48008829
:102E200020F02000EC49088010BD10B54FF400716F
:102E3000ED4804F00EFA0120EC49087002F043F965
:102E40006420FDF730FA0020E9490880E94908606C
:102E50004FF47A70FDF727FA02F041F94FF47A70D7
:102E6000FDF721FA02F0B5F84FF40071DE4804F0E6
:102E7000F2F90020DD49087010BD704710B5DE483A
:102E800003F044FCDD48DE490860DE48486000206D
:102E900088600520C86000200861802048618000AB
:102EA00088618000C861202008620002486200201A
:102EB0008862D14803F0CCFC10BD00B587B0012179
:102EC000480204F082FC0121880204F07EFC01210A
:102ED000084604F06DFC1720ADF8000000208DF8C6
:102EE00003006946C84804F007F93F20ADF8000028
:102EF00000208DF803006946C44804F0FDF8FFF790
:102F0000BDFF01220221BC4803F0D9FC0B208DF843
:102F1000180001208DF819008DF81A008DF81B009B
:102F200006A803F062F9B5484C3803F0C7F94FF42E
:102F3000C020019001208DF8080000208DF80900C4
:102F40004FF4602003904FF40060049005208DF84A
:102F5000140001A9A9484C3803F0D7F901231A46F7
:102F60000021A6484C3803F068FA0123022204210C
:102F7000A2484C3803F061FA012303220A219F483A
:102F80004C3803F05AFA012304220C219B484C3898
:102F900003F053FA012305220E2198484C3803F020
:102FA0004CFA9B4803F08AF94FF4C02001900120AD
:102FB0008DF8080000208DF809004FF46020039080
:102FC0004FF40060049005208DF8140001A990488A
:102FD00003F09BF901231A4619468D4803F02DFA98
:102FE0000123022211468A4803F027FA0123032213
:102FF0000B21874803F021FA012304220D21844884
:1030000003F01BFA012305220F21814803F015FA72
:1030100001217F4803F06DFA012178484C3803F014
:10302000A0F976484C3803F0BEF900BF73484C381D
:1030300003F0BEF90028F9D170484C3803F0C2F90A
:1030400000BF6E484C3803F0C2F90028F9D10121C5
:103050006F4803F086F96E4803F0A5F900BF6C488D
:1030600003F0A6F90028FAD1694803F0ABF900BFD4
:10307000674803F0ACF90028FAD101215F484C38C9
:1030800003F07AF901215C4803F00DFC022003F003
:1030900039FC07B000BD1FB50121084604F0A2FBB2
:1030A000B320ADF8000040F2CF70ADF8040000206E
:1030B000ADF80600ADF8020069464FF0804004F01C
:1030C000BDFC01221146900705F02FF81C208DF859
:1030D0000C0000208DF80D0001208DF80E008DF8F9
:1030E0000F0003A803F081F80121880705F002F81A
:1030F0001FBD08B501208DF802004002ADF80000A8
:1031000010208DF803006946374803F0F5FF1020C2
:10311000ADF800008DF803006946334803F0ECFF7A
:103120001021314804F097F800203A490870202017
:10313000ADF8000010208DF803006946324803F016
:10314000DBFF2021304804F086F800203249087067
:103150004020ADF8000010208DF8030069462A4891
:1031600003F0CAFF4FF48050ADF8000010208DF836
:10317000030069461C4803F0BFFF4FF480511A4812
:1031800004F069F84FF40050ADF8000010208DF8FD
:1031900003006946144803F0AFFF4FF40051124892
:1031A00004F059F84FF48040ADF8000010208DF87D
:1031B000030069460C4803F09FFF4FF480410A4822
:1031C00004F049F8012115482AE00000C60000205B
:1031D0001E0000203C000020B6000020140100204A
:1031E000B9000020A4000020000C014020000020B5
:1031F000A000002090000020080002404C24014064
:103200000814002034140020000801400010014080
:103210000028014021000020220000200002300090
:1032200004F03BF80820ADF8000010208DF80300F2
:103230006946FE4803F060FF0420ADF8000010204E
:103240008DF803006946FA4803F056FF4FF48050AA
:10325000ADF8000010208DF803006946F54803F032
:103260004BFF0020FFF7D3FA4020ADF800004820C4
:103270008DF803006946EF4803F03EFF8020ADF86B
:10328000000048208DF803006946EA4803F034FF47
:103290004FF48070ADF8000048208DF803006946B7
:1032A000E44803F029FF4FF48070ADF800000420DB
:1032B0008DF803006946DD4803F01EFF08BDC820F5
:1032C000DD4981F8E0000021DB4880F8E11080F85A
:1032D000E91080F8EF1080F8EA10012180F8E21080
:1032E000002180F8E310012180F8E410002180F82B
:1032F000E51080F8E61080F8E710012180F8EB1067
:1033000080F8EC10322180F8ED10642180F8EE1086
:1033100070470320C84981F8B0004621C64880F8AC
:10332000B110412180F8B2103C2180F8B310372150
:1033300080F8B4100A2180F8B510962180F8B610F4
:103340000A2180F8B710962180F8B810642180F81F
:10335000B910372180F8BA10412180F8BB105A21EA
:1033600080F8BC10732180F8BD103C2180F8BE109D
:10337000462180F8BF103C2180F8C010502180F811
:10338000C1100C2180F8C210172180F8C3101D2134
:1033900080F8C4102E2180F8C510162180F8C610C0
:1033A000242180F8C710272180F8C810342180F824
:1033B000C9102B2180F8CA103C2180F8CB10912134
:1033C00080F8CC10822180F8CD10782180F8CE10C2
:1033D0007047002006E09949095C974A42F820109E
:1033E000411CC8B20328F6DB704700B500230EE08D
:1033F0009348C15C9048103040F833109048C15C4D
:103400008D48103000EBC3004160581CC3B2032B41
:10341000EEDBFFF7DEFF00BD10B5FFF7E6FF0A2089
:10342000854981F8A0002A218348483005F0BCFD79
:103430002A218148743005F0B7FDFF2215217E480E
:10344000303005F0A9FD10BD10B5FFF7E5FFFFF71F
:1034500060FFFFF734FF10BD0EB505F0B4FB4FF46D
:103460008031C80202F0F3FE4FF4806004F074F87B
:10347000002004F07AF84FF4004004F091F80121A4
:103480003D2004F0A2F90121480204F09EF9012137
:10349000880204F09AF90121880304F096F901F0FA
:1034A00065FFFCF754FFFCF7D9FEFDF7F9F9FDF7CE
:1034B000F8F96148D0F860016249884217D05E4847
:1034C000D0F8600100F07040B0F1004F05D0FFF778
:1034D000BBFF0020FDF731FA03E0FFF71AFFFFF70B
:1034E000EEFE58485449C1F86001FDF7E7F9FFF7CF
:1034F00000FEFFF7D0FD01F077FD0821012003F069
:1035000011FF4FF48070009000208DF804000C2013
:103510008DF8050001208DF80600684603F02EFAAC
:1035200017208DF8080003208DF8090000208DF881
:103530000A0001208DF80B0002A802F056FEFFF7EA
:10354000BCFC0EBD4FF47A70FCF7ADFEFFF784FFB4
:103550000A20FCF7A8FE4FF6FF7002F069FC4FF45A
:10356000784002F078FC4FF6FF7002F077FC1820EC
:1035700002F06EFC6C227C2133A002F072FC4FF44E
:10358000FA70FCF790FEFFF778FCFFF74EFC002086
:103590002F4908702F490870FEF72FFE1522264983
:1035A00030312D4805F0B3FC4FF400711F4803F093
:1035B00050FE0120294908700020FDF706FF012078
:1035C00027490870002027490870FDF7F1FEFDF734
:1035D000E5FE0120FDF78BFF4FF48051134803F007
:1035E0003AFE4FF40051114803F035FE4FF480418C
:1035F0000E4803F030FEA7E01B480078012802D1F6
:1036000000201949087019480078012806D10020C7
:103610001649087016480088164908801648007830
:1036200001282DD100201449087027E0000C01402A
:103630000014014000100140A4120020C9A6010896
:10364000C5A601085311068757454C434F4D450009
:10365000380000203C000020A09400202000002022
:1036600073000020D10000207A00002072000020AA
:10367000A00000201E010020AC000020FDF71EFC71
:10368000FB48007801280AD10020F94908704FF45E
:103690000071F84803F0DFFD0020F7490870F74893
:1036A000007801283BD1F6480078A0BBF5480078A7
:1036B00088BBF5480078401CF3490870084600783C
:1036C0000A2824DD4FF40071EA4803F0C2FD01200E
:1036D000E949087001F003FD4FF4FA70FCF7E3FDCF
:1036E00001F077FC0020E9490870FDF76EFE01202B
:1036F000E74908700020E7490880FDF759FEFDF70B
:103700004DFE0120FDF7F3FE0020DF4908700A207E
:10371000FCF7C9FD03E0FFE70020DB490870DE4845
:103720000078012804D10020DB49087001F051FC29
:10373000FFF751FBFFF781FAFFF765FAFEF7D5FFB8
:10374000FEF796F9FDF7A3FE56E72DE9F04705468B
:103750000C46D248005D0A38A84202DC2846BDE883
:10376000F087284606F0B6FD8246CD4951F8240080
:10377000514606F0C3FD0746CA4850F824103846A3
:1037800006F00CFC0646304606F0DCFB074600223D
:10379000134606F071F901D8002609E0304606F01C
:1037A000D1FB07460022C04B06F0A0FA00D2BF4E64
:1037B000304606F057FD00F0FF094846CFE730B528
:1037C00003463025541E0D5500248C5410460FE03E
:1037D0000A2493FBF4F504FB15343034E5B2441E9F
:1037E0000D55E0B200B905E00A2493FBF4F4A3B24E
:1037F000002BEDDC00BF904201D1441EE0B203E09B
:103800003025441E0D55E0B20028F9DC30BD10B55E
:10381000024610460A2807DA30230B704B708B7073
:1038200000F13003CB7052E064280FDA30230B70C4
:103830004B700A2390FBF3F330338B700A2390FB19
:10384000F3F403FB14033033CB7040E0B0F57A7F20
:1038500019DA30230B70642390FBF3F330334B7091
:10386000642390FBF3F403FB140398B20A2390FB48
:10387000F3F330338B700A2390FBF3F403FB140350
:103880003033CB7023E04FF47A7390FBF3F3303393
:103890000B704FF47A7390FBF3F403FB140398B2AC
:1038A000642390FBF3F330334B70642390FBF3F409
:1038B00003FB140398B20A2390FBF3F330338B70AD
:1038C0000A2390FBF3F403FB14033033CB70002383
:1038D0000B7110BD10B500247548011975480078AA
:1038E000FFF795FF241D202071490855641C72487C
:1038F0000078072817D10846204470496E4A12788C
:1039000051F822100A6802604968416004F1080019
:10391000C4B267480119022269480078FFF74FFFD7
:10392000A01CC4B20FE0624801196448624A1278D0
:1039300050F8220002680A6042684A608068886025
:1039400004F10C00C4B2002059490855601CC4B2EF
:1039500001215748FDF7AEFD10BD10B5FDF7B4FBD2
:103960000120FDF7C4FD01F0C6FB0C20FDF72DFD85
:1039700010BD10B50120FDF7BAFD01F0BCFB0E2013
:10398000FDF723FD10BD10B5FFF723FD01F021FB6E
:10399000002001F0F9FA01F096FB40F6B830FCF790
:1039A00082FC484801784848484A127840F832106A
:1039B00001F00FFB01F093FB40F6B830FCF773FC0D
:1039C000434801784048414A127800EBC200416008
:1039D00001F0FFFA012001F0D7FA01F074FB40F684
:1039E000B830FCF760FC374801783748374A12781E
:1039F00040F8321001F0EDFA01F071FB40F6B830FA
:103A0000FCF751FC324801782F48304A127800EB1D
:103A1000C200416001F0DDFA022001F0B5FA01F0C8
:103A200052FB40F6B830FCF73EFC264801782648A9
:103A3000264A127840F8321001F0CBFA01F04FFB21
:103A400040F6B830FCF72FFC214801781E481F4A89
:103A5000127800EBC200416001F0BBFAFCF72EFFC8
:103A60001949103991F8E10001F08EFA10BD0000FB
:103A700080000020000C0140200000201E000020DB
:103A80003C0000203100002032000020AB0000206C
:103A900073000020B6000020BE000020A09400208B
:103AA0003C3500209035002000E06F4000007F434F
:103AB000B04600205300002025010020E400002033
:103AC000240100201A010020B4120020150100205A
:103AD0001B01002010B504462020FC490870452039
:103AE00048700222891C2046FFF769FE10BD642839
:103AF0001FDB0022CA700A2290FBF2F302FB1302C2
:103B000030328A700A2290FBF2F2D0B20A2290FB85
:103B1000F2F302FB130230324A700A2290FBF2F2F7
:103B2000D0B20A2290FBF2F302FB130230320A7089
:103B30001FE00A2814DB00228A700A2290FBF2F3AD
:103B400002FB130230324A700A2290FBF2F2D0B22A
:103B50000A2290FBF2F302FB130230320A7008E0F3
:103B600000224A700A2290FBF2F302FB1302303269
:103B70000A70704710B5D648007809280FD0D3488E
:103B8000D4A109880180D4490978133188B202226E
:103B9000CE49891CFDF761F90120FDF716FC4FF4B1
:103BA0000071CE4803F055FB0120CD49087001F0AB
:103BB00010FA0320FDF79BFC0120CA49087010BDD4
:103BC000F0B501460A2901DA4C20F0BD4C27C64861
:103BD000008801FB01054C2301F14C042BE004EBB0
:103BE000030C1FFA8CF000EBD07C4FEA6C02FF2A2A
:103BF00006DDFF22FF24E01800EBD07CCCF34F025F
:103C000002FB02F086B2A5F11400B04204D82830BD
:103C1000864201D81046D8E7D81C844206DCE0185A
:103C20001FFA80FC0CEBDC704010CEE7AE4201D2F4
:103C3000134600E01446D2E770B505460E464C2404
:103C40006C433046FFF7BCFFB4FBF0F4A0B270BD8C
:103C50007FB505460021A54804F04CFA0121042057
:103C600003F0C0FD25B1012D05D0022D09D105E0DD
:103C70004FF4E17406E04FF4C87403E04FF4B474F9
:103C800000E000BF00BFB320ADF8000040F22B10F1
:103C9000ADF804000020ADF80600ADF8020069465A
:103CA000924803F0CBFE01221146904804F03DFA01
:103CB0001E208DF80C0000208DF80D0001208DF8DD
:103CC0000E008DF80F0003A802F08FFA012187483B
:103CD00004F010FA7FBD10B585480078401C844977
:103CE0000870084600780521B0FBF1F201FB1200D4
:103CF0007F4908707F480978405C38B920217E48A8
:103D000003F0A9FA00207D49087006E020217A48D6
:103D100003F09FFA01207949087010BD10B50446E0
:103D2000206877490840B0F1005F0CD160687549A0
:103D3000086008460068744908602068FCF787FA44
:103D400071480068804710BD704700BFFEE700BFA4
:103D5000FEE700BFFEE700BFFEE770477047704711
:103D600010B56A480088002804DD68480088401EB5
:103D70006649088066480068401C654908606548D7
:103D80000088401C6349088008460088B0F57A7FA7
:103D900007DB0120604908706049087000205D4918
:103DA00008805F48007800280DDD5D480078401EDF
:103DB0005B4908700846007828B901205949087005
:103DC0001420574908705848008800280ADD5648D2
:103DD0000088401E544908800846008810B9012018
:103DE000524908705248007801285BD13848007861
:103DF000032857D041480078B8B14E4800784E4962
:103E000008804C4800783C2805DD4C480078401C70
:103E10004A49087020E04948007800281CDD4748DE
:103E20000078401E4549087016E042480078444931
:103E30000880404800783C2805DA40480078401C5B
:103E40003E49087008E03D480078002804DD3B4802
:103E50000078401E394908703A480078401C3949BA
:103E600008700846007805281CDB00200870FFF762
:103E700032FF35480078401C334908700846007806
:103E80000A280FDB002008702C4800781E2803DB6E
:103E900001202E49087002E000202C490870002003
:103EA0002649087010BD10B52021294804F0AAFD4C
:103EB00050B1274804F03CFDC4B22046FCF744FB57
:103EC0000120244908705EE046E00000B046002072
:103ED0001E00002020450000AB000020000C014027
:103EE00020000020AC000020040100200008004059
:103EF0000601002030A70108000801402200002030
:103F00000000FE2F0C01002008010020DE00002030
:103F100048000020100100207A0000207B000020D3
:103F2000CC000020CA0000207E000020800000207D
:103F3000730000202B0000203600002038000020F5
:103F400034000020120100203B0000203C00002033
:103F5000003801403A0100208021FA4804F052FD67
:103F600088B1F9480088002807DDFCF73BFB0446D0
:103F70002146F44804F0D8FC05E0002240F2277105
:103F8000F04804F070FC10BD10B52021EF4804F09B
:103F900039FD50B1ED4804F0CBFCC4B22046FCF72B
:103FA00001FC0120EA49087016E08021E74804F08E
:103FB00029FD88B1E7480088002807DDFCF739FCB7
:103FC00004462146E14804F0AFFC05E0002240F23F
:103FD0002771DE4804F047FC10BD10B50121DE4812
:103FE00004F045FB60B30121DB4804F049FBDB48EA
:103FF0000078012803D0DA480088002820DDD8485E
:104000000088002815DDD6480088401ED449088065
:104010000846008868B900F0DCFF0020D14908702C
:10402000D1490870D1480088D14908800020D14981
:104030000870FEF7B7FCD0480068401CCE49086005
:1040400010BD10B50023CD48007808B9002010BD80
:104050000023002100220FE0C948845CC948805C2D
:104060000A38844202DA481CC1B203E0994200DDFA
:104070000B460021501CC2B2162AEDDB994200DD2E
:104080000B46032B01DB0120E1E70020DFE7BE4800
:104090000078012871D1BD4800784006000EBB4968
:1040A0000870BB484078B42803DA08460078401C02
:1040B0000870B8480078002845D1B448007800F06E
:1040C0000F000F286DD10120B2490870B248007866
:1040D00003280ED10020B1490870B148008820F0B3
:1040E0004000AF4908800846008840F01000088072
:1040F00057E0A9480078022853D10020A949087048
:10410000F420A9490870A648008840F00200A4499C
:1041100008800846008820F0010008803720A34965
:1041200008701920A249087001208E4908700020EB
:10413000A04908808D4908609F4908809F490880F0
:104140009F4908802DE093480078012829D18F48A5
:10415000007800F00F0020BB00208E4908708E48C8
:10416000007802280AD13720964908701E20964907
:10417000087012209549087013E00DE08648007819
:1041800003280ED12820924908708548008820F025
:1041900010008349088004E000207C4908707D49B4
:1041A0000870704778480078012836D1894800782F
:1041B0004006000E8749087075480078B42803DA75
:1041C00008460078401C087083480078A0B98148F0
:1041D000007800F00F000F2824D101207E490870DC
:1041E0006D48007803281DD06B480078022819D14B
:1041F00000206D49087015E077480078012811D13A
:104200007448007800F00F0060B90020724908700F
:1042100061480078022805D004E000206D4908704C
:104220006D490870704710B54F480078012839D1A2
:104230004E480068B0F5617F34D2002425E067481D
:104240000078012803D06648007800280CDD4C482F
:10425000005DC4EB4411C1EB0421624A02EB810111
:10426000424A126888540EE04549085D2146FFF72E
:104270006CFAC4EB4411C1EB04215A4A02EB8101F0
:104280003A4A12688854601CC4B2152CD7DB4B48DC
:1042900000785549354A1268885434480068401CF3
:1042A0003249086010BD51480088B0F5FA6F10DA45
:1042B0004F4800784F494D4A128888544C484178FD
:1042C0004D484A4A1288815448480088401C474952
:1042D000088028480078012817D13948008840F222
:1042E000523188422CDA424801784448344A1288D4
:1042F00081543F4841784248314A128881543048BD
:104300000088401C2E4908801AE0394800783D4951
:104310003D4A12788854364841783A4832303A4A11
:104320001278815438480078401C37490870084694
:104330000078322190FBF1F201FB12003249087043
:104340007047000000380140040000200048004091
:104350003C010020180000200008004073000020ED
:1043600070000020460000209B00002090000020EC
:104370001C01002098000020680000202000002080
:1043800052140020A0940020220000203D000020B4
:104390002C0000203F00002014010020BC00002061
:1043A000B6000020B9000020B800002099000020CD
:1043B0009C000020A6000020940000206400002043
:1043C000A00000209A0000209D0000204500002051
:1043D000BA0000203E000020410000208B00002099
:1043E00026010020484700201C910020A400002046
:1043F0002800002048360020183E0020B5940020F8
:1044000007980020E4350020A3000020FE48007833
:1044100001280FD1FD480088B0F5617F0ADAFC4819
:104420000078FC49F94A12888854F8480088401CF2
:10443000F64908807047F8480078012829D1F748E4
:104440000088B0F5967F24DAF5480078012856D127
:10445000F448007802281DD1F3488178F348EF4AE8
:1044600012888154F0484179F148EC4A128881540D
:10447000ED48017AEF48E94A12888154EA48C17A46
:10448000ED48E64A12888154E4480088401CE3491C
:10449000088087E1E3480078C0B9E3480078E7493D
:1044A000DE4A12888854E048C178E548DB4A128821
:1044B0008154DD488179E348D84A12888154DA482A
:1044C000417AE148D54A128881546BE1D648417857
:1044D000DE48D24A12888154D3480179DC48CF4A59
:1044E00012888154D048C179DA48CC4A1288815464
:1044F000CD48817AD848C94A1288815452E1C948C6
:104500000078022872D1C8488078B4214843D34942
:1045100091F8A31090FBF1F0FF2809DAC2488078E7
:10452000B4214843CD4991F8A31090FBF1F000E08D
:10453000FF20C1B2BD48B94A12888154BA484079B7
:10454000B4214843C54991F8A61090FBF1F0FF282B
:1045500009DAB5484079B4214843C04991F8A6101A
:1045600090FBF1F000E0FF20C1B2B148AB4A1288E5
:104570008154AD48007AB4214843B84991F8A91054
:1045800090FBF1F0FF2809DAA748007AB4214843EC
:10459000B24991F8A91090FBF1F000E0FF20C1B200
:1045A000A4489E4A128881549F48C07AB421484347
:1045B000AA4991F8AC1090FBF1F0FF2809DA9A486B
:1045C000C07AB4214843A54991F8AC1090FBF1F0B2
:1045D00000E0FF20C1B29848904A128881548F4869
:1045E0000088401C8D490880DCE0FFE78D4800789A
:1045F00000286BD18C480078B4214843974991F842
:10460000A11090FBF1F0FF2809DA87480078B42167
:104610004843924991F8A11090FBF1F000E0FF208F
:1046200086497E4A128888547F48C078B42148431E
:104630008A4991F8A41090FBF1F0FF2809DA7A4832
:10464000C078B4214843854991F8A41090FBF1F05B
:1046500000E0FF20C1B27A48704A12888154724843
:104660008079B42148437D4991F8A71090FBF1F07F
:10467000FF2809DA6C488079B4214843774991F8DA
:10468000A71090FBF1F000E0FF20C1B26D48634A33
:10469000128881546448407AB42148436F4991F8A4
:1046A000AA1090FBF1F0FF2809DA5F48407AB421A4
:1046B00048436A4991F8AA1090FBF1F000E0FF200E
:1046C000C1B26148554A128881546BE0564840781F
:1046D000B4214843614991F8A21090FBF1F0FF2802
:1046E00009DA51484078B42148435C4991F8A21056
:1046F00090FBF1F000E0FF20C1B25448474A128815
:10470000815449480079B4214843544991F8A5108F
:1047100090FBF1F0FF2809DA43480079B4214843BF
:104720004E4991F8A51090FBF1F000E0FF20C1B2D6
:1047300047483A4A128881543B48C079B4214843DB
:10474000464991F8A81090FBF1F0FF2809DA3648A5
:10475000C079B4214843414991F8A81090FBF1F089
:1047600000E0FF20C1B23B482C4A128881542E48F9
:10477000807AB4214843394991F8AB1090FBF1F0AD
:10478000FF2809DA2848807AB4214843334991F850
:10479000AB1090FBF1F000E0FF20C1B22E481F4AA1
:1047A00012888154704710B5022002F097F8002853
:1047B0007ED0022002F0A6F829480068401C284953
:1047C0000860002412E0274850F82400C0F30720B6
:1047D000254901F81400234850F82400000E012157
:1047E00001EB4401204A5054601CC4B2052CEADBA2
:1047F0001D48407A1D4908701B48C0781C49087044
:1048000019484078487035E0980000209E0000204C
:104810002A000020599B002046000020A60000200E
:104820008C000020230000206714002035A1002008
:10483000B9A400203DA80020C1AB0020DD9E0020CF
:1048400061A20020E5A5002069A9002009A00020A0
:104850008DA3002011A7002095AA0020A4120020FB
:104860006C00002034140020481400202B0000208D
:104870002C000020FE480078FE490870FC480079B2
:10488000FD490870FA48007A4870FC48007807280B
:1048900011D2DFE800F004111C406488AC00F44839
:1048A0004079F7490870F2488079C871F04800E013
:1048B00002E1C0798873A5E0ED484079F04948707D
:1048C000EB4880790872EA48C079C8739AE0E848F2
:1048D0004079EB498870E64880794872E448C079AD
:1048E0000874E848007820B9E1488078E649087003
:1048F00010E0E4480078012804D1DD488078E249DE
:10490000487007E0DF480078022803D1D848807853
:10491000DD49887076E0D6484079D949C870D448D6
:1049200080798872D248C0794874D648007820B916
:10493000CF488078D449C87010E0D2480078012868
:1049400004D1CB488178D048017107E0CD48007888
:10495000022803D1C6488178CB48417152E0C4484F
:104960004079C7490871C2488079C872C048C07987
:104970008874C448007820B9BD488078C2498871DD
:1049800010E0C0480078012804D1B9488178BE48B9
:10499000C17107E0BB480078022803D1B448817890
:1049A000B94801722EE0B2484079B5494871B04823
:1049B00080790873AE48C079C874B248007820B9CD
:1049C000AB488078B049487210E0AE4800780128C2
:1049D00004D1A7488178AC48817207E0A9480078E3
:1049E000022803D1A2488178A748C1720AE0A048F2
:1049F0004079A34988719E48807948739C48C07962
:104A0000087500BF00BF9D480078401C9B49087096
:104A100008460078FDF7FBFE9848007807280BD180
:104A2000FFF735FBFFF7BEFBFFF7FDFBFFF73BFC96
:104A3000FFF701FDFFF7EAFC90480078072803DA4A
:104A40000121924801F0CDFC8C480078072846D11E
:104A500000208A49087008460078FDF7D8FE8C4887
:104A6000007848BB87480078022811D1C1028948E4
:104A700002F0EFFB0020834908704FF40051854895
:104A800002F0E9FB4FF48041824802F0E4FB26E0AB
:104A90007C48007888B94FF480517E4802F0DBFBF7
:104AA0004FF400517B4802F0D4FB01207549087097
:104AB0008103784802F0CFFB11E04FF48051754834
:104AC00002F0C9FB4FF40051724802F0C4FB4FF4EE
:104AD0008041704802F0BDFB02206A49087010BD99
:104AE00010B50121880703F0C2FD002868D001211C
:104AF000880703F0C5FD6848007800280ADD66488D
:104B00000078401E644908700846007810B90120FA
:104B10006249087062480078401C61490870084684
:104B200000780A2839DB002008705E4800780228E7
:104B300003D05C480078032829D15B4800786428BA
:104B40000BDA5A4800885A49574A127821F812005D
:104B500055480078401C5449087056480078C8B938
:104B6000524800880F280EDA53480088401C5249EA
:104B70000880084600880A280CDB01204D4908708F
:104B8000FEF7F8FF06E000204B49088002E0002015
:104B90004949088000204549088048480078002895
:104BA0002ADD47480078401C4549087008460078CF
:104BB00044490978884204DA4021434802F049FB1D
:104BC0001AE03F4801783F4800780C30814204DA0F
:104BD00040213D4802F03FFB0EE0002038490870BC
:104BE00036480078401E354908700846007818B9E4
:104BF0004021354802F02FFB10BD704710B54FF42F
:104C0000807001F012FF00286ED04FF4807001F028
:104C100017FF2E480088401C2C4908802348008834
:104C2000401C22490880142029490870294800782E
:104C3000012804D128480078401C274908702748DB
:104C40000078012808D117480078022804D12448A8
:104C50000088401C224908802248007800284BDD4B
:104C600020480078401E1F490870084600783CE044
:104C7000481400202A0000202800002024000020E2
:104C8000521400202300002067140020002401405B
:104C900025000020000C01403B0100203A010020CB
:104CA0004000002014010020AA000020A8000020DD
:104CB000E8450020AB000020AE0000208600002068
:104CC00088000020870000200008014062000020CA
:104CD000B10000205E0000205F0000209B0000204B
:104CE000640000204400002006E128B90120894921
:104CF00008700020884908808848007800280ADD6C
:104D000086480078401E854908700846007810B92A
:104D100000208049087082480088002804DD80480F
:104D20000088401E7E4908807E480078012808D10E
:104D30007D480078022804D17C480088401C7B49CB
:104D400008807B48007800280DDD79480078401EF7
:104D5000774908700846007828B90020754908800E
:104D600001207549087075480078002818DD7348DF
:104D70000078401E714908700846007880B900200C
:104D80006D49087001206E4908706E48008840F037
:104D900004006C4908800846008820F00200088062
:104DA0006948007800280DDD67480078401E664994
:104DB00008700846007828B900206449086001207E
:104DC000634908706348007800280EDD6148007868
:104DD000401E604908700846007830B95B4800887A
:104DE0005D49088000205A4908705C480078002816
:104DF00012DD5A480078401E58490870084600786D
:104E000050B95048008820F002004E490880032025
:104E100053490870FEF7AEFE52480078002812DDB4
:104E200050480078401E4F4908700846007850B935
:104E30004448008820F00100424908800320484986
:104E40000870FEF797FE48480078002814DD4648B1
:104E50000078401E444908700846007860B943480D
:104E60000078012805D13748008840F020003549F6
:104E7000088001203E4908703E480078002810DD77
:104E80003C480078401E3B4908700846007840B90D
:104E90002C48008820F008002A4908800120344965
:104EA000087035480078002810DD33480078401E2F
:104EB000314908700846007840B92248008820F03F
:104EC0004000204908800120294908702B4890F8AB
:104ED000B00000F0020000280EDD2148007858B92B
:104EE00027480088C82807DD02201D490870FEF702
:104EF00041FE00202249088010BD704710B50221F4
:104F0000204801F0DFFB18B102211E4801F0E3FB4D
:104F100010BD000046000020A60000204500002033
:104F200082000020300000201401002094000020A6
:104F3000990000209E000020980000209A00002088
:104F400052000020B60000209C00002090000020AD
:104F50009B0000209D0000201C010020B8000020C4
:104F6000AB000020B9000020BA0000203C00002067
:104F7000BE000020BB000020BC000020A4120020C6
:104F80004E0000200024014010B504466348047020
:104F900024B1012C03D0022C09D101E000BF00BFD5
:104FA000FF205F490870F0205E4908700BE0002088
:104FB0005A4908705C48007C594908705A48007D7D
:104FC0005849087000BF00BF54480078FEF740FE03
:104FD00010BD5648007830B100205449087054493B
:104FE0000880091D0880704700B589B003208DF83E
:104FF00022000120ADF8200018208DF8230008A918
:105000004C4802F079F80220ADF8200018208DF805
:10501000230008A9474802F06FF80121022002F09E
:10502000E1FB40F2CF20ADF81400FE20ADF81800EF
:105030000020ADF81A00ADF8160005A93C483C3830
:1050400002F0FCFC6020ADF804000120ADF8060081
:105050000020ADF80800ADF80A00ADF80C0001A979
:1050600033483C3802F0B6FD082131483C3803F0A3
:1050700087F96020ADF804000120ADF8060000209B
:10508000ADF80800ADF80A00ADF80C0001A92848F9
:105090003C3802F0EAFD082125483C3803F079F954
:1050A000012123483C3803F025F8FFF792FF012146
:1050B0001F483C3803F02AF81B4991F8E100FFF73C
:1050C00063FF09B000BD022018490870002018498C
:1050D000091D088012480078091F088070470320C6
:1050E000124908700F4800781149091D08800020F6
:1050F000091F0880704710B5FFF76BFF0120FBF711
:10510000D2F810BD06480078094908807047054864
:1051100000780749091D088070470000150100202C
:105120001A0100201B010020A412002014010020FD
:105130003C040040000C01402DE9F84F2A2183482F
:1051400003F032FF0024F7E081480088401E1FFA78
:1051500080F84FF0000B00252CE0C4EB4410C0EBAE
:1051600004207C4901EB8000415D7B48005D0A38EA
:1051700081421DDAC4EB4410C0EB0420754901EBF9
:105180008001681C095C7448005D0A3881420FDAAE
:10519000C4EB4410C0EB04206E4901EB8001A81C55
:1051A000095C6D48005D0A38814201DAA84608E0D2
:1051B000681C85B26649088800EBD071B5EB610FB9
:1051C000CBDB00BF62480088401E85B22CE0C4EBF8
:1051D0004410C0EB04205F4901EB8000415D5E4854
:1051E000005D0A3881421DDAC4EB4410C0EB042094
:1051F000584901EB8001681E095C5748005D0A3878
:1052000081420FDAC4EB4410C0EB0420514901EB9A
:105210008001A81E095C5048005D0A38814201DA0D
:10522000AB4608E0681E85B24949088800EBD0719A
:10523000B5EB610FCBDC00BF4549088800EBD071AE
:1052400008EB6101594575DC002600200090ABEBAE
:10525000080087B2B1464FF0FF0A3846F91707EB4E
:10526000917108EBA1018DB230E0C4EB4410C0EBAA
:105270000420384901EB8000405D06440098401C42
:105280000090C4EB4410C0EB042001EB8000405DB3
:10529000484507DDC4EB4410C0EB042001EB80005F
:1052A00010F80590C4EB4410C0EB0420294901EB31
:1052B0008000405D504507DAC4EB4410C0EB042089
:1052C00001EB800010F805A0681C85B207EB4700D1
:1052D000C11700EB917108EBA101A942C5DAD145D4
:1052E00028DDA9EB0A00142824DA06EB8600460024
:1052F0000098B6FBF0F6194830F81400B04202D816
:10530000164921F81460164830F81400B04202D350
:10531000134921F81460134850F82400304411490F
:1053200041F824001048005D401C0F49085507490A
:1053300021F81460601C84B2152CFFF605AFBDE89F
:10534000F88F704701460020704770475AAD002023
:105350001C01002048470020A094002084AD0020BC
:10536000AEAD0020F0AC002044AD002000B587B009
:105370004FF48060ADF8180004208DF81B00012068
:105380008DF81A0006A9864801F0B6FE4FF40070A9
:10539000ADF8180018208DF81B0006A9804801F010
:1053A000ABFE4FF4E13002900020ADF80C00ADF8F8
:1053B0000E00ADF81000ADF814000C20ADF812008E
:1053C00002A9784803F0B7F94FF4A06000F008FF95
:1053D00025208DF8040001208DF8050002208DF8AD
:1053E000060001208DF8070001A800F0FEFE012252
:1053F00040F225516B4803F036FA002240F2277143
:10540000684803F030FA0121664803F020FA0020D2
:1054100065490870654908700121880402F0E2F9C5
:105420004FF40060ADF8180004208DF81B00012037
:105430008DF81A0006A95E4801F05EFE4FF4806008
:10544000ADF8180018208DF81B0006A9584801F087
:1054500053FE4FF4E13002900020ADF80C00ADF89F
:105460000E00ADF81000ADF814000C20ADF81200DD
:1054700002A9504803F05FF94FF4A06000F0B0FEBD
:1054800027208DF8040001208DF8050002208DF8FA
:10549000060001208DF8070001A800F0A6FE0122F9
:1054A00040F22551434803F0DEF9002240F2277113
:1054B000404803F0D8F901213E4803F0C8F9002024
:1054C0003D49087007B000BD70B504460D4606E0C2
:1054D000FBF7A3F8691D884200DD01E00026F7E72D
:1054E00000BF002240F227712E4803F0BCF903E010
:1054F0002078FBF75DF8641C2800A5F101018DB24E
:10550000F6D1012240F22771264803F0ACF970BDB4
:1055100070B504460D4606E0FBF730F9691D884278
:1055200000DD01E00026F7E700BF002240F227710E
:10553000224803F098F903E02088FBF7BEF8A41C8A
:105540002800A5F101018DB2F6D1012240F22771A8
:105550001A4803F088F970BD70B504460D4606E0A0
:10556000FBF782F9691D884200DD01E00026F7E7BC
:1055700000BF002240F227710E4803F074F903E0E7
:105580002078FBF73CF9641C2800A5F101018DB2DD
:10559000F6D1012240F22771064803F064F970BD8C
:1055A00000080140003801403A0100203B01002082
:1055B000000C0140004800403C0100200044004035
:1055C0002DE9F04704460F46944600212DE04FEAAE
:1055D000812808FB07F898FBF3F5A812A5EB8022B9
:1055E00000F1010814F8088014F80090A8EB0908ED
:1055F00008FB02F84FEAA82814F800A000F10109FE
:1056000014F80990AAEB090909FB02F908EB2958DB
:1056100014F8009008EB0906FF2E00DDFF26002E8F
:1056200000DC00260CF80160491C9942CFDBBDE884
:10563000F0872DE9F04F91B0FE480088322803DB57
:10564000FC480088B42808DDFF20FB490870FB49AE
:105650000870002011B0BDE8F08F4FF44071F84899
:1056600003F0A2FC002414E0F64B03EB8412F14B90
:105670001B88A3F10C01C4EB041303EB8303DFF8D5
:10568000C8C30CEB8303181D3023FFF799FF601C80
:1056900004B20C2CE8DB00244CE04FF0000944E09D
:1056A00004EB4400E74901EB801010F809000F906B
:1056B00004EB4400401C01EB801010F809000E9030
:1056C00004EB4400801C01EB801010F809000D90E1
:1056D0004FF4FA710F9841430E98401C91FBF0F083
:1056E0000C900C9801B24FEA490204EB440002EB23
:1056F0004010D34A22F810104FF4FA710D9841432C
:105700000E98401C91FBF0F00C900C9801B24FEAFF
:10571000490204EB440002EB4010401CC84A22F846
:10572000101009F101000FFA80F9B9F1300FB7DB61
:10573000601C04B2042CB0DBC4480590C04806903D
:10574000C34807904FF0450B0027B846002464E09B
:1057500000200490814613E0069830F919000B9060
:1057600009FB0B41079830F911100A91049ADDE901
:105770000A1000FB0120049009F101000FFA80F9E2
:10578000B9F5C07FE8DB049804F05FF90022B14B63
:10579000CDE9020103F0D2FF05460E4609FB0B429C
:1057A000079931F91210C82201FB02F004F04DF9FB
:1057B0000022A84BCDE9000103F0C0FF2A46334682
:1057C000CDE9020103F0FEFE05460E4686F00041DB
:1057D0002846CDE9025103F0B3FDCDE908010020D0
:1057E0009D49DDE9082303F0EDFE02460B46CDE9B5
:1057F00002010020984903F0A1FF05460E462A4603
:1058000033463846414604F037F904D22F46B046B5
:10581000059810F804A0601C04B25C4598DB504663
:105820004FEAEA710AEB9171C1F38701824A117064
:105830004FEAEA710AEB91718910AAEB81017F4A64
:105840001170002006E72DE9F04F89B006460D469D
:1058500017469846022F03DA002009B0BDE8F08F02
:10586000002006900590002409E055F824100698C1
:10587000814203DD55F8240006900594641CBC4267
:10588000F3DB4FF00009CDF81C90CA46CDF820900C
:10589000CB46002431E00598844200D12CE00BF186
:1058A000010B56F8240004F0FDFC4946049004F076
:1058B00075FB814655F8240004F0F4FC5146049031
:1058C00004F06CFB824656F8241001FB01F004F052
:1058D000E9FC0490089904F061FB089056F8241044
:1058E00055F8242001FB02F004F0DCFC0490079939
:1058F00004F054FB079000BF641CBC42CBDB58464D
:1059000004F0D0FC0190089904F0F8FC494603909B
:10591000484604F0F3FC0290039904F0C5FD002111
:10592000049004F06BFC01D1002096E7584604F087
:10593000B9FC0090089904F0E1FC49460290484601
:1059400004F0DCFC0190029904F0AEFD049058468E
:1059500004F0A8FC0090079904F0D0FC494602909E
:10596000504604F0CBFC0190029904F09DFD039099
:10597000049904F081FBC8F80000584604F092FC3A
:1059800004904846D8F8001004F0B8FC5146029044
:1059900004F080FD0390049904F06EFB12990860F6
:1059A00001205AE72DE9FF4F009A019B002499E05E
:1059B000002591E04FEA842ADDF80890A9F1010959
:1059C0000AFB09FADDF83890A9F101099AFBF9F709
:1059D0004FEA852ADDF80490A9F101090AFB09FACA
:1059E000DDF83490A9F101099AFBF9F6B012B91269
:1059F000A6EB802CA7EB812801F1010909FB030923
:105A000012F8099001FB030A12F80AA0A9EB0A098F
:105A100009FB08F901FB030A0AF1010A12F80AA0BE
:105A200001FB030B12F80BB0AAEB0B0A0AFB0C9953
:105A300014E0000022010020460100204701002060
:105A4000BCB30020BCB00020DD9E00204A01002035
:105A5000C0000308006AF8400000F03F4FEAA9299F
:105A600001F1010A0AFB030A0AF1010A12F80AA06D
:105A700001FB030B12F80BB0DA4401FB030B0BF133
:105A8000010B12F80BB0AAEB0B0B01F1010A0AFB98
:105A9000030A12F80AA0ABEB0A0A0AFB0CFA0AFB8B
:105AA00008FA09EB2A5901FB030A12F80AA009EBCC
:105AB0000A0EBEF1FF0F01DB4FF0FF0EBEF1000F2B
:105AC00001DC4FF0000EDDF8349004FB095BDDF8DB
:105AD0000C9009F80BE06D1CDDF834904D45FFF695
