:020000040800F2
:100000004033012021B600089B1700089D17000807
:10001000A1170008A5170008A91700080000000094
:10002000000000000000000000000000AD17000804
:10003000AF17000800000000B1170008B317000850
:100040003BB600083BB600083BB600083BB60008CC
:100050003BB600083BB600083BB600083BB60008BC
:100060003BB600083BB600083BB600083BB60008AC
:100070003BB600083BB600083BB600083BB600089C
:100080003BB600083BB600080F1900083BB6000855
:100090003BB600083BB600083BB600083BB600087C
:1000A0003BB600083BB600083BB600083BB600086C
:1000B000771800083BB60008611800083BB6000836
:1000C0003BB600083BB600083BB600083BB600084C
:1000D0003BB600080F1800083BB600083BB6000806
:1000E0003BB600083BB600083BB600080000000025
:1000F0000000000000000000000000000000000000
:1001000000000000000000003BB600083BB60008FD
:100110003BB600083BB600085B5800083BB6000839
:100120003BB600083BB600083BB600083BB60008EB
:100130003BB600083BB600083BB600083BB60008DB
:100140003BB600083BB600083BB60008991F000804
:1001500000F002F800F062F80AA090E8000C824477
:100160008344AAF10107DA4501D100F057F8AFF254
:10017000090EBAE80F0013F0010F18BFFB1A43F085
:1001800001031847F4BD000014BE00000A444FF0FC
:10019000000C10F8013B13F0070408BF10F8014BE6
:1001A0001D1108BF10F8015B641E05D010F8016B2B
:1001B000641E01F8016BF9D113F0080F1EBF10F88F
:1001C000014BAD1C0C1B09D16D1E58BF01F801CBB2
:1001D000FAD505E014F8016B01F8016B6D1EF9D535
:1001E0009142D6D37047000000230024002500264A
:1001F000103A28BF78C1FBD8520728BF30C148BF8A
:100200000B60704764290BF09D8273290BF0CD833E
:10021000002070471FB51FBD10B510BD0BF044FC8A
:100220001146FFF7F7FF00F052FE0BF062FC03B43B
:10023000FFF7F2FF03BC0BF067FC0000EFF309804F
:10024000704780F309887047EFF30880704780F3A8
:100250000888704740BA7047C0BA704730B51E4929
:10026000B1F1807F00D31DE021F07F40401E4FF0B0
:10027000E022506150170F22002807DA13071D0EE5
:10028000164B00F00F04241F1D5503E013071C0E2E
:10029000134B1C5400BF00204FF0E0229061072058
:1002A000106100BF30BD014642F2887201FB02F0CE
:1002B00000E0401E0028FCD1704700EB400202EB3A
:1002C000C00100E0491E0029FCD17047014600E052
:1002D000491E0029FCD170474019010018ED00E0CB
:1002E00000E400E00920FE49088008460088FD4936
:1002F00008800020FC49088070470920FB490880DD
:1003000008460088FA49088070470920F9490880A2
:1003100008460088F84908800020F849088070479E
:1003200040F2E730F649088008460088F549088021
:100330000020F5490880704740F2E730F349088013
:1003400008460088F2490880704700B500222FE077
:10035000F04850F82200F04901EB02110860EF4824
:1003600030F81200EC4901EB02118880EA4800EBFA
:1003700002108088401EE84901EB0211C880E6485F
:1003800000EB02108088401EE34901EB0211088156
:100390000020E14901EB02114881DF4800EB021027
:1003A0008088401EDC4901EB02118881501CC2B2DA
:1003B0000A2ACDDBFFF7C0FFFFF7B2FFFFF7A5FF6B
:1003C000FFF79BFFFFF78EFF00BD30B5D24B03EB6D
:1003D00000135B89D04C04EB0014A488A34223DAF9
:1003E000CD4B03EB00131B895B1CCB4C04EB0014BF
:1003F000A48893FBF4F504FB1533C74C04EB0014FD
:100400002381C54B03EB00131B68C34C04EB0014A2
:1004100024891A191170C04B03EB00135B895B1C14
:10042000BD4C04EB0014638130BD10B50146BA48E1
:1004300000EB01104089002824DDB74800EB0110D3
:10044000C088401CB44B03EB01139B8890FBF3F472
:1004500003FB1400B04B03EB0113D880AE4800EB54
:1004600001104089401EAC4B03EB01135881AA4890
:1004700000EB01100068A84B03EB0113DB88C218E6
:10048000107810BD0020FCE710B50146A24800EB33
:100490000110408900281BDD9F4800EB0110808976
:1004A000401C9D4B03EB01139B8890FBF3F403FB73
:1004B0001400994B03EB01139881974800EB01104E
:1004C0000068954B03EB01139B89C218107810BD8F
:1004D0000020FCE7904901EB00118988491E8E4AF3
:1004E00002EB0012D1808C4901EB00118988491E72
:1004F000894A02EB001211810021874A02EB0012A7
:10050000518170470146844800EB011040897047D3
:100510000146814800EB011080887F4A02EB0112FE
:100520005289801A80B270477948028877480188DA
:100530008A4202DB501A80B2704702F57A70401A84
:1005400080B2F9E700B50346FFF7EEFFB0F57A7F1A
:100550000DDA6F480088401C4FF47A7190FBF1F27D
:1005600001FB12006A4908806D480988435400BDA8
:10057000674800886549098888420ED0634800882A
:10058000401C4FF47A7190FBF1F201FB12005F49BD
:10059000088063480988405C7047FF20FCE700B58D
:1005A000FFF7C2FFC0F57A7080B200BD56490988D6
:1005B000B1F57A7F13DA53490988491C4FF47A72EE
:1005C00091FBF2F302FB13114E4A11804E49098848
:1005D000491C4D4A118053494A4A12888854704731
:1005E00049480088002814DD45480088401C4FF425
:1005F0007A7190FBF1F201FB1200414908804248F8
:100600000088401E4049088046483D490988405CB2
:1006100070470020FCE73C480088C0F57A7080B243
:10062000704741480288414801888A4202DB501ADB
:1006300080B2704702F10A00401A80B2F9E709203F
:100640003A4908800846008837490880704700B555
:100650000346FFF7E6FF0A280DDA33480088401CFE
:100660000A2190FBF1F201FB12002F49088030486B
:10067000098820F8113000BD2B4800882B490988D3
:1006800088420ED029480088401C0A2190FBF1F2D4
:1006900001FB1200254908802548098830F811001F
:1006A00070474FF6FF70FBE700B5FFF7BAFFC0F1E8
:1006B0000A0080B200BD114909880A2940DA0E49B2
:1006C0000988491C0A2291FBF2F302FB13110A4A22
:1006D00011800A490988491C084A118015492BE0F4
:1006E0001A0000201C000020180000201400002028
:1006F0001600002010000020120000200E00002034
:100700000600002008000020040000200000002057
:10071000020000202CBB00081C0A002018BB0008A7
:10072000AC010020940500200C0000200A000020ED
:100730007C090020900900204B4A128821F8120001
:1007400070474A480088002814DD49480088401C4A
:100750000A2190FBF1F201FB120045490880434851
:100760000088401E4149088042484149098830F8C4
:10077000110070470020FCE73C480088C0F10A00E7
:1007800080B270473C4802883C4801888A4202DBBC
:10079000501A80B2704702F10A00401A80B2F9E79D
:1007A00035490988491C0A2291FBF2F302FB131117
:1007B000314A118032491288885470472E48008887
:1007C0002E49098888420DD02C480088401C0A21F7
:1007D00090FBF1F201FB12002849088028480988A3
:1007E000405C7047FF20FCE700B5FFF7CBFFC0F18E
:1007F0000A0080B200BD234909880A2912DA224979
:100800000988491C0A2291FBF2F302FB13111E4ACC
:1008100011801C490988491C1A4A11801B491A4A2F
:1008200012888854704717480088002813DD18483C
:100830000088401C0A2190FBF1F201FB12001449D0
:10084000088010480088401E0E4908800F48104953
:100850000988405C70470020FCE70A480088C0F126
:100860000A0080B270470000120000200E00002035
:100870001000002090090020160000201400002025
:10088000A4090020180000201C000020AE09002050
:100890001A0000207047624A6248002105E0136890
:1008A0000360121D001D4B1C99B25929F7D37047E4
:1008B00070B50346002405E01D680D601B1D091D71
:1008C000651CACB2D61702EB9676B4EBA60FF3DB41
:1008D00070BD2DE9F05F80468946144608F0CDFBD7
:1008E000352008F0FCFF4FF0050A2EE0404608F0E6
:1008F0004AFC4F464646002507E03046396808F076
:1009000070FD361D3F1D681C85B2E11704EB917127
:10091000B5EBA10FF1DB4FF0010B46464F4600252A
:1009200009E030683968884201D04FF0000B361D6D
:100930003F1D681C85B2E11704EB9171B5EBA10F67
:10094000EFDBBBF1000F00D006E05FEA0A00AAF17E
:10095000010101F0FF0AC9D100BFBDE8F09F2DE9F8
:10096000F04108F08AFB352008F0B9FF052726E0A2
:100970002B4808F008FC2A4D2A4E002407E02846A0
:10098000316808F02EFD2D1D361D601C84B2592CD7
:10099000F5D34FF00108224D224E002409E02868CB
:1009A0003168884201D04FF000082D1D361D601CB3
:1009B00084B2592CF3D3B8F1000F00D004E0380012
:1009C000A7F10101CFB2D3D100BFBDE8F08108B5D6
:1009D00015496A4608681060009808BDF1B508F02E
:1009E0004CFB352008F07BFF052612E00E4808F08E
:1009F000CAFB0D4C6D462046296808F0F2FC012721
:100A000000BF00BF20682968884200D0002707B1D6
:100A100004E03000A6F10101CEB2E7D100BFF8BD7D
:100A200000FE0508BC0A002000F8000810B54021AF
:100A3000FD4809F06AF808B9202010BD8021FA4865
:100A400009F063F808B92120F7E74FF48071F64800
:100A500009F05BF808B92220EFE7FF20EDE7F34942
:100A60000978012904D1222800D100E000BF0AE062
:100A7000EE49097839B9222802D0422802D100E093
:100A800000BF00BF00BF704710B50020FFF73AFD60
:100A900000280BDD0020FFF7C8FC0446E44800787E
:100AA00018B92046FFF7DBFF00BF00BF10BD10B52F
:100AB000E048007801281BD1FFF736FD18B9002067
:100AC000DC49087014E0FFF753FD0446DA4800786B
:100AD00070B9422C02D0622C08D103E00020D74923
:100AE000087004E00120D549087000E000BF00BF95
:100AF00010BD30B503463025541E0D5500248C54CE
:100B000010460EE00A24B3FBF4F504FB1534303430
:100B1000451E4C55441EE0B200B904E00A24B3FB64
:100B2000F4F3002BEED100BF904201D1441EE0B29D
:100B300003E02025441E0D55E0B20028F9DC30BD4D
:100B40001FB50121084609F0C3FAB320ADF8000033
:100B500040F2CF70ADF804000020ADF80600ADF80B
:100B6000020069464FF0804009F0DEFB0122114689
:100B7000900709F050FF1C208DF80C0000208DF824
:100B80000D0001208DF80E008DF80F0003A807F06E
:100B9000C4FF0121880709F023FF1FBD10B50446DB
:100BA000082C75D2DFE804F00412202E3C4A586667
:100BB0004FF480519C4808F0C4FF0421A04808F07D
:100BC000C0FF08219F4808F0BCFF61E04FF480514E
:100BD000954808F0B6FF0421994808F0B2FF0821B3
:100BE000984808F0ACFF53E04FF480518E4808F06D
:100BF000A8FF0421924808F0A2FF0821914808F0BC
:100C0000A0FF45E04FF48051874808F09AFF042187
:100C10008B4808F094FF08218A4808F090FF37E0DD
:100C20004FF48051804808F08AFF0421844808F07E
:100C300088FF0821834808F084FF29E04FF48051A1
:100C4000794808F07CFF04217D4808F07AFF0821EC
:100C50007C4808F074FF1BE04FF48051724808F0A4
:100C60006EFF0421764808F06AFF0821754808F0F5
:100C700068FF0DE04FF480516B4808F060FF0421DD
:100C80006F4808F05CFF08216E4808F058FF00BF6D
:100C900000BF10BD08B501208DF802004002ADF87C
:100CA000000010208DF803006946664808F09AFE9F
:100CB0001020ADF800008DF803006946614808F087
:100CC00091FE10215F4808F03CFF00205E4908704B
:100CD0002020ADF8000010208DF8030069465B4825
:100CE00008F080FE2021594808F02BFF00205849C9
:100CF00008704020ADF8000010208DF80300694610
:100D0000524808F06FFE0820ADF8000010208DF862
:100D1000030069464D4808F065FE08214B4808F07D
:100D200010FF0220ADF8000010208DF80300694686
:100D3000464808F057FE0221444808F002FF04200C
:100D4000ADF8000010208DF8030069463F4808F018
:100D500049FE04213D4808F0F4FE01213D4808F019
:100D600012FF0820ADF8000010208DF8030069463E
:100D7000344808F037FE0420ADF8000010208DF84C
:100D8000030069462E4808F02DFE4FF48050ADF860
:100D9000000010208DF803006946234808F022FE69
:100DA0000020FFF7FBFE4FF48050ADF80000042058
:100DB0008DF803006946234808F014FE4FF40050F4
:100DC000ADF8000004208DF8030069461D4808F0C6
:100DD00009FE4020ADF8000048208DF80300694668
:100DE000114808F0FFFD8020ADF8000048208DF884
:100DF000030069460C4808F0F5FD4FF48070ADF82B
:100E0000000048208DF803006946074808F0EAFD15
:100E10004FF48070ADF8000004208DF8030069469F
:100E2000084808F0DFFD08BD0010014094000020D4
:100E30001E000020BC0000202E0000206C000020BE
:100E400000140140000C0140210000200008014076
:100E5000220000200002300010B50AF02AFB4FF4F7
:100E6000806008F0EFFF002008F0F5FF4FF400402D
:100E700009F00CF801213D2009F01DF9012188033A
:100E800009F019F900F0DEFDFFF75FFAFFF7E6F968
:100E9000FFF700FFFFF754FE00F066FD00F0F0FFE3
:100EA00010BD10B504462068FE490840B0F1005F4F
:100EB0000CD16068FC49086008460068FB4908607E
:100EC0002068FFF7C4F9F9480068804710BD8AB070
:100ED00000BF0A20FFF7E7F9FFF779FD834641F2EB
:100EE0002710834501D101272DE0BBF1000F05D06C
:100EF000012741F22710FFF771FD24E0202202A90B
:100F0000EB48FFF7D5FC4FF00008C146002610E083
:100F100002A8805DFF2803D109F1010000F0FF095C
:100F200002A8805D18B908F1010000F0FF08701CEC
:100F300086B2202EECDBB9F1200F02D0B8F1200FE1
:100F400001D100BF012717B9D948FFF7AAFFFFF762
:100F500083FF40F2DC50FFF7A6F90020D549087066
:100F60004FF6FF7000F056FE4FF4784000F065FE3B
:100F70004FF6FF7000F064FE182000F05BFECD48D5
:100F800001780078401CCB4B1870C1EB0110420077
:100F90000021C9A000F057FEC64801780078401C27
:100FA000C44B1870C1EB011042000021C64800F08C
:100FB0004AFE0020C5490870D6E100F08CFFC44805
:100FC0000078012802D10020C1490870C14800788A
:100FD00001286ED10020BF49087001A9BA4800F06D
:100FE000ACFF8246BAF1000FF3D1BB49019808600B
:100FF000B0480078C0EB001042000021B7A000F01C
:1010000022FE0622B849B4480068FFF772FDA948DD
:101010000078C0EB001042009021B34800F013FEAE
:10102000A4480078401CA349087008460078C0EB2B
:10103000001042000021ADA000F005FE0020AF49E5
:10104000086000256AE005F58030A34909688842F8
:1010500004D24FF48030AA4908600EE09E48006830
:10106000401BA749086008460068012202EBD02017
:10107000C102FF2295480AF005FCA14803689F4879
:1010800092490268904800F06AFF8246BAF1000F68
:1010900030D1062294492846FFF72BFD8548007879
:1010A000C0EB001042009C218F4800F0CCFD0024D2
:1010B0001BE0B7E0854A1119904A12687C4B1A442C
:1010C00010194FF40062FFF704FC04F500640622D7
:1010D00085492046FFF70DFD76480078C0EB0010EB
:1010E0004200F021804800F0AEFD8548006884424F
:1010F000E0D309E06F480078C0EB00104200F02117
:1011000080A000F0A0FD2BE17D48006805447B48ED
:1011100000687B4909680844784908606E4800689F
:10112000854290D3754800686B490968884279D137
:1011300060480078401C5F49087008460078C0EBA2
:1011400000104200002171A000F07DFD00206B49DD
:10115000086000258AE005F580305F49096888420B
:1011600004D24FF48030664908600EE05A480068A7
:10117000401B6349086008460068012202EBD0204A
:10118000C102FF2251480AF07DFB5D4803685B48BD
:101190004E4902684C4800F0E2FE8246BAF1000F68
:1011A00050D1062250492846FFF7A3FC4148007859
:1011B000C0EB00104200A8214B4800F044FD002481
:1011C0003BE04E4909683A4A114408194FF400625D
:1011D0005249FFF76DFB002609E05048805D3B490E
:1011E0002144895D884200D004E0701C86B2B6F5C7
:1011F000006FF2DB00BFB6F5006F14D104F5006498
:101200000A20FFF750F8062237492046FFF771FC05
:1012100028480078C0EB00104200FC21324800F062
:1012200012FD0AE09BE023480078C0EB001042006A
:10123000FC2134A000F007FD92E0314800688442B0
:10124000BFD309E01B480078C0EB00104200FC212E
:1012500033A000F0F8FC83E02948006805442748E3
:101260000068274909680844244908601A4800684A
:101270008542FFF470AF2148006817490968884229
:101280006DD10C480078401C0A4908700846007867
:10129000C0EB00104200002123A000F0D4FC4FF46A
:1012A000FA7047E00000FE2FAC000020A8000020EC
:1012B000000001082F000020426F6F746C6F6164A2
:1012C000657256313000000032000020580C0020BA
:1012D0005B000020310000204400002046696C655E
:1012E0002053697A653A00005814012057726974D6
:1012F0006520466C6173683A000000004C000020D5
:10130000480000204552524F523100005665726924
:10131000667920466C6173683A000000580C012021
:101320004552524F523200004A756D7020546F2062
:1013300041707000FEF7B7FF0020FFF74FFB72B659
:1013400000BFFE48006800F4E060FD490843001D4E
:10135000FA490860BFF3408F00BF00BFFEE700BF3F
:10136000FFF7A5FBFFF790FB27E6F649087014216D
:10137000F54A1170704710B5F4480078012830D153
:101380000020F2490870FFF751FBF1490870F1485D
:1013900000784006000EEF490870ED480078FF28FD
:1013A00003D008460078401C0870EB4800780028FD
:1013B00049D1E7480078FF2814D1E848007850B9AF
:1013C000E748007838B1E64801780020FEF7FDFFD5
:1013D0000120FFF7CAFF1420E24908700220DF490C
:1013E00008705EE0DD48007800280BDDDB480078FF
:1013F000401EDA4908700846007818B9D4480078C9
:10140000D7490870D748007800284ADDD5480078C9
:10141000401ED449087008460078002841D1D249BE
:1014200008700120CC490870C9480078CF4908707D
:10143000084600782030C1B20020FEF7C6FF012028
:10144000FFF793FF2DE0C2480078C8490978884229
:1014500016D1C5480078002823DDC3480078401E17
:10146000C149087008460078D8B9C04800782030D3
:10147000C1B20020FEF7A9FF0120FFF776FF10E0C0
:101480000020B5490870FF20B8490870B4490870B9
:101490000220B24908701420B24908700020B249F5
:1014A000087010BD7CB506460C46B148007800B106
:1014B0007CBD30460AF082F985B22946304600F0FC
:1014C00019FB002C09DD0D208DF800000A208DF895
:1014D00001000221684600F00DFB00BFE8E77047FD
:1014E00064281FDB0022CA700A2290FBF2F302FB81
:1014F000130230328A700A2290FBF2F2D0B20A2232
:1015000090FBF2F302FB130230324A700A2290FB86
:10151000F2F2D0B20A2290FBF2F302FB1302303255
:101520000A701FE00A2814DB00228A700A2290FB4E
:10153000F2F302FB130230324A700A2290FBF2F2FD
:10154000D0B20A2290FBF2F302FB130230320A708F
:1015500008E000224A700A2290FBF2F302FB130219
:1015600030320A70704730B503463025541E0D5591
:1015700000248C5410460FE00A2493FBF4F504FB7E
:1015800015343034E5B2441E0D55E0B200B905E023
:101590000A2493FBF4F4A3B2002BEDDC00BF9042CD
:1015A00001D1441EE0B203E03025441E0D55E0B2E7
:1015B0000028F9DC30BD10B5024610460A2807DACB
:1015C00030230B704B708B7000F13003CB7052E006
:1015D00064280FDA30230B704B700A2390FBF3F36F
:1015E00030338B700A2390FBF3F403FB1403303386
:1015F000CB7040E0B0F57A7F19DA30230B706423AA
:1016000090FBF3F330334B70642390FBF3F403FB54
:10161000140398B20A2390FBF3F330338B700A2340
:1016200090FBF3F403FB14033033CB7023E04FF44F
:101630007A7390FBF3F330330B704FF47A7390FBB3
:10164000F3F403FB140398B2642390FBF3F33033F9
:101650004B70642390FBF3F403FB140398B20A234A
:1016600090FBF3F330338B700A2390FBF3F403FB0E
:1016700014033033CB7000230B7110BD30B503461B
:101680003025541E0D5500248C5410460FE00A24BA
:1016900093FBF4F504FB15343034E5B2441E0D55CC
:1016A000E0B200B905E00A2493FBF4F4A3B2002BE6
:1016B000EDDC00BF904201D1441EE0B203E02025E2
:1016C000441E0D55E0B20028F9DC30BD10B50246CD
:1016D000C31700EB13731B11264CE35C0B70C3178D
:1016E00000EB13731B11A0EB0313E35C4B700022A0
:1016F0008A7010BD30B504460D46032229462046A7
:10170000FFF7BCFF30BD10B51B480078401C1A49DC
:101710000870084600780521B0FBF1F201FB1200C9
:101720001549087015480978405C68BB20211448A9
:1017300008F007FA0020134908702DE00CED00E0D6
:101740000000FA0568000020690000208E000020DB
:1017500091000020930000208D00002088000020D0
:101760008B000020890000208A0000208C000020CF
:101770002E00002094BB0008A5000020A4BB000898
:101780000008014022000020FFE72021654808F002
:10179000D6F901206449087010BD704700BFFEE70C
:1017A00000BFFEE700BFFEE700BFFEE770477047DF
:1017B00070475E480088002804DD5C480088401EB1
:1017C0005A4908805A480088401C594908800846F0
:1017D0000088B0F57A7F07DB01205649087056492A
:1017E00008700020524908805448007800280DDD18
:1017F00052480078401E514908700846007828B9C0
:1018000001204F49087014204C490870704710B5EA
:1018100020214C4809F06CFD50B14A4809F0FEFC0B
:10182000C4B22046FEF78EFE01204749087016E03C
:101830008021444809F05CFD88B1444800880028B4
:1018400007DDFEF7CDFE044621463E4809F0E2FCE6
:1018500005E0002240F227713A4809F07AFC10BDF9
:1018600010B501213A4809F078FB18B10121384838
:1018700009F07CFB10BD10B50121880709F06DFB54
:10188000002841D00121880709F070FB3148007819
:1018900000280ADD2F480078401E2E4908700846AF
:1018A000007810B90120284908702B4800780028DA
:1018B0002ADD2A480078401C28490870084600782C
:1018C00027490978884204DA4021164808F037F998
:1018D0001AE022480178224800780C30814204DA6C
:1018E0004021104808F02DF90EE000201B49087037
:1018F00019480078401E184908700846007818B941
:101900004021084808F01DF910BD7047704710B518
:101910000221144807F06EFB18B10221114807F0AC
:1019200072FB10BD0008014022000020A200002030
:10193000B00000205B0000205C0000209000002030
:101940008E00002000380140BC0000200400002070
:1019500000080040BD000020680000206A00002050
:10196000690000200024014000B589B003208DF8F3
:1019700022000120ADF8200018208DF8230008A9CE
:101980002D4808F02FF80220ADF8200018208DF81F
:10199000230008A9284808F025F80121022008F0B2
:1019A00097FB1720ADF81400FE20ADF818000020BA
:1019B000ADF81A00ADF8160005A9204808F0B4FCEF
:1019C0006020ADF804000120ADF806000020ADF85D
:1019D0000800ADF80A00ADF80C0001A9174808F09E
:1019E0006FFD0821154809F041F96020ADF80400A9
:1019F0000120ADF806000020ADF80800ADF80A009F
:101A0000ADF80C0001A90D4808F0A5FD08210B4810
:101A100009F035F90121094808F0E2FF00200849E2
:101A2000087006493C310880091D088001210348DF
:101A300008F0E2FF09B000BD000C014000040040C6
:101A4000B400002000B587B04FF48060ADF81800F6
:101A500004208DF81B0001208DF81A0006A95B48B0
:101A600007F0C0FF4FF40070ADF8180018208DF893
:101A70001B0006A9554807F0B5FF4FF4E13002906E
:101A80000020ADF80C00ADF80E00ADF81000ADF878
:101A900014000C20ADF8120002A94D4809F0C1FA5B
:101AA0004FF4A06007F034F825208DF804000120E1
:101AB0008DF8050002208DF8060001208DF8070042
:101AC00001A807F02AF8012240F22551404809F008
:101AD00040FB002240F227713D4809F03AFB01210A
:101AE0003B4809F02AFB00203A4908703A4908703F
:101AF00007B000BD70B504460D4606E0FEF78BFD4D
:101B0000691D884200DD01E00026F7E700BF0022E2
:101B100040F227712E4809F01CFB03E02078FEF705
:101B200045FD641C2800A5F101018DB2F6D101220A
:101B300040F22771264809F00CFB70BD70B50446D1
:101B40000D4606E0FEF718FE691D884200DD01E043
:101B50000026F7E700BF002240F227711F4809F076
:101B6000F8FA03E02088FEF7A6FDA41C2800A5F1E2
:101B700001018DB2F6D1012240F22771174809F018
:101B8000E8FA70BD70B504460D4606E0FEF765FE46
:101B9000691D884200DD01E00026F7E700BF002252
:101BA00040F227710E4809F0D4FA03E02078FEF7DE
:101BB00022FE641C2800A5F101018DB2F6D101229C
:101BC00040F22771064809F0C4FA70BD00080140D0
:101BD00000380140BC000020BD000020004400404F
:101BE0000048004010B501460B46012000220CE0E1
:101BF0000A24B3FBF4F42CB10A24B3FBF4F3441C21
:101C0000E0B200E003E0541CE2B20A2AF0DB00BFBD
:101C100010BD704770B50446224668A16D4809F0B2
:101C20001FFD6C4809F0CAFD85B229466948FFF7D7
:101C300061FF70BD68490870704768490880704747
:101C40006749088070472DE9FF4105460E46174653
:101C5000284609F0B3FD84B2B4F5957F01D3BDE801
:101C6000FF8122205F490870224629465D48401CBA
:101C700009F0C3FD22215B4A601C11540021A01C05
:101C800011545548007855490988554B1B88CDE9B2
:101C90000031CDE902023B46324653A14D4809F0DE
:101CA000DFFC4C4809F08AFD84B221464948FFF721
:101CB00021FF00BFD3E72DE9F04186B004460D4671
:101CC00016462046FFF78EFF80464348007843497A
:101CD0000988CDE9024801910490414800883346C3
:101CE0002A464AA100903B4809F0BAFC394809F05D
:101CF00065FD87B239463748FFF7FCFE06B0BDE800
:101D0000F0812DE9F04F85B004460D4616461F467A
:101D1000DDE90F9ADDF83880E819401E01A9A1E835
:101D20000107A019401E2B46224642A100902948D7
:101D300009F096FC274809F041FD1FFA80FB59463F
:101D40002448FFF7D7FE05B0BDE8F08F7047704715
:101D5000704770477047704770472DE9FE4304464F
:101D60000D4616461F46DDF82880E819411EA019C9
:101D7000401E2B4622468DE8030139A1154809F083
:101D80006FFC144809F01AFD1FFA80F94946114802
:101D9000FFF7B0FEBDE8FE8310B5029C10BD10B584
:101DA000029C10BD704770477047704730B5DDE941
:101DB000034530BD10B5029C10BD0000766F69640C
:101DC000204C43445F436C656172282564290D0AE9
:101DD00000000000D0140120CE000020D20000201E
:101DE000D0000020FC150120766F6964204C43442C
:101DF0004C535F5374722825642C25642C25642C65
:101E000025642C25642C2573290D0A00766F6964DE
:101E1000204C43444C535F4E756D2825642C25643B
:101E20002C25642C25642C25642C25642C25642900
:101E30000D0A0000766F6964204C43444C535F46A2
:101E400072616D652825642C25642C25642C25641D
:101E50002C25642C25642C2564290D0A0000000023
:101E6000766F6964204C43445F46696C6C28256436
:101E70002C25642C25642C25642C2564290D0A004E
:101E800008B5002007F0FEFF0121080308F006F95D
:101E90004448454B454A01210090454800F04CFD1F
:101EA00008BDF8B504460D46164612223146414893
:101EB00005F024F9074667B93E48C16805F0E6FC1D
:101EC0006B462A4621463B4805F0AFFA394805F0F3
:101ED000F9FB3846F8BD10B53748007818B13448DA
:101EE00002F0B6FC38B90020344908702F49304858
:101EF00000F054FF12E03048007803280ED130A2E1
:101F00000A2131A0FFF7CDFF04463CB92B480078E9
:101F100020B90120294908702E49087010BD70B5FC
:101F2000044608222146234805F0E8F8054615B97D
:101F3000204805F0C7FB284670BD70B504460D4625
:101F4000102221461B4805F0D9F806462EB919483B
:101F5000C0682860174805F0B5FB304670BD2DE914
:101F6000F8430446884615461E461122214611486C
:101F700005F0C4F8074667B929460E4805F086FC07
:101F80006B46324641460B4805F06CF9094805F0AE
:101F900099FB3846BDE8F88310B5054803F06DFBA2
:101FA00010BD000030010020100100202819012080
:101FB00008200120E82701202D010020300000200A
:101FC0004A42592E747874005465737420556469BC
:101FD000736B00003100002010B50B7803704B7854
:101FE00043708C78CB7804EB032343800B79037127
:101FF0004B7943718B798371CB79C371082A16DDD4
:102000000C7A4B7A04EB032303818C7ACB7A04EBB2
:10201000032343810C7B4B7B04EB032383818B7B6A
:102020008373CB7BC3730B7C03744B7C437410BDF5
:102030002DE9F04780460C4616461D46DDE9089717
:1020400046F08001217506216175E58205F47F4027
:10205000B0F5407F03D140F20941218301E0002126
:10206000218367833B464A462146404600F0ACF94F
:10207000BDE8F0872DE9FC4104460D46164604F5FF
:1020800088704FF4807300222946CDE9000620466F
:10209000FFF7CEFF070006D1324604F5887105F13F
:1020A0002200FFF799FF3846BDE8FC810A780270EC
:1020B0004A7842708A788270CA78C2700B794A79FD
:1020C00003EB022282808A79827170470A7802705B
:1020D0004A7842708A788270CA78C2700A7902712E
:1020E0004A7942718A798271CA79C2710A7A027216
:1020F000704710B502460B88147823440B80137880
:10210000981810BD2DE9F04F85B0064689469246D5
:102110001D462C460027B84600BF287830706878E6
:102120007070A978E87801EB002070802879307110
:1021300068797071A879B071E879F071287A307295
:102140000E98092864DD09200090307902285ADCB5
:10215000BB4653E069462046FFF7CBFF0446607854
:1021600004284BD1A07847B207EBC70000EB090B5E
:10217000E078032842DA214602A8FFF7A7FF4FF0D4
:1021800000089DF80C00022838DC32E06946204641
:10219000FFF7AFFF0446607805282AD10AEB071045
:1021A00000EBC80001907F480078B84206D07D4916
:1021B0000F7002A95846FFF789FF0CE0217960797A
:1021C00001EB002078490988884200DA15E002A96D
:1021D0005846FFF77BFF21460198FFF767FF2179FB
:1021E000607901EB00207049088008F101004FFA86
:1021F00080F89DF80C004045C8DC00BF7088BDF831
:1022000000108842A6DC00206749088065490870F4
:1022100005B0BDE8F08F2DE9FC4104460D46164699
:10222000002704F588704FF4007300222946CDE999
:1022300000062046FFF7FCFE5FEA000814D106E026
:1022400004F58870C05D5949C855781C87B2B742FB
:10225000F6DB04F5887305F1500205F13E0105F146
:1022600034000096FFF74EFF4046BDE8FC8130B5D4
:1022700013464578032D14D10578AD1E9D4202DC2E
:102280000578AD1E00E01D46ACB2801C002204E0C3
:10229000855C0D70491C951CAAB2A242F8DB002592
:1022A0000D7030BD2DE9FC470446884615461E4694
:1022B0000A9F04F5887045F4407300224146CDE939
:1022C00000072046FFF7B4FE5FEA000905D13A4651
:1022D000314604F58870FFF7CAFF4846BDE8FC8721
:1022E00070B506460C46154600212175052161751D
:1022F000E58200212183618300231A46214630466E
:1023000000F062F870BD70B506460C461546002117
:10231000217509216175E5820021218361830023F4
:102320001A462146304600F04FF870BD2DE9F041C5
:1023300007460C4615461E46012121750B21617585
:10234000E68225830021618300231A462146384610
:1023500000F03AF8BDE8F0812DE9F04105460C4661
:1023600016461F4602212175012161750021E18277
:102370002683618306F08000802805D105F56B7007
:1023800000EB4710017605E0002105F56B7000EBCE
:102390004710417600231A462146284600F014F8DB
:1023A000BDE8F081D8000020D600002028170120C9
:1023B00010B50346187858700720187099609A81F4
:1023C00001241C77002010BD2DE9F04180460C4609
:1023D00015461E460127E078012802D0022820D1A8
:1023E00008E0324629462046FFF7E2FF0220E0706F
:1023F000012717E0207F0D2805D10120E070002182
:10240000217700270CE0207F0B2803D10120E0700A
:10241000022705E0207F0C2802D10120E07003276D
:1024200000E000BF00BF3846BDE8F08170B505464A
:102430000E461446002105F56B7000EB44108170C8
:10244000032105F56B7000EB4410017205F56B700C
:1024500000EB4410C660082105F56B7000EB4410DA
:1024600001612146284602F014FAC0B270BD2DE980
:10247000F04105460F4616461C46002105F56B70D7
:1024800000EB4410817005F56B7000EB4410C760E1
:1024900005F56B7000EB441006612EB9012105F5BE
:1024A0006B7000EB4410417605F56B7000EB441047
:1024B000407E30B9002105F56B7000EB44100172CD
:1024C00005E0022105F56B7000EB44100172214616
:1024D000284602F0DEF90020BDE8F0812DE9F04148
:1024E00005460E4617461C46012105F56B7000EBAC
:1024F00044108170022105F56B7000EB44100172ED
:1025000005F56B7000EB4410C66005F56B7000EBD1
:10251000441007612146284602F0BBF90020BDE8BF
:10252000F0812DE9F04105460E4617461C46002174
:1025300005F56B7000EB4410817005F56B7000EBD6
:102540004410C66005F56B7000EB4410076105F59B
:102550006B7000EB4410407E28B905F56B7000EB02
:102560004410017205E0022105F56B7000EB441088
:1025700001722146284602F08CF90020BDE8F08166
:102580002DE9F04105460E4617461C46012105F58A
:102590006B7000EB4410817005F56B7000EB44101C
:1025A000C66005F56B7000EB4410076105F56B70B4
:1025B00000EB4410007E30B9002105F56B7000EB94
:1025C0004410017205E0022105F56B7000EB441028
:1025D00001722146284602F05CF90020BDE8F08136
:1025E0002DE9F04105460E4617461C46012105F52A
:1025F0006B7000EB4410817005F56B7000EB4410BC
:10260000C66005F56B7000EB4410076105F56B7053
:1026100000EB4410007E30B9002105F56B7000EB33
:102620004410017205E0022105F56B7000EB4410C7
:10263000017205F56B7000EB4410007E80F0010123
:1026400005F56B7000EB441001762146284602F038
:1026500020F90020BDE8F0812DE9F04105460E4645
:1026600017461C46002105F56B7000EB4410817085
:1026700005F56B7000EB4410C66005F56B7000EB60
:102680004410076105F56B7000EB4410007E28B91B
:1026900005F56B7000EB4410017205E0022105F5B1
:1026A0006B7000EB4410017205F56B7000EB441089
:1026B000007E80F0010105F56B7000EB441001769F
:1026C0002146284602F0E5F80020BDE8F0812DE91A
:1026D000F04105460E4617461C46012105F56B7074
:1026E00000EB4410817005F56B7000EB4410C66080
:1026F00005F56B7000EB44100761002105F56B7068
:1027000000EB441001722146284602F0C2F8002076
:10271000BDE8F0812DE9F04105460E4617461C46FE
:10272000002105F56B7000EB4410817005F56B70AE
:1027300000EB4410C66005F56B7000EB44100761B8
:1027400005F56B7000EB441001722146284602F03B
:10275000A0F80020BDE8F0812DE9F04704460D46C1
:1027600017461E46DDE9088904F28C5010F8150062
:1027700000F07F0104F56B7000EB4510417004F22E
:102780008C5010F81500C0F3C01104F56B7000EB0D
:102790004510817004F56B7000EB4510077004F56F
:1027A0006B7000EB451080F8058004F56B7000EB52
:1027B0004510A0F8069004F56B7000EB4510C6704C
:1027C000002104F56B7000EB4510017604F56B7089
:1027D00000EB451041762EB9012104F56B7000EB3A
:1027E000451001712946204601F03CFD0020BDE85E
:1027F000F0872DE9F04704460D4617461E46DDE9F1
:10280000089827B104F56B7000EB4510077004F5CC
:102810006B7000EB4510C088404508D0B8F1000F40
:1028200005D004F56B7000EB4510A0F8068004F5A8
:102830006B7000EB4510C078B04205D026B104F5AE
:102840006B7000EB4510C6702946204601F00AFD6A
:102850000020BDE8F0870246002100BF0AE002F236
:102860008C5030F8110000F4004008B90846704759
:10287000481CC1B20829F2DB4FF6FF70F7E770B5CC
:1028800005460E462846FFF7E6FF04464FF6FF7062
:10289000844205D046F4004105F28C5020F8141013
:1028A000E0B270BD0246082909DA02F28C5030F815
:1028B0001100C0F30E0302F28C5020F811300020FA
:1028C00070470246022106E0002302F28C5020F8F5
:1028D0001130481CC1B20829F6DB00207047000007
:1028E00001460122C1F81023002070470146002252
:1028F000C1F810230020704701460020704770B5D2
:1029000005460C46002020706070A0700120E07029
:10291000012121774021A171002084F820000121AC
:102920002120015521792846FFF7BCFF617928460F
:10293000FFF7B8FF002070BD2DE9F04106460F46B5
:1029400014461D46DDF81880304602F019FF214676
:102950003046FFF7D4FFE567C4F88080394630463B
:1029600001F035FFD4F8801008688047304602F047
:102970000CFFBDE8F0812DE9F04106460C464FF012
:10298000000800250021A174207F0C2876D2DFE802
:1029900000F0FD060F3D466576919AC0D7ED62794D
:1029A00004F114013046FFF741FD02212177EEE0EA
:1029B0006179304601F055FF0546012D1FD1207D7C
:1029C00000F08007608B58B141F28830FD490880E3
:1029D000802F02D1032121770CE00521217709E026
:1029E0003220F8490880802F02D10921217701E0A7
:1029F00007212177304601F02FFF208205E0032DCB
:102A000003D10B2121770521A174C0E02379A2898C
:102A10003046A168FFF762FD04212177B7E02179F4
:102A2000304601F01EFF0546012D01D10921217715
:102A3000042D02D1607820700FE0032D02D10B210C
:102A400021770AE0304601F007FF218A401ADD496C
:102A50000988884201D90B21217798E00121627908
:102A600006F56B7000EB421041766379A28930461F
:102A7000A168FFF7FCFC0621217788E086E06179F8
:102A8000304601F0EEFE0546012D02D107212177E7
:102A90000FE0042D04D1607820700C21217708E02C
:102AA000022D02D10521217703E0032D01D10B2155
:102AB00021776CE02379002211463046FFF70EFDA6
:102AC0000821217763E02179304601F0CAFE0546EE
:102AD000012D04D1607820700D21217718E0032D9D
:102AE00002D10B21217713E0304601F0B5FE218A97
:102AF000401AB4490988884202D90B21217707E09E
:102B0000042D05D1607820700421A1744FF00308D2
:102B10003DE0617906F56B7000EB4110407E80F07E
:102B20000101627906F56B7000EB42104176637922
:102B3000002211463046FFF79AFC0A21217726E051
:102B40006179304601F08DFE0546012D04D1607893
:102B500020700D21217708E0022D02D10921217773
:102B600003E0032D01D10B21217710E0A07B401C55
:102B7000C1B2A173022902DC0121217705E00821FD
:102B8000A174607820704FF0020800E000BF00BF21
:102B90004046BDE8F08170B504460D46052D01D0D4
:102BA000042D06D1D4F88010486C80470A2020708C
:102BB00007E0062D05D10A202070D4F8801008689F
:102BC000804770BD70B592B005460C460126A078CE
:102BD0000A287AD2DFE800F00528375D667A97B4D4
:102BE000D1DB082221462846FFF744FAD8B994F8E9
:102BF0002910A171284601F024FE0120A070A079BF
:102C00000021CDE90010617900231A462846FFF71C
:102C1000F0FDA0790021CDE90010217900231A46AA
:102C20002846FFF7E6FDB5E0122221462846FFF7C9
:102C300021FA38B9D4F88000C16904F1220088472C
:102C40000220A070A6E0012221462846FFF748FB9B
:102C5000F0B9022002F0F3FD0120A41CA077D4F803
:102C60007E10086A804703202070002000900190A9
:102C7000A27FA17803462846FFF7BBFD0020009005
:102C80000190A27FA41E617903462846FFF7B1FD9B
:102C900080E0092221462846FFF7BDFA08B9042042
:102CA000A07077E0E28E21462846FFF7B4FA58B9C3
:102CB000D4F8800004F1500204F13E01436A04F1AB
:102CC000340098470520A07064E062E094F830007A
:102CD00088B1FF20009094F8302002AB21462846AE
:102CE000FFF7E0FA70B9D4F88000816A02A888473B
:102CF0000620A07006E0D4F88000816A32A08847E0
:102D00000620A07046E094F8310088B1FF200090C2
:102D100094F8312002AB21462846FFF7C3FA70B978
:102D2000D4F88000C16A02A888470720A07006E096
:102D3000D4F88000C16A24A088470720A07029E049
:102D400094F8320088B1FF20009094F8322002AB52
:102D500021462846FFF7A6FA70B9D4F88000016B27
:102D600002A888470820A07006E0D4F88000016B14
:102D700015A088470820A0700CE094F8392021465F
:102D80002846FFF7C0FA08B90920A07002E0002623
:102D900000E000BF00BF304612B070BD3EB5054632
:102DA0000C4602200290284601F052FD30B92078EE
:102DB00020B12078022801D00220207020780B2832
:102DC0007AD203E0EC0000204E2F4100DFE800F053
:102DD00006109CB14D687B87598C8D00284601F008
:102DE00037FD20B101202070642002F028FDA1E011
:102DF000D4F880108868804700212846FFF73FFDFF
:102E0000607180212846FFF73AFD2071284601F0C5
:102E100018FD48BBD4F88010C8688047284601F0E8
:102E200006FDC1B221200155042020702122105D31
:102E3000D4F8802091698847A0790021CDE900105D
:102E40002120035D94F8202021792846FFF784FC97
:102E5000A0790021CDE900102120035D94F8202005
:102E600061792846FFF778FC64E021462846FFF7A1
:102E7000A9FE28B9D4F88010486B8047082020703C
:102E800058E0D4F88010886B8047012807D1E06FA4
:102E9000214602682846904708B90520207049E07D
:102EA000E06F214682682846904702909DF808000E
:102EB00018B90620207005E03BE09DF80810204678
:102EC000FFF769FE36E0E06F2146C268284690476A
:102ED00002909DF808102046FFF75DFE2AE021468B
:102EE0002846FFF748FD25E024E021462846FFF765
:102EF00006FDE06F04F12001426828469047D4F8AF
:102F000080104868804715E0D4F880100869804731
:102F100021462846FFF7F3FCD4F880104868804724
:102F2000E06F04F12001426828469047002020709D
:102F300000E000BF00BF3EBD10B50446204601F0D2
:102F400087FC48B1F848F9490860F9484860002012
:102F500048730120F749C8700020F7490860F74915
:102F6000087010BD2DE9F04105460E4614460127B4
:102F700014B1012C12D108E0F1480378C27831462F
:102F80002846FFF7E9F9074609E0ED4843788278DB
:102F900031462846FFF7E0F9074600E000BF00BFD2
:102FA000E5480068401CE4490860084600680428B9
:102FB00000D904273846BDE8F0812DE9F0410546E7
:102FC0000F4600260124284601F042FC20B3DC48CD
:102FD0000178284601F04AFC06460D2E01D0022455
:102FE0001CE0D8480068D849884216D1D5484068C6
:102FF000CE494968884211D1D248007B08B90024E3
:103000000CE0D048007B012801D1012406E0CD4826
:10301000007B022802D1022400E00224C548C473C8
:103020002046BDE8F0812DE9F0478046894600241E
:10303000404601F00DFC00287ED0BE4800790928EA
:103040007BD2DFE800F07A051251A3FEFDFCFB0005
:10305000BB4843781F22B5494046FFF762FA01207A
:10306000B4494871022008718BE1B5484178404667
:1030700001F0F7FB0446012C26D10020AE49086080
:103080000220AC494871A948007B00F08007A7489E
:103090008068A8B1A5488068AC490860A5488068E8
:1030A000AB49086008460068AA490860802F03D130
:1030B0000320A049087116E004209E49087112E01F
:1030C00005209C4908710EE0022C04D199484079F2
:1030D0009849087107E0042C05D101209E49087029
:1030E0000820944908714CE195480178404601F068
:1030F000B8FB0446012C03D08E48407903283AD00F
:1031000000208D49086003208A4948718C488088D6
:103110008E490968884219D28948037882888C4888
:1031200001684046FFF72CFA85488088874909687E
:10313000081A8649086001E024E121E1804880887E
:10314000834909680844824908601EE07F48006896
:1031500018B905207749087117E0794803787B484A
:10316000008882B27A4801684046FFF709FA0020D9
:103170007649086009E0042C07D1002076490870E0
:1031800007206C49087105204871FAE06C484178C5
:10319000404601F066FB0446012C3BD10020664905
:1031A00008600420634948716548C0886749096818
:1031B00088421AD262484378C2886548016840460E
:1031C000FFF7AFF962480068624908605C48C08850
:1031D0005F49096808445E4908605948C0885B49EE
:1031E0000968081A5949086042E05848006818B947
:1031F0000520504908713BE0514843785348008806
:1032000082B2534801684046FFF78BF900204F49CE
:1032100008602DE0022C21D14D4800684D49096815
:10322000884212D046484378C288C088DFF820C15F
:10323000DCF800C0ACEB0001404603E08EE058E053
:1032400036E016E0FFF76DF912E03D484378C2889A
:103250003F4801684046FFF764F909E0042C07D1B4
:1032600001203D4908700820324908710520487145
:1032700087E005202F494871324888603F208881C7
:103280000D2604E000202F498855701EC6B2002E7E
:10329000F8D100202B4908702948037825483F229F
:1032A00081684046FFF76CF906202249087168E002
:1032B00023480178404601F0D4FA0446012C0FD18E
:1032C00000201D49086005201A4948710846807889
:1032D000087049464046FFF770FE1649C87307E07C
:1032E000042C05D100201C490870072011490871E1
:1032F00047E0002249464046FFF734FE054665B9DF
:1033000015480078022803D108200A49087109E00D
:10331000084840790749087104E0042D02D10220D1
:103320000449C8732DE0000055534243AC190120F5
:1033300050403020DC190120F00000200C0100205A
:10334000EC190120CC19012055534253F400002000
:10335000F8000020FC000020000100200122494666
:103360004046FFF7FFFD054625B907484079064965
:10337000087104E0042D02D102200349C87300E063
:1033800000BF00BFBDE8F087DC1901207CB5064610
:103390000D462C4694F84300082856D194F8450071
:1033A000502852D194F8520000F0800038B194F8BF
:1033B0005200BB49C870B4F85400888006E094F805
:1033C0005200B7498870B4F85400C88094F85A0085
:1033D00000F0800038B194F85A00B149C870B4F8D0
:1033E0005C00888006E094F85A00AD498870B4F813
:1033F0005C00C880AA4881783046FFF740FAA849A7
:1034000048700846C1783046FFF739FAA449087079
:103410000846C0880221CDE900102120035D94F800
:1034200020209F4841783046FFF796F99C488088D5
:103430000221CDE900102120035D94F82020984856
:1034400001783046FFF788F903E0D4F88010086C63
:10345000804700207CBD70B504460D4690484078FA
:1034600038B18F484178204601F013F900208C498B
:1034700048708B48007860B189480178204601F097
:1034800008F9874801782046FFF70CFA00208449A4
:10349000087070BD10B5024600200023814C2370D7
:1034A00010BD012812D180490978491C7E4A11704B
:1034B000114609780A2905DA06217A4A1170012194
:1034C000D1700AE00A21774A117006E0022803D180
:1034D0000A21744A117000E000BF70470246A12320
:1034E0000B75FE234B750023CB820B8301234B838B
:1034F00000207047024621230B75FF234B750023E4
:10350000CB820B834B83002070472DE9F047814627
:103510000F463E46012403254FF00008484601F0BF
:1035200097F9002878D05F4800780B2875D2DFE83B
:1035300000F0060D1E5566798A999E44B0004846F3
:10354000FFF7FAFC012057490870A5E039464846C4
:10355000FFF7D0FF044614B9022052490870032C2B
:1035600004D102204F4948700920087094E0394680
:103570004846FFF7B3FF0446BCB94948007A4849BA
:1035800081F80802084690F8080200280ADD47483A
:10359000007838B9012045490870D6F88010086CC9
:1035A000804779E003203F490870032C04D10320B1
:1035B0003C494870092008706EE073790022394652
:1035C0004846FEF7C9FE04463CB90020344981F85C
:1035D000080234484078334908705DE0484600F0FE
:1035E00067F805463DB904202E49087000202E4991
:1035F0000870002402E02846FFF753FF4CE04846DD
:1036000000F0A7F805464DB90520264908700020AE
:1036100025490870002404E03FE03CE02846FFF71D
:1036200040FF39E0484600F0F9F805463DB908206A
:103630001C49087000201C490870002402E028463C
:10364000FFF72FFF28E0484600F048F905462DB95E
:103650001448407813490870002402E02846FFF718
:1036600020FF19E039464846FFF7DDFC14E0D6F8A4
:103670008010C86B804700F0FF08B8F1000F03D13D
:1036800008200849087003E0B8F1010F00D10624B2
:1036900002E0042400E000BF00BF2046BDE8F08740
:1036A000EC190120DC1901200C0100202001002070
:1036B00070B505460326284601F0CAF8002846D012
:1036C000FB48C078012802D002283ED124E0002027
:1036D000F8498860087306208873F748F4498860C1
:1036E0003F20888103208870102405E00021F148E4
:1036F0000F300155601EC4B2002CF7D10020ED49F7
:10370000C8730120EA490871072008700320C873B4
:103710000220C870032619E0E548C07B20B90120CB
:10372000E349C87000260FE0E148C07B012803D1BF
:10373000DF49C870012607E0DD48C07B022803D1BD
:103740000120DB49C870022600E000BF00BF304600
:1037500070BD70B505460326284601F079F80028AB
:103760005AD0D348C078012802D0022852D123E091
:103770000820D0498860802008730A208873CF48C9
:10378000CB49886004208870102405E00021C948D6
:103790000F300155601EC4B2002CF7D12520C54959
:1037A000C8730120C2490871072008700320C8733C
:1037B0000220C87003262EE0BD48C07BC8B9BF48B0
:1037C0000078BF49C870BD4840788870BB48807891
:1037D0004870BA48C0780870B8488179B8484172D2
:1037E000B648C079B64908720120B149C8700026B0
:1037F0000FE0AF48C07B012803D1AD49C870012656
:1038000007E0AB48C07B022803D10120A849C8705B
:10381000022600E000BF00BF304670BD70B505460F
:103820000326284601F014F8002855D0A048C07897
:10383000012802D002284DD127E03F209D49886011
:10384000802008730A2088739C4899498860052065
:103850008870102405E0002196480F300155601E45
:10386000C4B2002CF7D11A209249C8733F21914865
:103870004174C17401208E4908710720087003202B
:10388000C8730220C870032625E08948C07B80B930
:103890008A48807800F0800018B1012088490873B8
:1038A00002E000208649087301208149C870002683
:1038B0000FE07F48C07B012803D17D49C8700126F5
:1038C00007E07B48C07B022803D101207849C870FB
:1038D000022600E000BF00BF304670BD70B505464F
:1038E0000326284600F0B4FF00285DD07048C07859
:1038F000012802D0022855D12BE03F206D49886075
:10390000802008730A2088736C48694988600846DB
:103910008078487006208870102405E000216548F2
:103920000F300155601EC4B2002CF7D1032061494D
:10393000C87300215F4801743F21C17401205C49B4
:103940000871072008700320C8730220C87003267E
:1039500029E05748C07BA0B9584801785848C17140
:10396000564841785648817154488178544841718D
:103970005248C0785249087101204D49C87000264C
:103980000FE04B48C07B012803D14949C87001268C
:1039900007E04748C07B022803D101204449C87092
:1039A000022600E000BF00BF304670BD2DE9FF4198
:1039B00082B007460E461D464FF00308384600F019
:1039C00047FF00285BD03A48C078012802D002287F
:1039D00053D138E0374885600020364908730A2003
:1039E000887333488660102405E0002131480F3089
:1039F0000155601EC4B2002CF7D12A202D49C8738E
:103A00009DF813102B4841749DF8121081749DF895
:103A10001110C1749DF810100175C5F34F2001906D
:103A20009DF80510234881759DF80410C17501208B
:103A30001F490871072008700320C8730220C8704E
:103A40004FF003081AE01A48C07B28B90120184932
:103A5000C8704FF000080FE01548C07B012802D164
:103A60001349C87008E01248C07B022804D1012025
:103A70000F49C8704FF0020800E000BF00BF404689
:103A800006B0BDE8F081FFB581B007460E461D4681
:103A900003200C490870384600F0DAFE002876D082
:103AA0000348C07801280FD002286ED146E00000FC
:103AB000DC190120AC190120CC190120081C0120BF
:103AC000F81B012021010020334885608020324905
:103AD00008730A20887331488660102405E00021AD
:103AE0002D480F300155601EC4B2002CF7D128209C
:103AF0002949C8739DF80F10274841749DF80E108E
:103B000081749DF80D10C1749DF80C100175C5F3FA
:103B10004F2000909DF801101F4881759DF80010FE
:103B2000C17501201D490871072008700320C87362
:103B30000220C87003201A49087027E01748C07B8C
:103B400050B9384600F084FE30B101201349C870E6
:103B500000201349087015E01048C07B012807D1E8
:103B6000384600F075FE18B101200C49C87009E014
:103B70000A48C07B022805D101200849C8700220EC
:103B80000749087002E002E0FFE700BF00BF0448F9
:103B9000007805B0F0BD0000AC190120DC1901204F
:103BA0002101002008B500210091491EC268516022
:103BB0006FF08041C2685161009921F0004101F12C
:103BC00000410091009921F4006101F5006100912C
:103BD0000099C268916108BDF8B504460026002529
:103BE0000020009000BF032001F030FEE068006973
:103BF0000090681C0546F749884201D90020F8BDAD
:103C00000098C00F0028EED00025009820F0010099
:103C1000401C00900098E168086100BFE0680069FE
:103C20000090681C0546EB49884200D904E00098E2
:103C300000F001000028F1D100BF032001F006FED2
:103C40003046DCE72DE9F04104460026E078B0B9C3
:103C500000270020DD1C4FEAE57805EB98784FEA55
:103C6000A80704F1D00555F822C000BF04E00D6894
:103C7000CCF80050401C091DB842F8D300BF3046B4
:103C8000BDE8F081F0B503460024D01CC71700EB57
:103C90009777BD10D3F8D06000BF03E030680860AC
:103CA000641C091DAC42F9D30846F0BD70B502464C
:103CB0000C46002300200025D57001259570402575
:103CC0009580012C0CD14FF0A0430125D572082519
:103CD0001570042555709D15D580022515720AE0D2
:103CE0004CB9BD4B0025D5720C25157006255570B5
:103CF0004FF4A065D580D36003F500651561002100
:103D000010E003F5106505EB411602F1180545F8C2
:103D1000216003F5306505EB411602F1540545F8C5
:103D20002160491C55788D42EBD803F580655561BB
:103D30004035C2F8CC50002108E003F5A06505EB42
:103D4000411602F1900545F82160491C15788D4215
:103D5000F3D8002108E003F5805505EB013602F1A8
:103D6000D00545F82160491C15788D42F3D803F53C
:103D70006065C2F80C5170BD3EB5044600250020B8
:103D8000029001900090207A01283DD1E068806B7C
:103D90000190019820F480300190607A28B1019858
:103DA00020F4801000F5801001900198E16888638C
:103DB00000200290E068C0680290029820F0400065
:103DC0000290029820F480000290029820F40030C3
:103DD0000290029820F4002002900298E168C860E6
:103DE0002046FFF7F9FEE078012843D1009820F043
:103DF0001E000A300090009820F020002030009033
:103E00000098E168886035E0E068C0680290029838
:103E100020F04000403002900298E168C8602046DF
:103E2000FFF7DAFE00200190019820F4803000F5C1
:103E300080300190019820F4802000F580200190CE
:103E4000019820F4002000F500200190019820F452
:103E5000001000F500100190607A28B1019820F45C
:103E6000801000F5801001900198E16888631420AB
:103E700001F0E5FCE07801280FD1E068806800904F
:103E8000009820F01E000A300090009820F02000DA
:103E9000203000900098E168886028463EBD08B553
:103EA0000146002000220092009A22F00102521CDA
:103EB0000092CA689268009B1A43CB689A6008BD5A
:103EC00008B50146002000220092009A22F001026B
:103ED000521C0092CA689268009B9A43CB689A6011
:103EE00008BDF8B504460D460026002700200090C6
:103EF000009820F0200020300090009865F38A1090
:103F000000900098E168086100BFE06800690090D7
:103F1000781C07462F49884200D904E00098C0F376
:103F200040100028F1D100BF032001F08FFC304683
:103F3000F8BDF8B504460025002600200090009842
:103F400020F01000103000900098E168086100BF78
:103F5000E06800690090701C06461E49884200D93E
:103F600004E00098C0F300100028F1D100BF032046
:103F700001F06CFC2846F8BDF8B504460D46002655
:103F8000E068C0680090009820F000500090009811
:103F900020F080400090012D06D1009820F00050C4
:103FA00000F10050009006E02DB9009820F080400C
:103FB00000F1804000900098E168C860322001F074
:103FC0003EFC3046F8BD0146C868406900F001007B
:103FD00070470000400D03000000044000B5024699
:103FE0001046FFF7F0FF012801D0012000BD00209E
:103FF000FCE700B502461046FFF7E5FF012800D1B7
:1040000000BD0020FCE701460020CA685069CA686C
:104010009269104070470146C8684068704738B5DB
:104020000446002500200090E1688861401EE16898
:1040300048612046FFF7B6FDE07820B9009820F0EF
:10404000100010300090009820F0807000F1807017
:104050000090009820F0007000F10070009000982F
:1040600020F0005000F100500090009820F008006F
:1040700008300090009820F4001000F50010009027
:10408000E0688069009988430843E16888612846B0
:1040900038BD08B50146D1F8CC0000680090009802
:1040A00020F004000090009820F00200009000989A
:1040B00020F008000090009820F020000090009868
:1040C00008BD38B505460C4600200090214628461C
:1040D00001F06CFB2846FFF7DCFF00900098C0F36E
:1040E000003058B9012C09D1009820F4805000F517
:1040F000805000900099D5F8CC0001600098C0F382
:10410000003040B13CB9009820F4805000900099F4
:10411000D5F8CC000160C82001F091FB38BD38B55E
:1041200004462046FFF7B5FF0090009820F4807009
:1041300000F5807000900099D4F8CC0001600A204E
:1041400001F07DFB009820F4807000900099D4F875
:10415000CC000160142001F072FB012038BD08B5CD
:10416000426912680092009A61F301020092009B7A
:104170004269136008BDFEB50446002600250020F4
:10418000029001900090204601F011FB0021D4F82C
:104190000C010160207A012803D12046FFF7DFFFE0
:1041A00003E001212046FFF7DAFF2046FFF7B7FFC3
:1041B000606900680090009820F004000090009969
:1041C00060690160E07A01281DD18020E1684862C1
:1041D00002986FF30F0080300290029880B200F5D1
:1041E000C00002900298E168886201986FF30F00A6
:1041F000E0300190019880B200F5C0000190019874
:10420000E168C1F8000110212046FFF76AFE204650
:10421000FFF78FFE00250DE04FF0FF3104F1900015
:1042200050F825008160002104F1900050F825002D
:10423000C1606D1C2078A842EED801212046FFF70E
:1042400040FF2046FFF7EBFE3046FEBD01464869C1
:10425000806800F0010080F0010070470146486965
:10426000406970473FB502460020002300240294B5
:1042700003940194441E009402F1900454F82140E8
:10428000009DA56000240394D478012C04D1039CE4
:1042900024F00404241D039402F56B7404EB411410
:1042A000647934B1012C6AD0022C03D0032C38D1AC
:1042B00038E000BF039C24F00104641C0394039CB9
:1042C00024F0080408340394039C24F08004803410
:1042D0000394039C24F4806404F580640394039C99
:1042E00024F010041034039402F56B7404EB4114B1
:1042F000A47834B1039C24F4807404F5807403948E
:104300000FE0039C24F040044034039402F56B74E6
:1043100004EB4114247924B1039C24F020042034BC
:1043200003944EE0039C24F00104641C0394039C5A
:1043300024F0100410340394039C24F0080408347F
:104340000394039C24F0800480340394039C24F49D
:10435000806404F580640394039C24F4007404F5E1
:104360000074039402F56B7404EB4114A4782CB12F
:10437000039C24F4807404F58074039421E0039C6E
:1043800024F00104641C0394039C24F4007404F5D9
:1043900000740394039C24F020042034039402F559
:1043A0006B7404EB4114A47854B1039C24F0800492
:1043B00080340394039C24F4807404F58074039483
:1043C00000BF00BF02F1900454F82140039DE56056
:1043D000012404FA01F35469A4691C435569AC61D2
:1043E000029C24F0007404F100740294D468A4695F
:1043F000029D2C43D568AC610024019402F56B74D6
:1044000004EB41142578019C65F39C54019402F55A
:104410006B7404EB41146578019C65F3CE24019420
:1044200002F56B7404EB4114A578019C65F3CF345D
:10443000019402F56B7404EB4114E478022C01D171
:10444000012500E00025019C65F35144019402F52B
:104450006B7404EB41146579019C65F393440194FA
:1044600002F56B7404EB4114E588019C65F30A04C2
:10447000019402F56B7404EB41146479032C05D1AB
:10448000019C24F0005404F10054019402F19004C2
:1044900054F82140019D256004B030BD2DE9F04362
:1044A00088B004460D464FF00009C8464FF48077A7
:1044B000002006900790009004F56B7000EB45100B
:1044C000006910B304F56B7000EB4510016904F549
:1044D0006B7000EB4510C0880144491E04F56B70F9
:1044E00000EB4510C088B1FBF0F086B2BE420DDD96
:1044F0003E4604F56B7000EB4510C188714304F52E
:104500006B7000EB4510016100E0012604F56B7053
:1045100000EB4510807850B104F56B7000EB45104E
:10452000C188714304F56B7000EB4510016104F51F
:104530006B7000EB45100169069861F3120006905C
:10454000069866F3DC40069004F56B7000EB4510AE
:10455000017A069861F35E70069004F1900050F8BD
:10456000250006990161E078012809D104F56B70F6
:1045700000EB4510C16804F1900050F8250041613E
:1045800004F1900050F82500006807902046FFF7DE
:104590005DFE079960F35D710791079820F0004078
:1045A00000F100400790079820F08040079004F148
:1045B000900050F8250007990160E078002864D148
:1045C00004F56B7000EB4510807800285DD104F590
:1045D0006B7000EB45100069002856D004F56B7035
:1045E00000EB4510407930B1012821D0022803D0DA
:1045F000032839D11BE000BFE068C06A039004F5CE
:104600006B7000EB45100069C01CC0F38F08039865
:1046100080B240450ADA009820F020002030009057
:10462000E068806900990843E16888611DE000BF87
:1046300060690069019004F56B7000EB451000693A
:10464000C01CC0F38F08019880B240450BDA009877
:1046500020F0806000F180600090E068806900993F
:104660000843E168886100E000BF00BF04F56B709B
:1046700000EB4510008A83B204F56B7000EB451027
:104680002A46C1682046FFF7DDFA484608B0BDE873
:10469000F08310B586B002460020002303930193F7
:1046A00002F1900353F821301B680093009B23F024
:1046B000004303F100430093009B23F0804303F188
:1046C00080430093009BC3F3814323B1009BC3F35A
:1046D0008143022B0BD1D368DB6A0393039BC3F3A3
:1046E00007437BB9009B23F0004300930AE0536922
:1046F0001B690193019BC3F307431BB9009B23F084
:104700000043009302F1900353F82130009C1C6099
:1047100006B010BD1CB50246002000230093009B8C
:1047200023F0004303F1004300930124009B64F352
:10473000DC43009302F1900353F82130009C1C618C
:1047400002F1900353F821301B680193019B23F081
:10475000004303F100430193019B23F08043019345
:1047600002F1900353F82130019C1C601CBD38B548
:104770000446002160698161491E6069416100252C
:104780001AE004F1900050F82500006800900098AD
:1047900020F000400090009820F0804000F1804020
:1047A0000090009820F40040009004F1900050F830
:1047B0002500009901606D1C2078A842E1D82046B0
:1047C000FFF7B7FB10212046FFF78BFB38BD70B514
:1047D00004460E4600250021C4F8101300BF0BE06C
:1047E000002104F5457040F825103C3040F82510B4
:1047F0003C304155681CC5B20F2DF1DB0821A4F8EF
:10480000B21331462046FFF751FA2046FFF758FB16
:104810002046FFF7B1FA01212046FFF7ADFB204605
:10482000FFF7A9FC2046FFF73AFB002070BD08B552
:104830000146D1F8CC00006800900098C0F34140D8
:1048400008BD10B504462046FFF769FC002010BDE6
:104850000146D1F81003704701464869806880B26C
:104860007047024602F29B30405C7047024602F5F8
:10487000547050F821007047024602F56370405CA6
:10488000704770B504460D4629462046FFF7EAFCFE
:1048900070BD70B504460D46002104F29B304155B1
:1048A000113000EB4510416129462046FFF7F6FD27
:1048B00070BD00000CB50146D1F890000068009072
:1048C000009820F0004000F100400090009820F097
:1048D000804000F180400090009AD1F89000026082
:1048E00000200190019820F4001000F500100190C4
:1048F0000198CA68506101200CBD38B504460020FB
:104900000090FE480068816820468847009820F0A3
:10491000005000F1005000900098E16848610120CB
:1049200038BDFEB504460026002500200090029008
:104930000190D4F8CC0000680290D4F8CC00006854
:104940000190019820F004000190019820F00200ED
:104950000190019820F008000190019820F02000BB
:1049600001900298C0F3400058B1019820F0020075
:10497000801C0190E148006841682046884745F066
:1049800001050298C0F3C000002842D0019820F031
:104990000800083001900298C0F38000002838D049
:1049A000D64800684168204688470298C0F34140D5
:1049B000022804D00298C0F34140012828D1606940
:1049C000006800900298C0F34140022811D141F2E2
:1049D000707160694160009800F00300022818D0EF
:1049E000207A022803D102212046FFF7B8FB0126D6
:1049F0000FE04BF6803160694160009800F00300E1
:104A0000012806D001212046FFF7A9FB012600E07E
:104A100001260298C0F3401030B1019820F0200028
:104A20002030019045F0010516B12046FFF777FBD5
:104A30000199D4F8CC0001602846FEBD7FB505463B
:104A40000C4605F1900050F82460B0680390F068BF
:104A50000290DDE902100840039005F1900050F843
:104A60002400006801900398C0F38000D0B10020BA
:104A70000090009820F00400001D00900098B060A5
:104A800005F1900050F82400C0680090009820F0D4
:104A90000200801C009005F1900050F8240000995D
:104AA000C160B4E10398C0F3401048B10020009009
:104AB000009820F02000203000900098B060A6E11F
:104AC0000398C0F34020F8B105F1900050F824009D
:104AD000C0680090009820F00200801C009005F152
:104AE000900050F824000099C160E1B22846FFF719
:104AF000D0FD00200090009820F4007000F50070B8
:104B000000900098B06082E1039800F0010038B393
:104B1000002105F5457040F8241005F1900050F88B
:104B20002400C0680090009820F00200801C0090D3
:104B300005F1900050F824000099C160E1B22846C8
:104B4000FFF7A7FD00200090009820F00100401C16
:104B500000900098B060012105F56370015556E1A1
:104B60000398C0F3C00010B300200090009820F01C
:104B70000800083000900098B06005F1900050F8EF
:104B80002400C0680090009820F00200801C009073
:104B900005F1900050F824000099C160E1B2284668
:104BA000FFF777FD052105F5637001552FE10398A7
:104BB000C0F3001038B3002105F5457040F824100B
:104BC00005F1900050F82400C0680090009820F093
:104BD0000200801C009005F1900050F8240000991C
:104BE000C160E1B22846FFF754FD00200090009814
:104BF00020F01000103000900098B060032105F5FF
:104C00006370015503E10398C0F3C01040B305F190
:104C1000900050F82400C0680090009820F0020036
:104C2000801C009005F1900050F824000099C160AC
:104C3000E1B22846FFF72DFD05F5457050F8241028
:104C4000491C40F8241006217830015500200090BE
:104C5000009820F08000803000900098B060D6E08E
:104C60000398C0F3801038B3002105F5457040F873
:104C7000241005F1900050F82400C06800900098BE
:104C800020F00200801C009005F1900050F82400F4
:104C90000099C160E1B22846FFF7FBFC00200090BC
:104CA000009820F04000403000900098B06004214F
:104CB00005F563700155AAE00398C0F3802078B32E
:104CC00005F1900050F82400C0680090009820F092
:104CD0000200801C009005F1900050F8240000991B
:104CE000C160E1B22846FFF7D4FC00200090009894
:104CF00020F0100010300090009801E0E800002043
:104D0000B060082105F563700155002000900098FF
:104D100020F4806000F5806000900098B06076E03C
:104D2000FFE70398C0F34000002870D005F1900021
:104D300050F82400C0680090009820F00200009015
:104D400005F1900050F824000099C16005F56370EA
:104D5000005D012815D1012105F29B300155019814
:104D6000C0F38140022848D105F56B7000EB441078
:104D7000407E80F0010105F56B7000EB4410417638
:104D80003BE005F56370005D032804D1022105F2C4
:104D90009B30015531E005F56370005D04280FD1AB
:104DA00005F56B7000EB44100079012803D1E1B2E6
:104DB0002846FFF7AFFC022105F29B3001551CE0AD
:104DC00005F56370005D052804D1042105F29B30D0
:104DD000015512E005F56370005D06280DD105F55B
:104DE000457050F82400032807D1032105F29B30B9
:104DF00001550021873840F82410002000900098C9
:104E000020F00200801C00900098B06000BF0120DC
:104E100004B070BD70B586B005460C4605F1900033
:104E200050F82460B0680590F0680490DDE9041043
:104E30000840059005F1900050F8240000680390A8
:104E4000002004900598C0F38000D0B100200190AC
:104E5000019820F00400001D01900198B06005F158
:104E6000900050F82400C0680190019820F00200E2
:104E7000801C019005F1900050F824000199C16058
:104E800073E00598C0F3401048B1002001900198EC
:104E900020F02000203001900198B06065E0059876
:104EA000C0F3C00078B305F1900050F82400C0684A
:104EB0000190019820F00200801C019005F1900003
:104EC00050F824000199C160052105F56370015572
:104ED00000200190019820F01000103001900198FE
:104EE000B06000200190019820F008000830019087
:104EF0000198B060059820F010000590E1B22846B6
:104F0000FFF7C7FB31E0FFE70598C0F3802060B3EF
:104F100005F1900050F82400C0680190019820F03D
:104F20000200801C019005F1900050F824000199C6
:104F3000C160E1B22846FFF7ACFB00200190019868
:104F400020F01000103001900198B060082105F5A4
:104F50006370015500200190019820F4806000F5F5
:104F6000806001900198B06000BF0598C0F34020B8
:104F7000F8B105F1900050F82400C0680190019844
:104F800020F00200801C019005F1900050F82400F0
:104F90000199C160E1B22846FFF77BFB0020019038
:104FA000019820F4007000F5007001900198B06045
:104FB00042E1059800F00100002871D0E87801284E
:104FC00012D105F1900050F824000069029005F517
:104FD0006B7000EB441000690299C1F31201411A91
:104FE00005F5547040F82410012105F56370015552
:104FF0000021783840F8241000200190019820F01A
:105000000100401C01900198B0600398C0F38140FA
:1050100020B10398C0F3814002282AD105F1900005
:1050200050F82400C0680190019820F00200801C14
:10503000019005F1900050F824000199C160E1B29F
:105040002846FFF726FB00200190019820F0100071
:10505000103001900198B06005F56B7000EB4410C2
:10506000007E80F0010105F56B7000EB44100176C5
:10507000E2E00398C0F38140032899D1039820F01F
:10508000005000F10050039005F1900050F824000A
:1050900003990160012105F29B300155CCE0FFE747
:1050A0000598C0F34000002851D005F1900050F859
:1050B0002400C0680190019820F00200019005F1E1
:1050C000900050F824000199C16005F56370005DFF
:1050D000012804D1012105F29B3001552DE005F591
:1050E0006370005D052804D1042105F29B30015551
:1050F00023E005F56370005D062804D005F56370B4
:10510000005D082808D1002105F5457040F82410FD
:1051100003218730015510E00398C0F38140032834
:105120000BD105F56B7000EB4410007E80F001019F
:1051300005F56B7000EB441001760020019001989A
:1051400020F00200801C01900198B06074E0059886
:10515000C0F3C01040B305F1900050F82400C068BF
:105160000190019820F00200801C019005F1900050
:1051700050F824000199C16005F5457050F82410DD
:10518000491C40F82410062178300155E1B2284628
:10519000FFF77FFA00200190019820F08000803016
:1051A00001900198B06047E00598C0F30010E8B3A3
:1051B0000398C0F38140032815D105F1900050F801
:1051C0002400C0680190019820F00200801C01902A
:1051D00005F1900050F824000199C160E1B2284621
:1051E000FFF757FA18E00398C0F3814020B1039805
:1051F000C0F3814002280FD1039820F0004000F155
:1052000000400390039820F08040039005F1900047
:1052100050F8240003990160032105F563700155DE
:1052200000200190019820F0100000E004E0103010
:1052300001900198B06000BF012006B070BD7CB540
:105240000546002400262846FFF708F8019000BF15
:105250001BE0019880B20121A1400840A0B105F1F6
:10526000900050F82400006800900098C0F3C0300F
:1052700028B121462846FFF7CDFD064304E021462C
:105280002846FFF7DBFB0643641C2878A042E0D8E1
:1052900030467CBDFEB50446606900690090019807
:1052A000C0F3C30104F56B7000EB41100069C01C32
:1052B000C0F38F0674E04FF6FF71009801EA800595
:1052C0000198C0F3C30104F56B7000EB4110006955
:1052D000A84216D20198C0F3C30104F56B7000EB2D
:1052E0004110008A85B200200290029820F0806070
:1052F00000F180600290E068806902998843E1686B
:1053000088610198C0F3C30104F56B7000EB411094
:105310000069C01CC0F38F060198C0F3C302C0F33C
:10532000C30304F56B7000EB43102B46C1682046A5
:10533000FEF788FC0198C0F3C30104F56B7000EB25
:105340004110C06841190198C0F3C30204F56B70A5
:1053500000EB4210C1600198C0F3C30104F56B700B
:1053600000EB41100069411B0198C0F3C30204F532
:105370006B7000EB421001610198C0F3C30104F5AA
:105380006B7000EB4110406941190198C0F3C302F2
:1053900004F56B7000EB4210416160690069009098
:1053A000009880B2B0420ADD0198C0F3C30104F551
:1053B0006B7000EB4110006900287FF47CAF012086
:1053C000FEBD7FB50446E068C06A00900198C0F356
:1053D000C30104F56B7000EB41100069C01CC0F301
:1053E0008F0673E04FF6FF71009801EA800501987F
:1053F000C0F3C30104F56B7000EB41100069A842D3
:1054000015D20198C0F3C30104F56B7000EB411095
:10541000008A85B200200390039820F020002030FD
:105420000390E068806903998843E1688861019886
:10543000C0F3C30104F56B7000EB41100069C01CA0
:10544000C0F38F060198C0F3C302C0F3C30304F591
:105450006B7000EB43102B46C1682046FEF7F2FB51
:105460000198C0F3C30104F56B7000EB4110C068F4
:1054700041190198C0F3C30204F56B7000EB4210B0
:10548000C1600198C0F3C30104F56B7000EB4110DB
:105490000069411B0198C0F3C30204F56B7000EB77
:1054A000421001610198C0F3C30104F56B7000EB79
:1054B0004110406941190198C0F3C30204F56B70B3
:1054C00000EB42104161E068C06A0090009880B231
:1054D000B0420ADD0198C0F3C30104F56B7000EB24
:1054E0004110006900287FF47DAF012004B070BD39
:1054F00030B585B00446002000900390039820F05A
:10550000100010300390E068806903998843E168D7
:105510008861E068006A0490049800F00F00009031
:1055200004F190009DF8001050F8210000680190EF
:105530000498C0F34340022806D0032878D00528F9
:1055400077D0072873D175E00498C0F30A100028BB
:1055500069DD04F56B709DF8001000EB4110C06828
:10556000002860D00498C0F30A1204F56B709DF80F
:10557000003000EB4310C1682046FEF783FB04981F
:1055800000F00F0104F56B7000EB4110C068049946
:10559000C1F30A110144049800F00F0204F56B7086
:1055A00000EB4210C160049800F00F0104F56B702D
:1055B00000EB411040690499C1F30A1101440498B9
:1055C00000F00F0204F56B7000EB4210416104F52E
:1055D0006B709DF8001000EB4110456904F55470A4
:1055E0009DF8001040F8215004F190009DF8001043
:1055F00050F82100006902900298C0F3C9400028C9
:1056000011DD019820F0004000F100400190019868
:1056100020F08040019004F190009DF80020019955
:1056200050F82200016006E002E002E0FFE700BF60
:1056300000BF00BF00BF00BF039820F01000103073
:105640000390E068806903990843E168886101205C
:1056500005B030BD38B504460020009031480068E0
:10566000016820468847009820F008000830009024
:105670000098E1684861012038BD38B5054600242E
:10568000002000902846FEF7B4FC002847D02846AA
:10569000FEF7B9FC0090009808B9002038BD0098CA
:1056A000C0F3C00018B12846FFF7D4FF04430098A8
:1056B000C0F3001018B12846FFF71AFF0443009802
:1056C000C0F3401018B12846FFF77BFE0443009852
:1056D000C0F3806018B12846FFF7DCFD0443009852
:1056E000C0F3406018B12846FFF7A9FD04430098B5
:1056F000C0F3006018B12846FFF713F9044300987F
:10570000C0F3407018B12846FFF7F7F8044300983B
:10571000C0F3405018B12846FFF7CCF804432046A8
:10572000BCE70000E800002010B501214D4805F05D
:1057300020FC80B101214B4805F02CFC4A48006850
:1057400028B149480068401E4749086003E000212D
:10575000444805F045F910BD08B50121102004F0BA
:10576000B7FC36208DF8000002208DF801008DF87E
:10577000020001208DF80300684603F0CEF908BD51
:1057800010B50446FFF7E8FF10BD38B504464320C6
:105790008DF8000002208DF801008DF80200012034
:1057A0008DF80300684603F0B8F938BD70477047BC
:1057B0003EB5044600212B4805F012F900220121D4
:1057C000284805F028F9022C03D10B20ADF804007D
:1057D00005E0012C03D142F6DF60ADF8040005209E
:1057E000ADF800000020ADF80600ADF802006946F3
:1057F0001C4804F099FD01211A4805F0CBFB01215A
:10580000184805F0EDF901221146164805F003F994
:105810000121144805F0E4F83EBD70B505460C467C
:10582000114805602046FFF7C3FF00BF0E4800681F
:105830000028FBD100210B4805F0D2F870BD10B54F
:10584000044601212046FFF7E8FF10BD10B50446CD
:1058500002212046FFF7E1FF10BD10B5FFF764FFFE
:1058600010BD000000100040280100207047704764
:10587000704700201B4908707047704710B101281D
:1058800000D000BF70477047704710B50346084608
:105890004479082C00D000BF10BD70477047704796
:1058A0000120104908707047704701207047704709
:1058B00010B50D48007860B901220CA10C4801F028
:1058C000F2FB10B14FF0FF3010BD03200649087005
:1058D00000E000BF00BF0020F6E70020024908708A
:1058E000704700002C0100202D0100200000000066
:1058F000B425012070B503460C4603E014F8015BA3
:1059000003F8015B1500A2F10102F7D170BD30B5BB
:10591000034601E003F8011B1400A2F10102F9D1D2
:1059200030BDF0B503461C460D46002000BF1600F2
:10593000A2F1010207D014F8017B15F801CBA7EB07
:105940000C063000F3D0F0BD024600E0521C107887
:1059500010B110788842F9D1107870472DE9F041E4
:10596000044600272079F8B1256B607801232A4688
:1059700004F1340103F02BF808B1012714E00020F2
:105980002071606A281AE16988420DD2E67809E040
:10599000E0690544607801232A4604F1340103F0EC
:1059A00016F8761E022EF3D23846BDE8F08170B5A7
:1059B00004460D460026206BA84210D02046FFF773
:1059C000CDFF06465EB9607801232A4604F1340112
:1059D00002F0BFFF10B14FF0FF35012625633046BE
:1059E00070BD70B504462046FFF7B8FF0546002D90
:1059F00059D1207803284FD1607901284CD1420237
:105A0000002104F13400FFF782FF552184F832129F
:105A1000AA2184F83312522084F834005221352010
:105A20000155612136200155412137200155722150
:105A300084F8181284F81912412184F81A1261218D
:105A400084F81B12217C84F81C12208A010A84F835
:105A50001D122069010C84F81E122069010E84F8C1
:105A60001F12217B84F82012A089010A84F82112D8
:105A7000E068010C84F82212E068010E84F8231219
:105A8000206A401C20636078012304F13401226BFA
:105A900002F09DFF0020607160780022114602F044
:105AA000DBFF00B10125284670BD0246891E9069C2
:105AB000801E884201D8002070479378D06A01FB8D
:105AC0000300F9E72DE9F04705460C46022C02D306
:105AD000A869A04202D84FF0010969E04FF0FF39F0
