:020000040800F2
:10000000005D00202DBB0008BD1C0008BF1C0008BF
:10001000C31C0008C71C0008CB1C0008000000001F
:10002000000000000000000000000000CF1C0008DD
:10003000D11C000800000000D31C0008D51C0008DB
:1000400047BB000847BB000847BB000847BB000888
:1000500047BB000847BB000847BB000847BB000878
:1000600047BB000847BB000847BB000847BB000868
:1000700047BB000847BB000847BB000847BB000858
:1000800047BB000847BB0008311E000847BB0008FB
:1000900047BB000847BB000847BB000847BB000838
:1000A00047BB000847BB000847BB000847BB000828
:1000B000991D000847BB0008831D000847BB0008C6
:1000C00047BB000847BB000847BB000847BB000808
:1000D00047BB0008311D000847BB000847BB0008AC
:1000E00047BB000847BB000847BB000800000000F2
:1000F0000000000000000000000000000000000000
:10010000000000000000000047BB000847BB0008DB
:1001100047BB000847BB00083F5E000847BB00081C
:1001200047BB000847BB000847BB000847BB0008A7
:1001300047BB000847BB000847BB000847BB000897
:1001400047BB000847BB000847BB000887250008DD
:1001500000F002F800F062F80AA090E8000C824477
:100160008344AAF10107DA4501D100F057F8AFF254
:10017000090EBAE80F0013F0010F18BFFB1A43F085
:10018000010318477CC400009CC400000A444FF0DF
:10019000000C10F8013B13F0070408BF10F8014BE6
:1001A0001D1108BF10F8015B641E05D010F8016B2B
:1001B000641E01F8016BF9D113F0080F1EBF10F88F
:1001C000014BAD1C0C1B09D16D1E58BF01F801CBB2
:1001D000FAD505E014F8016B01F8016B6D1EF9D535
:1001E0009142D6D37047000000230024002500264A
:1001F000103A28BF78C1FBD8520728BF30C148BF8A
:100200000B60704764290BF0238573290BF09D86E2
:10021000002070471FB51FBD10B510BD0BF0CBFE01
:100220001146FFF7F7FF00F0B7FE0BF0E9FE03B44D
:10023000FFF7F2FF03BC0BF0EDFE0000EFF30980C7
:10024000704780F309887047EFF30880704780F3A8
:100250000888704740BA7047C0BA704730B51E4929
:10026000B1F1807F00D31DE021F07F40401E4FF0B0
:10027000E022506150170F22002807DA13071D0EE5
:10028000164B00F00F04241F1D5503E013071C0E2E
:10029000134B1C5400BF00204FF0E0229061072058
:1002A000106100BF30BD014642F2887201FB02F0CE
:1002B00000E0401E0028FCD1704700EB400202EB3A
:1002C000C00100E0491E0029FCD17047014600E052
:1002D000491E0029FCD170474019010018ED00E0CB
:1002E00000E400E00920FE49088008460088FD4936
:1002F00008800020FC49088070470920FB490880DD
:1003000008460088FA49088070470920F9490880A2
:1003100008460088F84908800020F849088070479E
:1003200040F2E730F649088008460088F549088021
:100330000020F5490880704740F2E730F349088013
:1003400008460088F2490880704700B500222FE077
:10035000F04850F82200F04901EB02110860EF4824
:1003600030F81200EC4901EB02118880EA4800EBFA
:1003700002108088401EE84901EB0211C880E6485F
:1003800000EB02108088401EE34901EB0211088156
:100390000020E14901EB02114881DF4800EB021027
:1003A0008088401EDC4901EB02118881501CC2B2DA
:1003B0000A2ACDDBFFF7C0FFFFF7B2FFFFF7A5FF6B
:1003C000FFF79BFFFFF78EFF00BD30B5D24B03EB6D
:1003D00000135B89D04C04EB0014A488A34223DAF9
:1003E000CD4B03EB00131B895B1CCB4C04EB0014BF
:1003F000A48893FBF4F504FB1533C74C04EB0014FD
:100400002381C54B03EB00131B68C34C04EB0014A2
:1004100024891A191170C04B03EB00135B895B1C14
:10042000BD4C04EB0014638130BD10B50146BA48E1
:1004300000EB01104089002824DDB74800EB0110D3
:10044000C088401CB44B03EB01139B8890FBF3F472
:1004500003FB1400B04B03EB0113D880AE4800EB54
:1004600001104089401EAC4B03EB01135881AA4890
:1004700000EB01100068A84B03EB0113DB88C218E6
:10048000107810BD0020FCE710B50146A24800EB33
:100490000110408900281BDD9F4800EB0110808976
:1004A000401C9D4B03EB01139B8890FBF3F403FB73
:1004B0001400994B03EB01139881974800EB01104E
:1004C0000068954B03EB01139B89C218107810BD8F
:1004D0000020FCE7904901EB00118988491E8E4AF3
:1004E00002EB0012D1808C4901EB00118988491E72
:1004F000894A02EB001211810021874A02EB0012A7
:10050000518170470146844800EB011040897047D3
:100510000146814800EB011080887F4A02EB0112FE
:100520005289801A80B270477948028877480188DA
:100530008A4202DB501A80B2704702F57A70401A84
:1005400080B2F9E700B50346FFF7EEFFB0F57A7F1A
:100550000DDA6F480088401C4FF47A7190FBF1F27D
:1005600001FB12006A4908806D480988435400BDA8
:10057000674800886549098888420ED0634800882A
:10058000401C4FF47A7190FBF1F201FB12005F49BD
:10059000088063480988405C7047FF20FCE700B58D
:1005A000FFF7C2FFC0F57A7080B200BD56490988D6
:1005B000B1F57A7F13DA53490988491C4FF47A72EE
:1005C00091FBF2F302FB13114E4A11804E49098848
:1005D000491C4D4A118053494A4A12888854704731
:1005E00049480088002814DD45480088401C4FF425
:1005F0007A7190FBF1F201FB1200414908804248F8
:100600000088401E4049088046483D490988405CB2
:1006100070470020FCE73C480088C0F57A7080B243
:10062000704741480288414801888A4202DB501ADB
:1006300080B2704702F10A00401A80B2F9E709203F
:100640003A4908800846008837490880704700B555
:100650000346FFF7E6FF0A280DDA33480088401CFE
:100660000A2190FBF1F201FB12002F49088030486B
:10067000098820F8113000BD2B4800882B490988D3
:1006800088420ED029480088401C0A2190FBF1F2D4
:1006900001FB1200254908802548098830F811001F
:1006A00070474FF6FF70FBE700B5FFF7BAFFC0F1E8
:1006B0000A0080B200BD114909880A2940DA0E49B2
:1006C0000988491C0A2291FBF2F302FB13110A4A22
:1006D00011800A490988491C084A118015492BE0F4
:1006E0001A0000201C000020180000201400002028
:1006F0001600002010000020120000200E00002034
:100700000600002008000020040000200000002057
:100710000200002038C00008440A002024C000085D
:10072000D4010020BC0500200C0000200A0000209D
:10073000A4090020B80900204B4A128821F81200B1
:1007400070474A480088002814DD49480088401C4A
:100750000A2190FBF1F201FB120045490880434851
:100760000088401E4149088042484149098830F8C4
:10077000110070470020FCE73C480088C0F10A00E7
:1007800080B270473C4802883C4801888A4202DBBC
:10079000501A80B2704702F10A00401A80B2F9E79D
:1007A00035490988491C0A2291FBF2F302FB131117
:1007B000314A118032491288885470472E48008887
:1007C0002E49098888420DD02C480088401C0A21F7
:1007D00090FBF1F201FB12002849088028480988A3
:1007E000405C7047FF20FCE700B5FFF7CBFFC0F18E
:1007F0000A0080B200BD234909880A2912DA224979
:100800000988491C0A2291FBF2F302FB13111E4ACC
:1008100011801C490988491C1A4A11801B491A4A2F
:1008200012888854704717480088002813DD18483C
:100830000088401C0A2190FBF1F201FB12001449D0
:10084000088010480088401E0E4908800F48104953
:100850000988405C70470020FCE70A480088C0F126
:100860000A0080B270470000120000200E00002035
:1008700010000020B80900201600002014000020FD
:10088000CC090020180000201C000020D609002000
:100890001A0000207047374A3748002105E01368E6
:1008A0000360121D001D4B1C99B25929F7D37047E4
:1008B0002DE9F04108F0FDFF352009F095FA0527F4
:1008C00026E02C4809F03AF82A4D2B4E002407E088
:1008D0002846316809F002F92D1D361D601C84B2CE
:1008E000592CF5D34FF00108224D234E002409E086
:1008F00028683168884201D04FF000082D1D361D50
:10090000601C84B2592CF3D3B8F1000F00D004E07E
:100910003800A7F10101CFB2D3D100BFBDE8F0810B
:1009200008B516496A4608681060009808BDF1B518
:1009300008F0BFFF352009F057FA052612E00F48EE
:1009400008F0FCFF0D4C6D462046296809F0C6F8FA
:10095000012700BF00BF20682968884200D0002717
:1009600007B104E03000A6F10101CEB2E7D100BF2B
:10097000F8BD000000FE0508E40A00200038000869
:1009800010B54021FE4809F046FB08B9202010BDF3
:100990008021FB4809F03FFB08B92120F7E74FF41D
:1009A0008071F74809F037FB08B92220EFE7FF20F4
:1009B000EDE7F4490978012904D1222800D100E0AB
:1009C00000BF0AE0EF49097839B9222802D042284D
:1009D00002D100E000BF00BF00BF704710B500208B
:1009E000FFF790FD00280BDD0020FFF71EFD0446F9
:1009F000E548007818B92046FFF7DBFF00BF00BFCD
:100A000010BD10B5E148007801281BD1FFF78CFD1F
:100A100018B90020DD49087014E0FFF7A9FD04466D
:100A2000DB48007870B9422C02D0622C08D103E078
:100A30000020D849087004E00120D649087000E081
:100A400000BF00BF10BD1FB50121084609F0C6FD5B
:100A5000B320ADF8000040F2CF70ADF804000020E4
:100A6000ADF80600ADF8020069464FF0804009F08D
:100A7000E1FE0122114690070AF053FA1C208DF87E
:100A80000C0000208DF80D0001208DF80E008DF86F
:100A90000F0003A808F033FB012188070AF026FAAB
:100AA0001FBD10B50446082C75D2DFE804F004120F
:100AB000202E3C4A58664FF48051B14809F0C7FADD
:100AC0000421B54809F0C3FA0821B44809F0BFFA77
:100AD00061E04FF48051AA4809F0B9FA0421AE4808
:100AE00009F0B5FA0821AD4809F0AFFA53E04FF428
:100AF0008051A34809F0ABFA0421A74809F0A5FAF0
:100B00000821A64809F0A3FA45E04FF480519C481B
:100B100009F09DFA0421A04809F097FA08219F489E
:100B200009F093FA37E04FF48051954809F08DFAB7
:100B30000421994809F08BFA0821984809F087FAAE
:100B400029E04FF480518E4809F07FFA0421924841
:100B500009F07DFA0821914809F077FA1BE04FF47B
:100B60008051874809F071FA04218B4809F06DFA29
:100B700008218A4809F06BFA0DE04FF48051804853
:100B800009F063FA0421844809F05FFA08218348D8
:100B900009F05BFA00BF00BF10BD08B501208DF859
:100BA00002004002ADF8000010208DF803006946F5
:100BB0007A4809F09DF91020ADF800008DF8030087
:100BC0006946764809F094F91021744809F03FFA13
:100BD0000020734908702020ADF8000010208DF827
:100BE000030069466F4809F083F920216D4809F038
:100BF0002EFA00206C4908704020ADF8000010204B
:100C00008DF803006946674809F072F90820ADF8CD
:100C1000000010208DF803006946624809F068F969
:100C20000821604809F013FA0220ADF800001020F6
:100C30008DF8030069465B4809F05AF902215948CA
:100C400009F005FA0420ADF8000010208DF803002B
:100C50006946544809F04CF90421524809F0F7F963
:100C60000121524809F015FA0820ADF800001020C3
:100C70008DF803006946494809F03AF90420ADF8B7
:100C8000000010208DF803006946434809F030F950
:100C90004FF48050ADF8000010208DF80300694635
:100CA000374809F025F90020FFF7FBFE4FF480508C
:100CB000ADF8000004208DF803006946374809F0BC
:100CC00017F94FF40050ADF8000004208DF8030030
:100CD0006946324809F00CF94020ADF80000482080
:100CE0008DF803006946264809F002F98020ADF826
:100CF000000048208DF803006946214809F0F8F803
:100D00004FF48070ADF8000048208DF8030069466C
:100D10001B4809F0EDF84FF48070ADF80000042096
:100D20008DF8030069461D4809F0E2F808BDC820A7
:100D30001F4981F8E00000211D4880F8E11080F88B
:100D4000E91080F8EF1080F8EA10012180F8E21035
:100D5000002180F8E310012180F8E410002180F8E0
:100D6000E51080F8E61080F8E710012180F8EB101C
:100D700080F8EC10322180F8ED1064211AE00000B8
:100D800000100140B80000201E000020E4000020F8
:100D90003F0000207A00002000140140000C0140B8
:100DA0002100002000080140220000200002300045
:100DB000E40A002080F8EE1070470320F74981F81C
:100DC000B0004621F54880F8B110412180F8B210FA
:100DD0003C2180F8B310372180F8B4100A2180F844
:100DE000B510962180F8B6100A2180F8B710962128
:100DF00080F8B810642180F8B910372180F8BA1053
:100E0000412180F8BB105A2180F8BC10732180F872
:100E1000BD103C2180F8BE10462180F8BF103C2157
:100E200080F8C010502180F8C1100C2180F8C21049
:100E3000172180F8C3101D2180F8C4102E2180F8DE
:100E4000C510162180F8C610242180F8C71027216C
:100E500080F8C810342180F8C9102B2180F8CA10FE
:100E60003C2180F8CB10912180F8CC10822180F8B1
:100E7000CD10782180F8CE107047002006E0C849D8
:100E8000095CC64A42F82010411CC8B20328F6DBB0
:100E9000704700B500230EE0C248C15CBF48103067
:100EA00040F83310BF48C15CBC48103000EBC300B1
:100EB0004160581CC3B2032BEEDBFFF7DEFF00BD21
:100EC00010B5FFF7E6FF0A20B44981F8A0002A21F7
:100ED000B24848300AF064FF2A21B04874300AF062
:100EE0005FFFFF221521AD4830300AF051FF10BDE1
:100EF00010B5FFF7E5FFFFF760FFFFF718FF10BD24
:100F000010B50AF05CFD4FF4806009F021FA002072
:100F100009F027FA4FF4004009F03EFA01213D2084
:100F200009F04FFB0121480209F04BFB0121880227
:100F300009F047FB0121880309F043FB01F086F823
:100F4000FFF703FAFFF78AF9FFF7A4FCFFF7A3FC0A
:100F50009248D0F860019449884214D08F48D0F864
:100F6000600100F07040B0F1004F02D0FFF7C0FF09
:100F700003E0FFF722FFFFF7DAFE8B488749C1F84D
:100F80006001FFF795FCFFF708FEFFF75CFD00F03E
:100F9000B7FF01F079FA10BD6420FFF784F9FFF77D
:100FA000AFFF0A20FFF77FF90CE001F098FA7F48C5
:100FB0000078012802D100207C490870FFF721FD4C
:100FC000FFF70CFDF1E77A4908701421794A117096
:100FD000704710B578480078012830D10020764954
:100FE0000870FFF7CDFC7549087075480078400619
:100FF000000E7349087071480078FF2803D0084636
:101000000078401C08706F480078002849D16B4870
:101010000078FF2814D16C48007850B96B480078EC
:1010200038B16A4801780020FFF7CFF90120FFF7B7
:10103000CAFF1420664908700220634908705EE008
:101040006148007800280BDD5F480078401E5E494B
:1010500008700846007818B9584800785B4908704D
:101060005B48007800284ADD59480078401E5849FE
:10107000087008460078002841D1564908700120C0
:10108000504908704D480078534908700846007868
:101090002030C1B20020FFF798F90120FFF793FF3D
:1010A0002DE0464800784C490978884216D14948D5
:1010B0000078002823DD47480078401E4549087025
:1010C00008460078D8B9444800782030C1B20020E2
:1010D000FFF77BF90120FFF776FF10E00020394988
:1010E0000870FF203C4908703849087002203649D2
:1010F000087014203649087000203649087010BD69
:1011000010B53648007808BB3548007801281ED154
:1011100034480088D0B934480078B8B900F05EFF90
:101120003048008840F001002E490880F4202F4903
:10113000087010212E4808F088FF01202D49087002
:1011400014202D49087000202C4908800BE0254808
:10115000007800F02000002805DD2248008820F0FB
:1011600020002049088010BD2DE9F04F87B00746C8
:10117000884692463E46707830383178303901EBF7
:10118000810100EB4100C0B20690069828B900200A
:101190008AF8000007B0BDE8F08F31E0E40A0020D3
:1011A00069C0000865C00008531106876A00002066
:1011B0007600002077000020B2000020B50000205B
:1011C000B7000020B1000020AC000020AF000020DC
:1011D000AD000020AE000020B00000201E00002066
:1011E0003E0000209E000020DC000020A000002027
:1011F000000C014021000020870000208E0000200C
:101200000698804501DB4FF000080024A346A14664
:1012100002252DE0705D7C2821D1BBF1000F07D1A4
:1012200000244FF0010B142101A80AF0DBFD1DE0A2
:10123000C84508D1621C01A950460AF064FD01208E
:1012400007B0BDE8F08F09F1010000F0FF090024AC
:101250004FF0010B142101A80AF0C4FD06E0112C87
:1012600004DA705D01A90855601CC4B2681C85B21F
:1012700030460AF029FDA842CCDCBBF1010F08D1B1
:10128000C84506D1621C01A950460AF03CFD012068
:10129000D6E700BFD4E738B504460D4625B1012D89
:1012A0000BD0022D1BD111E020234FF4A07200219E
:1012B0000846009401F055F812E0B0234FF4A072F4
:1012C00020210020009401F04CF809E020234FF485
:1012D000A072D0210020009401F043F800E000BF8C
:1012E00000BF38BD30B503463025541E0D550024CF
:1012F0008C5410460EE00A24B3FBF4F504FB1534BD
:101300003034451E4C55441EE0B200B904E00A24B6
:10131000B3FBF4F3002BEED100BF904201D1441E89
:10132000E0B203E02025441E0D55E0B20028F9DCB0
:1013300030BD3EB5002147F6FF70FFF7ACFF01213D
:101340004FF6FF70FFF7A7FF022147F6FF70FFF788
:10135000A2FF44F2080002234FF4A0722021009063
:10136000002000F0FEFF44F2080002234FF4A072B8
:10137000CE210090002000F0F4FF0020082103227D
:10138000A823CDE9002102907E222421102000F024
:10139000BCFF102000F052FF002000F052FF4FF67B
:1013A000FF7000F051FF002410E0FE49085D0422A8
:1013B000FD49FFF797FF04EB8400800000F126024F
:1013C0001121F94800F043FF601CC4B2072CECDB8C
:1013D00004EB8400800000F126021121F3A000F04C
:1013E00036FF182000F02AFF002000F02AFF4FF6F9
:1013F000FF7000F029FF8C22A021EEA000F027FF53
:101400006422A021EDA000F022FF3C22A021EDA04B
:1014100000F01DFF3EBD10B5FFF78BFF10BD7CB582
:1014200006460C46E948007800B17CBD30460AF01B
:101430004BFC85B22946304600F060FE002C09DDE9
:101440000D208DF800000A208DF801000221684669
:1014500000F054FE00BFE8E7704764281FDB00225D
:10146000CA700A2290FBF2F302FB130230328A7038
:101470000A2290FBF2F2D0B20A2290FBF2F302FBB6
:10148000130230324A700A2290FBF2F2D0B20A22E2
:1014900090FBF2F302FB130230320A701FE00A28BD
:1014A00014DB00228A700A2290FBF2F302FB130283
:1014B00030324A700A2290FBF2F2D0B20A2290FB3C
:1014C000F2F302FB130230320A7008E000224A7085
:1014D0000A2290FBF2F302FB130230320A707047CB
:1014E00030B503463025541E0D5500248C5410464B
:1014F0000FE00A2493FBF4F504FB15343034E5B215
:10150000441E0D55E0B200B905E00A2493FBF4F443
:10151000A3B2002BEDDC00BF904201D1441EE0B22B
:1015200003E03025441E0D55E0B20028F9DC30BD43
:1015300010B5024610460A2807DA30230B704B70AC
:101540008B7000F13003CB7052E064280FDA302347
:101550000B704B700A2390FBF3F330338B700A232C
:1015600090FBF3F403FB14033033CB7040E0B0F591
:101570007A7F19DA30230B70642390FBF3F3303356
:101580004B70642390FBF3F403FB140398B20A231B
:1015900090FBF3F330338B700A2390FBF3F403FBDF
:1015A00014033033CB7023E04FF47A7390FBF3F3E2
:1015B00030330B704FF47A7390FBF3F403FB140396
:1015C00098B2642390FBF3F330334B70642390FBA9
:1015D000F3F403FB140398B20A2390FBF3F33033C4
:1015E0008B700A2390FBF3F403FB14033033CB70AE
:1015F00000230B7110BD30B503463025541E0D5528
:1016000000248C5410460FE00A2493FBF4F504FBED
:1016100015343034E5B2441E0D55E0B200B905E092
:101620000A2493FBF4F4A3B2002BEDDC00BF90423C
:1016300001D1441EE0B203E02025441E0D55E0B266
:101640000028F9DC30BD10B50246C31700EB137358
:101650001B115F4CE35C0B70C31700EB13731B1182
:10166000A0EB0313E35C4B7000228A7010BD30B511
:1016700004460D46032229462046FFF7BCFF30BD35
:10168000544908707047F0B501460A2901DA4C2028
:10169000F0BD4C275048008801FB01054C2301F1A7
:1016A0004C042BE004EB030C1FFA8CF000EBD07C15
:1016B0004FEA6C02FF2A06DDFF22FF24E01800EB50
:1016C000D07CCCF34F0202FB02F086B2A5F11400ED
:1016D000B04204D82830864201D81046D8E7D81C3A
:1016E000844206DCE0181FFA80FC0CEBDC70401032
:1016F000CEE7AE4201D2134600E01446D2E770B501
:1017000005460E464C246C433046FFF7BCFFB4FB45
:10171000F0F4A0B270BD10B5304807F081FF30483A
:101720003049086030484860002088600320C86065
:101730000020086180204861800088618000C861C5
:10174000202008620002486200208862234808F0D6
:1017500009F810BD00B587B00121480208F031FF3B
:101760000121880208F02DFF0121084608F01CFF26
:101770001020ADF8000000208DF8030069461B48DA
:1017800008F0B6FB2E20ADF8000000208DF8030015
:101790006946174808F0ACFBFFF7BDFF01220221A4
:1017A0000E4827E096C00008183E00202053554DF3
:1017B000200000002053554D3A00000020504353B4
:1017C0003A00000044454E4F3A0000003F00002020
:1017D000ACC000081E000020CA0000200800024023
:1017E0004C240140480C0020740C002000080140EB
:1017F0000010014007F0EDFF0B208DF818000120CC
:101800008DF819008DF81A008DF81B0006A807F056
:1018100076FCFE4807F0DCFC4FF4C020019001206C
:101820008DF8080000208DF809004FF46020039027
:101830004FF40060049003208DF8140001A9F348D0
:1018400007F0EDFC01231A460F21F04807F07FFD59
:10185000012302220421ED4807F079FD0123032230
:101860000C21EA4807F073FDE94807F0B1FC4FF49A
:10187000C020019001208DF8080000208DF809009B
:101880004FF4602003904FF40060049003208DF823
:10189000140001A9DE4807F0C2FC01231A460B21FF
:1018A000DB4807F054FD012302220D21D84807F040
:1018B0004EFD012303220F21D54807F048FD0121E9
:1018C000D34807F0A0FD0121D04807F0D4FCCF4851
:1018D00007F0F3FC00BFCD4807F0F4FC0028FAD174
:1018E000CA4807F0F9FC00BFC84807F0FAFC002816
:1018F000FAD10121C64807F0BEFCC54807F0DDFC5F
:1019000000BFC34807F0DEFC0028FAD1C04807F04A
:10191000E3FC00BFBE4807F0E4FC0028FAD1012137
:10192000BA4807F0B3FC0121BA4807F046FF02208D
:1019300007F072FF07B000BD10B50121B34807F0F2
:10194000DAFC10BD10B5FFF7F7FF00BF022007F06B
:101950004FFF0028FAD0022007F05EFF10BD70B5DF
:1019600000220221AB4807F034FF0320FEF79BFC66
:101970000020A949087008460078FFF792F8002572
:10198000FCE0FFF7DFFF002412E0A44850F8240039
:10199000C0F30720A24901F81400A04850F8240021
:1019A000000E012101EB44019D4A5054601CC4B259
:1019B000032CEADB9A4840799A49087096480078E7
:1019C000072813D2DFE800F0041322466A8EB20023
:1019D000934840789449087091480079C8719048BC
:1019E000C07888738E48807890490870ADE08C4844
:1019F00040788D4948708A48007908728848C078D4
:101A0000C87387488078894948709EE08448407848
:101A1000854988708248007948728148C078087486
:101A20008348007820B97E4880788249087010E0A9
:101A30007F480078012804D1794880787D49487032
:101A400007E07B480078022803D1754880787949FF
:101A500088707AE0724840787349C870704800799D
:101A600088726F48C07848747148007820B96C4813
:101A700080787049C87010E06D480078012804D162
:101A8000674881786B48017107E06948007802284F
:101A900003D1634881786748417156E060484078D7
:101AA000614908715E480079C8725D48C0788874E1
:101AB0005F48007820B95A4880785E49887110E004
:101AC0005B480078012804D1554881785948C17194
:101AD00007E057480078022803D1514881785548DB
:101AE000017232E04E4840784F4948714C480079C5
:101AF00008734B48C078C8744D48007820B94848EE
:101B000080784C49487210E049480078012804D197
:101B1000434881784748817207E0454800780228A9
:101B200003D13F4881784348C1720EE03C48407879
:101B30003D4988713A48007948733948C07808753A
:101B4000374880783C49087000BF00BF32480078B1
:101B5000401C3149087008460078072190FBF1F2DB
:101B600001FB12002C49087008460078FEF799FF27
:101B70004FF4FA70FEF7A1FB681CC5B2072DFFF603
:101B800000AF01220221234807F023FE70BD7FB57C
:101B900005460021294809F0A9F90121042008F08F
:101BA0001DFD25B1012D05D0022D09D105E04FF411
:101BB000E17406E04FF4C87403E04FF4B47400E03D
:101BC00000BF00BFB320ADF8000040F28F10ADF8A9
:101BD00004000020ADF80600ADF802006946174881
:101BE00008F028FE01221146144809F09AF91E2037
:101BF0008DF80C0000208DF80D0001208DF80E00EE
:101C00008DF80F0003A807F07AFA19E000240140CC
:101C1000002801400800024024000020740C00202D
:101C20002800002031000020800C00202E00002021
:101C300023000020950C0020300000200008004008
:101C40000121814809F052F97FBD10B57F48007825
:101C5000401C7E490870084600780521B0FBF1F26F
:101C600001FB12007949087079480978405C38B95D
:101C70002021784808F0EBF900207749087006E049
:101C80002021744808F0E1F901207349087010BD63
:101C900010B50446206871490840B0F1005F0CD1CE
:101CA00060686F490860084600686E4908602068EF
:101CB000FEF7CDFA6B480068804710BD704700BF43
:101CC000FEE700BFFEE700BFFEE700BFFEE770478C
:101CD0007047704764480088002804DD6248008827
:101CE000401E6149088061480088401C5F490880A7
:101CF00008460088B0F57A7F07DB01205C49087050
:101D00005C4908700020594908805B480078002829
:101D10000DDD59480078401E574908700846007884
:101D200028B901205549087014205349087070479C
:101D300010B52021524809F061FD50B1504809F01A
:101D4000F3FCC4B22046FEF7FDFB01204D490870AC
:101D500016E080214A4809F051FD88B14A480088C0
:101D6000002807DDFEF73CFC04462146444809F004
:101D7000D7FC05E0002240F22771414809F06FFCD2
:101D800010BD10B50121304809F06DFB18B10121DB
:101D90002D4809F071FB10BD10B50121880709F02D
:101DA00062FB002841D00121880709F065FB374814
:101DB000007800280ADD35480078401E3349087055
:101DC0000846007810B901202E4908703048007884
:101DD00000282ADD2F480078401C2E49087008464C
:101DE00000782D490978884204DA4021194808F022
:101DF0002CF91AE027480178274800780C308142F6
:101E000004DA4021134808F022F90EE000202149AD
:101E100008701F480078401E1D4908700846007869
:101E200018B940210B4808F012F910BD70477047EF
:101E300010B50221194807F0CFFB18B1022117484D
:101E400007F0D3FB10BD000000080040CC000020CC
:101E5000BCC0000800080140220000200000FE2F46
:101E6000D4000020D0000020C6000020D8000020B0
:101E70006A0000206B000020B4000020B2000020A7
:101E800000380140E400002004000020E5000020AC
:101E90007600002078000020770000200024014018
:101EA00010B504466248047024B1012C03D0022C02
:101EB00009D101E000BF00BFFF205E490870F0209B
:101EC0005D4908700BE00020594908705B48007CB0
:101ED000584908705948007D5749087000BF00BF35
:101EE00053480078FFF753FE10BD5548007830B1D5
:101EF00000205349087053490880091D0880704725
:101F000000B589B003208DF822000120ADF8200033
:101F100018208DF8230008A94B4807F0E9FF02209C
:101F2000ADF8200018208DF8230008A9464807F0D6
:101F3000DFFF0121022008F051FB1720ADF814004B
:101F4000FE20ADF818000020ADF81A00ADF816001C
:101F500005A93C483C3808F06DFC6020ADF8040051
:101F60000120ADF806000020ADF80800ADF80A0029
:101F7000ADF80C0001A933483C3808F027FD0821D2
:101F800030483C3809F0F8F86020ADF80400012032
:101F9000ADF806000020ADF80800ADF80A00ADF875
:101FA0000C0001A927483C3808F05BFD08212548B2
:101FB0003C3809F0EAF8012122483C3808F096FF45
:101FC000FFF793FF01211F483C3808F09BFF1B4996
:101FD00091F8E100FFF764FF09B000BD0220184945
:101FE000087000201749091D088012480078091F51
:101FF000088070470320124908700F480078114983
:10200000091D08800020091F0880704710B5FFF7E0
:102010006CFF0120FEF747F910BD0648007809491A
:1020200008807047044800780649091D08807047F9
:10203000DD000020E2000020E3000020E40A002090
:10204000DC0000203C040040000C014000B587B0DB
:102050004FF48060ADF8180004208DF81B000120BB
:102060008DF81A0006A95B4807F042FF4FF4007094
:10207000ADF8180018208DF81B0006A9554807F088
:1020800037FF4FF4E13002900020ADF80C00ADF8BE
:102090000E00ADF81000ADF814000C20ADF81200E1
:1020A00002A94D4809F043FA4FF4A06007F022F866
:1020B00025208DF8040001208DF8050002208DF800
:1020C000060001208DF8070001A807F018F801228A
:1020D00040F22551404809F0C2FA002240F227712F
:1020E0003D4809F0BCFA01213B4809F0ACFA002058
:1020F0003A4908703A49087007B000BD70B5044607
:102100000D4606E0FEF787FA691D884200DD01E012
:102110000026F7E700BF002240F227712E4809F0A1
:102120009EFA03E02078FEF741FA641C2800A5F12E
:1021300001018DB2F6D1012240F22771264809F043
:102140008EFA70BD70B504460D4606E0FEF714FB2E
:10215000691D884200DD01E00026F7E700BF00228C
:1021600040F227711F4809F07AFA03E02088FEF751
:10217000A2FAA41C2800A5F101018DB2F6D101221A
:1021800040F22771174809F06AFA70BD70B504462D
:102190000D4606E0FEF761FB691D884200DD01E0A7
:1021A0000026F7E700BF002240F227710E4809F031
:1021B00056FA03E02078FEF71EFB641C2800A5F108
:1021C00001018DB2F6D1012240F22771064809F0D3
:1021D00046FA70BD0008014000380140E4000020CC
:1021E000E5000020004400400048004010B50146D2
:1021F0000B46012000220CE00A24B3FBF4F42CB1BE
:102200000A24B3FBF4F3441CE0B200E003E0541CE6
:10221000E2B20A2AF0DB00BF10BD704770B5044679
:10222000224668A16D4809F0A1FC6C4809F04CFDFC
:1022300085B229466948FFF761FF70BD684908709B
:1022400070476849088070476749088070472DE9E2
:10225000FF4105460E461746284609F035FD84B273
:10226000B4F5957F01D3BDE8FF8122205F49087056
:10227000224629465D48401C09F045FD22215B4A63
:10228000601C11540021A01C115455480078554978
:102290000988554B1B88CDE90031CDE902023B4648
:1022A000324653A14D4809F061FC4C4809F00CFD41
:1022B00084B221464948FFF721FF00BFD3E72DE94B
:1022C000F04186B004460D4616462046FFF78EFFC5
:1022D00080464348007843490988CDE90248019186
:1022E00004904148008833462A464AA100903B4862
:1022F00009F03CFC394809F0E7FC87B23946374819
:10230000FFF7FCFE06B0BDE8F0812DE9F04F85B087
:1023100004460D4616461F46DDE90F9ADDF8388063
:10232000E819401E01A9A1E80107A019401E2B468B
:10233000224642A10090294809F018FC274809F0DC
:10234000C3FC1FFA80FB59462448FFF7D7FE05B0AF
:10235000BDE8F08F7047704770477047704770470F
:1023600070472DE9FE4304460D4616461F46DDF82C
:102370002880E819411EA019401E2B4622468DE8F0
:10238000030139A1154809F0F1FB144809F09CFC40
:102390001FFA80F949461148FFF7B0FEBDE8FE83F9
:1023A00010B5029C10BD10B5029C10BD704770475F
:1023B0007047704730B5DDE9034530BD10B5029C6C
:1023C00010BD0000766F6964204C43445F436C6528
:1023D0006172282564290D0A00000000903E00204B
:1023E000F6000020FA000020F8000020BC3F00208A
:1023F000766F6964204C43444C535F5374722825B4
:10240000642C25642C25642C25642C25642C2573D0
:10241000290D0A00766F6964204C43444C535F4E8B
:10242000756D2825642C25642C25642C25642C25A9
:10243000642C25642C2564290D0A0000766F6964DC
:10244000204C43444C535F4672616D652825642CD3
:1024500025642C25642C25642C25642C25642C25CE
:1024600064290D0A00000000766F6964204C434423
:102470005F46696C6C2825642C25642C25642C250A
:10248000642C2564290D0A0008B5002007F080FFA0
:102490000121080308F088F83D483E4B3E4A0121DF
:1024A00000903E4800F03AFD08BDF8B504460D46E0
:1024B0001646122231463A4805F012F9074667B926
:1024C0003748C16805F0D4FC6B462A46214634489B
:1024D00005F09DFA324805F0E7FB3846F8BD10B527
:1024E0003048007818B12D4802F0A4FC20B92A49E0
:1024F0002A4800F045FF08E02A480078032804D164
:1025000029A20A212AA0FFF7D0FF10BD70B504460A
:1025100008222146224805F0E3F8054615B920486F
:1025200005F0C2FB284670BD70B504460D4610226A
:1025300021461B4805F0D4F806462EB91848C06855
:102540002860174805F0B0FB304670BD2DE9F84310
:102550000446884615461E4611222146104805F0BD
:10256000BFF8074667B929460D4805F081FC6B4660
:10257000324641460A4805F067F9094805F094FBE0
:102580003846BDE8F88310B5044803F068FB10BD79
:102590005801002038010020E8420020C8490020EE
:1025A000A8510020550100204A42592E7478740029
:1025B0005465737420556469736B000010B50B7813
:1025C00003704B7843708C78CB7804EB0323438003
:1025D0000B7903714B7943718B798371CB79C3711B
:1025E000082A16DD0C7A4B7A04EB032303818C7ADC
:1025F000CB7A04EB032343810C7B4B7B04EB03235B
:1026000083818B7B8373CB7BC3730B7C03744B7C89
:10261000437410BD2DE9F04780460C4616461D4612
:10262000DDE9089746F08001217506216175E58294
:1026300005F47F40B0F5407F03D140F2094121838A
:1026400001E00021218367833B464A4621464046FC
:1026500000F0ACF9BDE8F0872DE9FC4104460D46D9
:10266000164604F588704FF4807300222946CDE9A0
:1026700000062046FFF7CEFF070006D1324604F5DC
:10268000887105F12200FFF799FF3846BDE8FC810B
:102690000A7802704A7842708A788270CA78C2706A
:1026A0000B794A7903EB022282808A798271704722
:1026B0000A7802704A7842708A788270CA78C2704A
:1026C0000A7902714A7942718A798271CA79C27132
:1026D0000A7A0272704710B502460B8814782344B8
:1026E0000B801378981810BD2DE9F04F85B0064681
:1026F000894692461D462C460027B84600BF2878DA
:10270000307068787070A978E87801EB00207080EC
:102710002879307168797071A879B071E879F071B1
:10272000287A30720E98092864DD092000903079EB
:1027300002285ADCBB4653E069462046FFF7CBFF30
:102740000446607804284BD1A07847B207EBC70055
:1027500000EB090BE078032842DA214602A8FFF7D4
:10276000A7FF4FF000089DF80C00022838DC32E08B
:1027700069462046FFF7AFFF0446607805282AD156
:102780000AEB071000EBC80001907F480078B842C0
:1027900006D07D490F7002A95846FFF789FF0CE06B
:1027A0002179607901EB002078490988884200DAB4
:1027B00015E002A95846FFF77BFF21460198FFF775
:1027C00067FF2179607901EB00207049088008F1EA
:1027D00001004FFA80F89DF80C004045C8DC00BFAE
:1027E0007088BDF800108842A6DC00206749088088
:1027F0006549087005B0BDE8F08F2DE9FC4104463D
:102800000D461646002704F588704FF40073002229
:102810002946CDE900062046FFF7FCFE5FEA0008E6
:1028200014D106E004F58870C05D5949C855781C7C
:1028300087B2B742F6DB04F5887305F1500205F163
:102840003E0105F134000096FFF74EFF4046BDE81B
:10285000FC8130B513464578032D14D10578AD1EA3
:102860009D4202DC0578AD1E00E01D46ACB2801C26
:10287000002204E0855C0D70491C951CAAB2A2429E
:10288000F8DB00250D7030BD2DE9FC470446884675
:1028900015461E460A9F04F5887045F440730022D1
:1028A0004146CDE900072046FFF7B4FE5FEA000984
:1028B00005D13A46314604F58870FFF7CAFF48460D
:1028C000BDE8FC8770B506460C461546002121750B
:1028D00005216175E58200212183618300231A4669
:1028E0002146304600F062F870BD70B506460C46D1
:1028F00015460021217509216175E582002121839A
:10290000618300231A462146304600F04FF870BD1F
:102910002DE9F04107460C4615461E46012121755A
:102920000B216175E68225830021618300231A460D
:102930002146384600F03AF8BDE8F0812DE9F04133
:1029400005460C4616461F46022121750121617578
:102950000021E1822683618306F08000802805D172
:1029600005F56B7000EB4710017605E0002105F5D9
:102970006B7000EB4710417600231A46214628462B
:1029800000F014F8BDE8F08100010020FE000020F6
:10299000E840002010B503461878587007201870DA
:1029A00099609A8101241C77002010BD2DE9F04127
:1029B00080460C4615461E460127E078012802D0C5
:1029C000022820D108E0324629462046FFF7E2FFE0
:1029D0000220E070012717E0207F0D2805D101209B
:1029E000E0700021217700270CE0207F0B2803D125
:1029F0000120E070022705E0207F0C2802D1012091
:102A0000E070032700E000BF00BF3846BDE8F0815A
:102A100070B505460E461446002105F56B7000EBB7
:102A200044108170032105F56B7000EB44100172B6
:102A300005F56B7000EB4410C660082105F56B705E
:102A400000EB441001612146284602F014FAC0B29E
:102A500070BD2DE9F04105460F4616461C46002183
:102A600005F56B7000EB4410817005F56B7000EBA1
:102A70004410C76005F56B7000EB441006612EB979
:102A8000012105F56B7000EB4410417605F56B7084
:102A900000EB4410407E30B9002105F56B7000EB6F
:102AA0004410017205E0022105F56B7000EB441043
:102AB00001722146284602F0DEF90020BDE8F081CF
:102AC0002DE9F04105460E4617461C46012105F545
:102AD0006B7000EB44108170022105F56B7000EB08
:102AE0004410017205F56B7000EB4410C66005F5EB
:102AF0006B7000EB441007612146284602F0BBF9D9
:102B00000020BDE8F0812DE9F04105460E4617464C
:102B10001C46002105F56B7000EB4410817005F533
:102B20006B7000EB4410C66005F56B7000EB441051
:102B3000076105F56B7000EB4410407E28B905F580
:102B40006B7000EB4410017205E0022105F56B701B
:102B500000EB441001722146284602F08CF9002057
:102B6000BDE8F0812DE9F04105460E4617461C46AA
:102B7000012105F56B7000EB4410817005F56B7059
:102B800000EB4410C66005F56B7000EB4410076164
:102B900005F56B7000EB4410007E30B9002105F59F
:102BA0006B7000EB4410017205E0022105F56B70BB
:102BB00000EB441001722146284602F05CF9002027
:102BC000BDE8F0812DE9F04105460E4617461C464A
:102BD000012105F56B7000EB4410817005F56B70F9
:102BE00000EB4410C66005F56B7000EB4410076104
:102BF00005F56B7000EB4410007E30B9002105F53F
:102C00006B7000EB4410017205E0022105F56B705A
:102C100000EB4410017205F56B7000EB4410007E70
:102C200080F0010105F56B7000EB44100176214640
:102C3000284602F020F90020BDE8F0812DE9F0419E
:102C400005460E4617461C46002105F56B7000EB45
:102C50004410817005F56B7000EB4410C66005F5FB
:102C60006B7000EB4410076105F56B7000EB4410CE
:102C7000007E28B905F56B7000EB4410017205E089
:102C8000022105F56B7000EB4410017205F56B70C5
:102C900000EB4410007E80F0010105F56B7000EB45
:102CA000441001762146284602F0E5F80020BDE8F0
:102CB000F0812DE9F04105460E4617461C460121DC
:102CC00005F56B7000EB4410817005F56B7000EB3F
:102CD0004410C66005F56B7000EB441007610021DD
:102CE00005F56B7000EB441001722146284602F096
:102CF000C2F80020BDE8F0812DE9F04105460E46FE
:102D000017461C46002105F56B7000EB44108170DE
:102D100005F56B7000EB4410C66005F56B7000EBB9
:102D20004410076105F56B7000EB441001722146F9
:102D3000284602F0A0F80020BDE8F0812DE9F04718
:102D400004460D4617461E46DDE9088904F28C50FC
:102D500010F8150000F07F0104F56B7000EB4510D2
:102D6000417004F28C5010F81500C0F3C01104F546
:102D70006B7000EB4510817004F56B7000EB451033
:102D8000077004F56B7000EB451080F8058004F5C2
:102D90006B7000EB4510A0F8069004F56B7000EB2B
:102DA0004510C670002104F56B7000EB45100176EC
:102DB00004F56B7000EB451041762EB9012104F546
:102DC0006B7000EB451001712946204601F03CFD77
:102DD0000020BDE8F0872DE9F04704460D46174670
:102DE0001E46DDE9089827B104F56B7000EB45102D
:102DF000077004F56B7000EB4510C088404508D0A3
:102E0000B8F1000F05D004F56B7000EB4510A0F889
:102E1000068004F56B7000EB4510C078B04205D019
:102E200026B104F56B7000EB4510C67029462046AC
:102E300001F00AFD0020BDE8F0870246002100BF36
:102E40000AE002F28C5030F8110000F4004008B99A
:102E500008467047481CC1B20829F2DB4FF6FF70E4
:102E6000F7E770B505460E462846FFF7E6FF04462D
:102E70004FF6FF70844205D046F4004105F28C50B5
:102E800020F81410E0B270BD0246082909DA02F2F7
:102E90008C5030F81100C0F30E0302F28C5020F871
:102EA0001130002070470246022106E0002302F2A2
:102EB0008C5020F81130481CC1B20829F6DB0020E4
:102EC0007047000001460122C1F81023002070471E
:102ED00001460022C1F8102300207047014600205F
:102EE000704770B505460C46002020706070A070D9
:102EF0000120E070012121774021A171002084F898
:102F0000200001212120015521792846FFF7BCFF2F
:102F100061792846FFF7B8FF002070BD2DE9F04128
:102F200006460F4614461D46DDF81880304602F06E
:102F300019FF21463046FFF7D4FFE567C4F88080CB
:102F40003946304601F035FFD4F8801008688047D4
:102F5000304602F00CFFBDE8F0812DE9F041064655
:102F60000C464FF0000800250021A174207F0C289A
:102F700076D2DFE800F0FD060F3D466576919AC0F7
:102F8000D7ED627904F114013046FFF741FD0221CB
:102F90002177EEE06179304601F055FF0546012DBD
:102FA0001FD1207D00F08007608B58B141F288303E
:102FB000FD490880802F02D1032121770CE00521F3
:102FC000217709E03220F8490880802F02D10921B9
:102FD000217701E007212177304601F02FFF208281
:102FE00005E0032D03D10B2121770521A174C0E059
:102FF0002379A2893046A168FFF762FD0421217779
:10300000B7E02179304601F01EFF0546012D01D1C0
:1030100009212177042D02D1607820700FE0032D63
:1030200002D10B2121770AE0304601F007FF218A07
:10303000401ADD490988884201D90B21217798E09F
:103040000121627906F56B7000EB421041766379DD
:10305000A2893046A168FFF7FCFC0621217788E0B1
:1030600086E06179304601F0EEFE0546012D02D181
:10307000072121770FE0042D04D1607820700C2106
:10308000217708E0022D02D10521217703E0032DED
:1030900001D10B2121776CE02379002211463046C3
:1030A000FFF70EFD0821217763E02179304601F01A
:1030B000CAFE0546012D04D1607820700D212177CC
:1030C00018E0032D02D10B21217713E0304601F0E7
:1030D000B5FE218A401AB4490988884202D90B21D9
:1030E000217707E0042D05D1607820700421A174B8
:1030F0004FF003083DE0617906F56B7000EB41107D
:10310000407E80F00101627906F56B7000EB4210A1
:1031100041766379002211463046FFF79AFC0A2176
:10312000217726E06179304601F08DFE0546012DBC
:1031300004D1607820700D21217708E0022D02D1A2
:103140000921217703E0032D01D10B21217710E024
:10315000A07B401CC1B2A173022902DC01212177AE
:1031600005E00821A174607820704FF0020800E0AB
:1031700000BF00BF4046BDE8F08170B504460D4673
:10318000052D01D0042D06D1D4F88010486C80475D
:103190000A20207007E0062D05D10A202070D4F8FF
:1031A00080100868804770BD70B592B005460C4627
:1031B0000126A0780A287AD2DFE800F00528375DDA
:1031C000667A97B4D1DB082221462846FFF744FAF5
:1031D000D8B994F82910A171284601F024FE0120E5
:1031E000A070A0790021CDE90010617900231A4672
:1031F0002846FFF7F0FDA0790021CDE900102179E4
:1032000000231A462846FFF7E6FDB5E012222146C4
:103210002846FFF721FA38B9D4F88000C16904F1D3
:10322000220088470220A070A6E0012221462846FD
:10323000FFF748FBF0B9022002F0F3FD0120A41CC7
:10324000A077D4F87E10086A804703202070002001
:1032500000900190A27FA17803462846FFF7BBFDAE
:10326000002000900190A27FA41E617903462846A9
:10327000FFF7B1FD80E0092221462846FFF7BDFA9D
:1032800008B90420A07077E0E28E21462846FFF7B7
:10329000B4FA58B9D4F8800004F1500204F13E01A8
:1032A000436A04F1340098470520A07064E062E0AE
:1032B00094F8300088B1FF20009094F8302002ABE1
:1032C00021462846FFF7E0FA70B9D4F88000816AF9
:1032D00002A888470620A07006E0D4F88000816A22
:1032E00032A088470620A07046E094F8310088B1EB
:1032F000FF20009094F8312002AB21462846FFF7CA
:10330000C3FA70B9D4F88000C16A02A888470720C0
:10331000A07006E0D4F88000C16A24A08847072086
:10332000A07029E094F8320088B1FF20009094F852
:10333000322002AB21462846FFF7A6FA70B9D4F82E
:103340008000016B02A888470820A07006E0D4F82E
:103350008000016B15A088470820A0700CE094F84D
:10336000392021462846FFF7C0FA08B90920A07085
:1033700002E0002600E000BF00BF304612B070BD82
:103380003EB505460C4602200290284601F052FD4B
:1033900030B9207820B12078022801D00220207096
:1033A00020780B287AD203E0140100204E2F410030
:1033B000DFE800F006109CB14D687B87598C8D00CA
:1033C000284601F037FD20B101202070642002F072
:1033D00028FDA1E0D4F880108868804700212846A5
:1033E000FFF73FFD607180212846FFF73AFD20710D
:1033F000284601F018FD48BBD4F88010C868804703
:10340000284601F006FDC1B221200155042020709C
:103410002122105DD4F8802091698847A07900218D
:10342000CDE900102120035D94F820202179284661
:10343000FFF784FCA0790021CDE900102120035D75
:1034400094F8202061792846FFF778FC64E0214653
:103450002846FFF7A9FE28B9D4F88010486B8047AA
:103460000820207058E0D4F88010886B804701282D
:1034700007D1E06F214602682846904708B9052029
:10348000207049E0E06F214682682846904702900C
:103490009DF8080018B90620207005E03BE09DF873
:1034A00008102046FFF769FE36E0E06F2146C2684B
:1034B0002846904702909DF808102046FFF75DFED1
:1034C0002AE021462846FFF748FD25E024E0214672
:1034D0002846FFF706FDE06F04F120014268284608
:1034E0009047D4F880104868804715E0D4F88010E1
:1034F0000869804721462846FFF7F3FCD4F880107E
:1035000048688047E06F04F12001426828469047F0
:103510000020207000E000BF00BF3EBD10B5044693
:10352000204601F087FC48B1F848F9490860F9489D
:103530004860002048730120F749C8700020F7490F
:103540000860F749087010BD2DE9F04105460E46A8
:103550001446012714B1012C12D108E0F148037878
:10356000C27831462846FFF7E9F9074609E0ED48F9
:103570004378827831462846FFF7E0F9074600E0B5
:1035800000BF00BFE5480068401CE44908600846E9
:103590000068042800D904273846BDE8F0812DE9E9
:1035A000F04105460F4600260124284601F042FC62
:1035B00020B3DC480178284601F04AFC06460D2E6F
:1035C00001D002241CE0D8480068D849884216D1AE
:1035D000D5484068CE494968884211D1D248007B1D
:1035E00008B900240CE0D048007B012801D1012457
:1035F00006E0CD48007B022802D1022400E002242C
:10360000C548C4732046BDE8F0812DE9F0478046E7
:1036100089460024404601F00DFC00287ED0BE48BB
:10362000007909287BD2DFE800F07A051251A3FE69
:10363000FDFCFB00BB4843781F22B5494046FFF71D
:1036400062FA0120B4494871022008718BE1B54843
:103650004178404601F0F7FB0446012C26D10020BA
:10366000AE4908600220AC494871A948007B00F0CF
:103670008007A7488068A8B1A5488068AC49086061
:10368000A5488068AB49086008460068AA490860F8
:10369000802F03D10320A049087116E004209E4921
:1036A000087112E005209C4908710EE0022C04D13B
:1036B000994840799849087107E0042C05D1012008
:1036C0009E4908700820944908714CE1954801789A
:1036D000404601F0B8FB0446012C03D08E484079E7
:1036E00003283AD000208D49086003208A49487198
:1036F0008C4880888E490968884219D289480378A5
:1037000082888C4801684046FFF72CFA85488088FB
:1037100087490968081A8649086001E024E121E127
:1037200080488088834909680844824908601EE00F
:103730007F48006818B905207749087117E0794873
:1037400003787B48008882B27A4801684046FFF7D8
:1037500009FA00207649086009E0042C07D100200E
:103760007649087007206C49087105204871FAE015
:103770006C484178404601F066FB0446012C3BD181
:103780000020664908600420634948716548C08884
:103790006749096888421AD262484378C2886548F6
:1037A00001684046FFF7AFF9624800686249086067
:1037B0005C48C0885F49096808445E490860594808
:1037C000C0885B490968081A5949086042E05848AE
:1037D000006818B90520504908713BE0514843780A
:1037E0005348008882B2534801684046FFF78BF97E
:1037F00000204F4908602DE0022C21D14D4800687F
:103800004D490968884212D046484378C288C0882A
:10381000DFF820C1DCF800C0ACEB0001404603E05B
:103820008EE058E036E016E0FFF76DF912E03D4813
:103830004378C2883F4801684046FFF764F909E0D1
:10384000042C07D101203D49087008203249087135
:103850000520487187E005202F494871324888606B
:103860003F2088810D2604E000202F498855701ED6
:10387000C6B2002EF8D100202B49087029480378E1
:1038800025483F2281684046FFF76CF9062022490F
:10389000087168E023480178404601F0D4FA0446F4
:1038A000012C0FD100201D49086005201A494871DC
:1038B00008468078087049464046FFF770FE164972
:1038C000C87307E0042C05D100201C4908700720AC
:1038D0001149087147E0002249464046FFF734FE8F
:1038E000054665B915480078022803D108200A4921
:1038F000087109E0084840790749087104E0042D7F
:1039000002D102200449C8732DE000005553424300
:103910006C430020504030209C43002018010020C0
:1039200034010020AC4300208C4300205553425307
:103930001C0100202001002024010020280100207B
:10394000012249464046FFF7FFFD054625B90748D5
:1039500040790649087104E0042D02D10220034990
:10396000C87300E000BF00BFBDE8F0879C430020A3
:103970007CB506460D462C4694F84300082856D1DF
:1039800094F84500502852D194F8520000F080007D
:1039900038B194F85200BB49C870B4F8540088801C
:1039A00006E094F85200B7498870B4F85400C88013
:1039B00094F85A0000F0800038B194F85A00B149E8
:1039C000C870B4F85C00888006E094F85A00AD49ED
:1039D0008870B4F85C00C880AA4881783046FFF748
:1039E00040FAA84948700846C1783046FFF739FACE
:1039F000A44908700846C0880221CDE900102120A2
:103A0000035D94F820209F4841783046FFF796F9EF
:103A10009C4880880221CDE900102120035D94F8A4
:103A20002020984801783046FFF788F903E0D4F861
:103A30008010086C804700207CBD70B504460D46A0
:103A40009048407838B18F484178204601F013F90A
:103A500000208C4948708B48007860B18948017813
:103A6000204601F008F9874801782046FFF70CFA54
:103A700000208449087070BD10B502460020002364
:103A8000814C237010BD012812D180490978491C4E
:103A90007E4A1170114609780A2905DA06217A4A08
:103AA00011700121D1700AE00A21774A117006E0F5
:103AB000022803D10A21744A117000E000BF704748
:103AC0000246A1230B75FE234B750023CB820B838B
:103AD00001234B8300207047024621230B75FF23EF
:103AE0004B750023CB820B834B83002070472DE95D
:103AF000F04781460F463E46012403254FF000085B
:103B0000484601F097F9002878D05F4800780B28E4
:103B100075D2DFE800F0060D1E5566798A999E443D
:103B2000B0004846FFF7FAFC012057490870A5E0AD
:103B300039464846FFF7D0FF044614B902205249DF
:103B40000870032C04D102204F49487009200870E6
:103B500094E039464846FFF7B3FF0446BCB94948EC
:103B6000007A484981F80802084690F808020028BF
:103B70000ADD4748007838B9012045490870D6F871
:103B80008010086C804779E003203F490870032CBF
:103B900004D103203C494870092008706EE0737915
:103BA000002239464846FEF7C9FE04463CB90020CB
:103BB000344981F8080234484078334908705DE0A0
:103BC000484600F067F805463DB904202E490870C4
:103BD00000202E490870002402E02846FFF753FF1A
:103BE0004CE0484600F0A7F805464DB905202649A7
:103BF0000870002025490870002404E03FE03CE004
:103C00002846FFF740FF39E0484600F0F9F805463E
:103C10003DB908201C49087000201C490870002488
:103C200002E02846FFF72FFF28E0484600F048F959
:103C300005462DB91448407813490870002402E065
:103C40002846FFF720FF19E039464846FFF7DDFC1C
:103C500014E0D6F88010C86B804700F0FF08B8F178
:103C6000000F03D108200849087003E0B8F1010FE4
:103C700000D1062402E0042400E000BF00BF20467B
:103C8000BDE8F087AC4300209C43002034010020B5
:103C90004801002070B505460326284601F0CAF801
:103CA000002846D0FB48C078012802D002283ED127
:103CB00024E00020F8498860087306208873F748DC
:103CC000F44988603F20888103208870102405E033
:103CD0000021F1480F300155601EC4B2002CF7D10D
:103CE0000020ED49C8730120EA49087107200870D7
:103CF0000320C8730220C870032619E0E548C07B82
:103D000020B90120E349C87000260FE0E148C07BDC
:103D1000012803D1DF49C870012607E0DD48C07BD8
:103D2000022803D10120DB49C870022600E000BF51
:103D300000BF304670BD70B505460326284601F029
:103D400079F800285AD0D348C078012802D0022838
:103D500052D123E00820D0498860802008730A20CF
:103D60008873CF48CB49886004208870102405E010
:103D70000021C9480F300155601EC4B2002CF7D194
:103D80002520C549C8730120C24908710720087061
:103D90000320C8730220C87003262EE0BD48C07BF4
:103DA000C8B9BF480078BF49C870BD48407888701E
:103DB000BB4880784870BA48C0780870B8488179A4
:103DC000B8484172B648C079B64908720120B14975
:103DD000C87000260FE0AF48C07B012803D1AD4971
:103DE000C870012607E0AB48C07B022803D1012040
:103DF000A849C870022600E000BF00BF304670BD71
:103E000070B505460326284601F014F8002855D061
:103E1000A048C078012802D002284DD127E03F20D9
:103E20009D498860802008730A2088739C489949BE
:103E3000886005208870102405E0002196480F3026
:103E40000155601EC4B2002CF7D11A209249C873E4
:103E50003F2191484174C17401208E4908710720A7
:103E600008700320C8730220C870032625E0894823
:103E7000C07B80B98A48807800F0800018B10120AA
:103E80008849087302E000208649087301208149AF
:103E9000C87000260FE07F48C07B012803D17D4910
:103EA000C870012607E07B48C07B022803D10120AF
:103EB0007849C870022600E000BF00BF304670BDE0
:103EC00070B505460326284600F0B4FF00285DD0F3
:103ED0007048C078012802D0022855D12BE03F203D
:103EE0006D498860802008730A2088736C4869498E
:103EF000886008468078487006208870102405E0A5
:103F0000002165480F300155601EC4B2002CF7D166
:103F100003206149C87300215F4801743F21C174C7
:103F200001205C490871072008700320C873022033
:103F3000C870032629E05748C07BA0B958480178CB
:103F40005848C17156484178564881715448817823
:103F5000544841715248C0785249087101204D4976
:103F6000C87000260FE04B48C07B012803D14949A7
:103F7000C870012607E04748C07B022803D1012012
:103F80004449C870022600E000BF00BF304670BD43
:103F90002DE9FF4182B007460E461D464FF003084B
:103FA000384600F047FF00285BD03A48C078012827
:103FB00002D0022853D138E03748856000203649C6
:103FC00008730A20887333488660102405E00021B6
:103FD00031480F300155601EC4B2002CF7D12A20A1
:103FE0002D49C8739DF813102B4841749DF8121089
:103FF00081749DF81110C1749DF810100175C5F3FE
:104000004F2001909DF80510234881759DF80410FC
:10401000C17501201F490871072008700320C8736B
:104020000220C8704FF003081AE01A48C07B28B974
:1040300001201849C8704FF000080FE01548C07BF8
:10404000012802D11349C87008E01248C07B022839
:1040500004D101200F49C8704FF0020800E000BFF2
:1040600000BF404606B0BDE8F081FFB581B007460D
:104070000E461D4603200C490870384600F0DAFE53
:10408000002876D00348C07801280FD002286ED1CE
:1040900046E000009C4300206C4300208C4300203D
:1040A000C8450020B84500204901002033488560FC
:1040B0008020324908730A208873314886601024B2
:1040C00005E000212D480F300155601EC4B2002CC0
:1040D000F7D128202949C8739DF80F10274841744B
:1040E0009DF80E1081749DF80D10C1749DF80C1090
:1040F0000175C5F34F2000909DF801101F48817590
:104100009DF80010C17501201D4908710720087035
:104110000320C8730220C87003201A49087027E0E2
:104120001748C07B50B9384600F084FE30B10120FA
:104130001349C87000201349087015E01048C07B6F
:10414000012807D1384600F075FE18B101200C494E
:10415000C87009E00A48C07B022805D1012008493F
:10416000C87002200749087002E002E0FFE700BFC4
:1041700000BF0448007805B0F0BD00006C4300208B
:104180009C4300204901002008B500210091491EF0
:10419000C26851606FF08041C2685161009921F09E
:1041A000004101F100410091009921F4006101F505
:1041B000006100910099C268916108BDF8B504469C
:1041C000002600250020009000BF032001F030FEF3
:1041D000E06800690090681C0546F749884201D9EB
:1041E0000020F8BD0098C00F0028EED000250098F0
:1041F00020F00100401C00900098E168086100BFB9
:10420000E06800690090681C0546EB49884200D9C7
:1042100004E0009800F001000028F1D100BF032065
:1042200001F006FE3046DCE72DE9F04104460026A9
:10423000E078B0B900270020DD1C4FEAE57805EBF7
:1042400098784FEAA80704F1D00555F822C000BFBE
:1042500004E00D68CCF80050401C091DB842F8D3AA
:1042600000BF3046BDE8F081F0B503460024D01C05
:10427000C71700EB9777BD10D3F8D06000BF03E0FD
:1042800030680860641C091DAC42F9D30846F0BDD3
:1042900070B502460C46002300200025D57001258C
:1042A000957040259580012C0CD14FF0A04301253D
:1042B000D57208251570042555709D15D5800225E9
:1042C00015720AE04CB9BD4B0025D5720C2515704E
:1042D000062555704FF4A065D580D36003F50065C1
:1042E0001561002110E003F5106505EB411602F1A0
:1042F000180545F8216003F5306505EB411602F11C
:10430000540545F82160491C55788D42EBD803F5DA
:10431000806555614035C2F8CC50002108E003F5B6
:10432000A06505EB411602F1900545F82160491C96
:1043300015788D42F3D8002108E003F5805505EB90
:10434000013602F1D00545F82160491C15788D42EF
:10435000F3D803F56065C2F80C5170BD3EB5044654
:1043600000250020029001900090207A01283DD184
:10437000E068806B0190019820F480300190607AB1
:1043800028B1019820F4801000F580100190019868
:10439000E168886300200290E068C068029002989B
:1043A00020F040000290029820F4800002900298D1
:1043B00020F400300290029820F40020029002982D
:1043C000E168C8602046FFF7F9FEE078012843D194
:1043D000009820F01E000A300090009820F0200085
:1043E000203000900098E168886035E0E068C0689F
:1043F0000290029820F04000403002900298E1685C
:10440000C8602046FFF7DAFE00200190019820F4F2
:10441000803000F580300190019820F4802000F574
:1044200080200190019820F4002000F500200190E8
:10443000019820F4001000F500100190607A28B176
:10444000019820F4801000F5801001900198E16837
:104450008863142001F0E5FCE07801280FD1E068C2
:1044600080680090009820F01E000A3000900098AC
:1044700020F02000203000900098E16888602846F5
:104480003EBD08B50146002000220092009A22F0AD
:104490000102521C0092CA689268009B1A43CB68C2
:1044A0009A6008BD08B50146002000220092009ADB
:1044B00022F00102521C0092CA689268009B9A4343
:1044C000CB689A6008BDF8B504460D460026002763
:1044D00000200090009820F02000203000900098EC
:1044E00065F38A1000900098E168086100BFE068F9
:1044F00000690090781C07462F49884200D904E0E3
:104500000098C0F340100028F1D100BF032001F053
:104510008FFC3046F8BDF8B5044600250026002083
:104520000090009820F01000103000900098E16892
:10453000086100BFE06800690090701C06461E49D3
:10454000884200D904E00098C0F300100028F1D19F
:1045500000BF032001F06CFC2846F8BDF8B5044606
:104560000D460026E068C0680090009820F00050DA
:104570000090009820F080400090012D06D1009816
:1045800020F0005000F10050009006E02DB9009896
:1045900020F0804000F1804000900098E168C86001
:1045A000322001F03EFC3046F8BD0146C868406943
:1045B00000F0010070470000400D030000000440BF
:1045C00000B502461046FFF7F0FF012801D0012098
:1045D00000BD0020FCE700B502461046FFF7E5FFEE
:1045E000012800D100BD0020FCE701460020CA6878
:1045F0005069CA689269104070470146C8684068AF
:10460000704738B50446002500200090E1688861B5
:10461000401EE16848612046FFF7B6FDE07820B90A
:10462000009820F0100010300090009820F080706A
:1046300000F180700090009820F0007000F1007090
:104640000090009820F0005000F100500090009879
:1046500020F0080008300090009820F4001000F5C9
:1046600000100090E0688069009988430843E16881
:104670008861284638BD08B50146D1F8CC000068ED
:104680000090009820F004000090009820F00200B4
:104690000090009820F008000090009820F0200082
:1046A0000090009808BD38B505460C4600200090E3
:1046B0002146284601F06CFB2846FFF7DCFF0090FE
:1046C0000098C0F3003058B9012C09D1009820F4AB
:1046D000805000F5805000900099D5F8CC00016022
:1046E0000098C0F3003040B13CB9009820F48050ED
:1046F00000900099D5F8CC000160C82001F091FB32
:1047000038BD38B504462046FFF7B5FF0090009845
:1047100020F4807000F5807000900099D4F8CC00EF
:1047200001600A2001F07DFB009820F48070009069
:104730000099D4F8CC000160142001F072FB012034
:1047400038BD08B5426912680092009A61F301020F
:104750000092009B4269136008BDFEB50446002626
:1047600000250020029001900090204601F011FBEE
:104770000021D4F80C010160207A012803D12046E1
:10478000FFF7DFFF03E001212046FFF7DAFF2046B5
:10479000FFF7B7FF606900680090009820F0040000
:1047A0000090009960690160E07A01281DD18020A5
:1047B000E168486202986FF30F008030029002981F
:1047C00080B200F5C00002900298E168886201980A
:1047D0006FF30F00E0300190019880B200F5C00047
:1047E00001900198E168C1F8000110212046FFF70F
:1047F0006AFE2046FFF78FFE00250DE04FF0FF31E7
:1048000004F1900050F825008160002104F190002F
:1048100050F82500C1606D1C2078A842EED8012117
:104820002046FFF740FF2046FFF7EBFE3046FEBD77
:1048300001464869806800F0010080F0010070477F
:1048400001464869406970473FB502460020002391
:104850000024029403940194441E009402F19004F5
:1048600054F82140009DA56000240394D478012CC5
:1048700004D1039C24F00404241D039402F56B74FA
:1048800004EB4114647934B1012C6AD0022C03D0BA
:10489000032C38D138E000BF039C24F00104641CD1
:1048A0000394039C24F0080408340394039C24F02C
:1048B000800480340394039C24F4806404F58064B1
:1048C0000394039C24F010041034039402F56B74D9
:1048D00004EB4114A47834B1039C24F4807404F5EF
:1048E000807403940FE0039C24F04004403403944C
:1048F00002F56B7404EB4114247924B1039C24F079
:104900002004203403944EE0039C24F00104641C32
:104910000394039C24F0100410340394039C24F0AB
:10492000080408340394039C24F080048034039426
:10493000039C24F4806404F580640394039C24F4B1
:10494000007404F50074039402F56B7404EB4114D5
:10495000A4782CB1039C24F4807404F5807403942F
:1049600021E0039C24F00104641C0394039C24F4C0
:10497000007404F500740394039C24F02004203494
:10498000039402F56B7404EB4114A47854B1039CB6
:1049900024F0800480340394039C24F4807404F590
:1049A0008074039400BF00BF02F1900454F82140CA
:1049B000039DE560012404FA01F35469A4691C43D2
:1049C0005569AC61029C24F0007404F100740294F7
:1049D000D468A469029D2C43D568AC61002401947D
:1049E00002F56B7404EB41142578019C65F39C542B
:1049F000019402F56B7404EB41146578019C65F336
:104A0000CE24019402F56B7404EB4114A578019C4B
:104A100065F3CF34019402F56B7404EB4114E47830
:104A2000022C01D1012500E00025019C65F35144D1
:104A3000019402F56B7404EB41146579019C65F3F4
:104A40009344019402F56B7404EB4114E588019CD6
:104A500065F30A04019402F56B7404EB4114647964
:104A6000032C05D1019C24F0005404F1005401945E
:104A700002F1900454F82140019D256004B030BD3E
:104A80002DE9F04388B004460D464FF00009C846B2
:104A90004FF48077002006900790009004F56B702B
:104AA00000EB4510006910B304F56B7000EB451086
:104AB000016904F56B7000EB4510C0880144491E84
:104AC00004F56B7000EB4510C088B1FBF0F086B2C6
:104AD000BE420DDD3E4604F56B7000EB4510C1880B
:104AE000714304F56B7000EB4510016100E0012695
:104AF00004F56B7000EB4510807850B104F56B70D5
:104B000000EB4510C188714304F56B7000EB451054
:104B1000016104F56B7000EB45100169069861F3C3
:104B200012000690069866F3DC40069004F56B7060
:104B300000EB4510017A069861F35E70069004F16F
:104B4000900050F8250006990161E078012809D10C
:104B500004F56B7000EB4510C16804F1900050F84B
:104B60002500416104F1900050F82500006807908D
:104B70002046FFF75DFE079960F35D710791079886
:104B800020F0004000F100400790079820F080409E
:104B9000079004F1900050F8250007990160E07833
:104BA000002864D104F56B7000EB45108078002874
:104BB0005DD104F56B7000EB45100069002856D0FC
:104BC00004F56B7000EB4510407930B1012821D01D
:104BD000022803D0032839D11BE000BFE068C06A77
:104BE000039004F56B7000EB45100069C01CC0F326
:104BF0008F08039880B240450ADA009820F0200020
:104C000020300090E068806900990843E16888617D
:104C10001DE000BF60690069019004F56B7000EB56
:104C200045100069C01CC0F38F08019880B2404550
:104C30000BDA009820F0806000F180600090E0685E
:104C4000806900990843E168886100E000BF00BF07
:104C500004F56B7000EB4510008A83B204F56B70AD
:104C600000EB45102A46C1682046FFF7DDFA4846AA
:104C700008B0BDE8F08310B586B0024600200023DE
:104C80000393019302F1900353F821301B680093C2
:104C9000009B23F0004303F100430093009B23F0AB
:104CA000804303F180430093009BC3F3814323B10E
:104CB000009BC3F38143022B0BD1D368DB6A0393C0
:104CC000039BC3F307437BB9009B23F0004300938E
:104CD0000AE053691B690193019BC3F307431BB9A6
:104CE000009B23F00043009302F1900353F821301E
:104CF000009C1C6006B010BD1CB5024600200023BD
:104D00000093009B23F0004303F100430093012430
:104D1000009B64F3DC43009302F1900353F82130CD
:104D2000009C1C6102F1900353F821301B68019331
:104D3000019B23F0004303F100430193019B23F007
:104D40008043019302F1900353F82130019C1C60D1
:104D50001CBD38B50446002160698161491E606947
:104D6000416100251AE004F1900050F82500006828
:104D70000090009820F000400090009820F08040C3
:104D800000F180400090009820F40040009004F171
:104D9000900050F82500009901606D1C2078A84211
:104DA000E1D82046FFF7B7FB10212046FFF78BFB29
:104DB00038BD70B504460E4600250021C4F8101316
:104DC00000BF0BE0002104F5457040F825103C3091
:104DD00040F825103C304155681CC5B20F2DF1DB61
:104DE0000821A4F8B21331462046FFF751FA2046B5
:104DF000FFF758FB2046FFF7B1FA01212046FFF7E5
:104E0000ADFB2046FFF7A9FC2046FFF73AFB002048
:104E100070BD08B50146D1F8CC000068009000983C
:104E2000C0F3414008BD10B504462046FFF769FCB9
:104E3000002010BD0146D1F81003704701464869B3
:104E4000806880B27047024602F29B30405C704737
:104E5000024602F5547050F821007047024602F5F0
:104E60006370405C704770B504460D462946204685
:104E7000FFF7EAFC70BD70B504460D46002104F250
:104E80009B304155113000EB4510416129462046C9
:104E9000FFF7F6FD70BD00000CB50146D1F890009B
:104EA00000680090009820F0004000F10040009061
:104EB000009820F0804000F180400090009AD1F8E6
:104EC0009000026000200190019820F4001000F58D
:104ED000001001900198CA68506101200CBD38B5DE
:104EE000044600200090FE480068816820468847FC
:104EF000009820F0005000F1005000900098E16808
:104F00004861012038BDFEB504460026002500207A
:104F1000009002900190D4F8CC0000680290D4F880
:104F2000CC0000680190019820F0040001900198E5
:104F300020F002000190019820F0080001900198F3
:104F400020F0200001900298C0F3400058B1019871
:104F500020F00200801C0190E14800684168204672
:104F6000884745F001050298C0F3C000002842D0F0
:104F7000019820F00800083001900298C0F38000EA
:104F8000002838D0D64800684168204688470298F3
:104F9000C0F34140022804D00298C0F341400128E8
:104FA00028D16069006800900298C0F3414002284F
:104FB00011D141F2707160694160009800F0030006
:104FC000022818D0207A022803D102212046FFF7B8
:104FD000B8FB01260FE04BF6803160694160009814
:104FE00000F00300012806D001212046FFF7A9FBAD
:104FF000012600E001260298C0F3401030B101986C
:1050000020F020002030019045F0010516B1204627
:10501000FFF777FB0199D4F8CC0001602846FEBD6C
:105020007FB505460C4605F1900050F82460B06845
:105030000390F0680290DDE902100840039005F14A
:10504000900050F82400006801900398C0F380009D
:10505000D0B100200090009820F00400001D0090C6
:105060000098B06005F1900050F82400C0680090EE
:10507000009820F00200801C009005F1900050F88C
:1050800024000099C160B4E10398C0F3401048B116
:1050900000200090009820F0200020300090009820
:1050A000B060A6E10398C0F34020F8B105F190008C
:1050B00050F82400C0680090009820F00200801C86
:1050C000009005F1900050F824000099C160E1B211
:1050D0002846FFF7D0FD00200090009820F40070D3
:1050E00000F5007000900098B06082E1039800F035
:1050F000010038B3002105F5457040F8241005F192
:10510000900050F82400C0680090009820F0020041
:10511000801C009005F1900050F824000099C160B7
:10512000E1B22846FFF7A7FD00200090009820F08C
:105130000100401C00900098B060012105F56370EB
:10514000015556E10398C0F3C00010B30020009051
:10515000009820F00800083000900098B06005F139
:10516000900050F82400C0680090009820F00200E1
:10517000801C009005F1900050F824000099C16057
:10518000E1B22846FFF777FD052105F5637001556B
:105190002FE10398C0F3001038B3002105F54570E6
:1051A00040F8241005F1900050F82400C0680090E9
:1051B000009820F00200801C009005F1900050F84B
:1051C00024000099C160E1B22846FFF754FD002099
:1051D0000090009820F01000103000900098B0600F
:1051E000032105F56370015503E10398C0F3C01076
:1051F00040B305F1900050F82400C068009000987A
:1052000020F00200801C009005F1900050F824006E
:105210000099C160E1B22846FFF72DFD05F5457004
:1052200050F82410491C40F824100621783001550C
:1052300000200090009820F08000803000900098BE
:10524000B060D6E00398C0F3801038B3002105F5B4
:10525000457040F8241005F1900050F82400C06813
:105260000090009820F00200801C009005F1900052
:1052700050F824000099C160E1B22846FFF7FBFC1A
:1052800000200090009820F04000403000900098EE
:10529000B060042105F563700155AAE00398C0F3DE
:1052A000802078B305F1900050F82400C068009089
:1052B000009820F00200801C009005F1900050F84A
:1052C00024000099C160E1B22846FFF7D4FC002019
:1052D0000090009820F0100010300090009801E03D
:1052E00010010020B060082105F563700155002011
:1052F0000090009820F4806000F580600090009895
:10530000B06076E0FFE70398C0F34000002870D05B
:1053100005F1900050F82400C0680090009820F03B
:105320000200009005F1900050F824000099C1603F
:1053300005F56370005D012815D1012105F29B3050
:1053400001550198C0F38140022848D105F56B70E2
:1053500000EB4410407E80F0010105F56B7000EB1E
:10536000441041763BE005F56370005D032804D1ED
:10537000022105F29B30015531E005F56370005DB7
:1053800004280FD105F56B7000EB4410007901285B
:1053900003D1E1B22846FFF7AFFC022105F29B30B2
:1053A00001551CE005F56370005D052804D104215A
:1053B00005F29B30015512E005F56370005D06288B
:1053C0000DD105F5457050F82400032807D10321BD
:1053D00005F29B3001550021873840F82410002049
:1053E0000090009820F00200801C00900098B060AF
:1053F00000BF012004B070BD70B586B005460C46F4
:1054000005F1900050F82460B0680590F0680490B1
:10541000DDE904100840059005F1900050F82400E3
:1054200000680390002004900598C0F38000D0B17C
:1054300000200190019820F00400001D01900198C7
:10544000B06005F1900050F82400C0680190019808
:1054500020F00200801C019005F1900050F824001B
:105460000199C16073E00598C0F3401048B1002075
:105470000190019820F02000203001900198B06048
:1054800065E00598C0F3C00078B305F1900050F8CE
:105490002400C0680190019820F00200801C019057
:1054A00005F1900050F824000199C160052105F52F
:1054B0006370015500200190019820F01000103019
:1054C00001900198B06000200190019820F0080040
:1054D000083001900198B060059820F01000059008
:1054E000E1B22846FFF7C7FB31E0FFE70598C0F3BC
:1054F000802060B305F1900050F82400C06801904E
:10550000019820F00200801C019005F1900050F8F5
:1055100024000199C160E1B22846FFF7ACFB0020EE
:105520000190019820F01000103001900198B060B7
:10553000082105F56370015500200190019820F4C1
:10554000806000F5806001900198B06000BF059810
:10555000C0F34020F8B105F1900050F82400C06875
:105560000190019820F00200801C019005F190004C
:1055700050F824000199C160E1B22846FFF77BFB97
:1055800000200190019820F4007000F50070019057
:105590000198B06042E1059800F00100002871D048
:1055A000E878012812D105F1900050F82400006934
:1055B000029005F56B7000EB441000690299C1F38D
:1055C0001201411A05F5547040F82410012105F527
:1055D000637001550021783840F8241000200190B4
:1055E000019820F00100401C01900198B0600398E0
:1055F000C0F3814020B10398C0F3814002282AD132
:1056000005F1900050F82400C0680190019820F046
:105610000200801C019005F1900050F824000199CF
:10562000C160E1B22846FFF726FB002001900198F7
:1056300020F01000103001900198B06005F56B70FB
:1056400000EB4410007E80F0010105F56B7000EB6B
:1056500044100176E2E00398C0F38140032899D119
:10566000039820F0005000F10050039005F19000E5
:1056700050F8240003990160012105F29B30015587
:10568000CCE0FFE70598C0F34000002851D005F1B9
:10569000900050F82400C0680190019820F00200AA
:1056A000019005F1900050F824000199C16005F5C2
:1056B0006370005D012804D1012105F29B30015582
:1056C0002DE005F56370005D052804D1042105F285
:1056D0009B30015523E005F56370005D062804D07A
:1056E00005F56370005D082808D1002105F54570B7
:1056F00040F8241003218730015510E00398C0F3CF
:10570000814003280BD105F56B7000EB4410007E3F
:1057100080F0010105F56B7000EB4410017600206C
:105720000190019820F00200801C01900198B06067
:1057300074E00598C0F3C01040B305F1900050F834
:105740002400C0680190019820F00200801C0190A4
:1057500005F1900050F824000199C16005F54570ED
:1057600050F82410491C40F82410062178300155C7
:10577000E1B22846FFF77FFA00200190019820F05F
:105780008000803001900198B06047E00598C0F338
:105790000010E8B30398C0F38140032815D105F148
:1057A000900050F82400C0680190019820F0020099
:1057B000801C019005F1900050F824000199C1600F
:1057C000E1B22846FFF757FA18E00398C0F381408A
:1057D00020B10398C0F3814002280FD1039820F034
:1057E000004000F100400390039820F080400390B7
:1057F00005F1900050F8240003990160032105F59C
:105800006370015500200190019820F0100000E025
:1058100004E0103001900198B06000BF012006B094
:1058200070BD7CB50546002400262846FFF708F821
:10583000019000BF1BE0019880B20121A140084007
:10584000A0B105F1900050F8240000680090009885
:10585000C0F3C03028B121462846FFF7CDFD0643EE
:1058600004E021462846FFF7DBFB0643641C28784A
:10587000A042E0D830467CBDFEB5044660690069B0
:1058800000900198C0F3C30104F56B7000EB411068
:105890000069C01CC0F38F0674E04FF6FF710098DA
:1058A00001EA80050198C0F3C30104F56B7000EBB9
:1058B00041100069A84216D20198C0F3C30104F553
:1058C0006B7000EB4110008A85B2002002900298B4
:1058D00020F0806000F180600290E06880690299A9
:1058E0008843E16888610198C0F3C30104F56B70D7
:1058F00000EB41100069C01CC0F38F060198C0F393
:10590000C302C0F3C30304F56B7000EB43102B46D6
:10591000C1682046FEF788FC0198C0F3C30104F576
:105920006B7000EB4110C06841190198C0F3C302CD
:1059300004F56B7000EB4210C1600198C0F3C30125
:1059400004F56B7000EB41100069411B0198C0F336
:10595000C30204F56B7000EB421001610198C0F3C3
:10596000C30104F56B7000EB4110406941190198C7
:10597000C0F3C30204F56B7000EB42104161606933
:1059800000690090009880B2B0420ADD0198C0F32F
:10599000C30104F56B7000EB4110006900287FF42F
:1059A0007CAF0120FEBD7FB50446E068C06A009070
:1059B0000198C0F3C30104F56B7000EB411000695E
:1059C000C01CC0F38F0673E04FF6FF71009801EA28
:1059D00080050198C0F3C30104F56B7000EB411022
:1059E0000069A84215D20198C0F3C30104F56B7099
:1059F00000EB4110008A85B200200390039820F04C
:105A0000200020300390E068806903998843E168B2
:105A100088610198C0F3C30104F56B7000EB41107D
:105A20000069C01CC0F38F060198C0F3C302C0F325
:105A3000C30304F56B7000EB43102B46C16820468E
:105A4000FEF7F2FB0198C0F3C30104F56B7000EBA5
:105A50004110C06841190198C0F3C30204F56B708E
:105A600000EB4210C1600198C0F3C30104F56B70F4
:105A700000EB41100069411B0198C0F3C30204F51B
:105A80006B7000EB421001610198C0F3C30104F593
:105A90006B7000EB4110406941190198C0F3C302DB
:105AA00004F56B7000EB42104161E068C06A009041
:105AB000009880B2B0420ADD0198C0F3C30104F53A
:105AC0006B7000EB4110006900287FF47DAF01206E
:105AD00004B070BD30B585B004460020009003903E
